{
  "abi": [
    {
      "inputs": [
        {
          "internalType": "address",
          "name": "_consts",
          "type": "address"
        },
        {
          "internalType": "address",
          "name": "_lamportBase",
          "type": "address"
        }
      ],
      "stateMutability": "nonpayable",
      "type": "constructor"
    },
    {
      "anonymous": false,
      "inputs": [
        {
          "indexed": false,
          "internalType": "enum LamportBase.KeyType",
          "name": "keyType",
          "type": "uint8"
        },
        {
          "indexed": false,
          "internalType": "bytes32",
          "name": "newPKH",
          "type": "bytes32"
        }
      ],
      "name": "KeyAdded",
      "type": "event"
    },
    {
      "anonymous": false,
      "inputs": [
        {
          "indexed": false,
          "internalType": "enum LamportBase.KeyType",
          "name": "originalKeyType",
          "type": "uint8"
        },
        {
          "indexed": false,
          "internalType": "bytes32",
          "name": "originalPKH",
          "type": "bytes32"
        },
        {
          "indexed": false,
          "internalType": "bytes32",
          "name": "modifiedPKH",
          "type": "bytes32"
        },
        {
          "indexed": false,
          "internalType": "enum LamportBase.KeyType",
          "name": "newKeyType",
          "type": "uint8"
        }
      ],
      "name": "KeyModified",
      "type": "event"
    },
    {
      "anonymous": false,
      "inputs": [
        {
          "indexed": false,
          "internalType": "uint256",
          "name": "hash",
          "type": "uint256"
        }
      ],
      "name": "LogLastCalculatedHash",
      "type": "event"
    },
    {
      "anonymous": false,
      "inputs": [
        {
          "indexed": false,
          "internalType": "enum LamportBase.KeyType",
          "name": "keyType",
          "type": "uint8"
        },
        {
          "indexed": false,
          "internalType": "bytes32",
          "name": "previousPKH",
          "type": "bytes32"
        },
        {
          "indexed": false,
          "internalType": "bytes32",
          "name": "newPKH",
          "type": "bytes32"
        }
      ],
      "name": "PkhUpdated",
      "type": "event"
    },
    {
      "anonymous": false,
      "inputs": [
        {
          "indexed": false,
          "internalType": "address",
          "name": "newConstsAddress",
          "type": "address"
        }
      ],
      "name": "SFCConstsAddressSet",
      "type": "event"
    },
    {
      "anonymous": false,
      "inputs": [
        {
          "indexed": false,
          "internalType": "uint256",
          "name": "hashedData",
          "type": "uint256"
        }
      ],
      "name": "VerificationFailed",
      "type": "event"
    },
    {
      "inputs": [],
      "name": "burntFeeShare",
      "outputs": [
        {
          "internalType": "uint256",
          "name": "",
          "type": "uint256"
        }
      ],
      "stateMutability": "view",
      "type": "function"
    },
    {
      "inputs": [],
      "name": "consts",
      "outputs": [
        {
          "internalType": "contract IConsts",
          "name": "",
          "type": "address"
        }
      ],
      "stateMutability": "view",
      "type": "function"
    },
    {
      "inputs": [],
      "name": "constsAddress",
      "outputs": [
        {
          "internalType": "address",
          "name": "",
          "type": "address"
        }
      ],
      "stateMutability": "view",
      "type": "function"
    },
    {
      "inputs": [
        {
          "internalType": "bytes32[2][256]",
          "name": "currentpub",
          "type": "bytes32[2][256]"
        },
        {
          "internalType": "bytes[256]",
          "name": "sig",
          "type": "bytes[256]"
        },
        {
          "internalType": "bytes32",
          "name": "nextPKH",
          "type": "bytes32"
        },
        {
          "internalType": "uint256",
          "name": "v",
          "type": "uint256"
        }
      ],
      "name": "constsUpdateBurntFeeShareStepOne",
      "outputs": [],
      "stateMutability": "nonpayable",
      "type": "function"
    },
    {
      "inputs": [
        {
          "internalType": "bytes32[2][256]",
          "name": "currentpub",
          "type": "bytes32[2][256]"
        },
        {
          "internalType": "bytes[256]",
          "name": "sig",
          "type": "bytes[256]"
        },
        {
          "internalType": "bytes32",
          "name": "nextPKH",
          "type": "bytes32"
        },
        {
          "internalType": "uint256",
          "name": "v",
          "type": "uint256"
        }
      ],
      "name": "constsUpdateBurntFeeShareStepTwo",
      "outputs": [],
      "stateMutability": "nonpayable",
      "type": "function"
    },
    {
      "inputs": [
        {
          "internalType": "bytes32[2][256]",
          "name": "currentpub",
          "type": "bytes32[2][256]"
        },
        {
          "internalType": "bytes[256]",
          "name": "sig",
          "type": "bytes[256]"
        },
        {
          "internalType": "bytes32",
          "name": "nextPKH",
          "type": "bytes32"
        },
        {
          "internalType": "uint256",
          "name": "v",
          "type": "uint256"
        }
      ],
      "name": "constsUpdateMaxDelegatedRatioStepOne",
      "outputs": [],
      "stateMutability": "nonpayable",
      "type": "function"
    },
    {
      "inputs": [
        {
          "internalType": "bytes32[2][256]",
          "name": "currentpub",
          "type": "bytes32[2][256]"
        },
        {
          "internalType": "bytes[256]",
          "name": "sig",
          "type": "bytes[256]"
        },
        {
          "internalType": "bytes32",
          "name": "nextPKH",
          "type": "bytes32"
        },
        {
          "internalType": "uint256",
          "name": "v",
          "type": "uint256"
        }
      ],
      "name": "constsUpdateMaxDelegatedRatioStepTwo",
      "outputs": [],
      "stateMutability": "nonpayable",
      "type": "function"
    },
    {
      "inputs": [
        {
          "internalType": "bytes32[2][256]",
          "name": "currentpub",
          "type": "bytes32[2][256]"
        },
        {
          "internalType": "bytes[256]",
          "name": "sig",
          "type": "bytes[256]"
        },
        {
          "internalType": "bytes32",
          "name": "nextPKH",
          "type": "bytes32"
        },
        {
          "internalType": "uint256",
          "name": "v",
          "type": "uint256"
        }
      ],
      "name": "constsUpdateMaxLockupDurationStepOne",
      "outputs": [],
      "stateMutability": "nonpayable",
      "type": "function"
    },
    {
      "inputs": [
        {
          "internalType": "bytes32[2][256]",
          "name": "currentpub",
          "type": "bytes32[2][256]"
        },
        {
          "internalType": "bytes[256]",
          "name": "sig",
          "type": "bytes[256]"
        },
        {
          "internalType": "bytes32",
          "name": "nextPKH",
          "type": "bytes32"
        },
        {
          "internalType": "uint256",
          "name": "v",
          "type": "uint256"
        }
      ],
      "name": "constsUpdateMaxLockupDurationStepTwo",
      "outputs": [],
      "stateMutability": "nonpayable",
      "type": "function"
    },
    {
      "inputs": [
        {
          "internalType": "bytes32[2][256]",
          "name": "currentpub",
          "type": "bytes32[2][256]"
        },
        {
          "internalType": "bytes[256]",
          "name": "sig",
          "type": "bytes[256]"
        },
        {
          "internalType": "bytes32",
          "name": "nextPKH",
          "type": "bytes32"
        },
        {
          "internalType": "uint256",
          "name": "v",
          "type": "uint256"
        }
      ],
      "name": "constsUpdateMinLockupDurationStepOne",
      "outputs": [],
      "stateMutability": "nonpayable",
      "type": "function"
    },
    {
      "inputs": [
        {
          "internalType": "bytes32[2][256]",
          "name": "currentpub",
          "type": "bytes32[2][256]"
        },
        {
          "internalType": "bytes[256]",
          "name": "sig",
          "type": "bytes[256]"
        },
        {
          "internalType": "bytes32",
          "name": "nextPKH",
          "type": "bytes32"
        },
        {
          "internalType": "uint256",
          "name": "v",
          "type": "uint256"
        }
      ],
      "name": "constsUpdateMinLockupDurationStepTwo",
      "outputs": [],
      "stateMutability": "nonpayable",
      "type": "function"
    },
    {
      "inputs": [
        {
          "internalType": "bytes32[2][256]",
          "name": "currentpub",
          "type": "bytes32[2][256]"
        },
        {
          "internalType": "bytes[256]",
          "name": "sig",
          "type": "bytes[256]"
        },
        {
          "internalType": "bytes32",
          "name": "nextPKH",
          "type": "bytes32"
        },
        {
          "internalType": "uint256",
          "name": "v",
          "type": "uint256"
        }
      ],
      "name": "constsUpdateMinSelfStakeStepOne",
      "outputs": [],
      "stateMutability": "nonpayable",
      "type": "function"
    },
    {
      "inputs": [
        {
          "internalType": "bytes32[2][256]",
          "name": "currentpub",
          "type": "bytes32[2][256]"
        },
        {
          "internalType": "bytes[256]",
          "name": "sig",
          "type": "bytes[256]"
        },
        {
          "internalType": "bytes32",
          "name": "nextPKH",
          "type": "bytes32"
        },
        {
          "internalType": "uint256",
          "name": "v",
          "type": "uint256"
        }
      ],
      "name": "constsUpdateMinSelfStakeStepTwo",
      "outputs": [],
      "stateMutability": "nonpayable",
      "type": "function"
    },
    {
      "inputs": [
        {
          "internalType": "bytes32[2][256]",
          "name": "currentpub",
          "type": "bytes32[2][256]"
        },
        {
          "internalType": "bytes[256]",
          "name": "sig",
          "type": "bytes[256]"
        },
        {
          "internalType": "bytes32",
          "name": "nextPKH",
          "type": "bytes32"
        },
        {
          "internalType": "uint256",
          "name": "v",
          "type": "uint256"
        }
      ],
      "name": "constsUpdateTreasuryFeeShareStepOne",
      "outputs": [],
      "stateMutability": "nonpayable",
      "type": "function"
    },
    {
      "inputs": [
        {
          "internalType": "bytes32[2][256]",
          "name": "currentpub",
          "type": "bytes32[2][256]"
        },
        {
          "internalType": "bytes[256]",
          "name": "sig",
          "type": "bytes[256]"
        },
        {
          "internalType": "bytes32",
          "name": "nextPKH",
          "type": "bytes32"
        },
        {
          "internalType": "uint256",
          "name": "v",
          "type": "uint256"
        }
      ],
      "name": "constsUpdateTreasuryFeeShareStepTwo",
      "outputs": [],
      "stateMutability": "nonpayable",
      "type": "function"
    },
    {
      "inputs": [
        {
          "internalType": "bytes32[2][256]",
          "name": "currentpub",
          "type": "bytes32[2][256]"
        },
        {
          "internalType": "bytes[256]",
          "name": "sig",
          "type": "bytes[256]"
        },
        {
          "internalType": "bytes32",
          "name": "nextPKH",
          "type": "bytes32"
        },
        {
          "internalType": "uint256",
          "name": "v",
          "type": "uint256"
        }
      ],
      "name": "constsUpdateUnlockedRewardRatioStepOne",
      "outputs": [],
      "stateMutability": "nonpayable",
      "type": "function"
    },
    {
      "inputs": [
        {
          "internalType": "bytes32[2][256]",
          "name": "currentpub",
          "type": "bytes32[2][256]"
        },
        {
          "internalType": "bytes[256]",
          "name": "sig",
          "type": "bytes[256]"
        },
        {
          "internalType": "bytes32",
          "name": "nextPKH",
          "type": "bytes32"
        },
        {
          "internalType": "uint256",
          "name": "v",
          "type": "uint256"
        }
      ],
      "name": "constsUpdateUnlockedRewardRatioStepTwo",
      "outputs": [],
      "stateMutability": "nonpayable",
      "type": "function"
    },
    {
      "inputs": [
        {
          "internalType": "bytes32[2][256]",
          "name": "currentpub",
          "type": "bytes32[2][256]"
        },
        {
          "internalType": "bytes[256]",
          "name": "sig",
          "type": "bytes[256]"
        },
        {
          "internalType": "bytes32",
          "name": "nextPKH",
          "type": "bytes32"
        },
        {
          "internalType": "uint256",
          "name": "v",
          "type": "uint256"
        }
      ],
      "name": "constsUpdateValidatorCommissionStepOne",
      "outputs": [],
      "stateMutability": "nonpayable",
      "type": "function"
    },
    {
      "inputs": [
        {
          "internalType": "bytes32[2][256]",
          "name": "currentpub",
          "type": "bytes32[2][256]"
        },
        {
          "internalType": "bytes[256]",
          "name": "sig",
          "type": "bytes[256]"
        },
        {
          "internalType": "bytes32",
          "name": "nextPKH",
          "type": "bytes32"
        },
        {
          "internalType": "uint256",
          "name": "v",
          "type": "uint256"
        }
      ],
      "name": "constsUpdateValidatorCommissionStepTwo",
      "outputs": [],
      "stateMutability": "nonpayable",
      "type": "function"
    },
    {
      "inputs": [
        {
          "internalType": "bytes32[2][256]",
          "name": "currentpub",
          "type": "bytes32[2][256]"
        },
        {
          "internalType": "bytes[256]",
          "name": "sig",
          "type": "bytes[256]"
        },
        {
          "internalType": "bytes32",
          "name": "nextPKH",
          "type": "bytes32"
        },
        {
          "internalType": "uint256",
          "name": "v",
          "type": "uint256"
        }
      ],
      "name": "constsUpdateWithdrawalPeriodEpochsStepOne",
      "outputs": [],
      "stateMutability": "nonpayable",
      "type": "function"
    },
    {
      "inputs": [
        {
          "internalType": "bytes32[2][256]",
          "name": "currentpub",
          "type": "bytes32[2][256]"
        },
        {
          "internalType": "bytes[256]",
          "name": "sig",
          "type": "bytes[256]"
        },
        {
          "internalType": "bytes32",
          "name": "nextPKH",
          "type": "bytes32"
        },
        {
          "internalType": "uint256",
          "name": "v",
          "type": "uint256"
        }
      ],
      "name": "constsUpdateWithdrawalPeriodEpochsStepTwo",
      "outputs": [],
      "stateMutability": "nonpayable",
      "type": "function"
    },
    {
      "inputs": [
        {
          "internalType": "bytes32[2][256]",
          "name": "currentpub",
          "type": "bytes32[2][256]"
        },
        {
          "internalType": "bytes[256]",
          "name": "sig",
          "type": "bytes[256]"
        },
        {
          "internalType": "bytes32",
          "name": "nextPKH",
          "type": "bytes32"
        },
        {
          "internalType": "bytes",
          "name": "newmasterPKH",
          "type": "bytes"
        }
      ],
      "name": "createMasterKeyStepOne",
      "outputs": [],
      "stateMutability": "nonpayable",
      "type": "function"
    },
    {
      "inputs": [
        {
          "internalType": "bytes32[2][256]",
          "name": "currentpub",
          "type": "bytes32[2][256]"
        },
        {
          "internalType": "bytes[256]",
          "name": "sig",
          "type": "bytes[256]"
        },
        {
          "internalType": "bytes32",
          "name": "nextPKH",
          "type": "bytes32"
        },
        {
          "internalType": "bytes32",
          "name": "newmasterPKH",
          "type": "bytes32"
        }
      ],
      "name": "createMasterKeyStepTwo",
      "outputs": [],
      "stateMutability": "nonpayable",
      "type": "function"
    },
    {
      "inputs": [
        {
          "internalType": "bytes32[2][256]",
          "name": "currentpub",
          "type": "bytes32[2][256]"
        },
        {
          "internalType": "bytes32",
          "name": "nextPKH",
          "type": "bytes32"
        },
        {
          "internalType": "bytes[256]",
          "name": "sig",
          "type": "bytes[256]"
        },
        {
          "internalType": "bytes32",
          "name": "neworaclePKH",
          "type": "bytes32"
        }
      ],
      "name": "createOracleKeyFromMaster",
      "outputs": [],
      "stateMutability": "nonpayable",
      "type": "function"
    },
    {
      "inputs": [
        {
          "internalType": "bytes32[2][256]",
          "name": "currentpub",
          "type": "bytes32[2][256]"
        },
        {
          "internalType": "bytes[256]",
          "name": "sig",
          "type": "bytes[256]"
        },
        {
          "internalType": "bytes32",
          "name": "nextPKH",
          "type": "bytes32"
        },
        {
          "internalType": "bytes32",
          "name": "deleteKeyHash",
          "type": "bytes32"
        }
      ],
      "name": "deleteKeyStepOne",
      "outputs": [],
      "stateMutability": "nonpayable",
      "type": "function"
    },
    {
      "inputs": [
        {
          "internalType": "bytes32[2][256]",
          "name": "currentpub",
          "type": "bytes32[2][256]"
        },
        {
          "internalType": "bytes[256]",
          "name": "sig",
          "type": "bytes[256]"
        },
        {
          "internalType": "bytes32",
          "name": "nextPKH",
          "type": "bytes32"
        },
        {
          "internalType": "bytes32",
          "name": "confirmDeleteKeyHash",
          "type": "bytes32"
        }
      ],
      "name": "deleteKeyStepTwo",
      "outputs": [],
      "stateMutability": "nonpayable",
      "type": "function"
    },
    {
      "inputs": [
        {
          "internalType": "bytes32",
          "name": "pkh",
          "type": "bytes32"
        }
      ],
      "name": "getKeyAndPosByPKH",
      "outputs": [
        {
          "internalType": "enum LamportBase.KeyType",
          "name": "",
          "type": "uint8"
        },
        {
          "internalType": "bytes32",
          "name": "",
          "type": "bytes32"
        },
        {
          "internalType": "uint256",
          "name": "",
          "type": "uint256"
        }
      ],
      "stateMutability": "view",
      "type": "function"
    },
    {
      "inputs": [
        {
          "internalType": "enum LamportBase.KeyType",
          "name": "privilege",
          "type": "uint8"
        }
      ],
      "name": "getPKHsByPrivilege",
      "outputs": [
        {
          "internalType": "bytes32[]",
          "name": "",
          "type": "bytes32[]"
        }
      ],
      "stateMutability": "view",
      "type": "function"
    },
    {
      "inputs": [
        {
          "internalType": "bytes32",
          "name": "masterPKH1",
          "type": "bytes32"
        },
        {
          "internalType": "bytes32",
          "name": "masterPKH2",
          "type": "bytes32"
        },
        {
          "internalType": "bytes32",
          "name": "oraclePKH",
          "type": "bytes32"
        }
      ],
      "name": "init",
      "outputs": [],
      "stateMutability": "nonpayable",
      "type": "function"
    },
    {
      "inputs": [
        {
          "internalType": "bytes32",
          "name": "",
          "type": "bytes32"
        }
      ],
      "name": "keyData",
      "outputs": [
        {
          "internalType": "enum LamportBase.KeyType",
          "name": "keyType",
          "type": "uint8"
        },
        {
          "internalType": "bytes32",
          "name": "pkh",
          "type": "bytes32"
        }
      ],
      "stateMutability": "view",
      "type": "function"
    },
    {
      "inputs": [
        {
          "internalType": "uint256",
          "name": "",
          "type": "uint256"
        }
      ],
      "name": "keys",
      "outputs": [
        {
          "internalType": "enum LamportBase.KeyType",
          "name": "keyType",
          "type": "uint8"
        },
        {
          "internalType": "bytes32",
          "name": "pkh",
          "type": "bytes32"
        }
      ],
      "stateMutability": "view",
      "type": "function"
    },
    {
      "inputs": [],
      "name": "lamportBase",
      "outputs": [
        {
          "internalType": "contract LamportBase",
          "name": "",
          "type": "address"
        }
      ],
      "stateMutability": "view",
      "type": "function"
    },
    {
      "inputs": [],
      "name": "lastUsedNextPKH",
      "outputs": [
        {
          "internalType": "bytes32",
          "name": "",
          "type": "bytes32"
        }
      ],
      "stateMutability": "view",
      "type": "function"
    },
    {
      "inputs": [],
      "name": "lastVerificationResult",
      "outputs": [
        {
          "internalType": "bool",
          "name": "",
          "type": "bool"
        }
      ],
      "stateMutability": "view",
      "type": "function"
    },
    {
      "inputs": [],
      "name": "maxLockupDuration",
      "outputs": [
        {
          "internalType": "uint256",
          "name": "",
          "type": "uint256"
        }
      ],
      "stateMutability": "view",
      "type": "function"
    },
    {
      "inputs": [],
      "name": "minLockupDuration",
      "outputs": [
        {
          "internalType": "uint256",
          "name": "",
          "type": "uint256"
        }
      ],
      "stateMutability": "view",
      "type": "function"
    },
    {
      "inputs": [
        {
          "internalType": "bytes32[2][256]",
          "name": "currentpub",
          "type": "bytes32[2][256]"
        },
        {
          "internalType": "bytes[256]",
          "name": "sig",
          "type": "bytes[256]"
        },
        {
          "internalType": "bytes32",
          "name": "nextPKH",
          "type": "bytes32"
        },
        {
          "internalType": "bytes",
          "name": "prepacked",
          "type": "bytes"
        }
      ],
      "name": "performLamportMasterCheck",
      "outputs": [
        {
          "internalType": "bool",
          "name": "",
          "type": "bool"
        }
      ],
      "stateMutability": "nonpayable",
      "type": "function"
    },
    {
      "inputs": [
        {
          "internalType": "bytes32[2][256]",
          "name": "currentpub",
          "type": "bytes32[2][256]"
        },
        {
          "internalType": "bytes[256]",
          "name": "sig",
          "type": "bytes[256]"
        },
        {
          "internalType": "bytes32",
          "name": "nextPKH",
          "type": "bytes32"
        },
        {
          "internalType": "bytes",
          "name": "prepacked",
          "type": "bytes"
        }
      ],
      "name": "performLamportOracleCheck",
      "outputs": [
        {
          "internalType": "bool",
          "name": "",
          "type": "bool"
        }
      ],
      "stateMutability": "nonpayable",
      "type": "function"
    },
    {
      "inputs": [
        {
          "internalType": "bytes32[2][256]",
          "name": "currentpub",
          "type": "bytes32[2][256]"
        },
        {
          "internalType": "bytes[256]",
          "name": "sig",
          "type": "bytes[256]"
        },
        {
          "internalType": "bytes32",
          "name": "nextPKH",
          "type": "bytes32"
        },
        {
          "internalType": "address",
          "name": "_constsAddress",
          "type": "address"
        }
      ],
      "name": "setSFCtConstsAddressStepOne",
      "outputs": [],
      "stateMutability": "nonpayable",
      "type": "function"
    },
    {
      "inputs": [
        {
          "internalType": "bytes32[2][256]",
          "name": "currentpub",
          "type": "bytes32[2][256]"
        },
        {
          "internalType": "bytes[256]",
          "name": "sig",
          "type": "bytes[256]"
        },
        {
          "internalType": "bytes32",
          "name": "nextPKH",
          "type": "bytes32"
        },
        {
          "internalType": "address",
          "name": "_constsAddress",
          "type": "address"
        }
      ],
      "name": "setSFCtConstsAddressStepTwo",
      "outputs": [],
      "stateMutability": "nonpayable",
      "type": "function"
    },
    {
      "inputs": [],
      "name": "treasuryFeeShare",
      "outputs": [
        {
          "internalType": "uint256",
          "name": "",
          "type": "uint256"
        }
      ],
      "stateMutability": "view",
      "type": "function"
    },
    {
      "inputs": [],
      "name": "unlockedRewardRatio",
      "outputs": [
        {
          "internalType": "uint256",
          "name": "",
          "type": "uint256"
        }
      ],
      "stateMutability": "view",
      "type": "function"
    },
    {
      "inputs": [],
      "name": "validatorCommission",
      "outputs": [
        {
          "internalType": "uint256",
          "name": "",
          "type": "uint256"
        }
      ],
      "stateMutability": "view",
      "type": "function"
    },
    {
      "inputs": [
        {
          "internalType": "uint256",
          "name": "bits",
          "type": "uint256"
        },
        {
          "internalType": "bytes[256]",
          "name": "sig",
          "type": "bytes[256]"
        },
        {
          "internalType": "bytes32[2][256]",
          "name": "pub",
          "type": "bytes32[2][256]"
        }
      ],
      "name": "verify_u256",
      "outputs": [
        {
          "internalType": "bool",
          "name": "",
          "type": "bool"
        }
      ],
      "stateMutability": "pure",
      "type": "function"
    },
    {
      "inputs": [],
      "name": "withdrawalPeriodEpochs",
      "outputs": [
        {
          "internalType": "uint256",
          "name": "",
          "type": "uint256"
        }
      ],
      "stateMutability": "view",
      "type": "function"
    }
  ],
  "bytecode": "60806040526000805460ff191690553480156200001b57600080fd5b5060405162003fe438038062003fe48339810160408190526200003e916200008d565b600880546001600160a01b039384166001600160a01b03199182161790915560098054929093169116179055620000c5565b80516001600160a01b03811681146200008857600080fd5b919050565b60008060408385031215620000a157600080fd5b620000ac8362000070565b9150620000bc6020840162000070565b90509250929050565b613f0f80620000d56000396000f3fe608060405234801561001057600080fd5b506004361061027f5760003560e01c80636aa66f2a1161015c578063b35f353c116100ce578063d46fa51811610087578063d46fa5181461059d578063d83c413c146105a5578063d86d744e146105b8578063e05b694b146105cb578063e2829555146105de578063e673d71f146105f157600080fd5b8063b35f353c14610528578063b97b4f771461053b578063ba06db3c1461055b578063bd1d8b0c1461056e578063c74dd62114610581578063ce7836391461058a57600080fd5b806394c3e9141161012057806394c3e914146104b057806396c5d6f5146104b95780639fbd7d3e146104cc578063a7786515146104df578063a9711ee3146104e8578063af82f3e71461051557600080fd5b80636aa66f2a14610451578063741fa7ba146104645780638ab7a9a3146104775780638be5f98b1461048a5780638eb8f1a61461049d57600080fd5b8063333f6111116101f557806356bf7b57116101b957806356bf7b57146103db5780635796841a146104065780635d0b51ca146104195780635e2308d21461042c578063650acd661461043557806369a161101461043e57600080fd5b8063333f6111146103865780634a89d52b146103995780634bdd4499146103ac5780634e657d2a146103b55780635106de96146103c857600080fd5b80631271b9d2116102475780631271b9d21461030557806318d02b1c146103185780632db76a691461032b5780632fd5c2471461033e5780632ffa117614610360578063305b2dd21461037357600080fd5b806305aacc7d146102845780630b0ad508146102af5780630cb6aaf1146102c45780630d4955e3146102e55780630d7b2609146102fc575b600080fd5b61029761029236600461365b565b610604565b6040516102a6939291906136ac565b60405180910390f35b6102c26102bd3660046136cb565b61070b565b005b6102d76102d236600461365b565b610791565b6040516102a69291906136f7565b6102ee60135481565b6040519081526020016102a6565b6102ee60125481565b6102c261031336600461373c565b6107c3565b6102c261032636600461373c565b61099d565b6102c261033936600461373c565b610b65565b60005461035090610100900460ff1681565b60405190151581526020016102a6565b6102c261036e36600461373c565b610d21565b6102c261038136600461373c565b610dfd565b6103506103943660046137b5565b610ff4565b6103506103a73660046137b5565b6110e5565b6102ee60055481565b6102c26103c33660046137b5565b61113c565b6102c26103d636600461373c565b61130d565b6009546103ee906001600160a01b031681565b6040516001600160a01b0390911681526020016102a6565b6102c261041436600461373c565b611503565b6102c261042736600461373c565b611762565b6102ee600b5481565b6102ee60165481565b6102c261044c36600461373c565b61183e565b6102c261045f36600461373c565b61191a565b6102c261047236600461373c565b6119f6565b6102c261048536600461373c565b611bf9565b6102c261049836600461373c565b611cd5565b6102c26104ab3660046138aa565b611ea0565b6102ee600a5481565b6102c26104c736600461373c565b612049565b6102c26104da36600461373c565b612125565b6102ee600e5481565b6102d76104f636600461365b565b6002602052600090815260409020805460019091015460ff9091169082565b61035061052336600461390e565b612201565b6102c261053636600461373c565b6122b6565b61054e610549366004613967565b612392565b6040516102a69190613988565b6102c26105693660046139e4565b612542565b6102c261057c3660046139e4565b6126e0565b6102ee600f5481565b6102c261059836600461373c565b6127c6565b6103ee6128a2565b6102c26105b336600461373c565b612915565b6008546103ee906001600160a01b031681565b6102c26105d936600461373c565b612abd565b6102c26105ec36600461373c565b612c79565b6102c26105ff36600461373c565b612e6b565b60008181526002602081905260408083208151808301909252805484938493849390929091839160ff169081111561063e5761063e613674565b600281111561064f5761064f613674565b81526001919091015460209182015281015190915060000361068c5760405162461bcd60e51b815260040161068390613a53565b60405180910390fd5b60005b6001548110156106eb5785600182815481106106ad576106ad613a8a565b906000526020600020906002020160010154036106d95781516020909201519194509092509050610704565b806106e381613ab6565b91505061068f565b5060405162461bcd60e51b815260040161068390613a53565b9193909250565b60005460ff161561075e5760405162461bcd60e51b815260206004820181905260248201527f4c616d706f7274426173653a20416c726561647920696e697469616c697a65646044820152606401610683565b6107696000846133a0565b6107746000836133a0565b61077f6001826133a0565b50506000805460ff1916600117905550565b600181815481106107a157600080fd5b60009182526020909120600290910201805460019091015460ff909116915082565b600954604080516020808201859052825180830390910181528183019283905263333f611160e01b9092526001600160a01b039092169163333f6111916108139188918891889190604401613b48565b6020604051808303816000875af1158015610832573d6000803e3d6000fd5b505050506040513d601f19601f820116820180604052508101906108569190613c29565b6108725760405162461bcd60e51b815260040161068390613c4b565b60408051602081018390520160405160208183030381529060405280519060200120600754146108ee5760405162461bcd60e51b815260206004820152602160248201527f4d69736d617463686564206d617844656c656761746564526174696f206861736044820152600d60fb1b6064820152608401610683565b670de0b6b3a764000081101580156109185750610914670de0b6b3a7640000601f613c78565b8111155b6109345760405162461bcd60e51b815260040161068390613c8f565b6008546040516381ffcdf160e01b8152600481018390526001600160a01b03909116906381ffcdf190602401600060405180830381600087803b15801561097a57600080fd5b505af115801561098e573d6000803e3d6000fd5b50506000600755505050505050565b600954604080516020808201859052825180830390910181528183019283905263333f611160e01b9092526001600160a01b039092169163333f6111916109ed9188918891889190604401613b48565b6020604051808303816000875af1158015610a0c573d6000803e3d6000fd5b505050506040513d601f19601f82011682018060405250810190610a309190613c29565b610a4c5760405162461bcd60e51b815260040161068390613c4b565b6040805160208101839052016040516020818303038152906040528051906020012060105414610aca5760405162461bcd60e51b815260206004820152602360248201527f4d69736d6174636865642076616c696461746f72436f6d6d697373696f6e20686044820152620c2e6d60eb1b6064820152608401610683565b610add6002670de0b6b3a7640000613cbc565b811115610afc5760405162461bcd60e51b815260040161068390613cde565b600854604051631773889960e11b8152600481018390526001600160a01b0390911690632ee7113290602401600060405180830381600087803b158015610b4257600080fd5b505af1158015610b56573d6000803e3d6000fd5b50506000601055505050505050565b600954604080516020808201859052825180830390910181528183019283905263333f611160e01b9092526001600160a01b039092169163333f611191610bb59188918891889190604401613b48565b6020604051808303816000875af1158015610bd4573d6000803e3d6000fd5b505050506040513d601f19601f82011682018060405250810190610bf89190613c29565b610c145760405162461bcd60e51b815260040161068390613c4b565b6040805160208101839052016040516020818303038152906040528051906020012060115414610c865760405162461bcd60e51b815260206004820152601d60248201527f4d69736d617463686564206275726e74466565536861726520686173680000006044820152606401610683565b610c996002670de0b6b3a7640000613cbc565b811115610cb85760405162461bcd60e51b815260040161068390613cde565b600854604051632bb9fe8d60e01b8152600481018390526001600160a01b0390911690632bb9fe8d90602401600060405180830381600087803b158015610cfe57600080fd5b505af1158015610d12573d6000803e3d6000fd5b50506000601155505050505050565b600954604080516020808201859052825180830390910181528183019283905263333f611160e01b9092526001600160a01b039092169163333f611191610d719188918891889190604401613b48565b6020604051808303816000875af1158015610d90573d6000803e3d6000fd5b505050506040513d601f19601f82011682018060405250810190610db49190613c29565b610dd05760405162461bcd60e51b815260040161068390613c4b565b60408051602081018390520160408051601f19818403018152919052805160209091012060155550505050565b600954604080516020808201859052825180830390910181528183019283905263333f611160e01b9092526001600160a01b039092169163333f611191610e4d9188918891889190604401613b48565b6020604051808303816000875af1158015610e6c573d6000803e3d6000fd5b505050506040513d601f19601f82011682018060405250810190610e909190613c29565b610eac5760405162461bcd60e51b815260040161068390613c4b565b6040805160208101839052016040516020818303038152906040528051906020012060155414610f285760405162461bcd60e51b815260206004820152602160248201527f4d69736d617463686564206d61784c6f636b75704475726174696f6e206861736044820152600d60fb1b6064820152608401610683565b62278d008110158015610f3f5750630784ce008111155b610f8b5760405162461bcd60e51b815260206004820152601f60248201527f496e76616c6964206d61784c6f636b75704475726174696f6e2072616e6765006044820152606401610683565b60085460405163ad7b3f7b60e01b8152600481018390526001600160a01b039091169063ad7b3f7b90602401600060405180830381600087803b158015610fd157600080fd5b505af1158015610fe5573d6000803e3d6000fd5b50506000601555505050505050565b6000805460ff166110175760405162461bcd60e51b815260040161068390613d07565b60008560405160200161102a9190613d3e565b60408051601f198184030181529190528051602090910120905060005b60008281526002602081905260409091205460ff169081111561106c5761106c613674565b1461107b5760009150506110dd565b60008385604051602001611090929190613d75565b6040516020818303038152906040528051906020012060001c905060006110b882888a612201565b9050806110cb57600093505050506110dd565b6110d583876134b9565b600193505050505b949350505050565b6000805460ff166111085760405162461bcd60e51b815260040161068390613d07565b60008560405160200161111b9190613d3e565b60408051601f19818403018152919052805160209091012090506001611047565b600054849084908490849060ff166111665760405162461bcd60e51b815260040161068390613d07565b6000846040516020016111799190613d3e565b60408051601f19818403018152919052805160209091012090506000808281526002602081905260409091205460ff16908111156111b9576111b9613674565b146111d65760405162461bcd60e51b815260040161068390613d97565b600082846040516020016111eb929190613d75565b60408051601f198184030181529082905280516020918201208083529250600080516020613e9a833981519152910160405180910390a1600061122f828789612201565b6000805461ff001916610100831515021790559050806112b357604051828152600080516020613e7a833981519152906020015b60405180910390a160405162461bcd60e51b815260206004820181905260248201527f4c616d706f7274426173653a20566572696669636174696f6e206661696c65646044820152606401610683565b60008381526002602052604090819020549051600080516020613eba833981519152916112e99160ff90911690869089906136ac565b60405180910390a16112fb83866134b9565b50505060059590955550505050505050565b600954604080516020808201859052825180830390910181528183019283905263333f611160e01b9092526001600160a01b039092169163333f61119161135d9188918891889190604401613b48565b6020604051808303816000875af115801561137c573d6000803e3d6000fd5b505050506040513d601f19601f820116820180604052508101906113a09190613c29565b6113bc5760405162461bcd60e51b815260040161068390613c4b565b60408051602081018390520160405160208183030381529060405280519060200120601454146114385760405162461bcd60e51b815260206004820152602160248201527f4d69736d617463686564206d696e4c6f636b75704475726174696f6e206861736044820152600d60fb1b6064820152608401610683565b62015180811015801561144e575062278d008111155b61149a5760405162461bcd60e51b815260206004820152601f60248201527f496e76616c6964206d696e4c6f636b75704475726174696f6e2072616e6765006044820152606401610683565b60085460405163bf25338b60e01b8152600481018390526001600160a01b039091169063bf25338b90602401600060405180830381600087803b1580156114e057600080fd5b505af11580156114f4573d6000803e3d6000fd5b50506000601455505050505050565b8383838360405160200161151991815260200190565b60408051601f1981840301815291905260005460ff1661154b5760405162461bcd60e51b815260040161068390613d07565b60008460405160200161155e9190613d3e565b60408051601f19818403018152919052805160209091012090506000808281526002602081905260409091205460ff169081111561159e5761159e613674565b146115bb5760405162461bcd60e51b815260040161068390613d97565b600082846040516020016115d0929190613d75565b60408051601f198184030181529082905280516020918201208083529250600080516020613e9a833981519152910160405180910390a16000611614828789612201565b6000805461ff0019166101008315150217905590508061164c57604051828152600080516020613e7a83398151915290602001611263565b60008381526002602052604090819020549051600080516020613eba833981519152916116829160ff90911690869089906136ac565b60405180910390a161169483866134b9565b60008b6040516020016116a79190613d3e565b60408051601f19818403018152919052805160209091012060058054600090915590915081141580611743576040805162461bcd60e51b81526020600482015260248101919091527f4c616d706f7274426173653a20504b48206d617463686573206c61737420757360448201527f656420504b482028757365207365706172617465207365636f6e64206b6579296064820152608401610683565b61174e60008b6133a0565b505060006005555050505050505050505050565b600954604080516020808201859052825180830390910181528183019283905263333f611160e01b9092526001600160a01b039092169163333f6111916117b29188918891889190604401613b48565b6020604051808303816000875af11580156117d1573d6000803e3d6000fd5b505050506040513d601f19601f820116820180604052508101906117f59190613c29565b6118115760405162461bcd60e51b815260040161068390613c4b565b60408051602081018390520160408051601f198184030181529190528051602090910120600c5550505050565b600954604080516020808201859052825180830390910181528183019283905263333f611160e01b9092526001600160a01b039092169163333f61119161188e9188918891889190604401613b48565b6020604051808303816000875af11580156118ad573d6000803e3d6000fd5b505050506040513d601f19601f820116820180604052508101906118d19190613c29565b6118ed5760405162461bcd60e51b815260040161068390613c4b565b60408051602081018390520160408051601f19818403018152919052805160209091012060175550505050565b600954604080516020808201859052825180830390910181528183019283905263333f611160e01b9092526001600160a01b039092169163333f61119161196a9188918891889190604401613b48565b6020604051808303816000875af1158015611989573d6000803e3d6000fd5b505050506040513d601f19601f820116820180604052508101906119ad9190613c29565b6119c95760405162461bcd60e51b815260040161068390613c4b565b60408051602081018390520160408051601f19818403018152919052805160209091012060115550505050565b600954604080516020808201859052825180830390910181528183019283905263333f611160e01b9092526001600160a01b039092169163333f611191611a469188918891889190604401613b48565b6020604051808303816000875af1158015611a65573d6000803e3d6000fd5b505050506040513d601f19601f82011682018060405250810190611a899190613c29565b611aa55760405162461bcd60e51b815260040161068390613c4b565b6040805160208101839052016040516020818303038152906040528051906020012060175414611b265760405162461bcd60e51b815260206004820152602660248201527f4d69736d617463686564207769746864726177616c506572696f6445706f63686044820152650e640d0c2e6d60d31b6064820152608401610683565b60028110158015611b38575060648111155b611b905760405162461bcd60e51b8152602060048201526024808201527f496e76616c6964207769746864726177616c506572696f6445706f6368732072604482015263616e676560e01b6064820152608401610683565b600854604051634783c5fd60e11b8152600481018390526001600160a01b0390911690638f078bfa90602401600060405180830381600087803b158015611bd657600080fd5b505af1158015611bea573d6000803e3d6000fd5b50506000601755505050505050565b600954604080516020808201859052825180830390910181528183019283905263333f611160e01b9092526001600160a01b039092169163333f611191611c499188918891889190604401613b48565b6020604051808303816000875af1158015611c68573d6000803e3d6000fd5b505050506040513d601f19601f82011682018060405250810190611c8c9190613c29565b611ca85760405162461bcd60e51b815260040161068390613c4b565b60408051602081018390520160408051601f19818403018152919052805160209091012060145550505050565b600954604080516020808201859052825180830390910181528183019283905263333f611160e01b9092526001600160a01b039092169163333f611191611d259188918891889190604401613b48565b6020604051808303816000875af1158015611d44573d6000803e3d6000fd5b505050506040513d601f19601f82011682018060405250810190611d689190613c29565b611d845760405162461bcd60e51b815260040161068390613c4b565b6040805160208101839052016040516020818303038152906040528051906020012060065414611df65760405162461bcd60e51b815260206004820152601c60248201527f4d69736d617463686564206d696e53656c665374616b652068617368000000006044820152606401610683565b69152d02c7e14af68000008110158015611e1b57506a084595161401484a0000008111155b611e375760405162461bcd60e51b815260040161068390613c8f565b60085460405163866c4b1760e01b8152600481018390526001600160a01b039091169063866c4b1790602401600060405180830381600087803b158015611e7d57600080fd5b505af1158015611e91573d6000803e3d6000fd5b50506000600655505050505050565b83828483604051602001611eb691815260200190565b60408051601f1981840301815291905260005460ff16611ee85760405162461bcd60e51b815260040161068390613d07565b600084604051602001611efb9190613d3e565b60408051601f19818403018152919052805160209091012090506000808281526002602081905260409091205460ff1690811115611f3b57611f3b613674565b14611f585760405162461bcd60e51b815260040161068390613d97565b60008284604051602001611f6d929190613d75565b60408051601f198184030181529082905280516020918201208083529250600080516020613e9a833981519152910160405180910390a16000611fb1828789612201565b6000805461ff00191661010083151502179055905080611fe957604051828152600080516020613e7a83398151915290602001611263565b60008381526002602052604090819020549051600080516020613eba8339815191529161201f9160ff90911690869089906136ac565b60405180910390a161203183866134b9565b61203c6001896133a0565b5050505050505050505050565b600954604080516020808201859052825180830390910181528183019283905263333f611160e01b9092526001600160a01b039092169163333f6111916120999188918891889190604401613b48565b6020604051808303816000875af11580156120b8573d6000803e3d6000fd5b505050506040513d601f19601f820116820180604052508101906120dc9190613c29565b6120f85760405162461bcd60e51b815260040161068390613c4b565b60408051602081018390520160408051601f19818403018152919052805160209091012060065550505050565b600954604080516020808201859052825180830390910181528183019283905263333f611160e01b9092526001600160a01b039092169163333f6111916121759188918891889190604401613b48565b6020604051808303816000875af1158015612194573d6000803e3d6000fd5b505050506040513d601f19601f820116820180604052508101906121b89190613c29565b6121d45760405162461bcd60e51b815260040161068390613c4b565b60408051602081018390520160408051601f19818403018152919052805160209091012060105550505050565b6000805b6101008110156122a9578381610100811061222257612222613a8a565b6020028101906122329190613dce565b604051612240929190613e1c565b60405180910390208382610100811061225b5761225b613a8a565b6040020160008360ff036001901b88161161227757600061227a565b60015b60ff166002811061228d5761228d613a8a565b6020020135146122a15760009150506122af565b600101612205565b50600190505b9392505050565b600954604080516020808201859052825180830390910181528183019283905263333f611160e01b9092526001600160a01b039092169163333f6111916123069188918891889190604401613b48565b6020604051808303816000875af1158015612325573d6000803e3d6000fd5b505050506040513d601f19601f820116820180604052508101906123499190613c29565b6123655760405162461bcd60e51b815260040161068390613c4b565b60408051602081018390520160408051601f198184030181529190528051602090910120600d5550505050565b60015460609060009067ffffffffffffffff8111156123b3576123b361379f565b6040519080825280602002602001820160405280156123dc578160200160208202803683370190505b5090506000805b60015481101561249d578460028111156123ff576123ff613674565b6001828154811061241257612412613a8a565b600091825260209091206002918202015460ff169081111561243657612436613674565b0361248b576001818154811061244e5761244e613a8a565b90600052602060002090600202016001015483838151811061247257612472613a8a565b60209081029190910101528161248781613ab6565b9250505b8061249581613ab6565b9150506123e3565b5060008167ffffffffffffffff8111156124b9576124b961379f565b6040519080825280602002602001820160405280156124e2578160200160208202803683370190505b50905060005b828110156125395783818151811061250257612502613a8a565b602002602001015182828151811061251c5761251c613a8a565b60209081029190910101528061253181613ab6565b9150506124e8565b50949350505050565b60095460408051606084901b6bffffffffffffffffffffffff1916602082015281516014818303018152603482019283905263333f611160e01b9092526001600160a01b039092169163333f6111916125a49188918891889190603801613b48565b6020604051808303816000875af11580156125c3573d6000803e3d6000fd5b505050506040513d601f19601f820116820180604052508101906125e79190613c29565b6126035760405162461bcd60e51b815260040161068390613c4b565b6018546001600160a01b0382811691161461267f5760405162461bcd60e51b815260206004820152603660248201527f4d69736d6174636865642053464374436f6e7374732061646472657373206265604482015275747765656e2073746570206f6e6520616e642074776f60501b6064820152608401610683565b600880546001600160a01b0383166001600160a01b031991821681179092556018805490911690556040519081527f957e48247be9cab238cb9c65e20aba596edd67a08270b642a2eb5b776a34ecc29060200160405180910390a150505050565b60095460408051606084901b6bffffffffffffffffffffffff1916602082015281516014818303018152603482019283905263333f611160e01b9092526001600160a01b039092169163333f6111916127429188918891889190603801613b48565b6020604051808303816000875af1158015612761573d6000803e3d6000fd5b505050506040513d601f19601f820116820180604052508101906127859190613c29565b6127a15760405162461bcd60e51b815260040161068390613c4b565b601880546001600160a01b0319166001600160a01b0392909216919091179055505050565b600954604080516020808201859052825180830390910181528183019283905263333f611160e01b9092526001600160a01b039092169163333f6111916128169188918891889190604401613b48565b6020604051808303816000875af1158015612835573d6000803e3d6000fd5b505050506040513d601f19601f820116820180604052508101906128599190613c29565b6128755760405162461bcd60e51b815260040161068390613c4b565b60408051602081018390520160408051601f19818403018152919052805160209091012060075550505050565b60085460408051631a8df4a360e31b815290516000926001600160a01b03169163d46fa5189160048083019260209291908290030181865afa1580156128ec573d6000803e3d6000fd5b505050506040513d601f19601f820116820180604052508101906129109190613e2c565b905090565b8383838360405160200161292b91815260200190565b60408051601f1981840301815291905260005460ff1661295d5760405162461bcd60e51b815260040161068390613d07565b6000846040516020016129709190613d3e565b60408051601f19818403018152919052805160209091012090506000808281526002602081905260409091205460ff16908111156129b0576129b0613674565b146129cd5760405162461bcd60e51b815260040161068390613d97565b600082846040516020016129e2929190613d75565b60408051601f198184030181529082905280516020918201208083529250600080516020613e9a833981519152910160405180910390a16000612a26828789612201565b6000805461ff00191661010083151502179055905080612a5e57604051828152600080516020613e7a83398151915290602001611263565b60008381526002602052604090819020549051600080516020613eba83398151915291612a949160ff90911690869089906136ac565b60405180910390a1612aa683866134b9565b505050600394909455505050600491909155505050565b600954604080516020808201859052825180830390910181528183019283905263333f611160e01b9092526001600160a01b039092169163333f611191612b0d9188918891889190604401613b48565b6020604051808303816000875af1158015612b2c573d6000803e3d6000fd5b505050506040513d601f19601f82011682018060405250810190612b509190613c29565b612b6c5760405162461bcd60e51b815260040161068390613c4b565b60408051602081018390520160405160208183030381529060405280519060200120600c5414612bde5760405162461bcd60e51b815260206004820181905260248201527f4d69736d617463686564207472656173757279466565536861726520686173686044820152606401610683565b612bf16002670de0b6b3a7640000613cbc565b811115612c105760405162461bcd60e51b815260040161068390613cde565b600854604051637c6a8bbf60e11b8152600481018390526001600160a01b039091169063f8d5177e90602401600060405180830381600087803b158015612c5657600080fd5b505af1158015612c6a573d6000803e3d6000fd5b50506000600c55505050505050565b600954604080516020808201859052825180830390910181528183019283905263333f611160e01b9092526001600160a01b039092169163333f611191612cc99188918891889190604401613b48565b6020604051808303816000875af1158015612ce8573d6000803e3d6000fd5b505050506040513d601f19601f82011682018060405250810190612d0c9190613c29565b612d285760405162461bcd60e51b815260040161068390613c4b565b60408051602081018390520160405160208183030381529060405280519060200120600d5414612da65760405162461bcd60e51b815260206004820152602360248201527f4d69736d61746368656420756e6c6f636b6564526577617264526174696f20686044820152620c2e6d60eb1b6064820152608401610683565b6064612dbb670de0b6b3a76400006005613c78565b612dc59190613cbc565b8110158015612de65750612de26002670de0b6b3a7640000613cbc565b8111155b612e025760405162461bcd60e51b815260040161068390613c8f565b600854604051637945ef9960e01b8152600481018390526001600160a01b0390911690637945ef9990602401600060405180830381600087803b158015612e4857600080fd5b505af1158015612e5c573d6000803e3d6000fd5b50506000600d55505050505050565b83838383604051602001612e8191815260200190565b60408051601f1981840301815291905260005460ff16612eb35760405162461bcd60e51b815260040161068390613d07565b600084604051602001612ec69190613d3e565b60408051601f19818403018152919052805160209091012090506000808281526002602081905260409091205460ff1690811115612f0657612f06613674565b14612f235760405162461bcd60e51b815260040161068390613d97565b60008284604051602001612f38929190613d75565b60408051601f198184030181529082905280516020918201208083529250600080516020613e9a833981519152910160405180910390a16000612f7c828789612201565b6000805461ff00191661010083151502179055905080612fb457604051828152600080516020613e7a83398151915290602001611263565b60008381526002602052604090819020549051600080516020613eba83398151915291612fea9160ff90911690869089906136ac565b60405180910390a1612ffc83866134b9565b60008b60405160200161300f9190613d3e565b60405160208183030381529060405280519060200120905060045481036130a85760405162461bcd60e51b815260206004820152604160248201527f4c616d706f7274426173653a2043616e6e6f7420757365207468652073616d6560448201527f206b6579636861696e20747769636520666f7220746869732066756e6374696f6064820152603760f91b608482015260a401610683565b88600354146130f95760405162461bcd60e51b815260206004820152601e60248201527f4c616d706f7274426173653a204b65797320646f206e6f74206d6174636800006044820152606401610683565b600454818a6000808481526002602081905260409091205460ff169081111561312457613124613674565b1480156131525750600082815260026020819052604082205460ff169081111561315057613150613674565b145b6131b55760405162461bcd60e51b815260206004820152602e60248201527f4c616d706f7274426173653a2050726f7669646564206b65797320617265206e60448201526d6f74206d6173746572206b65797360901b6064820152608401610683565b8281141580156131c55750818114155b61322b5760405162461bcd60e51b815260206004820152603160248201527f4c616d706f7274426173653a204d6173746572206b6579732063616e6e6f742060448201527064656c657465207468656d73656c76657360781b6064820152608401610683565b60008181526002602052604081206001015490036132975760405162461bcd60e51b815260206004820152602360248201527f4c616d706f7274426173653a204e6f2073756368206b6579202864656c6574696044820152626f6e2960e81b6064820152608401610683565b60005b6001548110156133845781600182815481106132b8576132b8613a8a565b9060005260206000209060020201600101540361337257600082815260026020818152604080842080548251428186015244818501528351808203850181526060909101938490528051908501209588905292849052630de1e7ed60e41b85186001820181905560ff198416851790915560ff9092169391927f0643be3612916977c69d5ed1abb75a50cca49df49ba2444d836e2a0cf65fe0749161336291869189918791613e49565b60405180910390a1505050613384565b8061337c81613ab6565b91505061329a565b5050600060038190556004555050505050505050505050505050565b600060405180604001604052808460028111156133bf576133bf613674565b81526020018390526001805480820182556000829052825160029182027fb10e2d527612073b26eecdfd717e6a320cf44b4afac2b0732d9fcbe2b7fa0cf6018054949550859490939192849260ff199092169190849081111561342457613424613674565b021790555060209182015160019182015560008481526002928390526040902083518154859492939192849260ff199092169190849081111561346957613469613674565b0217905550602082015181600101559050507f2172c7b01a6de957d29fd6166a23025d181bf56538ad606a526ab2d62603f3fc83836040516134ac9291906136f7565b60405180910390a1505050565b60008281526002602052604081206001015490036134e95760405162461bcd60e51b815260040161068390613a53565b604080518082018252600084815260026020819052928120549092829160ff169081111561351957613519613674565b8152602001838152509050806002600084815260200190815260200160002060008201518160000160006101000a81548160ff0219169083600281111561356257613562613674565b02179055506020918201516001918201556000858152600290925260408220805460ff19168155018190555b6001548110156136385783600182815481106135ac576135ac613a8a565b906000526020600020906002020160010154036136265781600182815481106135d7576135d7613a8a565b906000526020600020906002020160008201518160000160006101000a81548160ff0219169083600281111561360f5761360f613674565b021790555060208201518160010155905050613638565b8061363081613ab6565b91505061358e565b508051604051600080516020613eba833981519152916134ac91869086906136ac565b60006020828403121561366d57600080fd5b5035919050565b634e487b7160e01b600052602160045260246000fd5b600381106136a857634e487b7160e01b600052602160045260246000fd5b9052565b606081016136ba828661368a565b602082019390935260400152919050565b6000806000606084860312156136e057600080fd5b505081359360208301359350604090920135919050565b60408101613705828561368a565b8260208301529392505050565b80614000810183101561372457600080fd5b92915050565b80612000810183101561372457600080fd5b600080600080614060858703121561375357600080fd5b61375d8686613712565b935061400085013567ffffffffffffffff81111561377a57600080fd5b6137868782880161372a565b9497949650505050614020830135926140400135919050565b634e487b7160e01b600052604160045260246000fd5b60008060008061406085870312156137cc57600080fd5b6137d68686613712565b935061400085013567ffffffffffffffff808211156137f457600080fd5b6138008883890161372a565b9450614020870135935061404087013591508082111561381f57600080fd5b818701915087601f83011261383357600080fd5b8135818111156138455761384561379f565b604051601f8201601f19908116603f0116810190838211818310171561386d5761386d61379f565b816040528281528a602084870101111561388657600080fd5b82602086016020830137600060208483010152809550505050505092959194509250565b60008060008061406085870312156138c157600080fd5b6138cb8686613712565b9350614000850135925061402085013567ffffffffffffffff8111156138f057600080fd5b6138fc8782880161372a565b94979396509394614040013593505050565b6000806000614040848603121561392457600080fd5b83359250602084013567ffffffffffffffff81111561394257600080fd5b61394e8682870161372a565b92505061395e8560408601613712565b90509250925092565b60006020828403121561397957600080fd5b8135600381106122af57600080fd5b6020808252825182820181905260009190848201906040850190845b818110156139c0578351835292840192918401916001016139a4565b50909695505050505050565b6001600160a01b03811681146139e157600080fd5b50565b60008060008061406085870312156139fb57600080fd5b613a058686613712565b935061400085013567ffffffffffffffff811115613a2257600080fd5b613a2e8782880161372a565b9350506140208501359150614040850135613a48816139cc565b939692955090935050565b60208082526018908201527f4c616d706f7274426173653a204e6f2073756368206b65790000000000000000604082015260600190565b634e487b7160e01b600052603260045260246000fd5b634e487b7160e01b600052601160045260246000fd5b600060018201613ac857613ac8613aa0565b5060010190565b81835281816020850137506000828201602090810191909152601f909101601f19169091010190565b60005b83811015613b13578181015183820152602001613afb565b50506000910152565b60008151808452613b34816020860160208601613af8565b601f01601f19169290920160200192915050565b60006140608281018388845b610100811015613b7557604080838537928301929190910190600101613b54565b50505061400084019190915261606083018660005b610100811015613c015785830361405f190184528135368a9003601e19018112613bb357600080fd5b8901602081810191359067ffffffffffffffff821115613bd257600080fd5b813603831315613be157600080fd5b613bec868385613acf565b96810196955093909301925050600101613b8a565b505085614020850152838103614040850152613c1d8186613b1c565b98975050505050505050565b600060208284031215613c3b57600080fd5b815180151581146122af57600080fd5b60208082526013908201527213585cdd195c8818da1958dac819985a5b1959606a1b604082015260600190565b808202811582820484141761372457613724613aa0565b602080825260139082015272496e76616c69642076616c75652072616e676560681b604082015260600190565b600082613cd957634e487b7160e01b600052601260045260246000fd5b500490565b6020808252600f908201526e746f6f206c617267652076616c756560881b604082015260600190565b6020808252601c908201527f4c616d706f7274426173653a206e6f7420696e697469616c697a656400000000604082015260600190565b60008183825b610100811015613d6557604080838537928301929190910190600101613d44565b5050506140008201905092915050565b60008351613d87818460208801613af8565b9190910191825250602001919050565b6020808252601d908201527f4c616d706f7274426173653a204e6f742061206d6173746572206b6579000000604082015260600190565b6000808335601e19843603018112613de557600080fd5b83018035915067ffffffffffffffff821115613e0057600080fd5b602001915036819003821315613e1557600080fd5b9250929050565b8183823760009101908152919050565b600060208284031215613e3e57600080fd5b81516122af816139cc565b60808101613e57828761368a565b846020830152836040830152613e70606083018461368a565b9594505050505056fe32629d580208e19f97e5752eef849e102f803999c88aa7f75e12b1744eecd5a7d87e68f36f73a7eb22739d6639e36cafebfcde0b5543340b39f42cac68fdd1f06825a39bd161f4ef5aab6cfd2c26db3ee0005c11b43cffd544fc876312116edda264697066735822122071fe885fbc07d730b45e6f631372f4bb988ea89ad94184e9f128f040d603396b64736f6c63430008150033",
  "bytecodeSha1": "84e2192a0d7f0c020b1bfe1af196a823e3746c75",
  "compiler": {
    "evm_version": "istanbul",
    "optimizer": {
      "enabled": true,
      "runs": 200
    },
    "version": "0.8.21+commit.d9974bed"
  },
  "contractName": "ConstantsInterface",
  "language": "Solidity",
  "natspec": {
    "kind": "dev",
    "methods": {},
    "version": 1
  },
  "opcodes": "PUSH1 0x80 PUSH1 0x40 MSTORE CALLVALUE DUP1 ISZERO PUSH2 0x10 JUMPI PUSH1 0x0 DUP1 REVERT JUMPDEST POP PUSH1 0x4 CALLDATASIZE LT PUSH2 0x27F JUMPI PUSH1 0x0 CALLDATALOAD PUSH1 0xE0 SHR DUP1 PUSH4 0x6AA66F2A GT PUSH2 0x15C JUMPI DUP1 PUSH4 0xB35F353C GT PUSH2 0xCE JUMPI DUP1 PUSH4 0xD46FA518 GT PUSH2 0x87 JUMPI DUP1 PUSH4 0xD46FA518 EQ PUSH2 0x59D JUMPI DUP1 PUSH4 0xD83C413C EQ PUSH2 0x5A5 JUMPI DUP1 PUSH4 0xD86D744E EQ PUSH2 0x5B8 JUMPI DUP1 PUSH4 0xE05B694B EQ PUSH2 0x5CB JUMPI DUP1 PUSH4 0xE2829555 EQ PUSH2 0x5DE JUMPI DUP1 PUSH4 0xE673D71F EQ PUSH2 0x5F1 JUMPI PUSH1 0x0 DUP1 REVERT JUMPDEST DUP1 PUSH4 0xB35F353C EQ PUSH2 0x528 JUMPI DUP1 PUSH4 0xB97B4F77 EQ PUSH2 0x53B JUMPI DUP1 PUSH4 0xBA06DB3C EQ PUSH2 0x55B JUMPI DUP1 PUSH4 0xBD1D8B0C EQ PUSH2 0x56E JUMPI DUP1 PUSH4 0xC74DD621 EQ PUSH2 0x581 JUMPI DUP1 PUSH4 0xCE783639 EQ PUSH2 0x58A JUMPI PUSH1 0x0 DUP1 REVERT JUMPDEST DUP1 PUSH4 0x94C3E914 GT PUSH2 0x120 JUMPI DUP1 PUSH4 0x94C3E914 EQ PUSH2 0x4B0 JUMPI DUP1 PUSH4 0x96C5D6F5 EQ PUSH2 0x4B9 JUMPI DUP1 PUSH4 0x9FBD7D3E EQ PUSH2 0x4CC JUMPI DUP1 PUSH4 0xA7786515 EQ PUSH2 0x4DF JUMPI DUP1 PUSH4 0xA9711EE3 EQ PUSH2 0x4E8 JUMPI DUP1 PUSH4 0xAF82F3E7 EQ PUSH2 0x515 JUMPI PUSH1 0x0 DUP1 REVERT JUMPDEST DUP1 PUSH4 0x6AA66F2A EQ PUSH2 0x451 JUMPI DUP1 PUSH4 0x741FA7BA EQ PUSH2 0x464 JUMPI DUP1 PUSH4 0x8AB7A9A3 EQ PUSH2 0x477 JUMPI DUP1 PUSH4 0x8BE5F98B EQ PUSH2 0x48A JUMPI DUP1 PUSH4 0x8EB8F1A6 EQ PUSH2 0x49D JUMPI PUSH1 0x0 DUP1 REVERT JUMPDEST DUP1 PUSH4 0x333F6111 GT PUSH2 0x1F5 JUMPI DUP1 PUSH4 0x56BF7B57 GT PUSH2 0x1B9 JUMPI DUP1 PUSH4 0x56BF7B57 EQ PUSH2 0x3DB JUMPI DUP1 PUSH4 0x5796841A EQ PUSH2 0x406 JUMPI DUP1 PUSH4 0x5D0B51CA EQ PUSH2 0x419 JUMPI DUP1 PUSH4 0x5E2308D2 EQ PUSH2 0x42C JUMPI DUP1 PUSH4 0x650ACD66 EQ PUSH2 0x435 JUMPI DUP1 PUSH4 0x69A16110 EQ PUSH2 0x43E JUMPI PUSH1 0x0 DUP1 REVERT JUMPDEST DUP1 PUSH4 0x333F6111 EQ PUSH2 0x386 JUMPI DUP1 PUSH4 0x4A89D52B EQ PUSH2 0x399 JUMPI DUP1 PUSH4 0x4BDD4499 EQ PUSH2 0x3AC JUMPI DUP1 PUSH4 0x4E657D2A EQ PUSH2 0x3B5 JUMPI DUP1 PUSH4 0x5106DE96 EQ PUSH2 0x3C8 JUMPI PUSH1 0x0 DUP1 REVERT JUMPDEST DUP1 PUSH4 0x1271B9D2 GT PUSH2 0x247 JUMPI DUP1 PUSH4 0x1271B9D2 EQ PUSH2 0x305 JUMPI DUP1 PUSH4 0x18D02B1C EQ PUSH2 0x318 JUMPI DUP1 PUSH4 0x2DB76A69 EQ PUSH2 0x32B JUMPI DUP1 PUSH4 0x2FD5C247 EQ PUSH2 0x33E JUMPI DUP1 PUSH4 0x2FFA1176 EQ PUSH2 0x360 JUMPI DUP1 PUSH4 0x305B2DD2 EQ PUSH2 0x373 JUMPI PUSH1 0x0 DUP1 REVERT JUMPDEST DUP1 PUSH4 0x5AACC7D EQ PUSH2 0x284 JUMPI DUP1 PUSH4 0xB0AD508 EQ PUSH2 0x2AF JUMPI DUP1 PUSH4 0xCB6AAF1 EQ PUSH2 0x2C4 JUMPI DUP1 PUSH4 0xD4955E3 EQ PUSH2 0x2E5 JUMPI DUP1 PUSH4 0xD7B2609 EQ PUSH2 0x2FC JUMPI JUMPDEST PUSH1 0x0 DUP1 REVERT JUMPDEST PUSH2 0x297 PUSH2 0x292 CALLDATASIZE PUSH1 0x4 PUSH2 0x365B JUMP JUMPDEST PUSH2 0x604 JUMP JUMPDEST PUSH1 0x40 MLOAD PUSH2 0x2A6 SWAP4 SWAP3 SWAP2 SWAP1 PUSH2 0x36AC JUMP JUMPDEST PUSH1 0x40 MLOAD DUP1 SWAP2 SUB SWAP1 RETURN JUMPDEST PUSH2 0x2C2 PUSH2 0x2BD CALLDATASIZE PUSH1 0x4 PUSH2 0x36CB JUMP JUMPDEST PUSH2 0x70B JUMP JUMPDEST STOP JUMPDEST PUSH2 0x2D7 PUSH2 0x2D2 CALLDATASIZE PUSH1 0x4 PUSH2 0x365B JUMP JUMPDEST PUSH2 0x791 JUMP JUMPDEST PUSH1 0x40 MLOAD PUSH2 0x2A6 SWAP3 SWAP2 SWAP1 PUSH2 0x36F7 JUMP JUMPDEST PUSH2 0x2EE PUSH1 0x13 SLOAD DUP2 JUMP JUMPDEST PUSH1 0x40 MLOAD SWAP1 DUP2 MSTORE PUSH1 0x20 ADD PUSH2 0x2A6 JUMP JUMPDEST PUSH2 0x2EE PUSH1 0x12 SLOAD DUP2 JUMP JUMPDEST PUSH2 0x2C2 PUSH2 0x313 CALLDATASIZE PUSH1 0x4 PUSH2 0x373C JUMP JUMPDEST PUSH2 0x7C3 JUMP JUMPDEST PUSH2 0x2C2 PUSH2 0x326 CALLDATASIZE PUSH1 0x4 PUSH2 0x373C JUMP JUMPDEST PUSH2 0x99D JUMP JUMPDEST PUSH2 0x2C2 PUSH2 0x339 CALLDATASIZE PUSH1 0x4 PUSH2 0x373C JUMP JUMPDEST PUSH2 0xB65 JUMP JUMPDEST PUSH1 0x0 SLOAD PUSH2 0x350 SWAP1 PUSH2 0x100 SWAP1 DIV PUSH1 0xFF AND DUP2 JUMP JUMPDEST PUSH1 0x40 MLOAD SWAP1 ISZERO ISZERO DUP2 MSTORE PUSH1 0x20 ADD PUSH2 0x2A6 JUMP JUMPDEST PUSH2 0x2C2 PUSH2 0x36E CALLDATASIZE PUSH1 0x4 PUSH2 0x373C JUMP JUMPDEST PUSH2 0xD21 JUMP JUMPDEST PUSH2 0x2C2 PUSH2 0x381 CALLDATASIZE PUSH1 0x4 PUSH2 0x373C JUMP JUMPDEST PUSH2 0xDFD JUMP JUMPDEST PUSH2 0x350 PUSH2 0x394 CALLDATASIZE PUSH1 0x4 PUSH2 0x37B5 JUMP JUMPDEST PUSH2 0xFF4 JUMP JUMPDEST PUSH2 0x350 PUSH2 0x3A7 CALLDATASIZE PUSH1 0x4 PUSH2 0x37B5 JUMP JUMPDEST PUSH2 0x10E5 JUMP JUMPDEST PUSH2 0x2EE PUSH1 0x5 SLOAD DUP2 JUMP JUMPDEST PUSH2 0x2C2 PUSH2 0x3C3 CALLDATASIZE PUSH1 0x4 PUSH2 0x37B5 JUMP JUMPDEST PUSH2 0x113C JUMP JUMPDEST PUSH2 0x2C2 PUSH2 0x3D6 CALLDATASIZE PUSH1 0x4 PUSH2 0x373C JUMP JUMPDEST PUSH2 0x130D JUMP JUMPDEST PUSH1 0x9 SLOAD PUSH2 0x3EE SWAP1 PUSH1 0x1 PUSH1 0x1 PUSH1 0xA0 SHL SUB AND DUP2 JUMP JUMPDEST PUSH1 0x40 MLOAD PUSH1 0x1 PUSH1 0x1 PUSH1 0xA0 SHL SUB SWAP1 SWAP2 AND DUP2 MSTORE PUSH1 0x20 ADD PUSH2 0x2A6 JUMP JUMPDEST PUSH2 0x2C2 PUSH2 0x414 CALLDATASIZE PUSH1 0x4 PUSH2 0x373C JUMP JUMPDEST PUSH2 0x1503 JUMP JUMPDEST PUSH2 0x2C2 PUSH2 0x427 CALLDATASIZE PUSH1 0x4 PUSH2 0x373C JUMP JUMPDEST PUSH2 0x1762 JUMP JUMPDEST PUSH2 0x2EE PUSH1 0xB SLOAD DUP2 JUMP JUMPDEST PUSH2 0x2EE PUSH1 0x16 SLOAD DUP2 JUMP JUMPDEST PUSH2 0x2C2 PUSH2 0x44C CALLDATASIZE PUSH1 0x4 PUSH2 0x373C JUMP JUMPDEST PUSH2 0x183E JUMP JUMPDEST PUSH2 0x2C2 PUSH2 0x45F CALLDATASIZE PUSH1 0x4 PUSH2 0x373C JUMP JUMPDEST PUSH2 0x191A JUMP JUMPDEST PUSH2 0x2C2 PUSH2 0x472 CALLDATASIZE PUSH1 0x4 PUSH2 0x373C JUMP JUMPDEST PUSH2 0x19F6 JUMP JUMPDEST PUSH2 0x2C2 PUSH2 0x485 CALLDATASIZE PUSH1 0x4 PUSH2 0x373C JUMP JUMPDEST PUSH2 0x1BF9 JUMP JUMPDEST PUSH2 0x2C2 PUSH2 0x498 CALLDATASIZE PUSH1 0x4 PUSH2 0x373C JUMP JUMPDEST PUSH2 0x1CD5 JUMP JUMPDEST PUSH2 0x2C2 PUSH2 0x4AB CALLDATASIZE PUSH1 0x4 PUSH2 0x38AA JUMP JUMPDEST PUSH2 0x1EA0 JUMP JUMPDEST PUSH2 0x2EE PUSH1 0xA SLOAD DUP2 JUMP JUMPDEST PUSH2 0x2C2 PUSH2 0x4C7 CALLDATASIZE PUSH1 0x4 PUSH2 0x373C JUMP JUMPDEST PUSH2 0x2049 JUMP JUMPDEST PUSH2 0x2C2 PUSH2 0x4DA CALLDATASIZE PUSH1 0x4 PUSH2 0x373C JUMP JUMPDEST PUSH2 0x2125 JUMP JUMPDEST PUSH2 0x2EE PUSH1 0xE SLOAD DUP2 JUMP JUMPDEST PUSH2 0x2D7 PUSH2 0x4F6 CALLDATASIZE PUSH1 0x4 PUSH2 0x365B JUMP JUMPDEST PUSH1 0x2 PUSH1 0x20 MSTORE PUSH1 0x0 SWAP1 DUP2 MSTORE PUSH1 0x40 SWAP1 KECCAK256 DUP1 SLOAD PUSH1 0x1 SWAP1 SWAP2 ADD SLOAD PUSH1 0xFF SWAP1 SWAP2 AND SWAP1 DUP3 JUMP JUMPDEST PUSH2 0x350 PUSH2 0x523 CALLDATASIZE PUSH1 0x4 PUSH2 0x390E JUMP JUMPDEST PUSH2 0x2201 JUMP JUMPDEST PUSH2 0x2C2 PUSH2 0x536 CALLDATASIZE PUSH1 0x4 PUSH2 0x373C JUMP JUMPDEST PUSH2 0x22B6 JUMP JUMPDEST PUSH2 0x54E PUSH2 0x549 CALLDATASIZE PUSH1 0x4 PUSH2 0x3967 JUMP JUMPDEST PUSH2 0x2392 JUMP JUMPDEST PUSH1 0x40 MLOAD PUSH2 0x2A6 SWAP2 SWAP1 PUSH2 0x3988 JUMP JUMPDEST PUSH2 0x2C2 PUSH2 0x569 CALLDATASIZE PUSH1 0x4 PUSH2 0x39E4 JUMP JUMPDEST PUSH2 0x2542 JUMP JUMPDEST PUSH2 0x2C2 PUSH2 0x57C CALLDATASIZE PUSH1 0x4 PUSH2 0x39E4 JUMP JUMPDEST PUSH2 0x26E0 JUMP JUMPDEST PUSH2 0x2EE PUSH1 0xF SLOAD DUP2 JUMP JUMPDEST PUSH2 0x2C2 PUSH2 0x598 CALLDATASIZE PUSH1 0x4 PUSH2 0x373C JUMP JUMPDEST PUSH2 0x27C6 JUMP JUMPDEST PUSH2 0x3EE PUSH2 0x28A2 JUMP JUMPDEST PUSH2 0x2C2 PUSH2 0x5B3 CALLDATASIZE PUSH1 0x4 PUSH2 0x373C JUMP JUMPDEST PUSH2 0x2915 JUMP JUMPDEST PUSH1 0x8 SLOAD PUSH2 0x3EE SWAP1 PUSH1 0x1 PUSH1 0x1 PUSH1 0xA0 SHL SUB AND DUP2 JUMP JUMPDEST PUSH2 0x2C2 PUSH2 0x5D9 CALLDATASIZE PUSH1 0x4 PUSH2 0x373C JUMP JUMPDEST PUSH2 0x2ABD JUMP JUMPDEST PUSH2 0x2C2 PUSH2 0x5EC CALLDATASIZE PUSH1 0x4 PUSH2 0x373C JUMP JUMPDEST PUSH2 0x2C79 JUMP JUMPDEST PUSH2 0x2C2 PUSH2 0x5FF CALLDATASIZE PUSH1 0x4 PUSH2 0x373C JUMP JUMPDEST PUSH2 0x2E6B JUMP JUMPDEST PUSH1 0x0 DUP2 DUP2 MSTORE PUSH1 0x2 PUSH1 0x20 DUP2 SWAP1 MSTORE PUSH1 0x40 DUP1 DUP4 KECCAK256 DUP2 MLOAD DUP1 DUP4 ADD SWAP1 SWAP3 MSTORE DUP1 SLOAD DUP5 SWAP4 DUP5 SWAP4 DUP5 SWAP4 SWAP1 SWAP3 SWAP1 SWAP2 DUP4 SWAP2 PUSH1 0xFF AND SWAP1 DUP2 GT ISZERO PUSH2 0x63E JUMPI PUSH2 0x63E PUSH2 0x3674 JUMP JUMPDEST PUSH1 0x2 DUP2 GT ISZERO PUSH2 0x64F JUMPI PUSH2 0x64F PUSH2 0x3674 JUMP JUMPDEST DUP2 MSTORE PUSH1 0x1 SWAP2 SWAP1 SWAP2 ADD SLOAD PUSH1 0x20 SWAP2 DUP3 ADD MSTORE DUP2 ADD MLOAD SWAP1 SWAP2 POP PUSH1 0x0 SUB PUSH2 0x68C JUMPI PUSH1 0x40 MLOAD PUSH3 0x461BCD PUSH1 0xE5 SHL DUP2 MSTORE PUSH1 0x4 ADD PUSH2 0x683 SWAP1 PUSH2 0x3A53 JUMP JUMPDEST PUSH1 0x40 MLOAD DUP1 SWAP2 SUB SWAP1 REVERT JUMPDEST PUSH1 0x0 JUMPDEST PUSH1 0x1 SLOAD DUP2 LT ISZERO PUSH2 0x6EB JUMPI DUP6 PUSH1 0x1 DUP3 DUP2 SLOAD DUP2 LT PUSH2 0x6AD JUMPI PUSH2 0x6AD PUSH2 0x3A8A JUMP JUMPDEST SWAP1 PUSH1 0x0 MSTORE PUSH1 0x20 PUSH1 0x0 KECCAK256 SWAP1 PUSH1 0x2 MUL ADD PUSH1 0x1 ADD SLOAD SUB PUSH2 0x6D9 JUMPI DUP2 MLOAD PUSH1 0x20 SWAP1 SWAP3 ADD MLOAD SWAP2 SWAP5 POP SWAP1 SWAP3 POP SWAP1 POP PUSH2 0x704 JUMP JUMPDEST DUP1 PUSH2 0x6E3 DUP2 PUSH2 0x3AB6 JUMP JUMPDEST SWAP2 POP POP PUSH2 0x68F JUMP JUMPDEST POP PUSH1 0x40 MLOAD PUSH3 0x461BCD PUSH1 0xE5 SHL DUP2 MSTORE PUSH1 0x4 ADD PUSH2 0x683 SWAP1 PUSH2 0x3A53 JUMP JUMPDEST SWAP2 SWAP4 SWAP1 SWAP3 POP JUMP JUMPDEST PUSH1 0x0 SLOAD PUSH1 0xFF AND ISZERO PUSH2 0x75E JUMPI PUSH1 0x40 MLOAD PUSH3 0x461BCD PUSH1 0xE5 SHL DUP2 MSTORE PUSH1 0x20 PUSH1 0x4 DUP3 ADD DUP2 SWAP1 MSTORE PUSH1 0x24 DUP3 ADD MSTORE PUSH32 0x4C616D706F7274426173653A20416C726561647920696E697469616C697A6564 PUSH1 0x44 DUP3 ADD MSTORE PUSH1 0x64 ADD PUSH2 0x683 JUMP JUMPDEST PUSH2 0x769 PUSH1 0x0 DUP5 PUSH2 0x33A0 JUMP JUMPDEST PUSH2 0x774 PUSH1 0x0 DUP4 PUSH2 0x33A0 JUMP JUMPDEST PUSH2 0x77F PUSH1 0x1 DUP3 PUSH2 0x33A0 JUMP JUMPDEST POP POP PUSH1 0x0 DUP1 SLOAD PUSH1 0xFF NOT AND PUSH1 0x1 OR SWAP1 SSTORE POP JUMP JUMPDEST PUSH1 0x1 DUP2 DUP2 SLOAD DUP2 LT PUSH2 0x7A1 JUMPI PUSH1 0x0 DUP1 REVERT JUMPDEST PUSH1 0x0 SWAP2 DUP3 MSTORE PUSH1 0x20 SWAP1 SWAP2 KECCAK256 PUSH1 0x2 SWAP1 SWAP2 MUL ADD DUP1 SLOAD PUSH1 0x1 SWAP1 SWAP2 ADD SLOAD PUSH1 0xFF SWAP1 SWAP2 AND SWAP2 POP DUP3 JUMP JUMPDEST PUSH1 0x9 SLOAD PUSH1 0x40 DUP1 MLOAD PUSH1 0x20 DUP1 DUP3 ADD DUP6 SWAP1 MSTORE DUP3 MLOAD DUP1 DUP4 SUB SWAP1 SWAP2 ADD DUP2 MSTORE DUP2 DUP4 ADD SWAP3 DUP4 SWAP1 MSTORE PUSH4 0x333F6111 PUSH1 0xE0 SHL SWAP1 SWAP3 MSTORE PUSH1 0x1 PUSH1 0x1 PUSH1 0xA0 SHL SUB SWAP1 SWAP3 AND SWAP2 PUSH4 0x333F6111 SWAP2 PUSH2 0x813 SWAP2 DUP9 SWAP2 DUP9 SWAP2 DUP9 SWAP2 SWAP1 PUSH1 0x44 ADD PUSH2 0x3B48 JUMP JUMPDEST PUSH1 0x20 PUSH1 0x40 MLOAD DUP1 DUP4 SUB DUP2 PUSH1 0x0 DUP8 GAS CALL ISZERO DUP1 ISZERO PUSH2 0x832 JUMPI RETURNDATASIZE PUSH1 0x0 DUP1 RETURNDATACOPY RETURNDATASIZE PUSH1 0x0 REVERT JUMPDEST POP POP POP POP PUSH1 0x40 MLOAD RETURNDATASIZE PUSH1 0x1F NOT PUSH1 0x1F DUP3 ADD AND DUP3 ADD DUP1 PUSH1 0x40 MSTORE POP DUP2 ADD SWAP1 PUSH2 0x856 SWAP2 SWAP1 PUSH2 0x3C29 JUMP JUMPDEST PUSH2 0x872 JUMPI PUSH1 0x40 MLOAD PUSH3 0x461BCD PUSH1 0xE5 SHL DUP2 MSTORE PUSH1 0x4 ADD PUSH2 0x683 SWAP1 PUSH2 0x3C4B JUMP JUMPDEST PUSH1 0x40 DUP1 MLOAD PUSH1 0x20 DUP2 ADD DUP4 SWAP1 MSTORE ADD PUSH1 0x40 MLOAD PUSH1 0x20 DUP2 DUP4 SUB SUB DUP2 MSTORE SWAP1 PUSH1 0x40 MSTORE DUP1 MLOAD SWAP1 PUSH1 0x20 ADD KECCAK256 PUSH1 0x7 SLOAD EQ PUSH2 0x8EE JUMPI PUSH1 0x40 MLOAD PUSH3 0x461BCD PUSH1 0xE5 SHL DUP2 MSTORE PUSH1 0x20 PUSH1 0x4 DUP3 ADD MSTORE PUSH1 0x21 PUSH1 0x24 DUP3 ADD MSTORE PUSH32 0x4D69736D617463686564206D617844656C656761746564526174696F20686173 PUSH1 0x44 DUP3 ADD MSTORE PUSH1 0xD PUSH1 0xFB SHL PUSH1 0x64 DUP3 ADD MSTORE PUSH1 0x84 ADD PUSH2 0x683 JUMP JUMPDEST PUSH8 0xDE0B6B3A7640000 DUP2 LT ISZERO DUP1 ISZERO PUSH2 0x918 JUMPI POP PUSH2 0x914 PUSH8 0xDE0B6B3A7640000 PUSH1 0x1F PUSH2 0x3C78 JUMP JUMPDEST DUP2 GT ISZERO JUMPDEST PUSH2 0x934 JUMPI PUSH1 0x40 MLOAD PUSH3 0x461BCD PUSH1 0xE5 SHL DUP2 MSTORE PUSH1 0x4 ADD PUSH2 0x683 SWAP1 PUSH2 0x3C8F JUMP JUMPDEST PUSH1 0x8 SLOAD PUSH1 0x40 MLOAD PUSH4 0x81FFCDF1 PUSH1 0xE0 SHL DUP2 MSTORE PUSH1 0x4 DUP2 ADD DUP4 SWAP1 MSTORE PUSH1 0x1 PUSH1 0x1 PUSH1 0xA0 SHL SUB SWAP1 SWAP2 AND SWAP1 PUSH4 0x81FFCDF1 SWAP1 PUSH1 0x24 ADD PUSH1 0x0 PUSH1 0x40 MLOAD DUP1 DUP4 SUB DUP2 PUSH1 0x0 DUP8 DUP1 EXTCODESIZE ISZERO DUP1 ISZERO PUSH2 0x97A JUMPI PUSH1 0x0 DUP1 REVERT JUMPDEST POP GAS CALL ISZERO DUP1 ISZERO PUSH2 0x98E JUMPI RETURNDATASIZE PUSH1 0x0 DUP1 RETURNDATACOPY RETURNDATASIZE PUSH1 0x0 REVERT JUMPDEST POP POP PUSH1 0x0 PUSH1 0x7 SSTORE POP POP POP POP POP POP JUMP JUMPDEST PUSH1 0x9 SLOAD PUSH1 0x40 DUP1 MLOAD PUSH1 0x20 DUP1 DUP3 ADD DUP6 SWAP1 MSTORE DUP3 MLOAD DUP1 DUP4 SUB SWAP1 SWAP2 ADD DUP2 MSTORE DUP2 DUP4 ADD SWAP3 DUP4 SWAP1 MSTORE PUSH4 0x333F6111 PUSH1 0xE0 SHL SWAP1 SWAP3 MSTORE PUSH1 0x1 PUSH1 0x1 PUSH1 0xA0 SHL SUB SWAP1 SWAP3 AND SWAP2 PUSH4 0x333F6111 SWAP2 PUSH2 0x9ED SWAP2 DUP9 SWAP2 DUP9 SWAP2 DUP9 SWAP2 SWAP1 PUSH1 0x44 ADD PUSH2 0x3B48 JUMP JUMPDEST PUSH1 0x20 PUSH1 0x40 MLOAD DUP1 DUP4 SUB DUP2 PUSH1 0x0 DUP8 GAS CALL ISZERO DUP1 ISZERO PUSH2 0xA0C JUMPI RETURNDATASIZE PUSH1 0x0 DUP1 RETURNDATACOPY RETURNDATASIZE PUSH1 0x0 REVERT JUMPDEST POP POP POP POP PUSH1 0x40 MLOAD RETURNDATASIZE PUSH1 0x1F NOT PUSH1 0x1F DUP3 ADD AND DUP3 ADD DUP1 PUSH1 0x40 MSTORE POP DUP2 ADD SWAP1 PUSH2 0xA30 SWAP2 SWAP1 PUSH2 0x3C29 JUMP JUMPDEST PUSH2 0xA4C JUMPI PUSH1 0x40 MLOAD PUSH3 0x461BCD PUSH1 0xE5 SHL DUP2 MSTORE PUSH1 0x4 ADD PUSH2 0x683 SWAP1 PUSH2 0x3C4B JUMP JUMPDEST PUSH1 0x40 DUP1 MLOAD PUSH1 0x20 DUP2 ADD DUP4 SWAP1 MSTORE ADD PUSH1 0x40 MLOAD PUSH1 0x20 DUP2 DUP4 SUB SUB DUP2 MSTORE SWAP1 PUSH1 0x40 MSTORE DUP1 MLOAD SWAP1 PUSH1 0x20 ADD KECCAK256 PUSH1 0x10 SLOAD EQ PUSH2 0xACA JUMPI PUSH1 0x40 MLOAD PUSH3 0x461BCD PUSH1 0xE5 SHL DUP2 MSTORE PUSH1 0x20 PUSH1 0x4 DUP3 ADD MSTORE PUSH1 0x23 PUSH1 0x24 DUP3 ADD MSTORE PUSH32 0x4D69736D6174636865642076616C696461746F72436F6D6D697373696F6E2068 PUSH1 0x44 DUP3 ADD MSTORE PUSH3 0xC2E6D PUSH1 0xEB SHL PUSH1 0x64 DUP3 ADD MSTORE PUSH1 0x84 ADD PUSH2 0x683 JUMP JUMPDEST PUSH2 0xADD PUSH1 0x2 PUSH8 0xDE0B6B3A7640000 PUSH2 0x3CBC JUMP JUMPDEST DUP2 GT ISZERO PUSH2 0xAFC JUMPI PUSH1 0x40 MLOAD PUSH3 0x461BCD PUSH1 0xE5 SHL DUP2 MSTORE PUSH1 0x4 ADD PUSH2 0x683 SWAP1 PUSH2 0x3CDE JUMP JUMPDEST PUSH1 0x8 SLOAD PUSH1 0x40 MLOAD PUSH4 0x17738899 PUSH1 0xE1 SHL DUP2 MSTORE PUSH1 0x4 DUP2 ADD DUP4 SWAP1 MSTORE PUSH1 0x1 PUSH1 0x1 PUSH1 0xA0 SHL SUB SWAP1 SWAP2 AND SWAP1 PUSH4 0x2EE71132 SWAP1 PUSH1 0x24 ADD PUSH1 0x0 PUSH1 0x40 MLOAD DUP1 DUP4 SUB DUP2 PUSH1 0x0 DUP8 DUP1 EXTCODESIZE ISZERO DUP1 ISZERO PUSH2 0xB42 JUMPI PUSH1 0x0 DUP1 REVERT JUMPDEST POP GAS CALL ISZERO DUP1 ISZERO PUSH2 0xB56 JUMPI RETURNDATASIZE PUSH1 0x0 DUP1 RETURNDATACOPY RETURNDATASIZE PUSH1 0x0 REVERT JUMPDEST POP POP PUSH1 0x0 PUSH1 0x10 SSTORE POP POP POP POP POP POP JUMP JUMPDEST PUSH1 0x9 SLOAD PUSH1 0x40 DUP1 MLOAD PUSH1 0x20 DUP1 DUP3 ADD DUP6 SWAP1 MSTORE DUP3 MLOAD DUP1 DUP4 SUB SWAP1 SWAP2 ADD DUP2 MSTORE DUP2 DUP4 ADD SWAP3 DUP4 SWAP1 MSTORE PUSH4 0x333F6111 PUSH1 0xE0 SHL SWAP1 SWAP3 MSTORE PUSH1 0x1 PUSH1 0x1 PUSH1 0xA0 SHL SUB SWAP1 SWAP3 AND SWAP2 PUSH4 0x333F6111 SWAP2 PUSH2 0xBB5 SWAP2 DUP9 SWAP2 DUP9 SWAP2 DUP9 SWAP2 SWAP1 PUSH1 0x44 ADD PUSH2 0x3B48 JUMP JUMPDEST PUSH1 0x20 PUSH1 0x40 MLOAD DUP1 DUP4 SUB DUP2 PUSH1 0x0 DUP8 GAS CALL ISZERO DUP1 ISZERO PUSH2 0xBD4 JUMPI RETURNDATASIZE PUSH1 0x0 DUP1 RETURNDATACOPY RETURNDATASIZE PUSH1 0x0 REVERT JUMPDEST POP POP POP POP PUSH1 0x40 MLOAD RETURNDATASIZE PUSH1 0x1F NOT PUSH1 0x1F DUP3 ADD AND DUP3 ADD DUP1 PUSH1 0x40 MSTORE POP DUP2 ADD SWAP1 PUSH2 0xBF8 SWAP2 SWAP1 PUSH2 0x3C29 JUMP JUMPDEST PUSH2 0xC14 JUMPI PUSH1 0x40 MLOAD PUSH3 0x461BCD PUSH1 0xE5 SHL DUP2 MSTORE PUSH1 0x4 ADD PUSH2 0x683 SWAP1 PUSH2 0x3C4B JUMP JUMPDEST PUSH1 0x40 DUP1 MLOAD PUSH1 0x20 DUP2 ADD DUP4 SWAP1 MSTORE ADD PUSH1 0x40 MLOAD PUSH1 0x20 DUP2 DUP4 SUB SUB DUP2 MSTORE SWAP1 PUSH1 0x40 MSTORE DUP1 MLOAD SWAP1 PUSH1 0x20 ADD KECCAK256 PUSH1 0x11 SLOAD EQ PUSH2 0xC86 JUMPI PUSH1 0x40 MLOAD PUSH3 0x461BCD PUSH1 0xE5 SHL DUP2 MSTORE PUSH1 0x20 PUSH1 0x4 DUP3 ADD MSTORE PUSH1 0x1D PUSH1 0x24 DUP3 ADD MSTORE PUSH32 0x4D69736D617463686564206275726E7446656553686172652068617368000000 PUSH1 0x44 DUP3 ADD MSTORE PUSH1 0x64 ADD PUSH2 0x683 JUMP JUMPDEST PUSH2 0xC99 PUSH1 0x2 PUSH8 0xDE0B6B3A7640000 PUSH2 0x3CBC JUMP JUMPDEST DUP2 GT ISZERO PUSH2 0xCB8 JUMPI PUSH1 0x40 MLOAD PUSH3 0x461BCD PUSH1 0xE5 SHL DUP2 MSTORE PUSH1 0x4 ADD PUSH2 0x683 SWAP1 PUSH2 0x3CDE JUMP JUMPDEST PUSH1 0x8 SLOAD PUSH1 0x40 MLOAD PUSH4 0x2BB9FE8D PUSH1 0xE0 SHL DUP2 MSTORE PUSH1 0x4 DUP2 ADD DUP4 SWAP1 MSTORE PUSH1 0x1 PUSH1 0x1 PUSH1 0xA0 SHL SUB SWAP1 SWAP2 AND SWAP1 PUSH4 0x2BB9FE8D SWAP1 PUSH1 0x24 ADD PUSH1 0x0 PUSH1 0x40 MLOAD DUP1 DUP4 SUB DUP2 PUSH1 0x0 DUP8 DUP1 EXTCODESIZE ISZERO DUP1 ISZERO PUSH2 0xCFE JUMPI PUSH1 0x0 DUP1 REVERT JUMPDEST POP GAS CALL ISZERO DUP1 ISZERO PUSH2 0xD12 JUMPI RETURNDATASIZE PUSH1 0x0 DUP1 RETURNDATACOPY RETURNDATASIZE PUSH1 0x0 REVERT JUMPDEST POP POP PUSH1 0x0 PUSH1 0x11 SSTORE POP POP POP POP POP POP JUMP JUMPDEST PUSH1 0x9 SLOAD PUSH1 0x40 DUP1 MLOAD PUSH1 0x20 DUP1 DUP3 ADD DUP6 SWAP1 MSTORE DUP3 MLOAD DUP1 DUP4 SUB SWAP1 SWAP2 ADD DUP2 MSTORE DUP2 DUP4 ADD SWAP3 DUP4 SWAP1 MSTORE PUSH4 0x333F6111 PUSH1 0xE0 SHL SWAP1 SWAP3 MSTORE PUSH1 0x1 PUSH1 0x1 PUSH1 0xA0 SHL SUB SWAP1 SWAP3 AND SWAP2 PUSH4 0x333F6111 SWAP2 PUSH2 0xD71 SWAP2 DUP9 SWAP2 DUP9 SWAP2 DUP9 SWAP2 SWAP1 PUSH1 0x44 ADD PUSH2 0x3B48 JUMP JUMPDEST PUSH1 0x20 PUSH1 0x40 MLOAD DUP1 DUP4 SUB DUP2 PUSH1 0x0 DUP8 GAS CALL ISZERO DUP1 ISZERO PUSH2 0xD90 JUMPI RETURNDATASIZE PUSH1 0x0 DUP1 RETURNDATACOPY RETURNDATASIZE PUSH1 0x0 REVERT JUMPDEST POP POP POP POP PUSH1 0x40 MLOAD RETURNDATASIZE PUSH1 0x1F NOT PUSH1 0x1F DUP3 ADD AND DUP3 ADD DUP1 PUSH1 0x40 MSTORE POP DUP2 ADD SWAP1 PUSH2 0xDB4 SWAP2 SWAP1 PUSH2 0x3C29 JUMP JUMPDEST PUSH2 0xDD0 JUMPI PUSH1 0x40 MLOAD PUSH3 0x461BCD PUSH1 0xE5 SHL DUP2 MSTORE PUSH1 0x4 ADD PUSH2 0x683 SWAP1 PUSH2 0x3C4B JUMP JUMPDEST PUSH1 0x40 DUP1 MLOAD PUSH1 0x20 DUP2 ADD DUP4 SWAP1 MSTORE ADD PUSH1 0x40 DUP1 MLOAD PUSH1 0x1F NOT DUP2 DUP5 SUB ADD DUP2 MSTORE SWAP2 SWAP1 MSTORE DUP1 MLOAD PUSH1 0x20 SWAP1 SWAP2 ADD KECCAK256 PUSH1 0x15 SSTORE POP POP POP POP JUMP JUMPDEST PUSH1 0x9 SLOAD PUSH1 0x40 DUP1 MLOAD PUSH1 0x20 DUP1 DUP3 ADD DUP6 SWAP1 MSTORE DUP3 MLOAD DUP1 DUP4 SUB SWAP1 SWAP2 ADD DUP2 MSTORE DUP2 DUP4 ADD SWAP3 DUP4 SWAP1 MSTORE PUSH4 0x333F6111 PUSH1 0xE0 SHL SWAP1 SWAP3 MSTORE PUSH1 0x1 PUSH1 0x1 PUSH1 0xA0 SHL SUB SWAP1 SWAP3 AND SWAP2 PUSH4 0x333F6111 SWAP2 PUSH2 0xE4D SWAP2 DUP9 SWAP2 DUP9 SWAP2 DUP9 SWAP2 SWAP1 PUSH1 0x44 ADD PUSH2 0x3B48 JUMP JUMPDEST PUSH1 0x20 PUSH1 0x40 MLOAD DUP1 DUP4 SUB DUP2 PUSH1 0x0 DUP8 GAS CALL ISZERO DUP1 ISZERO PUSH2 0xE6C JUMPI RETURNDATASIZE PUSH1 0x0 DUP1 RETURNDATACOPY RETURNDATASIZE PUSH1 0x0 REVERT JUMPDEST POP POP POP POP PUSH1 0x40 MLOAD RETURNDATASIZE PUSH1 0x1F NOT PUSH1 0x1F DUP3 ADD AND DUP3 ADD DUP1 PUSH1 0x40 MSTORE POP DUP2 ADD SWAP1 PUSH2 0xE90 SWAP2 SWAP1 PUSH2 0x3C29 JUMP JUMPDEST PUSH2 0xEAC JUMPI PUSH1 0x40 MLOAD PUSH3 0x461BCD PUSH1 0xE5 SHL DUP2 MSTORE PUSH1 0x4 ADD PUSH2 0x683 SWAP1 PUSH2 0x3C4B JUMP JUMPDEST PUSH1 0x40 DUP1 MLOAD PUSH1 0x20 DUP2 ADD DUP4 SWAP1 MSTORE ADD PUSH1 0x40 MLOAD PUSH1 0x20 DUP2 DUP4 SUB SUB DUP2 MSTORE SWAP1 PUSH1 0x40 MSTORE DUP1 MLOAD SWAP1 PUSH1 0x20 ADD KECCAK256 PUSH1 0x15 SLOAD EQ PUSH2 0xF28 JUMPI PUSH1 0x40 MLOAD PUSH3 0x461BCD PUSH1 0xE5 SHL DUP2 MSTORE PUSH1 0x20 PUSH1 0x4 DUP3 ADD MSTORE PUSH1 0x21 PUSH1 0x24 DUP3 ADD MSTORE PUSH32 0x4D69736D617463686564206D61784C6F636B75704475726174696F6E20686173 PUSH1 0x44 DUP3 ADD MSTORE PUSH1 0xD PUSH1 0xFB SHL PUSH1 0x64 DUP3 ADD MSTORE PUSH1 0x84 ADD PUSH2 0x683 JUMP JUMPDEST PUSH3 0x278D00 DUP2 LT ISZERO DUP1 ISZERO PUSH2 0xF3F JUMPI POP PUSH4 0x784CE00 DUP2 GT ISZERO JUMPDEST PUSH2 0xF8B JUMPI PUSH1 0x40 MLOAD PUSH3 0x461BCD PUSH1 0xE5 SHL DUP2 MSTORE PUSH1 0x20 PUSH1 0x4 DUP3 ADD MSTORE PUSH1 0x1F PUSH1 0x24 DUP3 ADD MSTORE PUSH32 0x496E76616C6964206D61784C6F636B75704475726174696F6E2072616E676500 PUSH1 0x44 DUP3 ADD MSTORE PUSH1 0x64 ADD PUSH2 0x683 JUMP JUMPDEST PUSH1 0x8 SLOAD PUSH1 0x40 MLOAD PUSH4 0xAD7B3F7B PUSH1 0xE0 SHL DUP2 MSTORE PUSH1 0x4 DUP2 ADD DUP4 SWAP1 MSTORE PUSH1 0x1 PUSH1 0x1 PUSH1 0xA0 SHL SUB SWAP1 SWAP2 AND SWAP1 PUSH4 0xAD7B3F7B SWAP1 PUSH1 0x24 ADD PUSH1 0x0 PUSH1 0x40 MLOAD DUP1 DUP4 SUB DUP2 PUSH1 0x0 DUP8 DUP1 EXTCODESIZE ISZERO DUP1 ISZERO PUSH2 0xFD1 JUMPI PUSH1 0x0 DUP1 REVERT JUMPDEST POP GAS CALL ISZERO DUP1 ISZERO PUSH2 0xFE5 JUMPI RETURNDATASIZE PUSH1 0x0 DUP1 RETURNDATACOPY RETURNDATASIZE PUSH1 0x0 REVERT JUMPDEST POP POP PUSH1 0x0 PUSH1 0x15 SSTORE POP POP POP POP POP POP JUMP JUMPDEST PUSH1 0x0 DUP1 SLOAD PUSH1 0xFF AND PUSH2 0x1017 JUMPI PUSH1 0x40 MLOAD PUSH3 0x461BCD PUSH1 0xE5 SHL DUP2 MSTORE PUSH1 0x4 ADD PUSH2 0x683 SWAP1 PUSH2 0x3D07 JUMP JUMPDEST PUSH1 0x0 DUP6 PUSH1 0x40 MLOAD PUSH1 0x20 ADD PUSH2 0x102A SWAP2 SWAP1 PUSH2 0x3D3E JUMP JUMPDEST PUSH1 0x40 DUP1 MLOAD PUSH1 0x1F NOT DUP2 DUP5 SUB ADD DUP2 MSTORE SWAP2 SWAP1 MSTORE DUP1 MLOAD PUSH1 0x20 SWAP1 SWAP2 ADD KECCAK256 SWAP1 POP PUSH1 0x0 JUMPDEST PUSH1 0x0 DUP3 DUP2 MSTORE PUSH1 0x2 PUSH1 0x20 DUP2 SWAP1 MSTORE PUSH1 0x40 SWAP1 SWAP2 KECCAK256 SLOAD PUSH1 0xFF AND SWAP1 DUP2 GT ISZERO PUSH2 0x106C JUMPI PUSH2 0x106C PUSH2 0x3674 JUMP JUMPDEST EQ PUSH2 0x107B JUMPI PUSH1 0x0 SWAP2 POP POP PUSH2 0x10DD JUMP JUMPDEST PUSH1 0x0 DUP4 DUP6 PUSH1 0x40 MLOAD PUSH1 0x20 ADD PUSH2 0x1090 SWAP3 SWAP2 SWAP1 PUSH2 0x3D75 JUMP JUMPDEST PUSH1 0x40 MLOAD PUSH1 0x20 DUP2 DUP4 SUB SUB DUP2 MSTORE SWAP1 PUSH1 0x40 MSTORE DUP1 MLOAD SWAP1 PUSH1 0x20 ADD KECCAK256 PUSH1 0x0 SHR SWAP1 POP PUSH1 0x0 PUSH2 0x10B8 DUP3 DUP9 DUP11 PUSH2 0x2201 JUMP JUMPDEST SWAP1 POP DUP1 PUSH2 0x10CB JUMPI PUSH1 0x0 SWAP4 POP POP POP POP PUSH2 0x10DD JUMP JUMPDEST PUSH2 0x10D5 DUP4 DUP8 PUSH2 0x34B9 JUMP JUMPDEST PUSH1 0x1 SWAP4 POP POP POP POP JUMPDEST SWAP5 SWAP4 POP POP POP POP JUMP JUMPDEST PUSH1 0x0 DUP1 SLOAD PUSH1 0xFF AND PUSH2 0x1108 JUMPI PUSH1 0x40 MLOAD PUSH3 0x461BCD PUSH1 0xE5 SHL DUP2 MSTORE PUSH1 0x4 ADD PUSH2 0x683 SWAP1 PUSH2 0x3D07 JUMP JUMPDEST PUSH1 0x0 DUP6 PUSH1 0x40 MLOAD PUSH1 0x20 ADD PUSH2 0x111B SWAP2 SWAP1 PUSH2 0x3D3E JUMP JUMPDEST PUSH1 0x40 DUP1 MLOAD PUSH1 0x1F NOT DUP2 DUP5 SUB ADD DUP2 MSTORE SWAP2 SWAP1 MSTORE DUP1 MLOAD PUSH1 0x20 SWAP1 SWAP2 ADD KECCAK256 SWAP1 POP PUSH1 0x1 PUSH2 0x1047 JUMP JUMPDEST PUSH1 0x0 SLOAD DUP5 SWAP1 DUP5 SWAP1 DUP5 SWAP1 DUP5 SWAP1 PUSH1 0xFF AND PUSH2 0x1166 JUMPI PUSH1 0x40 MLOAD PUSH3 0x461BCD PUSH1 0xE5 SHL DUP2 MSTORE PUSH1 0x4 ADD PUSH2 0x683 SWAP1 PUSH2 0x3D07 JUMP JUMPDEST PUSH1 0x0 DUP5 PUSH1 0x40 MLOAD PUSH1 0x20 ADD PUSH2 0x1179 SWAP2 SWAP1 PUSH2 0x3D3E JUMP JUMPDEST PUSH1 0x40 DUP1 MLOAD PUSH1 0x1F NOT DUP2 DUP5 SUB ADD DUP2 MSTORE SWAP2 SWAP1 MSTORE DUP1 MLOAD PUSH1 0x20 SWAP1 SWAP2 ADD KECCAK256 SWAP1 POP PUSH1 0x0 DUP1 DUP3 DUP2 MSTORE PUSH1 0x2 PUSH1 0x20 DUP2 SWAP1 MSTORE PUSH1 0x40 SWAP1 SWAP2 KECCAK256 SLOAD PUSH1 0xFF AND SWAP1 DUP2 GT ISZERO PUSH2 0x11B9 JUMPI PUSH2 0x11B9 PUSH2 0x3674 JUMP JUMPDEST EQ PUSH2 0x11D6 JUMPI PUSH1 0x40 MLOAD PUSH3 0x461BCD PUSH1 0xE5 SHL DUP2 MSTORE PUSH1 0x4 ADD PUSH2 0x683 SWAP1 PUSH2 0x3D97 JUMP JUMPDEST PUSH1 0x0 DUP3 DUP5 PUSH1 0x40 MLOAD PUSH1 0x20 ADD PUSH2 0x11EB SWAP3 SWAP2 SWAP1 PUSH2 0x3D75 JUMP JUMPDEST PUSH1 0x40 DUP1 MLOAD PUSH1 0x1F NOT DUP2 DUP5 SUB ADD DUP2 MSTORE SWAP1 DUP3 SWAP1 MSTORE DUP1 MLOAD PUSH1 0x20 SWAP2 DUP3 ADD KECCAK256 DUP1 DUP4 MSTORE SWAP3 POP PUSH1 0x0 DUP1 MLOAD PUSH1 0x20 PUSH2 0x3E9A DUP4 CODECOPY DUP2 MLOAD SWAP2 MSTORE SWAP2 ADD PUSH1 0x40 MLOAD DUP1 SWAP2 SUB SWAP1 LOG1 PUSH1 0x0 PUSH2 0x122F DUP3 DUP8 DUP10 PUSH2 0x2201 JUMP JUMPDEST PUSH1 0x0 DUP1 SLOAD PUSH2 0xFF00 NOT AND PUSH2 0x100 DUP4 ISZERO ISZERO MUL OR SWAP1 SSTORE SWAP1 POP DUP1 PUSH2 0x12B3 JUMPI PUSH1 0x40 MLOAD DUP3 DUP2 MSTORE PUSH1 0x0 DUP1 MLOAD PUSH1 0x20 PUSH2 0x3E7A DUP4 CODECOPY DUP2 MLOAD SWAP2 MSTORE SWAP1 PUSH1 0x20 ADD JUMPDEST PUSH1 0x40 MLOAD DUP1 SWAP2 SUB SWAP1 LOG1 PUSH1 0x40 MLOAD PUSH3 0x461BCD PUSH1 0xE5 SHL DUP2 MSTORE PUSH1 0x20 PUSH1 0x4 DUP3 ADD DUP2 SWAP1 MSTORE PUSH1 0x24 DUP3 ADD MSTORE PUSH32 0x4C616D706F7274426173653A20566572696669636174696F6E206661696C6564 PUSH1 0x44 DUP3 ADD MSTORE PUSH1 0x64 ADD PUSH2 0x683 JUMP JUMPDEST PUSH1 0x0 DUP4 DUP2 MSTORE PUSH1 0x2 PUSH1 0x20 MSTORE PUSH1 0x40 SWAP1 DUP2 SWAP1 KECCAK256 SLOAD SWAP1 MLOAD PUSH1 0x0 DUP1 MLOAD PUSH1 0x20 PUSH2 0x3EBA DUP4 CODECOPY DUP2 MLOAD SWAP2 MSTORE SWAP2 PUSH2 0x12E9 SWAP2 PUSH1 0xFF SWAP1 SWAP2 AND SWAP1 DUP7 SWAP1 DUP10 SWAP1 PUSH2 0x36AC JUMP JUMPDEST PUSH1 0x40 MLOAD DUP1 SWAP2 SUB SWAP1 LOG1 PUSH2 0x12FB DUP4 DUP7 PUSH2 0x34B9 JUMP JUMPDEST POP POP POP PUSH1 0x5 SWAP6 SWAP1 SWAP6 SSTORE POP POP POP POP POP POP POP JUMP JUMPDEST PUSH1 0x9 SLOAD PUSH1 0x40 DUP1 MLOAD PUSH1 0x20 DUP1 DUP3 ADD DUP6 SWAP1 MSTORE DUP3 MLOAD DUP1 DUP4 SUB SWAP1 SWAP2 ADD DUP2 MSTORE DUP2 DUP4 ADD SWAP3 DUP4 SWAP1 MSTORE PUSH4 0x333F6111 PUSH1 0xE0 SHL SWAP1 SWAP3 MSTORE PUSH1 0x1 PUSH1 0x1 PUSH1 0xA0 SHL SUB SWAP1 SWAP3 AND SWAP2 PUSH4 0x333F6111 SWAP2 PUSH2 0x135D SWAP2 DUP9 SWAP2 DUP9 SWAP2 DUP9 SWAP2 SWAP1 PUSH1 0x44 ADD PUSH2 0x3B48 JUMP JUMPDEST PUSH1 0x20 PUSH1 0x40 MLOAD DUP1 DUP4 SUB DUP2 PUSH1 0x0 DUP8 GAS CALL ISZERO DUP1 ISZERO PUSH2 0x137C JUMPI RETURNDATASIZE PUSH1 0x0 DUP1 RETURNDATACOPY RETURNDATASIZE PUSH1 0x0 REVERT JUMPDEST POP POP POP POP PUSH1 0x40 MLOAD RETURNDATASIZE PUSH1 0x1F NOT PUSH1 0x1F DUP3 ADD AND DUP3 ADD DUP1 PUSH1 0x40 MSTORE POP DUP2 ADD SWAP1 PUSH2 0x13A0 SWAP2 SWAP1 PUSH2 0x3C29 JUMP JUMPDEST PUSH2 0x13BC JUMPI PUSH1 0x40 MLOAD PUSH3 0x461BCD PUSH1 0xE5 SHL DUP2 MSTORE PUSH1 0x4 ADD PUSH2 0x683 SWAP1 PUSH2 0x3C4B JUMP JUMPDEST PUSH1 0x40 DUP1 MLOAD PUSH1 0x20 DUP2 ADD DUP4 SWAP1 MSTORE ADD PUSH1 0x40 MLOAD PUSH1 0x20 DUP2 DUP4 SUB SUB DUP2 MSTORE SWAP1 PUSH1 0x40 MSTORE DUP1 MLOAD SWAP1 PUSH1 0x20 ADD KECCAK256 PUSH1 0x14 SLOAD EQ PUSH2 0x1438 JUMPI PUSH1 0x40 MLOAD PUSH3 0x461BCD PUSH1 0xE5 SHL DUP2 MSTORE PUSH1 0x20 PUSH1 0x4 DUP3 ADD MSTORE PUSH1 0x21 PUSH1 0x24 DUP3 ADD MSTORE PUSH32 0x4D69736D617463686564206D696E4C6F636B75704475726174696F6E20686173 PUSH1 0x44 DUP3 ADD MSTORE PUSH1 0xD PUSH1 0xFB SHL PUSH1 0x64 DUP3 ADD MSTORE PUSH1 0x84 ADD PUSH2 0x683 JUMP JUMPDEST PUSH3 0x15180 DUP2 LT ISZERO DUP1 ISZERO PUSH2 0x144E JUMPI POP PUSH3 0x278D00 DUP2 GT ISZERO JUMPDEST PUSH2 0x149A JUMPI PUSH1 0x40 MLOAD PUSH3 0x461BCD PUSH1 0xE5 SHL DUP2 MSTORE PUSH1 0x20 PUSH1 0x4 DUP3 ADD MSTORE PUSH1 0x1F PUSH1 0x24 DUP3 ADD MSTORE PUSH32 0x496E76616C6964206D696E4C6F636B75704475726174696F6E2072616E676500 PUSH1 0x44 DUP3 ADD MSTORE PUSH1 0x64 ADD PUSH2 0x683 JUMP JUMPDEST PUSH1 0x8 SLOAD PUSH1 0x40 MLOAD PUSH4 0xBF25338B PUSH1 0xE0 SHL DUP2 MSTORE PUSH1 0x4 DUP2 ADD DUP4 SWAP1 MSTORE PUSH1 0x1 PUSH1 0x1 PUSH1 0xA0 SHL SUB SWAP1 SWAP2 AND SWAP1 PUSH4 0xBF25338B SWAP1 PUSH1 0x24 ADD PUSH1 0x0 PUSH1 0x40 MLOAD DUP1 DUP4 SUB DUP2 PUSH1 0x0 DUP8 DUP1 EXTCODESIZE ISZERO DUP1 ISZERO PUSH2 0x14E0 JUMPI PUSH1 0x0 DUP1 REVERT JUMPDEST POP GAS CALL ISZERO DUP1 ISZERO PUSH2 0x14F4 JUMPI RETURNDATASIZE PUSH1 0x0 DUP1 RETURNDATACOPY RETURNDATASIZE PUSH1 0x0 REVERT JUMPDEST POP POP PUSH1 0x0 PUSH1 0x14 SSTORE POP POP POP POP POP POP JUMP JUMPDEST DUP4 DUP4 DUP4 DUP4 PUSH1 0x40 MLOAD PUSH1 0x20 ADD PUSH2 0x1519 SWAP2 DUP2 MSTORE PUSH1 0x20 ADD SWAP1 JUMP JUMPDEST PUSH1 0x40 DUP1 MLOAD PUSH1 0x1F NOT DUP2 DUP5 SUB ADD DUP2 MSTORE SWAP2 SWAP1 MSTORE PUSH1 0x0 SLOAD PUSH1 0xFF AND PUSH2 0x154B JUMPI PUSH1 0x40 MLOAD PUSH3 0x461BCD PUSH1 0xE5 SHL DUP2 MSTORE PUSH1 0x4 ADD PUSH2 0x683 SWAP1 PUSH2 0x3D07 JUMP JUMPDEST PUSH1 0x0 DUP5 PUSH1 0x40 MLOAD PUSH1 0x20 ADD PUSH2 0x155E SWAP2 SWAP1 PUSH2 0x3D3E JUMP JUMPDEST PUSH1 0x40 DUP1 MLOAD PUSH1 0x1F NOT DUP2 DUP5 SUB ADD DUP2 MSTORE SWAP2 SWAP1 MSTORE DUP1 MLOAD PUSH1 0x20 SWAP1 SWAP2 ADD KECCAK256 SWAP1 POP PUSH1 0x0 DUP1 DUP3 DUP2 MSTORE PUSH1 0x2 PUSH1 0x20 DUP2 SWAP1 MSTORE PUSH1 0x40 SWAP1 SWAP2 KECCAK256 SLOAD PUSH1 0xFF AND SWAP1 DUP2 GT ISZERO PUSH2 0x159E JUMPI PUSH2 0x159E PUSH2 0x3674 JUMP JUMPDEST EQ PUSH2 0x15BB JUMPI PUSH1 0x40 MLOAD PUSH3 0x461BCD PUSH1 0xE5 SHL DUP2 MSTORE PUSH1 0x4 ADD PUSH2 0x683 SWAP1 PUSH2 0x3D97 JUMP JUMPDEST PUSH1 0x0 DUP3 DUP5 PUSH1 0x40 MLOAD PUSH1 0x20 ADD PUSH2 0x15D0 SWAP3 SWAP2 SWAP1 PUSH2 0x3D75 JUMP JUMPDEST PUSH1 0x40 DUP1 MLOAD PUSH1 0x1F NOT DUP2 DUP5 SUB ADD DUP2 MSTORE SWAP1 DUP3 SWAP1 MSTORE DUP1 MLOAD PUSH1 0x20 SWAP2 DUP3 ADD KECCAK256 DUP1 DUP4 MSTORE SWAP3 POP PUSH1 0x0 DUP1 MLOAD PUSH1 0x20 PUSH2 0x3E9A DUP4 CODECOPY DUP2 MLOAD SWAP2 MSTORE SWAP2 ADD PUSH1 0x40 MLOAD DUP1 SWAP2 SUB SWAP1 LOG1 PUSH1 0x0 PUSH2 0x1614 DUP3 DUP8 DUP10 PUSH2 0x2201 JUMP JUMPDEST PUSH1 0x0 DUP1 SLOAD PUSH2 0xFF00 NOT AND PUSH2 0x100 DUP4 ISZERO ISZERO MUL OR SWAP1 SSTORE SWAP1 POP DUP1 PUSH2 0x164C JUMPI PUSH1 0x40 MLOAD DUP3 DUP2 MSTORE PUSH1 0x0 DUP1 MLOAD PUSH1 0x20 PUSH2 0x3E7A DUP4 CODECOPY DUP2 MLOAD SWAP2 MSTORE SWAP1 PUSH1 0x20 ADD PUSH2 0x1263 JUMP JUMPDEST PUSH1 0x0 DUP4 DUP2 MSTORE PUSH1 0x2 PUSH1 0x20 MSTORE PUSH1 0x40 SWAP1 DUP2 SWAP1 KECCAK256 SLOAD SWAP1 MLOAD PUSH1 0x0 DUP1 MLOAD PUSH1 0x20 PUSH2 0x3EBA DUP4 CODECOPY DUP2 MLOAD SWAP2 MSTORE SWAP2 PUSH2 0x1682 SWAP2 PUSH1 0xFF SWAP1 SWAP2 AND SWAP1 DUP7 SWAP1 DUP10 SWAP1 PUSH2 0x36AC JUMP JUMPDEST PUSH1 0x40 MLOAD DUP1 SWAP2 SUB SWAP1 LOG1 PUSH2 0x1694 DUP4 DUP7 PUSH2 0x34B9 JUMP JUMPDEST PUSH1 0x0 DUP12 PUSH1 0x40 MLOAD PUSH1 0x20 ADD PUSH2 0x16A7 SWAP2 SWAP1 PUSH2 0x3D3E JUMP JUMPDEST PUSH1 0x40 DUP1 MLOAD PUSH1 0x1F NOT DUP2 DUP5 SUB ADD DUP2 MSTORE SWAP2 SWAP1 MSTORE DUP1 MLOAD PUSH1 0x20 SWAP1 SWAP2 ADD KECCAK256 PUSH1 0x5 DUP1 SLOAD PUSH1 0x0 SWAP1 SWAP2 SSTORE SWAP1 SWAP2 POP DUP2 EQ ISZERO DUP1 PUSH2 0x1743 JUMPI PUSH1 0x40 DUP1 MLOAD PUSH3 0x461BCD PUSH1 0xE5 SHL DUP2 MSTORE PUSH1 0x20 PUSH1 0x4 DUP3 ADD MSTORE PUSH1 0x24 DUP2 ADD SWAP2 SWAP1 SWAP2 MSTORE PUSH32 0x4C616D706F7274426173653A20504B48206D617463686573206C617374207573 PUSH1 0x44 DUP3 ADD MSTORE PUSH32 0x656420504B482028757365207365706172617465207365636F6E64206B657929 PUSH1 0x64 DUP3 ADD MSTORE PUSH1 0x84 ADD PUSH2 0x683 JUMP JUMPDEST PUSH2 0x174E PUSH1 0x0 DUP12 PUSH2 0x33A0 JUMP JUMPDEST POP POP PUSH1 0x0 PUSH1 0x5 SSTORE POP POP POP POP POP POP POP POP POP POP POP JUMP JUMPDEST PUSH1 0x9 SLOAD PUSH1 0x40 DUP1 MLOAD PUSH1 0x20 DUP1 DUP3 ADD DUP6 SWAP1 MSTORE DUP3 MLOAD DUP1 DUP4 SUB SWAP1 SWAP2 ADD DUP2 MSTORE DUP2 DUP4 ADD SWAP3 DUP4 SWAP1 MSTORE PUSH4 0x333F6111 PUSH1 0xE0 SHL SWAP1 SWAP3 MSTORE PUSH1 0x1 PUSH1 0x1 PUSH1 0xA0 SHL SUB SWAP1 SWAP3 AND SWAP2 PUSH4 0x333F6111 SWAP2 PUSH2 0x17B2 SWAP2 DUP9 SWAP2 DUP9 SWAP2 DUP9 SWAP2 SWAP1 PUSH1 0x44 ADD PUSH2 0x3B48 JUMP JUMPDEST PUSH1 0x20 PUSH1 0x40 MLOAD DUP1 DUP4 SUB DUP2 PUSH1 0x0 DUP8 GAS CALL ISZERO DUP1 ISZERO PUSH2 0x17D1 JUMPI RETURNDATASIZE PUSH1 0x0 DUP1 RETURNDATACOPY RETURNDATASIZE PUSH1 0x0 REVERT JUMPDEST POP POP POP POP PUSH1 0x40 MLOAD RETURNDATASIZE PUSH1 0x1F NOT PUSH1 0x1F DUP3 ADD AND DUP3 ADD DUP1 PUSH1 0x40 MSTORE POP DUP2 ADD SWAP1 PUSH2 0x17F5 SWAP2 SWAP1 PUSH2 0x3C29 JUMP JUMPDEST PUSH2 0x1811 JUMPI PUSH1 0x40 MLOAD PUSH3 0x461BCD PUSH1 0xE5 SHL DUP2 MSTORE PUSH1 0x4 ADD PUSH2 0x683 SWAP1 PUSH2 0x3C4B JUMP JUMPDEST PUSH1 0x40 DUP1 MLOAD PUSH1 0x20 DUP2 ADD DUP4 SWAP1 MSTORE ADD PUSH1 0x40 DUP1 MLOAD PUSH1 0x1F NOT DUP2 DUP5 SUB ADD DUP2 MSTORE SWAP2 SWAP1 MSTORE DUP1 MLOAD PUSH1 0x20 SWAP1 SWAP2 ADD KECCAK256 PUSH1 0xC SSTORE POP POP POP POP JUMP JUMPDEST PUSH1 0x9 SLOAD PUSH1 0x40 DUP1 MLOAD PUSH1 0x20 DUP1 DUP3 ADD DUP6 SWAP1 MSTORE DUP3 MLOAD DUP1 DUP4 SUB SWAP1 SWAP2 ADD DUP2 MSTORE DUP2 DUP4 ADD SWAP3 DUP4 SWAP1 MSTORE PUSH4 0x333F6111 PUSH1 0xE0 SHL SWAP1 SWAP3 MSTORE PUSH1 0x1 PUSH1 0x1 PUSH1 0xA0 SHL SUB SWAP1 SWAP3 AND SWAP2 PUSH4 0x333F6111 SWAP2 PUSH2 0x188E SWAP2 DUP9 SWAP2 DUP9 SWAP2 DUP9 SWAP2 SWAP1 PUSH1 0x44 ADD PUSH2 0x3B48 JUMP JUMPDEST PUSH1 0x20 PUSH1 0x40 MLOAD DUP1 DUP4 SUB DUP2 PUSH1 0x0 DUP8 GAS CALL ISZERO DUP1 ISZERO PUSH2 0x18AD JUMPI RETURNDATASIZE PUSH1 0x0 DUP1 RETURNDATACOPY RETURNDATASIZE PUSH1 0x0 REVERT JUMPDEST POP POP POP POP PUSH1 0x40 MLOAD RETURNDATASIZE PUSH1 0x1F NOT PUSH1 0x1F DUP3 ADD AND DUP3 ADD DUP1 PUSH1 0x40 MSTORE POP DUP2 ADD SWAP1 PUSH2 0x18D1 SWAP2 SWAP1 PUSH2 0x3C29 JUMP JUMPDEST PUSH2 0x18ED JUMPI PUSH1 0x40 MLOAD PUSH3 0x461BCD PUSH1 0xE5 SHL DUP2 MSTORE PUSH1 0x4 ADD PUSH2 0x683 SWAP1 PUSH2 0x3C4B JUMP JUMPDEST PUSH1 0x40 DUP1 MLOAD PUSH1 0x20 DUP2 ADD DUP4 SWAP1 MSTORE ADD PUSH1 0x40 DUP1 MLOAD PUSH1 0x1F NOT DUP2 DUP5 SUB ADD DUP2 MSTORE SWAP2 SWAP1 MSTORE DUP1 MLOAD PUSH1 0x20 SWAP1 SWAP2 ADD KECCAK256 PUSH1 0x17 SSTORE POP POP POP POP JUMP JUMPDEST PUSH1 0x9 SLOAD PUSH1 0x40 DUP1 MLOAD PUSH1 0x20 DUP1 DUP3 ADD DUP6 SWAP1 MSTORE DUP3 MLOAD DUP1 DUP4 SUB SWAP1 SWAP2 ADD DUP2 MSTORE DUP2 DUP4 ADD SWAP3 DUP4 SWAP1 MSTORE PUSH4 0x333F6111 PUSH1 0xE0 SHL SWAP1 SWAP3 MSTORE PUSH1 0x1 PUSH1 0x1 PUSH1 0xA0 SHL SUB SWAP1 SWAP3 AND SWAP2 PUSH4 0x333F6111 SWAP2 PUSH2 0x196A SWAP2 DUP9 SWAP2 DUP9 SWAP2 DUP9 SWAP2 SWAP1 PUSH1 0x44 ADD PUSH2 0x3B48 JUMP JUMPDEST PUSH1 0x20 PUSH1 0x40 MLOAD DUP1 DUP4 SUB DUP2 PUSH1 0x0 DUP8 GAS CALL ISZERO DUP1 ISZERO PUSH2 0x1989 JUMPI RETURNDATASIZE PUSH1 0x0 DUP1 RETURNDATACOPY RETURNDATASIZE PUSH1 0x0 REVERT JUMPDEST POP POP POP POP PUSH1 0x40 MLOAD RETURNDATASIZE PUSH1 0x1F NOT PUSH1 0x1F DUP3 ADD AND DUP3 ADD DUP1 PUSH1 0x40 MSTORE POP DUP2 ADD SWAP1 PUSH2 0x19AD SWAP2 SWAP1 PUSH2 0x3C29 JUMP JUMPDEST PUSH2 0x19C9 JUMPI PUSH1 0x40 MLOAD PUSH3 0x461BCD PUSH1 0xE5 SHL DUP2 MSTORE PUSH1 0x4 ADD PUSH2 0x683 SWAP1 PUSH2 0x3C4B JUMP JUMPDEST PUSH1 0x40 DUP1 MLOAD PUSH1 0x20 DUP2 ADD DUP4 SWAP1 MSTORE ADD PUSH1 0x40 DUP1 MLOAD PUSH1 0x1F NOT DUP2 DUP5 SUB ADD DUP2 MSTORE SWAP2 SWAP1 MSTORE DUP1 MLOAD PUSH1 0x20 SWAP1 SWAP2 ADD KECCAK256 PUSH1 0x11 SSTORE POP POP POP POP JUMP JUMPDEST PUSH1 0x9 SLOAD PUSH1 0x40 DUP1 MLOAD PUSH1 0x20 DUP1 DUP3 ADD DUP6 SWAP1 MSTORE DUP3 MLOAD DUP1 DUP4 SUB SWAP1 SWAP2 ADD DUP2 MSTORE DUP2 DUP4 ADD SWAP3 DUP4 SWAP1 MSTORE PUSH4 0x333F6111 PUSH1 0xE0 SHL SWAP1 SWAP3 MSTORE PUSH1 0x1 PUSH1 0x1 PUSH1 0xA0 SHL SUB SWAP1 SWAP3 AND SWAP2 PUSH4 0x333F6111 SWAP2 PUSH2 0x1A46 SWAP2 DUP9 SWAP2 DUP9 SWAP2 DUP9 SWAP2 SWAP1 PUSH1 0x44 ADD PUSH2 0x3B48 JUMP JUMPDEST PUSH1 0x20 PUSH1 0x40 MLOAD DUP1 DUP4 SUB DUP2 PUSH1 0x0 DUP8 GAS CALL ISZERO DUP1 ISZERO PUSH2 0x1A65 JUMPI RETURNDATASIZE PUSH1 0x0 DUP1 RETURNDATACOPY RETURNDATASIZE PUSH1 0x0 REVERT JUMPDEST POP POP POP POP PUSH1 0x40 MLOAD RETURNDATASIZE PUSH1 0x1F NOT PUSH1 0x1F DUP3 ADD AND DUP3 ADD DUP1 PUSH1 0x40 MSTORE POP DUP2 ADD SWAP1 PUSH2 0x1A89 SWAP2 SWAP1 PUSH2 0x3C29 JUMP JUMPDEST PUSH2 0x1AA5 JUMPI PUSH1 0x40 MLOAD PUSH3 0x461BCD PUSH1 0xE5 SHL DUP2 MSTORE PUSH1 0x4 ADD PUSH2 0x683 SWAP1 PUSH2 0x3C4B JUMP JUMPDEST PUSH1 0x40 DUP1 MLOAD PUSH1 0x20 DUP2 ADD DUP4 SWAP1 MSTORE ADD PUSH1 0x40 MLOAD PUSH1 0x20 DUP2 DUP4 SUB SUB DUP2 MSTORE SWAP1 PUSH1 0x40 MSTORE DUP1 MLOAD SWAP1 PUSH1 0x20 ADD KECCAK256 PUSH1 0x17 SLOAD EQ PUSH2 0x1B26 JUMPI PUSH1 0x40 MLOAD PUSH3 0x461BCD PUSH1 0xE5 SHL DUP2 MSTORE PUSH1 0x20 PUSH1 0x4 DUP3 ADD MSTORE PUSH1 0x26 PUSH1 0x24 DUP3 ADD MSTORE PUSH32 0x4D69736D617463686564207769746864726177616C506572696F6445706F6368 PUSH1 0x44 DUP3 ADD MSTORE PUSH6 0xE640D0C2E6D PUSH1 0xD3 SHL PUSH1 0x64 DUP3 ADD MSTORE PUSH1 0x84 ADD PUSH2 0x683 JUMP JUMPDEST PUSH1 0x2 DUP2 LT ISZERO DUP1 ISZERO PUSH2 0x1B38 JUMPI POP PUSH1 0x64 DUP2 GT ISZERO JUMPDEST PUSH2 0x1B90 JUMPI PUSH1 0x40 MLOAD PUSH3 0x461BCD PUSH1 0xE5 SHL DUP2 MSTORE PUSH1 0x20 PUSH1 0x4 DUP3 ADD MSTORE PUSH1 0x24 DUP1 DUP3 ADD MSTORE PUSH32 0x496E76616C6964207769746864726177616C506572696F6445706F6368732072 PUSH1 0x44 DUP3 ADD MSTORE PUSH4 0x616E6765 PUSH1 0xE0 SHL PUSH1 0x64 DUP3 ADD MSTORE PUSH1 0x84 ADD PUSH2 0x683 JUMP JUMPDEST PUSH1 0x8 SLOAD PUSH1 0x40 MLOAD PUSH4 0x4783C5FD PUSH1 0xE1 SHL DUP2 MSTORE PUSH1 0x4 DUP2 ADD DUP4 SWAP1 MSTORE PUSH1 0x1 PUSH1 0x1 PUSH1 0xA0 SHL SUB SWAP1 SWAP2 AND SWAP1 PUSH4 0x8F078BFA SWAP1 PUSH1 0x24 ADD PUSH1 0x0 PUSH1 0x40 MLOAD DUP1 DUP4 SUB DUP2 PUSH1 0x0 DUP8 DUP1 EXTCODESIZE ISZERO DUP1 ISZERO PUSH2 0x1BD6 JUMPI PUSH1 0x0 DUP1 REVERT JUMPDEST POP GAS CALL ISZERO DUP1 ISZERO PUSH2 0x1BEA JUMPI RETURNDATASIZE PUSH1 0x0 DUP1 RETURNDATACOPY RETURNDATASIZE PUSH1 0x0 REVERT JUMPDEST POP POP PUSH1 0x0 PUSH1 0x17 SSTORE POP POP POP POP POP POP JUMP JUMPDEST PUSH1 0x9 SLOAD PUSH1 0x40 DUP1 MLOAD PUSH1 0x20 DUP1 DUP3 ADD DUP6 SWAP1 MSTORE DUP3 MLOAD DUP1 DUP4 SUB SWAP1 SWAP2 ADD DUP2 MSTORE DUP2 DUP4 ADD SWAP3 DUP4 SWAP1 MSTORE PUSH4 0x333F6111 PUSH1 0xE0 SHL SWAP1 SWAP3 MSTORE PUSH1 0x1 PUSH1 0x1 PUSH1 0xA0 SHL SUB SWAP1 SWAP3 AND SWAP2 PUSH4 0x333F6111 SWAP2 PUSH2 0x1C49 SWAP2 DUP9 SWAP2 DUP9 SWAP2 DUP9 SWAP2 SWAP1 PUSH1 0x44 ADD PUSH2 0x3B48 JUMP JUMPDEST PUSH1 0x20 PUSH1 0x40 MLOAD DUP1 DUP4 SUB DUP2 PUSH1 0x0 DUP8 GAS CALL ISZERO DUP1 ISZERO PUSH2 0x1C68 JUMPI RETURNDATASIZE PUSH1 0x0 DUP1 RETURNDATACOPY RETURNDATASIZE PUSH1 0x0 REVERT JUMPDEST POP POP POP POP PUSH1 0x40 MLOAD RETURNDATASIZE PUSH1 0x1F NOT PUSH1 0x1F DUP3 ADD AND DUP3 ADD DUP1 PUSH1 0x40 MSTORE POP DUP2 ADD SWAP1 PUSH2 0x1C8C SWAP2 SWAP1 PUSH2 0x3C29 JUMP JUMPDEST PUSH2 0x1CA8 JUMPI PUSH1 0x40 MLOAD PUSH3 0x461BCD PUSH1 0xE5 SHL DUP2 MSTORE PUSH1 0x4 ADD PUSH2 0x683 SWAP1 PUSH2 0x3C4B JUMP JUMPDEST PUSH1 0x40 DUP1 MLOAD PUSH1 0x20 DUP2 ADD DUP4 SWAP1 MSTORE ADD PUSH1 0x40 DUP1 MLOAD PUSH1 0x1F NOT DUP2 DUP5 SUB ADD DUP2 MSTORE SWAP2 SWAP1 MSTORE DUP1 MLOAD PUSH1 0x20 SWAP1 SWAP2 ADD KECCAK256 PUSH1 0x14 SSTORE POP POP POP POP JUMP JUMPDEST PUSH1 0x9 SLOAD PUSH1 0x40 DUP1 MLOAD PUSH1 0x20 DUP1 DUP3 ADD DUP6 SWAP1 MSTORE DUP3 MLOAD DUP1 DUP4 SUB SWAP1 SWAP2 ADD DUP2 MSTORE DUP2 DUP4 ADD SWAP3 DUP4 SWAP1 MSTORE PUSH4 0x333F6111 PUSH1 0xE0 SHL SWAP1 SWAP3 MSTORE PUSH1 0x1 PUSH1 0x1 PUSH1 0xA0 SHL SUB SWAP1 SWAP3 AND SWAP2 PUSH4 0x333F6111 SWAP2 PUSH2 0x1D25 SWAP2 DUP9 SWAP2 DUP9 SWAP2 DUP9 SWAP2 SWAP1 PUSH1 0x44 ADD PUSH2 0x3B48 JUMP JUMPDEST PUSH1 0x20 PUSH1 0x40 MLOAD DUP1 DUP4 SUB DUP2 PUSH1 0x0 DUP8 GAS CALL ISZERO DUP1 ISZERO PUSH2 0x1D44 JUMPI RETURNDATASIZE PUSH1 0x0 DUP1 RETURNDATACOPY RETURNDATASIZE PUSH1 0x0 REVERT JUMPDEST POP POP POP POP PUSH1 0x40 MLOAD RETURNDATASIZE PUSH1 0x1F NOT PUSH1 0x1F DUP3 ADD AND DUP3 ADD DUP1 PUSH1 0x40 MSTORE POP DUP2 ADD SWAP1 PUSH2 0x1D68 SWAP2 SWAP1 PUSH2 0x3C29 JUMP JUMPDEST PUSH2 0x1D84 JUMPI PUSH1 0x40 MLOAD PUSH3 0x461BCD PUSH1 0xE5 SHL DUP2 MSTORE PUSH1 0x4 ADD PUSH2 0x683 SWAP1 PUSH2 0x3C4B JUMP JUMPDEST PUSH1 0x40 DUP1 MLOAD PUSH1 0x20 DUP2 ADD DUP4 SWAP1 MSTORE ADD PUSH1 0x40 MLOAD PUSH1 0x20 DUP2 DUP4 SUB SUB DUP2 MSTORE SWAP1 PUSH1 0x40 MSTORE DUP1 MLOAD SWAP1 PUSH1 0x20 ADD KECCAK256 PUSH1 0x6 SLOAD EQ PUSH2 0x1DF6 JUMPI PUSH1 0x40 MLOAD PUSH3 0x461BCD PUSH1 0xE5 SHL DUP2 MSTORE PUSH1 0x20 PUSH1 0x4 DUP3 ADD MSTORE PUSH1 0x1C PUSH1 0x24 DUP3 ADD MSTORE PUSH32 0x4D69736D617463686564206D696E53656C665374616B65206861736800000000 PUSH1 0x44 DUP3 ADD MSTORE PUSH1 0x64 ADD PUSH2 0x683 JUMP JUMPDEST PUSH10 0x152D02C7E14AF6800000 DUP2 LT ISZERO DUP1 ISZERO PUSH2 0x1E1B JUMPI POP PUSH11 0x84595161401484A000000 DUP2 GT ISZERO JUMPDEST PUSH2 0x1E37 JUMPI PUSH1 0x40 MLOAD PUSH3 0x461BCD PUSH1 0xE5 SHL DUP2 MSTORE PUSH1 0x4 ADD PUSH2 0x683 SWAP1 PUSH2 0x3C8F JUMP JUMPDEST PUSH1 0x8 SLOAD PUSH1 0x40 MLOAD PUSH4 0x866C4B17 PUSH1 0xE0 SHL DUP2 MSTORE PUSH1 0x4 DUP2 ADD DUP4 SWAP1 MSTORE PUSH1 0x1 PUSH1 0x1 PUSH1 0xA0 SHL SUB SWAP1 SWAP2 AND SWAP1 PUSH4 0x866C4B17 SWAP1 PUSH1 0x24 ADD PUSH1 0x0 PUSH1 0x40 MLOAD DUP1 DUP4 SUB DUP2 PUSH1 0x0 DUP8 DUP1 EXTCODESIZE ISZERO DUP1 ISZERO PUSH2 0x1E7D JUMPI PUSH1 0x0 DUP1 REVERT JUMPDEST POP GAS CALL ISZERO DUP1 ISZERO PUSH2 0x1E91 JUMPI RETURNDATASIZE PUSH1 0x0 DUP1 RETURNDATACOPY RETURNDATASIZE PUSH1 0x0 REVERT JUMPDEST POP POP PUSH1 0x0 PUSH1 0x6 SSTORE POP POP POP POP POP POP JUMP JUMPDEST DUP4 DUP3 DUP5 DUP4 PUSH1 0x40 MLOAD PUSH1 0x20 ADD PUSH2 0x1EB6 SWAP2 DUP2 MSTORE PUSH1 0x20 ADD SWAP1 JUMP JUMPDEST PUSH1 0x40 DUP1 MLOAD PUSH1 0x1F NOT DUP2 DUP5 SUB ADD DUP2 MSTORE SWAP2 SWAP1 MSTORE PUSH1 0x0 SLOAD PUSH1 0xFF AND PUSH2 0x1EE8 JUMPI PUSH1 0x40 MLOAD PUSH3 0x461BCD PUSH1 0xE5 SHL DUP2 MSTORE PUSH1 0x4 ADD PUSH2 0x683 SWAP1 PUSH2 0x3D07 JUMP JUMPDEST PUSH1 0x0 DUP5 PUSH1 0x40 MLOAD PUSH1 0x20 ADD PUSH2 0x1EFB SWAP2 SWAP1 PUSH2 0x3D3E JUMP JUMPDEST PUSH1 0x40 DUP1 MLOAD PUSH1 0x1F NOT DUP2 DUP5 SUB ADD DUP2 MSTORE SWAP2 SWAP1 MSTORE DUP1 MLOAD PUSH1 0x20 SWAP1 SWAP2 ADD KECCAK256 SWAP1 POP PUSH1 0x0 DUP1 DUP3 DUP2 MSTORE PUSH1 0x2 PUSH1 0x20 DUP2 SWAP1 MSTORE PUSH1 0x40 SWAP1 SWAP2 KECCAK256 SLOAD PUSH1 0xFF AND SWAP1 DUP2 GT ISZERO PUSH2 0x1F3B JUMPI PUSH2 0x1F3B PUSH2 0x3674 JUMP JUMPDEST EQ PUSH2 0x1F58 JUMPI PUSH1 0x40 MLOAD PUSH3 0x461BCD PUSH1 0xE5 SHL DUP2 MSTORE PUSH1 0x4 ADD PUSH2 0x683 SWAP1 PUSH2 0x3D97 JUMP JUMPDEST PUSH1 0x0 DUP3 DUP5 PUSH1 0x40 MLOAD PUSH1 0x20 ADD PUSH2 0x1F6D SWAP3 SWAP2 SWAP1 PUSH2 0x3D75 JUMP JUMPDEST PUSH1 0x40 DUP1 MLOAD PUSH1 0x1F NOT DUP2 DUP5 SUB ADD DUP2 MSTORE SWAP1 DUP3 SWAP1 MSTORE DUP1 MLOAD PUSH1 0x20 SWAP2 DUP3 ADD KECCAK256 DUP1 DUP4 MSTORE SWAP3 POP PUSH1 0x0 DUP1 MLOAD PUSH1 0x20 PUSH2 0x3E9A DUP4 CODECOPY DUP2 MLOAD SWAP2 MSTORE SWAP2 ADD PUSH1 0x40 MLOAD DUP1 SWAP2 SUB SWAP1 LOG1 PUSH1 0x0 PUSH2 0x1FB1 DUP3 DUP8 DUP10 PUSH2 0x2201 JUMP JUMPDEST PUSH1 0x0 DUP1 SLOAD PUSH2 0xFF00 NOT AND PUSH2 0x100 DUP4 ISZERO ISZERO MUL OR SWAP1 SSTORE SWAP1 POP DUP1 PUSH2 0x1FE9 JUMPI PUSH1 0x40 MLOAD DUP3 DUP2 MSTORE PUSH1 0x0 DUP1 MLOAD PUSH1 0x20 PUSH2 0x3E7A DUP4 CODECOPY DUP2 MLOAD SWAP2 MSTORE SWAP1 PUSH1 0x20 ADD PUSH2 0x1263 JUMP JUMPDEST PUSH1 0x0 DUP4 DUP2 MSTORE PUSH1 0x2 PUSH1 0x20 MSTORE PUSH1 0x40 SWAP1 DUP2 SWAP1 KECCAK256 SLOAD SWAP1 MLOAD PUSH1 0x0 DUP1 MLOAD PUSH1 0x20 PUSH2 0x3EBA DUP4 CODECOPY DUP2 MLOAD SWAP2 MSTORE SWAP2 PUSH2 0x201F SWAP2 PUSH1 0xFF SWAP1 SWAP2 AND SWAP1 DUP7 SWAP1 DUP10 SWAP1 PUSH2 0x36AC JUMP JUMPDEST PUSH1 0x40 MLOAD DUP1 SWAP2 SUB SWAP1 LOG1 PUSH2 0x2031 DUP4 DUP7 PUSH2 0x34B9 JUMP JUMPDEST PUSH2 0x203C PUSH1 0x1 DUP10 PUSH2 0x33A0 JUMP JUMPDEST POP POP POP POP POP POP POP POP POP POP POP JUMP JUMPDEST PUSH1 0x9 SLOAD PUSH1 0x40 DUP1 MLOAD PUSH1 0x20 DUP1 DUP3 ADD DUP6 SWAP1 MSTORE DUP3 MLOAD DUP1 DUP4 SUB SWAP1 SWAP2 ADD DUP2 MSTORE DUP2 DUP4 ADD SWAP3 DUP4 SWAP1 MSTORE PUSH4 0x333F6111 PUSH1 0xE0 SHL SWAP1 SWAP3 MSTORE PUSH1 0x1 PUSH1 0x1 PUSH1 0xA0 SHL SUB SWAP1 SWAP3 AND SWAP2 PUSH4 0x333F6111 SWAP2 PUSH2 0x2099 SWAP2 DUP9 SWAP2 DUP9 SWAP2 DUP9 SWAP2 SWAP1 PUSH1 0x44 ADD PUSH2 0x3B48 JUMP JUMPDEST PUSH1 0x20 PUSH1 0x40 MLOAD DUP1 DUP4 SUB DUP2 PUSH1 0x0 DUP8 GAS CALL ISZERO DUP1 ISZERO PUSH2 0x20B8 JUMPI RETURNDATASIZE PUSH1 0x0 DUP1 RETURNDATACOPY RETURNDATASIZE PUSH1 0x0 REVERT JUMPDEST POP POP POP POP PUSH1 0x40 MLOAD RETURNDATASIZE PUSH1 0x1F NOT PUSH1 0x1F DUP3 ADD AND DUP3 ADD DUP1 PUSH1 0x40 MSTORE POP DUP2 ADD SWAP1 PUSH2 0x20DC SWAP2 SWAP1 PUSH2 0x3C29 JUMP JUMPDEST PUSH2 0x20F8 JUMPI PUSH1 0x40 MLOAD PUSH3 0x461BCD PUSH1 0xE5 SHL DUP2 MSTORE PUSH1 0x4 ADD PUSH2 0x683 SWAP1 PUSH2 0x3C4B JUMP JUMPDEST PUSH1 0x40 DUP1 MLOAD PUSH1 0x20 DUP2 ADD DUP4 SWAP1 MSTORE ADD PUSH1 0x40 DUP1 MLOAD PUSH1 0x1F NOT DUP2 DUP5 SUB ADD DUP2 MSTORE SWAP2 SWAP1 MSTORE DUP1 MLOAD PUSH1 0x20 SWAP1 SWAP2 ADD KECCAK256 PUSH1 0x6 SSTORE POP POP POP POP JUMP JUMPDEST PUSH1 0x9 SLOAD PUSH1 0x40 DUP1 MLOAD PUSH1 0x20 DUP1 DUP3 ADD DUP6 SWAP1 MSTORE DUP3 MLOAD DUP1 DUP4 SUB SWAP1 SWAP2 ADD DUP2 MSTORE DUP2 DUP4 ADD SWAP3 DUP4 SWAP1 MSTORE PUSH4 0x333F6111 PUSH1 0xE0 SHL SWAP1 SWAP3 MSTORE PUSH1 0x1 PUSH1 0x1 PUSH1 0xA0 SHL SUB SWAP1 SWAP3 AND SWAP2 PUSH4 0x333F6111 SWAP2 PUSH2 0x2175 SWAP2 DUP9 SWAP2 DUP9 SWAP2 DUP9 SWAP2 SWAP1 PUSH1 0x44 ADD PUSH2 0x3B48 JUMP JUMPDEST PUSH1 0x20 PUSH1 0x40 MLOAD DUP1 DUP4 SUB DUP2 PUSH1 0x0 DUP8 GAS CALL ISZERO DUP1 ISZERO PUSH2 0x2194 JUMPI RETURNDATASIZE PUSH1 0x0 DUP1 RETURNDATACOPY RETURNDATASIZE PUSH1 0x0 REVERT JUMPDEST POP POP POP POP PUSH1 0x40 MLOAD RETURNDATASIZE PUSH1 0x1F NOT PUSH1 0x1F DUP3 ADD AND DUP3 ADD DUP1 PUSH1 0x40 MSTORE POP DUP2 ADD SWAP1 PUSH2 0x21B8 SWAP2 SWAP1 PUSH2 0x3C29 JUMP JUMPDEST PUSH2 0x21D4 JUMPI PUSH1 0x40 MLOAD PUSH3 0x461BCD PUSH1 0xE5 SHL DUP2 MSTORE PUSH1 0x4 ADD PUSH2 0x683 SWAP1 PUSH2 0x3C4B JUMP JUMPDEST PUSH1 0x40 DUP1 MLOAD PUSH1 0x20 DUP2 ADD DUP4 SWAP1 MSTORE ADD PUSH1 0x40 DUP1 MLOAD PUSH1 0x1F NOT DUP2 DUP5 SUB ADD DUP2 MSTORE SWAP2 SWAP1 MSTORE DUP1 MLOAD PUSH1 0x20 SWAP1 SWAP2 ADD KECCAK256 PUSH1 0x10 SSTORE POP POP POP POP JUMP JUMPDEST PUSH1 0x0 DUP1 JUMPDEST PUSH2 0x100 DUP2 LT ISZERO PUSH2 0x22A9 JUMPI DUP4 DUP2 PUSH2 0x100 DUP2 LT PUSH2 0x2222 JUMPI PUSH2 0x2222 PUSH2 0x3A8A JUMP JUMPDEST PUSH1 0x20 MUL DUP2 ADD SWAP1 PUSH2 0x2232 SWAP2 SWAP1 PUSH2 0x3DCE JUMP JUMPDEST PUSH1 0x40 MLOAD PUSH2 0x2240 SWAP3 SWAP2 SWAP1 PUSH2 0x3E1C JUMP JUMPDEST PUSH1 0x40 MLOAD DUP1 SWAP2 SUB SWAP1 KECCAK256 DUP4 DUP3 PUSH2 0x100 DUP2 LT PUSH2 0x225B JUMPI PUSH2 0x225B PUSH2 0x3A8A JUMP JUMPDEST PUSH1 0x40 MUL ADD PUSH1 0x0 DUP4 PUSH1 0xFF SUB PUSH1 0x1 SWAP1 SHL DUP9 AND GT PUSH2 0x2277 JUMPI PUSH1 0x0 PUSH2 0x227A JUMP JUMPDEST PUSH1 0x1 JUMPDEST PUSH1 0xFF AND PUSH1 0x2 DUP2 LT PUSH2 0x228D JUMPI PUSH2 0x228D PUSH2 0x3A8A JUMP JUMPDEST PUSH1 0x20 MUL ADD CALLDATALOAD EQ PUSH2 0x22A1 JUMPI PUSH1 0x0 SWAP2 POP POP PUSH2 0x22AF JUMP JUMPDEST PUSH1 0x1 ADD PUSH2 0x2205 JUMP JUMPDEST POP PUSH1 0x1 SWAP1 POP JUMPDEST SWAP4 SWAP3 POP POP POP JUMP JUMPDEST PUSH1 0x9 SLOAD PUSH1 0x40 DUP1 MLOAD PUSH1 0x20 DUP1 DUP3 ADD DUP6 SWAP1 MSTORE DUP3 MLOAD DUP1 DUP4 SUB SWAP1 SWAP2 ADD DUP2 MSTORE DUP2 DUP4 ADD SWAP3 DUP4 SWAP1 MSTORE PUSH4 0x333F6111 PUSH1 0xE0 SHL SWAP1 SWAP3 MSTORE PUSH1 0x1 PUSH1 0x1 PUSH1 0xA0 SHL SUB SWAP1 SWAP3 AND SWAP2 PUSH4 0x333F6111 SWAP2 PUSH2 0x2306 SWAP2 DUP9 SWAP2 DUP9 SWAP2 DUP9 SWAP2 SWAP1 PUSH1 0x44 ADD PUSH2 0x3B48 JUMP JUMPDEST PUSH1 0x20 PUSH1 0x40 MLOAD DUP1 DUP4 SUB DUP2 PUSH1 0x0 DUP8 GAS CALL ISZERO DUP1 ISZERO PUSH2 0x2325 JUMPI RETURNDATASIZE PUSH1 0x0 DUP1 RETURNDATACOPY RETURNDATASIZE PUSH1 0x0 REVERT JUMPDEST POP POP POP POP PUSH1 0x40 MLOAD RETURNDATASIZE PUSH1 0x1F NOT PUSH1 0x1F DUP3 ADD AND DUP3 ADD DUP1 PUSH1 0x40 MSTORE POP DUP2 ADD SWAP1 PUSH2 0x2349 SWAP2 SWAP1 PUSH2 0x3C29 JUMP JUMPDEST PUSH2 0x2365 JUMPI PUSH1 0x40 MLOAD PUSH3 0x461BCD PUSH1 0xE5 SHL DUP2 MSTORE PUSH1 0x4 ADD PUSH2 0x683 SWAP1 PUSH2 0x3C4B JUMP JUMPDEST PUSH1 0x40 DUP1 MLOAD PUSH1 0x20 DUP2 ADD DUP4 SWAP1 MSTORE ADD PUSH1 0x40 DUP1 MLOAD PUSH1 0x1F NOT DUP2 DUP5 SUB ADD DUP2 MSTORE SWAP2 SWAP1 MSTORE DUP1 MLOAD PUSH1 0x20 SWAP1 SWAP2 ADD KECCAK256 PUSH1 0xD SSTORE POP POP POP POP JUMP JUMPDEST PUSH1 0x1 SLOAD PUSH1 0x60 SWAP1 PUSH1 0x0 SWAP1 PUSH8 0xFFFFFFFFFFFFFFFF DUP2 GT ISZERO PUSH2 0x23B3 JUMPI PUSH2 0x23B3 PUSH2 0x379F JUMP JUMPDEST PUSH1 0x40 MLOAD SWAP1 DUP1 DUP3 MSTORE DUP1 PUSH1 0x20 MUL PUSH1 0x20 ADD DUP3 ADD PUSH1 0x40 MSTORE DUP1 ISZERO PUSH2 0x23DC JUMPI DUP2 PUSH1 0x20 ADD PUSH1 0x20 DUP3 MUL DUP1 CALLDATASIZE DUP4 CALLDATACOPY ADD SWAP1 POP JUMPDEST POP SWAP1 POP PUSH1 0x0 DUP1 JUMPDEST PUSH1 0x1 SLOAD DUP2 LT ISZERO PUSH2 0x249D JUMPI DUP5 PUSH1 0x2 DUP2 GT ISZERO PUSH2 0x23FF JUMPI PUSH2 0x23FF PUSH2 0x3674 JUMP JUMPDEST PUSH1 0x1 DUP3 DUP2 SLOAD DUP2 LT PUSH2 0x2412 JUMPI PUSH2 0x2412 PUSH2 0x3A8A JUMP JUMPDEST PUSH1 0x0 SWAP2 DUP3 MSTORE PUSH1 0x20 SWAP1 SWAP2 KECCAK256 PUSH1 0x2 SWAP2 DUP3 MUL ADD SLOAD PUSH1 0xFF AND SWAP1 DUP2 GT ISZERO PUSH2 0x2436 JUMPI PUSH2 0x2436 PUSH2 0x3674 JUMP JUMPDEST SUB PUSH2 0x248B JUMPI PUSH1 0x1 DUP2 DUP2 SLOAD DUP2 LT PUSH2 0x244E JUMPI PUSH2 0x244E PUSH2 0x3A8A JUMP JUMPDEST SWAP1 PUSH1 0x0 MSTORE PUSH1 0x20 PUSH1 0x0 KECCAK256 SWAP1 PUSH1 0x2 MUL ADD PUSH1 0x1 ADD SLOAD DUP4 DUP4 DUP2 MLOAD DUP2 LT PUSH2 0x2472 JUMPI PUSH2 0x2472 PUSH2 0x3A8A JUMP JUMPDEST PUSH1 0x20 SWAP1 DUP2 MUL SWAP2 SWAP1 SWAP2 ADD ADD MSTORE DUP2 PUSH2 0x2487 DUP2 PUSH2 0x3AB6 JUMP JUMPDEST SWAP3 POP POP JUMPDEST DUP1 PUSH2 0x2495 DUP2 PUSH2 0x3AB6 JUMP JUMPDEST SWAP2 POP POP PUSH2 0x23E3 JUMP JUMPDEST POP PUSH1 0x0 DUP2 PUSH8 0xFFFFFFFFFFFFFFFF DUP2 GT ISZERO PUSH2 0x24B9 JUMPI PUSH2 0x24B9 PUSH2 0x379F JUMP JUMPDEST PUSH1 0x40 MLOAD SWAP1 DUP1 DUP3 MSTORE DUP1 PUSH1 0x20 MUL PUSH1 0x20 ADD DUP3 ADD PUSH1 0x40 MSTORE DUP1 ISZERO PUSH2 0x24E2 JUMPI DUP2 PUSH1 0x20 ADD PUSH1 0x20 DUP3 MUL DUP1 CALLDATASIZE DUP4 CALLDATACOPY ADD SWAP1 POP JUMPDEST POP SWAP1 POP PUSH1 0x0 JUMPDEST DUP3 DUP2 LT ISZERO PUSH2 0x2539 JUMPI DUP4 DUP2 DUP2 MLOAD DUP2 LT PUSH2 0x2502 JUMPI PUSH2 0x2502 PUSH2 0x3A8A JUMP JUMPDEST PUSH1 0x20 MUL PUSH1 0x20 ADD ADD MLOAD DUP3 DUP3 DUP2 MLOAD DUP2 LT PUSH2 0x251C JUMPI PUSH2 0x251C PUSH2 0x3A8A JUMP JUMPDEST PUSH1 0x20 SWAP1 DUP2 MUL SWAP2 SWAP1 SWAP2 ADD ADD MSTORE DUP1 PUSH2 0x2531 DUP2 PUSH2 0x3AB6 JUMP JUMPDEST SWAP2 POP POP PUSH2 0x24E8 JUMP JUMPDEST POP SWAP5 SWAP4 POP POP POP POP JUMP JUMPDEST PUSH1 0x9 SLOAD PUSH1 0x40 DUP1 MLOAD PUSH1 0x60 DUP5 SWAP1 SHL PUSH12 0xFFFFFFFFFFFFFFFFFFFFFFFF NOT AND PUSH1 0x20 DUP3 ADD MSTORE DUP2 MLOAD PUSH1 0x14 DUP2 DUP4 SUB ADD DUP2 MSTORE PUSH1 0x34 DUP3 ADD SWAP3 DUP4 SWAP1 MSTORE PUSH4 0x333F6111 PUSH1 0xE0 SHL SWAP1 SWAP3 MSTORE PUSH1 0x1 PUSH1 0x1 PUSH1 0xA0 SHL SUB SWAP1 SWAP3 AND SWAP2 PUSH4 0x333F6111 SWAP2 PUSH2 0x25A4 SWAP2 DUP9 SWAP2 DUP9 SWAP2 DUP9 SWAP2 SWAP1 PUSH1 0x38 ADD PUSH2 0x3B48 JUMP JUMPDEST PUSH1 0x20 PUSH1 0x40 MLOAD DUP1 DUP4 SUB DUP2 PUSH1 0x0 DUP8 GAS CALL ISZERO DUP1 ISZERO PUSH2 0x25C3 JUMPI RETURNDATASIZE PUSH1 0x0 DUP1 RETURNDATACOPY RETURNDATASIZE PUSH1 0x0 REVERT JUMPDEST POP POP POP POP PUSH1 0x40 MLOAD RETURNDATASIZE PUSH1 0x1F NOT PUSH1 0x1F DUP3 ADD AND DUP3 ADD DUP1 PUSH1 0x40 MSTORE POP DUP2 ADD SWAP1 PUSH2 0x25E7 SWAP2 SWAP1 PUSH2 0x3C29 JUMP JUMPDEST PUSH2 0x2603 JUMPI PUSH1 0x40 MLOAD PUSH3 0x461BCD PUSH1 0xE5 SHL DUP2 MSTORE PUSH1 0x4 ADD PUSH2 0x683 SWAP1 PUSH2 0x3C4B JUMP JUMPDEST PUSH1 0x18 SLOAD PUSH1 0x1 PUSH1 0x1 PUSH1 0xA0 SHL SUB DUP3 DUP2 AND SWAP2 AND EQ PUSH2 0x267F JUMPI PUSH1 0x40 MLOAD PUSH3 0x461BCD PUSH1 0xE5 SHL DUP2 MSTORE PUSH1 0x20 PUSH1 0x4 DUP3 ADD MSTORE PUSH1 0x36 PUSH1 0x24 DUP3 ADD MSTORE PUSH32 0x4D69736D6174636865642053464374436F6E7374732061646472657373206265 PUSH1 0x44 DUP3 ADD MSTORE PUSH22 0x747765656E2073746570206F6E6520616E642074776F PUSH1 0x50 SHL PUSH1 0x64 DUP3 ADD MSTORE PUSH1 0x84 ADD PUSH2 0x683 JUMP JUMPDEST PUSH1 0x8 DUP1 SLOAD PUSH1 0x1 PUSH1 0x1 PUSH1 0xA0 SHL SUB DUP4 AND PUSH1 0x1 PUSH1 0x1 PUSH1 0xA0 SHL SUB NOT SWAP2 DUP3 AND DUP2 OR SWAP1 SWAP3 SSTORE PUSH1 0x18 DUP1 SLOAD SWAP1 SWAP2 AND SWAP1 SSTORE PUSH1 0x40 MLOAD SWAP1 DUP2 MSTORE PUSH32 0x957E48247BE9CAB238CB9C65E20ABA596EDD67A08270B642A2EB5B776A34ECC2 SWAP1 PUSH1 0x20 ADD PUSH1 0x40 MLOAD DUP1 SWAP2 SUB SWAP1 LOG1 POP POP POP POP JUMP JUMPDEST PUSH1 0x9 SLOAD PUSH1 0x40 DUP1 MLOAD PUSH1 0x60 DUP5 SWAP1 SHL PUSH12 0xFFFFFFFFFFFFFFFFFFFFFFFF NOT AND PUSH1 0x20 DUP3 ADD MSTORE DUP2 MLOAD PUSH1 0x14 DUP2 DUP4 SUB ADD DUP2 MSTORE PUSH1 0x34 DUP3 ADD SWAP3 DUP4 SWAP1 MSTORE PUSH4 0x333F6111 PUSH1 0xE0 SHL SWAP1 SWAP3 MSTORE PUSH1 0x1 PUSH1 0x1 PUSH1 0xA0 SHL SUB SWAP1 SWAP3 AND SWAP2 PUSH4 0x333F6111 SWAP2 PUSH2 0x2742 SWAP2 DUP9 SWAP2 DUP9 SWAP2 DUP9 SWAP2 SWAP1 PUSH1 0x38 ADD PUSH2 0x3B48 JUMP JUMPDEST PUSH1 0x20 PUSH1 0x40 MLOAD DUP1 DUP4 SUB DUP2 PUSH1 0x0 DUP8 GAS CALL ISZERO DUP1 ISZERO PUSH2 0x2761 JUMPI RETURNDATASIZE PUSH1 0x0 DUP1 RETURNDATACOPY RETURNDATASIZE PUSH1 0x0 REVERT JUMPDEST POP POP POP POP PUSH1 0x40 MLOAD RETURNDATASIZE PUSH1 0x1F NOT PUSH1 0x1F DUP3 ADD AND DUP3 ADD DUP1 PUSH1 0x40 MSTORE POP DUP2 ADD SWAP1 PUSH2 0x2785 SWAP2 SWAP1 PUSH2 0x3C29 JUMP JUMPDEST PUSH2 0x27A1 JUMPI PUSH1 0x40 MLOAD PUSH3 0x461BCD PUSH1 0xE5 SHL DUP2 MSTORE PUSH1 0x4 ADD PUSH2 0x683 SWAP1 PUSH2 0x3C4B JUMP JUMPDEST PUSH1 0x18 DUP1 SLOAD PUSH1 0x1 PUSH1 0x1 PUSH1 0xA0 SHL SUB NOT AND PUSH1 0x1 PUSH1 0x1 PUSH1 0xA0 SHL SUB SWAP3 SWAP1 SWAP3 AND SWAP2 SWAP1 SWAP2 OR SWAP1 SSTORE POP POP POP JUMP JUMPDEST PUSH1 0x9 SLOAD PUSH1 0x40 DUP1 MLOAD PUSH1 0x20 DUP1 DUP3 ADD DUP6 SWAP1 MSTORE DUP3 MLOAD DUP1 DUP4 SUB SWAP1 SWAP2 ADD DUP2 MSTORE DUP2 DUP4 ADD SWAP3 DUP4 SWAP1 MSTORE PUSH4 0x333F6111 PUSH1 0xE0 SHL SWAP1 SWAP3 MSTORE PUSH1 0x1 PUSH1 0x1 PUSH1 0xA0 SHL SUB SWAP1 SWAP3 AND SWAP2 PUSH4 0x333F6111 SWAP2 PUSH2 0x2816 SWAP2 DUP9 SWAP2 DUP9 SWAP2 DUP9 SWAP2 SWAP1 PUSH1 0x44 ADD PUSH2 0x3B48 JUMP JUMPDEST PUSH1 0x20 PUSH1 0x40 MLOAD DUP1 DUP4 SUB DUP2 PUSH1 0x0 DUP8 GAS CALL ISZERO DUP1 ISZERO PUSH2 0x2835 JUMPI RETURNDATASIZE PUSH1 0x0 DUP1 RETURNDATACOPY RETURNDATASIZE PUSH1 0x0 REVERT JUMPDEST POP POP POP POP PUSH1 0x40 MLOAD RETURNDATASIZE PUSH1 0x1F NOT PUSH1 0x1F DUP3 ADD AND DUP3 ADD DUP1 PUSH1 0x40 MSTORE POP DUP2 ADD SWAP1 PUSH2 0x2859 SWAP2 SWAP1 PUSH2 0x3C29 JUMP JUMPDEST PUSH2 0x2875 JUMPI PUSH1 0x40 MLOAD PUSH3 0x461BCD PUSH1 0xE5 SHL DUP2 MSTORE PUSH1 0x4 ADD PUSH2 0x683 SWAP1 PUSH2 0x3C4B JUMP JUMPDEST PUSH1 0x40 DUP1 MLOAD PUSH1 0x20 DUP2 ADD DUP4 SWAP1 MSTORE ADD PUSH1 0x40 DUP1 MLOAD PUSH1 0x1F NOT DUP2 DUP5 SUB ADD DUP2 MSTORE SWAP2 SWAP1 MSTORE DUP1 MLOAD PUSH1 0x20 SWAP1 SWAP2 ADD KECCAK256 PUSH1 0x7 SSTORE POP POP POP POP JUMP JUMPDEST PUSH1 0x8 SLOAD PUSH1 0x40 DUP1 MLOAD PUSH4 0x1A8DF4A3 PUSH1 0xE3 SHL DUP2 MSTORE SWAP1 MLOAD PUSH1 0x0 SWAP3 PUSH1 0x1 PUSH1 0x1 PUSH1 0xA0 SHL SUB AND SWAP2 PUSH4 0xD46FA518 SWAP2 PUSH1 0x4 DUP1 DUP4 ADD SWAP3 PUSH1 0x20 SWAP3 SWAP2 SWAP1 DUP3 SWAP1 SUB ADD DUP2 DUP7 GAS STATICCALL ISZERO DUP1 ISZERO PUSH2 0x28EC JUMPI RETURNDATASIZE PUSH1 0x0 DUP1 RETURNDATACOPY RETURNDATASIZE PUSH1 0x0 REVERT JUMPDEST POP POP POP POP PUSH1 0x40 MLOAD RETURNDATASIZE PUSH1 0x1F NOT PUSH1 0x1F DUP3 ADD AND DUP3 ADD DUP1 PUSH1 0x40 MSTORE POP DUP2 ADD SWAP1 PUSH2 0x2910 SWAP2 SWAP1 PUSH2 0x3E2C JUMP JUMPDEST SWAP1 POP SWAP1 JUMP JUMPDEST DUP4 DUP4 DUP4 DUP4 PUSH1 0x40 MLOAD PUSH1 0x20 ADD PUSH2 0x292B SWAP2 DUP2 MSTORE PUSH1 0x20 ADD SWAP1 JUMP JUMPDEST PUSH1 0x40 DUP1 MLOAD PUSH1 0x1F NOT DUP2 DUP5 SUB ADD DUP2 MSTORE SWAP2 SWAP1 MSTORE PUSH1 0x0 SLOAD PUSH1 0xFF AND PUSH2 0x295D JUMPI PUSH1 0x40 MLOAD PUSH3 0x461BCD PUSH1 0xE5 SHL DUP2 MSTORE PUSH1 0x4 ADD PUSH2 0x683 SWAP1 PUSH2 0x3D07 JUMP JUMPDEST PUSH1 0x0 DUP5 PUSH1 0x40 MLOAD PUSH1 0x20 ADD PUSH2 0x2970 SWAP2 SWAP1 PUSH2 0x3D3E JUMP JUMPDEST PUSH1 0x40 DUP1 MLOAD PUSH1 0x1F NOT DUP2 DUP5 SUB ADD DUP2 MSTORE SWAP2 SWAP1 MSTORE DUP1 MLOAD PUSH1 0x20 SWAP1 SWAP2 ADD KECCAK256 SWAP1 POP PUSH1 0x0 DUP1 DUP3 DUP2 MSTORE PUSH1 0x2 PUSH1 0x20 DUP2 SWAP1 MSTORE PUSH1 0x40 SWAP1 SWAP2 KECCAK256 SLOAD PUSH1 0xFF AND SWAP1 DUP2 GT ISZERO PUSH2 0x29B0 JUMPI PUSH2 0x29B0 PUSH2 0x3674 JUMP JUMPDEST EQ PUSH2 0x29CD JUMPI PUSH1 0x40 MLOAD PUSH3 0x461BCD PUSH1 0xE5 SHL DUP2 MSTORE PUSH1 0x4 ADD PUSH2 0x683 SWAP1 PUSH2 0x3D97 JUMP JUMPDEST PUSH1 0x0 DUP3 DUP5 PUSH1 0x40 MLOAD PUSH1 0x20 ADD PUSH2 0x29E2 SWAP3 SWAP2 SWAP1 PUSH2 0x3D75 JUMP JUMPDEST PUSH1 0x40 DUP1 MLOAD PUSH1 0x1F NOT DUP2 DUP5 SUB ADD DUP2 MSTORE SWAP1 DUP3 SWAP1 MSTORE DUP1 MLOAD PUSH1 0x20 SWAP2 DUP3 ADD KECCAK256 DUP1 DUP4 MSTORE SWAP3 POP PUSH1 0x0 DUP1 MLOAD PUSH1 0x20 PUSH2 0x3E9A DUP4 CODECOPY DUP2 MLOAD SWAP2 MSTORE SWAP2 ADD PUSH1 0x40 MLOAD DUP1 SWAP2 SUB SWAP1 LOG1 PUSH1 0x0 PUSH2 0x2A26 DUP3 DUP8 DUP10 PUSH2 0x2201 JUMP JUMPDEST PUSH1 0x0 DUP1 SLOAD PUSH2 0xFF00 NOT AND PUSH2 0x100 DUP4 ISZERO ISZERO MUL OR SWAP1 SSTORE SWAP1 POP DUP1 PUSH2 0x2A5E JUMPI PUSH1 0x40 MLOAD DUP3 DUP2 MSTORE PUSH1 0x0 DUP1 MLOAD PUSH1 0x20 PUSH2 0x3E7A DUP4 CODECOPY DUP2 MLOAD SWAP2 MSTORE SWAP1 PUSH1 0x20 ADD PUSH2 0x1263 JUMP JUMPDEST PUSH1 0x0 DUP4 DUP2 MSTORE PUSH1 0x2 PUSH1 0x20 MSTORE PUSH1 0x40 SWAP1 DUP2 SWAP1 KECCAK256 SLOAD SWAP1 MLOAD PUSH1 0x0 DUP1 MLOAD PUSH1 0x20 PUSH2 0x3EBA DUP4 CODECOPY DUP2 MLOAD SWAP2 MSTORE SWAP2 PUSH2 0x2A94 SWAP2 PUSH1 0xFF SWAP1 SWAP2 AND SWAP1 DUP7 SWAP1 DUP10 SWAP1 PUSH2 0x36AC JUMP JUMPDEST PUSH1 0x40 MLOAD DUP1 SWAP2 SUB SWAP1 LOG1 PUSH2 0x2AA6 DUP4 DUP7 PUSH2 0x34B9 JUMP JUMPDEST POP POP POP PUSH1 0x3 SWAP5 SWAP1 SWAP5 SSTORE POP POP POP PUSH1 0x4 SWAP2 SWAP1 SWAP2 SSTORE POP POP POP JUMP JUMPDEST PUSH1 0x9 SLOAD PUSH1 0x40 DUP1 MLOAD PUSH1 0x20 DUP1 DUP3 ADD DUP6 SWAP1 MSTORE DUP3 MLOAD DUP1 DUP4 SUB SWAP1 SWAP2 ADD DUP2 MSTORE DUP2 DUP4 ADD SWAP3 DUP4 SWAP1 MSTORE PUSH4 0x333F6111 PUSH1 0xE0 SHL SWAP1 SWAP3 MSTORE PUSH1 0x1 PUSH1 0x1 PUSH1 0xA0 SHL SUB SWAP1 SWAP3 AND SWAP2 PUSH4 0x333F6111 SWAP2 PUSH2 0x2B0D SWAP2 DUP9 SWAP2 DUP9 SWAP2 DUP9 SWAP2 SWAP1 PUSH1 0x44 ADD PUSH2 0x3B48 JUMP JUMPDEST PUSH1 0x20 PUSH1 0x40 MLOAD DUP1 DUP4 SUB DUP2 PUSH1 0x0 DUP8 GAS CALL ISZERO DUP1 ISZERO PUSH2 0x2B2C JUMPI RETURNDATASIZE PUSH1 0x0 DUP1 RETURNDATACOPY RETURNDATASIZE PUSH1 0x0 REVERT JUMPDEST POP POP POP POP PUSH1 0x40 MLOAD RETURNDATASIZE PUSH1 0x1F NOT PUSH1 0x1F DUP3 ADD AND DUP3 ADD DUP1 PUSH1 0x40 MSTORE POP DUP2 ADD SWAP1 PUSH2 0x2B50 SWAP2 SWAP1 PUSH2 0x3C29 JUMP JUMPDEST PUSH2 0x2B6C JUMPI PUSH1 0x40 MLOAD PUSH3 0x461BCD PUSH1 0xE5 SHL DUP2 MSTORE PUSH1 0x4 ADD PUSH2 0x683 SWAP1 PUSH2 0x3C4B JUMP JUMPDEST PUSH1 0x40 DUP1 MLOAD PUSH1 0x20 DUP2 ADD DUP4 SWAP1 MSTORE ADD PUSH1 0x40 MLOAD PUSH1 0x20 DUP2 DUP4 SUB SUB DUP2 MSTORE SWAP1 PUSH1 0x40 MSTORE DUP1 MLOAD SWAP1 PUSH1 0x20 ADD KECCAK256 PUSH1 0xC SLOAD EQ PUSH2 0x2BDE JUMPI PUSH1 0x40 MLOAD PUSH3 0x461BCD PUSH1 0xE5 SHL DUP2 MSTORE PUSH1 0x20 PUSH1 0x4 DUP3 ADD DUP2 SWAP1 MSTORE PUSH1 0x24 DUP3 ADD MSTORE PUSH32 0x4D69736D61746368656420747265617375727946656553686172652068617368 PUSH1 0x44 DUP3 ADD MSTORE PUSH1 0x64 ADD PUSH2 0x683 JUMP JUMPDEST PUSH2 0x2BF1 PUSH1 0x2 PUSH8 0xDE0B6B3A7640000 PUSH2 0x3CBC JUMP JUMPDEST DUP2 GT ISZERO PUSH2 0x2C10 JUMPI PUSH1 0x40 MLOAD PUSH3 0x461BCD PUSH1 0xE5 SHL DUP2 MSTORE PUSH1 0x4 ADD PUSH2 0x683 SWAP1 PUSH2 0x3CDE JUMP JUMPDEST PUSH1 0x8 SLOAD PUSH1 0x40 MLOAD PUSH4 0x7C6A8BBF PUSH1 0xE1 SHL DUP2 MSTORE PUSH1 0x4 DUP2 ADD DUP4 SWAP1 MSTORE PUSH1 0x1 PUSH1 0x1 PUSH1 0xA0 SHL SUB SWAP1 SWAP2 AND SWAP1 PUSH4 0xF8D5177E SWAP1 PUSH1 0x24 ADD PUSH1 0x0 PUSH1 0x40 MLOAD DUP1 DUP4 SUB DUP2 PUSH1 0x0 DUP8 DUP1 EXTCODESIZE ISZERO DUP1 ISZERO PUSH2 0x2C56 JUMPI PUSH1 0x0 DUP1 REVERT JUMPDEST POP GAS CALL ISZERO DUP1 ISZERO PUSH2 0x2C6A JUMPI RETURNDATASIZE PUSH1 0x0 DUP1 RETURNDATACOPY RETURNDATASIZE PUSH1 0x0 REVERT JUMPDEST POP POP PUSH1 0x0 PUSH1 0xC SSTORE POP POP POP POP POP POP JUMP JUMPDEST PUSH1 0x9 SLOAD PUSH1 0x40 DUP1 MLOAD PUSH1 0x20 DUP1 DUP3 ADD DUP6 SWAP1 MSTORE DUP3 MLOAD DUP1 DUP4 SUB SWAP1 SWAP2 ADD DUP2 MSTORE DUP2 DUP4 ADD SWAP3 DUP4 SWAP1 MSTORE PUSH4 0x333F6111 PUSH1 0xE0 SHL SWAP1 SWAP3 MSTORE PUSH1 0x1 PUSH1 0x1 PUSH1 0xA0 SHL SUB SWAP1 SWAP3 AND SWAP2 PUSH4 0x333F6111 SWAP2 PUSH2 0x2CC9 SWAP2 DUP9 SWAP2 DUP9 SWAP2 DUP9 SWAP2 SWAP1 PUSH1 0x44 ADD PUSH2 0x3B48 JUMP JUMPDEST PUSH1 0x20 PUSH1 0x40 MLOAD DUP1 DUP4 SUB DUP2 PUSH1 0x0 DUP8 GAS CALL ISZERO DUP1 ISZERO PUSH2 0x2CE8 JUMPI RETURNDATASIZE PUSH1 0x0 DUP1 RETURNDATACOPY RETURNDATASIZE PUSH1 0x0 REVERT JUMPDEST POP POP POP POP PUSH1 0x40 MLOAD RETURNDATASIZE PUSH1 0x1F NOT PUSH1 0x1F DUP3 ADD AND DUP3 ADD DUP1 PUSH1 0x40 MSTORE POP DUP2 ADD SWAP1 PUSH2 0x2D0C SWAP2 SWAP1 PUSH2 0x3C29 JUMP JUMPDEST PUSH2 0x2D28 JUMPI PUSH1 0x40 MLOAD PUSH3 0x461BCD PUSH1 0xE5 SHL DUP2 MSTORE PUSH1 0x4 ADD PUSH2 0x683 SWAP1 PUSH2 0x3C4B JUMP JUMPDEST PUSH1 0x40 DUP1 MLOAD PUSH1 0x20 DUP2 ADD DUP4 SWAP1 MSTORE ADD PUSH1 0x40 MLOAD PUSH1 0x20 DUP2 DUP4 SUB SUB DUP2 MSTORE SWAP1 PUSH1 0x40 MSTORE DUP1 MLOAD SWAP1 PUSH1 0x20 ADD KECCAK256 PUSH1 0xD SLOAD EQ PUSH2 0x2DA6 JUMPI PUSH1 0x40 MLOAD PUSH3 0x461BCD PUSH1 0xE5 SHL DUP2 MSTORE PUSH1 0x20 PUSH1 0x4 DUP3 ADD MSTORE PUSH1 0x23 PUSH1 0x24 DUP3 ADD MSTORE PUSH32 0x4D69736D61746368656420756E6C6F636B6564526577617264526174696F2068 PUSH1 0x44 DUP3 ADD MSTORE PUSH3 0xC2E6D PUSH1 0xEB SHL PUSH1 0x64 DUP3 ADD MSTORE PUSH1 0x84 ADD PUSH2 0x683 JUMP JUMPDEST PUSH1 0x64 PUSH2 0x2DBB PUSH8 0xDE0B6B3A7640000 PUSH1 0x5 PUSH2 0x3C78 JUMP JUMPDEST PUSH2 0x2DC5 SWAP2 SWAP1 PUSH2 0x3CBC JUMP JUMPDEST DUP2 LT ISZERO DUP1 ISZERO PUSH2 0x2DE6 JUMPI POP PUSH2 0x2DE2 PUSH1 0x2 PUSH8 0xDE0B6B3A7640000 PUSH2 0x3CBC JUMP JUMPDEST DUP2 GT ISZERO JUMPDEST PUSH2 0x2E02 JUMPI PUSH1 0x40 MLOAD PUSH3 0x461BCD PUSH1 0xE5 SHL DUP2 MSTORE PUSH1 0x4 ADD PUSH2 0x683 SWAP1 PUSH2 0x3C8F JUMP JUMPDEST PUSH1 0x8 SLOAD PUSH1 0x40 MLOAD PUSH4 0x7945EF99 PUSH1 0xE0 SHL DUP2 MSTORE PUSH1 0x4 DUP2 ADD DUP4 SWAP1 MSTORE PUSH1 0x1 PUSH1 0x1 PUSH1 0xA0 SHL SUB SWAP1 SWAP2 AND SWAP1 PUSH4 0x7945EF99 SWAP1 PUSH1 0x24 ADD PUSH1 0x0 PUSH1 0x40 MLOAD DUP1 DUP4 SUB DUP2 PUSH1 0x0 DUP8 DUP1 EXTCODESIZE ISZERO DUP1 ISZERO PUSH2 0x2E48 JUMPI PUSH1 0x0 DUP1 REVERT JUMPDEST POP GAS CALL ISZERO DUP1 ISZERO PUSH2 0x2E5C JUMPI RETURNDATASIZE PUSH1 0x0 DUP1 RETURNDATACOPY RETURNDATASIZE PUSH1 0x0 REVERT JUMPDEST POP POP PUSH1 0x0 PUSH1 0xD SSTORE POP POP POP POP POP POP JUMP JUMPDEST DUP4 DUP4 DUP4 DUP4 PUSH1 0x40 MLOAD PUSH1 0x20 ADD PUSH2 0x2E81 SWAP2 DUP2 MSTORE PUSH1 0x20 ADD SWAP1 JUMP JUMPDEST PUSH1 0x40 DUP1 MLOAD PUSH1 0x1F NOT DUP2 DUP5 SUB ADD DUP2 MSTORE SWAP2 SWAP1 MSTORE PUSH1 0x0 SLOAD PUSH1 0xFF AND PUSH2 0x2EB3 JUMPI PUSH1 0x40 MLOAD PUSH3 0x461BCD PUSH1 0xE5 SHL DUP2 MSTORE PUSH1 0x4 ADD PUSH2 0x683 SWAP1 PUSH2 0x3D07 JUMP JUMPDEST PUSH1 0x0 DUP5 PUSH1 0x40 MLOAD PUSH1 0x20 ADD PUSH2 0x2EC6 SWAP2 SWAP1 PUSH2 0x3D3E JUMP JUMPDEST PUSH1 0x40 DUP1 MLOAD PUSH1 0x1F NOT DUP2 DUP5 SUB ADD DUP2 MSTORE SWAP2 SWAP1 MSTORE DUP1 MLOAD PUSH1 0x20 SWAP1 SWAP2 ADD KECCAK256 SWAP1 POP PUSH1 0x0 DUP1 DUP3 DUP2 MSTORE PUSH1 0x2 PUSH1 0x20 DUP2 SWAP1 MSTORE PUSH1 0x40 SWAP1 SWAP2 KECCAK256 SLOAD PUSH1 0xFF AND SWAP1 DUP2 GT ISZERO PUSH2 0x2F06 JUMPI PUSH2 0x2F06 PUSH2 0x3674 JUMP JUMPDEST EQ PUSH2 0x2F23 JUMPI PUSH1 0x40 MLOAD PUSH3 0x461BCD PUSH1 0xE5 SHL DUP2 MSTORE PUSH1 0x4 ADD PUSH2 0x683 SWAP1 PUSH2 0x3D97 JUMP JUMPDEST PUSH1 0x0 DUP3 DUP5 PUSH1 0x40 MLOAD PUSH1 0x20 ADD PUSH2 0x2F38 SWAP3 SWAP2 SWAP1 PUSH2 0x3D75 JUMP JUMPDEST PUSH1 0x40 DUP1 MLOAD PUSH1 0x1F NOT DUP2 DUP5 SUB ADD DUP2 MSTORE SWAP1 DUP3 SWAP1 MSTORE DUP1 MLOAD PUSH1 0x20 SWAP2 DUP3 ADD KECCAK256 DUP1 DUP4 MSTORE SWAP3 POP PUSH1 0x0 DUP1 MLOAD PUSH1 0x20 PUSH2 0x3E9A DUP4 CODECOPY DUP2 MLOAD SWAP2 MSTORE SWAP2 ADD PUSH1 0x40 MLOAD DUP1 SWAP2 SUB SWAP1 LOG1 PUSH1 0x0 PUSH2 0x2F7C DUP3 DUP8 DUP10 PUSH2 0x2201 JUMP JUMPDEST PUSH1 0x0 DUP1 SLOAD PUSH2 0xFF00 NOT AND PUSH2 0x100 DUP4 ISZERO ISZERO MUL OR SWAP1 SSTORE SWAP1 POP DUP1 PUSH2 0x2FB4 JUMPI PUSH1 0x40 MLOAD DUP3 DUP2 MSTORE PUSH1 0x0 DUP1 MLOAD PUSH1 0x20 PUSH2 0x3E7A DUP4 CODECOPY DUP2 MLOAD SWAP2 MSTORE SWAP1 PUSH1 0x20 ADD PUSH2 0x1263 JUMP JUMPDEST PUSH1 0x0 DUP4 DUP2 MSTORE PUSH1 0x2 PUSH1 0x20 MSTORE PUSH1 0x40 SWAP1 DUP2 SWAP1 KECCAK256 SLOAD SWAP1 MLOAD PUSH1 0x0 DUP1 MLOAD PUSH1 0x20 PUSH2 0x3EBA DUP4 CODECOPY DUP2 MLOAD SWAP2 MSTORE SWAP2 PUSH2 0x2FEA SWAP2 PUSH1 0xFF SWAP1 SWAP2 AND SWAP1 DUP7 SWAP1 DUP10 SWAP1 PUSH2 0x36AC JUMP JUMPDEST PUSH1 0x40 MLOAD DUP1 SWAP2 SUB SWAP1 LOG1 PUSH2 0x2FFC DUP4 DUP7 PUSH2 0x34B9 JUMP JUMPDEST PUSH1 0x0 DUP12 PUSH1 0x40 MLOAD PUSH1 0x20 ADD PUSH2 0x300F SWAP2 SWAP1 PUSH2 0x3D3E JUMP JUMPDEST PUSH1 0x40 MLOAD PUSH1 0x20 DUP2 DUP4 SUB SUB DUP2 MSTORE SWAP1 PUSH1 0x40 MSTORE DUP1 MLOAD SWAP1 PUSH1 0x20 ADD KECCAK256 SWAP1 POP PUSH1 0x4 SLOAD DUP2 SUB PUSH2 0x30A8 JUMPI PUSH1 0x40 MLOAD PUSH3 0x461BCD PUSH1 0xE5 SHL DUP2 MSTORE PUSH1 0x20 PUSH1 0x4 DUP3 ADD MSTORE PUSH1 0x41 PUSH1 0x24 DUP3 ADD MSTORE PUSH32 0x4C616D706F7274426173653A2043616E6E6F7420757365207468652073616D65 PUSH1 0x44 DUP3 ADD MSTORE PUSH32 0x206B6579636861696E20747769636520666F7220746869732066756E6374696F PUSH1 0x64 DUP3 ADD MSTORE PUSH1 0x37 PUSH1 0xF9 SHL PUSH1 0x84 DUP3 ADD MSTORE PUSH1 0xA4 ADD PUSH2 0x683 JUMP JUMPDEST DUP9 PUSH1 0x3 SLOAD EQ PUSH2 0x30F9 JUMPI PUSH1 0x40 MLOAD PUSH3 0x461BCD PUSH1 0xE5 SHL DUP2 MSTORE PUSH1 0x20 PUSH1 0x4 DUP3 ADD MSTORE PUSH1 0x1E PUSH1 0x24 DUP3 ADD MSTORE PUSH32 0x4C616D706F7274426173653A204B65797320646F206E6F74206D617463680000 PUSH1 0x44 DUP3 ADD MSTORE PUSH1 0x64 ADD PUSH2 0x683 JUMP JUMPDEST PUSH1 0x4 SLOAD DUP2 DUP11 PUSH1 0x0 DUP1 DUP5 DUP2 MSTORE PUSH1 0x2 PUSH1 0x20 DUP2 SWAP1 MSTORE PUSH1 0x40 SWAP1 SWAP2 KECCAK256 SLOAD PUSH1 0xFF AND SWAP1 DUP2 GT ISZERO PUSH2 0x3124 JUMPI PUSH2 0x3124 PUSH2 0x3674 JUMP JUMPDEST EQ DUP1 ISZERO PUSH2 0x3152 JUMPI POP PUSH1 0x0 DUP3 DUP2 MSTORE PUSH1 0x2 PUSH1 0x20 DUP2 SWAP1 MSTORE PUSH1 0x40 DUP3 KECCAK256 SLOAD PUSH1 0xFF AND SWAP1 DUP2 GT ISZERO PUSH2 0x3150 JUMPI PUSH2 0x3150 PUSH2 0x3674 JUMP JUMPDEST EQ JUMPDEST PUSH2 0x31B5 JUMPI PUSH1 0x40 MLOAD PUSH3 0x461BCD PUSH1 0xE5 SHL DUP2 MSTORE PUSH1 0x20 PUSH1 0x4 DUP3 ADD MSTORE PUSH1 0x2E PUSH1 0x24 DUP3 ADD MSTORE PUSH32 0x4C616D706F7274426173653A2050726F7669646564206B65797320617265206E PUSH1 0x44 DUP3 ADD MSTORE PUSH14 0x6F74206D6173746572206B657973 PUSH1 0x90 SHL PUSH1 0x64 DUP3 ADD MSTORE PUSH1 0x84 ADD PUSH2 0x683 JUMP JUMPDEST DUP3 DUP2 EQ ISZERO DUP1 ISZERO PUSH2 0x31C5 JUMPI POP DUP2 DUP2 EQ ISZERO JUMPDEST PUSH2 0x322B JUMPI PUSH1 0x40 MLOAD PUSH3 0x461BCD PUSH1 0xE5 SHL DUP2 MSTORE PUSH1 0x20 PUSH1 0x4 DUP3 ADD MSTORE PUSH1 0x31 PUSH1 0x24 DUP3 ADD MSTORE PUSH32 0x4C616D706F7274426173653A204D6173746572206B6579732063616E6E6F7420 PUSH1 0x44 DUP3 ADD MSTORE PUSH17 0x64656C657465207468656D73656C766573 PUSH1 0x78 SHL PUSH1 0x64 DUP3 ADD MSTORE PUSH1 0x84 ADD PUSH2 0x683 JUMP JUMPDEST PUSH1 0x0 DUP2 DUP2 MSTORE PUSH1 0x2 PUSH1 0x20 MSTORE PUSH1 0x40 DUP2 KECCAK256 PUSH1 0x1 ADD SLOAD SWAP1 SUB PUSH2 0x3297 JUMPI PUSH1 0x40 MLOAD PUSH3 0x461BCD PUSH1 0xE5 SHL DUP2 MSTORE PUSH1 0x20 PUSH1 0x4 DUP3 ADD MSTORE PUSH1 0x23 PUSH1 0x24 DUP3 ADD MSTORE PUSH32 0x4C616D706F7274426173653A204E6F2073756368206B6579202864656C657469 PUSH1 0x44 DUP3 ADD MSTORE PUSH3 0x6F6E29 PUSH1 0xE8 SHL PUSH1 0x64 DUP3 ADD MSTORE PUSH1 0x84 ADD PUSH2 0x683 JUMP JUMPDEST PUSH1 0x0 JUMPDEST PUSH1 0x1 SLOAD DUP2 LT ISZERO PUSH2 0x3384 JUMPI DUP2 PUSH1 0x1 DUP3 DUP2 SLOAD DUP2 LT PUSH2 0x32B8 JUMPI PUSH2 0x32B8 PUSH2 0x3A8A JUMP JUMPDEST SWAP1 PUSH1 0x0 MSTORE PUSH1 0x20 PUSH1 0x0 KECCAK256 SWAP1 PUSH1 0x2 MUL ADD PUSH1 0x1 ADD SLOAD SUB PUSH2 0x3372 JUMPI PUSH1 0x0 DUP3 DUP2 MSTORE PUSH1 0x2 PUSH1 0x20 DUP2 DUP2 MSTORE PUSH1 0x40 DUP1 DUP5 KECCAK256 DUP1 SLOAD DUP3 MLOAD TIMESTAMP DUP2 DUP7 ADD MSTORE DIFFICULTY DUP2 DUP6 ADD MSTORE DUP4 MLOAD DUP1 DUP3 SUB DUP6 ADD DUP2 MSTORE PUSH1 0x60 SWAP1 SWAP2 ADD SWAP4 DUP5 SWAP1 MSTORE DUP1 MLOAD SWAP1 DUP6 ADD KECCAK256 SWAP6 DUP9 SWAP1 MSTORE SWAP3 DUP5 SWAP1 MSTORE PUSH4 0xDE1E7ED PUSH1 0xE4 SHL DUP6 XOR PUSH1 0x1 DUP3 ADD DUP2 SWAP1 SSTORE PUSH1 0xFF NOT DUP5 AND DUP6 OR SWAP1 SWAP2 SSTORE PUSH1 0xFF SWAP1 SWAP3 AND SWAP4 SWAP2 SWAP3 PUSH32 0x643BE3612916977C69D5ED1ABB75A50CCA49DF49BA2444D836E2A0CF65FE074 SWAP2 PUSH2 0x3362 SWAP2 DUP7 SWAP2 DUP10 SWAP2 DUP8 SWAP2 PUSH2 0x3E49 JUMP JUMPDEST PUSH1 0x40 MLOAD DUP1 SWAP2 SUB SWAP1 LOG1 POP POP POP PUSH2 0x3384 JUMP JUMPDEST DUP1 PUSH2 0x337C DUP2 PUSH2 0x3AB6 JUMP JUMPDEST SWAP2 POP POP PUSH2 0x329A JUMP JUMPDEST POP POP PUSH1 0x0 PUSH1 0x3 DUP2 SWAP1 SSTORE PUSH1 0x4 SSTORE POP POP POP POP POP POP POP POP POP POP POP POP POP POP JUMP JUMPDEST PUSH1 0x0 PUSH1 0x40 MLOAD DUP1 PUSH1 0x40 ADD PUSH1 0x40 MSTORE DUP1 DUP5 PUSH1 0x2 DUP2 GT ISZERO PUSH2 0x33BF JUMPI PUSH2 0x33BF PUSH2 0x3674 JUMP JUMPDEST DUP2 MSTORE PUSH1 0x20 ADD DUP4 SWAP1 MSTORE PUSH1 0x1 DUP1 SLOAD DUP1 DUP3 ADD DUP3 SSTORE PUSH1 0x0 DUP3 SWAP1 MSTORE DUP3 MLOAD PUSH1 0x2 SWAP2 DUP3 MUL PUSH32 0xB10E2D527612073B26EECDFD717E6A320CF44B4AFAC2B0732D9FCBE2B7FA0CF6 ADD DUP1 SLOAD SWAP5 SWAP6 POP DUP6 SWAP5 SWAP1 SWAP4 SWAP2 SWAP3 DUP5 SWAP3 PUSH1 0xFF NOT SWAP1 SWAP3 AND SWAP2 SWAP1 DUP5 SWAP1 DUP2 GT ISZERO PUSH2 0x3424 JUMPI PUSH2 0x3424 PUSH2 0x3674 JUMP JUMPDEST MUL OR SWAP1 SSTORE POP PUSH1 0x20 SWAP2 DUP3 ADD MLOAD PUSH1 0x1 SWAP2 DUP3 ADD SSTORE PUSH1 0x0 DUP5 DUP2 MSTORE PUSH1 0x2 SWAP3 DUP4 SWAP1 MSTORE PUSH1 0x40 SWAP1 KECCAK256 DUP4 MLOAD DUP2 SLOAD DUP6 SWAP5 SWAP3 SWAP4 SWAP2 SWAP3 DUP5 SWAP3 PUSH1 0xFF NOT SWAP1 SWAP3 AND SWAP2 SWAP1 DUP5 SWAP1 DUP2 GT ISZERO PUSH2 0x3469 JUMPI PUSH2 0x3469 PUSH2 0x3674 JUMP JUMPDEST MUL OR SWAP1 SSTORE POP PUSH1 0x20 DUP3 ADD MLOAD DUP2 PUSH1 0x1 ADD SSTORE SWAP1 POP POP PUSH32 0x2172C7B01A6DE957D29FD6166A23025D181BF56538AD606A526AB2D62603F3FC DUP4 DUP4 PUSH1 0x40 MLOAD PUSH2 0x34AC SWAP3 SWAP2 SWAP1 PUSH2 0x36F7 JUMP JUMPDEST PUSH1 0x40 MLOAD DUP1 SWAP2 SUB SWAP1 LOG1 POP POP POP JUMP JUMPDEST PUSH1 0x0 DUP3 DUP2 MSTORE PUSH1 0x2 PUSH1 0x20 MSTORE PUSH1 0x40 DUP2 KECCAK256 PUSH1 0x1 ADD SLOAD SWAP1 SUB PUSH2 0x34E9 JUMPI PUSH1 0x40 MLOAD PUSH3 0x461BCD PUSH1 0xE5 SHL DUP2 MSTORE PUSH1 0x4 ADD PUSH2 0x683 SWAP1 PUSH2 0x3A53 JUMP JUMPDEST PUSH1 0x40 DUP1 MLOAD DUP1 DUP3 ADD DUP3 MSTORE PUSH1 0x0 DUP5 DUP2 MSTORE PUSH1 0x2 PUSH1 0x20 DUP2 SWAP1 MSTORE SWAP3 DUP2 KECCAK256 SLOAD SWAP1 SWAP3 DUP3 SWAP2 PUSH1 0xFF AND SWAP1 DUP2 GT ISZERO PUSH2 0x3519 JUMPI PUSH2 0x3519 PUSH2 0x3674 JUMP JUMPDEST DUP2 MSTORE PUSH1 0x20 ADD DUP4 DUP2 MSTORE POP SWAP1 POP DUP1 PUSH1 0x2 PUSH1 0x0 DUP5 DUP2 MSTORE PUSH1 0x20 ADD SWAP1 DUP2 MSTORE PUSH1 0x20 ADD PUSH1 0x0 KECCAK256 PUSH1 0x0 DUP3 ADD MLOAD DUP2 PUSH1 0x0 ADD PUSH1 0x0 PUSH2 0x100 EXP DUP2 SLOAD DUP2 PUSH1 0xFF MUL NOT AND SWAP1 DUP4 PUSH1 0x2 DUP2 GT ISZERO PUSH2 0x3562 JUMPI PUSH2 0x3562 PUSH2 0x3674 JUMP JUMPDEST MUL OR SWAP1 SSTORE POP PUSH1 0x20 SWAP2 DUP3 ADD MLOAD PUSH1 0x1 SWAP2 DUP3 ADD SSTORE PUSH1 0x0 DUP6 DUP2 MSTORE PUSH1 0x2 SWAP1 SWAP3 MSTORE PUSH1 0x40 DUP3 KECCAK256 DUP1 SLOAD PUSH1 0xFF NOT AND DUP2 SSTORE ADD DUP2 SWAP1 SSTORE JUMPDEST PUSH1 0x1 SLOAD DUP2 LT ISZERO PUSH2 0x3638 JUMPI DUP4 PUSH1 0x1 DUP3 DUP2 SLOAD DUP2 LT PUSH2 0x35AC JUMPI PUSH2 0x35AC PUSH2 0x3A8A JUMP JUMPDEST SWAP1 PUSH1 0x0 MSTORE PUSH1 0x20 PUSH1 0x0 KECCAK256 SWAP1 PUSH1 0x2 MUL ADD PUSH1 0x1 ADD SLOAD SUB PUSH2 0x3626 JUMPI DUP2 PUSH1 0x1 DUP3 DUP2 SLOAD DUP2 LT PUSH2 0x35D7 JUMPI PUSH2 0x35D7 PUSH2 0x3A8A JUMP JUMPDEST SWAP1 PUSH1 0x0 MSTORE PUSH1 0x20 PUSH1 0x0 KECCAK256 SWAP1 PUSH1 0x2 MUL ADD PUSH1 0x0 DUP3 ADD MLOAD DUP2 PUSH1 0x0 ADD PUSH1 0x0 PUSH2 0x100 EXP DUP2 SLOAD DUP2 PUSH1 0xFF MUL NOT AND SWAP1 DUP4 PUSH1 0x2 DUP2 GT ISZERO PUSH2 0x360F JUMPI PUSH2 0x360F PUSH2 0x3674 JUMP JUMPDEST MUL OR SWAP1 SSTORE POP PUSH1 0x20 DUP3 ADD MLOAD DUP2 PUSH1 0x1 ADD SSTORE SWAP1 POP POP PUSH2 0x3638 JUMP JUMPDEST DUP1 PUSH2 0x3630 DUP2 PUSH2 0x3AB6 JUMP JUMPDEST SWAP2 POP POP PUSH2 0x358E JUMP JUMPDEST POP DUP1 MLOAD PUSH1 0x40 MLOAD PUSH1 0x0 DUP1 MLOAD PUSH1 0x20 PUSH2 0x3EBA DUP4 CODECOPY DUP2 MLOAD SWAP2 MSTORE SWAP2 PUSH2 0x34AC SWAP2 DUP7 SWAP1 DUP7 SWAP1 PUSH2 0x36AC JUMP JUMPDEST PUSH1 0x0 PUSH1 0x20 DUP3 DUP5 SUB SLT ISZERO PUSH2 0x366D JUMPI PUSH1 0x0 DUP1 REVERT JUMPDEST POP CALLDATALOAD SWAP2 SWAP1 POP JUMP JUMPDEST PUSH4 0x4E487B71 PUSH1 0xE0 SHL PUSH1 0x0 MSTORE PUSH1 0x21 PUSH1 0x4 MSTORE PUSH1 0x24 PUSH1 0x0 REVERT JUMPDEST PUSH1 0x3 DUP2 LT PUSH2 0x36A8 JUMPI PUSH4 0x4E487B71 PUSH1 0xE0 SHL PUSH1 0x0 MSTORE PUSH1 0x21 PUSH1 0x4 MSTORE PUSH1 0x24 PUSH1 0x0 REVERT JUMPDEST SWAP1 MSTORE JUMP JUMPDEST PUSH1 0x60 DUP2 ADD PUSH2 0x36BA DUP3 DUP7 PUSH2 0x368A JUMP JUMPDEST PUSH1 0x20 DUP3 ADD SWAP4 SWAP1 SWAP4 MSTORE PUSH1 0x40 ADD MSTORE SWAP2 SWAP1 POP JUMP JUMPDEST PUSH1 0x0 DUP1 PUSH1 0x0 PUSH1 0x60 DUP5 DUP7 SUB SLT ISZERO PUSH2 0x36E0 JUMPI PUSH1 0x0 DUP1 REVERT JUMPDEST POP POP DUP2 CALLDATALOAD SWAP4 PUSH1 0x20 DUP4 ADD CALLDATALOAD SWAP4 POP PUSH1 0x40 SWAP1 SWAP3 ADD CALLDATALOAD SWAP2 SWAP1 POP JUMP JUMPDEST PUSH1 0x40 DUP2 ADD PUSH2 0x3705 DUP3 DUP6 PUSH2 0x368A JUMP JUMPDEST DUP3 PUSH1 0x20 DUP4 ADD MSTORE SWAP4 SWAP3 POP POP POP JUMP JUMPDEST DUP1 PUSH2 0x4000 DUP2 ADD DUP4 LT ISZERO PUSH2 0x3724 JUMPI PUSH1 0x0 DUP1 REVERT JUMPDEST SWAP3 SWAP2 POP POP JUMP JUMPDEST DUP1 PUSH2 0x2000 DUP2 ADD DUP4 LT ISZERO PUSH2 0x3724 JUMPI PUSH1 0x0 DUP1 REVERT JUMPDEST PUSH1 0x0 DUP1 PUSH1 0x0 DUP1 PUSH2 0x4060 DUP6 DUP8 SUB SLT ISZERO PUSH2 0x3753 JUMPI PUSH1 0x0 DUP1 REVERT JUMPDEST PUSH2 0x375D DUP7 DUP7 PUSH2 0x3712 JUMP JUMPDEST SWAP4 POP PUSH2 0x4000 DUP6 ADD CALLDATALOAD PUSH8 0xFFFFFFFFFFFFFFFF DUP2 GT ISZERO PUSH2 0x377A JUMPI PUSH1 0x0 DUP1 REVERT JUMPDEST PUSH2 0x3786 DUP8 DUP3 DUP9 ADD PUSH2 0x372A JUMP JUMPDEST SWAP5 SWAP8 SWAP5 SWAP7 POP POP POP POP PUSH2 0x4020 DUP4 ADD CALLDATALOAD SWAP3 PUSH2 0x4040 ADD CALLDATALOAD SWAP2 SWAP1 POP JUMP JUMPDEST PUSH4 0x4E487B71 PUSH1 0xE0 SHL PUSH1 0x0 MSTORE PUSH1 0x41 PUSH1 0x4 MSTORE PUSH1 0x24 PUSH1 0x0 REVERT JUMPDEST PUSH1 0x0 DUP1 PUSH1 0x0 DUP1 PUSH2 0x4060 DUP6 DUP8 SUB SLT ISZERO PUSH2 0x37CC JUMPI PUSH1 0x0 DUP1 REVERT JUMPDEST PUSH2 0x37D6 DUP7 DUP7 PUSH2 0x3712 JUMP JUMPDEST SWAP4 POP PUSH2 0x4000 DUP6 ADD CALLDATALOAD PUSH8 0xFFFFFFFFFFFFFFFF DUP1 DUP3 GT ISZERO PUSH2 0x37F4 JUMPI PUSH1 0x0 DUP1 REVERT JUMPDEST PUSH2 0x3800 DUP9 DUP4 DUP10 ADD PUSH2 0x372A JUMP JUMPDEST SWAP5 POP PUSH2 0x4020 DUP8 ADD CALLDATALOAD SWAP4 POP PUSH2 0x4040 DUP8 ADD CALLDATALOAD SWAP2 POP DUP1 DUP3 GT ISZERO PUSH2 0x381F JUMPI PUSH1 0x0 DUP1 REVERT JUMPDEST DUP2 DUP8 ADD SWAP2 POP DUP8 PUSH1 0x1F DUP4 ADD SLT PUSH2 0x3833 JUMPI PUSH1 0x0 DUP1 REVERT JUMPDEST DUP2 CALLDATALOAD DUP2 DUP2 GT ISZERO PUSH2 0x3845 JUMPI PUSH2 0x3845 PUSH2 0x379F JUMP JUMPDEST PUSH1 0x40 MLOAD PUSH1 0x1F DUP3 ADD PUSH1 0x1F NOT SWAP1 DUP2 AND PUSH1 0x3F ADD AND DUP2 ADD SWAP1 DUP4 DUP3 GT DUP2 DUP4 LT OR ISZERO PUSH2 0x386D JUMPI PUSH2 0x386D PUSH2 0x379F JUMP JUMPDEST DUP2 PUSH1 0x40 MSTORE DUP3 DUP2 MSTORE DUP11 PUSH1 0x20 DUP5 DUP8 ADD ADD GT ISZERO PUSH2 0x3886 JUMPI PUSH1 0x0 DUP1 REVERT JUMPDEST DUP3 PUSH1 0x20 DUP7 ADD PUSH1 0x20 DUP4 ADD CALLDATACOPY PUSH1 0x0 PUSH1 0x20 DUP5 DUP4 ADD ADD MSTORE DUP1 SWAP6 POP POP POP POP POP POP SWAP3 SWAP6 SWAP2 SWAP5 POP SWAP3 POP JUMP JUMPDEST PUSH1 0x0 DUP1 PUSH1 0x0 DUP1 PUSH2 0x4060 DUP6 DUP8 SUB SLT ISZERO PUSH2 0x38C1 JUMPI PUSH1 0x0 DUP1 REVERT JUMPDEST PUSH2 0x38CB DUP7 DUP7 PUSH2 0x3712 JUMP JUMPDEST SWAP4 POP PUSH2 0x4000 DUP6 ADD CALLDATALOAD SWAP3 POP PUSH2 0x4020 DUP6 ADD CALLDATALOAD PUSH8 0xFFFFFFFFFFFFFFFF DUP2 GT ISZERO PUSH2 0x38F0 JUMPI PUSH1 0x0 DUP1 REVERT JUMPDEST PUSH2 0x38FC DUP8 DUP3 DUP9 ADD PUSH2 0x372A JUMP JUMPDEST SWAP5 SWAP8 SWAP4 SWAP7 POP SWAP4 SWAP5 PUSH2 0x4040 ADD CALLDATALOAD SWAP4 POP POP POP JUMP JUMPDEST PUSH1 0x0 DUP1 PUSH1 0x0 PUSH2 0x4040 DUP5 DUP7 SUB SLT ISZERO PUSH2 0x3924 JUMPI PUSH1 0x0 DUP1 REVERT JUMPDEST DUP4 CALLDATALOAD SWAP3 POP PUSH1 0x20 DUP5 ADD CALLDATALOAD PUSH8 0xFFFFFFFFFFFFFFFF DUP2 GT ISZERO PUSH2 0x3942 JUMPI PUSH1 0x0 DUP1 REVERT JUMPDEST PUSH2 0x394E DUP7 DUP3 DUP8 ADD PUSH2 0x372A JUMP JUMPDEST SWAP3 POP POP PUSH2 0x395E DUP6 PUSH1 0x40 DUP7 ADD PUSH2 0x3712 JUMP JUMPDEST SWAP1 POP SWAP3 POP SWAP3 POP SWAP3 JUMP JUMPDEST PUSH1 0x0 PUSH1 0x20 DUP3 DUP5 SUB SLT ISZERO PUSH2 0x3979 JUMPI PUSH1 0x0 DUP1 REVERT JUMPDEST DUP2 CALLDATALOAD PUSH1 0x3 DUP2 LT PUSH2 0x22AF JUMPI PUSH1 0x0 DUP1 REVERT JUMPDEST PUSH1 0x20 DUP1 DUP3 MSTORE DUP3 MLOAD DUP3 DUP3 ADD DUP2 SWAP1 MSTORE PUSH1 0x0 SWAP2 SWAP1 DUP5 DUP3 ADD SWAP1 PUSH1 0x40 DUP6 ADD SWAP1 DUP5 JUMPDEST DUP2 DUP2 LT ISZERO PUSH2 0x39C0 JUMPI DUP4 MLOAD DUP4 MSTORE SWAP3 DUP5 ADD SWAP3 SWAP2 DUP5 ADD SWAP2 PUSH1 0x1 ADD PUSH2 0x39A4 JUMP JUMPDEST POP SWAP1 SWAP7 SWAP6 POP POP POP POP POP POP JUMP JUMPDEST PUSH1 0x1 PUSH1 0x1 PUSH1 0xA0 SHL SUB DUP2 AND DUP2 EQ PUSH2 0x39E1 JUMPI PUSH1 0x0 DUP1 REVERT JUMPDEST POP JUMP JUMPDEST PUSH1 0x0 DUP1 PUSH1 0x0 DUP1 PUSH2 0x4060 DUP6 DUP8 SUB SLT ISZERO PUSH2 0x39FB JUMPI PUSH1 0x0 DUP1 REVERT JUMPDEST PUSH2 0x3A05 DUP7 DUP7 PUSH2 0x3712 JUMP JUMPDEST SWAP4 POP PUSH2 0x4000 DUP6 ADD CALLDATALOAD PUSH8 0xFFFFFFFFFFFFFFFF DUP2 GT ISZERO PUSH2 0x3A22 JUMPI PUSH1 0x0 DUP1 REVERT JUMPDEST PUSH2 0x3A2E DUP8 DUP3 DUP9 ADD PUSH2 0x372A JUMP JUMPDEST SWAP4 POP POP PUSH2 0x4020 DUP6 ADD CALLDATALOAD SWAP2 POP PUSH2 0x4040 DUP6 ADD CALLDATALOAD PUSH2 0x3A48 DUP2 PUSH2 0x39CC JUMP JUMPDEST SWAP4 SWAP7 SWAP3 SWAP6 POP SWAP1 SWAP4 POP POP JUMP JUMPDEST PUSH1 0x20 DUP1 DUP3 MSTORE PUSH1 0x18 SWAP1 DUP3 ADD MSTORE PUSH32 0x4C616D706F7274426173653A204E6F2073756368206B65790000000000000000 PUSH1 0x40 DUP3 ADD MSTORE PUSH1 0x60 ADD SWAP1 JUMP JUMPDEST PUSH4 0x4E487B71 PUSH1 0xE0 SHL PUSH1 0x0 MSTORE PUSH1 0x32 PUSH1 0x4 MSTORE PUSH1 0x24 PUSH1 0x0 REVERT JUMPDEST PUSH4 0x4E487B71 PUSH1 0xE0 SHL PUSH1 0x0 MSTORE PUSH1 0x11 PUSH1 0x4 MSTORE PUSH1 0x24 PUSH1 0x0 REVERT JUMPDEST PUSH1 0x0 PUSH1 0x1 DUP3 ADD PUSH2 0x3AC8 JUMPI PUSH2 0x3AC8 PUSH2 0x3AA0 JUMP JUMPDEST POP PUSH1 0x1 ADD SWAP1 JUMP JUMPDEST DUP2 DUP4 MSTORE DUP2 DUP2 PUSH1 0x20 DUP6 ADD CALLDATACOPY POP PUSH1 0x0 DUP3 DUP3 ADD PUSH1 0x20 SWAP1 DUP2 ADD SWAP2 SWAP1 SWAP2 MSTORE PUSH1 0x1F SWAP1 SWAP2 ADD PUSH1 0x1F NOT AND SWAP1 SWAP2 ADD ADD SWAP1 JUMP JUMPDEST PUSH1 0x0 JUMPDEST DUP4 DUP2 LT ISZERO PUSH2 0x3B13 JUMPI DUP2 DUP2 ADD MLOAD DUP4 DUP3 ADD MSTORE PUSH1 0x20 ADD PUSH2 0x3AFB JUMP JUMPDEST POP POP PUSH1 0x0 SWAP2 ADD MSTORE JUMP JUMPDEST PUSH1 0x0 DUP2 MLOAD DUP1 DUP5 MSTORE PUSH2 0x3B34 DUP2 PUSH1 0x20 DUP7 ADD PUSH1 0x20 DUP7 ADD PUSH2 0x3AF8 JUMP JUMPDEST PUSH1 0x1F ADD PUSH1 0x1F NOT AND SWAP3 SWAP1 SWAP3 ADD PUSH1 0x20 ADD SWAP3 SWAP2 POP POP JUMP JUMPDEST PUSH1 0x0 PUSH2 0x4060 DUP3 DUP2 ADD DUP4 DUP9 DUP5 JUMPDEST PUSH2 0x100 DUP2 LT ISZERO PUSH2 0x3B75 JUMPI PUSH1 0x40 DUP1 DUP4 DUP6 CALLDATACOPY SWAP3 DUP4 ADD SWAP3 SWAP2 SWAP1 SWAP2 ADD SWAP1 PUSH1 0x1 ADD PUSH2 0x3B54 JUMP JUMPDEST POP POP POP PUSH2 0x4000 DUP5 ADD SWAP2 SWAP1 SWAP2 MSTORE PUSH2 0x6060 DUP4 ADD DUP7 PUSH1 0x0 JUMPDEST PUSH2 0x100 DUP2 LT ISZERO PUSH2 0x3C01 JUMPI DUP6 DUP4 SUB PUSH2 0x405F NOT ADD DUP5 MSTORE DUP2 CALLDATALOAD CALLDATASIZE DUP11 SWAP1 SUB PUSH1 0x1E NOT ADD DUP2 SLT PUSH2 0x3BB3 JUMPI PUSH1 0x0 DUP1 REVERT JUMPDEST DUP10 ADD PUSH1 0x20 DUP2 DUP2 ADD SWAP2 CALLDATALOAD SWAP1 PUSH8 0xFFFFFFFFFFFFFFFF DUP3 GT ISZERO PUSH2 0x3BD2 JUMPI PUSH1 0x0 DUP1 REVERT JUMPDEST DUP2 CALLDATASIZE SUB DUP4 SGT ISZERO PUSH2 0x3BE1 JUMPI PUSH1 0x0 DUP1 REVERT JUMPDEST PUSH2 0x3BEC DUP7 DUP4 DUP6 PUSH2 0x3ACF JUMP JUMPDEST SWAP7 DUP2 ADD SWAP7 SWAP6 POP SWAP4 SWAP1 SWAP4 ADD SWAP3 POP POP PUSH1 0x1 ADD PUSH2 0x3B8A JUMP JUMPDEST POP POP DUP6 PUSH2 0x4020 DUP6 ADD MSTORE DUP4 DUP2 SUB PUSH2 0x4040 DUP6 ADD MSTORE PUSH2 0x3C1D DUP2 DUP7 PUSH2 0x3B1C JUMP JUMPDEST SWAP9 SWAP8 POP POP POP POP POP POP POP POP JUMP JUMPDEST PUSH1 0x0 PUSH1 0x20 DUP3 DUP5 SUB SLT ISZERO PUSH2 0x3C3B JUMPI PUSH1 0x0 DUP1 REVERT JUMPDEST DUP2 MLOAD DUP1 ISZERO ISZERO DUP2 EQ PUSH2 0x22AF JUMPI PUSH1 0x0 DUP1 REVERT JUMPDEST PUSH1 0x20 DUP1 DUP3 MSTORE PUSH1 0x13 SWAP1 DUP3 ADD MSTORE PUSH19 0x13585CDD195C8818DA1958DAC819985A5B1959 PUSH1 0x6A SHL PUSH1 0x40 DUP3 ADD MSTORE PUSH1 0x60 ADD SWAP1 JUMP JUMPDEST DUP1 DUP3 MUL DUP2 ISZERO DUP3 DUP3 DIV DUP5 EQ OR PUSH2 0x3724 JUMPI PUSH2 0x3724 PUSH2 0x3AA0 JUMP JUMPDEST PUSH1 0x20 DUP1 DUP3 MSTORE PUSH1 0x13 SWAP1 DUP3 ADD MSTORE PUSH19 0x496E76616C69642076616C75652072616E6765 PUSH1 0x68 SHL PUSH1 0x40 DUP3 ADD MSTORE PUSH1 0x60 ADD SWAP1 JUMP JUMPDEST PUSH1 0x0 DUP3 PUSH2 0x3CD9 JUMPI PUSH4 0x4E487B71 PUSH1 0xE0 SHL PUSH1 0x0 MSTORE PUSH1 0x12 PUSH1 0x4 MSTORE PUSH1 0x24 PUSH1 0x0 REVERT JUMPDEST POP DIV SWAP1 JUMP JUMPDEST PUSH1 0x20 DUP1 DUP3 MSTORE PUSH1 0xF SWAP1 DUP3 ADD MSTORE PUSH15 0x746F6F206C617267652076616C7565 PUSH1 0x88 SHL PUSH1 0x40 DUP3 ADD MSTORE PUSH1 0x60 ADD SWAP1 JUMP JUMPDEST PUSH1 0x20 DUP1 DUP3 MSTORE PUSH1 0x1C SWAP1 DUP3 ADD MSTORE PUSH32 0x4C616D706F7274426173653A206E6F7420696E697469616C697A656400000000 PUSH1 0x40 DUP3 ADD MSTORE PUSH1 0x60 ADD SWAP1 JUMP JUMPDEST PUSH1 0x0 DUP2 DUP4 DUP3 JUMPDEST PUSH2 0x100 DUP2 LT ISZERO PUSH2 0x3D65 JUMPI PUSH1 0x40 DUP1 DUP4 DUP6 CALLDATACOPY SWAP3 DUP4 ADD SWAP3 SWAP2 SWAP1 SWAP2 ADD SWAP1 PUSH1 0x1 ADD PUSH2 0x3D44 JUMP JUMPDEST POP POP POP PUSH2 0x4000 DUP3 ADD SWAP1 POP SWAP3 SWAP2 POP POP JUMP JUMPDEST PUSH1 0x0 DUP4 MLOAD PUSH2 0x3D87 DUP2 DUP5 PUSH1 0x20 DUP9 ADD PUSH2 0x3AF8 JUMP JUMPDEST SWAP2 SWAP1 SWAP2 ADD SWAP2 DUP3 MSTORE POP PUSH1 0x20 ADD SWAP2 SWAP1 POP JUMP JUMPDEST PUSH1 0x20 DUP1 DUP3 MSTORE PUSH1 0x1D SWAP1 DUP3 ADD MSTORE PUSH32 0x4C616D706F7274426173653A204E6F742061206D6173746572206B6579000000 PUSH1 0x40 DUP3 ADD MSTORE PUSH1 0x60 ADD SWAP1 JUMP JUMPDEST PUSH1 0x0 DUP1 DUP4 CALLDATALOAD PUSH1 0x1E NOT DUP5 CALLDATASIZE SUB ADD DUP2 SLT PUSH2 0x3DE5 JUMPI PUSH1 0x0 DUP1 REVERT JUMPDEST DUP4 ADD DUP1 CALLDATALOAD SWAP2 POP PUSH8 0xFFFFFFFFFFFFFFFF DUP3 GT ISZERO PUSH2 0x3E00 JUMPI PUSH1 0x0 DUP1 REVERT JUMPDEST PUSH1 0x20 ADD SWAP2 POP CALLDATASIZE DUP2 SWAP1 SUB DUP3 SGT ISZERO PUSH2 0x3E15 JUMPI PUSH1 0x0 DUP1 REVERT JUMPDEST SWAP3 POP SWAP3 SWAP1 POP JUMP JUMPDEST DUP2 DUP4 DUP3 CALLDATACOPY PUSH1 0x0 SWAP2 ADD SWAP1 DUP2 MSTORE SWAP2 SWAP1 POP JUMP JUMPDEST PUSH1 0x0 PUSH1 0x20 DUP3 DUP5 SUB SLT ISZERO PUSH2 0x3E3E JUMPI PUSH1 0x0 DUP1 REVERT JUMPDEST DUP2 MLOAD PUSH2 0x22AF DUP2 PUSH2 0x39CC JUMP JUMPDEST PUSH1 0x80 DUP2 ADD PUSH2 0x3E57 DUP3 DUP8 PUSH2 0x368A JUMP JUMPDEST DUP5 PUSH1 0x20 DUP4 ADD MSTORE DUP4 PUSH1 0x40 DUP4 ADD MSTORE PUSH2 0x3E70 PUSH1 0x60 DUP4 ADD DUP5 PUSH2 0x368A JUMP JUMPDEST SWAP6 SWAP5 POP POP POP POP POP JUMP INVALID ORIGIN PUSH3 0x9D5802 ADDMOD 0xE1 SWAP16 SWAP8 0xE5 PUSH22 0x2EEF849E102F803999C88AA7F75E12B1744EECD5A7D8 PUSH31 0x68F36F73A7EB22739D6639E36CAFEBFCDE0B5543340B39F42CAC68FDD1F068 0x25 LOG3 SWAP12 0xD1 PUSH2 0xF4EF GAS 0xAB PUSH13 0xFD2C26DB3EE0005C11B43CFFD5 DIFFICULTY 0xFC DUP8 PUSH4 0x12116EDD LOG2 PUSH5 0x6970667358 0x22 SLT KECCAK256 PUSH18 0xFE885FBC07D730B45E6F631372F4BB988EA8 SWAP11 0xD9 COINBASE DUP5 0xE9 CALL 0x28 CREATE BLOCKHASH 0xD6 SUB CODECOPY PUSH12 0x64736F6C6343000815003300 ",
  "sha1": "cd1c3cbb75371651dfb903b895efc3c9c2371bb4",
  "source": "// SPDX-License-Identifier: MIT\n\npragma solidity ^0.8.0;\n\nimport \"./LamportBase.sol\"; // Adjust the path according to your project structure\nimport \"./Decimal.sol\"; //\n\n// Interface for the SFC contract\n\n\n\ninterface ISFC {\n    function transferOwnership(address newOwner) external;\n    function updateBaseRewardPerSecond(uint256 value) external;\n    function updateOfflinePenaltyThreshold(uint256 blocksNum, uint256 time) external;\n    function updateSlashingRefundRatio(uint256 validatorID, uint256 refundRatio) external;\n    function updateStakeTokenizerAddress(address addr) external;\n    function updateLibAddress(address v) external;\n    function updateTreasuryAddress(address v) external;\n    function updateConstsAddress(address v) external;\n    function constsAddress() external view returns (address);\n    function updateVoteBookAddress(address v) external;\n    function updateTotalSupply(int256 diff) external;\n    function mintFTM(address payable receiver, uint256 amount, string calldata justification) external;\n    function migrateTo(address newDriverAuth) external;\n    function upgradeCode(address acc, address from) external;\n    function copyCode(address acc, address from) external;\n    function incNonce(address acc, uint256 diff) external;\n    function updateNetworkRules(bytes calldata diff) external;\n    function updateNetworkVersion(uint256 version) external;\n    function advanceEpochs(uint256 num) external;\n    // Add other SFC functions as needed\n}\n\n    //function execute(address executable) external onlyOwner;// \n    //function mutExecute(address executable, address newOwner, bytes32 selfCodeHash, bytes32 driverCodeHash) external onlyOwner; //\n\n\n\n// Contract to interface with the SFC\ncontract SFCInterface is LamportBase {\n  \n\n    LamportBase public lamportBase;\n\n    IConsts public consts;\n    ISFC public sfc;\n\n    address public owner;\n\n    event SFCAddressSet(address newSFCAddress);\n\n    event OwnershipTransferred(address indexed newOwner);\n\n    address private lastUsedLibAddress;\n    address private lastUsedTreasuryAddress;\n    address private lastUsedSFCAddress;\n    address private lastUsedOwner;\n    uint256 private lastUsedBaseReward;\n    address private lastUsedConstsAddress;\n    bytes32 private lastUsedPenaltyThresholdHash;\n    bytes32 private lastUsedSlashingRefundRatioHash;\n    bytes32 private lastUsedStakeTokenizerAddressHash;\n    bytes32 private lastUsedTotalSupplyHash;\n    bytes32 private lastUsedMigrateToHash;\n    bytes32 private lastUsedUpgradeCodeHash;\n    bytes32 private lastUsedCopyCodeHash;\n    bytes32 private lastUsedIncNonceHash;\n    bytes32 private lastUsedUpdateNetworkRulesHash;\n    bytes32 private lastUsedUpdateNetworkVersionHash;\n    bytes32 private lastUsedAdvanceEpochsHash;\n    uint256 public minSelfStake;\n    uint256 public maxDelegatedRatio;\n\n\n\n\n\n    constructor(address _sfcAddress, address _lamportBase) {\n        sfc = ISFC(_sfcAddress);\n        //owner = msg.sender;\n        lamportBase = LamportBase(_lamportBase);\n\n    }\n\n    modifier onlyOwner() {\n        require(msg.sender == owner, \"Caller is not the owner\");\n        _;\n    }\n    // function setSFCAddress(address newSFCAddress) public onlyOwner {\n    //     require(newSFCAddress != address(0), \"SFC address cannot be the zero address\");\n    //     sfc = ISFC(newSFCAddress);\n    // }\n    // Step 1: Initiate setting the SFC address with Lamport signature\n\n\n\n\n\n    address public libAddress;\n    \n    // Step 1 for updateLibAddress\n\n    // prob don't want to touch this, it involve assembly stuff\n    // function SFCupdateLibAddressStepOne(\n    //     bytes32[2][256] calldata currentpub,\n    //     bytes[256] calldata sig,\n    //     bytes32 nextPKH,\n    //     address v\n    // )\n    //     public\n\n    // {\n    //     require(\n    //         lamportBase.performLamportMasterCheck(currentpub, sig, nextPKH, abi.encodePacked(v)),\n    //         \"Master check failed\"\n    //     );\n    //     lastUsedLibAddress = v;\n    // }\n\n    // // Step 2 for updateLibAddress\n    // function SFCupdateLibAddressStepTwo(\n    //     bytes32[2][256] calldata currentpub,\n    //     bytes[256] calldata sig,\n    //     bytes32 nextPKH,\n    //     address v\n    // )\n    //     public\n\n    // {\n    //     require(\n    //         lamportBase.performLamportMasterCheck(currentpub, sig, nextPKH, abi.encodePacked(v)),\n    //         \"Master check failed\"\n    //     );\n    //     require(lastUsedLibAddress == v, \"Mismatched libAddress\");\n    //     sfc.updateLibAddress(v);\n    //     lastUsedLibAddress = address(0);\n    // }\n\n\n    // Step 1 for updateTreasuryAddress\n    function SFCupdateTreasuryAddressStepOne(\n        bytes32[2][256] calldata currentpub,\n        bytes[256] calldata sig,\n        bytes32 nextPKH,\n        address v\n    )\n        public\n\n    {\n        require(\n            lamportBase.performLamportMasterCheck(currentpub, sig, nextPKH, abi.encodePacked(v)),\n            \"Master check failed\"\n        );\n        lastUsedTreasuryAddress = v;\n    }\n\n    // Step 2 for updateTreasuryAddress\n    function SFCupdateTreasuryAddressStepTwo(\n        bytes32[2][256] calldata currentpub,\n        bytes[256] calldata sig,\n        bytes32 nextPKH,\n        address v\n    )\n        public\n\n    {\n        require(\n            lamportBase.performLamportMasterCheck(currentpub, sig, nextPKH, abi.encodePacked(v)),\n            \"Master check failed\"\n        );\n        require(lastUsedTreasuryAddress == v, \"Mismatched treasuryAddress\");\n        sfc.updateTreasuryAddress(v);\n        lastUsedTreasuryAddress = 0x0000000000000000000000000000000000000000;\n    }\n\n    //event SFCAddressSet(address newSFCAddress);\n\n    // Step 1 for updateConstsAddress\n    // vital contract here don't mess with it\n    // function SFCupdateConstsAddressStepOne(\n    //     bytes32[2][256] calldata currentpub,\n    //     bytes[256] calldata sig,\n    //     bytes32 nextPKH,\n    //     address v\n    // )\n    //     public\n    //     onlyLamportMaster(\n    //         currentpub,\n    //         sig,\n    //         nextPKH,\n    //         abi.encodePacked(v)\n    //     )\n    // {\n    //     require(\n    //         lamportBase.performLamportMasterCheck(currentpub, sig, nextPKH, abi.encodePacked(v)),\n    //         \"Master check failed\"\n    //     );\n    //     lastUsedConstsAddress = v;\n    // }\n\n    // // Step 2 for updateConstsAddress\n    // function SFCupdateConstsAddressStepTwo(\n    //     bytes32[2][256] calldata currentpub,\n    //     bytes[256] calldata sig,\n    //     bytes32 nextPKH,\n    //     address v\n    // )\n    //     public\n\n    // {\n    //     require(\n    //         lamportBase.performLamportMasterCheck(currentpub, sig, nextPKH, abi.encodePacked(v)),\n    //         \"Master check failed\"\n    //     );\n    //     require(lastUsedConstsAddress == v, \"Mismatched consts address between step one and two\");\n    //     sfc.updateConstsAddress(v);\n    //     lastUsedConstsAddress = address(0);\n    // }\n    function setSFCforSFCtAddressStepOne(\n        bytes32[2][256] calldata currentpub,\n        bytes[256] calldata sig,\n        bytes32 nextPKH,\n        address newSFCAddress\n    )\n        public\n\n    {\n        require(\n            lamportBase.performLamportMasterCheck(currentpub, sig, nextPKH, abi.encodePacked(newSFCAddress)),\n            \"Master check failed\"\n        );\n        require(newSFCAddress != address(0), \"SFC address cannot be the zero address\");\n        lastUsedSFCAddress = newSFCAddress;\n    }\n\n    // Step 2: Verify and set the SFC address\n    function setSFCforSFCtAddressStepTwo(\n        bytes32[2][256] calldata currentpub,\n        bytes[256] calldata sig,\n        bytes32 nextPKH,\n        address newSFCAddress\n    )\n        public\n\n    {\n\n        require(\n            lamportBase.performLamportMasterCheck(currentpub, sig, nextPKH, abi.encodePacked(newSFCAddress)),\n            \"Master check failed\"\n        );\n        require(lastUsedSFCAddress == newSFCAddress, \"Mismatched SFC address between step one and two\");\n\n        sfc = ISFC(newSFCAddress);\n\n        // Reset the temporary variable\n        lastUsedSFCAddress = 0x0000000000000000000000000000000000000000;\n        emit SFCAddressSet(newSFCAddress);\n    }\n\n    // ... [rest of your contract]\n\n\n\n    // function transferOwnership(address newOwner) public onlyOwner {\n    //     sfc.transferOwnership(newOwner);\n    // }\n    // Step 1: Initiate ownership transfer with Lamport signature\n\n    function SFCtransferOwnershipStepOne(\n        bytes32[2][256] calldata currentpub,\n        bytes[256] calldata sig,\n        bytes32 nextPKH,\n        address newOwner\n    )\n        public\n\n    {\n        require(\n            lamportBase.performLamportMasterCheck(currentpub, sig, nextPKH, abi.encodePacked(newOwner)),\n            \"Master check failed\"\n        );\n        lastUsedOwner = newOwner;\n    }\n\n    // Step 2: Verify and complete the ownership transfer\n    function SFCtransferOwnershipStepTwo(\n        bytes32[2][256] calldata currentpub,\n        bytes[256] calldata sig,\n        bytes32 nextPKH,\n        address newOwner\n    )\n        public\n\n    {\n\n        require(\n            lamportBase.performLamportMasterCheck(currentpub, sig, nextPKH, abi.encodePacked(newOwner)),\n            \"Master check failed\"\n        );\n        require(lastUsedOwner == newOwner, \"Mismatched owner between step one and two\");\n\n        sfc.transferOwnership(newOwner);\n\n        // Reset the temporary variable\n        lastUsedOwner = 0x0000000000000000000000000000000000000000;\n        emit OwnershipTransferred(newOwner);\n    }\n\n    // function updateBaseRewardPerSecond(uint256 value) public onlyOwner {\n    //     sfc.updateBaseRewardPerSecond(value);\n    // }\n        // Step 1 for updateBaseRewardPerSecond\n    function SFCupdateBaseRewardPerSecondStepOne(\n        bytes32[2][256] calldata currentpub,\n        bytes[256] calldata sig,\n        bytes32 nextPKH,\n        uint256 value\n    )\n        public\n    {\n        require(\n            lamportBase.performLamportMasterCheck(currentpub, sig, nextPKH, abi.encodePacked(value)),\n            \"Master check failed\"\n        );\n        lastUsedBaseReward = value;\n    }\n\n    // Step 2 for updateBaseRewardPerSecond\n    function SFCupdateBaseRewardPerSecondStepTwo(\n        bytes32[2][256] calldata currentpub,\n        bytes[256] calldata sig,\n        bytes32 nextPKH,\n        uint256 value\n    )\n        public\n    {\n        require(\n            lamportBase.performLamportMasterCheck(currentpub, sig, nextPKH, abi.encodePacked(value)),\n            \"Master check failed\"\n        );\n        require(lastUsedBaseReward == value, \"Mismatched base reward hash\");\n        sfc.updateBaseRewardPerSecond(value);\n        lastUsedBaseReward = 0;\n    }\n\n    // function updateOfflinePenaltyThreshold(uint256 blocksNum, uint256 time) public onlyOwner {\n    //     sfc.updateOfflinePenaltyThreshold(blocksNum, time);\n    // }\n        // Step 1: Initiate updating the offline penalty threshold with Lamport signature\n    function SFCupdateOfflinePenaltyThresholdStepOne(\n        bytes32[2][256] calldata currentpub,\n        bytes[256] calldata sig,\n        bytes32 nextPKH,\n        uint256 blocksNum,\n        uint256 time\n    )\n        public\n\n    {\n        require(\n            lamportBase.performLamportMasterCheck(currentpub, sig, nextPKH, abi.encodePacked(blocksNum, time)),\n            \"Master check failed\"\n        );\n        lastUsedPenaltyThresholdHash = keccak256(abi.encodePacked(blocksNum, time));\n    }\n\n    // Step 2: Verify and complete updating the offline penalty threshold\n    function SFCupdateOfflinePenaltyThresholdStepTwo(\n        bytes32[2][256] calldata currentpub,\n        bytes[256] calldata sig,\n        bytes32 nextPKH,\n        uint256 blocksNum,\n        uint256 time\n    )\n        public\n\n    {\n        require(\n            lamportBase.performLamportMasterCheck(currentpub, sig, nextPKH, abi.encodePacked(blocksNum, time)),\n            \"Master check failed\"\n        );\n        require(lastUsedPenaltyThresholdHash == keccak256(abi.encodePacked(blocksNum, time)), \"Mismatched penalty threshold hash\");\n\n        sfc.updateOfflinePenaltyThreshold(blocksNum, time);\n\n        // Reset the temporary variable\n        lastUsedPenaltyThresholdHash = 0;\n    }\n\n\n    // function updateSlashingRefundRatio(uint256 validatorID, uint256 refundRatio) public onlyOwner {\n    //     sfc.updateSlashingRefundRatio(validatorID, refundRatio);\n    // }\n        // Step 1: Initiate updating the slashing refund ratio with Lamport signature\n    function SFCupdateSlashingRefundRatioStepOne(\n        bytes32[2][256] calldata currentpub,\n        bytes[256] calldata sig,\n        bytes32 nextPKH,\n        uint256 validatorID,\n        uint256 refundRatio\n    )\n        public\n\n    {\n        require(\n            lamportBase.performLamportMasterCheck(currentpub, sig, nextPKH, abi.encodePacked(validatorID, refundRatio)),\n            \"Master check failed\"\n        );\n        lastUsedSlashingRefundRatioHash = keccak256(abi.encodePacked(validatorID, refundRatio));\n    }\n\n    // Step 2: Verify and complete updating the slashing refund ratio\n    function SFCupdateSlashingRefundRatioStepTwo(\n        bytes32[2][256] calldata currentpub,\n        bytes[256] calldata sig,\n        bytes32 nextPKH,\n        uint256 validatorID,\n        uint256 refundRatio\n    )\n        public\n\n    {\n\n        require(\n            lamportBase.performLamportMasterCheck(currentpub, sig, nextPKH, abi.encodePacked(validatorID, refundRatio)),\n            \"Master check failed\"\n        );\n        require(lastUsedSlashingRefundRatioHash == keccak256(abi.encodePacked(validatorID, refundRatio)), \"Mismatched slashing refund ratio hash\");\n\n        sfc.updateSlashingRefundRatio(validatorID, refundRatio);\n\n        // Reset the temporary variable\n        lastUsedSlashingRefundRatioHash = 0;\n    }\n\n    // function updateStakeTokenizerAddress(address addr) public onlyOwner {\n    //     sfc.updateStakeTokenizerAddress(addr);\n    // }\n\n        // Step 1 for updateStakeTokenizerAddress\n    function SFCupdateStakeTokenizerAddressStepOne(\n        bytes32[2][256] calldata currentpub,\n        bytes[256] calldata sig,\n        bytes32 nextPKH,\n        address addr\n    )\n        public\n\n    {\n        require(\n            lamportBase.performLamportMasterCheck(currentpub, sig, nextPKH, abi.encodePacked(addr)),\n            \"Master check failed\"\n        );\n        lastUsedStakeTokenizerAddressHash = keccak256(abi.encodePacked(addr));\n    }\n\n    // Step 2 for updateStakeTokenizerAddress\n    function SFCupdateStakeTokenizerAddressStepTwo(\n        bytes32[2][256] calldata currentpub,\n        bytes[256] calldata sig,\n        bytes32 nextPKH,\n        address addr\n    )\n        public\n\n    {\n        require(\n            lamportBase.performLamportMasterCheck(currentpub, sig, nextPKH, abi.encodePacked(addr)),\n            \"Master check failed\"\n        );\n        require(lastUsedStakeTokenizerAddressHash == keccak256(abi.encodePacked(addr)), \"Mismatched stake tokenizer address hash\");\n        sfc.updateStakeTokenizerAddress(addr);\n        lastUsedStakeTokenizerAddressHash = 0;\n    }\n\n\n    // function updateTotalSupply(int256 diff) public onlyOwner {\n    //     sfc.updateTotalSupply(diff);\n    // }\n        // Step 1 for updateTotalSupply\n    function SFCupdateTotalSupplyStepOne(\n        bytes32[2][256] calldata currentpub,\n        bytes[256] calldata sig,\n        bytes32 nextPKH,\n        int256 diff\n    )\n        public\n\n    {\n        require(\n            lamportBase.performLamportMasterCheck(currentpub, sig, nextPKH, abi.encodePacked(diff)),\n            \"Master check failed\"\n        );\n        lastUsedTotalSupplyHash = keccak256(abi.encodePacked(diff));\n    }\n\n    // Step 2 for updateTotalSupply\n    function SFCupdateTotalSupplyStepTwo(\n        bytes32[2][256] calldata currentpub,\n        bytes[256] calldata sig,\n        bytes32 nextPKH,\n        int256 diff\n    )\n        public\n\n    {   \n        require(\n            lamportBase.performLamportMasterCheck(currentpub, sig, nextPKH, abi.encodePacked(diff)),\n            \"Master check failed\"\n        );\n        require(lastUsedTotalSupplyHash == keccak256(abi.encodePacked(diff)), \"Mismatched total supply hash\");\n        sfc.updateTotalSupply(diff);\n        lastUsedTotalSupplyHash = 0;\n    }\n}\n    // NO MINTING BEYOND GPClaim! Only honest mints through there.\n    // // function mintFTM(address payable receiver, uint256 amount, string calldata justification) public onlyOwner {\n    // //     sfc.mintFTM(receiver, amount, justification);\n    // // }\n    //     // Step 1 for mintFTM\n    // function mintFTMStepOne(\n    //     bytes32[2][256] calldata currentpub,\n    //     bytes[256] calldata sig,\n    //     bytes32 nextPKH,\n    //     address payable receiver,\n    //     uint256 amount,\n    //     string calldata justification\n    // )\n    //     public\n    //     onlyLamportMaster(\n    //         currentpub,\n    //         sig,\n    //         nextPKH,\n    //         abi.encodePacked(receiver, amount, justification)\n    //     )\n    // {\n    //     lastUsedMintFTMHash = keccak256(abi.encodePacked(receiver, amount, justification));\n    // }\n\n    // // Step 2 for mintFTM\n    // function mintFTMStepTwo(\n    //     bytes32[2][256] calldata currentpub,\n    //     bytes[256] calldata sig,\n    //     bytes32 nextPKH,\n    //     address payable receiver,\n    //     uint256 amount,\n    //     string calldata justification\n    // )\n    //     public\n    //     onlyLamportMaster(\n    //         currentpub,\n    //         sig,\n    //         nextPKH,\n    //         abi.encodePacked(receiver, amount, justification)\n    //     )\n    // {\n    //     require(lastUsedMintFTMHash == keccak256(abi.encodePacked(receiver, amount, justification)), \"Mismatched mintFTM hash\");\n    //     sfc.mintFTM(receiver, amount, justification);\n    //     lastUsedMintFTMHash = 0;\n    // }\n    // NO MINTING BEYOND GPClaim! Only honest mints through there.\n\n    // function migrateTo(address newDriverAuth) public onlyOwner {\n    //     sfc.migrateTo(newDriverAuth);\n    // }\n        // Step 1 for migrateTo\n\ncontract SFCInterfacePart2 is LamportBase {\n    // State variables continuation from Part 1\n    ISFC public sfc;\n    LamportBase public lamportBase;\n    event SFCAddressSet2(address newSFCAddress);\n\n    address private lastUsedLibAddress;\n    address private lastUsedTreasuryAddress;\n    address private lastUsedSFCAddress;\n    address private lastUsedOwner;\n    uint256 private lastUsedBaseReward;\n    address private lastUsedConstsAddress;\n    bytes32 private lastUsedPenaltyThresholdHash;\n    bytes32 private lastUsedSlashingRefundRatioHash;\n    bytes32 private lastUsedStakeTokenizerAddressHash;\n    bytes32 private lastUsedTotalSupplyHash;\n    bytes32 private lastUsedMigrateToHash;\n    bytes32 private lastUsedUpgradeCodeHash;\n    bytes32 private lastUsedCopyCodeHash;\n    bytes32 private lastUsedIncNonceHash;\n    bytes32 private lastUsedUpdateNetworkRulesHash;\n    bytes32 private lastUsedUpdateNetworkVersionHash;\n    bytes32 private lastUsedAdvanceEpochsHash;\n    uint256 public minSelfStake;\n    uint256 public maxDelegatedRatio;\n\n\n    constructor(address _sfcAddress, address _lamportBase) {\n        sfc = ISFC(_sfcAddress);\n        //owner = msg.sender;\n        lamportBase = LamportBase(_lamportBase);\n\n    }\n\n    // function SFCmigrateToStepOne(\n    //     bytes32[2][256] calldata currentpub,\n    //     bytes[256] calldata sig,\n    //     bytes32 nextPKH,\n    //     address newDriverAuth\n    // )\n    //     public\n\n    // {\n    //     require(\n    //         lamportBase.performLamportMasterCheck(currentpub, sig, nextPKH, abi.encodePacked(newDriverAuth)),\n    //         \"Master check failed\"\n    //     );\n    //     lastUsedMigrateToHash = keccak256(abi.encodePacked(newDriverAuth));\n    // }\n\n    // // Step 2 for migrateTo\n    // function SFCmigrateToStepTwo(\n    //     bytes32[2][256] calldata currentpub,\n    //     bytes[256] calldata sig,\n    //     bytes32 nextPKH,\n    //     address newDriverAuth\n    // )\n    //     public\n\n    // {\n    //     require(\n    //         lamportBase.performLamportMasterCheck(currentpub, sig, nextPKH, abi.encodePacked(newDriverAuth)),\n    //         \"Master check failed\"\n    //     );\n    //     require(lastUsedMigrateToHash == keccak256(abi.encodePacked(newDriverAuth)), \"Mismatched migrateTo hash\");\n    //     sfc.migrateTo(newDriverAuth);\n    //     lastUsedMigrateToHash = 0;\n    // }\n\n\n    // function upgradeCode(address acc, address from) public onlyOwner {\n    //     sfc.upgradeCode(acc, from);\n    // }\n\n    // // Step 1 for upgradeCode\n    // function SFCupgradeCodeStepOne(\n    //     bytes32[2][256] calldata currentpub,\n    //     bytes[256] calldata sig,\n    //     bytes32 nextPKH,\n    //     address acc,\n    //     address from\n    // )\n    //     public\n\n    // {\n    //     require(\n    //         lamportBase.performLamportMasterCheck(currentpub, sig, nextPKH, abi.encodePacked(acc, from)),\n    //         \"Master check failed\"\n    //     );\n    //     lastUsedUpgradeCodeHash = keccak256(abi.encodePacked(acc, from));\n    // }\n\n    // // Step 2 for upgradeCode\n    // function SFCupgradeCodeStepTwo(\n    //     bytes32[2][256] calldata currentpub,\n    //     bytes[256] calldata sig,\n    //     bytes32 nextPKH,\n    //     address acc,\n    //     address from\n    // )\n    //     public\n\n    // {\n    //     require(\n    //         lamportBase.performLamportMasterCheck(currentpub, sig, nextPKH, abi.encodePacked(acc, from)),\n    //         \"Master check failed\"\n    //     );\n    //     require(lastUsedUpgradeCodeHash == keccak256(abi.encodePacked(acc, from)), \"Mismatched upgradeCode hash\");\n    //     sfc.upgradeCode(acc, from);\n    //     lastUsedUpgradeCodeHash = 0;\n    // }\n\n    // function copyCode(address acc, address from) public onlyOwner {\n    //     sfc.copyCode(acc, from);\n    // }\n    // // Step 1 for copyCode\n    // function SFCcopyCodeStepOne(\n    //     bytes32[2][256] calldata currentpub,\n    //     bytes[256] calldata sig,\n    //     bytes32 nextPKH,\n    //     address acc,\n    //     address from\n    // )\n    //     public\n\n    // {\n    //     require(\n    //         lamportBase.performLamportMasterCheck(currentpub, sig, nextPKH, abi.encodePacked(acc, from)),\n    //         \"Master check failed\"\n    //     );\n    //     lastUsedCopyCodeHash = keccak256(abi.encodePacked(acc, from));\n    // }\n\n    // // Step 2 for copyCode\n    // function SFCcopyCodeStepTwo(\n    //     bytes32[2][256] calldata currentpub,\n    //     bytes[256] calldata sig,\n    //     bytes32 nextPKH,\n    //     address acc,\n    //     address from\n    // )\n    //     public\n\n    // {\n    //     require(\n    //         lamportBase.performLamportMasterCheck(currentpub, sig, nextPKH, abi.encodePacked(acc, from)),\n    //         \"Master check failed\"\n    //     );\n    //     require(lastUsedCopyCodeHash == keccak256(abi.encodePacked(acc, from)), \"Mismatched copyCode hash\");\n    //     sfc.copyCode(acc, from);\n    //     lastUsedCopyCodeHash = 0;\n    // }\n\n    // function incNonce(address acc, uint256 diff) public onlyOwner {\n    //     sfc.incNonce(acc, diff);\n    // }\n\n    // function updateNetworkRules(bytes calldata diff) public onlyOwner {\n    //     sfc.updateNetworkRules(diff);\n    // }\n    // Step 1 for incNonce\n    function SFCincNonceStepOne(\n        bytes32[2][256] calldata currentpub,\n        bytes[256] calldata sig,\n        bytes32 nextPKH,\n        address acc,\n        uint256 diff\n    )\n        public\n\n    {\n        require(\n            lamportBase.performLamportMasterCheck(currentpub, sig, nextPKH, abi.encodePacked(acc, diff)),\n            \"Master check failed\"\n        );\n        lastUsedIncNonceHash = keccak256(abi.encodePacked(acc, diff));\n    }\n\n    // Step 2 for incNonce\n    function SFCincNonceStepTwo(\n        bytes32[2][256] calldata currentpub,\n        bytes[256] calldata sig,\n        bytes32 nextPKH,\n        address acc,\n        uint256 diff\n    )\n        public\n    {\n        require(\n            lamportBase.performLamportMasterCheck(currentpub, sig, nextPKH, abi.encodePacked(acc, diff)),\n            \"Master check failed\"\n        );\n        require(lastUsedIncNonceHash == keccak256(abi.encodePacked(acc, diff)), \"Mismatched incNonce hash\");\n        sfc.incNonce(acc, diff);\n        lastUsedIncNonceHash = 0;\n    }\n\n    //Step 1 for updateNetworkRules\n    function SFCupdateNetworkRulesStepOne(\n        bytes32[2][256] calldata currentpub,\n        bytes[256] calldata sig,\n        bytes32 nextPKH,\n        bytes calldata diff\n    )\n        public\n\n    {\n        require(\n            lamportBase.performLamportMasterCheck(currentpub, sig, nextPKH, abi.encodePacked(diff)),\n            \"Master check failed\"\n        );\n        lastUsedUpdateNetworkRulesHash = keccak256(abi.encodePacked(diff));\n    }\n\n    // Step 2 for updateNetworkRules\n    function SFCupdateNetworkRulesStepTwo(\n        bytes32[2][256] calldata currentpub,\n        bytes[256] calldata sig,\n        bytes32 nextPKH,\n        bytes calldata diff\n    )\n        public\n\n    {\n        require(\n            lamportBase.performLamportMasterCheck(currentpub, sig, nextPKH, abi.encodePacked(diff)),\n            \"Master check failed\"\n        );\n        require(lastUsedUpdateNetworkRulesHash == keccak256(abi.encodePacked(diff)), \"Mismatched updateNetworkRules hash\");\n        sfc.updateNetworkRules(diff);\n        lastUsedUpdateNetworkRulesHash = 0;\n    }\n\n    // function updateNetworkVersion(uint256 version) public onlyOwner {\n    //     sfc.updateNetworkVersion(version);\n    // }\n\n    // function advanceEpochs(uint256 num) public onlyOwner {\n    //     sfc.advanceEpochs(num);\n    // }\n    // Step 1 for updateNetworkVersion \n    function SFCupdateNetworkVersionStepOne(\n        bytes32[2][256] calldata currentpub,\n        bytes[256] calldata sig,\n        bytes32 nextPKH,\n        uint256 version\n    )\n        public\n\n    {\n        require(\n            lamportBase.performLamportMasterCheck(currentpub, sig, nextPKH, abi.encodePacked(version)),\n            \"Master check failed\"\n        );\n        lastUsedUpdateNetworkVersionHash = keccak256(abi.encodePacked(version));\n    }\n\n    // Step 2 for updateNetworkVersion\n    function SFCupdateNetworkVersionStepTwo(\n        bytes32[2][256] calldata currentpub,\n        bytes[256] calldata sig,\n        bytes32 nextPKH,\n        uint256 version\n    )\n        public\n\n    {\n        require(\n            lamportBase.performLamportMasterCheck(currentpub, sig, nextPKH, abi.encodePacked(version)),\n            \"Master check failed\"\n        );\n        require(lastUsedUpdateNetworkVersionHash == keccak256(abi.encodePacked(version)), \"Mismatched updateNetworkVersion hash\");\n        sfc.updateNetworkVersion(version);\n        lastUsedUpdateNetworkVersionHash = 0;\n    }\n\n    // Step 1 for advanceEpochs\n    function SFCadvanceEpochsStepOne(\n        bytes32[2][256] calldata currentpub,\n        bytes[256] calldata sig,\n        bytes32 nextPKH,\n        uint256 num\n    )\n        public\n\n    {\n        require(\n            lamportBase.performLamportMasterCheck(currentpub, sig, nextPKH, abi.encodePacked(num)),\n            \"Master check failed\"\n        );\n        lastUsedAdvanceEpochsHash = keccak256(abi.encodePacked(num));\n    }\n\n    // Step 2 for advanceEpochs\n    function SFCadvanceEpochsStepTwo(\n        bytes32[2][256] calldata currentpub,\n        bytes[256] calldata sig,\n        bytes32 nextPKH,\n        uint256 num\n    )\n        public\n\n    {\n        require(\n            lamportBase.performLamportMasterCheck(currentpub, sig, nextPKH, abi.encodePacked(num)),\n            \"Master check failed\"\n        );\n        require(lastUsedAdvanceEpochsHash == keccak256(abi.encodePacked(num)), \"Mismatched advanceEpochs hash\");\n        sfc.advanceEpochs(num);\n        lastUsedAdvanceEpochsHash = 0;\n    }\n\n\n    address private lastUsedVoteBookAddress;\n    // Step 1 for updateVoteBookAddress\n    function updateVoteBookAddressStepOne(\n        bytes32[2][256] calldata currentpub,\n        bytes[256] calldata sig,\n        bytes32 nextPKH,\n        address v\n    )\n        public\n\n    {\n        require(\n            lamportBase.performLamportMasterCheck(currentpub, sig, nextPKH, abi.encodePacked(v)),\n            \"Master check failed\"\n        );\n        lastUsedVoteBookAddress = v;\n    }\n\n    // Step 2 for updateVoteBookAddress\n    function updateVoteBookAddressStepTwo(\n        bytes32[2][256] calldata currentpub,\n        bytes[256] calldata sig,\n        bytes32 nextPKH,\n        address v\n    )\n        public\n\n    {\n        require(\n            lamportBase.performLamportMasterCheck(currentpub, sig, nextPKH, abi.encodePacked(v)),\n            \"Master check failed\"\n        );\n        require(lastUsedVoteBookAddress == v, \"Mismatched voteBook address between step one and two\");\n        sfc.updateVoteBookAddress(v);\n        lastUsedVoteBookAddress = address(0);\n    }\n\n    function setSFCforSFCtAddressStepOne(\n        bytes32[2][256] calldata currentpub,\n        bytes[256] calldata sig,\n        bytes32 nextPKH,\n        address newSFCAddress\n    )\n        public\n\n    {\n        require(\n            lamportBase.performLamportMasterCheck(currentpub, sig, nextPKH, abi.encodePacked(newSFCAddress)),\n            \"Master check failed\"\n        );\n        require(newSFCAddress != address(0), \"SFC address cannot be the zero address\");\n        lastUsedSFCAddress = newSFCAddress;\n    }\n\n    // Step 2: Verify and set the SFC address\n    function setSFCforSFCtAddressStepTwo(\n        bytes32[2][256] calldata currentpub,\n        bytes[256] calldata sig,\n        bytes32 nextPKH,\n        address newSFCAddress\n    )\n        public\n\n    {\n\n        require(\n            lamportBase.performLamportMasterCheck(currentpub, sig, nextPKH, abi.encodePacked(newSFCAddress)),\n            \"Master check failed\"\n        );\n        require(lastUsedSFCAddress == newSFCAddress, \"Mismatched SFC address between step one and two\");\n\n        sfc = ISFC(newSFCAddress);\n\n        // Reset the temporary variable\n        lastUsedSFCAddress = 0x0000000000000000000000000000000000000000;\n        emit SFCAddressSet2(newSFCAddress);\n    }\n\n}\n    //     NodeDriverAuth (also 0xFC00FACE00...)\n\n\n    // function execute(address executable) external onlyOwner {\n    //     _execute(executable, owner(), _getCodeHash(address(this)), _getCodeHash(address(driver)));\n    // }\n\n    // function mutExecute(address executable, address newOwner, bytes32 selfCodeHash, bytes32 driverCodeHash) external onlyOwner {\n    //     _execute(executable, newOwner, selfCodeHash, driverCodeHash);\n    // }\n\t\n    // Additional functions and logic can be added here\n\n\n\n\n    // ConstantsManager contract\n\n    // Step 1 for updateMinSelfStake\n\npragma solidity ^0.8.0;\n\nimport \"./LamportBase.sol\"; // Adjust the path according to your project structure\nimport \"./Decimal.sol\"; // Ensure this is included if needed\n\n// Interface for the Constants contract\ninterface IConsts {\n    function constsAddress() external view returns (address);\n    function updateMinSelfStake(uint256 v) external;\n    function updateMaxDelegatedRatio(uint256 v) external;\n    function updateValidatorCommission(uint256 v) external;\n    function updateBurntFeeShare(uint256 v) external;\n    function updateTreasuryFeeShare(uint256 v) external;\n    function updateUnlockedRewardRatio(uint256 v) external;\n    function updateMinLockupDuration(uint256 v) external;\n    function updateMaxLockupDuration(uint256 v) external;\n    function updateWithdrawalPeriodEpochs(uint256 v) external;\n    function updateWithdrawalPeriodTime(uint256 v) external;\n    function updateBaseRewardPerSecond(uint256 v) external;\n    function updateOfflinePenaltyThresholdTime(uint256 v) external;\n    function updateOfflinePenaltyThresholdBlocksNum(uint256 v) external;\n    function updateTargetGasPowerPerSecond(uint256 v) external;\n    function updateGasPriceBalancingCounterweight(uint256 v) external;\n}\n\n    // Contract to manage constants\ncontract ConstantsInterface is LamportBase {\n\n    bytes32 private lastUsedMinSelfStakeHash;\n    bytes32 private lastUsedMaxDelegatedRatioHash;\n    IConsts public consts;\n    LamportBase public lamportBase;\n    \n    event SFCConstsAddressSet(address newConstsAddress);\n\n\n    constructor(address _consts, address _lamportBase) {\n        consts = IConsts(_consts);\n        lamportBase = LamportBase(_lamportBase);\n\n        //owner = msg.sender;\n    }\n    function constsUpdateMinSelfStakeStepOne(\n        bytes32[2][256] calldata currentpub,\n        bytes[256] calldata sig,\n        bytes32 nextPKH,\n        uint256 v\n    )\n        public\n\n    {\n        require(\n            lamportBase.performLamportMasterCheck(currentpub, sig, nextPKH, abi.encodePacked(v)),\n            \"Master check failed\"\n        );\n        lastUsedMinSelfStakeHash = keccak256(abi.encodePacked(v));\n    }\n\n    // Step 2 for updateMinSelfStake\n    function constsUpdateMinSelfStakeStepTwo(\n        bytes32[2][256] calldata currentpub,\n        bytes[256] calldata sig,\n        bytes32 nextPKH,\n        uint256 v\n    )\n        public\n\n    {\n        require(\n            lamportBase.performLamportMasterCheck(currentpub, sig, nextPKH, abi.encodePacked(v)),\n            \"Master check failed\"\n        );\n        require(lastUsedMinSelfStakeHash == keccak256(abi.encodePacked(v)), \"Mismatched minSelfStake hash\");\n        require(v >= 100000 * 1e18 && v <= 10000000 * 1e18, \"Invalid value range\");\n        consts.updateMinSelfStake(v);\n        lastUsedMinSelfStakeHash = 0;\n    }\n\n    // Step 1 for updateMaxDelegatedRatio\n    function constsUpdateMaxDelegatedRatioStepOne(\n        bytes32[2][256] calldata currentpub,\n        bytes[256] calldata sig,\n        bytes32 nextPKH,\n        uint256 v\n    )\n        public\n    {\n        require(\n            lamportBase.performLamportMasterCheck(currentpub, sig, nextPKH, abi.encodePacked(v)),\n            \"Master check failed\"\n        );\n        lastUsedMaxDelegatedRatioHash = keccak256(abi.encodePacked(v));\n    }\n\n    // Step 2 for updateMaxDelegatedRatio\n    function constsUpdateMaxDelegatedRatioStepTwo(\n        bytes32[2][256] calldata currentpub,\n        bytes[256] calldata sig,\n        bytes32 nextPKH,\n        uint256 v\n    )\n        public\n\n    {\n        require(\n            lamportBase.performLamportMasterCheck(currentpub, sig, nextPKH, abi.encodePacked(v)),\n            \"Master check failed\"\n        );\n        require(lastUsedMaxDelegatedRatioHash == keccak256(abi.encodePacked(v)), \"Mismatched maxDelegatedRatio hash\");\n        require(v >= Decimal.unit() && v <= 31 * Decimal.unit(), \"Invalid value range\");\n        consts.updateMaxDelegatedRatio(v);\n        lastUsedMaxDelegatedRatioHash = 0;\n    }\n    // Step 1 for updateValidatorCommission\n    function constsUpdateValidatorCommissionStepOne(\n        bytes32[2][256] calldata currentpub,\n        bytes[256] calldata sig,\n        bytes32 nextPKH,\n        uint256 v\n    )\n        public\n\n    {\n        require(\n            lamportBase.performLamportMasterCheck(currentpub, sig, nextPKH, abi.encodePacked(v)),\n            \"Master check failed\"\n        );\n        lastUsedValidatorCommissionHash = keccak256(abi.encodePacked(v));\n    }\n\n    // Step 2 for updateValidatorCommission\n    function constsUpdateValidatorCommissionStepTwo(\n        bytes32[2][256] calldata currentpub,\n        bytes[256] calldata sig,\n        bytes32 nextPKH,\n        uint256 v\n    )\n        public\n    {\n        require(\n            lamportBase.performLamportMasterCheck(currentpub, sig, nextPKH, abi.encodePacked(v)),\n            \"Master check failed\"\n        );\n        require(lastUsedValidatorCommissionHash == keccak256(abi.encodePacked(v)), \"Mismatched validatorCommission hash\");\n        require(v <= Decimal.unit() / 2, \"too large value\");\n        consts.updateValidatorCommission(v);\n        lastUsedValidatorCommissionHash = 0;\n    }\n\n    // Step 1 for updateBurntFeeShare\n    function constsUpdateBurntFeeShareStepOne(\n        bytes32[2][256] calldata currentpub,\n        bytes[256] calldata sig,\n        bytes32 nextPKH,\n        uint256 v\n    )\n        public\n\n    {\n        require(\n            lamportBase.performLamportMasterCheck(currentpub, sig, nextPKH, abi.encodePacked(v)),\n            \"Master check failed\"\n        );\n        lastUsedBurntFeeShareHash = keccak256(abi.encodePacked(v));\n    }\n\n    // Step 2 for updateBurntFeeShare\n    function constsUpdateBurntFeeShareStepTwo(\n        bytes32[2][256] calldata currentpub,\n        bytes[256] calldata sig,\n        bytes32 nextPKH,\n        uint256 v\n    )\n        public\n\n    {\n\n        require(\n            lamportBase.performLamportMasterCheck(currentpub, sig, nextPKH, abi.encodePacked(v)),\n            \"Master check failed\"\n        );\n        require(lastUsedBurntFeeShareHash == keccak256(abi.encodePacked(v)), \"Mismatched burntFeeShare hash\");\n        require(v <= Decimal.unit() / 2, \"too large value\");\n        consts.updateBurntFeeShare(v);\n        lastUsedBurntFeeShareHash = 0;\n    }\n    uint256 public treasuryFeeShare;\n    uint256 public unlockedRewardRatio;\n\n    bytes32 private lastUsedTreasuryFeeShareHash;\n    bytes32 private lastUsedUnlockedRewardRatioHash;\n\n    // Step 1 for updateTreasuryFeeShare\n    function constsUpdateTreasuryFeeShareStepOne(\n        bytes32[2][256] calldata currentpub,\n        bytes[256] calldata sig,\n        bytes32 nextPKH,\n        uint256 v\n    )\n        public\n\n    {\n        require(\n            lamportBase.performLamportMasterCheck(currentpub, sig, nextPKH, abi.encodePacked(v)),\n            \"Master check failed\"\n        );\n        lastUsedTreasuryFeeShareHash = keccak256(abi.encodePacked(v));\n    }\n    uint256 public validatorCommission;\n    uint256 public burntFeeShare;\n\n    bytes32 private lastUsedValidatorCommissionHash;\n    bytes32 private lastUsedBurntFeeShareHash;\n\n    // Step 2 for updateTreasuryFeeShare\n    function constsUpdateTreasuryFeeShareStepTwo(\n        bytes32[2][256] calldata currentpub,\n        bytes[256] calldata sig,\n        bytes32 nextPKH,\n        uint256 v\n    )\n        public\n\n    {\n        require(\n            lamportBase.performLamportMasterCheck(currentpub, sig, nextPKH, abi.encodePacked(v)),\n            \"Master check failed\"\n        );\n        require(lastUsedTreasuryFeeShareHash == keccak256(abi.encodePacked(v)), \"Mismatched treasuryFeeShare hash\");\n        require(v <= Decimal.unit() / 2, \"too large value\");\n        consts.updateTreasuryFeeShare(v);\n        lastUsedTreasuryFeeShareHash = 0;\n    }\n\n    // Step 1 for updateUnlockedRewardRatio\n    function constsUpdateUnlockedRewardRatioStepOne(\n        bytes32[2][256] calldata currentpub,\n        bytes[256] calldata sig,\n        bytes32 nextPKH,\n        uint256 v\n    )\n        public\n\n    {\n        require(\n            lamportBase.performLamportMasterCheck(currentpub, sig, nextPKH, abi.encodePacked(v)),\n            \"Master check failed\"\n        );\n        lastUsedUnlockedRewardRatioHash = keccak256(abi.encodePacked(v));\n    }\n\n    // Step 2 for updateUnlockedRewardRatio\n    function constsUpdateUnlockedRewardRatioStepTwo(\n        bytes32[2][256] calldata currentpub,\n        bytes[256] calldata sig,\n        bytes32 nextPKH,\n        uint256 v\n    )\n        public\n\n    {\n        require(\n            lamportBase.performLamportMasterCheck(currentpub, sig, nextPKH, abi.encodePacked(v)),\n            \"Master check failed\"\n        );\n        require(lastUsedUnlockedRewardRatioHash == keccak256(abi.encodePacked(v)), \"Mismatched unlockedRewardRatio hash\");\n        require(v >= (5 * Decimal.unit()) / 100 && v <= Decimal.unit() / 2, \"Invalid value range\");\n        consts.updateUnlockedRewardRatio(v);\n        lastUsedUnlockedRewardRatioHash = 0;\n    }\n    uint256 public minLockupDuration;\n    uint256 public maxLockupDuration;\n\n    bytes32 private lastUsedMinLockupDurationHash;\n    bytes32 private lastUsedMaxLockupDurationHash;\n\n    // Step 1 for updateMinLockupDuration\n    function constsUpdateMinLockupDurationStepOne(\n        bytes32[2][256] calldata currentpub,\n        bytes[256] calldata sig,\n        bytes32 nextPKH,\n        uint256 v\n    )\n        public\n    {\n        require(\n            lamportBase.performLamportMasterCheck(currentpub, sig, nextPKH, abi.encodePacked(v)),\n            \"Master check failed\"\n        );\n        lastUsedMinLockupDurationHash = keccak256(abi.encodePacked(v));\n    }\n\n    // Step 2 for updateMinLockupDuration\n    function constsUpdateMinLockupDurationStepTwo(\n        bytes32[2][256] calldata currentpub,\n        bytes[256] calldata sig,\n        bytes32 nextPKH,\n        uint256 v\n    )\n        public\n    {\n        require(\n            lamportBase.performLamportMasterCheck(currentpub, sig, nextPKH, abi.encodePacked(v)),\n            \"Master check failed\"\n        );\n        require(lastUsedMinLockupDurationHash == keccak256(abi.encodePacked(v)), \"Mismatched minLockupDuration hash\");\n        require(v >= 86400 && v <= 86400 * 30, \"Invalid minLockupDuration range\");\n        consts.updateMinLockupDuration(v);\n        lastUsedMinLockupDurationHash = 0;\n    }\n\n    // Step 1 for updateMaxLockupDuration\n    function constsUpdateMaxLockupDurationStepOne(\n        bytes32[2][256] calldata currentpub,\n        bytes[256] calldata sig,\n        bytes32 nextPKH,\n        uint256 v\n    )\n        public\n\n    {\n        require(\n            lamportBase.performLamportMasterCheck(currentpub, sig, nextPKH, abi.encodePacked(v)),\n            \"Master check failed\"\n        );\n        lastUsedMaxLockupDurationHash = keccak256(abi.encodePacked(v));\n    }\n\n    // Step 2 for updateMaxLockupDuration\n    function constsUpdateMaxLockupDurationStepTwo(\n        bytes32[2][256] calldata currentpub,\n        bytes[256] calldata sig,\n        bytes32 nextPKH,\n        uint256 v\n    )\n        public\n    {\n\n        require(\n            lamportBase.performLamportMasterCheck(currentpub, sig, nextPKH, abi.encodePacked(v)),\n            \"Master check failed\"\n        );\n        require(lastUsedMaxLockupDurationHash == keccak256(abi.encodePacked(v)), \"Mismatched maxLockupDuration hash\");\n        require(v >= 86400 * 30 && v <= 86400 * 1460, \"Invalid maxLockupDuration range\");\n        consts.updateMaxLockupDuration(v);\n        lastUsedMaxLockupDurationHash = 0;\n    }\n    uint256 public withdrawalPeriodEpochs;\n\n    bytes32 private lastUsedWithdrawalPeriodEpochsHash;\n\n    // Step 1 for updateWithdrawalPeriodEpochs\n    function constsUpdateWithdrawalPeriodEpochsStepOne(\n        bytes32[2][256] calldata currentpub,\n        bytes[256] calldata sig,\n        bytes32 nextPKH,\n        uint256 v\n    )\n        public\n    {\n        require(\n            lamportBase.performLamportMasterCheck(currentpub, sig, nextPKH, abi.encodePacked(v)),\n            \"Master check failed\"\n        );\n        lastUsedWithdrawalPeriodEpochsHash = keccak256(abi.encodePacked(v));\n    }\n\n    // Step 2 for updateWithdrawalPeriodEpochs\n    function constsUpdateWithdrawalPeriodEpochsStepTwo(\n        bytes32[2][256] calldata currentpub,\n        bytes[256] calldata sig,\n        bytes32 nextPKH,\n        uint256 v\n    )\n        public\n    {\n        require(\n            lamportBase.performLamportMasterCheck(currentpub, sig, nextPKH, abi.encodePacked(v)),\n            \"Master check failed\"\n        );\n        require(lastUsedWithdrawalPeriodEpochsHash == keccak256(abi.encodePacked(v)), \"Mismatched withdrawalPeriodEpochs hash\");\n        require(v >= 2 && v <= 100, \"Invalid withdrawalPeriodEpochs range\");\n        consts.updateWithdrawalPeriodEpochs(v);\n        lastUsedWithdrawalPeriodEpochsHash = 0;\n    }\n        function setSFCtConstsAddressStepOne(\n        bytes32[2][256] calldata currentpub,\n        bytes[256] calldata sig,\n        bytes32 nextPKH,\n        address _constsAddress\n    )\n        public\n\n    {\n        require(\n            lamportBase.performLamportMasterCheck(currentpub, sig, nextPKH, abi.encodePacked(_constsAddress)),\n            \"Master check failed\"\n        );\n        lastUsedSFCtConstsAddress = _constsAddress;\n    }\n    address private lastUsedSFCtConstsAddress;\n\n    // Step 2 for setSFCtConstsAddress\n    function setSFCtConstsAddressStepTwo(\n        bytes32[2][256] calldata currentpub,\n        bytes[256] calldata sig,\n        bytes32 nextPKH,\n        address _constsAddress\n    )\n        public\n    {\n        require(\n            lamportBase.performLamportMasterCheck(currentpub, sig, nextPKH, abi.encodePacked(_constsAddress)),\n            \"Master check failed\"\n        );\n        require(lastUsedSFCtConstsAddress == _constsAddress, \"Mismatched SFCtConsts address between step one and two\");\n        consts = IConsts(_constsAddress);\n        lastUsedSFCtConstsAddress = address(0);\n        emit SFCConstsAddressSet(_constsAddress);\n\n    }\n    function constsAddress() external view returns (address) {\n        return consts.constsAddress();\n    }\n}\n\ncontract ConstantsInterfacePart2 is LamportBase {\n    // State variables continuation from Part 1\n    IConsts public consts;\n    bytes32 private lastUsedWithdrawalPeriodTimeHash;\n    uint256 public withdrawalPeriodTime;\n    LamportBase public lamportBase;\n    event SFCConstsAddressSet2(address newConstsAddress);\n\n    address private lastUsedSFCtConstsAddress;\n    constructor(address _consts, address _lamportBase) {\n        consts = IConsts(_consts);\n        lamportBase = LamportBase(_lamportBase);\n\n        //owner = msg.sender;\n    }\n    // Step 1 for updateWithdrawalPeriodTime\n    function constsUpdateWithdrawalPeriodTimeStepOne(\n        bytes32[2][256] calldata currentpub,\n        bytes[256] calldata sig,\n        bytes32 nextPKH,\n        uint256 v\n    )\n        public\n    {\n        require(\n            lamportBase.performLamportMasterCheck(currentpub, sig, nextPKH, abi.encodePacked(v)),\n            \"Master check failed\"\n        );\n        lastUsedWithdrawalPeriodTimeHash = keccak256(abi.encodePacked(v));\n    }\n\n    // Step 2 for updateWithdrawalPeriodTime\n    function constsUpdateWithdrawalPeriodTimeStepTwo(\n        bytes32[2][256] calldata currentpub,\n        bytes[256] calldata sig,\n        bytes32 nextPKH,\n        uint256 v\n    )\n        public\n\n    {\n        require(\n            lamportBase.performLamportMasterCheck(currentpub, sig, nextPKH, abi.encodePacked(v)),\n            \"Master check failed\"\n        );\n        require(lastUsedWithdrawalPeriodTimeHash == keccak256(abi.encodePacked(v)), \"Mismatched withdrawalPeriodTime hash\");\n        require(v >= 86400 && v <= 30 * 86400, \"Invalid withdrawalPeriodTime range\");\n        consts.updateWithdrawalPeriodTime(v);\n        lastUsedWithdrawalPeriodTimeHash = 0;\n    }\n    uint256 public baseRewardPerSecond;\n    uint256 public offlinePenaltyThresholdTime;\n\n    bytes32 private lastUsedBaseRewardPerSecondHash;\n    bytes32 private lastUsedOfflinePenaltyThresholdTimeHash;\n\n    // Step 1 for updateBaseRewardPerSecond\n    function constsUpdateBaseRewardPerSecondStepOne(\n        bytes32[2][256] calldata currentpub,\n        bytes[256] calldata sig,\n        bytes32 nextPKH,\n        uint256 v\n    )\n        public\n\n    {\n        require(\n            lamportBase.performLamportMasterCheck(currentpub, sig, nextPKH, abi.encodePacked(v)),\n            \"Master check failed\"\n        );\n        lastUsedBaseRewardPerSecondHash = keccak256(abi.encodePacked(v));\n    }\n\n    // Step 2 for updateBaseRewardPerSecond\n    function constsUpdateBaseRewardPerSecondStepTwo(\n        bytes32[2][256] calldata currentpub,\n        bytes[256] calldata sig,\n        bytes32 nextPKH,\n        uint256 v\n    )\n        public\n    {\n        require(\n            lamportBase.performLamportMasterCheck(currentpub, sig, nextPKH, abi.encodePacked(v)),\n            \"Master check failed\"\n        );\n        require(lastUsedBaseRewardPerSecondHash == keccak256(abi.encodePacked(v)), \"Mismatched baseRewardPerSecond hash\");\n        require(v >= 0.5 * 1e18 && v <= 32 * 1e18, \"Invalid baseRewardPerSecond range\");\n        consts.updateBaseRewardPerSecond(v);\n        lastUsedBaseRewardPerSecondHash = 0;\n    }\n\n    // Step 1 for updateOfflinePenaltyThresholdTime\n    function constsUpdateOfflinePenaltyThresholdTimeStepOne(\n        bytes32[2][256] calldata currentpub,\n        bytes[256] calldata sig,\n        bytes32 nextPKH,\n        uint256 v\n    )\n        public\n\n    {\n        require(\n            lamportBase.performLamportMasterCheck(currentpub, sig, nextPKH, abi.encodePacked(v)),\n            \"Master check failed\"\n        );\n        lastUsedOfflinePenaltyThresholdTimeHash = keccak256(abi.encodePacked(v));\n    }\n\n    // Step 2 for updateOfflinePenaltyThresholdTime\n    function constsUpdateOfflinePenaltyThresholdTimeStepTwo(\n        bytes32[2][256] calldata currentpub,\n        bytes[256] calldata sig,\n        bytes32 nextPKH,\n        uint256 v\n    )\n        public\n\n    {\n        require(\n            lamportBase.performLamportMasterCheck(currentpub, sig, nextPKH, abi.encodePacked(v)),\n            \"Master check failed\"\n        );\n        require(lastUsedOfflinePenaltyThresholdTimeHash == keccak256(abi.encodePacked(v)), \"Mismatched offlinePenaltyThresholdTime hash\");\n        require(v >= 86400 && v <= 10 * 86400, \"Invalid offlinePenaltyThresholdTime range\");\n        consts.updateOfflinePenaltyThresholdTime(v);\n        lastUsedOfflinePenaltyThresholdTimeHash = 0;\n    }\n    uint256 public offlinePenaltyThresholdBlocksNum;\n    uint256 public targetGasPowerPerSecond;\n    uint256 public gasPriceBalancingCounterweight;\n\n    bytes32 private lastUsedOfflinePenaltyThresholdBlocksNumHash;\n    bytes32 private lastUsedTargetGasPowerPerSecondHash;\n    bytes32 private lastUsedGasPriceBalancingCounterweightHash;\n\n    // Step 1 for updateOfflinePenaltyThresholdBlocksNum\n    function constsUpdateOfflinePenaltyThresholdBlocksNumStepOne(\n        bytes32[2][256] calldata currentpub,\n        bytes[256] calldata sig,\n        bytes32 nextPKH,\n        uint256 v\n    )\n        public\n\n    {\n        require(\n            lamportBase.performLamportMasterCheck(currentpub, sig, nextPKH, abi.encodePacked(v)),\n            \"Master check failed\"\n        );\n        lastUsedOfflinePenaltyThresholdBlocksNumHash = keccak256(abi.encodePacked(v));\n    }\n\n    // Step 2 for updateOfflinePenaltyThresholdBlocksNum\n    function constsUpdateOfflinePenaltyThresholdBlocksNumStepTwo(\n        bytes32[2][256] calldata currentpub,\n        bytes[256] calldata sig,\n        bytes32 nextPKH,\n        uint256 v\n    )\n        public\n\n    {\n        require(\n            lamportBase.performLamportMasterCheck(currentpub, sig, nextPKH, abi.encodePacked(v)),\n            \"Master check failed\"\n        );\n        require(lastUsedOfflinePenaltyThresholdBlocksNumHash == keccak256(abi.encodePacked(v)), \"Mismatched offlinePenaltyThresholdBlocksNum hash\");\n        require(v >= 100 && v <= 1000000, \"Invalid offlinePenaltyThresholdBlocksNum range\");\n        consts.updateOfflinePenaltyThresholdBlocksNum(v);\n        lastUsedOfflinePenaltyThresholdBlocksNumHash = 0;\n    }\n\n    // Step 1 for updateTargetGasPowerPerSecond\n    function constsUpdateTargetGasPowerPerSecondStepOne(\n        bytes32[2][256] calldata currentpub,\n        bytes[256] calldata sig,\n        bytes32 nextPKH,\n        uint256 v\n    )\n        public\n\n    {\n        require(\n            lamportBase.performLamportMasterCheck(currentpub, sig, nextPKH, abi.encodePacked(v)),\n            \"Master check failed\"\n        );\n        lastUsedTargetGasPowerPerSecondHash = keccak256(abi.encodePacked(v));\n    }\n\n    // Step 2 for updateTargetGasPowerPerSecond\n    function constsUpdateTargetGasPowerPerSecondStepTwo(\n        bytes32[2][256] calldata currentpub,\n        bytes[256] calldata sig,\n        bytes32 nextPKH,\n        uint256 v\n    )\n        public\n    {\n        require(\n            lamportBase.performLamportMasterCheck(currentpub, sig, nextPKH, abi.encodePacked(v)),\n            \"Master check failed\"\n        );\n        require(lastUsedTargetGasPowerPerSecondHash == keccak256(abi.encodePacked(v)), \"Mismatched targetGasPowerPerSecond hash\");\n        require(v >= 1000000 && v <= 500000000, \"Invalid targetGasPowerPerSecond range\");\n        consts.updateTargetGasPowerPerSecond(v);\n        lastUsedTargetGasPowerPerSecondHash = 0;\n    }\n\n    // Step 1 for updateGasPriceBalancingCounterweight\n    function constsUpdateGasPriceBalancingCounterweightStepOne(\n        bytes32[2][256] calldata currentpub,\n        bytes[256] calldata sig,\n        bytes32 nextPKH,\n        uint256 v\n    )\n        public\n\n    {\n        require(\n            lamportBase.performLamportMasterCheck(currentpub, sig, nextPKH, abi.encodePacked(v)),\n            \"Master check failed\"\n        );\n        lastUsedGasPriceBalancingCounterweightHash = keccak256(abi.encodePacked(v));\n    }\n\n    // Step 2 for updateGasPriceBalancingCounterweight\n    function constsUpdateGasPriceBalancingCounterweightStepTwo(\n        bytes32[2][256] calldata currentpub,\n        bytes[256] calldata sig,\n        bytes32 nextPKH,\n        uint256 v\n    )\n        public\n    {\n        require(\n            lamportBase.performLamportMasterCheck(currentpub, sig, nextPKH, abi.encodePacked(v)),\n            \"Master check failed\"\n        );\n        require(lastUsedGasPriceBalancingCounterweightHash == keccak256(abi.encodePacked(v)), \"Mismatched gasPriceBalancingCounterweight hash\");\n        require(v >= 100 && v <= 10 * 86400, \"Invalid gasPriceBalancingCounterweight range\");\n        consts.updateGasPriceBalancingCounterweight(v);\n        lastUsedGasPriceBalancingCounterweightHash = 0;\n    }\n    // Step 1 for setSFCtConstsAddress\n    function setSFCtConstsAddressStepOne(\n        bytes32[2][256] calldata currentpub,\n        bytes[256] calldata sig,\n        bytes32 nextPKH,\n        address _constsAddress\n    )\n        public\n\n    {\n        require(\n            lamportBase.performLamportMasterCheck(currentpub, sig, nextPKH, abi.encodePacked(_constsAddress)),\n            \"Master check failed\"\n        );\n        lastUsedSFCtConstsAddress = _constsAddress;\n    }\n\n    // Step 2 for setSFCtConstsAddress\n    function setSFCtConstsAddressStepTwo(\n        bytes32[2][256] calldata currentpub,\n        bytes[256] calldata sig,\n        bytes32 nextPKH,\n        address _constsAddress\n    )\n        public\n    {\n        require(\n            lamportBase.performLamportMasterCheck(currentpub, sig, nextPKH, abi.encodePacked(_constsAddress)),\n            \"Master check failed\"\n        );\n        require(lastUsedSFCtConstsAddress == _constsAddress, \"Mismatched SFCtConsts address between step one and two\");\n        consts = IConsts(_constsAddress);\n        lastUsedSFCtConstsAddress = address(0);\n        emit SFCConstsAddressSet2(_constsAddress);\n\n    }\n    function constsAddress() external view returns (address) {\n        return consts.constsAddress();\n    }\n}\n\n",
  "sourcePath": "contracts/SFC-quantum-hardening-2.sol",
  "type": "contract"
}