{
  "abi": [
    {
      "inputs": [
        {
          "internalType": "address",
          "name": "_consts",
          "type": "address"
        },
        {
          "internalType": "address",
          "name": "_lamportBase",
          "type": "address"
        }
      ],
      "stateMutability": "nonpayable",
      "type": "constructor"
    },
    {
      "anonymous": false,
      "inputs": [
        {
          "indexed": false,
          "internalType": "enum LamportBase.KeyType",
          "name": "keyType",
          "type": "uint8"
        },
        {
          "indexed": false,
          "internalType": "bytes32",
          "name": "newPKH",
          "type": "bytes32"
        }
      ],
      "name": "KeyAdded",
      "type": "event"
    },
    {
      "anonymous": false,
      "inputs": [
        {
          "indexed": false,
          "internalType": "enum LamportBase.KeyType",
          "name": "originalKeyType",
          "type": "uint8"
        },
        {
          "indexed": false,
          "internalType": "bytes32",
          "name": "originalPKH",
          "type": "bytes32"
        },
        {
          "indexed": false,
          "internalType": "bytes32",
          "name": "modifiedPKH",
          "type": "bytes32"
        },
        {
          "indexed": false,
          "internalType": "enum LamportBase.KeyType",
          "name": "newKeyType",
          "type": "uint8"
        }
      ],
      "name": "KeyModified",
      "type": "event"
    },
    {
      "anonymous": false,
      "inputs": [
        {
          "indexed": false,
          "internalType": "uint256",
          "name": "hash",
          "type": "uint256"
        }
      ],
      "name": "LogLastCalculatedHash",
      "type": "event"
    },
    {
      "anonymous": false,
      "inputs": [
        {
          "indexed": false,
          "internalType": "enum LamportBase.KeyType",
          "name": "keyType",
          "type": "uint8"
        },
        {
          "indexed": false,
          "internalType": "bytes32",
          "name": "previousPKH",
          "type": "bytes32"
        },
        {
          "indexed": false,
          "internalType": "bytes32",
          "name": "newPKH",
          "type": "bytes32"
        }
      ],
      "name": "PkhUpdated",
      "type": "event"
    },
    {
      "anonymous": false,
      "inputs": [
        {
          "indexed": false,
          "internalType": "address",
          "name": "newConstsAddress",
          "type": "address"
        }
      ],
      "name": "SFCConstsAddressSet2",
      "type": "event"
    },
    {
      "anonymous": false,
      "inputs": [
        {
          "indexed": false,
          "internalType": "uint256",
          "name": "hashedData",
          "type": "uint256"
        }
      ],
      "name": "VerificationFailed",
      "type": "event"
    },
    {
      "inputs": [],
      "name": "baseRewardPerSecond",
      "outputs": [
        {
          "internalType": "uint256",
          "name": "",
          "type": "uint256"
        }
      ],
      "stateMutability": "view",
      "type": "function"
    },
    {
      "inputs": [],
      "name": "consts",
      "outputs": [
        {
          "internalType": "contract IConsts",
          "name": "",
          "type": "address"
        }
      ],
      "stateMutability": "view",
      "type": "function"
    },
    {
      "inputs": [],
      "name": "constsAddress",
      "outputs": [
        {
          "internalType": "address",
          "name": "",
          "type": "address"
        }
      ],
      "stateMutability": "view",
      "type": "function"
    },
    {
      "inputs": [
        {
          "internalType": "bytes32[2][256]",
          "name": "currentpub",
          "type": "bytes32[2][256]"
        },
        {
          "internalType": "bytes[256]",
          "name": "sig",
          "type": "bytes[256]"
        },
        {
          "internalType": "bytes32",
          "name": "nextPKH",
          "type": "bytes32"
        },
        {
          "internalType": "uint256",
          "name": "v",
          "type": "uint256"
        }
      ],
      "name": "constsUpdateBaseRewardPerSecondStepOne",
      "outputs": [],
      "stateMutability": "nonpayable",
      "type": "function"
    },
    {
      "inputs": [
        {
          "internalType": "bytes32[2][256]",
          "name": "currentpub",
          "type": "bytes32[2][256]"
        },
        {
          "internalType": "bytes[256]",
          "name": "sig",
          "type": "bytes[256]"
        },
        {
          "internalType": "bytes32",
          "name": "nextPKH",
          "type": "bytes32"
        },
        {
          "internalType": "uint256",
          "name": "v",
          "type": "uint256"
        }
      ],
      "name": "constsUpdateBaseRewardPerSecondStepTwo",
      "outputs": [],
      "stateMutability": "nonpayable",
      "type": "function"
    },
    {
      "inputs": [
        {
          "internalType": "bytes32[2][256]",
          "name": "currentpub",
          "type": "bytes32[2][256]"
        },
        {
          "internalType": "bytes[256]",
          "name": "sig",
          "type": "bytes[256]"
        },
        {
          "internalType": "bytes32",
          "name": "nextPKH",
          "type": "bytes32"
        },
        {
          "internalType": "uint256",
          "name": "v",
          "type": "uint256"
        }
      ],
      "name": "constsUpdateGasPriceBalancingCounterweightStepOne",
      "outputs": [],
      "stateMutability": "nonpayable",
      "type": "function"
    },
    {
      "inputs": [
        {
          "internalType": "bytes32[2][256]",
          "name": "currentpub",
          "type": "bytes32[2][256]"
        },
        {
          "internalType": "bytes[256]",
          "name": "sig",
          "type": "bytes[256]"
        },
        {
          "internalType": "bytes32",
          "name": "nextPKH",
          "type": "bytes32"
        },
        {
          "internalType": "uint256",
          "name": "v",
          "type": "uint256"
        }
      ],
      "name": "constsUpdateGasPriceBalancingCounterweightStepTwo",
      "outputs": [],
      "stateMutability": "nonpayable",
      "type": "function"
    },
    {
      "inputs": [
        {
          "internalType": "bytes32[2][256]",
          "name": "currentpub",
          "type": "bytes32[2][256]"
        },
        {
          "internalType": "bytes[256]",
          "name": "sig",
          "type": "bytes[256]"
        },
        {
          "internalType": "bytes32",
          "name": "nextPKH",
          "type": "bytes32"
        },
        {
          "internalType": "uint256",
          "name": "v",
          "type": "uint256"
        }
      ],
      "name": "constsUpdateOfflinePenaltyThresholdBlocksNumStepOne",
      "outputs": [],
      "stateMutability": "nonpayable",
      "type": "function"
    },
    {
      "inputs": [
        {
          "internalType": "bytes32[2][256]",
          "name": "currentpub",
          "type": "bytes32[2][256]"
        },
        {
          "internalType": "bytes[256]",
          "name": "sig",
          "type": "bytes[256]"
        },
        {
          "internalType": "bytes32",
          "name": "nextPKH",
          "type": "bytes32"
        },
        {
          "internalType": "uint256",
          "name": "v",
          "type": "uint256"
        }
      ],
      "name": "constsUpdateOfflinePenaltyThresholdBlocksNumStepTwo",
      "outputs": [],
      "stateMutability": "nonpayable",
      "type": "function"
    },
    {
      "inputs": [
        {
          "internalType": "bytes32[2][256]",
          "name": "currentpub",
          "type": "bytes32[2][256]"
        },
        {
          "internalType": "bytes[256]",
          "name": "sig",
          "type": "bytes[256]"
        },
        {
          "internalType": "bytes32",
          "name": "nextPKH",
          "type": "bytes32"
        },
        {
          "internalType": "uint256",
          "name": "v",
          "type": "uint256"
        }
      ],
      "name": "constsUpdateOfflinePenaltyThresholdTimeStepOne",
      "outputs": [],
      "stateMutability": "nonpayable",
      "type": "function"
    },
    {
      "inputs": [
        {
          "internalType": "bytes32[2][256]",
          "name": "currentpub",
          "type": "bytes32[2][256]"
        },
        {
          "internalType": "bytes[256]",
          "name": "sig",
          "type": "bytes[256]"
        },
        {
          "internalType": "bytes32",
          "name": "nextPKH",
          "type": "bytes32"
        },
        {
          "internalType": "uint256",
          "name": "v",
          "type": "uint256"
        }
      ],
      "name": "constsUpdateOfflinePenaltyThresholdTimeStepTwo",
      "outputs": [],
      "stateMutability": "nonpayable",
      "type": "function"
    },
    {
      "inputs": [
        {
          "internalType": "bytes32[2][256]",
          "name": "currentpub",
          "type": "bytes32[2][256]"
        },
        {
          "internalType": "bytes[256]",
          "name": "sig",
          "type": "bytes[256]"
        },
        {
          "internalType": "bytes32",
          "name": "nextPKH",
          "type": "bytes32"
        },
        {
          "internalType": "uint256",
          "name": "v",
          "type": "uint256"
        }
      ],
      "name": "constsUpdateTargetGasPowerPerSecondStepOne",
      "outputs": [],
      "stateMutability": "nonpayable",
      "type": "function"
    },
    {
      "inputs": [
        {
          "internalType": "bytes32[2][256]",
          "name": "currentpub",
          "type": "bytes32[2][256]"
        },
        {
          "internalType": "bytes[256]",
          "name": "sig",
          "type": "bytes[256]"
        },
        {
          "internalType": "bytes32",
          "name": "nextPKH",
          "type": "bytes32"
        },
        {
          "internalType": "uint256",
          "name": "v",
          "type": "uint256"
        }
      ],
      "name": "constsUpdateTargetGasPowerPerSecondStepTwo",
      "outputs": [],
      "stateMutability": "nonpayable",
      "type": "function"
    },
    {
      "inputs": [
        {
          "internalType": "bytes32[2][256]",
          "name": "currentpub",
          "type": "bytes32[2][256]"
        },
        {
          "internalType": "bytes[256]",
          "name": "sig",
          "type": "bytes[256]"
        },
        {
          "internalType": "bytes32",
          "name": "nextPKH",
          "type": "bytes32"
        },
        {
          "internalType": "uint256",
          "name": "v",
          "type": "uint256"
        }
      ],
      "name": "constsUpdateWithdrawalPeriodTimeStepOne",
      "outputs": [],
      "stateMutability": "nonpayable",
      "type": "function"
    },
    {
      "inputs": [
        {
          "internalType": "bytes32[2][256]",
          "name": "currentpub",
          "type": "bytes32[2][256]"
        },
        {
          "internalType": "bytes[256]",
          "name": "sig",
          "type": "bytes[256]"
        },
        {
          "internalType": "bytes32",
          "name": "nextPKH",
          "type": "bytes32"
        },
        {
          "internalType": "uint256",
          "name": "v",
          "type": "uint256"
        }
      ],
      "name": "constsUpdateWithdrawalPeriodTimeStepTwo",
      "outputs": [],
      "stateMutability": "nonpayable",
      "type": "function"
    },
    {
      "inputs": [
        {
          "internalType": "bytes32[2][256]",
          "name": "currentpub",
          "type": "bytes32[2][256]"
        },
        {
          "internalType": "bytes[256]",
          "name": "sig",
          "type": "bytes[256]"
        },
        {
          "internalType": "bytes32",
          "name": "nextPKH",
          "type": "bytes32"
        },
        {
          "internalType": "bytes",
          "name": "newmasterPKH",
          "type": "bytes"
        }
      ],
      "name": "createMasterKeyStepOne",
      "outputs": [],
      "stateMutability": "nonpayable",
      "type": "function"
    },
    {
      "inputs": [
        {
          "internalType": "bytes32[2][256]",
          "name": "currentpub",
          "type": "bytes32[2][256]"
        },
        {
          "internalType": "bytes[256]",
          "name": "sig",
          "type": "bytes[256]"
        },
        {
          "internalType": "bytes32",
          "name": "nextPKH",
          "type": "bytes32"
        },
        {
          "internalType": "bytes32",
          "name": "newmasterPKH",
          "type": "bytes32"
        }
      ],
      "name": "createMasterKeyStepTwo",
      "outputs": [],
      "stateMutability": "nonpayable",
      "type": "function"
    },
    {
      "inputs": [
        {
          "internalType": "bytes32[2][256]",
          "name": "currentpub",
          "type": "bytes32[2][256]"
        },
        {
          "internalType": "bytes32",
          "name": "nextPKH",
          "type": "bytes32"
        },
        {
          "internalType": "bytes[256]",
          "name": "sig",
          "type": "bytes[256]"
        },
        {
          "internalType": "bytes32",
          "name": "neworaclePKH",
          "type": "bytes32"
        }
      ],
      "name": "createOracleKeyFromMaster",
      "outputs": [],
      "stateMutability": "nonpayable",
      "type": "function"
    },
    {
      "inputs": [
        {
          "internalType": "bytes32[2][256]",
          "name": "currentpub",
          "type": "bytes32[2][256]"
        },
        {
          "internalType": "bytes[256]",
          "name": "sig",
          "type": "bytes[256]"
        },
        {
          "internalType": "bytes32",
          "name": "nextPKH",
          "type": "bytes32"
        },
        {
          "internalType": "bytes32",
          "name": "deleteKeyHash",
          "type": "bytes32"
        }
      ],
      "name": "deleteKeyStepOne",
      "outputs": [],
      "stateMutability": "nonpayable",
      "type": "function"
    },
    {
      "inputs": [
        {
          "internalType": "bytes32[2][256]",
          "name": "currentpub",
          "type": "bytes32[2][256]"
        },
        {
          "internalType": "bytes[256]",
          "name": "sig",
          "type": "bytes[256]"
        },
        {
          "internalType": "bytes32",
          "name": "nextPKH",
          "type": "bytes32"
        },
        {
          "internalType": "bytes32",
          "name": "confirmDeleteKeyHash",
          "type": "bytes32"
        }
      ],
      "name": "deleteKeyStepTwo",
      "outputs": [],
      "stateMutability": "nonpayable",
      "type": "function"
    },
    {
      "inputs": [],
      "name": "gasPriceBalancingCounterweight",
      "outputs": [
        {
          "internalType": "uint256",
          "name": "",
          "type": "uint256"
        }
      ],
      "stateMutability": "view",
      "type": "function"
    },
    {
      "inputs": [
        {
          "internalType": "bytes32",
          "name": "pkh",
          "type": "bytes32"
        }
      ],
      "name": "getKeyAndPosByPKH",
      "outputs": [
        {
          "internalType": "enum LamportBase.KeyType",
          "name": "",
          "type": "uint8"
        },
        {
          "internalType": "bytes32",
          "name": "",
          "type": "bytes32"
        },
        {
          "internalType": "uint256",
          "name": "",
          "type": "uint256"
        }
      ],
      "stateMutability": "view",
      "type": "function"
    },
    {
      "inputs": [
        {
          "internalType": "enum LamportBase.KeyType",
          "name": "privilege",
          "type": "uint8"
        }
      ],
      "name": "getPKHsByPrivilege",
      "outputs": [
        {
          "internalType": "bytes32[]",
          "name": "",
          "type": "bytes32[]"
        }
      ],
      "stateMutability": "view",
      "type": "function"
    },
    {
      "inputs": [
        {
          "internalType": "bytes32",
          "name": "masterPKH1",
          "type": "bytes32"
        },
        {
          "internalType": "bytes32",
          "name": "masterPKH2",
          "type": "bytes32"
        },
        {
          "internalType": "bytes32",
          "name": "oraclePKH",
          "type": "bytes32"
        }
      ],
      "name": "init",
      "outputs": [],
      "stateMutability": "nonpayable",
      "type": "function"
    },
    {
      "inputs": [
        {
          "internalType": "bytes32",
          "name": "",
          "type": "bytes32"
        }
      ],
      "name": "keyData",
      "outputs": [
        {
          "internalType": "enum LamportBase.KeyType",
          "name": "keyType",
          "type": "uint8"
        },
        {
          "internalType": "bytes32",
          "name": "pkh",
          "type": "bytes32"
        }
      ],
      "stateMutability": "view",
      "type": "function"
    },
    {
      "inputs": [
        {
          "internalType": "uint256",
          "name": "",
          "type": "uint256"
        }
      ],
      "name": "keys",
      "outputs": [
        {
          "internalType": "enum LamportBase.KeyType",
          "name": "keyType",
          "type": "uint8"
        },
        {
          "internalType": "bytes32",
          "name": "pkh",
          "type": "bytes32"
        }
      ],
      "stateMutability": "view",
      "type": "function"
    },
    {
      "inputs": [],
      "name": "lamportBase",
      "outputs": [
        {
          "internalType": "contract LamportBase",
          "name": "",
          "type": "address"
        }
      ],
      "stateMutability": "view",
      "type": "function"
    },
    {
      "inputs": [],
      "name": "lastUsedNextPKH",
      "outputs": [
        {
          "internalType": "bytes32",
          "name": "",
          "type": "bytes32"
        }
      ],
      "stateMutability": "view",
      "type": "function"
    },
    {
      "inputs": [],
      "name": "lastVerificationResult",
      "outputs": [
        {
          "internalType": "bool",
          "name": "",
          "type": "bool"
        }
      ],
      "stateMutability": "view",
      "type": "function"
    },
    {
      "inputs": [],
      "name": "offlinePenaltyThresholdBlocksNum",
      "outputs": [
        {
          "internalType": "uint256",
          "name": "",
          "type": "uint256"
        }
      ],
      "stateMutability": "view",
      "type": "function"
    },
    {
      "inputs": [],
      "name": "offlinePenaltyThresholdTime",
      "outputs": [
        {
          "internalType": "uint256",
          "name": "",
          "type": "uint256"
        }
      ],
      "stateMutability": "view",
      "type": "function"
    },
    {
      "inputs": [
        {
          "internalType": "bytes32[2][256]",
          "name": "currentpub",
          "type": "bytes32[2][256]"
        },
        {
          "internalType": "bytes[256]",
          "name": "sig",
          "type": "bytes[256]"
        },
        {
          "internalType": "bytes32",
          "name": "nextPKH",
          "type": "bytes32"
        },
        {
          "internalType": "bytes",
          "name": "prepacked",
          "type": "bytes"
        }
      ],
      "name": "performLamportMasterCheck",
      "outputs": [
        {
          "internalType": "bool",
          "name": "",
          "type": "bool"
        }
      ],
      "stateMutability": "nonpayable",
      "type": "function"
    },
    {
      "inputs": [
        {
          "internalType": "bytes32[2][256]",
          "name": "currentpub",
          "type": "bytes32[2][256]"
        },
        {
          "internalType": "bytes[256]",
          "name": "sig",
          "type": "bytes[256]"
        },
        {
          "internalType": "bytes32",
          "name": "nextPKH",
          "type": "bytes32"
        },
        {
          "internalType": "bytes",
          "name": "prepacked",
          "type": "bytes"
        }
      ],
      "name": "performLamportOracleCheck",
      "outputs": [
        {
          "internalType": "bool",
          "name": "",
          "type": "bool"
        }
      ],
      "stateMutability": "nonpayable",
      "type": "function"
    },
    {
      "inputs": [
        {
          "internalType": "bytes32[2][256]",
          "name": "currentpub",
          "type": "bytes32[2][256]"
        },
        {
          "internalType": "bytes[256]",
          "name": "sig",
          "type": "bytes[256]"
        },
        {
          "internalType": "bytes32",
          "name": "nextPKH",
          "type": "bytes32"
        },
        {
          "internalType": "address",
          "name": "_constsAddress",
          "type": "address"
        }
      ],
      "name": "setSFCtConstsAddressStepOne",
      "outputs": [],
      "stateMutability": "nonpayable",
      "type": "function"
    },
    {
      "inputs": [
        {
          "internalType": "bytes32[2][256]",
          "name": "currentpub",
          "type": "bytes32[2][256]"
        },
        {
          "internalType": "bytes[256]",
          "name": "sig",
          "type": "bytes[256]"
        },
        {
          "internalType": "bytes32",
          "name": "nextPKH",
          "type": "bytes32"
        },
        {
          "internalType": "address",
          "name": "_constsAddress",
          "type": "address"
        }
      ],
      "name": "setSFCtConstsAddressStepTwo",
      "outputs": [],
      "stateMutability": "nonpayable",
      "type": "function"
    },
    {
      "inputs": [],
      "name": "targetGasPowerPerSecond",
      "outputs": [
        {
          "internalType": "uint256",
          "name": "",
          "type": "uint256"
        }
      ],
      "stateMutability": "view",
      "type": "function"
    },
    {
      "inputs": [
        {
          "internalType": "uint256",
          "name": "bits",
          "type": "uint256"
        },
        {
          "internalType": "bytes[256]",
          "name": "sig",
          "type": "bytes[256]"
        },
        {
          "internalType": "bytes32[2][256]",
          "name": "pub",
          "type": "bytes32[2][256]"
        }
      ],
      "name": "verify_u256",
      "outputs": [
        {
          "internalType": "bool",
          "name": "",
          "type": "bool"
        }
      ],
      "stateMutability": "pure",
      "type": "function"
    },
    {
      "inputs": [],
      "name": "withdrawalPeriodTime",
      "outputs": [
        {
          "internalType": "uint256",
          "name": "",
          "type": "uint256"
        }
      ],
      "stateMutability": "view",
      "type": "function"
    }
  ],
  "bytecode": "60806040526000805460ff191690553480156200001b57600080fd5b5060405162003782380380620037828339810160408190526200003e916200008d565b600680546001600160a01b039384166001600160a01b03199182161790915560098054929093169116179055620000c5565b80516001600160a01b03811681146200008857600080fd5b919050565b60008060408385031215620000a157600080fd5b620000ac8362000070565b9150620000bc6020840162000070565b90509250929050565b6136ad80620000d56000396000f3fe608060405234801561001057600080fd5b50600436106102315760003560e01c80638ca9de6c11610130578063bd1d8b0c116100b8578063d86d744e1161007c578063d86d744e146104e2578063d9a7c1f9146104f5578063dcde3a73146104fe578063e673d71f14610511578063e74f0af01461052457600080fd5b8063bd1d8b0c1461048e578063bf7a1996146104a1578063ca334c90146104b4578063d46fa518146104c7578063d83c413c146104cf57600080fd5b8063b36cc22a116100ff578063b36cc22a1461042c578063b5c4d46b1461043f578063b82b842714610452578063b97b4f771461045b578063ba06db3c1461047b57600080fd5b80638ca9de6c146103c65780638eb8f1a6146103d9578063a9711ee3146103ec578063af82f3e71461041957600080fd5b80633f89bf50116101be57806356bf7b571161018257806356bf7b57146103595780635796841a146103845780635a68f01a14610397578063704433d7146103a0578063740ff1ba146103b357600080fd5b80633f89bf5014610304578063434c0e20146103175780634a89d52b1461032a5780634bdd44991461033d5780634e657d2a1461034657600080fd5b80632c8c36a5116102055780632c8c36a5146102aa5780632db9c0be146102b35780632fd5c247146102c6578063333f6111146102e85780633a3ef66c146102fb57600080fd5b8062cc7f831461023657806305aacc7d146102525780630b0ad508146102745780630cb6aaf114610289575b600080fd5b61023f600c5481565b6040519081526020015b60405180910390f35b610265610260366004612e90565b610537565b60405161024993929190612ee1565b610287610282366004612f00565b61063e565b005b61029c610297366004612e90565b6106c4565b604051610249929190612f2c565b61023f60115481565b6102876102c1366004612f71565b6106f6565b6000546102d890610100900460ff1681565b6040519015158152602001610249565b6102d86102f6366004612fea565b6108f9565b61023f60105481565b610287610312366004612f71565b6109ea565b610287610325366004612f71565b610ac6565b6102d8610338366004612fea565b610ba2565b61023f60055481565b610287610354366004612fea565b610bf9565b60095461036c906001600160a01b031681565b6040516001600160a01b039091168152602001610249565b610287610392366004612f71565b610dca565b61023f600f5481565b6102876103ae366004612f71565b611029565b6102876103c1366004612f71565b61123f565b6102876103d4366004612f71565b61144a565b6102876103e73660046130df565b611526565b61029c6103fa366004612e90565b6002602052600090815260409020805460019091015460ff9091169082565b6102d8610427366004613143565b6116cf565b61028761043a366004612f71565b611784565b61028761044d366004612f71565b611860565b61023f60085481565b61046e61046936600461319c565b611a6d565b60405161024991906131bd565b610287610489366004613219565b611c1d565b61028761049c366004613219565b611dbb565b6102876104af366004612f71565b611ea1565b6102876104c2366004612f71565b6120bb565b61036c6122cd565b6102876104dd366004612f71565b612340565b60065461036c906001600160a01b031681565b61023f600b5481565b61028761050c366004612f71565b6124e8565b61028761051f366004612f71565b6125c4565b610287610532366004612f71565b612af9565b60008181526002602081905260408083208151808301909252805484938493849390929091839160ff169081111561057157610571612ea9565b600281111561058257610582612ea9565b8152600191909101546020918201528101519091506000036105bf5760405162461bcd60e51b81526004016105b690613288565b60405180910390fd5b60005b60015481101561061e5785600182815481106105e0576105e06132bf565b9060005260206000209060020201600101540361060c5781516020909201519194509092509050610637565b80610616816132d5565b9150506105c2565b5060405162461bcd60e51b81526004016105b690613288565b9193909250565b60005460ff16156106915760405162461bcd60e51b815260206004820181905260248201527f4c616d706f7274426173653a20416c726561647920696e697469616c697a656460448201526064016105b6565b61069c600084612bd5565b6106a7600083612bd5565b6106b2600182612bd5565b50506000805460ff1916600117905550565b600181815481106106d457600080fd5b60009182526020909120600290910201805460019091015460ff909116915082565b600954604080516020808201859052825180830390910181528183019283905263333f611160e01b9092526001600160a01b039092169163333f6111916107469188918891889190604401613375565b6020604051808303816000875af1158015610765573d6000803e3d6000fd5b505050506040513d601f19601f820116820180604052508101906107899190613456565b6107a55760405162461bcd60e51b81526004016105b690613478565b60408051602081018390520160405160208183030381529060405280519060200120600754146108235760405162461bcd60e51b8152602060048201526024808201527f4d69736d617463686564207769746864726177616c506572696f6454696d65206044820152630d0c2e6d60e31b60648201526084016105b6565b620151808110158015610839575062278d008111155b6108905760405162461bcd60e51b815260206004820152602260248201527f496e76616c6964207769746864726177616c506572696f6454696d652072616e604482015261676560f01b60648201526084016105b6565b600654604051631154d9a960e21b8152600481018390526001600160a01b039091169063455366a490602401600060405180830381600087803b1580156108d657600080fd5b505af11580156108ea573d6000803e3d6000fd5b50506000600755505050505050565b6000805460ff1661091c5760405162461bcd60e51b81526004016105b6906134a5565b60008560405160200161092f91906134dc565b60408051601f198184030181529190528051602090910120905060005b60008281526002602081905260409091205460ff169081111561097157610971612ea9565b146109805760009150506109e2565b60008385604051602001610995929190613513565b6040516020818303038152906040528051906020012060001c905060006109bd82888a6116cf565b9050806109d057600093505050506109e2565b6109da8387612cee565b600193505050505b949350505050565b600954604080516020808201859052825180830390910181528183019283905263333f611160e01b9092526001600160a01b039092169163333f611191610a3a9188918891889190604401613375565b6020604051808303816000875af1158015610a59573d6000803e3d6000fd5b505050506040513d601f19601f82011682018060405250810190610a7d9190613456565b610a995760405162461bcd60e51b81526004016105b690613478565b60408051602081018390520160408051601f19818403018152919052805160209091012060125550505050565b600954604080516020808201859052825180830390910181528183019283905263333f611160e01b9092526001600160a01b039092169163333f611191610b169188918891889190604401613375565b6020604051808303816000875af1158015610b35573d6000803e3d6000fd5b505050506040513d601f19601f82011682018060405250810190610b599190613456565b610b755760405162461bcd60e51b81526004016105b690613478565b60408051602081018390520160408051601f19818403018152919052805160209091012060075550505050565b6000805460ff16610bc55760405162461bcd60e51b81526004016105b6906134a5565b600085604051602001610bd891906134dc565b60408051601f1981840301815291905280516020909101209050600161094c565b600054849084908490849060ff16610c235760405162461bcd60e51b81526004016105b6906134a5565b600084604051602001610c3691906134dc565b60408051601f19818403018152919052805160209091012090506000808281526002602081905260409091205460ff1690811115610c7657610c76612ea9565b14610c935760405162461bcd60e51b81526004016105b690613535565b60008284604051602001610ca8929190613513565b60408051601f198184030181529082905280516020918201208083529250600080516020613638833981519152910160405180910390a16000610cec8287896116cf565b6000805461ff00191661010083151502179055905080610d7057604051828152600080516020613618833981519152906020015b60405180910390a160405162461bcd60e51b815260206004820181905260248201527f4c616d706f7274426173653a20566572696669636174696f6e206661696c656460448201526064016105b6565b6000838152600260205260409081902054905160008051602061365883398151915291610da69160ff9091169086908990612ee1565b60405180910390a1610db88386612cee565b50505060059590955550505050505050565b83838383604051602001610de091815260200190565b60408051601f1981840301815291905260005460ff16610e125760405162461bcd60e51b81526004016105b6906134a5565b600084604051602001610e2591906134dc565b60408051601f19818403018152919052805160209091012090506000808281526002602081905260409091205460ff1690811115610e6557610e65612ea9565b14610e825760405162461bcd60e51b81526004016105b690613535565b60008284604051602001610e97929190613513565b60408051601f198184030181529082905280516020918201208083529250600080516020613638833981519152910160405180910390a16000610edb8287896116cf565b6000805461ff00191661010083151502179055905080610f135760405182815260008051602061361883398151915290602001610d20565b6000838152600260205260409081902054905160008051602061365883398151915291610f499160ff9091169086908990612ee1565b60405180910390a1610f5b8386612cee565b60008b604051602001610f6e91906134dc565b60408051601f1981840301815291905280516020909101206005805460009091559091508114158061100a576040805162461bcd60e51b81526020600482015260248101919091527f4c616d706f7274426173653a20504b48206d617463686573206c61737420757360448201527f656420504b482028757365207365706172617465207365636f6e64206b65792960648201526084016105b6565b61101560008b612bd5565b505060006005555050505050505050505050565b600954604080516020808201859052825180830390910181528183019283905263333f611160e01b9092526001600160a01b039092169163333f6111916110799188918891889190604401613375565b6020604051808303816000875af1158015611098573d6000803e3d6000fd5b505050506040513d601f19601f820116820180604052508101906110bc9190613456565b6110d85760405162461bcd60e51b81526004016105b690613478565b60408051602081018390520160405160208183030381529060405280519060200120601454146111615760405162461bcd60e51b815260206004820152602e60248201527f4d69736d61746368656420676173507269636542616c616e63696e67436f756e60448201526d0e8cae4eecad2ced0e840d0c2e6d60931b60648201526084016105b6565b606481101580156111755750620d2f008111155b6111d65760405162461bcd60e51b815260206004820152602c60248201527f496e76616c696420676173507269636542616c616e63696e67436f756e74657260448201526b7765696768742072616e676560a01b60648201526084016105b6565b6006546040516369fa46df60e11b8152600481018390526001600160a01b039091169063d3f48dbe90602401600060405180830381600087803b15801561121c57600080fd5b505af1158015611230573d6000803e3d6000fd5b50506000601455505050505050565b600954604080516020808201859052825180830390910181528183019283905263333f611160e01b9092526001600160a01b039092169163333f61119161128f9188918891889190604401613375565b6020604051808303816000875af11580156112ae573d6000803e3d6000fd5b505050506040513d601f19601f820116820180604052508101906112d29190613456565b6112ee5760405162461bcd60e51b81526004016105b690613478565b60408051602081018390520160405160208183030381529060405280519060200120601354146113705760405162461bcd60e51b815260206004820152602760248201527f4d69736d61746368656420746172676574476173506f7765725065725365636f6044820152660dcc840d0c2e6d60cb1b60648201526084016105b6565b620f424081101580156113875750631dcd65008111155b6113e15760405162461bcd60e51b815260206004820152602560248201527f496e76616c696420746172676574476173506f7765725065725365636f6e642060448201526472616e676560d81b60648201526084016105b6565b600654604051634332686760e01b8152600481018390526001600160a01b0390911690634332686790602401600060405180830381600087803b15801561142757600080fd5b505af115801561143b573d6000803e3d6000fd5b50506000601355505050505050565b600954604080516020808201859052825180830390910181528183019283905263333f611160e01b9092526001600160a01b039092169163333f61119161149a9188918891889190604401613375565b6020604051808303816000875af11580156114b9573d6000803e3d6000fd5b505050506040513d601f19601f820116820180604052508101906114dd9190613456565b6114f95760405162461bcd60e51b81526004016105b690613478565b60408051602081018390520160408051601f198184030181529190528051602090910120600d5550505050565b8382848360405160200161153c91815260200190565b60408051601f1981840301815291905260005460ff1661156e5760405162461bcd60e51b81526004016105b6906134a5565b60008460405160200161158191906134dc565b60408051601f19818403018152919052805160209091012090506000808281526002602081905260409091205460ff16908111156115c1576115c1612ea9565b146115de5760405162461bcd60e51b81526004016105b690613535565b600082846040516020016115f3929190613513565b60408051601f198184030181529082905280516020918201208083529250600080516020613638833981519152910160405180910390a160006116378287896116cf565b6000805461ff0019166101008315150217905590508061166f5760405182815260008051602061361883398151915290602001610d20565b60008381526002602052604090819020549051600080516020613658833981519152916116a59160ff9091169086908990612ee1565b60405180910390a16116b78386612cee565b6116c2600189612bd5565b5050505050505050505050565b6000805b61010081101561177757838161010081106116f0576116f06132bf565b602002810190611700919061356c565b60405161170e9291906135ba565b604051809103902083826101008110611729576117296132bf565b6040020160008360ff036001901b881611611745576000611748565b60015b60ff166002811061175b5761175b6132bf565b60200201351461176f57600091505061177d565b6001016116d3565b50600190505b9392505050565b600954604080516020808201859052825180830390910181528183019283905263333f611160e01b9092526001600160a01b039092169163333f6111916117d49188918891889190604401613375565b6020604051808303816000875af11580156117f3573d6000803e3d6000fd5b505050506040513d601f19601f820116820180604052508101906118179190613456565b6118335760405162461bcd60e51b81526004016105b690613478565b60408051602081018390520160408051601f198184030181529190528051602090910120600e5550505050565b600954604080516020808201859052825180830390910181528183019283905263333f611160e01b9092526001600160a01b039092169163333f6111916118b09188918891889190604401613375565b6020604051808303816000875af11580156118cf573d6000803e3d6000fd5b505050506040513d601f19601f820116820180604052508101906118f39190613456565b61190f5760405162461bcd60e51b81526004016105b690613478565b60408051602081018390520160405160208183030381529060405280519060200120600d541461198d5760405162461bcd60e51b815260206004820152602360248201527f4d69736d61746368656420626173655265776172645065725365636f6e6420686044820152620c2e6d60eb1b60648201526084016105b6565b6706f05b59d3b2000081101580156119ae57506801bc16d674ec8000008111155b611a045760405162461bcd60e51b815260206004820152602160248201527f496e76616c696420626173655265776172645065725365636f6e642072616e676044820152606560f81b60648201526084016105b6565b60065460405163b6d9edd560e01b8152600481018390526001600160a01b039091169063b6d9edd590602401600060405180830381600087803b158015611a4a57600080fd5b505af1158015611a5e573d6000803e3d6000fd5b50506000600d55505050505050565b60015460609060009067ffffffffffffffff811115611a8e57611a8e612fd4565b604051908082528060200260200182016040528015611ab7578160200160208202803683370190505b5090506000805b600154811015611b7857846002811115611ada57611ada612ea9565b60018281548110611aed57611aed6132bf565b600091825260209091206002918202015460ff1690811115611b1157611b11612ea9565b03611b665760018181548110611b2957611b296132bf565b906000526020600020906002020160010154838381518110611b4d57611b4d6132bf565b602090810291909101015281611b62816132d5565b9250505b80611b70816132d5565b915050611abe565b5060008167ffffffffffffffff811115611b9457611b94612fd4565b604051908082528060200260200182016040528015611bbd578160200160208202803683370190505b50905060005b82811015611c1457838181518110611bdd57611bdd6132bf565b6020026020010151828281518110611bf757611bf76132bf565b602090810291909101015280611c0c816132d5565b915050611bc3565b50949350505050565b60095460408051606084901b6bffffffffffffffffffffffff1916602082015281516014818303018152603482019283905263333f611160e01b9092526001600160a01b039092169163333f611191611c7f9188918891889190603801613375565b6020604051808303816000875af1158015611c9e573d6000803e3d6000fd5b505050506040513d601f19601f82011682018060405250810190611cc29190613456565b611cde5760405162461bcd60e51b81526004016105b690613478565b600a546001600160a01b03828116911614611d5a5760405162461bcd60e51b815260206004820152603660248201527f4d69736d6174636865642053464374436f6e7374732061646472657373206265604482015275747765656e2073746570206f6e6520616e642074776f60501b60648201526084016105b6565b600680546001600160a01b0383166001600160a01b03199182168117909255600a805490911690556040519081527fbd7db83a9be65be3c3e00ced885f01caf574e16b41b679616cd9cfb3a53eebd69060200160405180910390a150505050565b60095460408051606084901b6bffffffffffffffffffffffff1916602082015281516014818303018152603482019283905263333f611160e01b9092526001600160a01b039092169163333f611191611e1d9188918891889190603801613375565b6020604051808303816000875af1158015611e3c573d6000803e3d6000fd5b505050506040513d601f19601f82011682018060405250810190611e609190613456565b611e7c5760405162461bcd60e51b81526004016105b690613478565b600a80546001600160a01b0319166001600160a01b0392909216919091179055505050565b600954604080516020808201859052825180830390910181528183019283905263333f611160e01b9092526001600160a01b039092169163333f611191611ef19188918891889190604401613375565b6020604051808303816000875af1158015611f10573d6000803e3d6000fd5b505050506040513d601f19601f82011682018060405250810190611f349190613456565b611f505760405162461bcd60e51b81526004016105b690613478565b6040805160208101839052016040516020818303038152906040528051906020012060125414611fdb5760405162461bcd60e51b815260206004820152603060248201527f4d69736d617463686564206f66666c696e6550656e616c74795468726573686f60448201526f0d8c884d8dec6d6e69ceada40d0c2e6d60831b60648201526084016105b6565b60648110158015611fef5750620f42408111155b6120525760405162461bcd60e51b815260206004820152602e60248201527f496e76616c6964206f66666c696e6550656e616c74795468726573686f6c644260448201526d6c6f636b734e756d2072616e676560901b60648201526084016105b6565b600654604051631742747360e11b8152600481018390526001600160a01b0390911690632e84e8e690602401600060405180830381600087803b15801561209857600080fd5b505af11580156120ac573d6000803e3d6000fd5b50506000601255505050505050565b600954604080516020808201859052825180830390910181528183019283905263333f611160e01b9092526001600160a01b039092169163333f61119161210b9188918891889190604401613375565b6020604051808303816000875af115801561212a573d6000803e3d6000fd5b505050506040513d601f19601f8201168201806040525081019061214e9190613456565b61216a5760405162461bcd60e51b81526004016105b690613478565b60408051602081018390520160405160208183030381529060405280519060200120600e54146121f05760405162461bcd60e51b815260206004820152602b60248201527f4d69736d617463686564206f66666c696e6550656e616c74795468726573686f60448201526a0d8c8a8d2daca40d0c2e6d60ab1b60648201526084016105b6565b6201518081101580156122065750620d2f008111155b6122645760405162461bcd60e51b815260206004820152602960248201527f496e76616c6964206f66666c696e6550656e616c74795468726573686f6c6454604482015268696d652072616e676560b81b60648201526084016105b6565b600654604051630c691d7760e31b8152600481018390526001600160a01b0390911690636348ebb890602401600060405180830381600087803b1580156122aa57600080fd5b505af11580156122be573d6000803e3d6000fd5b50506000600e55505050505050565b60065460408051631a8df4a360e31b815290516000926001600160a01b03169163d46fa5189160048083019260209291908290030181865afa158015612317573d6000803e3d6000fd5b505050506040513d601f19601f8201168201806040525081019061233b91906135ca565b905090565b8383838360405160200161235691815260200190565b60408051601f1981840301815291905260005460ff166123885760405162461bcd60e51b81526004016105b6906134a5565b60008460405160200161239b91906134dc565b60408051601f19818403018152919052805160209091012090506000808281526002602081905260409091205460ff16908111156123db576123db612ea9565b146123f85760405162461bcd60e51b81526004016105b690613535565b6000828460405160200161240d929190613513565b60408051601f198184030181529082905280516020918201208083529250600080516020613638833981519152910160405180910390a160006124518287896116cf565b6000805461ff001916610100831515021790559050806124895760405182815260008051602061361883398151915290602001610d20565b60008381526002602052604090819020549051600080516020613658833981519152916124bf9160ff9091169086908990612ee1565b60405180910390a16124d18386612cee565b505050600394909455505050600491909155505050565b600954604080516020808201859052825180830390910181528183019283905263333f611160e01b9092526001600160a01b039092169163333f6111916125389188918891889190604401613375565b6020604051808303816000875af1158015612557573d6000803e3d6000fd5b505050506040513d601f19601f8201168201806040525081019061257b9190613456565b6125975760405162461bcd60e51b81526004016105b690613478565b60408051602081018390520160408051601f19818403018152919052805160209091012060145550505050565b838383836040516020016125da91815260200190565b60408051601f1981840301815291905260005460ff1661260c5760405162461bcd60e51b81526004016105b6906134a5565b60008460405160200161261f91906134dc565b60408051601f19818403018152919052805160209091012090506000808281526002602081905260409091205460ff169081111561265f5761265f612ea9565b1461267c5760405162461bcd60e51b81526004016105b690613535565b60008284604051602001612691929190613513565b60408051601f198184030181529082905280516020918201208083529250600080516020613638833981519152910160405180910390a160006126d58287896116cf565b6000805461ff0019166101008315150217905590508061270d5760405182815260008051602061361883398151915290602001610d20565b60008381526002602052604090819020549051600080516020613658833981519152916127439160ff9091169086908990612ee1565b60405180910390a16127558386612cee565b60008b60405160200161276891906134dc565b60405160208183030381529060405280519060200120905060045481036128015760405162461bcd60e51b815260206004820152604160248201527f4c616d706f7274426173653a2043616e6e6f7420757365207468652073616d6560448201527f206b6579636861696e20747769636520666f7220746869732066756e6374696f6064820152603760f91b608482015260a4016105b6565b88600354146128525760405162461bcd60e51b815260206004820152601e60248201527f4c616d706f7274426173653a204b65797320646f206e6f74206d61746368000060448201526064016105b6565b600454818a6000808481526002602081905260409091205460ff169081111561287d5761287d612ea9565b1480156128ab5750600082815260026020819052604082205460ff16908111156128a9576128a9612ea9565b145b61290e5760405162461bcd60e51b815260206004820152602e60248201527f4c616d706f7274426173653a2050726f7669646564206b65797320617265206e60448201526d6f74206d6173746572206b65797360901b60648201526084016105b6565b82811415801561291e5750818114155b6129845760405162461bcd60e51b815260206004820152603160248201527f4c616d706f7274426173653a204d6173746572206b6579732063616e6e6f742060448201527064656c657465207468656d73656c76657360781b60648201526084016105b6565b60008181526002602052604081206001015490036129f05760405162461bcd60e51b815260206004820152602360248201527f4c616d706f7274426173653a204e6f2073756368206b6579202864656c6574696044820152626f6e2960e81b60648201526084016105b6565b60005b600154811015612add578160018281548110612a1157612a116132bf565b90600052602060002090600202016001015403612acb57600082815260026020818152604080842080548251428186015244818501528351808203850181526060909101938490528051908501209588905292849052630de1e7ed60e41b85186001820181905560ff198416851790915560ff9092169391927f0643be3612916977c69d5ed1abb75a50cca49df49ba2444d836e2a0cf65fe07491612abb918691899187916135e7565b60405180910390a1505050612add565b80612ad5816132d5565b9150506129f3565b5050600060038190556004555050505050505050505050505050565b600954604080516020808201859052825180830390910181528183019283905263333f611160e01b9092526001600160a01b039092169163333f611191612b499188918891889190604401613375565b6020604051808303816000875af1158015612b68573d6000803e3d6000fd5b505050506040513d601f19601f82011682018060405250810190612b8c9190613456565b612ba85760405162461bcd60e51b81526004016105b690613478565b60408051602081018390520160408051601f19818403018152919052805160209091012060135550505050565b60006040518060400160405280846002811115612bf457612bf4612ea9565b81526020018390526001805480820182556000829052825160029182027fb10e2d527612073b26eecdfd717e6a320cf44b4afac2b0732d9fcbe2b7fa0cf6018054949550859490939192849260ff1990921691908490811115612c5957612c59612ea9565b021790555060209182015160019182015560008481526002928390526040902083518154859492939192849260ff1990921691908490811115612c9e57612c9e612ea9565b0217905550602082015181600101559050507f2172c7b01a6de957d29fd6166a23025d181bf56538ad606a526ab2d62603f3fc8383604051612ce1929190612f2c565b60405180910390a1505050565b6000828152600260205260408120600101549003612d1e5760405162461bcd60e51b81526004016105b690613288565b604080518082018252600084815260026020819052928120549092829160ff1690811115612d4e57612d4e612ea9565b8152602001838152509050806002600084815260200190815260200160002060008201518160000160006101000a81548160ff02191690836002811115612d9757612d97612ea9565b02179055506020918201516001918201556000858152600290925260408220805460ff19168155018190555b600154811015612e6d578360018281548110612de157612de16132bf565b90600052602060002090600202016001015403612e5b578160018281548110612e0c57612e0c6132bf565b906000526020600020906002020160008201518160000160006101000a81548160ff02191690836002811115612e4457612e44612ea9565b021790555060208201518160010155905050612e6d565b80612e65816132d5565b915050612dc3565b50805160405160008051602061365883398151915291612ce19186908690612ee1565b600060208284031215612ea257600080fd5b5035919050565b634e487b7160e01b600052602160045260246000fd5b60038110612edd57634e487b7160e01b600052602160045260246000fd5b9052565b60608101612eef8286612ebf565b602082019390935260400152919050565b600080600060608486031215612f1557600080fd5b505081359360208301359350604090920135919050565b60408101612f3a8285612ebf565b8260208301529392505050565b806140008101831015612f5957600080fd5b92915050565b806120008101831015612f5957600080fd5b6000806000806140608587031215612f8857600080fd5b612f928686612f47565b935061400085013567ffffffffffffffff811115612faf57600080fd5b612fbb87828801612f5f565b9497949650505050614020830135926140400135919050565b634e487b7160e01b600052604160045260246000fd5b600080600080614060858703121561300157600080fd5b61300b8686612f47565b935061400085013567ffffffffffffffff8082111561302957600080fd5b61303588838901612f5f565b9450614020870135935061404087013591508082111561305457600080fd5b818701915087601f83011261306857600080fd5b81358181111561307a5761307a612fd4565b604051601f8201601f19908116603f011681019083821181831017156130a2576130a2612fd4565b816040528281528a60208487010111156130bb57600080fd5b82602086016020830137600060208483010152809550505050505092959194509250565b60008060008061406085870312156130f657600080fd5b6131008686612f47565b9350614000850135925061402085013567ffffffffffffffff81111561312557600080fd5b61313187828801612f5f565b94979396509394614040013593505050565b6000806000614040848603121561315957600080fd5b83359250602084013567ffffffffffffffff81111561317757600080fd5b61318386828701612f5f565b9250506131938560408601612f47565b90509250925092565b6000602082840312156131ae57600080fd5b81356003811061177d57600080fd5b6020808252825182820181905260009190848201906040850190845b818110156131f5578351835292840192918401916001016131d9565b50909695505050505050565b6001600160a01b038116811461321657600080fd5b50565b600080600080614060858703121561323057600080fd5b61323a8686612f47565b935061400085013567ffffffffffffffff81111561325757600080fd5b61326387828801612f5f565b935050614020850135915061404085013561327d81613201565b939692955090935050565b60208082526018908201527f4c616d706f7274426173653a204e6f2073756368206b65790000000000000000604082015260600190565b634e487b7160e01b600052603260045260246000fd5b6000600182016132f557634e487b7160e01b600052601160045260246000fd5b5060010190565b81835281816020850137506000828201602090810191909152601f909101601f19169091010190565b60005b83811015613340578181015183820152602001613328565b50506000910152565b60008151808452613361816020860160208601613325565b601f01601f19169290920160200192915050565b60006140608281018388845b6101008110156133a257604080838537928301929190910190600101613381565b50505061400084019190915261606083018660005b61010081101561342e5785830361405f190184528135368a9003601e190181126133e057600080fd5b8901602081810191359067ffffffffffffffff8211156133ff57600080fd5b81360383131561340e57600080fd5b6134198683856132fc565b968101969550939093019250506001016133b7565b50508561402085015283810361404085015261344a8186613349565b98975050505050505050565b60006020828403121561346857600080fd5b8151801515811461177d57600080fd5b60208082526013908201527213585cdd195c8818da1958dac819985a5b1959606a1b604082015260600190565b6020808252601c908201527f4c616d706f7274426173653a206e6f7420696e697469616c697a656400000000604082015260600190565b60008183825b610100811015613503576040808385379283019291909101906001016134e2565b5050506140008201905092915050565b60008351613525818460208801613325565b9190910191825250602001919050565b6020808252601d908201527f4c616d706f7274426173653a204e6f742061206d6173746572206b6579000000604082015260600190565b6000808335601e1984360301811261358357600080fd5b83018035915067ffffffffffffffff82111561359e57600080fd5b6020019150368190038213156135b357600080fd5b9250929050565b8183823760009101908152919050565b6000602082840312156135dc57600080fd5b815161177d81613201565b608081016135f58287612ebf565b84602083015283604083015261360e6060830184612ebf565b9594505050505056fe32629d580208e19f97e5752eef849e102f803999c88aa7f75e12b1744eecd5a7d87e68f36f73a7eb22739d6639e36cafebfcde0b5543340b39f42cac68fdd1f06825a39bd161f4ef5aab6cfd2c26db3ee0005c11b43cffd544fc876312116edda26469706673582212207b92b07d8d3d17602f73b2023b840a81e761199a7bd0a5c3146e1db9ceba750464736f6c63430008150033",
  "bytecodeSha1": "d4edbbb562e01a8ccccecff8d4162c6f514b52ab",
  "compiler": {
    "evm_version": "istanbul",
    "optimizer": {
      "enabled": true,
      "runs": 200
    },
    "version": "0.8.21+commit.d9974bed"
  },
  "contractName": "ConstantsInterfacePart2",
  "language": "Solidity",
  "natspec": {
    "kind": "dev",
    "methods": {},
    "version": 1
  },
  "opcodes": "PUSH1 0x80 PUSH1 0x40 MSTORE CALLVALUE DUP1 ISZERO PUSH2 0x10 JUMPI PUSH1 0x0 DUP1 REVERT JUMPDEST POP PUSH1 0x4 CALLDATASIZE LT PUSH2 0x231 JUMPI PUSH1 0x0 CALLDATALOAD PUSH1 0xE0 SHR DUP1 PUSH4 0x8CA9DE6C GT PUSH2 0x130 JUMPI DUP1 PUSH4 0xBD1D8B0C GT PUSH2 0xB8 JUMPI DUP1 PUSH4 0xD86D744E GT PUSH2 0x7C JUMPI DUP1 PUSH4 0xD86D744E EQ PUSH2 0x4E2 JUMPI DUP1 PUSH4 0xD9A7C1F9 EQ PUSH2 0x4F5 JUMPI DUP1 PUSH4 0xDCDE3A73 EQ PUSH2 0x4FE JUMPI DUP1 PUSH4 0xE673D71F EQ PUSH2 0x511 JUMPI DUP1 PUSH4 0xE74F0AF0 EQ PUSH2 0x524 JUMPI PUSH1 0x0 DUP1 REVERT JUMPDEST DUP1 PUSH4 0xBD1D8B0C EQ PUSH2 0x48E JUMPI DUP1 PUSH4 0xBF7A1996 EQ PUSH2 0x4A1 JUMPI DUP1 PUSH4 0xCA334C90 EQ PUSH2 0x4B4 JUMPI DUP1 PUSH4 0xD46FA518 EQ PUSH2 0x4C7 JUMPI DUP1 PUSH4 0xD83C413C EQ PUSH2 0x4CF JUMPI PUSH1 0x0 DUP1 REVERT JUMPDEST DUP1 PUSH4 0xB36CC22A GT PUSH2 0xFF JUMPI DUP1 PUSH4 0xB36CC22A EQ PUSH2 0x42C JUMPI DUP1 PUSH4 0xB5C4D46B EQ PUSH2 0x43F JUMPI DUP1 PUSH4 0xB82B8427 EQ PUSH2 0x452 JUMPI DUP1 PUSH4 0xB97B4F77 EQ PUSH2 0x45B JUMPI DUP1 PUSH4 0xBA06DB3C EQ PUSH2 0x47B JUMPI PUSH1 0x0 DUP1 REVERT JUMPDEST DUP1 PUSH4 0x8CA9DE6C EQ PUSH2 0x3C6 JUMPI DUP1 PUSH4 0x8EB8F1A6 EQ PUSH2 0x3D9 JUMPI DUP1 PUSH4 0xA9711EE3 EQ PUSH2 0x3EC JUMPI DUP1 PUSH4 0xAF82F3E7 EQ PUSH2 0x419 JUMPI PUSH1 0x0 DUP1 REVERT JUMPDEST DUP1 PUSH4 0x3F89BF50 GT PUSH2 0x1BE JUMPI DUP1 PUSH4 0x56BF7B57 GT PUSH2 0x182 JUMPI DUP1 PUSH4 0x56BF7B57 EQ PUSH2 0x359 JUMPI DUP1 PUSH4 0x5796841A EQ PUSH2 0x384 JUMPI DUP1 PUSH4 0x5A68F01A EQ PUSH2 0x397 JUMPI DUP1 PUSH4 0x704433D7 EQ PUSH2 0x3A0 JUMPI DUP1 PUSH4 0x740FF1BA EQ PUSH2 0x3B3 JUMPI PUSH1 0x0 DUP1 REVERT JUMPDEST DUP1 PUSH4 0x3F89BF50 EQ PUSH2 0x304 JUMPI DUP1 PUSH4 0x434C0E20 EQ PUSH2 0x317 JUMPI DUP1 PUSH4 0x4A89D52B EQ PUSH2 0x32A JUMPI DUP1 PUSH4 0x4BDD4499 EQ PUSH2 0x33D JUMPI DUP1 PUSH4 0x4E657D2A EQ PUSH2 0x346 JUMPI PUSH1 0x0 DUP1 REVERT JUMPDEST DUP1 PUSH4 0x2C8C36A5 GT PUSH2 0x205 JUMPI DUP1 PUSH4 0x2C8C36A5 EQ PUSH2 0x2AA JUMPI DUP1 PUSH4 0x2DB9C0BE EQ PUSH2 0x2B3 JUMPI DUP1 PUSH4 0x2FD5C247 EQ PUSH2 0x2C6 JUMPI DUP1 PUSH4 0x333F6111 EQ PUSH2 0x2E8 JUMPI DUP1 PUSH4 0x3A3EF66C EQ PUSH2 0x2FB JUMPI PUSH1 0x0 DUP1 REVERT JUMPDEST DUP1 PUSH3 0xCC7F83 EQ PUSH2 0x236 JUMPI DUP1 PUSH4 0x5AACC7D EQ PUSH2 0x252 JUMPI DUP1 PUSH4 0xB0AD508 EQ PUSH2 0x274 JUMPI DUP1 PUSH4 0xCB6AAF1 EQ PUSH2 0x289 JUMPI JUMPDEST PUSH1 0x0 DUP1 REVERT JUMPDEST PUSH2 0x23F PUSH1 0xC SLOAD DUP2 JUMP JUMPDEST PUSH1 0x40 MLOAD SWAP1 DUP2 MSTORE PUSH1 0x20 ADD JUMPDEST PUSH1 0x40 MLOAD DUP1 SWAP2 SUB SWAP1 RETURN JUMPDEST PUSH2 0x265 PUSH2 0x260 CALLDATASIZE PUSH1 0x4 PUSH2 0x2E90 JUMP JUMPDEST PUSH2 0x537 JUMP JUMPDEST PUSH1 0x40 MLOAD PUSH2 0x249 SWAP4 SWAP3 SWAP2 SWAP1 PUSH2 0x2EE1 JUMP JUMPDEST PUSH2 0x287 PUSH2 0x282 CALLDATASIZE PUSH1 0x4 PUSH2 0x2F00 JUMP JUMPDEST PUSH2 0x63E JUMP JUMPDEST STOP JUMPDEST PUSH2 0x29C PUSH2 0x297 CALLDATASIZE PUSH1 0x4 PUSH2 0x2E90 JUMP JUMPDEST PUSH2 0x6C4 JUMP JUMPDEST PUSH1 0x40 MLOAD PUSH2 0x249 SWAP3 SWAP2 SWAP1 PUSH2 0x2F2C JUMP JUMPDEST PUSH2 0x23F PUSH1 0x11 SLOAD DUP2 JUMP JUMPDEST PUSH2 0x287 PUSH2 0x2C1 CALLDATASIZE PUSH1 0x4 PUSH2 0x2F71 JUMP JUMPDEST PUSH2 0x6F6 JUMP JUMPDEST PUSH1 0x0 SLOAD PUSH2 0x2D8 SWAP1 PUSH2 0x100 SWAP1 DIV PUSH1 0xFF AND DUP2 JUMP JUMPDEST PUSH1 0x40 MLOAD SWAP1 ISZERO ISZERO DUP2 MSTORE PUSH1 0x20 ADD PUSH2 0x249 JUMP JUMPDEST PUSH2 0x2D8 PUSH2 0x2F6 CALLDATASIZE PUSH1 0x4 PUSH2 0x2FEA JUMP JUMPDEST PUSH2 0x8F9 JUMP JUMPDEST PUSH2 0x23F PUSH1 0x10 SLOAD DUP2 JUMP JUMPDEST PUSH2 0x287 PUSH2 0x312 CALLDATASIZE PUSH1 0x4 PUSH2 0x2F71 JUMP JUMPDEST PUSH2 0x9EA JUMP JUMPDEST PUSH2 0x287 PUSH2 0x325 CALLDATASIZE PUSH1 0x4 PUSH2 0x2F71 JUMP JUMPDEST PUSH2 0xAC6 JUMP JUMPDEST PUSH2 0x2D8 PUSH2 0x338 CALLDATASIZE PUSH1 0x4 PUSH2 0x2FEA JUMP JUMPDEST PUSH2 0xBA2 JUMP JUMPDEST PUSH2 0x23F PUSH1 0x5 SLOAD DUP2 JUMP JUMPDEST PUSH2 0x287 PUSH2 0x354 CALLDATASIZE PUSH1 0x4 PUSH2 0x2FEA JUMP JUMPDEST PUSH2 0xBF9 JUMP JUMPDEST PUSH1 0x9 SLOAD PUSH2 0x36C SWAP1 PUSH1 0x1 PUSH1 0x1 PUSH1 0xA0 SHL SUB AND DUP2 JUMP JUMPDEST PUSH1 0x40 MLOAD PUSH1 0x1 PUSH1 0x1 PUSH1 0xA0 SHL SUB SWAP1 SWAP2 AND DUP2 MSTORE PUSH1 0x20 ADD PUSH2 0x249 JUMP JUMPDEST PUSH2 0x287 PUSH2 0x392 CALLDATASIZE PUSH1 0x4 PUSH2 0x2F71 JUMP JUMPDEST PUSH2 0xDCA JUMP JUMPDEST PUSH2 0x23F PUSH1 0xF SLOAD DUP2 JUMP JUMPDEST PUSH2 0x287 PUSH2 0x3AE CALLDATASIZE PUSH1 0x4 PUSH2 0x2F71 JUMP JUMPDEST PUSH2 0x1029 JUMP JUMPDEST PUSH2 0x287 PUSH2 0x3C1 CALLDATASIZE PUSH1 0x4 PUSH2 0x2F71 JUMP JUMPDEST PUSH2 0x123F JUMP JUMPDEST PUSH2 0x287 PUSH2 0x3D4 CALLDATASIZE PUSH1 0x4 PUSH2 0x2F71 JUMP JUMPDEST PUSH2 0x144A JUMP JUMPDEST PUSH2 0x287 PUSH2 0x3E7 CALLDATASIZE PUSH1 0x4 PUSH2 0x30DF JUMP JUMPDEST PUSH2 0x1526 JUMP JUMPDEST PUSH2 0x29C PUSH2 0x3FA CALLDATASIZE PUSH1 0x4 PUSH2 0x2E90 JUMP JUMPDEST PUSH1 0x2 PUSH1 0x20 MSTORE PUSH1 0x0 SWAP1 DUP2 MSTORE PUSH1 0x40 SWAP1 KECCAK256 DUP1 SLOAD PUSH1 0x1 SWAP1 SWAP2 ADD SLOAD PUSH1 0xFF SWAP1 SWAP2 AND SWAP1 DUP3 JUMP JUMPDEST PUSH2 0x2D8 PUSH2 0x427 CALLDATASIZE PUSH1 0x4 PUSH2 0x3143 JUMP JUMPDEST PUSH2 0x16CF JUMP JUMPDEST PUSH2 0x287 PUSH2 0x43A CALLDATASIZE PUSH1 0x4 PUSH2 0x2F71 JUMP JUMPDEST PUSH2 0x1784 JUMP JUMPDEST PUSH2 0x287 PUSH2 0x44D CALLDATASIZE PUSH1 0x4 PUSH2 0x2F71 JUMP JUMPDEST PUSH2 0x1860 JUMP JUMPDEST PUSH2 0x23F PUSH1 0x8 SLOAD DUP2 JUMP JUMPDEST PUSH2 0x46E PUSH2 0x469 CALLDATASIZE PUSH1 0x4 PUSH2 0x319C JUMP JUMPDEST PUSH2 0x1A6D JUMP JUMPDEST PUSH1 0x40 MLOAD PUSH2 0x249 SWAP2 SWAP1 PUSH2 0x31BD JUMP JUMPDEST PUSH2 0x287 PUSH2 0x489 CALLDATASIZE PUSH1 0x4 PUSH2 0x3219 JUMP JUMPDEST PUSH2 0x1C1D JUMP JUMPDEST PUSH2 0x287 PUSH2 0x49C CALLDATASIZE PUSH1 0x4 PUSH2 0x3219 JUMP JUMPDEST PUSH2 0x1DBB JUMP JUMPDEST PUSH2 0x287 PUSH2 0x4AF CALLDATASIZE PUSH1 0x4 PUSH2 0x2F71 JUMP JUMPDEST PUSH2 0x1EA1 JUMP JUMPDEST PUSH2 0x287 PUSH2 0x4C2 CALLDATASIZE PUSH1 0x4 PUSH2 0x2F71 JUMP JUMPDEST PUSH2 0x20BB JUMP JUMPDEST PUSH2 0x36C PUSH2 0x22CD JUMP JUMPDEST PUSH2 0x287 PUSH2 0x4DD CALLDATASIZE PUSH1 0x4 PUSH2 0x2F71 JUMP JUMPDEST PUSH2 0x2340 JUMP JUMPDEST PUSH1 0x6 SLOAD PUSH2 0x36C SWAP1 PUSH1 0x1 PUSH1 0x1 PUSH1 0xA0 SHL SUB AND DUP2 JUMP JUMPDEST PUSH2 0x23F PUSH1 0xB SLOAD DUP2 JUMP JUMPDEST PUSH2 0x287 PUSH2 0x50C CALLDATASIZE PUSH1 0x4 PUSH2 0x2F71 JUMP JUMPDEST PUSH2 0x24E8 JUMP JUMPDEST PUSH2 0x287 PUSH2 0x51F CALLDATASIZE PUSH1 0x4 PUSH2 0x2F71 JUMP JUMPDEST PUSH2 0x25C4 JUMP JUMPDEST PUSH2 0x287 PUSH2 0x532 CALLDATASIZE PUSH1 0x4 PUSH2 0x2F71 JUMP JUMPDEST PUSH2 0x2AF9 JUMP JUMPDEST PUSH1 0x0 DUP2 DUP2 MSTORE PUSH1 0x2 PUSH1 0x20 DUP2 SWAP1 MSTORE PUSH1 0x40 DUP1 DUP4 KECCAK256 DUP2 MLOAD DUP1 DUP4 ADD SWAP1 SWAP3 MSTORE DUP1 SLOAD DUP5 SWAP4 DUP5 SWAP4 DUP5 SWAP4 SWAP1 SWAP3 SWAP1 SWAP2 DUP4 SWAP2 PUSH1 0xFF AND SWAP1 DUP2 GT ISZERO PUSH2 0x571 JUMPI PUSH2 0x571 PUSH2 0x2EA9 JUMP JUMPDEST PUSH1 0x2 DUP2 GT ISZERO PUSH2 0x582 JUMPI PUSH2 0x582 PUSH2 0x2EA9 JUMP JUMPDEST DUP2 MSTORE PUSH1 0x1 SWAP2 SWAP1 SWAP2 ADD SLOAD PUSH1 0x20 SWAP2 DUP3 ADD MSTORE DUP2 ADD MLOAD SWAP1 SWAP2 POP PUSH1 0x0 SUB PUSH2 0x5BF JUMPI PUSH1 0x40 MLOAD PUSH3 0x461BCD PUSH1 0xE5 SHL DUP2 MSTORE PUSH1 0x4 ADD PUSH2 0x5B6 SWAP1 PUSH2 0x3288 JUMP JUMPDEST PUSH1 0x40 MLOAD DUP1 SWAP2 SUB SWAP1 REVERT JUMPDEST PUSH1 0x0 JUMPDEST PUSH1 0x1 SLOAD DUP2 LT ISZERO PUSH2 0x61E JUMPI DUP6 PUSH1 0x1 DUP3 DUP2 SLOAD DUP2 LT PUSH2 0x5E0 JUMPI PUSH2 0x5E0 PUSH2 0x32BF JUMP JUMPDEST SWAP1 PUSH1 0x0 MSTORE PUSH1 0x20 PUSH1 0x0 KECCAK256 SWAP1 PUSH1 0x2 MUL ADD PUSH1 0x1 ADD SLOAD SUB PUSH2 0x60C JUMPI DUP2 MLOAD PUSH1 0x20 SWAP1 SWAP3 ADD MLOAD SWAP2 SWAP5 POP SWAP1 SWAP3 POP SWAP1 POP PUSH2 0x637 JUMP JUMPDEST DUP1 PUSH2 0x616 DUP2 PUSH2 0x32D5 JUMP JUMPDEST SWAP2 POP POP PUSH2 0x5C2 JUMP JUMPDEST POP PUSH1 0x40 MLOAD PUSH3 0x461BCD PUSH1 0xE5 SHL DUP2 MSTORE PUSH1 0x4 ADD PUSH2 0x5B6 SWAP1 PUSH2 0x3288 JUMP JUMPDEST SWAP2 SWAP4 SWAP1 SWAP3 POP JUMP JUMPDEST PUSH1 0x0 SLOAD PUSH1 0xFF AND ISZERO PUSH2 0x691 JUMPI PUSH1 0x40 MLOAD PUSH3 0x461BCD PUSH1 0xE5 SHL DUP2 MSTORE PUSH1 0x20 PUSH1 0x4 DUP3 ADD DUP2 SWAP1 MSTORE PUSH1 0x24 DUP3 ADD MSTORE PUSH32 0x4C616D706F7274426173653A20416C726561647920696E697469616C697A6564 PUSH1 0x44 DUP3 ADD MSTORE PUSH1 0x64 ADD PUSH2 0x5B6 JUMP JUMPDEST PUSH2 0x69C PUSH1 0x0 DUP5 PUSH2 0x2BD5 JUMP JUMPDEST PUSH2 0x6A7 PUSH1 0x0 DUP4 PUSH2 0x2BD5 JUMP JUMPDEST PUSH2 0x6B2 PUSH1 0x1 DUP3 PUSH2 0x2BD5 JUMP JUMPDEST POP POP PUSH1 0x0 DUP1 SLOAD PUSH1 0xFF NOT AND PUSH1 0x1 OR SWAP1 SSTORE POP JUMP JUMPDEST PUSH1 0x1 DUP2 DUP2 SLOAD DUP2 LT PUSH2 0x6D4 JUMPI PUSH1 0x0 DUP1 REVERT JUMPDEST PUSH1 0x0 SWAP2 DUP3 MSTORE PUSH1 0x20 SWAP1 SWAP2 KECCAK256 PUSH1 0x2 SWAP1 SWAP2 MUL ADD DUP1 SLOAD PUSH1 0x1 SWAP1 SWAP2 ADD SLOAD PUSH1 0xFF SWAP1 SWAP2 AND SWAP2 POP DUP3 JUMP JUMPDEST PUSH1 0x9 SLOAD PUSH1 0x40 DUP1 MLOAD PUSH1 0x20 DUP1 DUP3 ADD DUP6 SWAP1 MSTORE DUP3 MLOAD DUP1 DUP4 SUB SWAP1 SWAP2 ADD DUP2 MSTORE DUP2 DUP4 ADD SWAP3 DUP4 SWAP1 MSTORE PUSH4 0x333F6111 PUSH1 0xE0 SHL SWAP1 SWAP3 MSTORE PUSH1 0x1 PUSH1 0x1 PUSH1 0xA0 SHL SUB SWAP1 SWAP3 AND SWAP2 PUSH4 0x333F6111 SWAP2 PUSH2 0x746 SWAP2 DUP9 SWAP2 DUP9 SWAP2 DUP9 SWAP2 SWAP1 PUSH1 0x44 ADD PUSH2 0x3375 JUMP JUMPDEST PUSH1 0x20 PUSH1 0x40 MLOAD DUP1 DUP4 SUB DUP2 PUSH1 0x0 DUP8 GAS CALL ISZERO DUP1 ISZERO PUSH2 0x765 JUMPI RETURNDATASIZE PUSH1 0x0 DUP1 RETURNDATACOPY RETURNDATASIZE PUSH1 0x0 REVERT JUMPDEST POP POP POP POP PUSH1 0x40 MLOAD RETURNDATASIZE PUSH1 0x1F NOT PUSH1 0x1F DUP3 ADD AND DUP3 ADD DUP1 PUSH1 0x40 MSTORE POP DUP2 ADD SWAP1 PUSH2 0x789 SWAP2 SWAP1 PUSH2 0x3456 JUMP JUMPDEST PUSH2 0x7A5 JUMPI PUSH1 0x40 MLOAD PUSH3 0x461BCD PUSH1 0xE5 SHL DUP2 MSTORE PUSH1 0x4 ADD PUSH2 0x5B6 SWAP1 PUSH2 0x3478 JUMP JUMPDEST PUSH1 0x40 DUP1 MLOAD PUSH1 0x20 DUP2 ADD DUP4 SWAP1 MSTORE ADD PUSH1 0x40 MLOAD PUSH1 0x20 DUP2 DUP4 SUB SUB DUP2 MSTORE SWAP1 PUSH1 0x40 MSTORE DUP1 MLOAD SWAP1 PUSH1 0x20 ADD KECCAK256 PUSH1 0x7 SLOAD EQ PUSH2 0x823 JUMPI PUSH1 0x40 MLOAD PUSH3 0x461BCD PUSH1 0xE5 SHL DUP2 MSTORE PUSH1 0x20 PUSH1 0x4 DUP3 ADD MSTORE PUSH1 0x24 DUP1 DUP3 ADD MSTORE PUSH32 0x4D69736D617463686564207769746864726177616C506572696F6454696D6520 PUSH1 0x44 DUP3 ADD MSTORE PUSH4 0xD0C2E6D PUSH1 0xE3 SHL PUSH1 0x64 DUP3 ADD MSTORE PUSH1 0x84 ADD PUSH2 0x5B6 JUMP JUMPDEST PUSH3 0x15180 DUP2 LT ISZERO DUP1 ISZERO PUSH2 0x839 JUMPI POP PUSH3 0x278D00 DUP2 GT ISZERO JUMPDEST PUSH2 0x890 JUMPI PUSH1 0x40 MLOAD PUSH3 0x461BCD PUSH1 0xE5 SHL DUP2 MSTORE PUSH1 0x20 PUSH1 0x4 DUP3 ADD MSTORE PUSH1 0x22 PUSH1 0x24 DUP3 ADD MSTORE PUSH32 0x496E76616C6964207769746864726177616C506572696F6454696D652072616E PUSH1 0x44 DUP3 ADD MSTORE PUSH2 0x6765 PUSH1 0xF0 SHL PUSH1 0x64 DUP3 ADD MSTORE PUSH1 0x84 ADD PUSH2 0x5B6 JUMP JUMPDEST PUSH1 0x6 SLOAD PUSH1 0x40 MLOAD PUSH4 0x1154D9A9 PUSH1 0xE2 SHL DUP2 MSTORE PUSH1 0x4 DUP2 ADD DUP4 SWAP1 MSTORE PUSH1 0x1 PUSH1 0x1 PUSH1 0xA0 SHL SUB SWAP1 SWAP2 AND SWAP1 PUSH4 0x455366A4 SWAP1 PUSH1 0x24 ADD PUSH1 0x0 PUSH1 0x40 MLOAD DUP1 DUP4 SUB DUP2 PUSH1 0x0 DUP8 DUP1 EXTCODESIZE ISZERO DUP1 ISZERO PUSH2 0x8D6 JUMPI PUSH1 0x0 DUP1 REVERT JUMPDEST POP GAS CALL ISZERO DUP1 ISZERO PUSH2 0x8EA JUMPI RETURNDATASIZE PUSH1 0x0 DUP1 RETURNDATACOPY RETURNDATASIZE PUSH1 0x0 REVERT JUMPDEST POP POP PUSH1 0x0 PUSH1 0x7 SSTORE POP POP POP POP POP POP JUMP JUMPDEST PUSH1 0x0 DUP1 SLOAD PUSH1 0xFF AND PUSH2 0x91C JUMPI PUSH1 0x40 MLOAD PUSH3 0x461BCD PUSH1 0xE5 SHL DUP2 MSTORE PUSH1 0x4 ADD PUSH2 0x5B6 SWAP1 PUSH2 0x34A5 JUMP JUMPDEST PUSH1 0x0 DUP6 PUSH1 0x40 MLOAD PUSH1 0x20 ADD PUSH2 0x92F SWAP2 SWAP1 PUSH2 0x34DC JUMP JUMPDEST PUSH1 0x40 DUP1 MLOAD PUSH1 0x1F NOT DUP2 DUP5 SUB ADD DUP2 MSTORE SWAP2 SWAP1 MSTORE DUP1 MLOAD PUSH1 0x20 SWAP1 SWAP2 ADD KECCAK256 SWAP1 POP PUSH1 0x0 JUMPDEST PUSH1 0x0 DUP3 DUP2 MSTORE PUSH1 0x2 PUSH1 0x20 DUP2 SWAP1 MSTORE PUSH1 0x40 SWAP1 SWAP2 KECCAK256 SLOAD PUSH1 0xFF AND SWAP1 DUP2 GT ISZERO PUSH2 0x971 JUMPI PUSH2 0x971 PUSH2 0x2EA9 JUMP JUMPDEST EQ PUSH2 0x980 JUMPI PUSH1 0x0 SWAP2 POP POP PUSH2 0x9E2 JUMP JUMPDEST PUSH1 0x0 DUP4 DUP6 PUSH1 0x40 MLOAD PUSH1 0x20 ADD PUSH2 0x995 SWAP3 SWAP2 SWAP1 PUSH2 0x3513 JUMP JUMPDEST PUSH1 0x40 MLOAD PUSH1 0x20 DUP2 DUP4 SUB SUB DUP2 MSTORE SWAP1 PUSH1 0x40 MSTORE DUP1 MLOAD SWAP1 PUSH1 0x20 ADD KECCAK256 PUSH1 0x0 SHR SWAP1 POP PUSH1 0x0 PUSH2 0x9BD DUP3 DUP9 DUP11 PUSH2 0x16CF JUMP JUMPDEST SWAP1 POP DUP1 PUSH2 0x9D0 JUMPI PUSH1 0x0 SWAP4 POP POP POP POP PUSH2 0x9E2 JUMP JUMPDEST PUSH2 0x9DA DUP4 DUP8 PUSH2 0x2CEE JUMP JUMPDEST PUSH1 0x1 SWAP4 POP POP POP POP JUMPDEST SWAP5 SWAP4 POP POP POP POP JUMP JUMPDEST PUSH1 0x9 SLOAD PUSH1 0x40 DUP1 MLOAD PUSH1 0x20 DUP1 DUP3 ADD DUP6 SWAP1 MSTORE DUP3 MLOAD DUP1 DUP4 SUB SWAP1 SWAP2 ADD DUP2 MSTORE DUP2 DUP4 ADD SWAP3 DUP4 SWAP1 MSTORE PUSH4 0x333F6111 PUSH1 0xE0 SHL SWAP1 SWAP3 MSTORE PUSH1 0x1 PUSH1 0x1 PUSH1 0xA0 SHL SUB SWAP1 SWAP3 AND SWAP2 PUSH4 0x333F6111 SWAP2 PUSH2 0xA3A SWAP2 DUP9 SWAP2 DUP9 SWAP2 DUP9 SWAP2 SWAP1 PUSH1 0x44 ADD PUSH2 0x3375 JUMP JUMPDEST PUSH1 0x20 PUSH1 0x40 MLOAD DUP1 DUP4 SUB DUP2 PUSH1 0x0 DUP8 GAS CALL ISZERO DUP1 ISZERO PUSH2 0xA59 JUMPI RETURNDATASIZE PUSH1 0x0 DUP1 RETURNDATACOPY RETURNDATASIZE PUSH1 0x0 REVERT JUMPDEST POP POP POP POP PUSH1 0x40 MLOAD RETURNDATASIZE PUSH1 0x1F NOT PUSH1 0x1F DUP3 ADD AND DUP3 ADD DUP1 PUSH1 0x40 MSTORE POP DUP2 ADD SWAP1 PUSH2 0xA7D SWAP2 SWAP1 PUSH2 0x3456 JUMP JUMPDEST PUSH2 0xA99 JUMPI PUSH1 0x40 MLOAD PUSH3 0x461BCD PUSH1 0xE5 SHL DUP2 MSTORE PUSH1 0x4 ADD PUSH2 0x5B6 SWAP1 PUSH2 0x3478 JUMP JUMPDEST PUSH1 0x40 DUP1 MLOAD PUSH1 0x20 DUP2 ADD DUP4 SWAP1 MSTORE ADD PUSH1 0x40 DUP1 MLOAD PUSH1 0x1F NOT DUP2 DUP5 SUB ADD DUP2 MSTORE SWAP2 SWAP1 MSTORE DUP1 MLOAD PUSH1 0x20 SWAP1 SWAP2 ADD KECCAK256 PUSH1 0x12 SSTORE POP POP POP POP JUMP JUMPDEST PUSH1 0x9 SLOAD PUSH1 0x40 DUP1 MLOAD PUSH1 0x20 DUP1 DUP3 ADD DUP6 SWAP1 MSTORE DUP3 MLOAD DUP1 DUP4 SUB SWAP1 SWAP2 ADD DUP2 MSTORE DUP2 DUP4 ADD SWAP3 DUP4 SWAP1 MSTORE PUSH4 0x333F6111 PUSH1 0xE0 SHL SWAP1 SWAP3 MSTORE PUSH1 0x1 PUSH1 0x1 PUSH1 0xA0 SHL SUB SWAP1 SWAP3 AND SWAP2 PUSH4 0x333F6111 SWAP2 PUSH2 0xB16 SWAP2 DUP9 SWAP2 DUP9 SWAP2 DUP9 SWAP2 SWAP1 PUSH1 0x44 ADD PUSH2 0x3375 JUMP JUMPDEST PUSH1 0x20 PUSH1 0x40 MLOAD DUP1 DUP4 SUB DUP2 PUSH1 0x0 DUP8 GAS CALL ISZERO DUP1 ISZERO PUSH2 0xB35 JUMPI RETURNDATASIZE PUSH1 0x0 DUP1 RETURNDATACOPY RETURNDATASIZE PUSH1 0x0 REVERT JUMPDEST POP POP POP POP PUSH1 0x40 MLOAD RETURNDATASIZE PUSH1 0x1F NOT PUSH1 0x1F DUP3 ADD AND DUP3 ADD DUP1 PUSH1 0x40 MSTORE POP DUP2 ADD SWAP1 PUSH2 0xB59 SWAP2 SWAP1 PUSH2 0x3456 JUMP JUMPDEST PUSH2 0xB75 JUMPI PUSH1 0x40 MLOAD PUSH3 0x461BCD PUSH1 0xE5 SHL DUP2 MSTORE PUSH1 0x4 ADD PUSH2 0x5B6 SWAP1 PUSH2 0x3478 JUMP JUMPDEST PUSH1 0x40 DUP1 MLOAD PUSH1 0x20 DUP2 ADD DUP4 SWAP1 MSTORE ADD PUSH1 0x40 DUP1 MLOAD PUSH1 0x1F NOT DUP2 DUP5 SUB ADD DUP2 MSTORE SWAP2 SWAP1 MSTORE DUP1 MLOAD PUSH1 0x20 SWAP1 SWAP2 ADD KECCAK256 PUSH1 0x7 SSTORE POP POP POP POP JUMP JUMPDEST PUSH1 0x0 DUP1 SLOAD PUSH1 0xFF AND PUSH2 0xBC5 JUMPI PUSH1 0x40 MLOAD PUSH3 0x461BCD PUSH1 0xE5 SHL DUP2 MSTORE PUSH1 0x4 ADD PUSH2 0x5B6 SWAP1 PUSH2 0x34A5 JUMP JUMPDEST PUSH1 0x0 DUP6 PUSH1 0x40 MLOAD PUSH1 0x20 ADD PUSH2 0xBD8 SWAP2 SWAP1 PUSH2 0x34DC JUMP JUMPDEST PUSH1 0x40 DUP1 MLOAD PUSH1 0x1F NOT DUP2 DUP5 SUB ADD DUP2 MSTORE SWAP2 SWAP1 MSTORE DUP1 MLOAD PUSH1 0x20 SWAP1 SWAP2 ADD KECCAK256 SWAP1 POP PUSH1 0x1 PUSH2 0x94C JUMP JUMPDEST PUSH1 0x0 SLOAD DUP5 SWAP1 DUP5 SWAP1 DUP5 SWAP1 DUP5 SWAP1 PUSH1 0xFF AND PUSH2 0xC23 JUMPI PUSH1 0x40 MLOAD PUSH3 0x461BCD PUSH1 0xE5 SHL DUP2 MSTORE PUSH1 0x4 ADD PUSH2 0x5B6 SWAP1 PUSH2 0x34A5 JUMP JUMPDEST PUSH1 0x0 DUP5 PUSH1 0x40 MLOAD PUSH1 0x20 ADD PUSH2 0xC36 SWAP2 SWAP1 PUSH2 0x34DC JUMP JUMPDEST PUSH1 0x40 DUP1 MLOAD PUSH1 0x1F NOT DUP2 DUP5 SUB ADD DUP2 MSTORE SWAP2 SWAP1 MSTORE DUP1 MLOAD PUSH1 0x20 SWAP1 SWAP2 ADD KECCAK256 SWAP1 POP PUSH1 0x0 DUP1 DUP3 DUP2 MSTORE PUSH1 0x2 PUSH1 0x20 DUP2 SWAP1 MSTORE PUSH1 0x40 SWAP1 SWAP2 KECCAK256 SLOAD PUSH1 0xFF AND SWAP1 DUP2 GT ISZERO PUSH2 0xC76 JUMPI PUSH2 0xC76 PUSH2 0x2EA9 JUMP JUMPDEST EQ PUSH2 0xC93 JUMPI PUSH1 0x40 MLOAD PUSH3 0x461BCD PUSH1 0xE5 SHL DUP2 MSTORE PUSH1 0x4 ADD PUSH2 0x5B6 SWAP1 PUSH2 0x3535 JUMP JUMPDEST PUSH1 0x0 DUP3 DUP5 PUSH1 0x40 MLOAD PUSH1 0x20 ADD PUSH2 0xCA8 SWAP3 SWAP2 SWAP1 PUSH2 0x3513 JUMP JUMPDEST PUSH1 0x40 DUP1 MLOAD PUSH1 0x1F NOT DUP2 DUP5 SUB ADD DUP2 MSTORE SWAP1 DUP3 SWAP1 MSTORE DUP1 MLOAD PUSH1 0x20 SWAP2 DUP3 ADD KECCAK256 DUP1 DUP4 MSTORE SWAP3 POP PUSH1 0x0 DUP1 MLOAD PUSH1 0x20 PUSH2 0x3638 DUP4 CODECOPY DUP2 MLOAD SWAP2 MSTORE SWAP2 ADD PUSH1 0x40 MLOAD DUP1 SWAP2 SUB SWAP1 LOG1 PUSH1 0x0 PUSH2 0xCEC DUP3 DUP8 DUP10 PUSH2 0x16CF JUMP JUMPDEST PUSH1 0x0 DUP1 SLOAD PUSH2 0xFF00 NOT AND PUSH2 0x100 DUP4 ISZERO ISZERO MUL OR SWAP1 SSTORE SWAP1 POP DUP1 PUSH2 0xD70 JUMPI PUSH1 0x40 MLOAD DUP3 DUP2 MSTORE PUSH1 0x0 DUP1 MLOAD PUSH1 0x20 PUSH2 0x3618 DUP4 CODECOPY DUP2 MLOAD SWAP2 MSTORE SWAP1 PUSH1 0x20 ADD JUMPDEST PUSH1 0x40 MLOAD DUP1 SWAP2 SUB SWAP1 LOG1 PUSH1 0x40 MLOAD PUSH3 0x461BCD PUSH1 0xE5 SHL DUP2 MSTORE PUSH1 0x20 PUSH1 0x4 DUP3 ADD DUP2 SWAP1 MSTORE PUSH1 0x24 DUP3 ADD MSTORE PUSH32 0x4C616D706F7274426173653A20566572696669636174696F6E206661696C6564 PUSH1 0x44 DUP3 ADD MSTORE PUSH1 0x64 ADD PUSH2 0x5B6 JUMP JUMPDEST PUSH1 0x0 DUP4 DUP2 MSTORE PUSH1 0x2 PUSH1 0x20 MSTORE PUSH1 0x40 SWAP1 DUP2 SWAP1 KECCAK256 SLOAD SWAP1 MLOAD PUSH1 0x0 DUP1 MLOAD PUSH1 0x20 PUSH2 0x3658 DUP4 CODECOPY DUP2 MLOAD SWAP2 MSTORE SWAP2 PUSH2 0xDA6 SWAP2 PUSH1 0xFF SWAP1 SWAP2 AND SWAP1 DUP7 SWAP1 DUP10 SWAP1 PUSH2 0x2EE1 JUMP JUMPDEST PUSH1 0x40 MLOAD DUP1 SWAP2 SUB SWAP1 LOG1 PUSH2 0xDB8 DUP4 DUP7 PUSH2 0x2CEE JUMP JUMPDEST POP POP POP PUSH1 0x5 SWAP6 SWAP1 SWAP6 SSTORE POP POP POP POP POP POP POP JUMP JUMPDEST DUP4 DUP4 DUP4 DUP4 PUSH1 0x40 MLOAD PUSH1 0x20 ADD PUSH2 0xDE0 SWAP2 DUP2 MSTORE PUSH1 0x20 ADD SWAP1 JUMP JUMPDEST PUSH1 0x40 DUP1 MLOAD PUSH1 0x1F NOT DUP2 DUP5 SUB ADD DUP2 MSTORE SWAP2 SWAP1 MSTORE PUSH1 0x0 SLOAD PUSH1 0xFF AND PUSH2 0xE12 JUMPI PUSH1 0x40 MLOAD PUSH3 0x461BCD PUSH1 0xE5 SHL DUP2 MSTORE PUSH1 0x4 ADD PUSH2 0x5B6 SWAP1 PUSH2 0x34A5 JUMP JUMPDEST PUSH1 0x0 DUP5 PUSH1 0x40 MLOAD PUSH1 0x20 ADD PUSH2 0xE25 SWAP2 SWAP1 PUSH2 0x34DC JUMP JUMPDEST PUSH1 0x40 DUP1 MLOAD PUSH1 0x1F NOT DUP2 DUP5 SUB ADD DUP2 MSTORE SWAP2 SWAP1 MSTORE DUP1 MLOAD PUSH1 0x20 SWAP1 SWAP2 ADD KECCAK256 SWAP1 POP PUSH1 0x0 DUP1 DUP3 DUP2 MSTORE PUSH1 0x2 PUSH1 0x20 DUP2 SWAP1 MSTORE PUSH1 0x40 SWAP1 SWAP2 KECCAK256 SLOAD PUSH1 0xFF AND SWAP1 DUP2 GT ISZERO PUSH2 0xE65 JUMPI PUSH2 0xE65 PUSH2 0x2EA9 JUMP JUMPDEST EQ PUSH2 0xE82 JUMPI PUSH1 0x40 MLOAD PUSH3 0x461BCD PUSH1 0xE5 SHL DUP2 MSTORE PUSH1 0x4 ADD PUSH2 0x5B6 SWAP1 PUSH2 0x3535 JUMP JUMPDEST PUSH1 0x0 DUP3 DUP5 PUSH1 0x40 MLOAD PUSH1 0x20 ADD PUSH2 0xE97 SWAP3 SWAP2 SWAP1 PUSH2 0x3513 JUMP JUMPDEST PUSH1 0x40 DUP1 MLOAD PUSH1 0x1F NOT DUP2 DUP5 SUB ADD DUP2 MSTORE SWAP1 DUP3 SWAP1 MSTORE DUP1 MLOAD PUSH1 0x20 SWAP2 DUP3 ADD KECCAK256 DUP1 DUP4 MSTORE SWAP3 POP PUSH1 0x0 DUP1 MLOAD PUSH1 0x20 PUSH2 0x3638 DUP4 CODECOPY DUP2 MLOAD SWAP2 MSTORE SWAP2 ADD PUSH1 0x40 MLOAD DUP1 SWAP2 SUB SWAP1 LOG1 PUSH1 0x0 PUSH2 0xEDB DUP3 DUP8 DUP10 PUSH2 0x16CF JUMP JUMPDEST PUSH1 0x0 DUP1 SLOAD PUSH2 0xFF00 NOT AND PUSH2 0x100 DUP4 ISZERO ISZERO MUL OR SWAP1 SSTORE SWAP1 POP DUP1 PUSH2 0xF13 JUMPI PUSH1 0x40 MLOAD DUP3 DUP2 MSTORE PUSH1 0x0 DUP1 MLOAD PUSH1 0x20 PUSH2 0x3618 DUP4 CODECOPY DUP2 MLOAD SWAP2 MSTORE SWAP1 PUSH1 0x20 ADD PUSH2 0xD20 JUMP JUMPDEST PUSH1 0x0 DUP4 DUP2 MSTORE PUSH1 0x2 PUSH1 0x20 MSTORE PUSH1 0x40 SWAP1 DUP2 SWAP1 KECCAK256 SLOAD SWAP1 MLOAD PUSH1 0x0 DUP1 MLOAD PUSH1 0x20 PUSH2 0x3658 DUP4 CODECOPY DUP2 MLOAD SWAP2 MSTORE SWAP2 PUSH2 0xF49 SWAP2 PUSH1 0xFF SWAP1 SWAP2 AND SWAP1 DUP7 SWAP1 DUP10 SWAP1 PUSH2 0x2EE1 JUMP JUMPDEST PUSH1 0x40 MLOAD DUP1 SWAP2 SUB SWAP1 LOG1 PUSH2 0xF5B DUP4 DUP7 PUSH2 0x2CEE JUMP JUMPDEST PUSH1 0x0 DUP12 PUSH1 0x40 MLOAD PUSH1 0x20 ADD PUSH2 0xF6E SWAP2 SWAP1 PUSH2 0x34DC JUMP JUMPDEST PUSH1 0x40 DUP1 MLOAD PUSH1 0x1F NOT DUP2 DUP5 SUB ADD DUP2 MSTORE SWAP2 SWAP1 MSTORE DUP1 MLOAD PUSH1 0x20 SWAP1 SWAP2 ADD KECCAK256 PUSH1 0x5 DUP1 SLOAD PUSH1 0x0 SWAP1 SWAP2 SSTORE SWAP1 SWAP2 POP DUP2 EQ ISZERO DUP1 PUSH2 0x100A JUMPI PUSH1 0x40 DUP1 MLOAD PUSH3 0x461BCD PUSH1 0xE5 SHL DUP2 MSTORE PUSH1 0x20 PUSH1 0x4 DUP3 ADD MSTORE PUSH1 0x24 DUP2 ADD SWAP2 SWAP1 SWAP2 MSTORE PUSH32 0x4C616D706F7274426173653A20504B48206D617463686573206C617374207573 PUSH1 0x44 DUP3 ADD MSTORE PUSH32 0x656420504B482028757365207365706172617465207365636F6E64206B657929 PUSH1 0x64 DUP3 ADD MSTORE PUSH1 0x84 ADD PUSH2 0x5B6 JUMP JUMPDEST PUSH2 0x1015 PUSH1 0x0 DUP12 PUSH2 0x2BD5 JUMP JUMPDEST POP POP PUSH1 0x0 PUSH1 0x5 SSTORE POP POP POP POP POP POP POP POP POP POP POP JUMP JUMPDEST PUSH1 0x9 SLOAD PUSH1 0x40 DUP1 MLOAD PUSH1 0x20 DUP1 DUP3 ADD DUP6 SWAP1 MSTORE DUP3 MLOAD DUP1 DUP4 SUB SWAP1 SWAP2 ADD DUP2 MSTORE DUP2 DUP4 ADD SWAP3 DUP4 SWAP1 MSTORE PUSH4 0x333F6111 PUSH1 0xE0 SHL SWAP1 SWAP3 MSTORE PUSH1 0x1 PUSH1 0x1 PUSH1 0xA0 SHL SUB SWAP1 SWAP3 AND SWAP2 PUSH4 0x333F6111 SWAP2 PUSH2 0x1079 SWAP2 DUP9 SWAP2 DUP9 SWAP2 DUP9 SWAP2 SWAP1 PUSH1 0x44 ADD PUSH2 0x3375 JUMP JUMPDEST PUSH1 0x20 PUSH1 0x40 MLOAD DUP1 DUP4 SUB DUP2 PUSH1 0x0 DUP8 GAS CALL ISZERO DUP1 ISZERO PUSH2 0x1098 JUMPI RETURNDATASIZE PUSH1 0x0 DUP1 RETURNDATACOPY RETURNDATASIZE PUSH1 0x0 REVERT JUMPDEST POP POP POP POP PUSH1 0x40 MLOAD RETURNDATASIZE PUSH1 0x1F NOT PUSH1 0x1F DUP3 ADD AND DUP3 ADD DUP1 PUSH1 0x40 MSTORE POP DUP2 ADD SWAP1 PUSH2 0x10BC SWAP2 SWAP1 PUSH2 0x3456 JUMP JUMPDEST PUSH2 0x10D8 JUMPI PUSH1 0x40 MLOAD PUSH3 0x461BCD PUSH1 0xE5 SHL DUP2 MSTORE PUSH1 0x4 ADD PUSH2 0x5B6 SWAP1 PUSH2 0x3478 JUMP JUMPDEST PUSH1 0x40 DUP1 MLOAD PUSH1 0x20 DUP2 ADD DUP4 SWAP1 MSTORE ADD PUSH1 0x40 MLOAD PUSH1 0x20 DUP2 DUP4 SUB SUB DUP2 MSTORE SWAP1 PUSH1 0x40 MSTORE DUP1 MLOAD SWAP1 PUSH1 0x20 ADD KECCAK256 PUSH1 0x14 SLOAD EQ PUSH2 0x1161 JUMPI PUSH1 0x40 MLOAD PUSH3 0x461BCD PUSH1 0xE5 SHL DUP2 MSTORE PUSH1 0x20 PUSH1 0x4 DUP3 ADD MSTORE PUSH1 0x2E PUSH1 0x24 DUP3 ADD MSTORE PUSH32 0x4D69736D61746368656420676173507269636542616C616E63696E67436F756E PUSH1 0x44 DUP3 ADD MSTORE PUSH14 0xE8CAE4EECAD2CED0E840D0C2E6D PUSH1 0x93 SHL PUSH1 0x64 DUP3 ADD MSTORE PUSH1 0x84 ADD PUSH2 0x5B6 JUMP JUMPDEST PUSH1 0x64 DUP2 LT ISZERO DUP1 ISZERO PUSH2 0x1175 JUMPI POP PUSH3 0xD2F00 DUP2 GT ISZERO JUMPDEST PUSH2 0x11D6 JUMPI PUSH1 0x40 MLOAD PUSH3 0x461BCD PUSH1 0xE5 SHL DUP2 MSTORE PUSH1 0x20 PUSH1 0x4 DUP3 ADD MSTORE PUSH1 0x2C PUSH1 0x24 DUP3 ADD MSTORE PUSH32 0x496E76616C696420676173507269636542616C616E63696E67436F756E746572 PUSH1 0x44 DUP3 ADD MSTORE PUSH12 0x7765696768742072616E6765 PUSH1 0xA0 SHL PUSH1 0x64 DUP3 ADD MSTORE PUSH1 0x84 ADD PUSH2 0x5B6 JUMP JUMPDEST PUSH1 0x6 SLOAD PUSH1 0x40 MLOAD PUSH4 0x69FA46DF PUSH1 0xE1 SHL DUP2 MSTORE PUSH1 0x4 DUP2 ADD DUP4 SWAP1 MSTORE PUSH1 0x1 PUSH1 0x1 PUSH1 0xA0 SHL SUB SWAP1 SWAP2 AND SWAP1 PUSH4 0xD3F48DBE SWAP1 PUSH1 0x24 ADD PUSH1 0x0 PUSH1 0x40 MLOAD DUP1 DUP4 SUB DUP2 PUSH1 0x0 DUP8 DUP1 EXTCODESIZE ISZERO DUP1 ISZERO PUSH2 0x121C JUMPI PUSH1 0x0 DUP1 REVERT JUMPDEST POP GAS CALL ISZERO DUP1 ISZERO PUSH2 0x1230 JUMPI RETURNDATASIZE PUSH1 0x0 DUP1 RETURNDATACOPY RETURNDATASIZE PUSH1 0x0 REVERT JUMPDEST POP POP PUSH1 0x0 PUSH1 0x14 SSTORE POP POP POP POP POP POP JUMP JUMPDEST PUSH1 0x9 SLOAD PUSH1 0x40 DUP1 MLOAD PUSH1 0x20 DUP1 DUP3 ADD DUP6 SWAP1 MSTORE DUP3 MLOAD DUP1 DUP4 SUB SWAP1 SWAP2 ADD DUP2 MSTORE DUP2 DUP4 ADD SWAP3 DUP4 SWAP1 MSTORE PUSH4 0x333F6111 PUSH1 0xE0 SHL SWAP1 SWAP3 MSTORE PUSH1 0x1 PUSH1 0x1 PUSH1 0xA0 SHL SUB SWAP1 SWAP3 AND SWAP2 PUSH4 0x333F6111 SWAP2 PUSH2 0x128F SWAP2 DUP9 SWAP2 DUP9 SWAP2 DUP9 SWAP2 SWAP1 PUSH1 0x44 ADD PUSH2 0x3375 JUMP JUMPDEST PUSH1 0x20 PUSH1 0x40 MLOAD DUP1 DUP4 SUB DUP2 PUSH1 0x0 DUP8 GAS CALL ISZERO DUP1 ISZERO PUSH2 0x12AE JUMPI RETURNDATASIZE PUSH1 0x0 DUP1 RETURNDATACOPY RETURNDATASIZE PUSH1 0x0 REVERT JUMPDEST POP POP POP POP PUSH1 0x40 MLOAD RETURNDATASIZE PUSH1 0x1F NOT PUSH1 0x1F DUP3 ADD AND DUP3 ADD DUP1 PUSH1 0x40 MSTORE POP DUP2 ADD SWAP1 PUSH2 0x12D2 SWAP2 SWAP1 PUSH2 0x3456 JUMP JUMPDEST PUSH2 0x12EE JUMPI PUSH1 0x40 MLOAD PUSH3 0x461BCD PUSH1 0xE5 SHL DUP2 MSTORE PUSH1 0x4 ADD PUSH2 0x5B6 SWAP1 PUSH2 0x3478 JUMP JUMPDEST PUSH1 0x40 DUP1 MLOAD PUSH1 0x20 DUP2 ADD DUP4 SWAP1 MSTORE ADD PUSH1 0x40 MLOAD PUSH1 0x20 DUP2 DUP4 SUB SUB DUP2 MSTORE SWAP1 PUSH1 0x40 MSTORE DUP1 MLOAD SWAP1 PUSH1 0x20 ADD KECCAK256 PUSH1 0x13 SLOAD EQ PUSH2 0x1370 JUMPI PUSH1 0x40 MLOAD PUSH3 0x461BCD PUSH1 0xE5 SHL DUP2 MSTORE PUSH1 0x20 PUSH1 0x4 DUP3 ADD MSTORE PUSH1 0x27 PUSH1 0x24 DUP3 ADD MSTORE PUSH32 0x4D69736D61746368656420746172676574476173506F7765725065725365636F PUSH1 0x44 DUP3 ADD MSTORE PUSH7 0xDCC840D0C2E6D PUSH1 0xCB SHL PUSH1 0x64 DUP3 ADD MSTORE PUSH1 0x84 ADD PUSH2 0x5B6 JUMP JUMPDEST PUSH3 0xF4240 DUP2 LT ISZERO DUP1 ISZERO PUSH2 0x1387 JUMPI POP PUSH4 0x1DCD6500 DUP2 GT ISZERO JUMPDEST PUSH2 0x13E1 JUMPI PUSH1 0x40 MLOAD PUSH3 0x461BCD PUSH1 0xE5 SHL DUP2 MSTORE PUSH1 0x20 PUSH1 0x4 DUP3 ADD MSTORE PUSH1 0x25 PUSH1 0x24 DUP3 ADD MSTORE PUSH32 0x496E76616C696420746172676574476173506F7765725065725365636F6E6420 PUSH1 0x44 DUP3 ADD MSTORE PUSH5 0x72616E6765 PUSH1 0xD8 SHL PUSH1 0x64 DUP3 ADD MSTORE PUSH1 0x84 ADD PUSH2 0x5B6 JUMP JUMPDEST PUSH1 0x6 SLOAD PUSH1 0x40 MLOAD PUSH4 0x43326867 PUSH1 0xE0 SHL DUP2 MSTORE PUSH1 0x4 DUP2 ADD DUP4 SWAP1 MSTORE PUSH1 0x1 PUSH1 0x1 PUSH1 0xA0 SHL SUB SWAP1 SWAP2 AND SWAP1 PUSH4 0x43326867 SWAP1 PUSH1 0x24 ADD PUSH1 0x0 PUSH1 0x40 MLOAD DUP1 DUP4 SUB DUP2 PUSH1 0x0 DUP8 DUP1 EXTCODESIZE ISZERO DUP1 ISZERO PUSH2 0x1427 JUMPI PUSH1 0x0 DUP1 REVERT JUMPDEST POP GAS CALL ISZERO DUP1 ISZERO PUSH2 0x143B JUMPI RETURNDATASIZE PUSH1 0x0 DUP1 RETURNDATACOPY RETURNDATASIZE PUSH1 0x0 REVERT JUMPDEST POP POP PUSH1 0x0 PUSH1 0x13 SSTORE POP POP POP POP POP POP JUMP JUMPDEST PUSH1 0x9 SLOAD PUSH1 0x40 DUP1 MLOAD PUSH1 0x20 DUP1 DUP3 ADD DUP6 SWAP1 MSTORE DUP3 MLOAD DUP1 DUP4 SUB SWAP1 SWAP2 ADD DUP2 MSTORE DUP2 DUP4 ADD SWAP3 DUP4 SWAP1 MSTORE PUSH4 0x333F6111 PUSH1 0xE0 SHL SWAP1 SWAP3 MSTORE PUSH1 0x1 PUSH1 0x1 PUSH1 0xA0 SHL SUB SWAP1 SWAP3 AND SWAP2 PUSH4 0x333F6111 SWAP2 PUSH2 0x149A SWAP2 DUP9 SWAP2 DUP9 SWAP2 DUP9 SWAP2 SWAP1 PUSH1 0x44 ADD PUSH2 0x3375 JUMP JUMPDEST PUSH1 0x20 PUSH1 0x40 MLOAD DUP1 DUP4 SUB DUP2 PUSH1 0x0 DUP8 GAS CALL ISZERO DUP1 ISZERO PUSH2 0x14B9 JUMPI RETURNDATASIZE PUSH1 0x0 DUP1 RETURNDATACOPY RETURNDATASIZE PUSH1 0x0 REVERT JUMPDEST POP POP POP POP PUSH1 0x40 MLOAD RETURNDATASIZE PUSH1 0x1F NOT PUSH1 0x1F DUP3 ADD AND DUP3 ADD DUP1 PUSH1 0x40 MSTORE POP DUP2 ADD SWAP1 PUSH2 0x14DD SWAP2 SWAP1 PUSH2 0x3456 JUMP JUMPDEST PUSH2 0x14F9 JUMPI PUSH1 0x40 MLOAD PUSH3 0x461BCD PUSH1 0xE5 SHL DUP2 MSTORE PUSH1 0x4 ADD PUSH2 0x5B6 SWAP1 PUSH2 0x3478 JUMP JUMPDEST PUSH1 0x40 DUP1 MLOAD PUSH1 0x20 DUP2 ADD DUP4 SWAP1 MSTORE ADD PUSH1 0x40 DUP1 MLOAD PUSH1 0x1F NOT DUP2 DUP5 SUB ADD DUP2 MSTORE SWAP2 SWAP1 MSTORE DUP1 MLOAD PUSH1 0x20 SWAP1 SWAP2 ADD KECCAK256 PUSH1 0xD SSTORE POP POP POP POP JUMP JUMPDEST DUP4 DUP3 DUP5 DUP4 PUSH1 0x40 MLOAD PUSH1 0x20 ADD PUSH2 0x153C SWAP2 DUP2 MSTORE PUSH1 0x20 ADD SWAP1 JUMP JUMPDEST PUSH1 0x40 DUP1 MLOAD PUSH1 0x1F NOT DUP2 DUP5 SUB ADD DUP2 MSTORE SWAP2 SWAP1 MSTORE PUSH1 0x0 SLOAD PUSH1 0xFF AND PUSH2 0x156E JUMPI PUSH1 0x40 MLOAD PUSH3 0x461BCD PUSH1 0xE5 SHL DUP2 MSTORE PUSH1 0x4 ADD PUSH2 0x5B6 SWAP1 PUSH2 0x34A5 JUMP JUMPDEST PUSH1 0x0 DUP5 PUSH1 0x40 MLOAD PUSH1 0x20 ADD PUSH2 0x1581 SWAP2 SWAP1 PUSH2 0x34DC JUMP JUMPDEST PUSH1 0x40 DUP1 MLOAD PUSH1 0x1F NOT DUP2 DUP5 SUB ADD DUP2 MSTORE SWAP2 SWAP1 MSTORE DUP1 MLOAD PUSH1 0x20 SWAP1 SWAP2 ADD KECCAK256 SWAP1 POP PUSH1 0x0 DUP1 DUP3 DUP2 MSTORE PUSH1 0x2 PUSH1 0x20 DUP2 SWAP1 MSTORE PUSH1 0x40 SWAP1 SWAP2 KECCAK256 SLOAD PUSH1 0xFF AND SWAP1 DUP2 GT ISZERO PUSH2 0x15C1 JUMPI PUSH2 0x15C1 PUSH2 0x2EA9 JUMP JUMPDEST EQ PUSH2 0x15DE JUMPI PUSH1 0x40 MLOAD PUSH3 0x461BCD PUSH1 0xE5 SHL DUP2 MSTORE PUSH1 0x4 ADD PUSH2 0x5B6 SWAP1 PUSH2 0x3535 JUMP JUMPDEST PUSH1 0x0 DUP3 DUP5 PUSH1 0x40 MLOAD PUSH1 0x20 ADD PUSH2 0x15F3 SWAP3 SWAP2 SWAP1 PUSH2 0x3513 JUMP JUMPDEST PUSH1 0x40 DUP1 MLOAD PUSH1 0x1F NOT DUP2 DUP5 SUB ADD DUP2 MSTORE SWAP1 DUP3 SWAP1 MSTORE DUP1 MLOAD PUSH1 0x20 SWAP2 DUP3 ADD KECCAK256 DUP1 DUP4 MSTORE SWAP3 POP PUSH1 0x0 DUP1 MLOAD PUSH1 0x20 PUSH2 0x3638 DUP4 CODECOPY DUP2 MLOAD SWAP2 MSTORE SWAP2 ADD PUSH1 0x40 MLOAD DUP1 SWAP2 SUB SWAP1 LOG1 PUSH1 0x0 PUSH2 0x1637 DUP3 DUP8 DUP10 PUSH2 0x16CF JUMP JUMPDEST PUSH1 0x0 DUP1 SLOAD PUSH2 0xFF00 NOT AND PUSH2 0x100 DUP4 ISZERO ISZERO MUL OR SWAP1 SSTORE SWAP1 POP DUP1 PUSH2 0x166F JUMPI PUSH1 0x40 MLOAD DUP3 DUP2 MSTORE PUSH1 0x0 DUP1 MLOAD PUSH1 0x20 PUSH2 0x3618 DUP4 CODECOPY DUP2 MLOAD SWAP2 MSTORE SWAP1 PUSH1 0x20 ADD PUSH2 0xD20 JUMP JUMPDEST PUSH1 0x0 DUP4 DUP2 MSTORE PUSH1 0x2 PUSH1 0x20 MSTORE PUSH1 0x40 SWAP1 DUP2 SWAP1 KECCAK256 SLOAD SWAP1 MLOAD PUSH1 0x0 DUP1 MLOAD PUSH1 0x20 PUSH2 0x3658 DUP4 CODECOPY DUP2 MLOAD SWAP2 MSTORE SWAP2 PUSH2 0x16A5 SWAP2 PUSH1 0xFF SWAP1 SWAP2 AND SWAP1 DUP7 SWAP1 DUP10 SWAP1 PUSH2 0x2EE1 JUMP JUMPDEST PUSH1 0x40 MLOAD DUP1 SWAP2 SUB SWAP1 LOG1 PUSH2 0x16B7 DUP4 DUP7 PUSH2 0x2CEE JUMP JUMPDEST PUSH2 0x16C2 PUSH1 0x1 DUP10 PUSH2 0x2BD5 JUMP JUMPDEST POP POP POP POP POP POP POP POP POP POP POP JUMP JUMPDEST PUSH1 0x0 DUP1 JUMPDEST PUSH2 0x100 DUP2 LT ISZERO PUSH2 0x1777 JUMPI DUP4 DUP2 PUSH2 0x100 DUP2 LT PUSH2 0x16F0 JUMPI PUSH2 0x16F0 PUSH2 0x32BF JUMP JUMPDEST PUSH1 0x20 MUL DUP2 ADD SWAP1 PUSH2 0x1700 SWAP2 SWAP1 PUSH2 0x356C JUMP JUMPDEST PUSH1 0x40 MLOAD PUSH2 0x170E SWAP3 SWAP2 SWAP1 PUSH2 0x35BA JUMP JUMPDEST PUSH1 0x40 MLOAD DUP1 SWAP2 SUB SWAP1 KECCAK256 DUP4 DUP3 PUSH2 0x100 DUP2 LT PUSH2 0x1729 JUMPI PUSH2 0x1729 PUSH2 0x32BF JUMP JUMPDEST PUSH1 0x40 MUL ADD PUSH1 0x0 DUP4 PUSH1 0xFF SUB PUSH1 0x1 SWAP1 SHL DUP9 AND GT PUSH2 0x1745 JUMPI PUSH1 0x0 PUSH2 0x1748 JUMP JUMPDEST PUSH1 0x1 JUMPDEST PUSH1 0xFF AND PUSH1 0x2 DUP2 LT PUSH2 0x175B JUMPI PUSH2 0x175B PUSH2 0x32BF JUMP JUMPDEST PUSH1 0x20 MUL ADD CALLDATALOAD EQ PUSH2 0x176F JUMPI PUSH1 0x0 SWAP2 POP POP PUSH2 0x177D JUMP JUMPDEST PUSH1 0x1 ADD PUSH2 0x16D3 JUMP JUMPDEST POP PUSH1 0x1 SWAP1 POP JUMPDEST SWAP4 SWAP3 POP POP POP JUMP JUMPDEST PUSH1 0x9 SLOAD PUSH1 0x40 DUP1 MLOAD PUSH1 0x20 DUP1 DUP3 ADD DUP6 SWAP1 MSTORE DUP3 MLOAD DUP1 DUP4 SUB SWAP1 SWAP2 ADD DUP2 MSTORE DUP2 DUP4 ADD SWAP3 DUP4 SWAP1 MSTORE PUSH4 0x333F6111 PUSH1 0xE0 SHL SWAP1 SWAP3 MSTORE PUSH1 0x1 PUSH1 0x1 PUSH1 0xA0 SHL SUB SWAP1 SWAP3 AND SWAP2 PUSH4 0x333F6111 SWAP2 PUSH2 0x17D4 SWAP2 DUP9 SWAP2 DUP9 SWAP2 DUP9 SWAP2 SWAP1 PUSH1 0x44 ADD PUSH2 0x3375 JUMP JUMPDEST PUSH1 0x20 PUSH1 0x40 MLOAD DUP1 DUP4 SUB DUP2 PUSH1 0x0 DUP8 GAS CALL ISZERO DUP1 ISZERO PUSH2 0x17F3 JUMPI RETURNDATASIZE PUSH1 0x0 DUP1 RETURNDATACOPY RETURNDATASIZE PUSH1 0x0 REVERT JUMPDEST POP POP POP POP PUSH1 0x40 MLOAD RETURNDATASIZE PUSH1 0x1F NOT PUSH1 0x1F DUP3 ADD AND DUP3 ADD DUP1 PUSH1 0x40 MSTORE POP DUP2 ADD SWAP1 PUSH2 0x1817 SWAP2 SWAP1 PUSH2 0x3456 JUMP JUMPDEST PUSH2 0x1833 JUMPI PUSH1 0x40 MLOAD PUSH3 0x461BCD PUSH1 0xE5 SHL DUP2 MSTORE PUSH1 0x4 ADD PUSH2 0x5B6 SWAP1 PUSH2 0x3478 JUMP JUMPDEST PUSH1 0x40 DUP1 MLOAD PUSH1 0x20 DUP2 ADD DUP4 SWAP1 MSTORE ADD PUSH1 0x40 DUP1 MLOAD PUSH1 0x1F NOT DUP2 DUP5 SUB ADD DUP2 MSTORE SWAP2 SWAP1 MSTORE DUP1 MLOAD PUSH1 0x20 SWAP1 SWAP2 ADD KECCAK256 PUSH1 0xE SSTORE POP POP POP POP JUMP JUMPDEST PUSH1 0x9 SLOAD PUSH1 0x40 DUP1 MLOAD PUSH1 0x20 DUP1 DUP3 ADD DUP6 SWAP1 MSTORE DUP3 MLOAD DUP1 DUP4 SUB SWAP1 SWAP2 ADD DUP2 MSTORE DUP2 DUP4 ADD SWAP3 DUP4 SWAP1 MSTORE PUSH4 0x333F6111 PUSH1 0xE0 SHL SWAP1 SWAP3 MSTORE PUSH1 0x1 PUSH1 0x1 PUSH1 0xA0 SHL SUB SWAP1 SWAP3 AND SWAP2 PUSH4 0x333F6111 SWAP2 PUSH2 0x18B0 SWAP2 DUP9 SWAP2 DUP9 SWAP2 DUP9 SWAP2 SWAP1 PUSH1 0x44 ADD PUSH2 0x3375 JUMP JUMPDEST PUSH1 0x20 PUSH1 0x40 MLOAD DUP1 DUP4 SUB DUP2 PUSH1 0x0 DUP8 GAS CALL ISZERO DUP1 ISZERO PUSH2 0x18CF JUMPI RETURNDATASIZE PUSH1 0x0 DUP1 RETURNDATACOPY RETURNDATASIZE PUSH1 0x0 REVERT JUMPDEST POP POP POP POP PUSH1 0x40 MLOAD RETURNDATASIZE PUSH1 0x1F NOT PUSH1 0x1F DUP3 ADD AND DUP3 ADD DUP1 PUSH1 0x40 MSTORE POP DUP2 ADD SWAP1 PUSH2 0x18F3 SWAP2 SWAP1 PUSH2 0x3456 JUMP JUMPDEST PUSH2 0x190F JUMPI PUSH1 0x40 MLOAD PUSH3 0x461BCD PUSH1 0xE5 SHL DUP2 MSTORE PUSH1 0x4 ADD PUSH2 0x5B6 SWAP1 PUSH2 0x3478 JUMP JUMPDEST PUSH1 0x40 DUP1 MLOAD PUSH1 0x20 DUP2 ADD DUP4 SWAP1 MSTORE ADD PUSH1 0x40 MLOAD PUSH1 0x20 DUP2 DUP4 SUB SUB DUP2 MSTORE SWAP1 PUSH1 0x40 MSTORE DUP1 MLOAD SWAP1 PUSH1 0x20 ADD KECCAK256 PUSH1 0xD SLOAD EQ PUSH2 0x198D JUMPI PUSH1 0x40 MLOAD PUSH3 0x461BCD PUSH1 0xE5 SHL DUP2 MSTORE PUSH1 0x20 PUSH1 0x4 DUP3 ADD MSTORE PUSH1 0x23 PUSH1 0x24 DUP3 ADD MSTORE PUSH32 0x4D69736D61746368656420626173655265776172645065725365636F6E642068 PUSH1 0x44 DUP3 ADD MSTORE PUSH3 0xC2E6D PUSH1 0xEB SHL PUSH1 0x64 DUP3 ADD MSTORE PUSH1 0x84 ADD PUSH2 0x5B6 JUMP JUMPDEST PUSH8 0x6F05B59D3B20000 DUP2 LT ISZERO DUP1 ISZERO PUSH2 0x19AE JUMPI POP PUSH9 0x1BC16D674EC800000 DUP2 GT ISZERO JUMPDEST PUSH2 0x1A04 JUMPI PUSH1 0x40 MLOAD PUSH3 0x461BCD PUSH1 0xE5 SHL DUP2 MSTORE PUSH1 0x20 PUSH1 0x4 DUP3 ADD MSTORE PUSH1 0x21 PUSH1 0x24 DUP3 ADD MSTORE PUSH32 0x496E76616C696420626173655265776172645065725365636F6E642072616E67 PUSH1 0x44 DUP3 ADD MSTORE PUSH1 0x65 PUSH1 0xF8 SHL PUSH1 0x64 DUP3 ADD MSTORE PUSH1 0x84 ADD PUSH2 0x5B6 JUMP JUMPDEST PUSH1 0x6 SLOAD PUSH1 0x40 MLOAD PUSH4 0xB6D9EDD5 PUSH1 0xE0 SHL DUP2 MSTORE PUSH1 0x4 DUP2 ADD DUP4 SWAP1 MSTORE PUSH1 0x1 PUSH1 0x1 PUSH1 0xA0 SHL SUB SWAP1 SWAP2 AND SWAP1 PUSH4 0xB6D9EDD5 SWAP1 PUSH1 0x24 ADD PUSH1 0x0 PUSH1 0x40 MLOAD DUP1 DUP4 SUB DUP2 PUSH1 0x0 DUP8 DUP1 EXTCODESIZE ISZERO DUP1 ISZERO PUSH2 0x1A4A JUMPI PUSH1 0x0 DUP1 REVERT JUMPDEST POP GAS CALL ISZERO DUP1 ISZERO PUSH2 0x1A5E JUMPI RETURNDATASIZE PUSH1 0x0 DUP1 RETURNDATACOPY RETURNDATASIZE PUSH1 0x0 REVERT JUMPDEST POP POP PUSH1 0x0 PUSH1 0xD SSTORE POP POP POP POP POP POP JUMP JUMPDEST PUSH1 0x1 SLOAD PUSH1 0x60 SWAP1 PUSH1 0x0 SWAP1 PUSH8 0xFFFFFFFFFFFFFFFF DUP2 GT ISZERO PUSH2 0x1A8E JUMPI PUSH2 0x1A8E PUSH2 0x2FD4 JUMP JUMPDEST PUSH1 0x40 MLOAD SWAP1 DUP1 DUP3 MSTORE DUP1 PUSH1 0x20 MUL PUSH1 0x20 ADD DUP3 ADD PUSH1 0x40 MSTORE DUP1 ISZERO PUSH2 0x1AB7 JUMPI DUP2 PUSH1 0x20 ADD PUSH1 0x20 DUP3 MUL DUP1 CALLDATASIZE DUP4 CALLDATACOPY ADD SWAP1 POP JUMPDEST POP SWAP1 POP PUSH1 0x0 DUP1 JUMPDEST PUSH1 0x1 SLOAD DUP2 LT ISZERO PUSH2 0x1B78 JUMPI DUP5 PUSH1 0x2 DUP2 GT ISZERO PUSH2 0x1ADA JUMPI PUSH2 0x1ADA PUSH2 0x2EA9 JUMP JUMPDEST PUSH1 0x1 DUP3 DUP2 SLOAD DUP2 LT PUSH2 0x1AED JUMPI PUSH2 0x1AED PUSH2 0x32BF JUMP JUMPDEST PUSH1 0x0 SWAP2 DUP3 MSTORE PUSH1 0x20 SWAP1 SWAP2 KECCAK256 PUSH1 0x2 SWAP2 DUP3 MUL ADD SLOAD PUSH1 0xFF AND SWAP1 DUP2 GT ISZERO PUSH2 0x1B11 JUMPI PUSH2 0x1B11 PUSH2 0x2EA9 JUMP JUMPDEST SUB PUSH2 0x1B66 JUMPI PUSH1 0x1 DUP2 DUP2 SLOAD DUP2 LT PUSH2 0x1B29 JUMPI PUSH2 0x1B29 PUSH2 0x32BF JUMP JUMPDEST SWAP1 PUSH1 0x0 MSTORE PUSH1 0x20 PUSH1 0x0 KECCAK256 SWAP1 PUSH1 0x2 MUL ADD PUSH1 0x1 ADD SLOAD DUP4 DUP4 DUP2 MLOAD DUP2 LT PUSH2 0x1B4D JUMPI PUSH2 0x1B4D PUSH2 0x32BF JUMP JUMPDEST PUSH1 0x20 SWAP1 DUP2 MUL SWAP2 SWAP1 SWAP2 ADD ADD MSTORE DUP2 PUSH2 0x1B62 DUP2 PUSH2 0x32D5 JUMP JUMPDEST SWAP3 POP POP JUMPDEST DUP1 PUSH2 0x1B70 DUP2 PUSH2 0x32D5 JUMP JUMPDEST SWAP2 POP POP PUSH2 0x1ABE JUMP JUMPDEST POP PUSH1 0x0 DUP2 PUSH8 0xFFFFFFFFFFFFFFFF DUP2 GT ISZERO PUSH2 0x1B94 JUMPI PUSH2 0x1B94 PUSH2 0x2FD4 JUMP JUMPDEST PUSH1 0x40 MLOAD SWAP1 DUP1 DUP3 MSTORE DUP1 PUSH1 0x20 MUL PUSH1 0x20 ADD DUP3 ADD PUSH1 0x40 MSTORE DUP1 ISZERO PUSH2 0x1BBD JUMPI DUP2 PUSH1 0x20 ADD PUSH1 0x20 DUP3 MUL DUP1 CALLDATASIZE DUP4 CALLDATACOPY ADD SWAP1 POP JUMPDEST POP SWAP1 POP PUSH1 0x0 JUMPDEST DUP3 DUP2 LT ISZERO PUSH2 0x1C14 JUMPI DUP4 DUP2 DUP2 MLOAD DUP2 LT PUSH2 0x1BDD JUMPI PUSH2 0x1BDD PUSH2 0x32BF JUMP JUMPDEST PUSH1 0x20 MUL PUSH1 0x20 ADD ADD MLOAD DUP3 DUP3 DUP2 MLOAD DUP2 LT PUSH2 0x1BF7 JUMPI PUSH2 0x1BF7 PUSH2 0x32BF JUMP JUMPDEST PUSH1 0x20 SWAP1 DUP2 MUL SWAP2 SWAP1 SWAP2 ADD ADD MSTORE DUP1 PUSH2 0x1C0C DUP2 PUSH2 0x32D5 JUMP JUMPDEST SWAP2 POP POP PUSH2 0x1BC3 JUMP JUMPDEST POP SWAP5 SWAP4 POP POP POP POP JUMP JUMPDEST PUSH1 0x9 SLOAD PUSH1 0x40 DUP1 MLOAD PUSH1 0x60 DUP5 SWAP1 SHL PUSH12 0xFFFFFFFFFFFFFFFFFFFFFFFF NOT AND PUSH1 0x20 DUP3 ADD MSTORE DUP2 MLOAD PUSH1 0x14 DUP2 DUP4 SUB ADD DUP2 MSTORE PUSH1 0x34 DUP3 ADD SWAP3 DUP4 SWAP1 MSTORE PUSH4 0x333F6111 PUSH1 0xE0 SHL SWAP1 SWAP3 MSTORE PUSH1 0x1 PUSH1 0x1 PUSH1 0xA0 SHL SUB SWAP1 SWAP3 AND SWAP2 PUSH4 0x333F6111 SWAP2 PUSH2 0x1C7F SWAP2 DUP9 SWAP2 DUP9 SWAP2 DUP9 SWAP2 SWAP1 PUSH1 0x38 ADD PUSH2 0x3375 JUMP JUMPDEST PUSH1 0x20 PUSH1 0x40 MLOAD DUP1 DUP4 SUB DUP2 PUSH1 0x0 DUP8 GAS CALL ISZERO DUP1 ISZERO PUSH2 0x1C9E JUMPI RETURNDATASIZE PUSH1 0x0 DUP1 RETURNDATACOPY RETURNDATASIZE PUSH1 0x0 REVERT JUMPDEST POP POP POP POP PUSH1 0x40 MLOAD RETURNDATASIZE PUSH1 0x1F NOT PUSH1 0x1F DUP3 ADD AND DUP3 ADD DUP1 PUSH1 0x40 MSTORE POP DUP2 ADD SWAP1 PUSH2 0x1CC2 SWAP2 SWAP1 PUSH2 0x3456 JUMP JUMPDEST PUSH2 0x1CDE JUMPI PUSH1 0x40 MLOAD PUSH3 0x461BCD PUSH1 0xE5 SHL DUP2 MSTORE PUSH1 0x4 ADD PUSH2 0x5B6 SWAP1 PUSH2 0x3478 JUMP JUMPDEST PUSH1 0xA SLOAD PUSH1 0x1 PUSH1 0x1 PUSH1 0xA0 SHL SUB DUP3 DUP2 AND SWAP2 AND EQ PUSH2 0x1D5A JUMPI PUSH1 0x40 MLOAD PUSH3 0x461BCD PUSH1 0xE5 SHL DUP2 MSTORE PUSH1 0x20 PUSH1 0x4 DUP3 ADD MSTORE PUSH1 0x36 PUSH1 0x24 DUP3 ADD MSTORE PUSH32 0x4D69736D6174636865642053464374436F6E7374732061646472657373206265 PUSH1 0x44 DUP3 ADD MSTORE PUSH22 0x747765656E2073746570206F6E6520616E642074776F PUSH1 0x50 SHL PUSH1 0x64 DUP3 ADD MSTORE PUSH1 0x84 ADD PUSH2 0x5B6 JUMP JUMPDEST PUSH1 0x6 DUP1 SLOAD PUSH1 0x1 PUSH1 0x1 PUSH1 0xA0 SHL SUB DUP4 AND PUSH1 0x1 PUSH1 0x1 PUSH1 0xA0 SHL SUB NOT SWAP2 DUP3 AND DUP2 OR SWAP1 SWAP3 SSTORE PUSH1 0xA DUP1 SLOAD SWAP1 SWAP2 AND SWAP1 SSTORE PUSH1 0x40 MLOAD SWAP1 DUP2 MSTORE PUSH32 0xBD7DB83A9BE65BE3C3E00CED885F01CAF574E16B41B679616CD9CFB3A53EEBD6 SWAP1 PUSH1 0x20 ADD PUSH1 0x40 MLOAD DUP1 SWAP2 SUB SWAP1 LOG1 POP POP POP POP JUMP JUMPDEST PUSH1 0x9 SLOAD PUSH1 0x40 DUP1 MLOAD PUSH1 0x60 DUP5 SWAP1 SHL PUSH12 0xFFFFFFFFFFFFFFFFFFFFFFFF NOT AND PUSH1 0x20 DUP3 ADD MSTORE DUP2 MLOAD PUSH1 0x14 DUP2 DUP4 SUB ADD DUP2 MSTORE PUSH1 0x34 DUP3 ADD SWAP3 DUP4 SWAP1 MSTORE PUSH4 0x333F6111 PUSH1 0xE0 SHL SWAP1 SWAP3 MSTORE PUSH1 0x1 PUSH1 0x1 PUSH1 0xA0 SHL SUB SWAP1 SWAP3 AND SWAP2 PUSH4 0x333F6111 SWAP2 PUSH2 0x1E1D SWAP2 DUP9 SWAP2 DUP9 SWAP2 DUP9 SWAP2 SWAP1 PUSH1 0x38 ADD PUSH2 0x3375 JUMP JUMPDEST PUSH1 0x20 PUSH1 0x40 MLOAD DUP1 DUP4 SUB DUP2 PUSH1 0x0 DUP8 GAS CALL ISZERO DUP1 ISZERO PUSH2 0x1E3C JUMPI RETURNDATASIZE PUSH1 0x0 DUP1 RETURNDATACOPY RETURNDATASIZE PUSH1 0x0 REVERT JUMPDEST POP POP POP POP PUSH1 0x40 MLOAD RETURNDATASIZE PUSH1 0x1F NOT PUSH1 0x1F DUP3 ADD AND DUP3 ADD DUP1 PUSH1 0x40 MSTORE POP DUP2 ADD SWAP1 PUSH2 0x1E60 SWAP2 SWAP1 PUSH2 0x3456 JUMP JUMPDEST PUSH2 0x1E7C JUMPI PUSH1 0x40 MLOAD PUSH3 0x461BCD PUSH1 0xE5 SHL DUP2 MSTORE PUSH1 0x4 ADD PUSH2 0x5B6 SWAP1 PUSH2 0x3478 JUMP JUMPDEST PUSH1 0xA DUP1 SLOAD PUSH1 0x1 PUSH1 0x1 PUSH1 0xA0 SHL SUB NOT AND PUSH1 0x1 PUSH1 0x1 PUSH1 0xA0 SHL SUB SWAP3 SWAP1 SWAP3 AND SWAP2 SWAP1 SWAP2 OR SWAP1 SSTORE POP POP POP JUMP JUMPDEST PUSH1 0x9 SLOAD PUSH1 0x40 DUP1 MLOAD PUSH1 0x20 DUP1 DUP3 ADD DUP6 SWAP1 MSTORE DUP3 MLOAD DUP1 DUP4 SUB SWAP1 SWAP2 ADD DUP2 MSTORE DUP2 DUP4 ADD SWAP3 DUP4 SWAP1 MSTORE PUSH4 0x333F6111 PUSH1 0xE0 SHL SWAP1 SWAP3 MSTORE PUSH1 0x1 PUSH1 0x1 PUSH1 0xA0 SHL SUB SWAP1 SWAP3 AND SWAP2 PUSH4 0x333F6111 SWAP2 PUSH2 0x1EF1 SWAP2 DUP9 SWAP2 DUP9 SWAP2 DUP9 SWAP2 SWAP1 PUSH1 0x44 ADD PUSH2 0x3375 JUMP JUMPDEST PUSH1 0x20 PUSH1 0x40 MLOAD DUP1 DUP4 SUB DUP2 PUSH1 0x0 DUP8 GAS CALL ISZERO DUP1 ISZERO PUSH2 0x1F10 JUMPI RETURNDATASIZE PUSH1 0x0 DUP1 RETURNDATACOPY RETURNDATASIZE PUSH1 0x0 REVERT JUMPDEST POP POP POP POP PUSH1 0x40 MLOAD RETURNDATASIZE PUSH1 0x1F NOT PUSH1 0x1F DUP3 ADD AND DUP3 ADD DUP1 PUSH1 0x40 MSTORE POP DUP2 ADD SWAP1 PUSH2 0x1F34 SWAP2 SWAP1 PUSH2 0x3456 JUMP JUMPDEST PUSH2 0x1F50 JUMPI PUSH1 0x40 MLOAD PUSH3 0x461BCD PUSH1 0xE5 SHL DUP2 MSTORE PUSH1 0x4 ADD PUSH2 0x5B6 SWAP1 PUSH2 0x3478 JUMP JUMPDEST PUSH1 0x40 DUP1 MLOAD PUSH1 0x20 DUP2 ADD DUP4 SWAP1 MSTORE ADD PUSH1 0x40 MLOAD PUSH1 0x20 DUP2 DUP4 SUB SUB DUP2 MSTORE SWAP1 PUSH1 0x40 MSTORE DUP1 MLOAD SWAP1 PUSH1 0x20 ADD KECCAK256 PUSH1 0x12 SLOAD EQ PUSH2 0x1FDB JUMPI PUSH1 0x40 MLOAD PUSH3 0x461BCD PUSH1 0xE5 SHL DUP2 MSTORE PUSH1 0x20 PUSH1 0x4 DUP3 ADD MSTORE PUSH1 0x30 PUSH1 0x24 DUP3 ADD MSTORE PUSH32 0x4D69736D617463686564206F66666C696E6550656E616C74795468726573686F PUSH1 0x44 DUP3 ADD MSTORE PUSH16 0xD8C884D8DEC6D6E69CEADA40D0C2E6D PUSH1 0x83 SHL PUSH1 0x64 DUP3 ADD MSTORE PUSH1 0x84 ADD PUSH2 0x5B6 JUMP JUMPDEST PUSH1 0x64 DUP2 LT ISZERO DUP1 ISZERO PUSH2 0x1FEF JUMPI POP PUSH3 0xF4240 DUP2 GT ISZERO JUMPDEST PUSH2 0x2052 JUMPI PUSH1 0x40 MLOAD PUSH3 0x461BCD PUSH1 0xE5 SHL DUP2 MSTORE PUSH1 0x20 PUSH1 0x4 DUP3 ADD MSTORE PUSH1 0x2E PUSH1 0x24 DUP3 ADD MSTORE PUSH32 0x496E76616C6964206F66666C696E6550656E616C74795468726573686F6C6442 PUSH1 0x44 DUP3 ADD MSTORE PUSH14 0x6C6F636B734E756D2072616E6765 PUSH1 0x90 SHL PUSH1 0x64 DUP3 ADD MSTORE PUSH1 0x84 ADD PUSH2 0x5B6 JUMP JUMPDEST PUSH1 0x6 SLOAD PUSH1 0x40 MLOAD PUSH4 0x17427473 PUSH1 0xE1 SHL DUP2 MSTORE PUSH1 0x4 DUP2 ADD DUP4 SWAP1 MSTORE PUSH1 0x1 PUSH1 0x1 PUSH1 0xA0 SHL SUB SWAP1 SWAP2 AND SWAP1 PUSH4 0x2E84E8E6 SWAP1 PUSH1 0x24 ADD PUSH1 0x0 PUSH1 0x40 MLOAD DUP1 DUP4 SUB DUP2 PUSH1 0x0 DUP8 DUP1 EXTCODESIZE ISZERO DUP1 ISZERO PUSH2 0x2098 JUMPI PUSH1 0x0 DUP1 REVERT JUMPDEST POP GAS CALL ISZERO DUP1 ISZERO PUSH2 0x20AC JUMPI RETURNDATASIZE PUSH1 0x0 DUP1 RETURNDATACOPY RETURNDATASIZE PUSH1 0x0 REVERT JUMPDEST POP POP PUSH1 0x0 PUSH1 0x12 SSTORE POP POP POP POP POP POP JUMP JUMPDEST PUSH1 0x9 SLOAD PUSH1 0x40 DUP1 MLOAD PUSH1 0x20 DUP1 DUP3 ADD DUP6 SWAP1 MSTORE DUP3 MLOAD DUP1 DUP4 SUB SWAP1 SWAP2 ADD DUP2 MSTORE DUP2 DUP4 ADD SWAP3 DUP4 SWAP1 MSTORE PUSH4 0x333F6111 PUSH1 0xE0 SHL SWAP1 SWAP3 MSTORE PUSH1 0x1 PUSH1 0x1 PUSH1 0xA0 SHL SUB SWAP1 SWAP3 AND SWAP2 PUSH4 0x333F6111 SWAP2 PUSH2 0x210B SWAP2 DUP9 SWAP2 DUP9 SWAP2 DUP9 SWAP2 SWAP1 PUSH1 0x44 ADD PUSH2 0x3375 JUMP JUMPDEST PUSH1 0x20 PUSH1 0x40 MLOAD DUP1 DUP4 SUB DUP2 PUSH1 0x0 DUP8 GAS CALL ISZERO DUP1 ISZERO PUSH2 0x212A JUMPI RETURNDATASIZE PUSH1 0x0 DUP1 RETURNDATACOPY RETURNDATASIZE PUSH1 0x0 REVERT JUMPDEST POP POP POP POP PUSH1 0x40 MLOAD RETURNDATASIZE PUSH1 0x1F NOT PUSH1 0x1F DUP3 ADD AND DUP3 ADD DUP1 PUSH1 0x40 MSTORE POP DUP2 ADD SWAP1 PUSH2 0x214E SWAP2 SWAP1 PUSH2 0x3456 JUMP JUMPDEST PUSH2 0x216A JUMPI PUSH1 0x40 MLOAD PUSH3 0x461BCD PUSH1 0xE5 SHL DUP2 MSTORE PUSH1 0x4 ADD PUSH2 0x5B6 SWAP1 PUSH2 0x3478 JUMP JUMPDEST PUSH1 0x40 DUP1 MLOAD PUSH1 0x20 DUP2 ADD DUP4 SWAP1 MSTORE ADD PUSH1 0x40 MLOAD PUSH1 0x20 DUP2 DUP4 SUB SUB DUP2 MSTORE SWAP1 PUSH1 0x40 MSTORE DUP1 MLOAD SWAP1 PUSH1 0x20 ADD KECCAK256 PUSH1 0xE SLOAD EQ PUSH2 0x21F0 JUMPI PUSH1 0x40 MLOAD PUSH3 0x461BCD PUSH1 0xE5 SHL DUP2 MSTORE PUSH1 0x20 PUSH1 0x4 DUP3 ADD MSTORE PUSH1 0x2B PUSH1 0x24 DUP3 ADD MSTORE PUSH32 0x4D69736D617463686564206F66666C696E6550656E616C74795468726573686F PUSH1 0x44 DUP3 ADD MSTORE PUSH11 0xD8C8A8D2DACA40D0C2E6D PUSH1 0xAB SHL PUSH1 0x64 DUP3 ADD MSTORE PUSH1 0x84 ADD PUSH2 0x5B6 JUMP JUMPDEST PUSH3 0x15180 DUP2 LT ISZERO DUP1 ISZERO PUSH2 0x2206 JUMPI POP PUSH3 0xD2F00 DUP2 GT ISZERO JUMPDEST PUSH2 0x2264 JUMPI PUSH1 0x40 MLOAD PUSH3 0x461BCD PUSH1 0xE5 SHL DUP2 MSTORE PUSH1 0x20 PUSH1 0x4 DUP3 ADD MSTORE PUSH1 0x29 PUSH1 0x24 DUP3 ADD MSTORE PUSH32 0x496E76616C6964206F66666C696E6550656E616C74795468726573686F6C6454 PUSH1 0x44 DUP3 ADD MSTORE PUSH9 0x696D652072616E6765 PUSH1 0xB8 SHL PUSH1 0x64 DUP3 ADD MSTORE PUSH1 0x84 ADD PUSH2 0x5B6 JUMP JUMPDEST PUSH1 0x6 SLOAD PUSH1 0x40 MLOAD PUSH4 0xC691D77 PUSH1 0xE3 SHL DUP2 MSTORE PUSH1 0x4 DUP2 ADD DUP4 SWAP1 MSTORE PUSH1 0x1 PUSH1 0x1 PUSH1 0xA0 SHL SUB SWAP1 SWAP2 AND SWAP1 PUSH4 0x6348EBB8 SWAP1 PUSH1 0x24 ADD PUSH1 0x0 PUSH1 0x40 MLOAD DUP1 DUP4 SUB DUP2 PUSH1 0x0 DUP8 DUP1 EXTCODESIZE ISZERO DUP1 ISZERO PUSH2 0x22AA JUMPI PUSH1 0x0 DUP1 REVERT JUMPDEST POP GAS CALL ISZERO DUP1 ISZERO PUSH2 0x22BE JUMPI RETURNDATASIZE PUSH1 0x0 DUP1 RETURNDATACOPY RETURNDATASIZE PUSH1 0x0 REVERT JUMPDEST POP POP PUSH1 0x0 PUSH1 0xE SSTORE POP POP POP POP POP POP JUMP JUMPDEST PUSH1 0x6 SLOAD PUSH1 0x40 DUP1 MLOAD PUSH4 0x1A8DF4A3 PUSH1 0xE3 SHL DUP2 MSTORE SWAP1 MLOAD PUSH1 0x0 SWAP3 PUSH1 0x1 PUSH1 0x1 PUSH1 0xA0 SHL SUB AND SWAP2 PUSH4 0xD46FA518 SWAP2 PUSH1 0x4 DUP1 DUP4 ADD SWAP3 PUSH1 0x20 SWAP3 SWAP2 SWAP1 DUP3 SWAP1 SUB ADD DUP2 DUP7 GAS STATICCALL ISZERO DUP1 ISZERO PUSH2 0x2317 JUMPI RETURNDATASIZE PUSH1 0x0 DUP1 RETURNDATACOPY RETURNDATASIZE PUSH1 0x0 REVERT JUMPDEST POP POP POP POP PUSH1 0x40 MLOAD RETURNDATASIZE PUSH1 0x1F NOT PUSH1 0x1F DUP3 ADD AND DUP3 ADD DUP1 PUSH1 0x40 MSTORE POP DUP2 ADD SWAP1 PUSH2 0x233B SWAP2 SWAP1 PUSH2 0x35CA JUMP JUMPDEST SWAP1 POP SWAP1 JUMP JUMPDEST DUP4 DUP4 DUP4 DUP4 PUSH1 0x40 MLOAD PUSH1 0x20 ADD PUSH2 0x2356 SWAP2 DUP2 MSTORE PUSH1 0x20 ADD SWAP1 JUMP JUMPDEST PUSH1 0x40 DUP1 MLOAD PUSH1 0x1F NOT DUP2 DUP5 SUB ADD DUP2 MSTORE SWAP2 SWAP1 MSTORE PUSH1 0x0 SLOAD PUSH1 0xFF AND PUSH2 0x2388 JUMPI PUSH1 0x40 MLOAD PUSH3 0x461BCD PUSH1 0xE5 SHL DUP2 MSTORE PUSH1 0x4 ADD PUSH2 0x5B6 SWAP1 PUSH2 0x34A5 JUMP JUMPDEST PUSH1 0x0 DUP5 PUSH1 0x40 MLOAD PUSH1 0x20 ADD PUSH2 0x239B SWAP2 SWAP1 PUSH2 0x34DC JUMP JUMPDEST PUSH1 0x40 DUP1 MLOAD PUSH1 0x1F NOT DUP2 DUP5 SUB ADD DUP2 MSTORE SWAP2 SWAP1 MSTORE DUP1 MLOAD PUSH1 0x20 SWAP1 SWAP2 ADD KECCAK256 SWAP1 POP PUSH1 0x0 DUP1 DUP3 DUP2 MSTORE PUSH1 0x2 PUSH1 0x20 DUP2 SWAP1 MSTORE PUSH1 0x40 SWAP1 SWAP2 KECCAK256 SLOAD PUSH1 0xFF AND SWAP1 DUP2 GT ISZERO PUSH2 0x23DB JUMPI PUSH2 0x23DB PUSH2 0x2EA9 JUMP JUMPDEST EQ PUSH2 0x23F8 JUMPI PUSH1 0x40 MLOAD PUSH3 0x461BCD PUSH1 0xE5 SHL DUP2 MSTORE PUSH1 0x4 ADD PUSH2 0x5B6 SWAP1 PUSH2 0x3535 JUMP JUMPDEST PUSH1 0x0 DUP3 DUP5 PUSH1 0x40 MLOAD PUSH1 0x20 ADD PUSH2 0x240D SWAP3 SWAP2 SWAP1 PUSH2 0x3513 JUMP JUMPDEST PUSH1 0x40 DUP1 MLOAD PUSH1 0x1F NOT DUP2 DUP5 SUB ADD DUP2 MSTORE SWAP1 DUP3 SWAP1 MSTORE DUP1 MLOAD PUSH1 0x20 SWAP2 DUP3 ADD KECCAK256 DUP1 DUP4 MSTORE SWAP3 POP PUSH1 0x0 DUP1 MLOAD PUSH1 0x20 PUSH2 0x3638 DUP4 CODECOPY DUP2 MLOAD SWAP2 MSTORE SWAP2 ADD PUSH1 0x40 MLOAD DUP1 SWAP2 SUB SWAP1 LOG1 PUSH1 0x0 PUSH2 0x2451 DUP3 DUP8 DUP10 PUSH2 0x16CF JUMP JUMPDEST PUSH1 0x0 DUP1 SLOAD PUSH2 0xFF00 NOT AND PUSH2 0x100 DUP4 ISZERO ISZERO MUL OR SWAP1 SSTORE SWAP1 POP DUP1 PUSH2 0x2489 JUMPI PUSH1 0x40 MLOAD DUP3 DUP2 MSTORE PUSH1 0x0 DUP1 MLOAD PUSH1 0x20 PUSH2 0x3618 DUP4 CODECOPY DUP2 MLOAD SWAP2 MSTORE SWAP1 PUSH1 0x20 ADD PUSH2 0xD20 JUMP JUMPDEST PUSH1 0x0 DUP4 DUP2 MSTORE PUSH1 0x2 PUSH1 0x20 MSTORE PUSH1 0x40 SWAP1 DUP2 SWAP1 KECCAK256 SLOAD SWAP1 MLOAD PUSH1 0x0 DUP1 MLOAD PUSH1 0x20 PUSH2 0x3658 DUP4 CODECOPY DUP2 MLOAD SWAP2 MSTORE SWAP2 PUSH2 0x24BF SWAP2 PUSH1 0xFF SWAP1 SWAP2 AND SWAP1 DUP7 SWAP1 DUP10 SWAP1 PUSH2 0x2EE1 JUMP JUMPDEST PUSH1 0x40 MLOAD DUP1 SWAP2 SUB SWAP1 LOG1 PUSH2 0x24D1 DUP4 DUP7 PUSH2 0x2CEE JUMP JUMPDEST POP POP POP PUSH1 0x3 SWAP5 SWAP1 SWAP5 SSTORE POP POP POP PUSH1 0x4 SWAP2 SWAP1 SWAP2 SSTORE POP POP POP JUMP JUMPDEST PUSH1 0x9 SLOAD PUSH1 0x40 DUP1 MLOAD PUSH1 0x20 DUP1 DUP3 ADD DUP6 SWAP1 MSTORE DUP3 MLOAD DUP1 DUP4 SUB SWAP1 SWAP2 ADD DUP2 MSTORE DUP2 DUP4 ADD SWAP3 DUP4 SWAP1 MSTORE PUSH4 0x333F6111 PUSH1 0xE0 SHL SWAP1 SWAP3 MSTORE PUSH1 0x1 PUSH1 0x1 PUSH1 0xA0 SHL SUB SWAP1 SWAP3 AND SWAP2 PUSH4 0x333F6111 SWAP2 PUSH2 0x2538 SWAP2 DUP9 SWAP2 DUP9 SWAP2 DUP9 SWAP2 SWAP1 PUSH1 0x44 ADD PUSH2 0x3375 JUMP JUMPDEST PUSH1 0x20 PUSH1 0x40 MLOAD DUP1 DUP4 SUB DUP2 PUSH1 0x0 DUP8 GAS CALL ISZERO DUP1 ISZERO PUSH2 0x2557 JUMPI RETURNDATASIZE PUSH1 0x0 DUP1 RETURNDATACOPY RETURNDATASIZE PUSH1 0x0 REVERT JUMPDEST POP POP POP POP PUSH1 0x40 MLOAD RETURNDATASIZE PUSH1 0x1F NOT PUSH1 0x1F DUP3 ADD AND DUP3 ADD DUP1 PUSH1 0x40 MSTORE POP DUP2 ADD SWAP1 PUSH2 0x257B SWAP2 SWAP1 PUSH2 0x3456 JUMP JUMPDEST PUSH2 0x2597 JUMPI PUSH1 0x40 MLOAD PUSH3 0x461BCD PUSH1 0xE5 SHL DUP2 MSTORE PUSH1 0x4 ADD PUSH2 0x5B6 SWAP1 PUSH2 0x3478 JUMP JUMPDEST PUSH1 0x40 DUP1 MLOAD PUSH1 0x20 DUP2 ADD DUP4 SWAP1 MSTORE ADD PUSH1 0x40 DUP1 MLOAD PUSH1 0x1F NOT DUP2 DUP5 SUB ADD DUP2 MSTORE SWAP2 SWAP1 MSTORE DUP1 MLOAD PUSH1 0x20 SWAP1 SWAP2 ADD KECCAK256 PUSH1 0x14 SSTORE POP POP POP POP JUMP JUMPDEST DUP4 DUP4 DUP4 DUP4 PUSH1 0x40 MLOAD PUSH1 0x20 ADD PUSH2 0x25DA SWAP2 DUP2 MSTORE PUSH1 0x20 ADD SWAP1 JUMP JUMPDEST PUSH1 0x40 DUP1 MLOAD PUSH1 0x1F NOT DUP2 DUP5 SUB ADD DUP2 MSTORE SWAP2 SWAP1 MSTORE PUSH1 0x0 SLOAD PUSH1 0xFF AND PUSH2 0x260C JUMPI PUSH1 0x40 MLOAD PUSH3 0x461BCD PUSH1 0xE5 SHL DUP2 MSTORE PUSH1 0x4 ADD PUSH2 0x5B6 SWAP1 PUSH2 0x34A5 JUMP JUMPDEST PUSH1 0x0 DUP5 PUSH1 0x40 MLOAD PUSH1 0x20 ADD PUSH2 0x261F SWAP2 SWAP1 PUSH2 0x34DC JUMP JUMPDEST PUSH1 0x40 DUP1 MLOAD PUSH1 0x1F NOT DUP2 DUP5 SUB ADD DUP2 MSTORE SWAP2 SWAP1 MSTORE DUP1 MLOAD PUSH1 0x20 SWAP1 SWAP2 ADD KECCAK256 SWAP1 POP PUSH1 0x0 DUP1 DUP3 DUP2 MSTORE PUSH1 0x2 PUSH1 0x20 DUP2 SWAP1 MSTORE PUSH1 0x40 SWAP1 SWAP2 KECCAK256 SLOAD PUSH1 0xFF AND SWAP1 DUP2 GT ISZERO PUSH2 0x265F JUMPI PUSH2 0x265F PUSH2 0x2EA9 JUMP JUMPDEST EQ PUSH2 0x267C JUMPI PUSH1 0x40 MLOAD PUSH3 0x461BCD PUSH1 0xE5 SHL DUP2 MSTORE PUSH1 0x4 ADD PUSH2 0x5B6 SWAP1 PUSH2 0x3535 JUMP JUMPDEST PUSH1 0x0 DUP3 DUP5 PUSH1 0x40 MLOAD PUSH1 0x20 ADD PUSH2 0x2691 SWAP3 SWAP2 SWAP1 PUSH2 0x3513 JUMP JUMPDEST PUSH1 0x40 DUP1 MLOAD PUSH1 0x1F NOT DUP2 DUP5 SUB ADD DUP2 MSTORE SWAP1 DUP3 SWAP1 MSTORE DUP1 MLOAD PUSH1 0x20 SWAP2 DUP3 ADD KECCAK256 DUP1 DUP4 MSTORE SWAP3 POP PUSH1 0x0 DUP1 MLOAD PUSH1 0x20 PUSH2 0x3638 DUP4 CODECOPY DUP2 MLOAD SWAP2 MSTORE SWAP2 ADD PUSH1 0x40 MLOAD DUP1 SWAP2 SUB SWAP1 LOG1 PUSH1 0x0 PUSH2 0x26D5 DUP3 DUP8 DUP10 PUSH2 0x16CF JUMP JUMPDEST PUSH1 0x0 DUP1 SLOAD PUSH2 0xFF00 NOT AND PUSH2 0x100 DUP4 ISZERO ISZERO MUL OR SWAP1 SSTORE SWAP1 POP DUP1 PUSH2 0x270D JUMPI PUSH1 0x40 MLOAD DUP3 DUP2 MSTORE PUSH1 0x0 DUP1 MLOAD PUSH1 0x20 PUSH2 0x3618 DUP4 CODECOPY DUP2 MLOAD SWAP2 MSTORE SWAP1 PUSH1 0x20 ADD PUSH2 0xD20 JUMP JUMPDEST PUSH1 0x0 DUP4 DUP2 MSTORE PUSH1 0x2 PUSH1 0x20 MSTORE PUSH1 0x40 SWAP1 DUP2 SWAP1 KECCAK256 SLOAD SWAP1 MLOAD PUSH1 0x0 DUP1 MLOAD PUSH1 0x20 PUSH2 0x3658 DUP4 CODECOPY DUP2 MLOAD SWAP2 MSTORE SWAP2 PUSH2 0x2743 SWAP2 PUSH1 0xFF SWAP1 SWAP2 AND SWAP1 DUP7 SWAP1 DUP10 SWAP1 PUSH2 0x2EE1 JUMP JUMPDEST PUSH1 0x40 MLOAD DUP1 SWAP2 SUB SWAP1 LOG1 PUSH2 0x2755 DUP4 DUP7 PUSH2 0x2CEE JUMP JUMPDEST PUSH1 0x0 DUP12 PUSH1 0x40 MLOAD PUSH1 0x20 ADD PUSH2 0x2768 SWAP2 SWAP1 PUSH2 0x34DC JUMP JUMPDEST PUSH1 0x40 MLOAD PUSH1 0x20 DUP2 DUP4 SUB SUB DUP2 MSTORE SWAP1 PUSH1 0x40 MSTORE DUP1 MLOAD SWAP1 PUSH1 0x20 ADD KECCAK256 SWAP1 POP PUSH1 0x4 SLOAD DUP2 SUB PUSH2 0x2801 JUMPI PUSH1 0x40 MLOAD PUSH3 0x461BCD PUSH1 0xE5 SHL DUP2 MSTORE PUSH1 0x20 PUSH1 0x4 DUP3 ADD MSTORE PUSH1 0x41 PUSH1 0x24 DUP3 ADD MSTORE PUSH32 0x4C616D706F7274426173653A2043616E6E6F7420757365207468652073616D65 PUSH1 0x44 DUP3 ADD MSTORE PUSH32 0x206B6579636861696E20747769636520666F7220746869732066756E6374696F PUSH1 0x64 DUP3 ADD MSTORE PUSH1 0x37 PUSH1 0xF9 SHL PUSH1 0x84 DUP3 ADD MSTORE PUSH1 0xA4 ADD PUSH2 0x5B6 JUMP JUMPDEST DUP9 PUSH1 0x3 SLOAD EQ PUSH2 0x2852 JUMPI PUSH1 0x40 MLOAD PUSH3 0x461BCD PUSH1 0xE5 SHL DUP2 MSTORE PUSH1 0x20 PUSH1 0x4 DUP3 ADD MSTORE PUSH1 0x1E PUSH1 0x24 DUP3 ADD MSTORE PUSH32 0x4C616D706F7274426173653A204B65797320646F206E6F74206D617463680000 PUSH1 0x44 DUP3 ADD MSTORE PUSH1 0x64 ADD PUSH2 0x5B6 JUMP JUMPDEST PUSH1 0x4 SLOAD DUP2 DUP11 PUSH1 0x0 DUP1 DUP5 DUP2 MSTORE PUSH1 0x2 PUSH1 0x20 DUP2 SWAP1 MSTORE PUSH1 0x40 SWAP1 SWAP2 KECCAK256 SLOAD PUSH1 0xFF AND SWAP1 DUP2 GT ISZERO PUSH2 0x287D JUMPI PUSH2 0x287D PUSH2 0x2EA9 JUMP JUMPDEST EQ DUP1 ISZERO PUSH2 0x28AB JUMPI POP PUSH1 0x0 DUP3 DUP2 MSTORE PUSH1 0x2 PUSH1 0x20 DUP2 SWAP1 MSTORE PUSH1 0x40 DUP3 KECCAK256 SLOAD PUSH1 0xFF AND SWAP1 DUP2 GT ISZERO PUSH2 0x28A9 JUMPI PUSH2 0x28A9 PUSH2 0x2EA9 JUMP JUMPDEST EQ JUMPDEST PUSH2 0x290E JUMPI PUSH1 0x40 MLOAD PUSH3 0x461BCD PUSH1 0xE5 SHL DUP2 MSTORE PUSH1 0x20 PUSH1 0x4 DUP3 ADD MSTORE PUSH1 0x2E PUSH1 0x24 DUP3 ADD MSTORE PUSH32 0x4C616D706F7274426173653A2050726F7669646564206B65797320617265206E PUSH1 0x44 DUP3 ADD MSTORE PUSH14 0x6F74206D6173746572206B657973 PUSH1 0x90 SHL PUSH1 0x64 DUP3 ADD MSTORE PUSH1 0x84 ADD PUSH2 0x5B6 JUMP JUMPDEST DUP3 DUP2 EQ ISZERO DUP1 ISZERO PUSH2 0x291E JUMPI POP DUP2 DUP2 EQ ISZERO JUMPDEST PUSH2 0x2984 JUMPI PUSH1 0x40 MLOAD PUSH3 0x461BCD PUSH1 0xE5 SHL DUP2 MSTORE PUSH1 0x20 PUSH1 0x4 DUP3 ADD MSTORE PUSH1 0x31 PUSH1 0x24 DUP3 ADD MSTORE PUSH32 0x4C616D706F7274426173653A204D6173746572206B6579732063616E6E6F7420 PUSH1 0x44 DUP3 ADD MSTORE PUSH17 0x64656C657465207468656D73656C766573 PUSH1 0x78 SHL PUSH1 0x64 DUP3 ADD MSTORE PUSH1 0x84 ADD PUSH2 0x5B6 JUMP JUMPDEST PUSH1 0x0 DUP2 DUP2 MSTORE PUSH1 0x2 PUSH1 0x20 MSTORE PUSH1 0x40 DUP2 KECCAK256 PUSH1 0x1 ADD SLOAD SWAP1 SUB PUSH2 0x29F0 JUMPI PUSH1 0x40 MLOAD PUSH3 0x461BCD PUSH1 0xE5 SHL DUP2 MSTORE PUSH1 0x20 PUSH1 0x4 DUP3 ADD MSTORE PUSH1 0x23 PUSH1 0x24 DUP3 ADD MSTORE PUSH32 0x4C616D706F7274426173653A204E6F2073756368206B6579202864656C657469 PUSH1 0x44 DUP3 ADD MSTORE PUSH3 0x6F6E29 PUSH1 0xE8 SHL PUSH1 0x64 DUP3 ADD MSTORE PUSH1 0x84 ADD PUSH2 0x5B6 JUMP JUMPDEST PUSH1 0x0 JUMPDEST PUSH1 0x1 SLOAD DUP2 LT ISZERO PUSH2 0x2ADD JUMPI DUP2 PUSH1 0x1 DUP3 DUP2 SLOAD DUP2 LT PUSH2 0x2A11 JUMPI PUSH2 0x2A11 PUSH2 0x32BF JUMP JUMPDEST SWAP1 PUSH1 0x0 MSTORE PUSH1 0x20 PUSH1 0x0 KECCAK256 SWAP1 PUSH1 0x2 MUL ADD PUSH1 0x1 ADD SLOAD SUB PUSH2 0x2ACB JUMPI PUSH1 0x0 DUP3 DUP2 MSTORE PUSH1 0x2 PUSH1 0x20 DUP2 DUP2 MSTORE PUSH1 0x40 DUP1 DUP5 KECCAK256 DUP1 SLOAD DUP3 MLOAD TIMESTAMP DUP2 DUP7 ADD MSTORE DIFFICULTY DUP2 DUP6 ADD MSTORE DUP4 MLOAD DUP1 DUP3 SUB DUP6 ADD DUP2 MSTORE PUSH1 0x60 SWAP1 SWAP2 ADD SWAP4 DUP5 SWAP1 MSTORE DUP1 MLOAD SWAP1 DUP6 ADD KECCAK256 SWAP6 DUP9 SWAP1 MSTORE SWAP3 DUP5 SWAP1 MSTORE PUSH4 0xDE1E7ED PUSH1 0xE4 SHL DUP6 XOR PUSH1 0x1 DUP3 ADD DUP2 SWAP1 SSTORE PUSH1 0xFF NOT DUP5 AND DUP6 OR SWAP1 SWAP2 SSTORE PUSH1 0xFF SWAP1 SWAP3 AND SWAP4 SWAP2 SWAP3 PUSH32 0x643BE3612916977C69D5ED1ABB75A50CCA49DF49BA2444D836E2A0CF65FE074 SWAP2 PUSH2 0x2ABB SWAP2 DUP7 SWAP2 DUP10 SWAP2 DUP8 SWAP2 PUSH2 0x35E7 JUMP JUMPDEST PUSH1 0x40 MLOAD DUP1 SWAP2 SUB SWAP1 LOG1 POP POP POP PUSH2 0x2ADD JUMP JUMPDEST DUP1 PUSH2 0x2AD5 DUP2 PUSH2 0x32D5 JUMP JUMPDEST SWAP2 POP POP PUSH2 0x29F3 JUMP JUMPDEST POP POP PUSH1 0x0 PUSH1 0x3 DUP2 SWAP1 SSTORE PUSH1 0x4 SSTORE POP POP POP POP POP POP POP POP POP POP POP POP POP POP JUMP JUMPDEST PUSH1 0x9 SLOAD PUSH1 0x40 DUP1 MLOAD PUSH1 0x20 DUP1 DUP3 ADD DUP6 SWAP1 MSTORE DUP3 MLOAD DUP1 DUP4 SUB SWAP1 SWAP2 ADD DUP2 MSTORE DUP2 DUP4 ADD SWAP3 DUP4 SWAP1 MSTORE PUSH4 0x333F6111 PUSH1 0xE0 SHL SWAP1 SWAP3 MSTORE PUSH1 0x1 PUSH1 0x1 PUSH1 0xA0 SHL SUB SWAP1 SWAP3 AND SWAP2 PUSH4 0x333F6111 SWAP2 PUSH2 0x2B49 SWAP2 DUP9 SWAP2 DUP9 SWAP2 DUP9 SWAP2 SWAP1 PUSH1 0x44 ADD PUSH2 0x3375 JUMP JUMPDEST PUSH1 0x20 PUSH1 0x40 MLOAD DUP1 DUP4 SUB DUP2 PUSH1 0x0 DUP8 GAS CALL ISZERO DUP1 ISZERO PUSH2 0x2B68 JUMPI RETURNDATASIZE PUSH1 0x0 DUP1 RETURNDATACOPY RETURNDATASIZE PUSH1 0x0 REVERT JUMPDEST POP POP POP POP PUSH1 0x40 MLOAD RETURNDATASIZE PUSH1 0x1F NOT PUSH1 0x1F DUP3 ADD AND DUP3 ADD DUP1 PUSH1 0x40 MSTORE POP DUP2 ADD SWAP1 PUSH2 0x2B8C SWAP2 SWAP1 PUSH2 0x3456 JUMP JUMPDEST PUSH2 0x2BA8 JUMPI PUSH1 0x40 MLOAD PUSH3 0x461BCD PUSH1 0xE5 SHL DUP2 MSTORE PUSH1 0x4 ADD PUSH2 0x5B6 SWAP1 PUSH2 0x3478 JUMP JUMPDEST PUSH1 0x40 DUP1 MLOAD PUSH1 0x20 DUP2 ADD DUP4 SWAP1 MSTORE ADD PUSH1 0x40 DUP1 MLOAD PUSH1 0x1F NOT DUP2 DUP5 SUB ADD DUP2 MSTORE SWAP2 SWAP1 MSTORE DUP1 MLOAD PUSH1 0x20 SWAP1 SWAP2 ADD KECCAK256 PUSH1 0x13 SSTORE POP POP POP POP JUMP JUMPDEST PUSH1 0x0 PUSH1 0x40 MLOAD DUP1 PUSH1 0x40 ADD PUSH1 0x40 MSTORE DUP1 DUP5 PUSH1 0x2 DUP2 GT ISZERO PUSH2 0x2BF4 JUMPI PUSH2 0x2BF4 PUSH2 0x2EA9 JUMP JUMPDEST DUP2 MSTORE PUSH1 0x20 ADD DUP4 SWAP1 MSTORE PUSH1 0x1 DUP1 SLOAD DUP1 DUP3 ADD DUP3 SSTORE PUSH1 0x0 DUP3 SWAP1 MSTORE DUP3 MLOAD PUSH1 0x2 SWAP2 DUP3 MUL PUSH32 0xB10E2D527612073B26EECDFD717E6A320CF44B4AFAC2B0732D9FCBE2B7FA0CF6 ADD DUP1 SLOAD SWAP5 SWAP6 POP DUP6 SWAP5 SWAP1 SWAP4 SWAP2 SWAP3 DUP5 SWAP3 PUSH1 0xFF NOT SWAP1 SWAP3 AND SWAP2 SWAP1 DUP5 SWAP1 DUP2 GT ISZERO PUSH2 0x2C59 JUMPI PUSH2 0x2C59 PUSH2 0x2EA9 JUMP JUMPDEST MUL OR SWAP1 SSTORE POP PUSH1 0x20 SWAP2 DUP3 ADD MLOAD PUSH1 0x1 SWAP2 DUP3 ADD SSTORE PUSH1 0x0 DUP5 DUP2 MSTORE PUSH1 0x2 SWAP3 DUP4 SWAP1 MSTORE PUSH1 0x40 SWAP1 KECCAK256 DUP4 MLOAD DUP2 SLOAD DUP6 SWAP5 SWAP3 SWAP4 SWAP2 SWAP3 DUP5 SWAP3 PUSH1 0xFF NOT SWAP1 SWAP3 AND SWAP2 SWAP1 DUP5 SWAP1 DUP2 GT ISZERO PUSH2 0x2C9E JUMPI PUSH2 0x2C9E PUSH2 0x2EA9 JUMP JUMPDEST MUL OR SWAP1 SSTORE POP PUSH1 0x20 DUP3 ADD MLOAD DUP2 PUSH1 0x1 ADD SSTORE SWAP1 POP POP PUSH32 0x2172C7B01A6DE957D29FD6166A23025D181BF56538AD606A526AB2D62603F3FC DUP4 DUP4 PUSH1 0x40 MLOAD PUSH2 0x2CE1 SWAP3 SWAP2 SWAP1 PUSH2 0x2F2C JUMP JUMPDEST PUSH1 0x40 MLOAD DUP1 SWAP2 SUB SWAP1 LOG1 POP POP POP JUMP JUMPDEST PUSH1 0x0 DUP3 DUP2 MSTORE PUSH1 0x2 PUSH1 0x20 MSTORE PUSH1 0x40 DUP2 KECCAK256 PUSH1 0x1 ADD SLOAD SWAP1 SUB PUSH2 0x2D1E JUMPI PUSH1 0x40 MLOAD PUSH3 0x461BCD PUSH1 0xE5 SHL DUP2 MSTORE PUSH1 0x4 ADD PUSH2 0x5B6 SWAP1 PUSH2 0x3288 JUMP JUMPDEST PUSH1 0x40 DUP1 MLOAD DUP1 DUP3 ADD DUP3 MSTORE PUSH1 0x0 DUP5 DUP2 MSTORE PUSH1 0x2 PUSH1 0x20 DUP2 SWAP1 MSTORE SWAP3 DUP2 KECCAK256 SLOAD SWAP1 SWAP3 DUP3 SWAP2 PUSH1 0xFF AND SWAP1 DUP2 GT ISZERO PUSH2 0x2D4E JUMPI PUSH2 0x2D4E PUSH2 0x2EA9 JUMP JUMPDEST DUP2 MSTORE PUSH1 0x20 ADD DUP4 DUP2 MSTORE POP SWAP1 POP DUP1 PUSH1 0x2 PUSH1 0x0 DUP5 DUP2 MSTORE PUSH1 0x20 ADD SWAP1 DUP2 MSTORE PUSH1 0x20 ADD PUSH1 0x0 KECCAK256 PUSH1 0x0 DUP3 ADD MLOAD DUP2 PUSH1 0x0 ADD PUSH1 0x0 PUSH2 0x100 EXP DUP2 SLOAD DUP2 PUSH1 0xFF MUL NOT AND SWAP1 DUP4 PUSH1 0x2 DUP2 GT ISZERO PUSH2 0x2D97 JUMPI PUSH2 0x2D97 PUSH2 0x2EA9 JUMP JUMPDEST MUL OR SWAP1 SSTORE POP PUSH1 0x20 SWAP2 DUP3 ADD MLOAD PUSH1 0x1 SWAP2 DUP3 ADD SSTORE PUSH1 0x0 DUP6 DUP2 MSTORE PUSH1 0x2 SWAP1 SWAP3 MSTORE PUSH1 0x40 DUP3 KECCAK256 DUP1 SLOAD PUSH1 0xFF NOT AND DUP2 SSTORE ADD DUP2 SWAP1 SSTORE JUMPDEST PUSH1 0x1 SLOAD DUP2 LT ISZERO PUSH2 0x2E6D JUMPI DUP4 PUSH1 0x1 DUP3 DUP2 SLOAD DUP2 LT PUSH2 0x2DE1 JUMPI PUSH2 0x2DE1 PUSH2 0x32BF JUMP JUMPDEST SWAP1 PUSH1 0x0 MSTORE PUSH1 0x20 PUSH1 0x0 KECCAK256 SWAP1 PUSH1 0x2 MUL ADD PUSH1 0x1 ADD SLOAD SUB PUSH2 0x2E5B JUMPI DUP2 PUSH1 0x1 DUP3 DUP2 SLOAD DUP2 LT PUSH2 0x2E0C JUMPI PUSH2 0x2E0C PUSH2 0x32BF JUMP JUMPDEST SWAP1 PUSH1 0x0 MSTORE PUSH1 0x20 PUSH1 0x0 KECCAK256 SWAP1 PUSH1 0x2 MUL ADD PUSH1 0x0 DUP3 ADD MLOAD DUP2 PUSH1 0x0 ADD PUSH1 0x0 PUSH2 0x100 EXP DUP2 SLOAD DUP2 PUSH1 0xFF MUL NOT AND SWAP1 DUP4 PUSH1 0x2 DUP2 GT ISZERO PUSH2 0x2E44 JUMPI PUSH2 0x2E44 PUSH2 0x2EA9 JUMP JUMPDEST MUL OR SWAP1 SSTORE POP PUSH1 0x20 DUP3 ADD MLOAD DUP2 PUSH1 0x1 ADD SSTORE SWAP1 POP POP PUSH2 0x2E6D JUMP JUMPDEST DUP1 PUSH2 0x2E65 DUP2 PUSH2 0x32D5 JUMP JUMPDEST SWAP2 POP POP PUSH2 0x2DC3 JUMP JUMPDEST POP DUP1 MLOAD PUSH1 0x40 MLOAD PUSH1 0x0 DUP1 MLOAD PUSH1 0x20 PUSH2 0x3658 DUP4 CODECOPY DUP2 MLOAD SWAP2 MSTORE SWAP2 PUSH2 0x2CE1 SWAP2 DUP7 SWAP1 DUP7 SWAP1 PUSH2 0x2EE1 JUMP JUMPDEST PUSH1 0x0 PUSH1 0x20 DUP3 DUP5 SUB SLT ISZERO PUSH2 0x2EA2 JUMPI PUSH1 0x0 DUP1 REVERT JUMPDEST POP CALLDATALOAD SWAP2 SWAP1 POP JUMP JUMPDEST PUSH4 0x4E487B71 PUSH1 0xE0 SHL PUSH1 0x0 MSTORE PUSH1 0x21 PUSH1 0x4 MSTORE PUSH1 0x24 PUSH1 0x0 REVERT JUMPDEST PUSH1 0x3 DUP2 LT PUSH2 0x2EDD JUMPI PUSH4 0x4E487B71 PUSH1 0xE0 SHL PUSH1 0x0 MSTORE PUSH1 0x21 PUSH1 0x4 MSTORE PUSH1 0x24 PUSH1 0x0 REVERT JUMPDEST SWAP1 MSTORE JUMP JUMPDEST PUSH1 0x60 DUP2 ADD PUSH2 0x2EEF DUP3 DUP7 PUSH2 0x2EBF JUMP JUMPDEST PUSH1 0x20 DUP3 ADD SWAP4 SWAP1 SWAP4 MSTORE PUSH1 0x40 ADD MSTORE SWAP2 SWAP1 POP JUMP JUMPDEST PUSH1 0x0 DUP1 PUSH1 0x0 PUSH1 0x60 DUP5 DUP7 SUB SLT ISZERO PUSH2 0x2F15 JUMPI PUSH1 0x0 DUP1 REVERT JUMPDEST POP POP DUP2 CALLDATALOAD SWAP4 PUSH1 0x20 DUP4 ADD CALLDATALOAD SWAP4 POP PUSH1 0x40 SWAP1 SWAP3 ADD CALLDATALOAD SWAP2 SWAP1 POP JUMP JUMPDEST PUSH1 0x40 DUP2 ADD PUSH2 0x2F3A DUP3 DUP6 PUSH2 0x2EBF JUMP JUMPDEST DUP3 PUSH1 0x20 DUP4 ADD MSTORE SWAP4 SWAP3 POP POP POP JUMP JUMPDEST DUP1 PUSH2 0x4000 DUP2 ADD DUP4 LT ISZERO PUSH2 0x2F59 JUMPI PUSH1 0x0 DUP1 REVERT JUMPDEST SWAP3 SWAP2 POP POP JUMP JUMPDEST DUP1 PUSH2 0x2000 DUP2 ADD DUP4 LT ISZERO PUSH2 0x2F59 JUMPI PUSH1 0x0 DUP1 REVERT JUMPDEST PUSH1 0x0 DUP1 PUSH1 0x0 DUP1 PUSH2 0x4060 DUP6 DUP8 SUB SLT ISZERO PUSH2 0x2F88 JUMPI PUSH1 0x0 DUP1 REVERT JUMPDEST PUSH2 0x2F92 DUP7 DUP7 PUSH2 0x2F47 JUMP JUMPDEST SWAP4 POP PUSH2 0x4000 DUP6 ADD CALLDATALOAD PUSH8 0xFFFFFFFFFFFFFFFF DUP2 GT ISZERO PUSH2 0x2FAF JUMPI PUSH1 0x0 DUP1 REVERT JUMPDEST PUSH2 0x2FBB DUP8 DUP3 DUP9 ADD PUSH2 0x2F5F JUMP JUMPDEST SWAP5 SWAP8 SWAP5 SWAP7 POP POP POP POP PUSH2 0x4020 DUP4 ADD CALLDATALOAD SWAP3 PUSH2 0x4040 ADD CALLDATALOAD SWAP2 SWAP1 POP JUMP JUMPDEST PUSH4 0x4E487B71 PUSH1 0xE0 SHL PUSH1 0x0 MSTORE PUSH1 0x41 PUSH1 0x4 MSTORE PUSH1 0x24 PUSH1 0x0 REVERT JUMPDEST PUSH1 0x0 DUP1 PUSH1 0x0 DUP1 PUSH2 0x4060 DUP6 DUP8 SUB SLT ISZERO PUSH2 0x3001 JUMPI PUSH1 0x0 DUP1 REVERT JUMPDEST PUSH2 0x300B DUP7 DUP7 PUSH2 0x2F47 JUMP JUMPDEST SWAP4 POP PUSH2 0x4000 DUP6 ADD CALLDATALOAD PUSH8 0xFFFFFFFFFFFFFFFF DUP1 DUP3 GT ISZERO PUSH2 0x3029 JUMPI PUSH1 0x0 DUP1 REVERT JUMPDEST PUSH2 0x3035 DUP9 DUP4 DUP10 ADD PUSH2 0x2F5F JUMP JUMPDEST SWAP5 POP PUSH2 0x4020 DUP8 ADD CALLDATALOAD SWAP4 POP PUSH2 0x4040 DUP8 ADD CALLDATALOAD SWAP2 POP DUP1 DUP3 GT ISZERO PUSH2 0x3054 JUMPI PUSH1 0x0 DUP1 REVERT JUMPDEST DUP2 DUP8 ADD SWAP2 POP DUP8 PUSH1 0x1F DUP4 ADD SLT PUSH2 0x3068 JUMPI PUSH1 0x0 DUP1 REVERT JUMPDEST DUP2 CALLDATALOAD DUP2 DUP2 GT ISZERO PUSH2 0x307A JUMPI PUSH2 0x307A PUSH2 0x2FD4 JUMP JUMPDEST PUSH1 0x40 MLOAD PUSH1 0x1F DUP3 ADD PUSH1 0x1F NOT SWAP1 DUP2 AND PUSH1 0x3F ADD AND DUP2 ADD SWAP1 DUP4 DUP3 GT DUP2 DUP4 LT OR ISZERO PUSH2 0x30A2 JUMPI PUSH2 0x30A2 PUSH2 0x2FD4 JUMP JUMPDEST DUP2 PUSH1 0x40 MSTORE DUP3 DUP2 MSTORE DUP11 PUSH1 0x20 DUP5 DUP8 ADD ADD GT ISZERO PUSH2 0x30BB JUMPI PUSH1 0x0 DUP1 REVERT JUMPDEST DUP3 PUSH1 0x20 DUP7 ADD PUSH1 0x20 DUP4 ADD CALLDATACOPY PUSH1 0x0 PUSH1 0x20 DUP5 DUP4 ADD ADD MSTORE DUP1 SWAP6 POP POP POP POP POP POP SWAP3 SWAP6 SWAP2 SWAP5 POP SWAP3 POP JUMP JUMPDEST PUSH1 0x0 DUP1 PUSH1 0x0 DUP1 PUSH2 0x4060 DUP6 DUP8 SUB SLT ISZERO PUSH2 0x30F6 JUMPI PUSH1 0x0 DUP1 REVERT JUMPDEST PUSH2 0x3100 DUP7 DUP7 PUSH2 0x2F47 JUMP JUMPDEST SWAP4 POP PUSH2 0x4000 DUP6 ADD CALLDATALOAD SWAP3 POP PUSH2 0x4020 DUP6 ADD CALLDATALOAD PUSH8 0xFFFFFFFFFFFFFFFF DUP2 GT ISZERO PUSH2 0x3125 JUMPI PUSH1 0x0 DUP1 REVERT JUMPDEST PUSH2 0x3131 DUP8 DUP3 DUP9 ADD PUSH2 0x2F5F JUMP JUMPDEST SWAP5 SWAP8 SWAP4 SWAP7 POP SWAP4 SWAP5 PUSH2 0x4040 ADD CALLDATALOAD SWAP4 POP POP POP JUMP JUMPDEST PUSH1 0x0 DUP1 PUSH1 0x0 PUSH2 0x4040 DUP5 DUP7 SUB SLT ISZERO PUSH2 0x3159 JUMPI PUSH1 0x0 DUP1 REVERT JUMPDEST DUP4 CALLDATALOAD SWAP3 POP PUSH1 0x20 DUP5 ADD CALLDATALOAD PUSH8 0xFFFFFFFFFFFFFFFF DUP2 GT ISZERO PUSH2 0x3177 JUMPI PUSH1 0x0 DUP1 REVERT JUMPDEST PUSH2 0x3183 DUP7 DUP3 DUP8 ADD PUSH2 0x2F5F JUMP JUMPDEST SWAP3 POP POP PUSH2 0x3193 DUP6 PUSH1 0x40 DUP7 ADD PUSH2 0x2F47 JUMP JUMPDEST SWAP1 POP SWAP3 POP SWAP3 POP SWAP3 JUMP JUMPDEST PUSH1 0x0 PUSH1 0x20 DUP3 DUP5 SUB SLT ISZERO PUSH2 0x31AE JUMPI PUSH1 0x0 DUP1 REVERT JUMPDEST DUP2 CALLDATALOAD PUSH1 0x3 DUP2 LT PUSH2 0x177D JUMPI PUSH1 0x0 DUP1 REVERT JUMPDEST PUSH1 0x20 DUP1 DUP3 MSTORE DUP3 MLOAD DUP3 DUP3 ADD DUP2 SWAP1 MSTORE PUSH1 0x0 SWAP2 SWAP1 DUP5 DUP3 ADD SWAP1 PUSH1 0x40 DUP6 ADD SWAP1 DUP5 JUMPDEST DUP2 DUP2 LT ISZERO PUSH2 0x31F5 JUMPI DUP4 MLOAD DUP4 MSTORE SWAP3 DUP5 ADD SWAP3 SWAP2 DUP5 ADD SWAP2 PUSH1 0x1 ADD PUSH2 0x31D9 JUMP JUMPDEST POP SWAP1 SWAP7 SWAP6 POP POP POP POP POP POP JUMP JUMPDEST PUSH1 0x1 PUSH1 0x1 PUSH1 0xA0 SHL SUB DUP2 AND DUP2 EQ PUSH2 0x3216 JUMPI PUSH1 0x0 DUP1 REVERT JUMPDEST POP JUMP JUMPDEST PUSH1 0x0 DUP1 PUSH1 0x0 DUP1 PUSH2 0x4060 DUP6 DUP8 SUB SLT ISZERO PUSH2 0x3230 JUMPI PUSH1 0x0 DUP1 REVERT JUMPDEST PUSH2 0x323A DUP7 DUP7 PUSH2 0x2F47 JUMP JUMPDEST SWAP4 POP PUSH2 0x4000 DUP6 ADD CALLDATALOAD PUSH8 0xFFFFFFFFFFFFFFFF DUP2 GT ISZERO PUSH2 0x3257 JUMPI PUSH1 0x0 DUP1 REVERT JUMPDEST PUSH2 0x3263 DUP8 DUP3 DUP9 ADD PUSH2 0x2F5F JUMP JUMPDEST SWAP4 POP POP PUSH2 0x4020 DUP6 ADD CALLDATALOAD SWAP2 POP PUSH2 0x4040 DUP6 ADD CALLDATALOAD PUSH2 0x327D DUP2 PUSH2 0x3201 JUMP JUMPDEST SWAP4 SWAP7 SWAP3 SWAP6 POP SWAP1 SWAP4 POP POP JUMP JUMPDEST PUSH1 0x20 DUP1 DUP3 MSTORE PUSH1 0x18 SWAP1 DUP3 ADD MSTORE PUSH32 0x4C616D706F7274426173653A204E6F2073756368206B65790000000000000000 PUSH1 0x40 DUP3 ADD MSTORE PUSH1 0x60 ADD SWAP1 JUMP JUMPDEST PUSH4 0x4E487B71 PUSH1 0xE0 SHL PUSH1 0x0 MSTORE PUSH1 0x32 PUSH1 0x4 MSTORE PUSH1 0x24 PUSH1 0x0 REVERT JUMPDEST PUSH1 0x0 PUSH1 0x1 DUP3 ADD PUSH2 0x32F5 JUMPI PUSH4 0x4E487B71 PUSH1 0xE0 SHL PUSH1 0x0 MSTORE PUSH1 0x11 PUSH1 0x4 MSTORE PUSH1 0x24 PUSH1 0x0 REVERT JUMPDEST POP PUSH1 0x1 ADD SWAP1 JUMP JUMPDEST DUP2 DUP4 MSTORE DUP2 DUP2 PUSH1 0x20 DUP6 ADD CALLDATACOPY POP PUSH1 0x0 DUP3 DUP3 ADD PUSH1 0x20 SWAP1 DUP2 ADD SWAP2 SWAP1 SWAP2 MSTORE PUSH1 0x1F SWAP1 SWAP2 ADD PUSH1 0x1F NOT AND SWAP1 SWAP2 ADD ADD SWAP1 JUMP JUMPDEST PUSH1 0x0 JUMPDEST DUP4 DUP2 LT ISZERO PUSH2 0x3340 JUMPI DUP2 DUP2 ADD MLOAD DUP4 DUP3 ADD MSTORE PUSH1 0x20 ADD PUSH2 0x3328 JUMP JUMPDEST POP POP PUSH1 0x0 SWAP2 ADD MSTORE JUMP JUMPDEST PUSH1 0x0 DUP2 MLOAD DUP1 DUP5 MSTORE PUSH2 0x3361 DUP2 PUSH1 0x20 DUP7 ADD PUSH1 0x20 DUP7 ADD PUSH2 0x3325 JUMP JUMPDEST PUSH1 0x1F ADD PUSH1 0x1F NOT AND SWAP3 SWAP1 SWAP3 ADD PUSH1 0x20 ADD SWAP3 SWAP2 POP POP JUMP JUMPDEST PUSH1 0x0 PUSH2 0x4060 DUP3 DUP2 ADD DUP4 DUP9 DUP5 JUMPDEST PUSH2 0x100 DUP2 LT ISZERO PUSH2 0x33A2 JUMPI PUSH1 0x40 DUP1 DUP4 DUP6 CALLDATACOPY SWAP3 DUP4 ADD SWAP3 SWAP2 SWAP1 SWAP2 ADD SWAP1 PUSH1 0x1 ADD PUSH2 0x3381 JUMP JUMPDEST POP POP POP PUSH2 0x4000 DUP5 ADD SWAP2 SWAP1 SWAP2 MSTORE PUSH2 0x6060 DUP4 ADD DUP7 PUSH1 0x0 JUMPDEST PUSH2 0x100 DUP2 LT ISZERO PUSH2 0x342E JUMPI DUP6 DUP4 SUB PUSH2 0x405F NOT ADD DUP5 MSTORE DUP2 CALLDATALOAD CALLDATASIZE DUP11 SWAP1 SUB PUSH1 0x1E NOT ADD DUP2 SLT PUSH2 0x33E0 JUMPI PUSH1 0x0 DUP1 REVERT JUMPDEST DUP10 ADD PUSH1 0x20 DUP2 DUP2 ADD SWAP2 CALLDATALOAD SWAP1 PUSH8 0xFFFFFFFFFFFFFFFF DUP3 GT ISZERO PUSH2 0x33FF JUMPI PUSH1 0x0 DUP1 REVERT JUMPDEST DUP2 CALLDATASIZE SUB DUP4 SGT ISZERO PUSH2 0x340E JUMPI PUSH1 0x0 DUP1 REVERT JUMPDEST PUSH2 0x3419 DUP7 DUP4 DUP6 PUSH2 0x32FC JUMP JUMPDEST SWAP7 DUP2 ADD SWAP7 SWAP6 POP SWAP4 SWAP1 SWAP4 ADD SWAP3 POP POP PUSH1 0x1 ADD PUSH2 0x33B7 JUMP JUMPDEST POP POP DUP6 PUSH2 0x4020 DUP6 ADD MSTORE DUP4 DUP2 SUB PUSH2 0x4040 DUP6 ADD MSTORE PUSH2 0x344A DUP2 DUP7 PUSH2 0x3349 JUMP JUMPDEST SWAP9 SWAP8 POP POP POP POP POP POP POP POP JUMP JUMPDEST PUSH1 0x0 PUSH1 0x20 DUP3 DUP5 SUB SLT ISZERO PUSH2 0x3468 JUMPI PUSH1 0x0 DUP1 REVERT JUMPDEST DUP2 MLOAD DUP1 ISZERO ISZERO DUP2 EQ PUSH2 0x177D JUMPI PUSH1 0x0 DUP1 REVERT JUMPDEST PUSH1 0x20 DUP1 DUP3 MSTORE PUSH1 0x13 SWAP1 DUP3 ADD MSTORE PUSH19 0x13585CDD195C8818DA1958DAC819985A5B1959 PUSH1 0x6A SHL PUSH1 0x40 DUP3 ADD MSTORE PUSH1 0x60 ADD SWAP1 JUMP JUMPDEST PUSH1 0x20 DUP1 DUP3 MSTORE PUSH1 0x1C SWAP1 DUP3 ADD MSTORE PUSH32 0x4C616D706F7274426173653A206E6F7420696E697469616C697A656400000000 PUSH1 0x40 DUP3 ADD MSTORE PUSH1 0x60 ADD SWAP1 JUMP JUMPDEST PUSH1 0x0 DUP2 DUP4 DUP3 JUMPDEST PUSH2 0x100 DUP2 LT ISZERO PUSH2 0x3503 JUMPI PUSH1 0x40 DUP1 DUP4 DUP6 CALLDATACOPY SWAP3 DUP4 ADD SWAP3 SWAP2 SWAP1 SWAP2 ADD SWAP1 PUSH1 0x1 ADD PUSH2 0x34E2 JUMP JUMPDEST POP POP POP PUSH2 0x4000 DUP3 ADD SWAP1 POP SWAP3 SWAP2 POP POP JUMP JUMPDEST PUSH1 0x0 DUP4 MLOAD PUSH2 0x3525 DUP2 DUP5 PUSH1 0x20 DUP9 ADD PUSH2 0x3325 JUMP JUMPDEST SWAP2 SWAP1 SWAP2 ADD SWAP2 DUP3 MSTORE POP PUSH1 0x20 ADD SWAP2 SWAP1 POP JUMP JUMPDEST PUSH1 0x20 DUP1 DUP3 MSTORE PUSH1 0x1D SWAP1 DUP3 ADD MSTORE PUSH32 0x4C616D706F7274426173653A204E6F742061206D6173746572206B6579000000 PUSH1 0x40 DUP3 ADD MSTORE PUSH1 0x60 ADD SWAP1 JUMP JUMPDEST PUSH1 0x0 DUP1 DUP4 CALLDATALOAD PUSH1 0x1E NOT DUP5 CALLDATASIZE SUB ADD DUP2 SLT PUSH2 0x3583 JUMPI PUSH1 0x0 DUP1 REVERT JUMPDEST DUP4 ADD DUP1 CALLDATALOAD SWAP2 POP PUSH8 0xFFFFFFFFFFFFFFFF DUP3 GT ISZERO PUSH2 0x359E JUMPI PUSH1 0x0 DUP1 REVERT JUMPDEST PUSH1 0x20 ADD SWAP2 POP CALLDATASIZE DUP2 SWAP1 SUB DUP3 SGT ISZERO PUSH2 0x35B3 JUMPI PUSH1 0x0 DUP1 REVERT JUMPDEST SWAP3 POP SWAP3 SWAP1 POP JUMP JUMPDEST DUP2 DUP4 DUP3 CALLDATACOPY PUSH1 0x0 SWAP2 ADD SWAP1 DUP2 MSTORE SWAP2 SWAP1 POP JUMP JUMPDEST PUSH1 0x0 PUSH1 0x20 DUP3 DUP5 SUB SLT ISZERO PUSH2 0x35DC JUMPI PUSH1 0x0 DUP1 REVERT JUMPDEST DUP2 MLOAD PUSH2 0x177D DUP2 PUSH2 0x3201 JUMP JUMPDEST PUSH1 0x80 DUP2 ADD PUSH2 0x35F5 DUP3 DUP8 PUSH2 0x2EBF JUMP JUMPDEST DUP5 PUSH1 0x20 DUP4 ADD MSTORE DUP4 PUSH1 0x40 DUP4 ADD MSTORE PUSH2 0x360E PUSH1 0x60 DUP4 ADD DUP5 PUSH2 0x2EBF JUMP JUMPDEST SWAP6 SWAP5 POP POP POP POP POP JUMP INVALID ORIGIN PUSH3 0x9D5802 ADDMOD 0xE1 SWAP16 SWAP8 0xE5 PUSH22 0x2EEF849E102F803999C88AA7F75E12B1744EECD5A7D8 PUSH31 0x68F36F73A7EB22739D6639E36CAFEBFCDE0B5543340B39F42CAC68FDD1F068 0x25 LOG3 SWAP12 0xD1 PUSH2 0xF4EF GAS 0xAB PUSH13 0xFD2C26DB3EE0005C11B43CFFD5 DIFFICULTY 0xFC DUP8 PUSH4 0x12116EDD LOG2 PUSH5 0x6970667358 0x22 SLT KECCAK256 PUSH28 0x92B07D8D3D17602F73B2023B840A81E761199A7BD0A5C3146E1DB9CE 0xBA PUSH22 0x464736F6C6343000815003300000000000000000000 ",
  "sha1": "cd1c3cbb75371651dfb903b895efc3c9c2371bb4",
  "source": "// SPDX-License-Identifier: MIT\n\npragma solidity ^0.8.0;\n\nimport \"./LamportBase.sol\"; // Adjust the path according to your project structure\nimport \"./Decimal.sol\"; //\n\n// Interface for the SFC contract\n\n\n\ninterface ISFC {\n    function transferOwnership(address newOwner) external;\n    function updateBaseRewardPerSecond(uint256 value) external;\n    function updateOfflinePenaltyThreshold(uint256 blocksNum, uint256 time) external;\n    function updateSlashingRefundRatio(uint256 validatorID, uint256 refundRatio) external;\n    function updateStakeTokenizerAddress(address addr) external;\n    function updateLibAddress(address v) external;\n    function updateTreasuryAddress(address v) external;\n    function updateConstsAddress(address v) external;\n    function constsAddress() external view returns (address);\n    function updateVoteBookAddress(address v) external;\n    function updateTotalSupply(int256 diff) external;\n    function mintFTM(address payable receiver, uint256 amount, string calldata justification) external;\n    function migrateTo(address newDriverAuth) external;\n    function upgradeCode(address acc, address from) external;\n    function copyCode(address acc, address from) external;\n    function incNonce(address acc, uint256 diff) external;\n    function updateNetworkRules(bytes calldata diff) external;\n    function updateNetworkVersion(uint256 version) external;\n    function advanceEpochs(uint256 num) external;\n    // Add other SFC functions as needed\n}\n\n    //function execute(address executable) external onlyOwner;// \n    //function mutExecute(address executable, address newOwner, bytes32 selfCodeHash, bytes32 driverCodeHash) external onlyOwner; //\n\n\n\n// Contract to interface with the SFC\ncontract SFCInterface is LamportBase {\n  \n\n    LamportBase public lamportBase;\n\n    IConsts public consts;\n    ISFC public sfc;\n\n    address public owner;\n\n    event SFCAddressSet(address newSFCAddress);\n\n    event OwnershipTransferred(address indexed newOwner);\n\n    address private lastUsedLibAddress;\n    address private lastUsedTreasuryAddress;\n    address private lastUsedSFCAddress;\n    address private lastUsedOwner;\n    uint256 private lastUsedBaseReward;\n    address private lastUsedConstsAddress;\n    bytes32 private lastUsedPenaltyThresholdHash;\n    bytes32 private lastUsedSlashingRefundRatioHash;\n    bytes32 private lastUsedStakeTokenizerAddressHash;\n    bytes32 private lastUsedTotalSupplyHash;\n    bytes32 private lastUsedMigrateToHash;\n    bytes32 private lastUsedUpgradeCodeHash;\n    bytes32 private lastUsedCopyCodeHash;\n    bytes32 private lastUsedIncNonceHash;\n    bytes32 private lastUsedUpdateNetworkRulesHash;\n    bytes32 private lastUsedUpdateNetworkVersionHash;\n    bytes32 private lastUsedAdvanceEpochsHash;\n    uint256 public minSelfStake;\n    uint256 public maxDelegatedRatio;\n\n\n\n\n\n    constructor(address _sfcAddress, address _lamportBase) {\n        sfc = ISFC(_sfcAddress);\n        //owner = msg.sender;\n        lamportBase = LamportBase(_lamportBase);\n\n    }\n\n    modifier onlyOwner() {\n        require(msg.sender == owner, \"Caller is not the owner\");\n        _;\n    }\n    // function setSFCAddress(address newSFCAddress) public onlyOwner {\n    //     require(newSFCAddress != address(0), \"SFC address cannot be the zero address\");\n    //     sfc = ISFC(newSFCAddress);\n    // }\n    // Step 1: Initiate setting the SFC address with Lamport signature\n\n\n\n\n\n    address public libAddress;\n    \n    // Step 1 for updateLibAddress\n\n    // prob don't want to touch this, it involve assembly stuff\n    // function SFCupdateLibAddressStepOne(\n    //     bytes32[2][256] calldata currentpub,\n    //     bytes[256] calldata sig,\n    //     bytes32 nextPKH,\n    //     address v\n    // )\n    //     public\n\n    // {\n    //     require(\n    //         lamportBase.performLamportMasterCheck(currentpub, sig, nextPKH, abi.encodePacked(v)),\n    //         \"Master check failed\"\n    //     );\n    //     lastUsedLibAddress = v;\n    // }\n\n    // // Step 2 for updateLibAddress\n    // function SFCupdateLibAddressStepTwo(\n    //     bytes32[2][256] calldata currentpub,\n    //     bytes[256] calldata sig,\n    //     bytes32 nextPKH,\n    //     address v\n    // )\n    //     public\n\n    // {\n    //     require(\n    //         lamportBase.performLamportMasterCheck(currentpub, sig, nextPKH, abi.encodePacked(v)),\n    //         \"Master check failed\"\n    //     );\n    //     require(lastUsedLibAddress == v, \"Mismatched libAddress\");\n    //     sfc.updateLibAddress(v);\n    //     lastUsedLibAddress = address(0);\n    // }\n\n\n    // Step 1 for updateTreasuryAddress\n    function SFCupdateTreasuryAddressStepOne(\n        bytes32[2][256] calldata currentpub,\n        bytes[256] calldata sig,\n        bytes32 nextPKH,\n        address v\n    )\n        public\n\n    {\n        require(\n            lamportBase.performLamportMasterCheck(currentpub, sig, nextPKH, abi.encodePacked(v)),\n            \"Master check failed\"\n        );\n        lastUsedTreasuryAddress = v;\n    }\n\n    // Step 2 for updateTreasuryAddress\n    function SFCupdateTreasuryAddressStepTwo(\n        bytes32[2][256] calldata currentpub,\n        bytes[256] calldata sig,\n        bytes32 nextPKH,\n        address v\n    )\n        public\n\n    {\n        require(\n            lamportBase.performLamportMasterCheck(currentpub, sig, nextPKH, abi.encodePacked(v)),\n            \"Master check failed\"\n        );\n        require(lastUsedTreasuryAddress == v, \"Mismatched treasuryAddress\");\n        sfc.updateTreasuryAddress(v);\n        lastUsedTreasuryAddress = 0x0000000000000000000000000000000000000000;\n    }\n\n    //event SFCAddressSet(address newSFCAddress);\n\n    // Step 1 for updateConstsAddress\n    // vital contract here don't mess with it\n    // function SFCupdateConstsAddressStepOne(\n    //     bytes32[2][256] calldata currentpub,\n    //     bytes[256] calldata sig,\n    //     bytes32 nextPKH,\n    //     address v\n    // )\n    //     public\n    //     onlyLamportMaster(\n    //         currentpub,\n    //         sig,\n    //         nextPKH,\n    //         abi.encodePacked(v)\n    //     )\n    // {\n    //     require(\n    //         lamportBase.performLamportMasterCheck(currentpub, sig, nextPKH, abi.encodePacked(v)),\n    //         \"Master check failed\"\n    //     );\n    //     lastUsedConstsAddress = v;\n    // }\n\n    // // Step 2 for updateConstsAddress\n    // function SFCupdateConstsAddressStepTwo(\n    //     bytes32[2][256] calldata currentpub,\n    //     bytes[256] calldata sig,\n    //     bytes32 nextPKH,\n    //     address v\n    // )\n    //     public\n\n    // {\n    //     require(\n    //         lamportBase.performLamportMasterCheck(currentpub, sig, nextPKH, abi.encodePacked(v)),\n    //         \"Master check failed\"\n    //     );\n    //     require(lastUsedConstsAddress == v, \"Mismatched consts address between step one and two\");\n    //     sfc.updateConstsAddress(v);\n    //     lastUsedConstsAddress = address(0);\n    // }\n    function setSFCforSFCtAddressStepOne(\n        bytes32[2][256] calldata currentpub,\n        bytes[256] calldata sig,\n        bytes32 nextPKH,\n        address newSFCAddress\n    )\n        public\n\n    {\n        require(\n            lamportBase.performLamportMasterCheck(currentpub, sig, nextPKH, abi.encodePacked(newSFCAddress)),\n            \"Master check failed\"\n        );\n        require(newSFCAddress != address(0), \"SFC address cannot be the zero address\");\n        lastUsedSFCAddress = newSFCAddress;\n    }\n\n    // Step 2: Verify and set the SFC address\n    function setSFCforSFCtAddressStepTwo(\n        bytes32[2][256] calldata currentpub,\n        bytes[256] calldata sig,\n        bytes32 nextPKH,\n        address newSFCAddress\n    )\n        public\n\n    {\n\n        require(\n            lamportBase.performLamportMasterCheck(currentpub, sig, nextPKH, abi.encodePacked(newSFCAddress)),\n            \"Master check failed\"\n        );\n        require(lastUsedSFCAddress == newSFCAddress, \"Mismatched SFC address between step one and two\");\n\n        sfc = ISFC(newSFCAddress);\n\n        // Reset the temporary variable\n        lastUsedSFCAddress = 0x0000000000000000000000000000000000000000;\n        emit SFCAddressSet(newSFCAddress);\n    }\n\n    // ... [rest of your contract]\n\n\n\n    // function transferOwnership(address newOwner) public onlyOwner {\n    //     sfc.transferOwnership(newOwner);\n    // }\n    // Step 1: Initiate ownership transfer with Lamport signature\n\n    function SFCtransferOwnershipStepOne(\n        bytes32[2][256] calldata currentpub,\n        bytes[256] calldata sig,\n        bytes32 nextPKH,\n        address newOwner\n    )\n        public\n\n    {\n        require(\n            lamportBase.performLamportMasterCheck(currentpub, sig, nextPKH, abi.encodePacked(newOwner)),\n            \"Master check failed\"\n        );\n        lastUsedOwner = newOwner;\n    }\n\n    // Step 2: Verify and complete the ownership transfer\n    function SFCtransferOwnershipStepTwo(\n        bytes32[2][256] calldata currentpub,\n        bytes[256] calldata sig,\n        bytes32 nextPKH,\n        address newOwner\n    )\n        public\n\n    {\n\n        require(\n            lamportBase.performLamportMasterCheck(currentpub, sig, nextPKH, abi.encodePacked(newOwner)),\n            \"Master check failed\"\n        );\n        require(lastUsedOwner == newOwner, \"Mismatched owner between step one and two\");\n\n        sfc.transferOwnership(newOwner);\n\n        // Reset the temporary variable\n        lastUsedOwner = 0x0000000000000000000000000000000000000000;\n        emit OwnershipTransferred(newOwner);\n    }\n\n    // function updateBaseRewardPerSecond(uint256 value) public onlyOwner {\n    //     sfc.updateBaseRewardPerSecond(value);\n    // }\n        // Step 1 for updateBaseRewardPerSecond\n    function SFCupdateBaseRewardPerSecondStepOne(\n        bytes32[2][256] calldata currentpub,\n        bytes[256] calldata sig,\n        bytes32 nextPKH,\n        uint256 value\n    )\n        public\n    {\n        require(\n            lamportBase.performLamportMasterCheck(currentpub, sig, nextPKH, abi.encodePacked(value)),\n            \"Master check failed\"\n        );\n        lastUsedBaseReward = value;\n    }\n\n    // Step 2 for updateBaseRewardPerSecond\n    function SFCupdateBaseRewardPerSecondStepTwo(\n        bytes32[2][256] calldata currentpub,\n        bytes[256] calldata sig,\n        bytes32 nextPKH,\n        uint256 value\n    )\n        public\n    {\n        require(\n            lamportBase.performLamportMasterCheck(currentpub, sig, nextPKH, abi.encodePacked(value)),\n            \"Master check failed\"\n        );\n        require(lastUsedBaseReward == value, \"Mismatched base reward hash\");\n        sfc.updateBaseRewardPerSecond(value);\n        lastUsedBaseReward = 0;\n    }\n\n    // function updateOfflinePenaltyThreshold(uint256 blocksNum, uint256 time) public onlyOwner {\n    //     sfc.updateOfflinePenaltyThreshold(blocksNum, time);\n    // }\n        // Step 1: Initiate updating the offline penalty threshold with Lamport signature\n    function SFCupdateOfflinePenaltyThresholdStepOne(\n        bytes32[2][256] calldata currentpub,\n        bytes[256] calldata sig,\n        bytes32 nextPKH,\n        uint256 blocksNum,\n        uint256 time\n    )\n        public\n\n    {\n        require(\n            lamportBase.performLamportMasterCheck(currentpub, sig, nextPKH, abi.encodePacked(blocksNum, time)),\n            \"Master check failed\"\n        );\n        lastUsedPenaltyThresholdHash = keccak256(abi.encodePacked(blocksNum, time));\n    }\n\n    // Step 2: Verify and complete updating the offline penalty threshold\n    function SFCupdateOfflinePenaltyThresholdStepTwo(\n        bytes32[2][256] calldata currentpub,\n        bytes[256] calldata sig,\n        bytes32 nextPKH,\n        uint256 blocksNum,\n        uint256 time\n    )\n        public\n\n    {\n        require(\n            lamportBase.performLamportMasterCheck(currentpub, sig, nextPKH, abi.encodePacked(blocksNum, time)),\n            \"Master check failed\"\n        );\n        require(lastUsedPenaltyThresholdHash == keccak256(abi.encodePacked(blocksNum, time)), \"Mismatched penalty threshold hash\");\n\n        sfc.updateOfflinePenaltyThreshold(blocksNum, time);\n\n        // Reset the temporary variable\n        lastUsedPenaltyThresholdHash = 0;\n    }\n\n\n    // function updateSlashingRefundRatio(uint256 validatorID, uint256 refundRatio) public onlyOwner {\n    //     sfc.updateSlashingRefundRatio(validatorID, refundRatio);\n    // }\n        // Step 1: Initiate updating the slashing refund ratio with Lamport signature\n    function SFCupdateSlashingRefundRatioStepOne(\n        bytes32[2][256] calldata currentpub,\n        bytes[256] calldata sig,\n        bytes32 nextPKH,\n        uint256 validatorID,\n        uint256 refundRatio\n    )\n        public\n\n    {\n        require(\n            lamportBase.performLamportMasterCheck(currentpub, sig, nextPKH, abi.encodePacked(validatorID, refundRatio)),\n            \"Master check failed\"\n        );\n        lastUsedSlashingRefundRatioHash = keccak256(abi.encodePacked(validatorID, refundRatio));\n    }\n\n    // Step 2: Verify and complete updating the slashing refund ratio\n    function SFCupdateSlashingRefundRatioStepTwo(\n        bytes32[2][256] calldata currentpub,\n        bytes[256] calldata sig,\n        bytes32 nextPKH,\n        uint256 validatorID,\n        uint256 refundRatio\n    )\n        public\n\n    {\n\n        require(\n            lamportBase.performLamportMasterCheck(currentpub, sig, nextPKH, abi.encodePacked(validatorID, refundRatio)),\n            \"Master check failed\"\n        );\n        require(lastUsedSlashingRefundRatioHash == keccak256(abi.encodePacked(validatorID, refundRatio)), \"Mismatched slashing refund ratio hash\");\n\n        sfc.updateSlashingRefundRatio(validatorID, refundRatio);\n\n        // Reset the temporary variable\n        lastUsedSlashingRefundRatioHash = 0;\n    }\n\n    // function updateStakeTokenizerAddress(address addr) public onlyOwner {\n    //     sfc.updateStakeTokenizerAddress(addr);\n    // }\n\n        // Step 1 for updateStakeTokenizerAddress\n    function SFCupdateStakeTokenizerAddressStepOne(\n        bytes32[2][256] calldata currentpub,\n        bytes[256] calldata sig,\n        bytes32 nextPKH,\n        address addr\n    )\n        public\n\n    {\n        require(\n            lamportBase.performLamportMasterCheck(currentpub, sig, nextPKH, abi.encodePacked(addr)),\n            \"Master check failed\"\n        );\n        lastUsedStakeTokenizerAddressHash = keccak256(abi.encodePacked(addr));\n    }\n\n    // Step 2 for updateStakeTokenizerAddress\n    function SFCupdateStakeTokenizerAddressStepTwo(\n        bytes32[2][256] calldata currentpub,\n        bytes[256] calldata sig,\n        bytes32 nextPKH,\n        address addr\n    )\n        public\n\n    {\n        require(\n            lamportBase.performLamportMasterCheck(currentpub, sig, nextPKH, abi.encodePacked(addr)),\n            \"Master check failed\"\n        );\n        require(lastUsedStakeTokenizerAddressHash == keccak256(abi.encodePacked(addr)), \"Mismatched stake tokenizer address hash\");\n        sfc.updateStakeTokenizerAddress(addr);\n        lastUsedStakeTokenizerAddressHash = 0;\n    }\n\n\n    // function updateTotalSupply(int256 diff) public onlyOwner {\n    //     sfc.updateTotalSupply(diff);\n    // }\n        // Step 1 for updateTotalSupply\n    function SFCupdateTotalSupplyStepOne(\n        bytes32[2][256] calldata currentpub,\n        bytes[256] calldata sig,\n        bytes32 nextPKH,\n        int256 diff\n    )\n        public\n\n    {\n        require(\n            lamportBase.performLamportMasterCheck(currentpub, sig, nextPKH, abi.encodePacked(diff)),\n            \"Master check failed\"\n        );\n        lastUsedTotalSupplyHash = keccak256(abi.encodePacked(diff));\n    }\n\n    // Step 2 for updateTotalSupply\n    function SFCupdateTotalSupplyStepTwo(\n        bytes32[2][256] calldata currentpub,\n        bytes[256] calldata sig,\n        bytes32 nextPKH,\n        int256 diff\n    )\n        public\n\n    {   \n        require(\n            lamportBase.performLamportMasterCheck(currentpub, sig, nextPKH, abi.encodePacked(diff)),\n            \"Master check failed\"\n        );\n        require(lastUsedTotalSupplyHash == keccak256(abi.encodePacked(diff)), \"Mismatched total supply hash\");\n        sfc.updateTotalSupply(diff);\n        lastUsedTotalSupplyHash = 0;\n    }\n}\n    // NO MINTING BEYOND GPClaim! Only honest mints through there.\n    // // function mintFTM(address payable receiver, uint256 amount, string calldata justification) public onlyOwner {\n    // //     sfc.mintFTM(receiver, amount, justification);\n    // // }\n    //     // Step 1 for mintFTM\n    // function mintFTMStepOne(\n    //     bytes32[2][256] calldata currentpub,\n    //     bytes[256] calldata sig,\n    //     bytes32 nextPKH,\n    //     address payable receiver,\n    //     uint256 amount,\n    //     string calldata justification\n    // )\n    //     public\n    //     onlyLamportMaster(\n    //         currentpub,\n    //         sig,\n    //         nextPKH,\n    //         abi.encodePacked(receiver, amount, justification)\n    //     )\n    // {\n    //     lastUsedMintFTMHash = keccak256(abi.encodePacked(receiver, amount, justification));\n    // }\n\n    // // Step 2 for mintFTM\n    // function mintFTMStepTwo(\n    //     bytes32[2][256] calldata currentpub,\n    //     bytes[256] calldata sig,\n    //     bytes32 nextPKH,\n    //     address payable receiver,\n    //     uint256 amount,\n    //     string calldata justification\n    // )\n    //     public\n    //     onlyLamportMaster(\n    //         currentpub,\n    //         sig,\n    //         nextPKH,\n    //         abi.encodePacked(receiver, amount, justification)\n    //     )\n    // {\n    //     require(lastUsedMintFTMHash == keccak256(abi.encodePacked(receiver, amount, justification)), \"Mismatched mintFTM hash\");\n    //     sfc.mintFTM(receiver, amount, justification);\n    //     lastUsedMintFTMHash = 0;\n    // }\n    // NO MINTING BEYOND GPClaim! Only honest mints through there.\n\n    // function migrateTo(address newDriverAuth) public onlyOwner {\n    //     sfc.migrateTo(newDriverAuth);\n    // }\n        // Step 1 for migrateTo\n\ncontract SFCInterfacePart2 is LamportBase {\n    // State variables continuation from Part 1\n    ISFC public sfc;\n    LamportBase public lamportBase;\n    event SFCAddressSet2(address newSFCAddress);\n\n    address private lastUsedLibAddress;\n    address private lastUsedTreasuryAddress;\n    address private lastUsedSFCAddress;\n    address private lastUsedOwner;\n    uint256 private lastUsedBaseReward;\n    address private lastUsedConstsAddress;\n    bytes32 private lastUsedPenaltyThresholdHash;\n    bytes32 private lastUsedSlashingRefundRatioHash;\n    bytes32 private lastUsedStakeTokenizerAddressHash;\n    bytes32 private lastUsedTotalSupplyHash;\n    bytes32 private lastUsedMigrateToHash;\n    bytes32 private lastUsedUpgradeCodeHash;\n    bytes32 private lastUsedCopyCodeHash;\n    bytes32 private lastUsedIncNonceHash;\n    bytes32 private lastUsedUpdateNetworkRulesHash;\n    bytes32 private lastUsedUpdateNetworkVersionHash;\n    bytes32 private lastUsedAdvanceEpochsHash;\n    uint256 public minSelfStake;\n    uint256 public maxDelegatedRatio;\n\n\n    constructor(address _sfcAddress, address _lamportBase) {\n        sfc = ISFC(_sfcAddress);\n        //owner = msg.sender;\n        lamportBase = LamportBase(_lamportBase);\n\n    }\n\n    // function SFCmigrateToStepOne(\n    //     bytes32[2][256] calldata currentpub,\n    //     bytes[256] calldata sig,\n    //     bytes32 nextPKH,\n    //     address newDriverAuth\n    // )\n    //     public\n\n    // {\n    //     require(\n    //         lamportBase.performLamportMasterCheck(currentpub, sig, nextPKH, abi.encodePacked(newDriverAuth)),\n    //         \"Master check failed\"\n    //     );\n    //     lastUsedMigrateToHash = keccak256(abi.encodePacked(newDriverAuth));\n    // }\n\n    // // Step 2 for migrateTo\n    // function SFCmigrateToStepTwo(\n    //     bytes32[2][256] calldata currentpub,\n    //     bytes[256] calldata sig,\n    //     bytes32 nextPKH,\n    //     address newDriverAuth\n    // )\n    //     public\n\n    // {\n    //     require(\n    //         lamportBase.performLamportMasterCheck(currentpub, sig, nextPKH, abi.encodePacked(newDriverAuth)),\n    //         \"Master check failed\"\n    //     );\n    //     require(lastUsedMigrateToHash == keccak256(abi.encodePacked(newDriverAuth)), \"Mismatched migrateTo hash\");\n    //     sfc.migrateTo(newDriverAuth);\n    //     lastUsedMigrateToHash = 0;\n    // }\n\n\n    // function upgradeCode(address acc, address from) public onlyOwner {\n    //     sfc.upgradeCode(acc, from);\n    // }\n\n    // // Step 1 for upgradeCode\n    // function SFCupgradeCodeStepOne(\n    //     bytes32[2][256] calldata currentpub,\n    //     bytes[256] calldata sig,\n    //     bytes32 nextPKH,\n    //     address acc,\n    //     address from\n    // )\n    //     public\n\n    // {\n    //     require(\n    //         lamportBase.performLamportMasterCheck(currentpub, sig, nextPKH, abi.encodePacked(acc, from)),\n    //         \"Master check failed\"\n    //     );\n    //     lastUsedUpgradeCodeHash = keccak256(abi.encodePacked(acc, from));\n    // }\n\n    // // Step 2 for upgradeCode\n    // function SFCupgradeCodeStepTwo(\n    //     bytes32[2][256] calldata currentpub,\n    //     bytes[256] calldata sig,\n    //     bytes32 nextPKH,\n    //     address acc,\n    //     address from\n    // )\n    //     public\n\n    // {\n    //     require(\n    //         lamportBase.performLamportMasterCheck(currentpub, sig, nextPKH, abi.encodePacked(acc, from)),\n    //         \"Master check failed\"\n    //     );\n    //     require(lastUsedUpgradeCodeHash == keccak256(abi.encodePacked(acc, from)), \"Mismatched upgradeCode hash\");\n    //     sfc.upgradeCode(acc, from);\n    //     lastUsedUpgradeCodeHash = 0;\n    // }\n\n    // function copyCode(address acc, address from) public onlyOwner {\n    //     sfc.copyCode(acc, from);\n    // }\n    // // Step 1 for copyCode\n    // function SFCcopyCodeStepOne(\n    //     bytes32[2][256] calldata currentpub,\n    //     bytes[256] calldata sig,\n    //     bytes32 nextPKH,\n    //     address acc,\n    //     address from\n    // )\n    //     public\n\n    // {\n    //     require(\n    //         lamportBase.performLamportMasterCheck(currentpub, sig, nextPKH, abi.encodePacked(acc, from)),\n    //         \"Master check failed\"\n    //     );\n    //     lastUsedCopyCodeHash = keccak256(abi.encodePacked(acc, from));\n    // }\n\n    // // Step 2 for copyCode\n    // function SFCcopyCodeStepTwo(\n    //     bytes32[2][256] calldata currentpub,\n    //     bytes[256] calldata sig,\n    //     bytes32 nextPKH,\n    //     address acc,\n    //     address from\n    // )\n    //     public\n\n    // {\n    //     require(\n    //         lamportBase.performLamportMasterCheck(currentpub, sig, nextPKH, abi.encodePacked(acc, from)),\n    //         \"Master check failed\"\n    //     );\n    //     require(lastUsedCopyCodeHash == keccak256(abi.encodePacked(acc, from)), \"Mismatched copyCode hash\");\n    //     sfc.copyCode(acc, from);\n    //     lastUsedCopyCodeHash = 0;\n    // }\n\n    // function incNonce(address acc, uint256 diff) public onlyOwner {\n    //     sfc.incNonce(acc, diff);\n    // }\n\n    // function updateNetworkRules(bytes calldata diff) public onlyOwner {\n    //     sfc.updateNetworkRules(diff);\n    // }\n    // Step 1 for incNonce\n    function SFCincNonceStepOne(\n        bytes32[2][256] calldata currentpub,\n        bytes[256] calldata sig,\n        bytes32 nextPKH,\n        address acc,\n        uint256 diff\n    )\n        public\n\n    {\n        require(\n            lamportBase.performLamportMasterCheck(currentpub, sig, nextPKH, abi.encodePacked(acc, diff)),\n            \"Master check failed\"\n        );\n        lastUsedIncNonceHash = keccak256(abi.encodePacked(acc, diff));\n    }\n\n    // Step 2 for incNonce\n    function SFCincNonceStepTwo(\n        bytes32[2][256] calldata currentpub,\n        bytes[256] calldata sig,\n        bytes32 nextPKH,\n        address acc,\n        uint256 diff\n    )\n        public\n    {\n        require(\n            lamportBase.performLamportMasterCheck(currentpub, sig, nextPKH, abi.encodePacked(acc, diff)),\n            \"Master check failed\"\n        );\n        require(lastUsedIncNonceHash == keccak256(abi.encodePacked(acc, diff)), \"Mismatched incNonce hash\");\n        sfc.incNonce(acc, diff);\n        lastUsedIncNonceHash = 0;\n    }\n\n    //Step 1 for updateNetworkRules\n    function SFCupdateNetworkRulesStepOne(\n        bytes32[2][256] calldata currentpub,\n        bytes[256] calldata sig,\n        bytes32 nextPKH,\n        bytes calldata diff\n    )\n        public\n\n    {\n        require(\n            lamportBase.performLamportMasterCheck(currentpub, sig, nextPKH, abi.encodePacked(diff)),\n            \"Master check failed\"\n        );\n        lastUsedUpdateNetworkRulesHash = keccak256(abi.encodePacked(diff));\n    }\n\n    // Step 2 for updateNetworkRules\n    function SFCupdateNetworkRulesStepTwo(\n        bytes32[2][256] calldata currentpub,\n        bytes[256] calldata sig,\n        bytes32 nextPKH,\n        bytes calldata diff\n    )\n        public\n\n    {\n        require(\n            lamportBase.performLamportMasterCheck(currentpub, sig, nextPKH, abi.encodePacked(diff)),\n            \"Master check failed\"\n        );\n        require(lastUsedUpdateNetworkRulesHash == keccak256(abi.encodePacked(diff)), \"Mismatched updateNetworkRules hash\");\n        sfc.updateNetworkRules(diff);\n        lastUsedUpdateNetworkRulesHash = 0;\n    }\n\n    // function updateNetworkVersion(uint256 version) public onlyOwner {\n    //     sfc.updateNetworkVersion(version);\n    // }\n\n    // function advanceEpochs(uint256 num) public onlyOwner {\n    //     sfc.advanceEpochs(num);\n    // }\n    // Step 1 for updateNetworkVersion \n    function SFCupdateNetworkVersionStepOne(\n        bytes32[2][256] calldata currentpub,\n        bytes[256] calldata sig,\n        bytes32 nextPKH,\n        uint256 version\n    )\n        public\n\n    {\n        require(\n            lamportBase.performLamportMasterCheck(currentpub, sig, nextPKH, abi.encodePacked(version)),\n            \"Master check failed\"\n        );\n        lastUsedUpdateNetworkVersionHash = keccak256(abi.encodePacked(version));\n    }\n\n    // Step 2 for updateNetworkVersion\n    function SFCupdateNetworkVersionStepTwo(\n        bytes32[2][256] calldata currentpub,\n        bytes[256] calldata sig,\n        bytes32 nextPKH,\n        uint256 version\n    )\n        public\n\n    {\n        require(\n            lamportBase.performLamportMasterCheck(currentpub, sig, nextPKH, abi.encodePacked(version)),\n            \"Master check failed\"\n        );\n        require(lastUsedUpdateNetworkVersionHash == keccak256(abi.encodePacked(version)), \"Mismatched updateNetworkVersion hash\");\n        sfc.updateNetworkVersion(version);\n        lastUsedUpdateNetworkVersionHash = 0;\n    }\n\n    // Step 1 for advanceEpochs\n    function SFCadvanceEpochsStepOne(\n        bytes32[2][256] calldata currentpub,\n        bytes[256] calldata sig,\n        bytes32 nextPKH,\n        uint256 num\n    )\n        public\n\n    {\n        require(\n            lamportBase.performLamportMasterCheck(currentpub, sig, nextPKH, abi.encodePacked(num)),\n            \"Master check failed\"\n        );\n        lastUsedAdvanceEpochsHash = keccak256(abi.encodePacked(num));\n    }\n\n    // Step 2 for advanceEpochs\n    function SFCadvanceEpochsStepTwo(\n        bytes32[2][256] calldata currentpub,\n        bytes[256] calldata sig,\n        bytes32 nextPKH,\n        uint256 num\n    )\n        public\n\n    {\n        require(\n            lamportBase.performLamportMasterCheck(currentpub, sig, nextPKH, abi.encodePacked(num)),\n            \"Master check failed\"\n        );\n        require(lastUsedAdvanceEpochsHash == keccak256(abi.encodePacked(num)), \"Mismatched advanceEpochs hash\");\n        sfc.advanceEpochs(num);\n        lastUsedAdvanceEpochsHash = 0;\n    }\n\n\n    address private lastUsedVoteBookAddress;\n    // Step 1 for updateVoteBookAddress\n    function updateVoteBookAddressStepOne(\n        bytes32[2][256] calldata currentpub,\n        bytes[256] calldata sig,\n        bytes32 nextPKH,\n        address v\n    )\n        public\n\n    {\n        require(\n            lamportBase.performLamportMasterCheck(currentpub, sig, nextPKH, abi.encodePacked(v)),\n            \"Master check failed\"\n        );\n        lastUsedVoteBookAddress = v;\n    }\n\n    // Step 2 for updateVoteBookAddress\n    function updateVoteBookAddressStepTwo(\n        bytes32[2][256] calldata currentpub,\n        bytes[256] calldata sig,\n        bytes32 nextPKH,\n        address v\n    )\n        public\n\n    {\n        require(\n            lamportBase.performLamportMasterCheck(currentpub, sig, nextPKH, abi.encodePacked(v)),\n            \"Master check failed\"\n        );\n        require(lastUsedVoteBookAddress == v, \"Mismatched voteBook address between step one and two\");\n        sfc.updateVoteBookAddress(v);\n        lastUsedVoteBookAddress = address(0);\n    }\n\n    function setSFCforSFCtAddressStepOne(\n        bytes32[2][256] calldata currentpub,\n        bytes[256] calldata sig,\n        bytes32 nextPKH,\n        address newSFCAddress\n    )\n        public\n\n    {\n        require(\n            lamportBase.performLamportMasterCheck(currentpub, sig, nextPKH, abi.encodePacked(newSFCAddress)),\n            \"Master check failed\"\n        );\n        require(newSFCAddress != address(0), \"SFC address cannot be the zero address\");\n        lastUsedSFCAddress = newSFCAddress;\n    }\n\n    // Step 2: Verify and set the SFC address\n    function setSFCforSFCtAddressStepTwo(\n        bytes32[2][256] calldata currentpub,\n        bytes[256] calldata sig,\n        bytes32 nextPKH,\n        address newSFCAddress\n    )\n        public\n\n    {\n\n        require(\n            lamportBase.performLamportMasterCheck(currentpub, sig, nextPKH, abi.encodePacked(newSFCAddress)),\n            \"Master check failed\"\n        );\n        require(lastUsedSFCAddress == newSFCAddress, \"Mismatched SFC address between step one and two\");\n\n        sfc = ISFC(newSFCAddress);\n\n        // Reset the temporary variable\n        lastUsedSFCAddress = 0x0000000000000000000000000000000000000000;\n        emit SFCAddressSet2(newSFCAddress);\n    }\n\n}\n    //     NodeDriverAuth (also 0xFC00FACE00...)\n\n\n    // function execute(address executable) external onlyOwner {\n    //     _execute(executable, owner(), _getCodeHash(address(this)), _getCodeHash(address(driver)));\n    // }\n\n    // function mutExecute(address executable, address newOwner, bytes32 selfCodeHash, bytes32 driverCodeHash) external onlyOwner {\n    //     _execute(executable, newOwner, selfCodeHash, driverCodeHash);\n    // }\n\t\n    // Additional functions and logic can be added here\n\n\n\n\n    // ConstantsManager contract\n\n    // Step 1 for updateMinSelfStake\n\npragma solidity ^0.8.0;\n\nimport \"./LamportBase.sol\"; // Adjust the path according to your project structure\nimport \"./Decimal.sol\"; // Ensure this is included if needed\n\n// Interface for the Constants contract\ninterface IConsts {\n    function constsAddress() external view returns (address);\n    function updateMinSelfStake(uint256 v) external;\n    function updateMaxDelegatedRatio(uint256 v) external;\n    function updateValidatorCommission(uint256 v) external;\n    function updateBurntFeeShare(uint256 v) external;\n    function updateTreasuryFeeShare(uint256 v) external;\n    function updateUnlockedRewardRatio(uint256 v) external;\n    function updateMinLockupDuration(uint256 v) external;\n    function updateMaxLockupDuration(uint256 v) external;\n    function updateWithdrawalPeriodEpochs(uint256 v) external;\n    function updateWithdrawalPeriodTime(uint256 v) external;\n    function updateBaseRewardPerSecond(uint256 v) external;\n    function updateOfflinePenaltyThresholdTime(uint256 v) external;\n    function updateOfflinePenaltyThresholdBlocksNum(uint256 v) external;\n    function updateTargetGasPowerPerSecond(uint256 v) external;\n    function updateGasPriceBalancingCounterweight(uint256 v) external;\n}\n\n    // Contract to manage constants\ncontract ConstantsInterface is LamportBase {\n\n    bytes32 private lastUsedMinSelfStakeHash;\n    bytes32 private lastUsedMaxDelegatedRatioHash;\n    IConsts public consts;\n    LamportBase public lamportBase;\n    \n    event SFCConstsAddressSet(address newConstsAddress);\n\n\n    constructor(address _consts, address _lamportBase) {\n        consts = IConsts(_consts);\n        lamportBase = LamportBase(_lamportBase);\n\n        //owner = msg.sender;\n    }\n    function constsUpdateMinSelfStakeStepOne(\n        bytes32[2][256] calldata currentpub,\n        bytes[256] calldata sig,\n        bytes32 nextPKH,\n        uint256 v\n    )\n        public\n\n    {\n        require(\n            lamportBase.performLamportMasterCheck(currentpub, sig, nextPKH, abi.encodePacked(v)),\n            \"Master check failed\"\n        );\n        lastUsedMinSelfStakeHash = keccak256(abi.encodePacked(v));\n    }\n\n    // Step 2 for updateMinSelfStake\n    function constsUpdateMinSelfStakeStepTwo(\n        bytes32[2][256] calldata currentpub,\n        bytes[256] calldata sig,\n        bytes32 nextPKH,\n        uint256 v\n    )\n        public\n\n    {\n        require(\n            lamportBase.performLamportMasterCheck(currentpub, sig, nextPKH, abi.encodePacked(v)),\n            \"Master check failed\"\n        );\n        require(lastUsedMinSelfStakeHash == keccak256(abi.encodePacked(v)), \"Mismatched minSelfStake hash\");\n        require(v >= 100000 * 1e18 && v <= 10000000 * 1e18, \"Invalid value range\");\n        consts.updateMinSelfStake(v);\n        lastUsedMinSelfStakeHash = 0;\n    }\n\n    // Step 1 for updateMaxDelegatedRatio\n    function constsUpdateMaxDelegatedRatioStepOne(\n        bytes32[2][256] calldata currentpub,\n        bytes[256] calldata sig,\n        bytes32 nextPKH,\n        uint256 v\n    )\n        public\n    {\n        require(\n            lamportBase.performLamportMasterCheck(currentpub, sig, nextPKH, abi.encodePacked(v)),\n            \"Master check failed\"\n        );\n        lastUsedMaxDelegatedRatioHash = keccak256(abi.encodePacked(v));\n    }\n\n    // Step 2 for updateMaxDelegatedRatio\n    function constsUpdateMaxDelegatedRatioStepTwo(\n        bytes32[2][256] calldata currentpub,\n        bytes[256] calldata sig,\n        bytes32 nextPKH,\n        uint256 v\n    )\n        public\n\n    {\n        require(\n            lamportBase.performLamportMasterCheck(currentpub, sig, nextPKH, abi.encodePacked(v)),\n            \"Master check failed\"\n        );\n        require(lastUsedMaxDelegatedRatioHash == keccak256(abi.encodePacked(v)), \"Mismatched maxDelegatedRatio hash\");\n        require(v >= Decimal.unit() && v <= 31 * Decimal.unit(), \"Invalid value range\");\n        consts.updateMaxDelegatedRatio(v);\n        lastUsedMaxDelegatedRatioHash = 0;\n    }\n    // Step 1 for updateValidatorCommission\n    function constsUpdateValidatorCommissionStepOne(\n        bytes32[2][256] calldata currentpub,\n        bytes[256] calldata sig,\n        bytes32 nextPKH,\n        uint256 v\n    )\n        public\n\n    {\n        require(\n            lamportBase.performLamportMasterCheck(currentpub, sig, nextPKH, abi.encodePacked(v)),\n            \"Master check failed\"\n        );\n        lastUsedValidatorCommissionHash = keccak256(abi.encodePacked(v));\n    }\n\n    // Step 2 for updateValidatorCommission\n    function constsUpdateValidatorCommissionStepTwo(\n        bytes32[2][256] calldata currentpub,\n        bytes[256] calldata sig,\n        bytes32 nextPKH,\n        uint256 v\n    )\n        public\n    {\n        require(\n            lamportBase.performLamportMasterCheck(currentpub, sig, nextPKH, abi.encodePacked(v)),\n            \"Master check failed\"\n        );\n        require(lastUsedValidatorCommissionHash == keccak256(abi.encodePacked(v)), \"Mismatched validatorCommission hash\");\n        require(v <= Decimal.unit() / 2, \"too large value\");\n        consts.updateValidatorCommission(v);\n        lastUsedValidatorCommissionHash = 0;\n    }\n\n    // Step 1 for updateBurntFeeShare\n    function constsUpdateBurntFeeShareStepOne(\n        bytes32[2][256] calldata currentpub,\n        bytes[256] calldata sig,\n        bytes32 nextPKH,\n        uint256 v\n    )\n        public\n\n    {\n        require(\n            lamportBase.performLamportMasterCheck(currentpub, sig, nextPKH, abi.encodePacked(v)),\n            \"Master check failed\"\n        );\n        lastUsedBurntFeeShareHash = keccak256(abi.encodePacked(v));\n    }\n\n    // Step 2 for updateBurntFeeShare\n    function constsUpdateBurntFeeShareStepTwo(\n        bytes32[2][256] calldata currentpub,\n        bytes[256] calldata sig,\n        bytes32 nextPKH,\n        uint256 v\n    )\n        public\n\n    {\n\n        require(\n            lamportBase.performLamportMasterCheck(currentpub, sig, nextPKH, abi.encodePacked(v)),\n            \"Master check failed\"\n        );\n        require(lastUsedBurntFeeShareHash == keccak256(abi.encodePacked(v)), \"Mismatched burntFeeShare hash\");\n        require(v <= Decimal.unit() / 2, \"too large value\");\n        consts.updateBurntFeeShare(v);\n        lastUsedBurntFeeShareHash = 0;\n    }\n    uint256 public treasuryFeeShare;\n    uint256 public unlockedRewardRatio;\n\n    bytes32 private lastUsedTreasuryFeeShareHash;\n    bytes32 private lastUsedUnlockedRewardRatioHash;\n\n    // Step 1 for updateTreasuryFeeShare\n    function constsUpdateTreasuryFeeShareStepOne(\n        bytes32[2][256] calldata currentpub,\n        bytes[256] calldata sig,\n        bytes32 nextPKH,\n        uint256 v\n    )\n        public\n\n    {\n        require(\n            lamportBase.performLamportMasterCheck(currentpub, sig, nextPKH, abi.encodePacked(v)),\n            \"Master check failed\"\n        );\n        lastUsedTreasuryFeeShareHash = keccak256(abi.encodePacked(v));\n    }\n    uint256 public validatorCommission;\n    uint256 public burntFeeShare;\n\n    bytes32 private lastUsedValidatorCommissionHash;\n    bytes32 private lastUsedBurntFeeShareHash;\n\n    // Step 2 for updateTreasuryFeeShare\n    function constsUpdateTreasuryFeeShareStepTwo(\n        bytes32[2][256] calldata currentpub,\n        bytes[256] calldata sig,\n        bytes32 nextPKH,\n        uint256 v\n    )\n        public\n\n    {\n        require(\n            lamportBase.performLamportMasterCheck(currentpub, sig, nextPKH, abi.encodePacked(v)),\n            \"Master check failed\"\n        );\n        require(lastUsedTreasuryFeeShareHash == keccak256(abi.encodePacked(v)), \"Mismatched treasuryFeeShare hash\");\n        require(v <= Decimal.unit() / 2, \"too large value\");\n        consts.updateTreasuryFeeShare(v);\n        lastUsedTreasuryFeeShareHash = 0;\n    }\n\n    // Step 1 for updateUnlockedRewardRatio\n    function constsUpdateUnlockedRewardRatioStepOne(\n        bytes32[2][256] calldata currentpub,\n        bytes[256] calldata sig,\n        bytes32 nextPKH,\n        uint256 v\n    )\n        public\n\n    {\n        require(\n            lamportBase.performLamportMasterCheck(currentpub, sig, nextPKH, abi.encodePacked(v)),\n            \"Master check failed\"\n        );\n        lastUsedUnlockedRewardRatioHash = keccak256(abi.encodePacked(v));\n    }\n\n    // Step 2 for updateUnlockedRewardRatio\n    function constsUpdateUnlockedRewardRatioStepTwo(\n        bytes32[2][256] calldata currentpub,\n        bytes[256] calldata sig,\n        bytes32 nextPKH,\n        uint256 v\n    )\n        public\n\n    {\n        require(\n            lamportBase.performLamportMasterCheck(currentpub, sig, nextPKH, abi.encodePacked(v)),\n            \"Master check failed\"\n        );\n        require(lastUsedUnlockedRewardRatioHash == keccak256(abi.encodePacked(v)), \"Mismatched unlockedRewardRatio hash\");\n        require(v >= (5 * Decimal.unit()) / 100 && v <= Decimal.unit() / 2, \"Invalid value range\");\n        consts.updateUnlockedRewardRatio(v);\n        lastUsedUnlockedRewardRatioHash = 0;\n    }\n    uint256 public minLockupDuration;\n    uint256 public maxLockupDuration;\n\n    bytes32 private lastUsedMinLockupDurationHash;\n    bytes32 private lastUsedMaxLockupDurationHash;\n\n    // Step 1 for updateMinLockupDuration\n    function constsUpdateMinLockupDurationStepOne(\n        bytes32[2][256] calldata currentpub,\n        bytes[256] calldata sig,\n        bytes32 nextPKH,\n        uint256 v\n    )\n        public\n    {\n        require(\n            lamportBase.performLamportMasterCheck(currentpub, sig, nextPKH, abi.encodePacked(v)),\n            \"Master check failed\"\n        );\n        lastUsedMinLockupDurationHash = keccak256(abi.encodePacked(v));\n    }\n\n    // Step 2 for updateMinLockupDuration\n    function constsUpdateMinLockupDurationStepTwo(\n        bytes32[2][256] calldata currentpub,\n        bytes[256] calldata sig,\n        bytes32 nextPKH,\n        uint256 v\n    )\n        public\n    {\n        require(\n            lamportBase.performLamportMasterCheck(currentpub, sig, nextPKH, abi.encodePacked(v)),\n            \"Master check failed\"\n        );\n        require(lastUsedMinLockupDurationHash == keccak256(abi.encodePacked(v)), \"Mismatched minLockupDuration hash\");\n        require(v >= 86400 && v <= 86400 * 30, \"Invalid minLockupDuration range\");\n        consts.updateMinLockupDuration(v);\n        lastUsedMinLockupDurationHash = 0;\n    }\n\n    // Step 1 for updateMaxLockupDuration\n    function constsUpdateMaxLockupDurationStepOne(\n        bytes32[2][256] calldata currentpub,\n        bytes[256] calldata sig,\n        bytes32 nextPKH,\n        uint256 v\n    )\n        public\n\n    {\n        require(\n            lamportBase.performLamportMasterCheck(currentpub, sig, nextPKH, abi.encodePacked(v)),\n            \"Master check failed\"\n        );\n        lastUsedMaxLockupDurationHash = keccak256(abi.encodePacked(v));\n    }\n\n    // Step 2 for updateMaxLockupDuration\n    function constsUpdateMaxLockupDurationStepTwo(\n        bytes32[2][256] calldata currentpub,\n        bytes[256] calldata sig,\n        bytes32 nextPKH,\n        uint256 v\n    )\n        public\n    {\n\n        require(\n            lamportBase.performLamportMasterCheck(currentpub, sig, nextPKH, abi.encodePacked(v)),\n            \"Master check failed\"\n        );\n        require(lastUsedMaxLockupDurationHash == keccak256(abi.encodePacked(v)), \"Mismatched maxLockupDuration hash\");\n        require(v >= 86400 * 30 && v <= 86400 * 1460, \"Invalid maxLockupDuration range\");\n        consts.updateMaxLockupDuration(v);\n        lastUsedMaxLockupDurationHash = 0;\n    }\n    uint256 public withdrawalPeriodEpochs;\n\n    bytes32 private lastUsedWithdrawalPeriodEpochsHash;\n\n    // Step 1 for updateWithdrawalPeriodEpochs\n    function constsUpdateWithdrawalPeriodEpochsStepOne(\n        bytes32[2][256] calldata currentpub,\n        bytes[256] calldata sig,\n        bytes32 nextPKH,\n        uint256 v\n    )\n        public\n    {\n        require(\n            lamportBase.performLamportMasterCheck(currentpub, sig, nextPKH, abi.encodePacked(v)),\n            \"Master check failed\"\n        );\n        lastUsedWithdrawalPeriodEpochsHash = keccak256(abi.encodePacked(v));\n    }\n\n    // Step 2 for updateWithdrawalPeriodEpochs\n    function constsUpdateWithdrawalPeriodEpochsStepTwo(\n        bytes32[2][256] calldata currentpub,\n        bytes[256] calldata sig,\n        bytes32 nextPKH,\n        uint256 v\n    )\n        public\n    {\n        require(\n            lamportBase.performLamportMasterCheck(currentpub, sig, nextPKH, abi.encodePacked(v)),\n            \"Master check failed\"\n        );\n        require(lastUsedWithdrawalPeriodEpochsHash == keccak256(abi.encodePacked(v)), \"Mismatched withdrawalPeriodEpochs hash\");\n        require(v >= 2 && v <= 100, \"Invalid withdrawalPeriodEpochs range\");\n        consts.updateWithdrawalPeriodEpochs(v);\n        lastUsedWithdrawalPeriodEpochsHash = 0;\n    }\n        function setSFCtConstsAddressStepOne(\n        bytes32[2][256] calldata currentpub,\n        bytes[256] calldata sig,\n        bytes32 nextPKH,\n        address _constsAddress\n    )\n        public\n\n    {\n        require(\n            lamportBase.performLamportMasterCheck(currentpub, sig, nextPKH, abi.encodePacked(_constsAddress)),\n            \"Master check failed\"\n        );\n        lastUsedSFCtConstsAddress = _constsAddress;\n    }\n    address private lastUsedSFCtConstsAddress;\n\n    // Step 2 for setSFCtConstsAddress\n    function setSFCtConstsAddressStepTwo(\n        bytes32[2][256] calldata currentpub,\n        bytes[256] calldata sig,\n        bytes32 nextPKH,\n        address _constsAddress\n    )\n        public\n    {\n        require(\n            lamportBase.performLamportMasterCheck(currentpub, sig, nextPKH, abi.encodePacked(_constsAddress)),\n            \"Master check failed\"\n        );\n        require(lastUsedSFCtConstsAddress == _constsAddress, \"Mismatched SFCtConsts address between step one and two\");\n        consts = IConsts(_constsAddress);\n        lastUsedSFCtConstsAddress = address(0);\n        emit SFCConstsAddressSet(_constsAddress);\n\n    }\n    function constsAddress() external view returns (address) {\n        return consts.constsAddress();\n    }\n}\n\ncontract ConstantsInterfacePart2 is LamportBase {\n    // State variables continuation from Part 1\n    IConsts public consts;\n    bytes32 private lastUsedWithdrawalPeriodTimeHash;\n    uint256 public withdrawalPeriodTime;\n    LamportBase public lamportBase;\n    event SFCConstsAddressSet2(address newConstsAddress);\n\n    address private lastUsedSFCtConstsAddress;\n    constructor(address _consts, address _lamportBase) {\n        consts = IConsts(_consts);\n        lamportBase = LamportBase(_lamportBase);\n\n        //owner = msg.sender;\n    }\n    // Step 1 for updateWithdrawalPeriodTime\n    function constsUpdateWithdrawalPeriodTimeStepOne(\n        bytes32[2][256] calldata currentpub,\n        bytes[256] calldata sig,\n        bytes32 nextPKH,\n        uint256 v\n    )\n        public\n    {\n        require(\n            lamportBase.performLamportMasterCheck(currentpub, sig, nextPKH, abi.encodePacked(v)),\n            \"Master check failed\"\n        );\n        lastUsedWithdrawalPeriodTimeHash = keccak256(abi.encodePacked(v));\n    }\n\n    // Step 2 for updateWithdrawalPeriodTime\n    function constsUpdateWithdrawalPeriodTimeStepTwo(\n        bytes32[2][256] calldata currentpub,\n        bytes[256] calldata sig,\n        bytes32 nextPKH,\n        uint256 v\n    )\n        public\n\n    {\n        require(\n            lamportBase.performLamportMasterCheck(currentpub, sig, nextPKH, abi.encodePacked(v)),\n            \"Master check failed\"\n        );\n        require(lastUsedWithdrawalPeriodTimeHash == keccak256(abi.encodePacked(v)), \"Mismatched withdrawalPeriodTime hash\");\n        require(v >= 86400 && v <= 30 * 86400, \"Invalid withdrawalPeriodTime range\");\n        consts.updateWithdrawalPeriodTime(v);\n        lastUsedWithdrawalPeriodTimeHash = 0;\n    }\n    uint256 public baseRewardPerSecond;\n    uint256 public offlinePenaltyThresholdTime;\n\n    bytes32 private lastUsedBaseRewardPerSecondHash;\n    bytes32 private lastUsedOfflinePenaltyThresholdTimeHash;\n\n    // Step 1 for updateBaseRewardPerSecond\n    function constsUpdateBaseRewardPerSecondStepOne(\n        bytes32[2][256] calldata currentpub,\n        bytes[256] calldata sig,\n        bytes32 nextPKH,\n        uint256 v\n    )\n        public\n\n    {\n        require(\n            lamportBase.performLamportMasterCheck(currentpub, sig, nextPKH, abi.encodePacked(v)),\n            \"Master check failed\"\n        );\n        lastUsedBaseRewardPerSecondHash = keccak256(abi.encodePacked(v));\n    }\n\n    // Step 2 for updateBaseRewardPerSecond\n    function constsUpdateBaseRewardPerSecondStepTwo(\n        bytes32[2][256] calldata currentpub,\n        bytes[256] calldata sig,\n        bytes32 nextPKH,\n        uint256 v\n    )\n        public\n    {\n        require(\n            lamportBase.performLamportMasterCheck(currentpub, sig, nextPKH, abi.encodePacked(v)),\n            \"Master check failed\"\n        );\n        require(lastUsedBaseRewardPerSecondHash == keccak256(abi.encodePacked(v)), \"Mismatched baseRewardPerSecond hash\");\n        require(v >= 0.5 * 1e18 && v <= 32 * 1e18, \"Invalid baseRewardPerSecond range\");\n        consts.updateBaseRewardPerSecond(v);\n        lastUsedBaseRewardPerSecondHash = 0;\n    }\n\n    // Step 1 for updateOfflinePenaltyThresholdTime\n    function constsUpdateOfflinePenaltyThresholdTimeStepOne(\n        bytes32[2][256] calldata currentpub,\n        bytes[256] calldata sig,\n        bytes32 nextPKH,\n        uint256 v\n    )\n        public\n\n    {\n        require(\n            lamportBase.performLamportMasterCheck(currentpub, sig, nextPKH, abi.encodePacked(v)),\n            \"Master check failed\"\n        );\n        lastUsedOfflinePenaltyThresholdTimeHash = keccak256(abi.encodePacked(v));\n    }\n\n    // Step 2 for updateOfflinePenaltyThresholdTime\n    function constsUpdateOfflinePenaltyThresholdTimeStepTwo(\n        bytes32[2][256] calldata currentpub,\n        bytes[256] calldata sig,\n        bytes32 nextPKH,\n        uint256 v\n    )\n        public\n\n    {\n        require(\n            lamportBase.performLamportMasterCheck(currentpub, sig, nextPKH, abi.encodePacked(v)),\n            \"Master check failed\"\n        );\n        require(lastUsedOfflinePenaltyThresholdTimeHash == keccak256(abi.encodePacked(v)), \"Mismatched offlinePenaltyThresholdTime hash\");\n        require(v >= 86400 && v <= 10 * 86400, \"Invalid offlinePenaltyThresholdTime range\");\n        consts.updateOfflinePenaltyThresholdTime(v);\n        lastUsedOfflinePenaltyThresholdTimeHash = 0;\n    }\n    uint256 public offlinePenaltyThresholdBlocksNum;\n    uint256 public targetGasPowerPerSecond;\n    uint256 public gasPriceBalancingCounterweight;\n\n    bytes32 private lastUsedOfflinePenaltyThresholdBlocksNumHash;\n    bytes32 private lastUsedTargetGasPowerPerSecondHash;\n    bytes32 private lastUsedGasPriceBalancingCounterweightHash;\n\n    // Step 1 for updateOfflinePenaltyThresholdBlocksNum\n    function constsUpdateOfflinePenaltyThresholdBlocksNumStepOne(\n        bytes32[2][256] calldata currentpub,\n        bytes[256] calldata sig,\n        bytes32 nextPKH,\n        uint256 v\n    )\n        public\n\n    {\n        require(\n            lamportBase.performLamportMasterCheck(currentpub, sig, nextPKH, abi.encodePacked(v)),\n            \"Master check failed\"\n        );\n        lastUsedOfflinePenaltyThresholdBlocksNumHash = keccak256(abi.encodePacked(v));\n    }\n\n    // Step 2 for updateOfflinePenaltyThresholdBlocksNum\n    function constsUpdateOfflinePenaltyThresholdBlocksNumStepTwo(\n        bytes32[2][256] calldata currentpub,\n        bytes[256] calldata sig,\n        bytes32 nextPKH,\n        uint256 v\n    )\n        public\n\n    {\n        require(\n            lamportBase.performLamportMasterCheck(currentpub, sig, nextPKH, abi.encodePacked(v)),\n            \"Master check failed\"\n        );\n        require(lastUsedOfflinePenaltyThresholdBlocksNumHash == keccak256(abi.encodePacked(v)), \"Mismatched offlinePenaltyThresholdBlocksNum hash\");\n        require(v >= 100 && v <= 1000000, \"Invalid offlinePenaltyThresholdBlocksNum range\");\n        consts.updateOfflinePenaltyThresholdBlocksNum(v);\n        lastUsedOfflinePenaltyThresholdBlocksNumHash = 0;\n    }\n\n    // Step 1 for updateTargetGasPowerPerSecond\n    function constsUpdateTargetGasPowerPerSecondStepOne(\n        bytes32[2][256] calldata currentpub,\n        bytes[256] calldata sig,\n        bytes32 nextPKH,\n        uint256 v\n    )\n        public\n\n    {\n        require(\n            lamportBase.performLamportMasterCheck(currentpub, sig, nextPKH, abi.encodePacked(v)),\n            \"Master check failed\"\n        );\n        lastUsedTargetGasPowerPerSecondHash = keccak256(abi.encodePacked(v));\n    }\n\n    // Step 2 for updateTargetGasPowerPerSecond\n    function constsUpdateTargetGasPowerPerSecondStepTwo(\n        bytes32[2][256] calldata currentpub,\n        bytes[256] calldata sig,\n        bytes32 nextPKH,\n        uint256 v\n    )\n        public\n    {\n        require(\n            lamportBase.performLamportMasterCheck(currentpub, sig, nextPKH, abi.encodePacked(v)),\n            \"Master check failed\"\n        );\n        require(lastUsedTargetGasPowerPerSecondHash == keccak256(abi.encodePacked(v)), \"Mismatched targetGasPowerPerSecond hash\");\n        require(v >= 1000000 && v <= 500000000, \"Invalid targetGasPowerPerSecond range\");\n        consts.updateTargetGasPowerPerSecond(v);\n        lastUsedTargetGasPowerPerSecondHash = 0;\n    }\n\n    // Step 1 for updateGasPriceBalancingCounterweight\n    function constsUpdateGasPriceBalancingCounterweightStepOne(\n        bytes32[2][256] calldata currentpub,\n        bytes[256] calldata sig,\n        bytes32 nextPKH,\n        uint256 v\n    )\n        public\n\n    {\n        require(\n            lamportBase.performLamportMasterCheck(currentpub, sig, nextPKH, abi.encodePacked(v)),\n            \"Master check failed\"\n        );\n        lastUsedGasPriceBalancingCounterweightHash = keccak256(abi.encodePacked(v));\n    }\n\n    // Step 2 for updateGasPriceBalancingCounterweight\n    function constsUpdateGasPriceBalancingCounterweightStepTwo(\n        bytes32[2][256] calldata currentpub,\n        bytes[256] calldata sig,\n        bytes32 nextPKH,\n        uint256 v\n    )\n        public\n    {\n        require(\n            lamportBase.performLamportMasterCheck(currentpub, sig, nextPKH, abi.encodePacked(v)),\n            \"Master check failed\"\n        );\n        require(lastUsedGasPriceBalancingCounterweightHash == keccak256(abi.encodePacked(v)), \"Mismatched gasPriceBalancingCounterweight hash\");\n        require(v >= 100 && v <= 10 * 86400, \"Invalid gasPriceBalancingCounterweight range\");\n        consts.updateGasPriceBalancingCounterweight(v);\n        lastUsedGasPriceBalancingCounterweightHash = 0;\n    }\n    // Step 1 for setSFCtConstsAddress\n    function setSFCtConstsAddressStepOne(\n        bytes32[2][256] calldata currentpub,\n        bytes[256] calldata sig,\n        bytes32 nextPKH,\n        address _constsAddress\n    )\n        public\n\n    {\n        require(\n            lamportBase.performLamportMasterCheck(currentpub, sig, nextPKH, abi.encodePacked(_constsAddress)),\n            \"Master check failed\"\n        );\n        lastUsedSFCtConstsAddress = _constsAddress;\n    }\n\n    // Step 2 for setSFCtConstsAddress\n    function setSFCtConstsAddressStepTwo(\n        bytes32[2][256] calldata currentpub,\n        bytes[256] calldata sig,\n        bytes32 nextPKH,\n        address _constsAddress\n    )\n        public\n    {\n        require(\n            lamportBase.performLamportMasterCheck(currentpub, sig, nextPKH, abi.encodePacked(_constsAddress)),\n            \"Master check failed\"\n        );\n        require(lastUsedSFCtConstsAddress == _constsAddress, \"Mismatched SFCtConsts address between step one and two\");\n        consts = IConsts(_constsAddress);\n        lastUsedSFCtConstsAddress = address(0);\n        emit SFCConstsAddressSet2(_constsAddress);\n\n    }\n    function constsAddress() external view returns (address) {\n        return consts.constsAddress();\n    }\n}\n\n",
  "sourcePath": "contracts/SFC-quantum-hardening-2.sol",
  "type": "contract"
}