{
  "abi": [
    {
      "anonymous": false,
      "inputs": [
        {
          "components": [
            {
              "internalType": "address",
              "name": "addr",
              "type": "address"
            },
            {
              "internalType": "bytes32",
              "name": "value",
              "type": "bytes32"
            }
          ],
          "indexed": false,
          "internalType": "struct LamportTest2.AddressValuePair[]",
          "name": "pairs",
          "type": "tuple[]"
        }
      ],
      "name": "AddressValuePairsBroadcasted",
      "type": "event"
    },
    {
      "anonymous": false,
      "inputs": [
        {
          "indexed": false,
          "internalType": "bytes",
          "name": "encodedPairs",
          "type": "bytes"
        }
      ],
      "name": "EncodedPairs",
      "type": "event"
    },
    {
      "anonymous": false,
      "inputs": [
        {
          "indexed": false,
          "internalType": "enum LamportBase.KeyType",
          "name": "keyType",
          "type": "uint8"
        },
        {
          "indexed": false,
          "internalType": "bytes32",
          "name": "newPKH",
          "type": "bytes32"
        }
      ],
      "name": "KeyAdded",
      "type": "event"
    },
    {
      "anonymous": false,
      "inputs": [
        {
          "indexed": false,
          "internalType": "enum LamportBase.KeyType",
          "name": "originalKeyType",
          "type": "uint8"
        },
        {
          "indexed": false,
          "internalType": "bytes32",
          "name": "originalPKH",
          "type": "bytes32"
        },
        {
          "indexed": false,
          "internalType": "bytes32",
          "name": "modifiedPKH",
          "type": "bytes32"
        },
        {
          "indexed": false,
          "internalType": "enum LamportBase.KeyType",
          "name": "newKeyType",
          "type": "uint8"
        }
      ],
      "name": "KeyModified",
      "type": "event"
    },
    {
      "anonymous": false,
      "inputs": [
        {
          "indexed": false,
          "internalType": "uint256",
          "name": "hash",
          "type": "uint256"
        }
      ],
      "name": "LogLastCalculatedHash",
      "type": "event"
    },
    {
      "anonymous": false,
      "inputs": [
        {
          "indexed": false,
          "internalType": "string",
          "name": "message",
          "type": "string"
        }
      ],
      "name": "Message",
      "type": "event"
    },
    {
      "anonymous": false,
      "inputs": [
        {
          "indexed": false,
          "internalType": "string",
          "name": "message",
          "type": "string"
        },
        {
          "indexed": false,
          "internalType": "uint256",
          "name": "number",
          "type": "uint256"
        }
      ],
      "name": "MessageWithNumber",
      "type": "event"
    },
    {
      "anonymous": false,
      "inputs": [
        {
          "indexed": false,
          "internalType": "string",
          "name": "message",
          "type": "string"
        },
        {
          "indexed": false,
          "internalType": "uint256",
          "name": "number",
          "type": "uint256"
        },
        {
          "indexed": false,
          "internalType": "address",
          "name": "addr",
          "type": "address"
        }
      ],
      "name": "MessageWithNumberAndAddress",
      "type": "event"
    },
    {
      "anonymous": false,
      "inputs": [
        {
          "indexed": false,
          "internalType": "enum LamportBase.KeyType",
          "name": "keyType",
          "type": "uint8"
        },
        {
          "indexed": false,
          "internalType": "bytes32",
          "name": "previousPKH",
          "type": "bytes32"
        },
        {
          "indexed": false,
          "internalType": "bytes32",
          "name": "newPKH",
          "type": "bytes32"
        }
      ],
      "name": "PkhUpdated",
      "type": "event"
    },
    {
      "anonymous": false,
      "inputs": [
        {
          "indexed": false,
          "internalType": "uint256",
          "name": "hashedData",
          "type": "uint256"
        }
      ],
      "name": "VerificationFailed",
      "type": "event"
    },
    {
      "inputs": [
        {
          "internalType": "string",
          "name": "messageToBroadcast",
          "type": "string"
        },
        {
          "internalType": "uint256",
          "name": "numberToBroadcast",
          "type": "uint256"
        },
        {
          "internalType": "address",
          "name": "addrToBroadcast",
          "type": "address"
        },
        {
          "internalType": "bytes32[2][256]",
          "name": "currentpub",
          "type": "bytes32[2][256]"
        },
        {
          "internalType": "bytes32",
          "name": "nextPKH",
          "type": "bytes32"
        },
        {
          "internalType": "bytes[256]",
          "name": "sig",
          "type": "bytes[256]"
        }
      ],
      "name": "broadcastWithNumberAndAddress",
      "outputs": [],
      "stateMutability": "nonpayable",
      "type": "function"
    },
    {
      "inputs": [
        {
          "internalType": "string",
          "name": "messageToBroadcast",
          "type": "string"
        },
        {
          "internalType": "uint256",
          "name": "numberToBroadcast",
          "type": "uint256"
        },
        {
          "internalType": "bytes32[2][256]",
          "name": "currentpub",
          "type": "bytes32[2][256]"
        },
        {
          "internalType": "bytes32",
          "name": "nextPKH",
          "type": "bytes32"
        },
        {
          "internalType": "bytes[256]",
          "name": "sig",
          "type": "bytes[256]"
        }
      ],
      "name": "broadcastnextpkhdcastWithNumber",
      "outputs": [],
      "stateMutability": "nonpayable",
      "type": "function"
    },
    {
      "inputs": [
        {
          "internalType": "bytes32[2][10]",
          "name": "pairs",
          "type": "bytes32[2][10]"
        },
        {
          "internalType": "bytes32[2][256]",
          "name": "currentpub",
          "type": "bytes32[2][256]"
        },
        {
          "internalType": "bytes32",
          "name": "nextPKH",
          "type": "bytes32"
        },
        {
          "internalType": "bytes[256]",
          "name": "sig",
          "type": "bytes[256]"
        }
      ],
      "name": "contractCallTest",
      "outputs": [],
      "stateMutability": "nonpayable",
      "type": "function"
    },
    {
      "inputs": [
        {
          "internalType": "bytes32[2][10]",
          "name": "pairs",
          "type": "bytes32[2][10]"
        },
        {
          "internalType": "bytes32[2][256]",
          "name": "currentpub",
          "type": "bytes32[2][256]"
        },
        {
          "internalType": "string",
          "name": "messageToBroadcast",
          "type": "string"
        },
        {
          "internalType": "uint256",
          "name": "numberToBroadcast",
          "type": "uint256"
        },
        {
          "internalType": "address",
          "name": "addrToBroadcast",
          "type": "address"
        },
        {
          "internalType": "bytes[256]",
          "name": "sig",
          "type": "bytes[256]"
        },
        {
          "internalType": "bytes32",
          "name": "nextPKH",
          "type": "bytes32"
        }
      ],
      "name": "contractCallTest2",
      "outputs": [],
      "stateMutability": "nonpayable",
      "type": "function"
    },
    {
      "inputs": [
        {
          "internalType": "bytes32[2][256]",
          "name": "currentpub",
          "type": "bytes32[2][256]"
        },
        {
          "internalType": "bytes[256]",
          "name": "sig",
          "type": "bytes[256]"
        },
        {
          "internalType": "bytes32",
          "name": "nextPKH",
          "type": "bytes32"
        },
        {
          "internalType": "bytes",
          "name": "newmasterPKH",
          "type": "bytes"
        }
      ],
      "name": "createMasterKeyStepOne",
      "outputs": [],
      "stateMutability": "nonpayable",
      "type": "function"
    },
    {
      "inputs": [
        {
          "internalType": "bytes32[2][256]",
          "name": "currentpub",
          "type": "bytes32[2][256]"
        },
        {
          "internalType": "bytes[256]",
          "name": "sig",
          "type": "bytes[256]"
        },
        {
          "internalType": "bytes32",
          "name": "nextPKH",
          "type": "bytes32"
        },
        {
          "internalType": "bytes32",
          "name": "newmasterPKH",
          "type": "bytes32"
        }
      ],
      "name": "createMasterKeyStepTwo",
      "outputs": [],
      "stateMutability": "nonpayable",
      "type": "function"
    },
    {
      "inputs": [
        {
          "internalType": "bytes32[2][256]",
          "name": "currentpub",
          "type": "bytes32[2][256]"
        },
        {
          "internalType": "bytes32",
          "name": "nextPKH",
          "type": "bytes32"
        },
        {
          "internalType": "bytes[256]",
          "name": "sig",
          "type": "bytes[256]"
        },
        {
          "internalType": "bytes32",
          "name": "neworaclePKH",
          "type": "bytes32"
        }
      ],
      "name": "createOracleKeyFromMaster",
      "outputs": [],
      "stateMutability": "nonpayable",
      "type": "function"
    },
    {
      "inputs": [
        {
          "internalType": "bytes32[2][256]",
          "name": "currentpub",
          "type": "bytes32[2][256]"
        },
        {
          "internalType": "bytes[256]",
          "name": "sig",
          "type": "bytes[256]"
        },
        {
          "internalType": "bytes32",
          "name": "nextPKH",
          "type": "bytes32"
        },
        {
          "internalType": "bytes32",
          "name": "deleteKeyHash",
          "type": "bytes32"
        }
      ],
      "name": "deleteKeyStepOne",
      "outputs": [],
      "stateMutability": "nonpayable",
      "type": "function"
    },
    {
      "inputs": [
        {
          "internalType": "bytes32[2][256]",
          "name": "currentpub",
          "type": "bytes32[2][256]"
        },
        {
          "internalType": "bytes[256]",
          "name": "sig",
          "type": "bytes[256]"
        },
        {
          "internalType": "bytes32",
          "name": "nextPKH",
          "type": "bytes32"
        },
        {
          "internalType": "bytes32",
          "name": "confirmDeleteKeyHash",
          "type": "bytes32"
        }
      ],
      "name": "deleteKeyStepTwo",
      "outputs": [],
      "stateMutability": "nonpayable",
      "type": "function"
    },
    {
      "inputs": [
        {
          "internalType": "bytes32[2][10]",
          "name": "pairs",
          "type": "bytes32[2][10]"
        },
        {
          "internalType": "bytes32[2][256]",
          "name": "currentpub",
          "type": "bytes32[2][256]"
        },
        {
          "internalType": "string",
          "name": "messageToBroadcast",
          "type": "string"
        },
        {
          "internalType": "uint256",
          "name": "numberToBroadcast",
          "type": "uint256"
        },
        {
          "internalType": "address",
          "name": "addrToBroadcast",
          "type": "address"
        },
        {
          "internalType": "bytes32",
          "name": "nextPKH",
          "type": "bytes32"
        }
      ],
      "name": "getEncodedPairs",
      "outputs": [],
      "stateMutability": "nonpayable",
      "type": "function"
    },
    {
      "inputs": [
        {
          "internalType": "bytes32",
          "name": "pkh",
          "type": "bytes32"
        }
      ],
      "name": "getKeyAndPosByPKH",
      "outputs": [
        {
          "internalType": "enum LamportBase.KeyType",
          "name": "",
          "type": "uint8"
        },
        {
          "internalType": "bytes32",
          "name": "",
          "type": "bytes32"
        },
        {
          "internalType": "uint256",
          "name": "",
          "type": "uint256"
        }
      ],
      "stateMutability": "view",
      "type": "function"
    },
    {
      "inputs": [
        {
          "internalType": "enum LamportBase.KeyType",
          "name": "privilege",
          "type": "uint8"
        }
      ],
      "name": "getPKHsByPrivilege",
      "outputs": [
        {
          "internalType": "bytes32[]",
          "name": "",
          "type": "bytes32[]"
        }
      ],
      "stateMutability": "view",
      "type": "function"
    },
    {
      "inputs": [
        {
          "internalType": "bytes32",
          "name": "masterPKH1",
          "type": "bytes32"
        },
        {
          "internalType": "bytes32",
          "name": "masterPKH2",
          "type": "bytes32"
        },
        {
          "internalType": "bytes32",
          "name": "oraclePKH",
          "type": "bytes32"
        }
      ],
      "name": "init",
      "outputs": [],
      "stateMutability": "nonpayable",
      "type": "function"
    },
    {
      "inputs": [
        {
          "internalType": "bytes32",
          "name": "",
          "type": "bytes32"
        }
      ],
      "name": "keyData",
      "outputs": [
        {
          "internalType": "enum LamportBase.KeyType",
          "name": "keyType",
          "type": "uint8"
        },
        {
          "internalType": "bytes32",
          "name": "pkh",
          "type": "bytes32"
        }
      ],
      "stateMutability": "view",
      "type": "function"
    },
    {
      "inputs": [
        {
          "internalType": "uint256",
          "name": "",
          "type": "uint256"
        }
      ],
      "name": "keys",
      "outputs": [
        {
          "internalType": "enum LamportBase.KeyType",
          "name": "keyType",
          "type": "uint8"
        },
        {
          "internalType": "bytes32",
          "name": "pkh",
          "type": "bytes32"
        }
      ],
      "stateMutability": "view",
      "type": "function"
    },
    {
      "inputs": [],
      "name": "lastUsedNextPKH",
      "outputs": [
        {
          "internalType": "bytes32",
          "name": "",
          "type": "bytes32"
        }
      ],
      "stateMutability": "view",
      "type": "function"
    },
    {
      "inputs": [],
      "name": "lastVerificationResult",
      "outputs": [
        {
          "internalType": "bool",
          "name": "",
          "type": "bool"
        }
      ],
      "stateMutability": "view",
      "type": "function"
    },
    {
      "inputs": [
        {
          "internalType": "uint256",
          "name": "",
          "type": "uint256"
        }
      ],
      "name": "pairsArray",
      "outputs": [
        {
          "internalType": "address",
          "name": "addr",
          "type": "address"
        },
        {
          "internalType": "bytes32",
          "name": "value",
          "type": "bytes32"
        }
      ],
      "stateMutability": "view",
      "type": "function"
    },
    {
      "inputs": [
        {
          "internalType": "bytes32[2][256]",
          "name": "currentpub",
          "type": "bytes32[2][256]"
        },
        {
          "internalType": "bytes[256]",
          "name": "sig",
          "type": "bytes[256]"
        },
        {
          "internalType": "bytes32",
          "name": "nextPKH",
          "type": "bytes32"
        },
        {
          "internalType": "bytes",
          "name": "prepacked",
          "type": "bytes"
        }
      ],
      "name": "performLamportMasterCheck",
      "outputs": [
        {
          "internalType": "bool",
          "name": "",
          "type": "bool"
        }
      ],
      "stateMutability": "nonpayable",
      "type": "function"
    },
    {
      "inputs": [
        {
          "internalType": "bytes32[2][256]",
          "name": "currentpub",
          "type": "bytes32[2][256]"
        },
        {
          "internalType": "bytes[256]",
          "name": "sig",
          "type": "bytes[256]"
        },
        {
          "internalType": "bytes32",
          "name": "nextPKH",
          "type": "bytes32"
        },
        {
          "internalType": "bytes",
          "name": "prepacked",
          "type": "bytes"
        }
      ],
      "name": "performLamportOracleCheck",
      "outputs": [
        {
          "internalType": "bool",
          "name": "",
          "type": "bool"
        }
      ],
      "stateMutability": "nonpayable",
      "type": "function"
    },
    {
      "inputs": [
        {
          "internalType": "uint256",
          "name": "bits",
          "type": "uint256"
        },
        {
          "internalType": "bytes[256]",
          "name": "sig",
          "type": "bytes[256]"
        },
        {
          "internalType": "bytes32[2][256]",
          "name": "pub",
          "type": "bytes32[2][256]"
        }
      ],
      "name": "verify_u256",
      "outputs": [
        {
          "internalType": "bool",
          "name": "",
          "type": "bool"
        }
      ],
      "stateMutability": "pure",
      "type": "function"
    }
  ],
  "bytecode": "60806040526000805460ff1916905534801561001a57600080fd5b50612c6e8061002a6000396000f3fe608060405234801561001057600080fd5b50600436106101375760003560e01c806381867b00116100b8578063b97b4f771161007c578063b97b4f77146102cd578063d77c8bfb146102ed578063d83c413c14610300578063ddc1008514610313578063e673d71f14610326578063ecf017ac1461033957600080fd5b806381867b00146102545780638eb8f1a6146102675780639c90c17f1461027a578063a9711ee31461028d578063af82f3e7146102ba57600080fd5b80634a89d52b116100ff5780634a89d52b146101d25780634bdd4499146101e55780634e657d2a146101fc5780635796841a1461020f5780637ff8bb3a1461022257600080fd5b806305aacc7d1461013c5780630b0ad508146101675780630cb6aaf11461017c5780632fd5c2471461019d578063333f6111146101bf575b600080fd5b61014f61014a36600461216a565b61034c565b60405161015e939291906121bb565b60405180910390f35b61017a6101753660046121da565b610453565b005b61018f61018a36600461216a565b6104d9565b60405161015e929190612206565b6000546101af90610100900460ff1681565b604051901515815260200161015e565b6101af6101cd3660046122d6565b61050b565b6101af6101e03660046122d6565b6105fc565b6101ee60055481565b60405190815260200161015e565b61017a61020a3660046122d6565b610653565b61017a61021d36600461236c565b6107f4565b61023561023036600461216a565b610a53565b604080516001600160a01b03909316835260208301919091520161015e565b61017a6102623660046123e0565b610a8b565b61017a610275366004612441565b610d0c565b61017a6102883660046124e0565b610eb5565b61018f61029b36600461216a565b6002602052600090815260409020805460019091015460ff9091169082565b6101af6102c8366004612591565b6110db565b6102e06102db3660046125e9565b611190565b60405161015e919061260a565b61017a6102fb36600461264e565b61133e565b61017a61030e36600461236c565b611546565b61017a6103213660046126e8565b6116ee565b61017a61033436600461236c565b611777565b61017a610347366004612770565b611cac565b60008181526002602081905260408083208151808301909252805484938493849390929091839160ff169081111561038657610386612183565b600281111561039757610397612183565b8152600191909101546020918201528101519091506000036103d45760405162461bcd60e51b81526004016103cb906127fb565b60405180910390fd5b60005b6001548110156104335785600182815481106103f5576103f5612832565b90600052602060002090600202016001015403610421578151602090920151919450909250905061044c565b8061042b81612848565b9150506103d7565b5060405162461bcd60e51b81526004016103cb906127fb565b9193909250565b60005460ff16156104a65760405162461bcd60e51b815260206004820181905260248201527f4c616d706f7274426173653a20416c726561647920696e697469616c697a656460448201526064016103cb565b6104b1600084611eaf565b6104bc600083611eaf565b6104c7600182611eaf565b50506000805460ff1916600117905550565b600181815481106104e957600080fd5b60009182526020909120600290910201805460019091015460ff909116915082565b6000805460ff1661052e5760405162461bcd60e51b81526004016103cb9061286f565b60008560405160200161054191906128a6565b60408051601f198184030181529190528051602090910120905060005b60008281526002602081905260409091205460ff169081111561058357610583612183565b146105925760009150506105f4565b600083856040516020016105a7929190612901565b6040516020818303038152906040528051906020012060001c905060006105cf82888a6110db565b9050806105e257600093505050506105f4565b6105ec8387611fc8565b600193505050505b949350505050565b6000805460ff1661061f5760405162461bcd60e51b81526004016103cb9061286f565b60008560405160200161063291906128a6565b60408051601f1981840301815291905280516020909101209050600161055e565b600054849084908490849060ff1661067d5760405162461bcd60e51b81526004016103cb9061286f565b60008460405160200161069091906128a6565b60408051601f19818403018152919052805160209091012090506000808281526002602081905260409091205460ff16908111156106d0576106d0612183565b146106ed5760405162461bcd60e51b81526004016103cb90612923565b60008284604051602001610702929190612901565b60408051601f198184030181529082905280516020918201208083529250600080516020612bf9833981519152910160405180910390a160006107468287896110db565b6000805461ff0019166101008315150217905590508061079a57604051828152600080516020612bd9833981519152906020015b60405180910390a160405162461bcd60e51b81526004016103cb9061295a565b60008381526002602052604090819020549051600080516020612c19833981519152916107d09160ff90911690869089906121bb565b60405180910390a16107e28386611fc8565b50505060059590955550505050505050565b8383838360405160200161080a91815260200190565b60408051601f1981840301815291905260005460ff1661083c5760405162461bcd60e51b81526004016103cb9061286f565b60008460405160200161084f91906128a6565b60408051601f19818403018152919052805160209091012090506000808281526002602081905260409091205460ff169081111561088f5761088f612183565b146108ac5760405162461bcd60e51b81526004016103cb90612923565b600082846040516020016108c1929190612901565b60408051601f198184030181529082905280516020918201208083529250600080516020612bf9833981519152910160405180910390a160006109058287896110db565b6000805461ff0019166101008315150217905590508061093d57604051828152600080516020612bd98339815191529060200161077a565b60008381526002602052604090819020549051600080516020612c19833981519152916109739160ff90911690869089906121bb565b60405180910390a16109858386611fc8565b60008b60405160200161099891906128a6565b60408051601f19818403018152919052805160209091012060058054600090915590915081141580610a34576040805162461bcd60e51b81526020600482015260248101919091527f4c616d706f7274426173653a20504b48206d617463686573206c61737420757360448201527f656420504b482028757365207365706172617465207365636f6e64206b65792960648201526084016103cb565b610a3f60008b611eaf565b505060006005555050505050505050505050565b60068181548110610a6357600080fd5b6000918252602090912060029091020180546001909101546001600160a01b03909116915082565b82818386604051602001610a9f91906129b9565b60408051601f1981840301815291905260005460ff16610ad15760405162461bcd60e51b81526004016103cb9061286f565b600084604051602001610ae491906128a6565b60408051601f19818403018152919052805160209091012090506000808281526002602081905260409091205460ff1690811115610b2457610b24612183565b14610b415760405162461bcd60e51b81526004016103cb90612923565b60008284604051602001610b56929190612901565b60408051601f198184030181529082905280516020918201208083529250600080516020612bf9833981519152910160405180910390a16000610b9a8287896110db565b6000805461ff00191661010083151502179055905080610bd257604051828152600080516020612bd98339815191529060200161077a565b60008381526002602052604090819020549051600080516020612c1983398151915291610c089160ff90911690869089906121bb565b60405180910390a1610c1a8386611fc8565b60005b600a811015610cc657600660405180604001604052808e84600a8110610c4557610c45612832565b604002013560601c81526020018e84600a8110610c6457610c64612832565b60400201600160209081029190910135909152825460018082018555600094855293829020835160029092020180546001600160a01b0319166001600160a01b0390921691909117815591015191015580610cbe81612848565b915050610c1d565b507fe97438c7690599fae9afa6ab3ffd17f5a6bdf6de48e8645c7d35a0b1e6479fba6006604051610cf791906129cc565b60405180910390a15050505050505050505050565b83828483604051602001610d2291815260200190565b60408051601f1981840301815291905260005460ff16610d545760405162461bcd60e51b81526004016103cb9061286f565b600084604051602001610d6791906128a6565b60408051601f19818403018152919052805160209091012090506000808281526002602081905260409091205460ff1690811115610da757610da7612183565b14610dc45760405162461bcd60e51b81526004016103cb90612923565b60008284604051602001610dd9929190612901565b60408051601f198184030181529082905280516020918201208083529250600080516020612bf9833981519152910160405180910390a16000610e1d8287896110db565b6000805461ff00191661010083151502179055905080610e5557604051828152600080516020612bd98339815191529060200161077a565b60008381526002602052604090819020549051600080516020612c1983398151915291610e8b9160ff90911690869089906121bb565b60405180910390a1610e9d8386611fc8565b610ea8600189611eaf565b5050505050505050505050565b85828289888888604051602001610ecf9493929190612a2c565b60408051601f1981840301815291905260005460ff16610f015760405162461bcd60e51b81526004016103cb9061286f565b600084604051602001610f1491906128a6565b60408051601f19818403018152919052805160209091012090506000808281526002602081905260409091205460ff1690811115610f5457610f54612183565b14610f715760405162461bcd60e51b81526004016103cb90612923565b60008284604051602001610f86929190612901565b60408051601f198184030181529082905280516020918201208083529250600080516020612bf9833981519152910160405180910390a16000610fca8287896110db565b6000805461ff0019166101008315150217905590508061100257604051828152600080516020612bd98339815191529060200161077a565b60008381526002602052604090819020549051600080516020612c19833981519152916110389160ff90911690869089906121bb565b60405180910390a161104a8386611fc8565b60008e8d8d8d6040516020016110639493929190612a2c565b60405160208183030381529060405290507f0439e3ce2fb9a6bc9b02eca4ed3a05602d64d28b25644d289d8adde65c3a5df3818a6040516020016110a8929190612901565b60408051601f19818403018152908290526110c291612aaa565b60405180910390a1505050505050505050505050505050565b6000805b61010081101561118357838161010081106110fc576110fc612832565b60200281019061110c9190612abd565b60405161111a929190612b0a565b60405180910390208382610100811061113557611135612832565b6040020160008360ff036001901b881611611151576000611154565b60015b60ff166002811061116757611167612832565b60200201351461117b576000915050611189565b6001016110df565b50600190505b9392505050565b6001546060906000906001600160401b038111156111b0576111b061224b565b6040519080825280602002602001820160405280156111d9578160200160208202803683370190505b5090506000805b60015481101561129a578460028111156111fc576111fc612183565b6001828154811061120f5761120f612832565b600091825260209091206002918202015460ff169081111561123357611233612183565b03611288576001818154811061124b5761124b612832565b90600052602060002090600202016001015483838151811061126f5761126f612832565b60209081029190910101528161128481612848565b9250505b8061129281612848565b9150506111e0565b506000816001600160401b038111156112b5576112b561224b565b6040519080825280602002602001820160405280156112de578160200160208202803683370190505b50905060005b82811015611335578381815181106112fe576112fe612832565b602002602001015182828151811061131857611318612832565b60209081029190910101528061132d81612848565b9150506112e4565b50949350505050565b82818388888860405160200161135693929190612b1a565b60408051601f1981840301815291905260005460ff166113885760405162461bcd60e51b81526004016103cb9061286f565b60008460405160200161139b91906128a6565b60408051601f1981840301815291905280516020909101209050600160008281526002602081905260409091205460ff16908111156113dc576113dc612183565b146114295760405162461bcd60e51b815260206004820152601e60248201527f4c616d706f7274426173653a204e6f7420616e206f7261636c65206b6579000060448201526064016103cb565b6000828460405160200161143e929190612901565b60408051601f198184030181529082905280516020918201208083529250600080516020612bf9833981519152910160405180910390a160006114828287896110db565b6000805461ff001916610100831515021790559050806114b45760405162461bcd60e51b81526004016103cb9061295a565b60008381526002602052604090819020549051600080516020612c19833981519152916114ea9160ff90911690869089906121bb565b60405180910390a16114fc8386611fc8565b7f5bee3a20ea3a72a82e77a882003ff7dcf3ee864289922c283ac5091afc700ab48d8d8d60405161152f93929190612b53565b60405180910390a150505050505050505050505050565b8383838360405160200161155c91815260200190565b60408051601f1981840301815291905260005460ff1661158e5760405162461bcd60e51b81526004016103cb9061286f565b6000846040516020016115a191906128a6565b60408051601f19818403018152919052805160209091012090506000808281526002602081905260409091205460ff16908111156115e1576115e1612183565b146115fe5760405162461bcd60e51b81526004016103cb90612923565b60008284604051602001611613929190612901565b60408051601f198184030181529082905280516020918201208083529250600080516020612bf9833981519152910160405180910390a160006116578287896110db565b6000805461ff0019166101008315150217905590508061168f57604051828152600080516020612bd98339815191529060200161077a565b60008381526002602052604090819020549051600080516020612c19833981519152916116c59160ff90911690869089906121bb565b60405180910390a16116d78386611fc8565b505050600394909455505050600491909155505050565b6000868585856040516020016117079493929190612a2c565b60405160208183030381529060405290507f0439e3ce2fb9a6bc9b02eca4ed3a05602d64d28b25644d289d8adde65c3a5df3818360405160200161174c929190612901565b60408051601f198184030181529082905261176691612aaa565b60405180910390a150505050505050565b8383838360405160200161178d91815260200190565b60408051601f1981840301815291905260005460ff166117bf5760405162461bcd60e51b81526004016103cb9061286f565b6000846040516020016117d291906128a6565b60408051601f19818403018152919052805160209091012090506000808281526002602081905260409091205460ff169081111561181257611812612183565b1461182f5760405162461bcd60e51b81526004016103cb90612923565b60008284604051602001611844929190612901565b60408051601f198184030181529082905280516020918201208083529250600080516020612bf9833981519152910160405180910390a160006118888287896110db565b6000805461ff001916610100831515021790559050806118c057604051828152600080516020612bd98339815191529060200161077a565b60008381526002602052604090819020549051600080516020612c19833981519152916118f69160ff90911690869089906121bb565b60405180910390a16119088386611fc8565b60008b60405160200161191b91906128a6565b60405160208183030381529060405280519060200120905060045481036119b45760405162461bcd60e51b815260206004820152604160248201527f4c616d706f7274426173653a2043616e6e6f7420757365207468652073616d6560448201527f206b6579636861696e20747769636520666f7220746869732066756e6374696f6064820152603760f91b608482015260a4016103cb565b8860035414611a055760405162461bcd60e51b815260206004820152601e60248201527f4c616d706f7274426173653a204b65797320646f206e6f74206d61746368000060448201526064016103cb565b600454818a6000808481526002602081905260409091205460ff1690811115611a3057611a30612183565b148015611a5e5750600082815260026020819052604082205460ff1690811115611a5c57611a5c612183565b145b611ac15760405162461bcd60e51b815260206004820152602e60248201527f4c616d706f7274426173653a2050726f7669646564206b65797320617265206e60448201526d6f74206d6173746572206b65797360901b60648201526084016103cb565b828114158015611ad15750818114155b611b375760405162461bcd60e51b815260206004820152603160248201527f4c616d706f7274426173653a204d6173746572206b6579732063616e6e6f742060448201527064656c657465207468656d73656c76657360781b60648201526084016103cb565b6000818152600260205260408120600101549003611ba35760405162461bcd60e51b815260206004820152602360248201527f4c616d706f7274426173653a204e6f2073756368206b6579202864656c6574696044820152626f6e2960e81b60648201526084016103cb565b60005b600154811015611c90578160018281548110611bc457611bc4612832565b90600052602060002090600202016001015403611c7e57600082815260026020818152604080842080548251428186015244818501528351808203850181526060909101938490528051908501209588905292849052630de1e7ed60e41b85186001820181905560ff198416851790915560ff9092169391927f0643be3612916977c69d5ed1abb75a50cca49df49ba2444d836e2a0cf65fe07491611c6e91869189918791612b86565b60405180910390a1505050611c90565b80611c8881612848565b915050611ba6565b5050600060038190556004555050505050505050505050505050565b8281838787604051602001611cc2929190612901565b60408051601f1981840301815291905260005460ff16611cf45760405162461bcd60e51b81526004016103cb9061286f565b600084604051602001611d0791906128a6565b60408051601f1981840301815291905280516020909101209050600160008281526002602081905260409091205460ff1690811115611d4857611d48612183565b14611d955760405162461bcd60e51b815260206004820152601e60248201527f4c616d706f7274426173653a204e6f7420616e206f7261636c65206b6579000060448201526064016103cb565b60008284604051602001611daa929190612901565b60408051601f198184030181529082905280516020918201208083529250600080516020612bf9833981519152910160405180910390a16000611dee8287896110db565b6000805461ff00191661010083151502179055905080611e205760405162461bcd60e51b81526004016103cb9061295a565b60008381526002602052604090819020549051600080516020612c1983398151915291611e569160ff90911690869089906121bb565b60405180910390a1611e688386611fc8565b7f2f8bb53cd3bd0ad7f1e40674103a8a9352db4ff07b7505286d242c543ba70ccc8c8c604051611e99929190612bb6565b60405180910390a1505050505050505050505050565b60006040518060400160405280846002811115611ece57611ece612183565b81526020018390526001805480820182556000829052825160029182027fb10e2d527612073b26eecdfd717e6a320cf44b4afac2b0732d9fcbe2b7fa0cf6018054949550859490939192849260ff1990921691908490811115611f3357611f33612183565b021790555060209182015160019182015560008481526002928390526040902083518154859492939192849260ff1990921691908490811115611f7857611f78612183565b0217905550602082015181600101559050507f2172c7b01a6de957d29fd6166a23025d181bf56538ad606a526ab2d62603f3fc8383604051611fbb929190612206565b60405180910390a1505050565b6000828152600260205260408120600101549003611ff85760405162461bcd60e51b81526004016103cb906127fb565b604080518082018252600084815260026020819052928120549092829160ff169081111561202857612028612183565b8152602001838152509050806002600084815260200190815260200160002060008201518160000160006101000a81548160ff0219169083600281111561207157612071612183565b02179055506020918201516001918201556000858152600290925260408220805460ff19168155018190555b6001548110156121475783600182815481106120bb576120bb612832565b906000526020600020906002020160010154036121355781600182815481106120e6576120e6612832565b906000526020600020906002020160008201518160000160006101000a81548160ff0219169083600281111561211e5761211e612183565b021790555060208201518160010155905050612147565b8061213f81612848565b91505061209d565b508051604051600080516020612c1983398151915291611fbb91869086906121bb565b60006020828403121561217c57600080fd5b5035919050565b634e487b7160e01b600052602160045260246000fd5b600381106121b757634e487b7160e01b600052602160045260246000fd5b9052565b606081016121c98286612199565b602082019390935260400152919050565b6000806000606084860312156121ef57600080fd5b505081359360208301359350604090920135919050565b604081016122148285612199565b8260208301529392505050565b80614000810183101561223357600080fd5b92915050565b80612000810183101561223357600080fd5b634e487b7160e01b600052604160045260246000fd5b60006001600160401b038084111561227b5761227b61224b565b604051601f8501601f19908116603f011681019082821181831017156122a3576122a361224b565b816040528093508581528686860111156122bc57600080fd5b858560208301376000602087830101525050509392505050565b60008060008061406085870312156122ed57600080fd5b6122f78686612221565b93506140008501356001600160401b038082111561231457600080fd5b61232088838901612239565b9450614020870135935061404087013591508082111561233f57600080fd5b508501601f8101871361235157600080fd5b61236087823560208401612261565b91505092959194509250565b600080600080614060858703121561238357600080fd5b61238d8686612221565b93506140008501356001600160401b038111156123a957600080fd5b6123b587828801612239565b9497949650505050614020830135926140400135919050565b80610280810183101561223357600080fd5b6000806000806142c085870312156123f757600080fd5b61240186866123ce565b9350612411866102808701612221565b925061428085013591506142a08501356001600160401b0381111561243557600080fd5b61236087828801612239565b600080600080614060858703121561245857600080fd5b6124628686612221565b935061400085013592506140208501356001600160401b0381111561248657600080fd5b61249287828801612239565b94979396509394614040013593505050565b600082601f8301126124b557600080fd5b61118983833560208501612261565b80356001600160a01b03811681146124db57600080fd5b919050565b6000806000806000806000614320888a0312156124fc57600080fd5b61250689896123ce565b9650612516896102808a01612221565b95506142808801356001600160401b038082111561253357600080fd5b61253f8b838c016124a4565b96506142a08a013595506125566142c08b016124c4565b94506142e08a013591508082111561256d57600080fd5b5061257a8a828b01612239565b925050614300880135905092959891949750929550565b600080600061404084860312156125a757600080fd5b8335925060208401356001600160401b038111156125c457600080fd5b6125d086828701612239565b9250506125e08560408601612221565b90509250925092565b6000602082840312156125fb57600080fd5b81356003811061118957600080fd5b6020808252825182820181905260009190848201906040850190845b8181101561264257835183529284019291840191600101612626565b50909695505050505050565b6000806000806000806140a0878903121561266857600080fd5b86356001600160401b038082111561267f57600080fd5b61268b8a838b016124a4565b9750602089013596506126a060408a016124c4565b95506126af8a60608b01612221565b945061406089013593506140808901359150808211156126ce57600080fd5b506126db89828a01612239565b9150509295509295509295565b600080600080600080614300878903121561270257600080fd5b61270c88886123ce565b955061271c886102808901612221565b94506142808701356001600160401b0381111561273857600080fd5b61274489828a016124a4565b9450506142a0870135925061275c6142c088016124c4565b91506142e087013590509295509295509295565b6000806000806000614080868803121561278957600080fd5b85356001600160401b03808211156127a057600080fd5b6127ac89838a016124a4565b9650602088013595506127c28960408a01612221565b945061404088013593506140608801359150808211156127e157600080fd5b506127ee88828901612239565b9150509295509295909350565b60208082526018908201527f4c616d706f7274426173653a204e6f2073756368206b65790000000000000000604082015260600190565b634e487b7160e01b600052603260045260246000fd5b60006001820161286857634e487b7160e01b600052601160045260246000fd5b5060010190565b6020808252601c908201527f4c616d706f7274426173653a206e6f7420696e697469616c697a656400000000604082015260600190565b60008183825b6101008110156128cd576040808385379283019291909101906001016128ac565b5050506140008201905092915050565b60005b838110156128f85781810151838201526020016128e0565b50506000910152565b600083516129138184602088016128dd565b9190910191825250602001919050565b6020808252601d908201527f4c616d706f7274426173653a204e6f742061206d6173746572206b6579000000604082015260600190565b6020808252818101527f4c616d706f7274426173653a20566572696669636174696f6e206661696c6564604082015260600190565b8060005b600a8110156129b357604080838637938401939190910190600101612993565b50505050565b6129c3818361298f565b61028001919050565b60006020808301818452808554808352604092508286019150866000528360002060005b82811015612a1f5781546001600160a01b031684526001828101548786015293850193600290920191016129f0565b5091979650505050505050565b612a36818661298f565b60006102808551612a4d8183860160208a016128dd565b929092019182019390935260609190911b6bffffffffffffffffffffffff19166102a08201526102b4019392505050565b60008151808452612a968160208601602086016128dd565b601f01601f19169290920160200192915050565b6020815260006111896020830184612a7e565b6000808335601e19843603018112612ad457600080fd5b8301803591506001600160401b03821115612aee57600080fd5b602001915036819003821315612b0357600080fd5b9250929050565b8183823760009101908152919050565b60008451612b2c8184602089016128dd565b919091019283525060601b6bffffffffffffffffffffffff19166020820152603401919050565b606081526000612b666060830186612a7e565b6020830194909452506001600160a01b0391909116604090910152919050565b60808101612b948287612199565b846020830152836040830152612bad6060830184612199565b95945050505050565b604081526000612bc96040830185612a7e565b9050826020830152939250505056fe32629d580208e19f97e5752eef849e102f803999c88aa7f75e12b1744eecd5a7d87e68f36f73a7eb22739d6639e36cafebfcde0b5543340b39f42cac68fdd1f06825a39bd161f4ef5aab6cfd2c26db3ee0005c11b43cffd544fc876312116edda264697066735822122015a3cdb50842f5603efdff5b4c72acf2b0b9719451a56a8fa2dc85e28b293ede64736f6c63430008150033",
  "bytecodeSha1": "cb44f76049c24b8878e4561cb4628345476a910a",
  "compiler": {
    "evm_version": "istanbul",
    "optimizer": {
      "enabled": true,
      "runs": 200
    },
    "version": "0.8.21+commit.d9974bed"
  },
  "contractName": "LamportTest2",
  "language": "Solidity",
  "natspec": {
    "kind": "dev",
    "methods": {},
    "version": 1
  },
  "opcodes": "PUSH1 0x80 PUSH1 0x40 MSTORE CALLVALUE DUP1 ISZERO PUSH2 0x10 JUMPI PUSH1 0x0 DUP1 REVERT JUMPDEST POP PUSH1 0x4 CALLDATASIZE LT PUSH2 0x137 JUMPI PUSH1 0x0 CALLDATALOAD PUSH1 0xE0 SHR DUP1 PUSH4 0x81867B00 GT PUSH2 0xB8 JUMPI DUP1 PUSH4 0xB97B4F77 GT PUSH2 0x7C JUMPI DUP1 PUSH4 0xB97B4F77 EQ PUSH2 0x2CD JUMPI DUP1 PUSH4 0xD77C8BFB EQ PUSH2 0x2ED JUMPI DUP1 PUSH4 0xD83C413C EQ PUSH2 0x300 JUMPI DUP1 PUSH4 0xDDC10085 EQ PUSH2 0x313 JUMPI DUP1 PUSH4 0xE673D71F EQ PUSH2 0x326 JUMPI DUP1 PUSH4 0xECF017AC EQ PUSH2 0x339 JUMPI PUSH1 0x0 DUP1 REVERT JUMPDEST DUP1 PUSH4 0x81867B00 EQ PUSH2 0x254 JUMPI DUP1 PUSH4 0x8EB8F1A6 EQ PUSH2 0x267 JUMPI DUP1 PUSH4 0x9C90C17F EQ PUSH2 0x27A JUMPI DUP1 PUSH4 0xA9711EE3 EQ PUSH2 0x28D JUMPI DUP1 PUSH4 0xAF82F3E7 EQ PUSH2 0x2BA JUMPI PUSH1 0x0 DUP1 REVERT JUMPDEST DUP1 PUSH4 0x4A89D52B GT PUSH2 0xFF JUMPI DUP1 PUSH4 0x4A89D52B EQ PUSH2 0x1D2 JUMPI DUP1 PUSH4 0x4BDD4499 EQ PUSH2 0x1E5 JUMPI DUP1 PUSH4 0x4E657D2A EQ PUSH2 0x1FC JUMPI DUP1 PUSH4 0x5796841A EQ PUSH2 0x20F JUMPI DUP1 PUSH4 0x7FF8BB3A EQ PUSH2 0x222 JUMPI PUSH1 0x0 DUP1 REVERT JUMPDEST DUP1 PUSH4 0x5AACC7D EQ PUSH2 0x13C JUMPI DUP1 PUSH4 0xB0AD508 EQ PUSH2 0x167 JUMPI DUP1 PUSH4 0xCB6AAF1 EQ PUSH2 0x17C JUMPI DUP1 PUSH4 0x2FD5C247 EQ PUSH2 0x19D JUMPI DUP1 PUSH4 0x333F6111 EQ PUSH2 0x1BF JUMPI JUMPDEST PUSH1 0x0 DUP1 REVERT JUMPDEST PUSH2 0x14F PUSH2 0x14A CALLDATASIZE PUSH1 0x4 PUSH2 0x216A JUMP JUMPDEST PUSH2 0x34C JUMP JUMPDEST PUSH1 0x40 MLOAD PUSH2 0x15E SWAP4 SWAP3 SWAP2 SWAP1 PUSH2 0x21BB JUMP JUMPDEST PUSH1 0x40 MLOAD DUP1 SWAP2 SUB SWAP1 RETURN JUMPDEST PUSH2 0x17A PUSH2 0x175 CALLDATASIZE PUSH1 0x4 PUSH2 0x21DA JUMP JUMPDEST PUSH2 0x453 JUMP JUMPDEST STOP JUMPDEST PUSH2 0x18F PUSH2 0x18A CALLDATASIZE PUSH1 0x4 PUSH2 0x216A JUMP JUMPDEST PUSH2 0x4D9 JUMP JUMPDEST PUSH1 0x40 MLOAD PUSH2 0x15E SWAP3 SWAP2 SWAP1 PUSH2 0x2206 JUMP JUMPDEST PUSH1 0x0 SLOAD PUSH2 0x1AF SWAP1 PUSH2 0x100 SWAP1 DIV PUSH1 0xFF AND DUP2 JUMP JUMPDEST PUSH1 0x40 MLOAD SWAP1 ISZERO ISZERO DUP2 MSTORE PUSH1 0x20 ADD PUSH2 0x15E JUMP JUMPDEST PUSH2 0x1AF PUSH2 0x1CD CALLDATASIZE PUSH1 0x4 PUSH2 0x22D6 JUMP JUMPDEST PUSH2 0x50B JUMP JUMPDEST PUSH2 0x1AF PUSH2 0x1E0 CALLDATASIZE PUSH1 0x4 PUSH2 0x22D6 JUMP JUMPDEST PUSH2 0x5FC JUMP JUMPDEST PUSH2 0x1EE PUSH1 0x5 SLOAD DUP2 JUMP JUMPDEST PUSH1 0x40 MLOAD SWAP1 DUP2 MSTORE PUSH1 0x20 ADD PUSH2 0x15E JUMP JUMPDEST PUSH2 0x17A PUSH2 0x20A CALLDATASIZE PUSH1 0x4 PUSH2 0x22D6 JUMP JUMPDEST PUSH2 0x653 JUMP JUMPDEST PUSH2 0x17A PUSH2 0x21D CALLDATASIZE PUSH1 0x4 PUSH2 0x236C JUMP JUMPDEST PUSH2 0x7F4 JUMP JUMPDEST PUSH2 0x235 PUSH2 0x230 CALLDATASIZE PUSH1 0x4 PUSH2 0x216A JUMP JUMPDEST PUSH2 0xA53 JUMP JUMPDEST PUSH1 0x40 DUP1 MLOAD PUSH1 0x1 PUSH1 0x1 PUSH1 0xA0 SHL SUB SWAP1 SWAP4 AND DUP4 MSTORE PUSH1 0x20 DUP4 ADD SWAP2 SWAP1 SWAP2 MSTORE ADD PUSH2 0x15E JUMP JUMPDEST PUSH2 0x17A PUSH2 0x262 CALLDATASIZE PUSH1 0x4 PUSH2 0x23E0 JUMP JUMPDEST PUSH2 0xA8B JUMP JUMPDEST PUSH2 0x17A PUSH2 0x275 CALLDATASIZE PUSH1 0x4 PUSH2 0x2441 JUMP JUMPDEST PUSH2 0xD0C JUMP JUMPDEST PUSH2 0x17A PUSH2 0x288 CALLDATASIZE PUSH1 0x4 PUSH2 0x24E0 JUMP JUMPDEST PUSH2 0xEB5 JUMP JUMPDEST PUSH2 0x18F PUSH2 0x29B CALLDATASIZE PUSH1 0x4 PUSH2 0x216A JUMP JUMPDEST PUSH1 0x2 PUSH1 0x20 MSTORE PUSH1 0x0 SWAP1 DUP2 MSTORE PUSH1 0x40 SWAP1 KECCAK256 DUP1 SLOAD PUSH1 0x1 SWAP1 SWAP2 ADD SLOAD PUSH1 0xFF SWAP1 SWAP2 AND SWAP1 DUP3 JUMP JUMPDEST PUSH2 0x1AF PUSH2 0x2C8 CALLDATASIZE PUSH1 0x4 PUSH2 0x2591 JUMP JUMPDEST PUSH2 0x10DB JUMP JUMPDEST PUSH2 0x2E0 PUSH2 0x2DB CALLDATASIZE PUSH1 0x4 PUSH2 0x25E9 JUMP JUMPDEST PUSH2 0x1190 JUMP JUMPDEST PUSH1 0x40 MLOAD PUSH2 0x15E SWAP2 SWAP1 PUSH2 0x260A JUMP JUMPDEST PUSH2 0x17A PUSH2 0x2FB CALLDATASIZE PUSH1 0x4 PUSH2 0x264E JUMP JUMPDEST PUSH2 0x133E JUMP JUMPDEST PUSH2 0x17A PUSH2 0x30E CALLDATASIZE PUSH1 0x4 PUSH2 0x236C JUMP JUMPDEST PUSH2 0x1546 JUMP JUMPDEST PUSH2 0x17A PUSH2 0x321 CALLDATASIZE PUSH1 0x4 PUSH2 0x26E8 JUMP JUMPDEST PUSH2 0x16EE JUMP JUMPDEST PUSH2 0x17A PUSH2 0x334 CALLDATASIZE PUSH1 0x4 PUSH2 0x236C JUMP JUMPDEST PUSH2 0x1777 JUMP JUMPDEST PUSH2 0x17A PUSH2 0x347 CALLDATASIZE PUSH1 0x4 PUSH2 0x2770 JUMP JUMPDEST PUSH2 0x1CAC JUMP JUMPDEST PUSH1 0x0 DUP2 DUP2 MSTORE PUSH1 0x2 PUSH1 0x20 DUP2 SWAP1 MSTORE PUSH1 0x40 DUP1 DUP4 KECCAK256 DUP2 MLOAD DUP1 DUP4 ADD SWAP1 SWAP3 MSTORE DUP1 SLOAD DUP5 SWAP4 DUP5 SWAP4 DUP5 SWAP4 SWAP1 SWAP3 SWAP1 SWAP2 DUP4 SWAP2 PUSH1 0xFF AND SWAP1 DUP2 GT ISZERO PUSH2 0x386 JUMPI PUSH2 0x386 PUSH2 0x2183 JUMP JUMPDEST PUSH1 0x2 DUP2 GT ISZERO PUSH2 0x397 JUMPI PUSH2 0x397 PUSH2 0x2183 JUMP JUMPDEST DUP2 MSTORE PUSH1 0x1 SWAP2 SWAP1 SWAP2 ADD SLOAD PUSH1 0x20 SWAP2 DUP3 ADD MSTORE DUP2 ADD MLOAD SWAP1 SWAP2 POP PUSH1 0x0 SUB PUSH2 0x3D4 JUMPI PUSH1 0x40 MLOAD PUSH3 0x461BCD PUSH1 0xE5 SHL DUP2 MSTORE PUSH1 0x4 ADD PUSH2 0x3CB SWAP1 PUSH2 0x27FB JUMP JUMPDEST PUSH1 0x40 MLOAD DUP1 SWAP2 SUB SWAP1 REVERT JUMPDEST PUSH1 0x0 JUMPDEST PUSH1 0x1 SLOAD DUP2 LT ISZERO PUSH2 0x433 JUMPI DUP6 PUSH1 0x1 DUP3 DUP2 SLOAD DUP2 LT PUSH2 0x3F5 JUMPI PUSH2 0x3F5 PUSH2 0x2832 JUMP JUMPDEST SWAP1 PUSH1 0x0 MSTORE PUSH1 0x20 PUSH1 0x0 KECCAK256 SWAP1 PUSH1 0x2 MUL ADD PUSH1 0x1 ADD SLOAD SUB PUSH2 0x421 JUMPI DUP2 MLOAD PUSH1 0x20 SWAP1 SWAP3 ADD MLOAD SWAP2 SWAP5 POP SWAP1 SWAP3 POP SWAP1 POP PUSH2 0x44C JUMP JUMPDEST DUP1 PUSH2 0x42B DUP2 PUSH2 0x2848 JUMP JUMPDEST SWAP2 POP POP PUSH2 0x3D7 JUMP JUMPDEST POP PUSH1 0x40 MLOAD PUSH3 0x461BCD PUSH1 0xE5 SHL DUP2 MSTORE PUSH1 0x4 ADD PUSH2 0x3CB SWAP1 PUSH2 0x27FB JUMP JUMPDEST SWAP2 SWAP4 SWAP1 SWAP3 POP JUMP JUMPDEST PUSH1 0x0 SLOAD PUSH1 0xFF AND ISZERO PUSH2 0x4A6 JUMPI PUSH1 0x40 MLOAD PUSH3 0x461BCD PUSH1 0xE5 SHL DUP2 MSTORE PUSH1 0x20 PUSH1 0x4 DUP3 ADD DUP2 SWAP1 MSTORE PUSH1 0x24 DUP3 ADD MSTORE PUSH32 0x4C616D706F7274426173653A20416C726561647920696E697469616C697A6564 PUSH1 0x44 DUP3 ADD MSTORE PUSH1 0x64 ADD PUSH2 0x3CB JUMP JUMPDEST PUSH2 0x4B1 PUSH1 0x0 DUP5 PUSH2 0x1EAF JUMP JUMPDEST PUSH2 0x4BC PUSH1 0x0 DUP4 PUSH2 0x1EAF JUMP JUMPDEST PUSH2 0x4C7 PUSH1 0x1 DUP3 PUSH2 0x1EAF JUMP JUMPDEST POP POP PUSH1 0x0 DUP1 SLOAD PUSH1 0xFF NOT AND PUSH1 0x1 OR SWAP1 SSTORE POP JUMP JUMPDEST PUSH1 0x1 DUP2 DUP2 SLOAD DUP2 LT PUSH2 0x4E9 JUMPI PUSH1 0x0 DUP1 REVERT JUMPDEST PUSH1 0x0 SWAP2 DUP3 MSTORE PUSH1 0x20 SWAP1 SWAP2 KECCAK256 PUSH1 0x2 SWAP1 SWAP2 MUL ADD DUP1 SLOAD PUSH1 0x1 SWAP1 SWAP2 ADD SLOAD PUSH1 0xFF SWAP1 SWAP2 AND SWAP2 POP DUP3 JUMP JUMPDEST PUSH1 0x0 DUP1 SLOAD PUSH1 0xFF AND PUSH2 0x52E JUMPI PUSH1 0x40 MLOAD PUSH3 0x461BCD PUSH1 0xE5 SHL DUP2 MSTORE PUSH1 0x4 ADD PUSH2 0x3CB SWAP1 PUSH2 0x286F JUMP JUMPDEST PUSH1 0x0 DUP6 PUSH1 0x40 MLOAD PUSH1 0x20 ADD PUSH2 0x541 SWAP2 SWAP1 PUSH2 0x28A6 JUMP JUMPDEST PUSH1 0x40 DUP1 MLOAD PUSH1 0x1F NOT DUP2 DUP5 SUB ADD DUP2 MSTORE SWAP2 SWAP1 MSTORE DUP1 MLOAD PUSH1 0x20 SWAP1 SWAP2 ADD KECCAK256 SWAP1 POP PUSH1 0x0 JUMPDEST PUSH1 0x0 DUP3 DUP2 MSTORE PUSH1 0x2 PUSH1 0x20 DUP2 SWAP1 MSTORE PUSH1 0x40 SWAP1 SWAP2 KECCAK256 SLOAD PUSH1 0xFF AND SWAP1 DUP2 GT ISZERO PUSH2 0x583 JUMPI PUSH2 0x583 PUSH2 0x2183 JUMP JUMPDEST EQ PUSH2 0x592 JUMPI PUSH1 0x0 SWAP2 POP POP PUSH2 0x5F4 JUMP JUMPDEST PUSH1 0x0 DUP4 DUP6 PUSH1 0x40 MLOAD PUSH1 0x20 ADD PUSH2 0x5A7 SWAP3 SWAP2 SWAP1 PUSH2 0x2901 JUMP JUMPDEST PUSH1 0x40 MLOAD PUSH1 0x20 DUP2 DUP4 SUB SUB DUP2 MSTORE SWAP1 PUSH1 0x40 MSTORE DUP1 MLOAD SWAP1 PUSH1 0x20 ADD KECCAK256 PUSH1 0x0 SHR SWAP1 POP PUSH1 0x0 PUSH2 0x5CF DUP3 DUP9 DUP11 PUSH2 0x10DB JUMP JUMPDEST SWAP1 POP DUP1 PUSH2 0x5E2 JUMPI PUSH1 0x0 SWAP4 POP POP POP POP PUSH2 0x5F4 JUMP JUMPDEST PUSH2 0x5EC DUP4 DUP8 PUSH2 0x1FC8 JUMP JUMPDEST PUSH1 0x1 SWAP4 POP POP POP POP JUMPDEST SWAP5 SWAP4 POP POP POP POP JUMP JUMPDEST PUSH1 0x0 DUP1 SLOAD PUSH1 0xFF AND PUSH2 0x61F JUMPI PUSH1 0x40 MLOAD PUSH3 0x461BCD PUSH1 0xE5 SHL DUP2 MSTORE PUSH1 0x4 ADD PUSH2 0x3CB SWAP1 PUSH2 0x286F JUMP JUMPDEST PUSH1 0x0 DUP6 PUSH1 0x40 MLOAD PUSH1 0x20 ADD PUSH2 0x632 SWAP2 SWAP1 PUSH2 0x28A6 JUMP JUMPDEST PUSH1 0x40 DUP1 MLOAD PUSH1 0x1F NOT DUP2 DUP5 SUB ADD DUP2 MSTORE SWAP2 SWAP1 MSTORE DUP1 MLOAD PUSH1 0x20 SWAP1 SWAP2 ADD KECCAK256 SWAP1 POP PUSH1 0x1 PUSH2 0x55E JUMP JUMPDEST PUSH1 0x0 SLOAD DUP5 SWAP1 DUP5 SWAP1 DUP5 SWAP1 DUP5 SWAP1 PUSH1 0xFF AND PUSH2 0x67D JUMPI PUSH1 0x40 MLOAD PUSH3 0x461BCD PUSH1 0xE5 SHL DUP2 MSTORE PUSH1 0x4 ADD PUSH2 0x3CB SWAP1 PUSH2 0x286F JUMP JUMPDEST PUSH1 0x0 DUP5 PUSH1 0x40 MLOAD PUSH1 0x20 ADD PUSH2 0x690 SWAP2 SWAP1 PUSH2 0x28A6 JUMP JUMPDEST PUSH1 0x40 DUP1 MLOAD PUSH1 0x1F NOT DUP2 DUP5 SUB ADD DUP2 MSTORE SWAP2 SWAP1 MSTORE DUP1 MLOAD PUSH1 0x20 SWAP1 SWAP2 ADD KECCAK256 SWAP1 POP PUSH1 0x0 DUP1 DUP3 DUP2 MSTORE PUSH1 0x2 PUSH1 0x20 DUP2 SWAP1 MSTORE PUSH1 0x40 SWAP1 SWAP2 KECCAK256 SLOAD PUSH1 0xFF AND SWAP1 DUP2 GT ISZERO PUSH2 0x6D0 JUMPI PUSH2 0x6D0 PUSH2 0x2183 JUMP JUMPDEST EQ PUSH2 0x6ED JUMPI PUSH1 0x40 MLOAD PUSH3 0x461BCD PUSH1 0xE5 SHL DUP2 MSTORE PUSH1 0x4 ADD PUSH2 0x3CB SWAP1 PUSH2 0x2923 JUMP JUMPDEST PUSH1 0x0 DUP3 DUP5 PUSH1 0x40 MLOAD PUSH1 0x20 ADD PUSH2 0x702 SWAP3 SWAP2 SWAP1 PUSH2 0x2901 JUMP JUMPDEST PUSH1 0x40 DUP1 MLOAD PUSH1 0x1F NOT DUP2 DUP5 SUB ADD DUP2 MSTORE SWAP1 DUP3 SWAP1 MSTORE DUP1 MLOAD PUSH1 0x20 SWAP2 DUP3 ADD KECCAK256 DUP1 DUP4 MSTORE SWAP3 POP PUSH1 0x0 DUP1 MLOAD PUSH1 0x20 PUSH2 0x2BF9 DUP4 CODECOPY DUP2 MLOAD SWAP2 MSTORE SWAP2 ADD PUSH1 0x40 MLOAD DUP1 SWAP2 SUB SWAP1 LOG1 PUSH1 0x0 PUSH2 0x746 DUP3 DUP8 DUP10 PUSH2 0x10DB JUMP JUMPDEST PUSH1 0x0 DUP1 SLOAD PUSH2 0xFF00 NOT AND PUSH2 0x100 DUP4 ISZERO ISZERO MUL OR SWAP1 SSTORE SWAP1 POP DUP1 PUSH2 0x79A JUMPI PUSH1 0x40 MLOAD DUP3 DUP2 MSTORE PUSH1 0x0 DUP1 MLOAD PUSH1 0x20 PUSH2 0x2BD9 DUP4 CODECOPY DUP2 MLOAD SWAP2 MSTORE SWAP1 PUSH1 0x20 ADD JUMPDEST PUSH1 0x40 MLOAD DUP1 SWAP2 SUB SWAP1 LOG1 PUSH1 0x40 MLOAD PUSH3 0x461BCD PUSH1 0xE5 SHL DUP2 MSTORE PUSH1 0x4 ADD PUSH2 0x3CB SWAP1 PUSH2 0x295A JUMP JUMPDEST PUSH1 0x0 DUP4 DUP2 MSTORE PUSH1 0x2 PUSH1 0x20 MSTORE PUSH1 0x40 SWAP1 DUP2 SWAP1 KECCAK256 SLOAD SWAP1 MLOAD PUSH1 0x0 DUP1 MLOAD PUSH1 0x20 PUSH2 0x2C19 DUP4 CODECOPY DUP2 MLOAD SWAP2 MSTORE SWAP2 PUSH2 0x7D0 SWAP2 PUSH1 0xFF SWAP1 SWAP2 AND SWAP1 DUP7 SWAP1 DUP10 SWAP1 PUSH2 0x21BB JUMP JUMPDEST PUSH1 0x40 MLOAD DUP1 SWAP2 SUB SWAP1 LOG1 PUSH2 0x7E2 DUP4 DUP7 PUSH2 0x1FC8 JUMP JUMPDEST POP POP POP PUSH1 0x5 SWAP6 SWAP1 SWAP6 SSTORE POP POP POP POP POP POP POP JUMP JUMPDEST DUP4 DUP4 DUP4 DUP4 PUSH1 0x40 MLOAD PUSH1 0x20 ADD PUSH2 0x80A SWAP2 DUP2 MSTORE PUSH1 0x20 ADD SWAP1 JUMP JUMPDEST PUSH1 0x40 DUP1 MLOAD PUSH1 0x1F NOT DUP2 DUP5 SUB ADD DUP2 MSTORE SWAP2 SWAP1 MSTORE PUSH1 0x0 SLOAD PUSH1 0xFF AND PUSH2 0x83C JUMPI PUSH1 0x40 MLOAD PUSH3 0x461BCD PUSH1 0xE5 SHL DUP2 MSTORE PUSH1 0x4 ADD PUSH2 0x3CB SWAP1 PUSH2 0x286F JUMP JUMPDEST PUSH1 0x0 DUP5 PUSH1 0x40 MLOAD PUSH1 0x20 ADD PUSH2 0x84F SWAP2 SWAP1 PUSH2 0x28A6 JUMP JUMPDEST PUSH1 0x40 DUP1 MLOAD PUSH1 0x1F NOT DUP2 DUP5 SUB ADD DUP2 MSTORE SWAP2 SWAP1 MSTORE DUP1 MLOAD PUSH1 0x20 SWAP1 SWAP2 ADD KECCAK256 SWAP1 POP PUSH1 0x0 DUP1 DUP3 DUP2 MSTORE PUSH1 0x2 PUSH1 0x20 DUP2 SWAP1 MSTORE PUSH1 0x40 SWAP1 SWAP2 KECCAK256 SLOAD PUSH1 0xFF AND SWAP1 DUP2 GT ISZERO PUSH2 0x88F JUMPI PUSH2 0x88F PUSH2 0x2183 JUMP JUMPDEST EQ PUSH2 0x8AC JUMPI PUSH1 0x40 MLOAD PUSH3 0x461BCD PUSH1 0xE5 SHL DUP2 MSTORE PUSH1 0x4 ADD PUSH2 0x3CB SWAP1 PUSH2 0x2923 JUMP JUMPDEST PUSH1 0x0 DUP3 DUP5 PUSH1 0x40 MLOAD PUSH1 0x20 ADD PUSH2 0x8C1 SWAP3 SWAP2 SWAP1 PUSH2 0x2901 JUMP JUMPDEST PUSH1 0x40 DUP1 MLOAD PUSH1 0x1F NOT DUP2 DUP5 SUB ADD DUP2 MSTORE SWAP1 DUP3 SWAP1 MSTORE DUP1 MLOAD PUSH1 0x20 SWAP2 DUP3 ADD KECCAK256 DUP1 DUP4 MSTORE SWAP3 POP PUSH1 0x0 DUP1 MLOAD PUSH1 0x20 PUSH2 0x2BF9 DUP4 CODECOPY DUP2 MLOAD SWAP2 MSTORE SWAP2 ADD PUSH1 0x40 MLOAD DUP1 SWAP2 SUB SWAP1 LOG1 PUSH1 0x0 PUSH2 0x905 DUP3 DUP8 DUP10 PUSH2 0x10DB JUMP JUMPDEST PUSH1 0x0 DUP1 SLOAD PUSH2 0xFF00 NOT AND PUSH2 0x100 DUP4 ISZERO ISZERO MUL OR SWAP1 SSTORE SWAP1 POP DUP1 PUSH2 0x93D JUMPI PUSH1 0x40 MLOAD DUP3 DUP2 MSTORE PUSH1 0x0 DUP1 MLOAD PUSH1 0x20 PUSH2 0x2BD9 DUP4 CODECOPY DUP2 MLOAD SWAP2 MSTORE SWAP1 PUSH1 0x20 ADD PUSH2 0x77A JUMP JUMPDEST PUSH1 0x0 DUP4 DUP2 MSTORE PUSH1 0x2 PUSH1 0x20 MSTORE PUSH1 0x40 SWAP1 DUP2 SWAP1 KECCAK256 SLOAD SWAP1 MLOAD PUSH1 0x0 DUP1 MLOAD PUSH1 0x20 PUSH2 0x2C19 DUP4 CODECOPY DUP2 MLOAD SWAP2 MSTORE SWAP2 PUSH2 0x973 SWAP2 PUSH1 0xFF SWAP1 SWAP2 AND SWAP1 DUP7 SWAP1 DUP10 SWAP1 PUSH2 0x21BB JUMP JUMPDEST PUSH1 0x40 MLOAD DUP1 SWAP2 SUB SWAP1 LOG1 PUSH2 0x985 DUP4 DUP7 PUSH2 0x1FC8 JUMP JUMPDEST PUSH1 0x0 DUP12 PUSH1 0x40 MLOAD PUSH1 0x20 ADD PUSH2 0x998 SWAP2 SWAP1 PUSH2 0x28A6 JUMP JUMPDEST PUSH1 0x40 DUP1 MLOAD PUSH1 0x1F NOT DUP2 DUP5 SUB ADD DUP2 MSTORE SWAP2 SWAP1 MSTORE DUP1 MLOAD PUSH1 0x20 SWAP1 SWAP2 ADD KECCAK256 PUSH1 0x5 DUP1 SLOAD PUSH1 0x0 SWAP1 SWAP2 SSTORE SWAP1 SWAP2 POP DUP2 EQ ISZERO DUP1 PUSH2 0xA34 JUMPI PUSH1 0x40 DUP1 MLOAD PUSH3 0x461BCD PUSH1 0xE5 SHL DUP2 MSTORE PUSH1 0x20 PUSH1 0x4 DUP3 ADD MSTORE PUSH1 0x24 DUP2 ADD SWAP2 SWAP1 SWAP2 MSTORE PUSH32 0x4C616D706F7274426173653A20504B48206D617463686573206C617374207573 PUSH1 0x44 DUP3 ADD MSTORE PUSH32 0x656420504B482028757365207365706172617465207365636F6E64206B657929 PUSH1 0x64 DUP3 ADD MSTORE PUSH1 0x84 ADD PUSH2 0x3CB JUMP JUMPDEST PUSH2 0xA3F PUSH1 0x0 DUP12 PUSH2 0x1EAF JUMP JUMPDEST POP POP PUSH1 0x0 PUSH1 0x5 SSTORE POP POP POP POP POP POP POP POP POP POP POP JUMP JUMPDEST PUSH1 0x6 DUP2 DUP2 SLOAD DUP2 LT PUSH2 0xA63 JUMPI PUSH1 0x0 DUP1 REVERT JUMPDEST PUSH1 0x0 SWAP2 DUP3 MSTORE PUSH1 0x20 SWAP1 SWAP2 KECCAK256 PUSH1 0x2 SWAP1 SWAP2 MUL ADD DUP1 SLOAD PUSH1 0x1 SWAP1 SWAP2 ADD SLOAD PUSH1 0x1 PUSH1 0x1 PUSH1 0xA0 SHL SUB SWAP1 SWAP2 AND SWAP2 POP DUP3 JUMP JUMPDEST DUP3 DUP2 DUP4 DUP7 PUSH1 0x40 MLOAD PUSH1 0x20 ADD PUSH2 0xA9F SWAP2 SWAP1 PUSH2 0x29B9 JUMP JUMPDEST PUSH1 0x40 DUP1 MLOAD PUSH1 0x1F NOT DUP2 DUP5 SUB ADD DUP2 MSTORE SWAP2 SWAP1 MSTORE PUSH1 0x0 SLOAD PUSH1 0xFF AND PUSH2 0xAD1 JUMPI PUSH1 0x40 MLOAD PUSH3 0x461BCD PUSH1 0xE5 SHL DUP2 MSTORE PUSH1 0x4 ADD PUSH2 0x3CB SWAP1 PUSH2 0x286F JUMP JUMPDEST PUSH1 0x0 DUP5 PUSH1 0x40 MLOAD PUSH1 0x20 ADD PUSH2 0xAE4 SWAP2 SWAP1 PUSH2 0x28A6 JUMP JUMPDEST PUSH1 0x40 DUP1 MLOAD PUSH1 0x1F NOT DUP2 DUP5 SUB ADD DUP2 MSTORE SWAP2 SWAP1 MSTORE DUP1 MLOAD PUSH1 0x20 SWAP1 SWAP2 ADD KECCAK256 SWAP1 POP PUSH1 0x0 DUP1 DUP3 DUP2 MSTORE PUSH1 0x2 PUSH1 0x20 DUP2 SWAP1 MSTORE PUSH1 0x40 SWAP1 SWAP2 KECCAK256 SLOAD PUSH1 0xFF AND SWAP1 DUP2 GT ISZERO PUSH2 0xB24 JUMPI PUSH2 0xB24 PUSH2 0x2183 JUMP JUMPDEST EQ PUSH2 0xB41 JUMPI PUSH1 0x40 MLOAD PUSH3 0x461BCD PUSH1 0xE5 SHL DUP2 MSTORE PUSH1 0x4 ADD PUSH2 0x3CB SWAP1 PUSH2 0x2923 JUMP JUMPDEST PUSH1 0x0 DUP3 DUP5 PUSH1 0x40 MLOAD PUSH1 0x20 ADD PUSH2 0xB56 SWAP3 SWAP2 SWAP1 PUSH2 0x2901 JUMP JUMPDEST PUSH1 0x40 DUP1 MLOAD PUSH1 0x1F NOT DUP2 DUP5 SUB ADD DUP2 MSTORE SWAP1 DUP3 SWAP1 MSTORE DUP1 MLOAD PUSH1 0x20 SWAP2 DUP3 ADD KECCAK256 DUP1 DUP4 MSTORE SWAP3 POP PUSH1 0x0 DUP1 MLOAD PUSH1 0x20 PUSH2 0x2BF9 DUP4 CODECOPY DUP2 MLOAD SWAP2 MSTORE SWAP2 ADD PUSH1 0x40 MLOAD DUP1 SWAP2 SUB SWAP1 LOG1 PUSH1 0x0 PUSH2 0xB9A DUP3 DUP8 DUP10 PUSH2 0x10DB JUMP JUMPDEST PUSH1 0x0 DUP1 SLOAD PUSH2 0xFF00 NOT AND PUSH2 0x100 DUP4 ISZERO ISZERO MUL OR SWAP1 SSTORE SWAP1 POP DUP1 PUSH2 0xBD2 JUMPI PUSH1 0x40 MLOAD DUP3 DUP2 MSTORE PUSH1 0x0 DUP1 MLOAD PUSH1 0x20 PUSH2 0x2BD9 DUP4 CODECOPY DUP2 MLOAD SWAP2 MSTORE SWAP1 PUSH1 0x20 ADD PUSH2 0x77A JUMP JUMPDEST PUSH1 0x0 DUP4 DUP2 MSTORE PUSH1 0x2 PUSH1 0x20 MSTORE PUSH1 0x40 SWAP1 DUP2 SWAP1 KECCAK256 SLOAD SWAP1 MLOAD PUSH1 0x0 DUP1 MLOAD PUSH1 0x20 PUSH2 0x2C19 DUP4 CODECOPY DUP2 MLOAD SWAP2 MSTORE SWAP2 PUSH2 0xC08 SWAP2 PUSH1 0xFF SWAP1 SWAP2 AND SWAP1 DUP7 SWAP1 DUP10 SWAP1 PUSH2 0x21BB JUMP JUMPDEST PUSH1 0x40 MLOAD DUP1 SWAP2 SUB SWAP1 LOG1 PUSH2 0xC1A DUP4 DUP7 PUSH2 0x1FC8 JUMP JUMPDEST PUSH1 0x0 JUMPDEST PUSH1 0xA DUP2 LT ISZERO PUSH2 0xCC6 JUMPI PUSH1 0x6 PUSH1 0x40 MLOAD DUP1 PUSH1 0x40 ADD PUSH1 0x40 MSTORE DUP1 DUP15 DUP5 PUSH1 0xA DUP2 LT PUSH2 0xC45 JUMPI PUSH2 0xC45 PUSH2 0x2832 JUMP JUMPDEST PUSH1 0x40 MUL ADD CALLDATALOAD PUSH1 0x60 SHR DUP2 MSTORE PUSH1 0x20 ADD DUP15 DUP5 PUSH1 0xA DUP2 LT PUSH2 0xC64 JUMPI PUSH2 0xC64 PUSH2 0x2832 JUMP JUMPDEST PUSH1 0x40 MUL ADD PUSH1 0x1 PUSH1 0x20 SWAP1 DUP2 MUL SWAP2 SWAP1 SWAP2 ADD CALLDATALOAD SWAP1 SWAP2 MSTORE DUP3 SLOAD PUSH1 0x1 DUP1 DUP3 ADD DUP6 SSTORE PUSH1 0x0 SWAP5 DUP6 MSTORE SWAP4 DUP3 SWAP1 KECCAK256 DUP4 MLOAD PUSH1 0x2 SWAP1 SWAP3 MUL ADD DUP1 SLOAD PUSH1 0x1 PUSH1 0x1 PUSH1 0xA0 SHL SUB NOT AND PUSH1 0x1 PUSH1 0x1 PUSH1 0xA0 SHL SUB SWAP1 SWAP3 AND SWAP2 SWAP1 SWAP2 OR DUP2 SSTORE SWAP2 ADD MLOAD SWAP2 ADD SSTORE DUP1 PUSH2 0xCBE DUP2 PUSH2 0x2848 JUMP JUMPDEST SWAP2 POP POP PUSH2 0xC1D JUMP JUMPDEST POP PUSH32 0xE97438C7690599FAE9AFA6AB3FFD17F5A6BDF6DE48E8645C7D35A0B1E6479FBA PUSH1 0x6 PUSH1 0x40 MLOAD PUSH2 0xCF7 SWAP2 SWAP1 PUSH2 0x29CC JUMP JUMPDEST PUSH1 0x40 MLOAD DUP1 SWAP2 SUB SWAP1 LOG1 POP POP POP POP POP POP POP POP POP POP POP JUMP JUMPDEST DUP4 DUP3 DUP5 DUP4 PUSH1 0x40 MLOAD PUSH1 0x20 ADD PUSH2 0xD22 SWAP2 DUP2 MSTORE PUSH1 0x20 ADD SWAP1 JUMP JUMPDEST PUSH1 0x40 DUP1 MLOAD PUSH1 0x1F NOT DUP2 DUP5 SUB ADD DUP2 MSTORE SWAP2 SWAP1 MSTORE PUSH1 0x0 SLOAD PUSH1 0xFF AND PUSH2 0xD54 JUMPI PUSH1 0x40 MLOAD PUSH3 0x461BCD PUSH1 0xE5 SHL DUP2 MSTORE PUSH1 0x4 ADD PUSH2 0x3CB SWAP1 PUSH2 0x286F JUMP JUMPDEST PUSH1 0x0 DUP5 PUSH1 0x40 MLOAD PUSH1 0x20 ADD PUSH2 0xD67 SWAP2 SWAP1 PUSH2 0x28A6 JUMP JUMPDEST PUSH1 0x40 DUP1 MLOAD PUSH1 0x1F NOT DUP2 DUP5 SUB ADD DUP2 MSTORE SWAP2 SWAP1 MSTORE DUP1 MLOAD PUSH1 0x20 SWAP1 SWAP2 ADD KECCAK256 SWAP1 POP PUSH1 0x0 DUP1 DUP3 DUP2 MSTORE PUSH1 0x2 PUSH1 0x20 DUP2 SWAP1 MSTORE PUSH1 0x40 SWAP1 SWAP2 KECCAK256 SLOAD PUSH1 0xFF AND SWAP1 DUP2 GT ISZERO PUSH2 0xDA7 JUMPI PUSH2 0xDA7 PUSH2 0x2183 JUMP JUMPDEST EQ PUSH2 0xDC4 JUMPI PUSH1 0x40 MLOAD PUSH3 0x461BCD PUSH1 0xE5 SHL DUP2 MSTORE PUSH1 0x4 ADD PUSH2 0x3CB SWAP1 PUSH2 0x2923 JUMP JUMPDEST PUSH1 0x0 DUP3 DUP5 PUSH1 0x40 MLOAD PUSH1 0x20 ADD PUSH2 0xDD9 SWAP3 SWAP2 SWAP1 PUSH2 0x2901 JUMP JUMPDEST PUSH1 0x40 DUP1 MLOAD PUSH1 0x1F NOT DUP2 DUP5 SUB ADD DUP2 MSTORE SWAP1 DUP3 SWAP1 MSTORE DUP1 MLOAD PUSH1 0x20 SWAP2 DUP3 ADD KECCAK256 DUP1 DUP4 MSTORE SWAP3 POP PUSH1 0x0 DUP1 MLOAD PUSH1 0x20 PUSH2 0x2BF9 DUP4 CODECOPY DUP2 MLOAD SWAP2 MSTORE SWAP2 ADD PUSH1 0x40 MLOAD DUP1 SWAP2 SUB SWAP1 LOG1 PUSH1 0x0 PUSH2 0xE1D DUP3 DUP8 DUP10 PUSH2 0x10DB JUMP JUMPDEST PUSH1 0x0 DUP1 SLOAD PUSH2 0xFF00 NOT AND PUSH2 0x100 DUP4 ISZERO ISZERO MUL OR SWAP1 SSTORE SWAP1 POP DUP1 PUSH2 0xE55 JUMPI PUSH1 0x40 MLOAD DUP3 DUP2 MSTORE PUSH1 0x0 DUP1 MLOAD PUSH1 0x20 PUSH2 0x2BD9 DUP4 CODECOPY DUP2 MLOAD SWAP2 MSTORE SWAP1 PUSH1 0x20 ADD PUSH2 0x77A JUMP JUMPDEST PUSH1 0x0 DUP4 DUP2 MSTORE PUSH1 0x2 PUSH1 0x20 MSTORE PUSH1 0x40 SWAP1 DUP2 SWAP1 KECCAK256 SLOAD SWAP1 MLOAD PUSH1 0x0 DUP1 MLOAD PUSH1 0x20 PUSH2 0x2C19 DUP4 CODECOPY DUP2 MLOAD SWAP2 MSTORE SWAP2 PUSH2 0xE8B SWAP2 PUSH1 0xFF SWAP1 SWAP2 AND SWAP1 DUP7 SWAP1 DUP10 SWAP1 PUSH2 0x21BB JUMP JUMPDEST PUSH1 0x40 MLOAD DUP1 SWAP2 SUB SWAP1 LOG1 PUSH2 0xE9D DUP4 DUP7 PUSH2 0x1FC8 JUMP JUMPDEST PUSH2 0xEA8 PUSH1 0x1 DUP10 PUSH2 0x1EAF JUMP JUMPDEST POP POP POP POP POP POP POP POP POP POP POP JUMP JUMPDEST DUP6 DUP3 DUP3 DUP10 DUP9 DUP9 DUP9 PUSH1 0x40 MLOAD PUSH1 0x20 ADD PUSH2 0xECF SWAP5 SWAP4 SWAP3 SWAP2 SWAP1 PUSH2 0x2A2C JUMP JUMPDEST PUSH1 0x40 DUP1 MLOAD PUSH1 0x1F NOT DUP2 DUP5 SUB ADD DUP2 MSTORE SWAP2 SWAP1 MSTORE PUSH1 0x0 SLOAD PUSH1 0xFF AND PUSH2 0xF01 JUMPI PUSH1 0x40 MLOAD PUSH3 0x461BCD PUSH1 0xE5 SHL DUP2 MSTORE PUSH1 0x4 ADD PUSH2 0x3CB SWAP1 PUSH2 0x286F JUMP JUMPDEST PUSH1 0x0 DUP5 PUSH1 0x40 MLOAD PUSH1 0x20 ADD PUSH2 0xF14 SWAP2 SWAP1 PUSH2 0x28A6 JUMP JUMPDEST PUSH1 0x40 DUP1 MLOAD PUSH1 0x1F NOT DUP2 DUP5 SUB ADD DUP2 MSTORE SWAP2 SWAP1 MSTORE DUP1 MLOAD PUSH1 0x20 SWAP1 SWAP2 ADD KECCAK256 SWAP1 POP PUSH1 0x0 DUP1 DUP3 DUP2 MSTORE PUSH1 0x2 PUSH1 0x20 DUP2 SWAP1 MSTORE PUSH1 0x40 SWAP1 SWAP2 KECCAK256 SLOAD PUSH1 0xFF AND SWAP1 DUP2 GT ISZERO PUSH2 0xF54 JUMPI PUSH2 0xF54 PUSH2 0x2183 JUMP JUMPDEST EQ PUSH2 0xF71 JUMPI PUSH1 0x40 MLOAD PUSH3 0x461BCD PUSH1 0xE5 SHL DUP2 MSTORE PUSH1 0x4 ADD PUSH2 0x3CB SWAP1 PUSH2 0x2923 JUMP JUMPDEST PUSH1 0x0 DUP3 DUP5 PUSH1 0x40 MLOAD PUSH1 0x20 ADD PUSH2 0xF86 SWAP3 SWAP2 SWAP1 PUSH2 0x2901 JUMP JUMPDEST PUSH1 0x40 DUP1 MLOAD PUSH1 0x1F NOT DUP2 DUP5 SUB ADD DUP2 MSTORE SWAP1 DUP3 SWAP1 MSTORE DUP1 MLOAD PUSH1 0x20 SWAP2 DUP3 ADD KECCAK256 DUP1 DUP4 MSTORE SWAP3 POP PUSH1 0x0 DUP1 MLOAD PUSH1 0x20 PUSH2 0x2BF9 DUP4 CODECOPY DUP2 MLOAD SWAP2 MSTORE SWAP2 ADD PUSH1 0x40 MLOAD DUP1 SWAP2 SUB SWAP1 LOG1 PUSH1 0x0 PUSH2 0xFCA DUP3 DUP8 DUP10 PUSH2 0x10DB JUMP JUMPDEST PUSH1 0x0 DUP1 SLOAD PUSH2 0xFF00 NOT AND PUSH2 0x100 DUP4 ISZERO ISZERO MUL OR SWAP1 SSTORE SWAP1 POP DUP1 PUSH2 0x1002 JUMPI PUSH1 0x40 MLOAD DUP3 DUP2 MSTORE PUSH1 0x0 DUP1 MLOAD PUSH1 0x20 PUSH2 0x2BD9 DUP4 CODECOPY DUP2 MLOAD SWAP2 MSTORE SWAP1 PUSH1 0x20 ADD PUSH2 0x77A JUMP JUMPDEST PUSH1 0x0 DUP4 DUP2 MSTORE PUSH1 0x2 PUSH1 0x20 MSTORE PUSH1 0x40 SWAP1 DUP2 SWAP1 KECCAK256 SLOAD SWAP1 MLOAD PUSH1 0x0 DUP1 MLOAD PUSH1 0x20 PUSH2 0x2C19 DUP4 CODECOPY DUP2 MLOAD SWAP2 MSTORE SWAP2 PUSH2 0x1038 SWAP2 PUSH1 0xFF SWAP1 SWAP2 AND SWAP1 DUP7 SWAP1 DUP10 SWAP1 PUSH2 0x21BB JUMP JUMPDEST PUSH1 0x40 MLOAD DUP1 SWAP2 SUB SWAP1 LOG1 PUSH2 0x104A DUP4 DUP7 PUSH2 0x1FC8 JUMP JUMPDEST PUSH1 0x0 DUP15 DUP14 DUP14 DUP14 PUSH1 0x40 MLOAD PUSH1 0x20 ADD PUSH2 0x1063 SWAP5 SWAP4 SWAP3 SWAP2 SWAP1 PUSH2 0x2A2C JUMP JUMPDEST PUSH1 0x40 MLOAD PUSH1 0x20 DUP2 DUP4 SUB SUB DUP2 MSTORE SWAP1 PUSH1 0x40 MSTORE SWAP1 POP PUSH32 0x439E3CE2FB9A6BC9B02ECA4ED3A05602D64D28B25644D289D8ADDE65C3A5DF3 DUP2 DUP11 PUSH1 0x40 MLOAD PUSH1 0x20 ADD PUSH2 0x10A8 SWAP3 SWAP2 SWAP1 PUSH2 0x2901 JUMP JUMPDEST PUSH1 0x40 DUP1 MLOAD PUSH1 0x1F NOT DUP2 DUP5 SUB ADD DUP2 MSTORE SWAP1 DUP3 SWAP1 MSTORE PUSH2 0x10C2 SWAP2 PUSH2 0x2AAA JUMP JUMPDEST PUSH1 0x40 MLOAD DUP1 SWAP2 SUB SWAP1 LOG1 POP POP POP POP POP POP POP POP POP POP POP POP POP POP POP JUMP JUMPDEST PUSH1 0x0 DUP1 JUMPDEST PUSH2 0x100 DUP2 LT ISZERO PUSH2 0x1183 JUMPI DUP4 DUP2 PUSH2 0x100 DUP2 LT PUSH2 0x10FC JUMPI PUSH2 0x10FC PUSH2 0x2832 JUMP JUMPDEST PUSH1 0x20 MUL DUP2 ADD SWAP1 PUSH2 0x110C SWAP2 SWAP1 PUSH2 0x2ABD JUMP JUMPDEST PUSH1 0x40 MLOAD PUSH2 0x111A SWAP3 SWAP2 SWAP1 PUSH2 0x2B0A JUMP JUMPDEST PUSH1 0x40 MLOAD DUP1 SWAP2 SUB SWAP1 KECCAK256 DUP4 DUP3 PUSH2 0x100 DUP2 LT PUSH2 0x1135 JUMPI PUSH2 0x1135 PUSH2 0x2832 JUMP JUMPDEST PUSH1 0x40 MUL ADD PUSH1 0x0 DUP4 PUSH1 0xFF SUB PUSH1 0x1 SWAP1 SHL DUP9 AND GT PUSH2 0x1151 JUMPI PUSH1 0x0 PUSH2 0x1154 JUMP JUMPDEST PUSH1 0x1 JUMPDEST PUSH1 0xFF AND PUSH1 0x2 DUP2 LT PUSH2 0x1167 JUMPI PUSH2 0x1167 PUSH2 0x2832 JUMP JUMPDEST PUSH1 0x20 MUL ADD CALLDATALOAD EQ PUSH2 0x117B JUMPI PUSH1 0x0 SWAP2 POP POP PUSH2 0x1189 JUMP JUMPDEST PUSH1 0x1 ADD PUSH2 0x10DF JUMP JUMPDEST POP PUSH1 0x1 SWAP1 POP JUMPDEST SWAP4 SWAP3 POP POP POP JUMP JUMPDEST PUSH1 0x1 SLOAD PUSH1 0x60 SWAP1 PUSH1 0x0 SWAP1 PUSH1 0x1 PUSH1 0x1 PUSH1 0x40 SHL SUB DUP2 GT ISZERO PUSH2 0x11B0 JUMPI PUSH2 0x11B0 PUSH2 0x224B JUMP JUMPDEST PUSH1 0x40 MLOAD SWAP1 DUP1 DUP3 MSTORE DUP1 PUSH1 0x20 MUL PUSH1 0x20 ADD DUP3 ADD PUSH1 0x40 MSTORE DUP1 ISZERO PUSH2 0x11D9 JUMPI DUP2 PUSH1 0x20 ADD PUSH1 0x20 DUP3 MUL DUP1 CALLDATASIZE DUP4 CALLDATACOPY ADD SWAP1 POP JUMPDEST POP SWAP1 POP PUSH1 0x0 DUP1 JUMPDEST PUSH1 0x1 SLOAD DUP2 LT ISZERO PUSH2 0x129A JUMPI DUP5 PUSH1 0x2 DUP2 GT ISZERO PUSH2 0x11FC JUMPI PUSH2 0x11FC PUSH2 0x2183 JUMP JUMPDEST PUSH1 0x1 DUP3 DUP2 SLOAD DUP2 LT PUSH2 0x120F JUMPI PUSH2 0x120F PUSH2 0x2832 JUMP JUMPDEST PUSH1 0x0 SWAP2 DUP3 MSTORE PUSH1 0x20 SWAP1 SWAP2 KECCAK256 PUSH1 0x2 SWAP2 DUP3 MUL ADD SLOAD PUSH1 0xFF AND SWAP1 DUP2 GT ISZERO PUSH2 0x1233 JUMPI PUSH2 0x1233 PUSH2 0x2183 JUMP JUMPDEST SUB PUSH2 0x1288 JUMPI PUSH1 0x1 DUP2 DUP2 SLOAD DUP2 LT PUSH2 0x124B JUMPI PUSH2 0x124B PUSH2 0x2832 JUMP JUMPDEST SWAP1 PUSH1 0x0 MSTORE PUSH1 0x20 PUSH1 0x0 KECCAK256 SWAP1 PUSH1 0x2 MUL ADD PUSH1 0x1 ADD SLOAD DUP4 DUP4 DUP2 MLOAD DUP2 LT PUSH2 0x126F JUMPI PUSH2 0x126F PUSH2 0x2832 JUMP JUMPDEST PUSH1 0x20 SWAP1 DUP2 MUL SWAP2 SWAP1 SWAP2 ADD ADD MSTORE DUP2 PUSH2 0x1284 DUP2 PUSH2 0x2848 JUMP JUMPDEST SWAP3 POP POP JUMPDEST DUP1 PUSH2 0x1292 DUP2 PUSH2 0x2848 JUMP JUMPDEST SWAP2 POP POP PUSH2 0x11E0 JUMP JUMPDEST POP PUSH1 0x0 DUP2 PUSH1 0x1 PUSH1 0x1 PUSH1 0x40 SHL SUB DUP2 GT ISZERO PUSH2 0x12B5 JUMPI PUSH2 0x12B5 PUSH2 0x224B JUMP JUMPDEST PUSH1 0x40 MLOAD SWAP1 DUP1 DUP3 MSTORE DUP1 PUSH1 0x20 MUL PUSH1 0x20 ADD DUP3 ADD PUSH1 0x40 MSTORE DUP1 ISZERO PUSH2 0x12DE JUMPI DUP2 PUSH1 0x20 ADD PUSH1 0x20 DUP3 MUL DUP1 CALLDATASIZE DUP4 CALLDATACOPY ADD SWAP1 POP JUMPDEST POP SWAP1 POP PUSH1 0x0 JUMPDEST DUP3 DUP2 LT ISZERO PUSH2 0x1335 JUMPI DUP4 DUP2 DUP2 MLOAD DUP2 LT PUSH2 0x12FE JUMPI PUSH2 0x12FE PUSH2 0x2832 JUMP JUMPDEST PUSH1 0x20 MUL PUSH1 0x20 ADD ADD MLOAD DUP3 DUP3 DUP2 MLOAD DUP2 LT PUSH2 0x1318 JUMPI PUSH2 0x1318 PUSH2 0x2832 JUMP JUMPDEST PUSH1 0x20 SWAP1 DUP2 MUL SWAP2 SWAP1 SWAP2 ADD ADD MSTORE DUP1 PUSH2 0x132D DUP2 PUSH2 0x2848 JUMP JUMPDEST SWAP2 POP POP PUSH2 0x12E4 JUMP JUMPDEST POP SWAP5 SWAP4 POP POP POP POP JUMP JUMPDEST DUP3 DUP2 DUP4 DUP9 DUP9 DUP9 PUSH1 0x40 MLOAD PUSH1 0x20 ADD PUSH2 0x1356 SWAP4 SWAP3 SWAP2 SWAP1 PUSH2 0x2B1A JUMP JUMPDEST PUSH1 0x40 DUP1 MLOAD PUSH1 0x1F NOT DUP2 DUP5 SUB ADD DUP2 MSTORE SWAP2 SWAP1 MSTORE PUSH1 0x0 SLOAD PUSH1 0xFF AND PUSH2 0x1388 JUMPI PUSH1 0x40 MLOAD PUSH3 0x461BCD PUSH1 0xE5 SHL DUP2 MSTORE PUSH1 0x4 ADD PUSH2 0x3CB SWAP1 PUSH2 0x286F JUMP JUMPDEST PUSH1 0x0 DUP5 PUSH1 0x40 MLOAD PUSH1 0x20 ADD PUSH2 0x139B SWAP2 SWAP1 PUSH2 0x28A6 JUMP JUMPDEST PUSH1 0x40 DUP1 MLOAD PUSH1 0x1F NOT DUP2 DUP5 SUB ADD DUP2 MSTORE SWAP2 SWAP1 MSTORE DUP1 MLOAD PUSH1 0x20 SWAP1 SWAP2 ADD KECCAK256 SWAP1 POP PUSH1 0x1 PUSH1 0x0 DUP3 DUP2 MSTORE PUSH1 0x2 PUSH1 0x20 DUP2 SWAP1 MSTORE PUSH1 0x40 SWAP1 SWAP2 KECCAK256 SLOAD PUSH1 0xFF AND SWAP1 DUP2 GT ISZERO PUSH2 0x13DC JUMPI PUSH2 0x13DC PUSH2 0x2183 JUMP JUMPDEST EQ PUSH2 0x1429 JUMPI PUSH1 0x40 MLOAD PUSH3 0x461BCD PUSH1 0xE5 SHL DUP2 MSTORE PUSH1 0x20 PUSH1 0x4 DUP3 ADD MSTORE PUSH1 0x1E PUSH1 0x24 DUP3 ADD MSTORE PUSH32 0x4C616D706F7274426173653A204E6F7420616E206F7261636C65206B65790000 PUSH1 0x44 DUP3 ADD MSTORE PUSH1 0x64 ADD PUSH2 0x3CB JUMP JUMPDEST PUSH1 0x0 DUP3 DUP5 PUSH1 0x40 MLOAD PUSH1 0x20 ADD PUSH2 0x143E SWAP3 SWAP2 SWAP1 PUSH2 0x2901 JUMP JUMPDEST PUSH1 0x40 DUP1 MLOAD PUSH1 0x1F NOT DUP2 DUP5 SUB ADD DUP2 MSTORE SWAP1 DUP3 SWAP1 MSTORE DUP1 MLOAD PUSH1 0x20 SWAP2 DUP3 ADD KECCAK256 DUP1 DUP4 MSTORE SWAP3 POP PUSH1 0x0 DUP1 MLOAD PUSH1 0x20 PUSH2 0x2BF9 DUP4 CODECOPY DUP2 MLOAD SWAP2 MSTORE SWAP2 ADD PUSH1 0x40 MLOAD DUP1 SWAP2 SUB SWAP1 LOG1 PUSH1 0x0 PUSH2 0x1482 DUP3 DUP8 DUP10 PUSH2 0x10DB JUMP JUMPDEST PUSH1 0x0 DUP1 SLOAD PUSH2 0xFF00 NOT AND PUSH2 0x100 DUP4 ISZERO ISZERO MUL OR SWAP1 SSTORE SWAP1 POP DUP1 PUSH2 0x14B4 JUMPI PUSH1 0x40 MLOAD PUSH3 0x461BCD PUSH1 0xE5 SHL DUP2 MSTORE PUSH1 0x4 ADD PUSH2 0x3CB SWAP1 PUSH2 0x295A JUMP JUMPDEST PUSH1 0x0 DUP4 DUP2 MSTORE PUSH1 0x2 PUSH1 0x20 MSTORE PUSH1 0x40 SWAP1 DUP2 SWAP1 KECCAK256 SLOAD SWAP1 MLOAD PUSH1 0x0 DUP1 MLOAD PUSH1 0x20 PUSH2 0x2C19 DUP4 CODECOPY DUP2 MLOAD SWAP2 MSTORE SWAP2 PUSH2 0x14EA SWAP2 PUSH1 0xFF SWAP1 SWAP2 AND SWAP1 DUP7 SWAP1 DUP10 SWAP1 PUSH2 0x21BB JUMP JUMPDEST PUSH1 0x40 MLOAD DUP1 SWAP2 SUB SWAP1 LOG1 PUSH2 0x14FC DUP4 DUP7 PUSH2 0x1FC8 JUMP JUMPDEST PUSH32 0x5BEE3A20EA3A72A82E77A882003FF7DCF3EE864289922C283AC5091AFC700AB4 DUP14 DUP14 DUP14 PUSH1 0x40 MLOAD PUSH2 0x152F SWAP4 SWAP3 SWAP2 SWAP1 PUSH2 0x2B53 JUMP JUMPDEST PUSH1 0x40 MLOAD DUP1 SWAP2 SUB SWAP1 LOG1 POP POP POP POP POP POP POP POP POP POP POP POP POP JUMP JUMPDEST DUP4 DUP4 DUP4 DUP4 PUSH1 0x40 MLOAD PUSH1 0x20 ADD PUSH2 0x155C SWAP2 DUP2 MSTORE PUSH1 0x20 ADD SWAP1 JUMP JUMPDEST PUSH1 0x40 DUP1 MLOAD PUSH1 0x1F NOT DUP2 DUP5 SUB ADD DUP2 MSTORE SWAP2 SWAP1 MSTORE PUSH1 0x0 SLOAD PUSH1 0xFF AND PUSH2 0x158E JUMPI PUSH1 0x40 MLOAD PUSH3 0x461BCD PUSH1 0xE5 SHL DUP2 MSTORE PUSH1 0x4 ADD PUSH2 0x3CB SWAP1 PUSH2 0x286F JUMP JUMPDEST PUSH1 0x0 DUP5 PUSH1 0x40 MLOAD PUSH1 0x20 ADD PUSH2 0x15A1 SWAP2 SWAP1 PUSH2 0x28A6 JUMP JUMPDEST PUSH1 0x40 DUP1 MLOAD PUSH1 0x1F NOT DUP2 DUP5 SUB ADD DUP2 MSTORE SWAP2 SWAP1 MSTORE DUP1 MLOAD PUSH1 0x20 SWAP1 SWAP2 ADD KECCAK256 SWAP1 POP PUSH1 0x0 DUP1 DUP3 DUP2 MSTORE PUSH1 0x2 PUSH1 0x20 DUP2 SWAP1 MSTORE PUSH1 0x40 SWAP1 SWAP2 KECCAK256 SLOAD PUSH1 0xFF AND SWAP1 DUP2 GT ISZERO PUSH2 0x15E1 JUMPI PUSH2 0x15E1 PUSH2 0x2183 JUMP JUMPDEST EQ PUSH2 0x15FE JUMPI PUSH1 0x40 MLOAD PUSH3 0x461BCD PUSH1 0xE5 SHL DUP2 MSTORE PUSH1 0x4 ADD PUSH2 0x3CB SWAP1 PUSH2 0x2923 JUMP JUMPDEST PUSH1 0x0 DUP3 DUP5 PUSH1 0x40 MLOAD PUSH1 0x20 ADD PUSH2 0x1613 SWAP3 SWAP2 SWAP1 PUSH2 0x2901 JUMP JUMPDEST PUSH1 0x40 DUP1 MLOAD PUSH1 0x1F NOT DUP2 DUP5 SUB ADD DUP2 MSTORE SWAP1 DUP3 SWAP1 MSTORE DUP1 MLOAD PUSH1 0x20 SWAP2 DUP3 ADD KECCAK256 DUP1 DUP4 MSTORE SWAP3 POP PUSH1 0x0 DUP1 MLOAD PUSH1 0x20 PUSH2 0x2BF9 DUP4 CODECOPY DUP2 MLOAD SWAP2 MSTORE SWAP2 ADD PUSH1 0x40 MLOAD DUP1 SWAP2 SUB SWAP1 LOG1 PUSH1 0x0 PUSH2 0x1657 DUP3 DUP8 DUP10 PUSH2 0x10DB JUMP JUMPDEST PUSH1 0x0 DUP1 SLOAD PUSH2 0xFF00 NOT AND PUSH2 0x100 DUP4 ISZERO ISZERO MUL OR SWAP1 SSTORE SWAP1 POP DUP1 PUSH2 0x168F JUMPI PUSH1 0x40 MLOAD DUP3 DUP2 MSTORE PUSH1 0x0 DUP1 MLOAD PUSH1 0x20 PUSH2 0x2BD9 DUP4 CODECOPY DUP2 MLOAD SWAP2 MSTORE SWAP1 PUSH1 0x20 ADD PUSH2 0x77A JUMP JUMPDEST PUSH1 0x0 DUP4 DUP2 MSTORE PUSH1 0x2 PUSH1 0x20 MSTORE PUSH1 0x40 SWAP1 DUP2 SWAP1 KECCAK256 SLOAD SWAP1 MLOAD PUSH1 0x0 DUP1 MLOAD PUSH1 0x20 PUSH2 0x2C19 DUP4 CODECOPY DUP2 MLOAD SWAP2 MSTORE SWAP2 PUSH2 0x16C5 SWAP2 PUSH1 0xFF SWAP1 SWAP2 AND SWAP1 DUP7 SWAP1 DUP10 SWAP1 PUSH2 0x21BB JUMP JUMPDEST PUSH1 0x40 MLOAD DUP1 SWAP2 SUB SWAP1 LOG1 PUSH2 0x16D7 DUP4 DUP7 PUSH2 0x1FC8 JUMP JUMPDEST POP POP POP PUSH1 0x3 SWAP5 SWAP1 SWAP5 SSTORE POP POP POP PUSH1 0x4 SWAP2 SWAP1 SWAP2 SSTORE POP POP POP JUMP JUMPDEST PUSH1 0x0 DUP7 DUP6 DUP6 DUP6 PUSH1 0x40 MLOAD PUSH1 0x20 ADD PUSH2 0x1707 SWAP5 SWAP4 SWAP3 SWAP2 SWAP1 PUSH2 0x2A2C JUMP JUMPDEST PUSH1 0x40 MLOAD PUSH1 0x20 DUP2 DUP4 SUB SUB DUP2 MSTORE SWAP1 PUSH1 0x40 MSTORE SWAP1 POP PUSH32 0x439E3CE2FB9A6BC9B02ECA4ED3A05602D64D28B25644D289D8ADDE65C3A5DF3 DUP2 DUP4 PUSH1 0x40 MLOAD PUSH1 0x20 ADD PUSH2 0x174C SWAP3 SWAP2 SWAP1 PUSH2 0x2901 JUMP JUMPDEST PUSH1 0x40 DUP1 MLOAD PUSH1 0x1F NOT DUP2 DUP5 SUB ADD DUP2 MSTORE SWAP1 DUP3 SWAP1 MSTORE PUSH2 0x1766 SWAP2 PUSH2 0x2AAA JUMP JUMPDEST PUSH1 0x40 MLOAD DUP1 SWAP2 SUB SWAP1 LOG1 POP POP POP POP POP POP POP JUMP JUMPDEST DUP4 DUP4 DUP4 DUP4 PUSH1 0x40 MLOAD PUSH1 0x20 ADD PUSH2 0x178D SWAP2 DUP2 MSTORE PUSH1 0x20 ADD SWAP1 JUMP JUMPDEST PUSH1 0x40 DUP1 MLOAD PUSH1 0x1F NOT DUP2 DUP5 SUB ADD DUP2 MSTORE SWAP2 SWAP1 MSTORE PUSH1 0x0 SLOAD PUSH1 0xFF AND PUSH2 0x17BF JUMPI PUSH1 0x40 MLOAD PUSH3 0x461BCD PUSH1 0xE5 SHL DUP2 MSTORE PUSH1 0x4 ADD PUSH2 0x3CB SWAP1 PUSH2 0x286F JUMP JUMPDEST PUSH1 0x0 DUP5 PUSH1 0x40 MLOAD PUSH1 0x20 ADD PUSH2 0x17D2 SWAP2 SWAP1 PUSH2 0x28A6 JUMP JUMPDEST PUSH1 0x40 DUP1 MLOAD PUSH1 0x1F NOT DUP2 DUP5 SUB ADD DUP2 MSTORE SWAP2 SWAP1 MSTORE DUP1 MLOAD PUSH1 0x20 SWAP1 SWAP2 ADD KECCAK256 SWAP1 POP PUSH1 0x0 DUP1 DUP3 DUP2 MSTORE PUSH1 0x2 PUSH1 0x20 DUP2 SWAP1 MSTORE PUSH1 0x40 SWAP1 SWAP2 KECCAK256 SLOAD PUSH1 0xFF AND SWAP1 DUP2 GT ISZERO PUSH2 0x1812 JUMPI PUSH2 0x1812 PUSH2 0x2183 JUMP JUMPDEST EQ PUSH2 0x182F JUMPI PUSH1 0x40 MLOAD PUSH3 0x461BCD PUSH1 0xE5 SHL DUP2 MSTORE PUSH1 0x4 ADD PUSH2 0x3CB SWAP1 PUSH2 0x2923 JUMP JUMPDEST PUSH1 0x0 DUP3 DUP5 PUSH1 0x40 MLOAD PUSH1 0x20 ADD PUSH2 0x1844 SWAP3 SWAP2 SWAP1 PUSH2 0x2901 JUMP JUMPDEST PUSH1 0x40 DUP1 MLOAD PUSH1 0x1F NOT DUP2 DUP5 SUB ADD DUP2 MSTORE SWAP1 DUP3 SWAP1 MSTORE DUP1 MLOAD PUSH1 0x20 SWAP2 DUP3 ADD KECCAK256 DUP1 DUP4 MSTORE SWAP3 POP PUSH1 0x0 DUP1 MLOAD PUSH1 0x20 PUSH2 0x2BF9 DUP4 CODECOPY DUP2 MLOAD SWAP2 MSTORE SWAP2 ADD PUSH1 0x40 MLOAD DUP1 SWAP2 SUB SWAP1 LOG1 PUSH1 0x0 PUSH2 0x1888 DUP3 DUP8 DUP10 PUSH2 0x10DB JUMP JUMPDEST PUSH1 0x0 DUP1 SLOAD PUSH2 0xFF00 NOT AND PUSH2 0x100 DUP4 ISZERO ISZERO MUL OR SWAP1 SSTORE SWAP1 POP DUP1 PUSH2 0x18C0 JUMPI PUSH1 0x40 MLOAD DUP3 DUP2 MSTORE PUSH1 0x0 DUP1 MLOAD PUSH1 0x20 PUSH2 0x2BD9 DUP4 CODECOPY DUP2 MLOAD SWAP2 MSTORE SWAP1 PUSH1 0x20 ADD PUSH2 0x77A JUMP JUMPDEST PUSH1 0x0 DUP4 DUP2 MSTORE PUSH1 0x2 PUSH1 0x20 MSTORE PUSH1 0x40 SWAP1 DUP2 SWAP1 KECCAK256 SLOAD SWAP1 MLOAD PUSH1 0x0 DUP1 MLOAD PUSH1 0x20 PUSH2 0x2C19 DUP4 CODECOPY DUP2 MLOAD SWAP2 MSTORE SWAP2 PUSH2 0x18F6 SWAP2 PUSH1 0xFF SWAP1 SWAP2 AND SWAP1 DUP7 SWAP1 DUP10 SWAP1 PUSH2 0x21BB JUMP JUMPDEST PUSH1 0x40 MLOAD DUP1 SWAP2 SUB SWAP1 LOG1 PUSH2 0x1908 DUP4 DUP7 PUSH2 0x1FC8 JUMP JUMPDEST PUSH1 0x0 DUP12 PUSH1 0x40 MLOAD PUSH1 0x20 ADD PUSH2 0x191B SWAP2 SWAP1 PUSH2 0x28A6 JUMP JUMPDEST PUSH1 0x40 MLOAD PUSH1 0x20 DUP2 DUP4 SUB SUB DUP2 MSTORE SWAP1 PUSH1 0x40 MSTORE DUP1 MLOAD SWAP1 PUSH1 0x20 ADD KECCAK256 SWAP1 POP PUSH1 0x4 SLOAD DUP2 SUB PUSH2 0x19B4 JUMPI PUSH1 0x40 MLOAD PUSH3 0x461BCD PUSH1 0xE5 SHL DUP2 MSTORE PUSH1 0x20 PUSH1 0x4 DUP3 ADD MSTORE PUSH1 0x41 PUSH1 0x24 DUP3 ADD MSTORE PUSH32 0x4C616D706F7274426173653A2043616E6E6F7420757365207468652073616D65 PUSH1 0x44 DUP3 ADD MSTORE PUSH32 0x206B6579636861696E20747769636520666F7220746869732066756E6374696F PUSH1 0x64 DUP3 ADD MSTORE PUSH1 0x37 PUSH1 0xF9 SHL PUSH1 0x84 DUP3 ADD MSTORE PUSH1 0xA4 ADD PUSH2 0x3CB JUMP JUMPDEST DUP9 PUSH1 0x3 SLOAD EQ PUSH2 0x1A05 JUMPI PUSH1 0x40 MLOAD PUSH3 0x461BCD PUSH1 0xE5 SHL DUP2 MSTORE PUSH1 0x20 PUSH1 0x4 DUP3 ADD MSTORE PUSH1 0x1E PUSH1 0x24 DUP3 ADD MSTORE PUSH32 0x4C616D706F7274426173653A204B65797320646F206E6F74206D617463680000 PUSH1 0x44 DUP3 ADD MSTORE PUSH1 0x64 ADD PUSH2 0x3CB JUMP JUMPDEST PUSH1 0x4 SLOAD DUP2 DUP11 PUSH1 0x0 DUP1 DUP5 DUP2 MSTORE PUSH1 0x2 PUSH1 0x20 DUP2 SWAP1 MSTORE PUSH1 0x40 SWAP1 SWAP2 KECCAK256 SLOAD PUSH1 0xFF AND SWAP1 DUP2 GT ISZERO PUSH2 0x1A30 JUMPI PUSH2 0x1A30 PUSH2 0x2183 JUMP JUMPDEST EQ DUP1 ISZERO PUSH2 0x1A5E JUMPI POP PUSH1 0x0 DUP3 DUP2 MSTORE PUSH1 0x2 PUSH1 0x20 DUP2 SWAP1 MSTORE PUSH1 0x40 DUP3 KECCAK256 SLOAD PUSH1 0xFF AND SWAP1 DUP2 GT ISZERO PUSH2 0x1A5C JUMPI PUSH2 0x1A5C PUSH2 0x2183 JUMP JUMPDEST EQ JUMPDEST PUSH2 0x1AC1 JUMPI PUSH1 0x40 MLOAD PUSH3 0x461BCD PUSH1 0xE5 SHL DUP2 MSTORE PUSH1 0x20 PUSH1 0x4 DUP3 ADD MSTORE PUSH1 0x2E PUSH1 0x24 DUP3 ADD MSTORE PUSH32 0x4C616D706F7274426173653A2050726F7669646564206B65797320617265206E PUSH1 0x44 DUP3 ADD MSTORE PUSH14 0x6F74206D6173746572206B657973 PUSH1 0x90 SHL PUSH1 0x64 DUP3 ADD MSTORE PUSH1 0x84 ADD PUSH2 0x3CB JUMP JUMPDEST DUP3 DUP2 EQ ISZERO DUP1 ISZERO PUSH2 0x1AD1 JUMPI POP DUP2 DUP2 EQ ISZERO JUMPDEST PUSH2 0x1B37 JUMPI PUSH1 0x40 MLOAD PUSH3 0x461BCD PUSH1 0xE5 SHL DUP2 MSTORE PUSH1 0x20 PUSH1 0x4 DUP3 ADD MSTORE PUSH1 0x31 PUSH1 0x24 DUP3 ADD MSTORE PUSH32 0x4C616D706F7274426173653A204D6173746572206B6579732063616E6E6F7420 PUSH1 0x44 DUP3 ADD MSTORE PUSH17 0x64656C657465207468656D73656C766573 PUSH1 0x78 SHL PUSH1 0x64 DUP3 ADD MSTORE PUSH1 0x84 ADD PUSH2 0x3CB JUMP JUMPDEST PUSH1 0x0 DUP2 DUP2 MSTORE PUSH1 0x2 PUSH1 0x20 MSTORE PUSH1 0x40 DUP2 KECCAK256 PUSH1 0x1 ADD SLOAD SWAP1 SUB PUSH2 0x1BA3 JUMPI PUSH1 0x40 MLOAD PUSH3 0x461BCD PUSH1 0xE5 SHL DUP2 MSTORE PUSH1 0x20 PUSH1 0x4 DUP3 ADD MSTORE PUSH1 0x23 PUSH1 0x24 DUP3 ADD MSTORE PUSH32 0x4C616D706F7274426173653A204E6F2073756368206B6579202864656C657469 PUSH1 0x44 DUP3 ADD MSTORE PUSH3 0x6F6E29 PUSH1 0xE8 SHL PUSH1 0x64 DUP3 ADD MSTORE PUSH1 0x84 ADD PUSH2 0x3CB JUMP JUMPDEST PUSH1 0x0 JUMPDEST PUSH1 0x1 SLOAD DUP2 LT ISZERO PUSH2 0x1C90 JUMPI DUP2 PUSH1 0x1 DUP3 DUP2 SLOAD DUP2 LT PUSH2 0x1BC4 JUMPI PUSH2 0x1BC4 PUSH2 0x2832 JUMP JUMPDEST SWAP1 PUSH1 0x0 MSTORE PUSH1 0x20 PUSH1 0x0 KECCAK256 SWAP1 PUSH1 0x2 MUL ADD PUSH1 0x1 ADD SLOAD SUB PUSH2 0x1C7E JUMPI PUSH1 0x0 DUP3 DUP2 MSTORE PUSH1 0x2 PUSH1 0x20 DUP2 DUP2 MSTORE PUSH1 0x40 DUP1 DUP5 KECCAK256 DUP1 SLOAD DUP3 MLOAD TIMESTAMP DUP2 DUP7 ADD MSTORE DIFFICULTY DUP2 DUP6 ADD MSTORE DUP4 MLOAD DUP1 DUP3 SUB DUP6 ADD DUP2 MSTORE PUSH1 0x60 SWAP1 SWAP2 ADD SWAP4 DUP5 SWAP1 MSTORE DUP1 MLOAD SWAP1 DUP6 ADD KECCAK256 SWAP6 DUP9 SWAP1 MSTORE SWAP3 DUP5 SWAP1 MSTORE PUSH4 0xDE1E7ED PUSH1 0xE4 SHL DUP6 XOR PUSH1 0x1 DUP3 ADD DUP2 SWAP1 SSTORE PUSH1 0xFF NOT DUP5 AND DUP6 OR SWAP1 SWAP2 SSTORE PUSH1 0xFF SWAP1 SWAP3 AND SWAP4 SWAP2 SWAP3 PUSH32 0x643BE3612916977C69D5ED1ABB75A50CCA49DF49BA2444D836E2A0CF65FE074 SWAP2 PUSH2 0x1C6E SWAP2 DUP7 SWAP2 DUP10 SWAP2 DUP8 SWAP2 PUSH2 0x2B86 JUMP JUMPDEST PUSH1 0x40 MLOAD DUP1 SWAP2 SUB SWAP1 LOG1 POP POP POP PUSH2 0x1C90 JUMP JUMPDEST DUP1 PUSH2 0x1C88 DUP2 PUSH2 0x2848 JUMP JUMPDEST SWAP2 POP POP PUSH2 0x1BA6 JUMP JUMPDEST POP POP PUSH1 0x0 PUSH1 0x3 DUP2 SWAP1 SSTORE PUSH1 0x4 SSTORE POP POP POP POP POP POP POP POP POP POP POP POP POP POP JUMP JUMPDEST DUP3 DUP2 DUP4 DUP8 DUP8 PUSH1 0x40 MLOAD PUSH1 0x20 ADD PUSH2 0x1CC2 SWAP3 SWAP2 SWAP1 PUSH2 0x2901 JUMP JUMPDEST PUSH1 0x40 DUP1 MLOAD PUSH1 0x1F NOT DUP2 DUP5 SUB ADD DUP2 MSTORE SWAP2 SWAP1 MSTORE PUSH1 0x0 SLOAD PUSH1 0xFF AND PUSH2 0x1CF4 JUMPI PUSH1 0x40 MLOAD PUSH3 0x461BCD PUSH1 0xE5 SHL DUP2 MSTORE PUSH1 0x4 ADD PUSH2 0x3CB SWAP1 PUSH2 0x286F JUMP JUMPDEST PUSH1 0x0 DUP5 PUSH1 0x40 MLOAD PUSH1 0x20 ADD PUSH2 0x1D07 SWAP2 SWAP1 PUSH2 0x28A6 JUMP JUMPDEST PUSH1 0x40 DUP1 MLOAD PUSH1 0x1F NOT DUP2 DUP5 SUB ADD DUP2 MSTORE SWAP2 SWAP1 MSTORE DUP1 MLOAD PUSH1 0x20 SWAP1 SWAP2 ADD KECCAK256 SWAP1 POP PUSH1 0x1 PUSH1 0x0 DUP3 DUP2 MSTORE PUSH1 0x2 PUSH1 0x20 DUP2 SWAP1 MSTORE PUSH1 0x40 SWAP1 SWAP2 KECCAK256 SLOAD PUSH1 0xFF AND SWAP1 DUP2 GT ISZERO PUSH2 0x1D48 JUMPI PUSH2 0x1D48 PUSH2 0x2183 JUMP JUMPDEST EQ PUSH2 0x1D95 JUMPI PUSH1 0x40 MLOAD PUSH3 0x461BCD PUSH1 0xE5 SHL DUP2 MSTORE PUSH1 0x20 PUSH1 0x4 DUP3 ADD MSTORE PUSH1 0x1E PUSH1 0x24 DUP3 ADD MSTORE PUSH32 0x4C616D706F7274426173653A204E6F7420616E206F7261636C65206B65790000 PUSH1 0x44 DUP3 ADD MSTORE PUSH1 0x64 ADD PUSH2 0x3CB JUMP JUMPDEST PUSH1 0x0 DUP3 DUP5 PUSH1 0x40 MLOAD PUSH1 0x20 ADD PUSH2 0x1DAA SWAP3 SWAP2 SWAP1 PUSH2 0x2901 JUMP JUMPDEST PUSH1 0x40 DUP1 MLOAD PUSH1 0x1F NOT DUP2 DUP5 SUB ADD DUP2 MSTORE SWAP1 DUP3 SWAP1 MSTORE DUP1 MLOAD PUSH1 0x20 SWAP2 DUP3 ADD KECCAK256 DUP1 DUP4 MSTORE SWAP3 POP PUSH1 0x0 DUP1 MLOAD PUSH1 0x20 PUSH2 0x2BF9 DUP4 CODECOPY DUP2 MLOAD SWAP2 MSTORE SWAP2 ADD PUSH1 0x40 MLOAD DUP1 SWAP2 SUB SWAP1 LOG1 PUSH1 0x0 PUSH2 0x1DEE DUP3 DUP8 DUP10 PUSH2 0x10DB JUMP JUMPDEST PUSH1 0x0 DUP1 SLOAD PUSH2 0xFF00 NOT AND PUSH2 0x100 DUP4 ISZERO ISZERO MUL OR SWAP1 SSTORE SWAP1 POP DUP1 PUSH2 0x1E20 JUMPI PUSH1 0x40 MLOAD PUSH3 0x461BCD PUSH1 0xE5 SHL DUP2 MSTORE PUSH1 0x4 ADD PUSH2 0x3CB SWAP1 PUSH2 0x295A JUMP JUMPDEST PUSH1 0x0 DUP4 DUP2 MSTORE PUSH1 0x2 PUSH1 0x20 MSTORE PUSH1 0x40 SWAP1 DUP2 SWAP1 KECCAK256 SLOAD SWAP1 MLOAD PUSH1 0x0 DUP1 MLOAD PUSH1 0x20 PUSH2 0x2C19 DUP4 CODECOPY DUP2 MLOAD SWAP2 MSTORE SWAP2 PUSH2 0x1E56 SWAP2 PUSH1 0xFF SWAP1 SWAP2 AND SWAP1 DUP7 SWAP1 DUP10 SWAP1 PUSH2 0x21BB JUMP JUMPDEST PUSH1 0x40 MLOAD DUP1 SWAP2 SUB SWAP1 LOG1 PUSH2 0x1E68 DUP4 DUP7 PUSH2 0x1FC8 JUMP JUMPDEST PUSH32 0x2F8BB53CD3BD0AD7F1E40674103A8A9352DB4FF07B7505286D242C543BA70CCC DUP13 DUP13 PUSH1 0x40 MLOAD PUSH2 0x1E99 SWAP3 SWAP2 SWAP1 PUSH2 0x2BB6 JUMP JUMPDEST PUSH1 0x40 MLOAD DUP1 SWAP2 SUB SWAP1 LOG1 POP POP POP POP POP POP POP POP POP POP POP POP JUMP JUMPDEST PUSH1 0x0 PUSH1 0x40 MLOAD DUP1 PUSH1 0x40 ADD PUSH1 0x40 MSTORE DUP1 DUP5 PUSH1 0x2 DUP2 GT ISZERO PUSH2 0x1ECE JUMPI PUSH2 0x1ECE PUSH2 0x2183 JUMP JUMPDEST DUP2 MSTORE PUSH1 0x20 ADD DUP4 SWAP1 MSTORE PUSH1 0x1 DUP1 SLOAD DUP1 DUP3 ADD DUP3 SSTORE PUSH1 0x0 DUP3 SWAP1 MSTORE DUP3 MLOAD PUSH1 0x2 SWAP2 DUP3 MUL PUSH32 0xB10E2D527612073B26EECDFD717E6A320CF44B4AFAC2B0732D9FCBE2B7FA0CF6 ADD DUP1 SLOAD SWAP5 SWAP6 POP DUP6 SWAP5 SWAP1 SWAP4 SWAP2 SWAP3 DUP5 SWAP3 PUSH1 0xFF NOT SWAP1 SWAP3 AND SWAP2 SWAP1 DUP5 SWAP1 DUP2 GT ISZERO PUSH2 0x1F33 JUMPI PUSH2 0x1F33 PUSH2 0x2183 JUMP JUMPDEST MUL OR SWAP1 SSTORE POP PUSH1 0x20 SWAP2 DUP3 ADD MLOAD PUSH1 0x1 SWAP2 DUP3 ADD SSTORE PUSH1 0x0 DUP5 DUP2 MSTORE PUSH1 0x2 SWAP3 DUP4 SWAP1 MSTORE PUSH1 0x40 SWAP1 KECCAK256 DUP4 MLOAD DUP2 SLOAD DUP6 SWAP5 SWAP3 SWAP4 SWAP2 SWAP3 DUP5 SWAP3 PUSH1 0xFF NOT SWAP1 SWAP3 AND SWAP2 SWAP1 DUP5 SWAP1 DUP2 GT ISZERO PUSH2 0x1F78 JUMPI PUSH2 0x1F78 PUSH2 0x2183 JUMP JUMPDEST MUL OR SWAP1 SSTORE POP PUSH1 0x20 DUP3 ADD MLOAD DUP2 PUSH1 0x1 ADD SSTORE SWAP1 POP POP PUSH32 0x2172C7B01A6DE957D29FD6166A23025D181BF56538AD606A526AB2D62603F3FC DUP4 DUP4 PUSH1 0x40 MLOAD PUSH2 0x1FBB SWAP3 SWAP2 SWAP1 PUSH2 0x2206 JUMP JUMPDEST PUSH1 0x40 MLOAD DUP1 SWAP2 SUB SWAP1 LOG1 POP POP POP JUMP JUMPDEST PUSH1 0x0 DUP3 DUP2 MSTORE PUSH1 0x2 PUSH1 0x20 MSTORE PUSH1 0x40 DUP2 KECCAK256 PUSH1 0x1 ADD SLOAD SWAP1 SUB PUSH2 0x1FF8 JUMPI PUSH1 0x40 MLOAD PUSH3 0x461BCD PUSH1 0xE5 SHL DUP2 MSTORE PUSH1 0x4 ADD PUSH2 0x3CB SWAP1 PUSH2 0x27FB JUMP JUMPDEST PUSH1 0x40 DUP1 MLOAD DUP1 DUP3 ADD DUP3 MSTORE PUSH1 0x0 DUP5 DUP2 MSTORE PUSH1 0x2 PUSH1 0x20 DUP2 SWAP1 MSTORE SWAP3 DUP2 KECCAK256 SLOAD SWAP1 SWAP3 DUP3 SWAP2 PUSH1 0xFF AND SWAP1 DUP2 GT ISZERO PUSH2 0x2028 JUMPI PUSH2 0x2028 PUSH2 0x2183 JUMP JUMPDEST DUP2 MSTORE PUSH1 0x20 ADD DUP4 DUP2 MSTORE POP SWAP1 POP DUP1 PUSH1 0x2 PUSH1 0x0 DUP5 DUP2 MSTORE PUSH1 0x20 ADD SWAP1 DUP2 MSTORE PUSH1 0x20 ADD PUSH1 0x0 KECCAK256 PUSH1 0x0 DUP3 ADD MLOAD DUP2 PUSH1 0x0 ADD PUSH1 0x0 PUSH2 0x100 EXP DUP2 SLOAD DUP2 PUSH1 0xFF MUL NOT AND SWAP1 DUP4 PUSH1 0x2 DUP2 GT ISZERO PUSH2 0x2071 JUMPI PUSH2 0x2071 PUSH2 0x2183 JUMP JUMPDEST MUL OR SWAP1 SSTORE POP PUSH1 0x20 SWAP2 DUP3 ADD MLOAD PUSH1 0x1 SWAP2 DUP3 ADD SSTORE PUSH1 0x0 DUP6 DUP2 MSTORE PUSH1 0x2 SWAP1 SWAP3 MSTORE PUSH1 0x40 DUP3 KECCAK256 DUP1 SLOAD PUSH1 0xFF NOT AND DUP2 SSTORE ADD DUP2 SWAP1 SSTORE JUMPDEST PUSH1 0x1 SLOAD DUP2 LT ISZERO PUSH2 0x2147 JUMPI DUP4 PUSH1 0x1 DUP3 DUP2 SLOAD DUP2 LT PUSH2 0x20BB JUMPI PUSH2 0x20BB PUSH2 0x2832 JUMP JUMPDEST SWAP1 PUSH1 0x0 MSTORE PUSH1 0x20 PUSH1 0x0 KECCAK256 SWAP1 PUSH1 0x2 MUL ADD PUSH1 0x1 ADD SLOAD SUB PUSH2 0x2135 JUMPI DUP2 PUSH1 0x1 DUP3 DUP2 SLOAD DUP2 LT PUSH2 0x20E6 JUMPI PUSH2 0x20E6 PUSH2 0x2832 JUMP JUMPDEST SWAP1 PUSH1 0x0 MSTORE PUSH1 0x20 PUSH1 0x0 KECCAK256 SWAP1 PUSH1 0x2 MUL ADD PUSH1 0x0 DUP3 ADD MLOAD DUP2 PUSH1 0x0 ADD PUSH1 0x0 PUSH2 0x100 EXP DUP2 SLOAD DUP2 PUSH1 0xFF MUL NOT AND SWAP1 DUP4 PUSH1 0x2 DUP2 GT ISZERO PUSH2 0x211E JUMPI PUSH2 0x211E PUSH2 0x2183 JUMP JUMPDEST MUL OR SWAP1 SSTORE POP PUSH1 0x20 DUP3 ADD MLOAD DUP2 PUSH1 0x1 ADD SSTORE SWAP1 POP POP PUSH2 0x2147 JUMP JUMPDEST DUP1 PUSH2 0x213F DUP2 PUSH2 0x2848 JUMP JUMPDEST SWAP2 POP POP PUSH2 0x209D JUMP JUMPDEST POP DUP1 MLOAD PUSH1 0x40 MLOAD PUSH1 0x0 DUP1 MLOAD PUSH1 0x20 PUSH2 0x2C19 DUP4 CODECOPY DUP2 MLOAD SWAP2 MSTORE SWAP2 PUSH2 0x1FBB SWAP2 DUP7 SWAP1 DUP7 SWAP1 PUSH2 0x21BB JUMP JUMPDEST PUSH1 0x0 PUSH1 0x20 DUP3 DUP5 SUB SLT ISZERO PUSH2 0x217C JUMPI PUSH1 0x0 DUP1 REVERT JUMPDEST POP CALLDATALOAD SWAP2 SWAP1 POP JUMP JUMPDEST PUSH4 0x4E487B71 PUSH1 0xE0 SHL PUSH1 0x0 MSTORE PUSH1 0x21 PUSH1 0x4 MSTORE PUSH1 0x24 PUSH1 0x0 REVERT JUMPDEST PUSH1 0x3 DUP2 LT PUSH2 0x21B7 JUMPI PUSH4 0x4E487B71 PUSH1 0xE0 SHL PUSH1 0x0 MSTORE PUSH1 0x21 PUSH1 0x4 MSTORE PUSH1 0x24 PUSH1 0x0 REVERT JUMPDEST SWAP1 MSTORE JUMP JUMPDEST PUSH1 0x60 DUP2 ADD PUSH2 0x21C9 DUP3 DUP7 PUSH2 0x2199 JUMP JUMPDEST PUSH1 0x20 DUP3 ADD SWAP4 SWAP1 SWAP4 MSTORE PUSH1 0x40 ADD MSTORE SWAP2 SWAP1 POP JUMP JUMPDEST PUSH1 0x0 DUP1 PUSH1 0x0 PUSH1 0x60 DUP5 DUP7 SUB SLT ISZERO PUSH2 0x21EF JUMPI PUSH1 0x0 DUP1 REVERT JUMPDEST POP POP DUP2 CALLDATALOAD SWAP4 PUSH1 0x20 DUP4 ADD CALLDATALOAD SWAP4 POP PUSH1 0x40 SWAP1 SWAP3 ADD CALLDATALOAD SWAP2 SWAP1 POP JUMP JUMPDEST PUSH1 0x40 DUP2 ADD PUSH2 0x2214 DUP3 DUP6 PUSH2 0x2199 JUMP JUMPDEST DUP3 PUSH1 0x20 DUP4 ADD MSTORE SWAP4 SWAP3 POP POP POP JUMP JUMPDEST DUP1 PUSH2 0x4000 DUP2 ADD DUP4 LT ISZERO PUSH2 0x2233 JUMPI PUSH1 0x0 DUP1 REVERT JUMPDEST SWAP3 SWAP2 POP POP JUMP JUMPDEST DUP1 PUSH2 0x2000 DUP2 ADD DUP4 LT ISZERO PUSH2 0x2233 JUMPI PUSH1 0x0 DUP1 REVERT JUMPDEST PUSH4 0x4E487B71 PUSH1 0xE0 SHL PUSH1 0x0 MSTORE PUSH1 0x41 PUSH1 0x4 MSTORE PUSH1 0x24 PUSH1 0x0 REVERT JUMPDEST PUSH1 0x0 PUSH1 0x1 PUSH1 0x1 PUSH1 0x40 SHL SUB DUP1 DUP5 GT ISZERO PUSH2 0x227B JUMPI PUSH2 0x227B PUSH2 0x224B JUMP JUMPDEST PUSH1 0x40 MLOAD PUSH1 0x1F DUP6 ADD PUSH1 0x1F NOT SWAP1 DUP2 AND PUSH1 0x3F ADD AND DUP2 ADD SWAP1 DUP3 DUP3 GT DUP2 DUP4 LT OR ISZERO PUSH2 0x22A3 JUMPI PUSH2 0x22A3 PUSH2 0x224B JUMP JUMPDEST DUP2 PUSH1 0x40 MSTORE DUP1 SWAP4 POP DUP6 DUP2 MSTORE DUP7 DUP7 DUP7 ADD GT ISZERO PUSH2 0x22BC JUMPI PUSH1 0x0 DUP1 REVERT JUMPDEST DUP6 DUP6 PUSH1 0x20 DUP4 ADD CALLDATACOPY PUSH1 0x0 PUSH1 0x20 DUP8 DUP4 ADD ADD MSTORE POP POP POP SWAP4 SWAP3 POP POP POP JUMP JUMPDEST PUSH1 0x0 DUP1 PUSH1 0x0 DUP1 PUSH2 0x4060 DUP6 DUP8 SUB SLT ISZERO PUSH2 0x22ED JUMPI PUSH1 0x0 DUP1 REVERT JUMPDEST PUSH2 0x22F7 DUP7 DUP7 PUSH2 0x2221 JUMP JUMPDEST SWAP4 POP PUSH2 0x4000 DUP6 ADD CALLDATALOAD PUSH1 0x1 PUSH1 0x1 PUSH1 0x40 SHL SUB DUP1 DUP3 GT ISZERO PUSH2 0x2314 JUMPI PUSH1 0x0 DUP1 REVERT JUMPDEST PUSH2 0x2320 DUP9 DUP4 DUP10 ADD PUSH2 0x2239 JUMP JUMPDEST SWAP5 POP PUSH2 0x4020 DUP8 ADD CALLDATALOAD SWAP4 POP PUSH2 0x4040 DUP8 ADD CALLDATALOAD SWAP2 POP DUP1 DUP3 GT ISZERO PUSH2 0x233F JUMPI PUSH1 0x0 DUP1 REVERT JUMPDEST POP DUP6 ADD PUSH1 0x1F DUP2 ADD DUP8 SGT PUSH2 0x2351 JUMPI PUSH1 0x0 DUP1 REVERT JUMPDEST PUSH2 0x2360 DUP8 DUP3 CALLDATALOAD PUSH1 0x20 DUP5 ADD PUSH2 0x2261 JUMP JUMPDEST SWAP2 POP POP SWAP3 SWAP6 SWAP2 SWAP5 POP SWAP3 POP JUMP JUMPDEST PUSH1 0x0 DUP1 PUSH1 0x0 DUP1 PUSH2 0x4060 DUP6 DUP8 SUB SLT ISZERO PUSH2 0x2383 JUMPI PUSH1 0x0 DUP1 REVERT JUMPDEST PUSH2 0x238D DUP7 DUP7 PUSH2 0x2221 JUMP JUMPDEST SWAP4 POP PUSH2 0x4000 DUP6 ADD CALLDATALOAD PUSH1 0x1 PUSH1 0x1 PUSH1 0x40 SHL SUB DUP2 GT ISZERO PUSH2 0x23A9 JUMPI PUSH1 0x0 DUP1 REVERT JUMPDEST PUSH2 0x23B5 DUP8 DUP3 DUP9 ADD PUSH2 0x2239 JUMP JUMPDEST SWAP5 SWAP8 SWAP5 SWAP7 POP POP POP POP PUSH2 0x4020 DUP4 ADD CALLDATALOAD SWAP3 PUSH2 0x4040 ADD CALLDATALOAD SWAP2 SWAP1 POP JUMP JUMPDEST DUP1 PUSH2 0x280 DUP2 ADD DUP4 LT ISZERO PUSH2 0x2233 JUMPI PUSH1 0x0 DUP1 REVERT JUMPDEST PUSH1 0x0 DUP1 PUSH1 0x0 DUP1 PUSH2 0x42C0 DUP6 DUP8 SUB SLT ISZERO PUSH2 0x23F7 JUMPI PUSH1 0x0 DUP1 REVERT JUMPDEST PUSH2 0x2401 DUP7 DUP7 PUSH2 0x23CE JUMP JUMPDEST SWAP4 POP PUSH2 0x2411 DUP7 PUSH2 0x280 DUP8 ADD PUSH2 0x2221 JUMP JUMPDEST SWAP3 POP PUSH2 0x4280 DUP6 ADD CALLDATALOAD SWAP2 POP PUSH2 0x42A0 DUP6 ADD CALLDATALOAD PUSH1 0x1 PUSH1 0x1 PUSH1 0x40 SHL SUB DUP2 GT ISZERO PUSH2 0x2435 JUMPI PUSH1 0x0 DUP1 REVERT JUMPDEST PUSH2 0x2360 DUP8 DUP3 DUP9 ADD PUSH2 0x2239 JUMP JUMPDEST PUSH1 0x0 DUP1 PUSH1 0x0 DUP1 PUSH2 0x4060 DUP6 DUP8 SUB SLT ISZERO PUSH2 0x2458 JUMPI PUSH1 0x0 DUP1 REVERT JUMPDEST PUSH2 0x2462 DUP7 DUP7 PUSH2 0x2221 JUMP JUMPDEST SWAP4 POP PUSH2 0x4000 DUP6 ADD CALLDATALOAD SWAP3 POP PUSH2 0x4020 DUP6 ADD CALLDATALOAD PUSH1 0x1 PUSH1 0x1 PUSH1 0x40 SHL SUB DUP2 GT ISZERO PUSH2 0x2486 JUMPI PUSH1 0x0 DUP1 REVERT JUMPDEST PUSH2 0x2492 DUP8 DUP3 DUP9 ADD PUSH2 0x2239 JUMP JUMPDEST SWAP5 SWAP8 SWAP4 SWAP7 POP SWAP4 SWAP5 PUSH2 0x4040 ADD CALLDATALOAD SWAP4 POP POP POP JUMP JUMPDEST PUSH1 0x0 DUP3 PUSH1 0x1F DUP4 ADD SLT PUSH2 0x24B5 JUMPI PUSH1 0x0 DUP1 REVERT JUMPDEST PUSH2 0x1189 DUP4 DUP4 CALLDATALOAD PUSH1 0x20 DUP6 ADD PUSH2 0x2261 JUMP JUMPDEST DUP1 CALLDATALOAD PUSH1 0x1 PUSH1 0x1 PUSH1 0xA0 SHL SUB DUP2 AND DUP2 EQ PUSH2 0x24DB JUMPI PUSH1 0x0 DUP1 REVERT JUMPDEST SWAP2 SWAP1 POP JUMP JUMPDEST PUSH1 0x0 DUP1 PUSH1 0x0 DUP1 PUSH1 0x0 DUP1 PUSH1 0x0 PUSH2 0x4320 DUP9 DUP11 SUB SLT ISZERO PUSH2 0x24FC JUMPI PUSH1 0x0 DUP1 REVERT JUMPDEST PUSH2 0x2506 DUP10 DUP10 PUSH2 0x23CE JUMP JUMPDEST SWAP7 POP PUSH2 0x2516 DUP10 PUSH2 0x280 DUP11 ADD PUSH2 0x2221 JUMP JUMPDEST SWAP6 POP PUSH2 0x4280 DUP9 ADD CALLDATALOAD PUSH1 0x1 PUSH1 0x1 PUSH1 0x40 SHL SUB DUP1 DUP3 GT ISZERO PUSH2 0x2533 JUMPI PUSH1 0x0 DUP1 REVERT JUMPDEST PUSH2 0x253F DUP12 DUP4 DUP13 ADD PUSH2 0x24A4 JUMP JUMPDEST SWAP7 POP PUSH2 0x42A0 DUP11 ADD CALLDATALOAD SWAP6 POP PUSH2 0x2556 PUSH2 0x42C0 DUP12 ADD PUSH2 0x24C4 JUMP JUMPDEST SWAP5 POP PUSH2 0x42E0 DUP11 ADD CALLDATALOAD SWAP2 POP DUP1 DUP3 GT ISZERO PUSH2 0x256D JUMPI PUSH1 0x0 DUP1 REVERT JUMPDEST POP PUSH2 0x257A DUP11 DUP3 DUP12 ADD PUSH2 0x2239 JUMP JUMPDEST SWAP3 POP POP PUSH2 0x4300 DUP9 ADD CALLDATALOAD SWAP1 POP SWAP3 SWAP6 SWAP9 SWAP2 SWAP5 SWAP8 POP SWAP3 SWAP6 POP JUMP JUMPDEST PUSH1 0x0 DUP1 PUSH1 0x0 PUSH2 0x4040 DUP5 DUP7 SUB SLT ISZERO PUSH2 0x25A7 JUMPI PUSH1 0x0 DUP1 REVERT JUMPDEST DUP4 CALLDATALOAD SWAP3 POP PUSH1 0x20 DUP5 ADD CALLDATALOAD PUSH1 0x1 PUSH1 0x1 PUSH1 0x40 SHL SUB DUP2 GT ISZERO PUSH2 0x25C4 JUMPI PUSH1 0x0 DUP1 REVERT JUMPDEST PUSH2 0x25D0 DUP7 DUP3 DUP8 ADD PUSH2 0x2239 JUMP JUMPDEST SWAP3 POP POP PUSH2 0x25E0 DUP6 PUSH1 0x40 DUP7 ADD PUSH2 0x2221 JUMP JUMPDEST SWAP1 POP SWAP3 POP SWAP3 POP SWAP3 JUMP JUMPDEST PUSH1 0x0 PUSH1 0x20 DUP3 DUP5 SUB SLT ISZERO PUSH2 0x25FB JUMPI PUSH1 0x0 DUP1 REVERT JUMPDEST DUP2 CALLDATALOAD PUSH1 0x3 DUP2 LT PUSH2 0x1189 JUMPI PUSH1 0x0 DUP1 REVERT JUMPDEST PUSH1 0x20 DUP1 DUP3 MSTORE DUP3 MLOAD DUP3 DUP3 ADD DUP2 SWAP1 MSTORE PUSH1 0x0 SWAP2 SWAP1 DUP5 DUP3 ADD SWAP1 PUSH1 0x40 DUP6 ADD SWAP1 DUP5 JUMPDEST DUP2 DUP2 LT ISZERO PUSH2 0x2642 JUMPI DUP4 MLOAD DUP4 MSTORE SWAP3 DUP5 ADD SWAP3 SWAP2 DUP5 ADD SWAP2 PUSH1 0x1 ADD PUSH2 0x2626 JUMP JUMPDEST POP SWAP1 SWAP7 SWAP6 POP POP POP POP POP POP JUMP JUMPDEST PUSH1 0x0 DUP1 PUSH1 0x0 DUP1 PUSH1 0x0 DUP1 PUSH2 0x40A0 DUP8 DUP10 SUB SLT ISZERO PUSH2 0x2668 JUMPI PUSH1 0x0 DUP1 REVERT JUMPDEST DUP7 CALLDATALOAD PUSH1 0x1 PUSH1 0x1 PUSH1 0x40 SHL SUB DUP1 DUP3 GT ISZERO PUSH2 0x267F JUMPI PUSH1 0x0 DUP1 REVERT JUMPDEST PUSH2 0x268B DUP11 DUP4 DUP12 ADD PUSH2 0x24A4 JUMP JUMPDEST SWAP8 POP PUSH1 0x20 DUP10 ADD CALLDATALOAD SWAP7 POP PUSH2 0x26A0 PUSH1 0x40 DUP11 ADD PUSH2 0x24C4 JUMP JUMPDEST SWAP6 POP PUSH2 0x26AF DUP11 PUSH1 0x60 DUP12 ADD PUSH2 0x2221 JUMP JUMPDEST SWAP5 POP PUSH2 0x4060 DUP10 ADD CALLDATALOAD SWAP4 POP PUSH2 0x4080 DUP10 ADD CALLDATALOAD SWAP2 POP DUP1 DUP3 GT ISZERO PUSH2 0x26CE JUMPI PUSH1 0x0 DUP1 REVERT JUMPDEST POP PUSH2 0x26DB DUP10 DUP3 DUP11 ADD PUSH2 0x2239 JUMP JUMPDEST SWAP2 POP POP SWAP3 SWAP6 POP SWAP3 SWAP6 POP SWAP3 SWAP6 JUMP JUMPDEST PUSH1 0x0 DUP1 PUSH1 0x0 DUP1 PUSH1 0x0 DUP1 PUSH2 0x4300 DUP8 DUP10 SUB SLT ISZERO PUSH2 0x2702 JUMPI PUSH1 0x0 DUP1 REVERT JUMPDEST PUSH2 0x270C DUP9 DUP9 PUSH2 0x23CE JUMP JUMPDEST SWAP6 POP PUSH2 0x271C DUP9 PUSH2 0x280 DUP10 ADD PUSH2 0x2221 JUMP JUMPDEST SWAP5 POP PUSH2 0x4280 DUP8 ADD CALLDATALOAD PUSH1 0x1 PUSH1 0x1 PUSH1 0x40 SHL SUB DUP2 GT ISZERO PUSH2 0x2738 JUMPI PUSH1 0x0 DUP1 REVERT JUMPDEST PUSH2 0x2744 DUP10 DUP3 DUP11 ADD PUSH2 0x24A4 JUMP JUMPDEST SWAP5 POP POP PUSH2 0x42A0 DUP8 ADD CALLDATALOAD SWAP3 POP PUSH2 0x275C PUSH2 0x42C0 DUP9 ADD PUSH2 0x24C4 JUMP JUMPDEST SWAP2 POP PUSH2 0x42E0 DUP8 ADD CALLDATALOAD SWAP1 POP SWAP3 SWAP6 POP SWAP3 SWAP6 POP SWAP3 SWAP6 JUMP JUMPDEST PUSH1 0x0 DUP1 PUSH1 0x0 DUP1 PUSH1 0x0 PUSH2 0x4080 DUP7 DUP9 SUB SLT ISZERO PUSH2 0x2789 JUMPI PUSH1 0x0 DUP1 REVERT JUMPDEST DUP6 CALLDATALOAD PUSH1 0x1 PUSH1 0x1 PUSH1 0x40 SHL SUB DUP1 DUP3 GT ISZERO PUSH2 0x27A0 JUMPI PUSH1 0x0 DUP1 REVERT JUMPDEST PUSH2 0x27AC DUP10 DUP4 DUP11 ADD PUSH2 0x24A4 JUMP JUMPDEST SWAP7 POP PUSH1 0x20 DUP9 ADD CALLDATALOAD SWAP6 POP PUSH2 0x27C2 DUP10 PUSH1 0x40 DUP11 ADD PUSH2 0x2221 JUMP JUMPDEST SWAP5 POP PUSH2 0x4040 DUP9 ADD CALLDATALOAD SWAP4 POP PUSH2 0x4060 DUP9 ADD CALLDATALOAD SWAP2 POP DUP1 DUP3 GT ISZERO PUSH2 0x27E1 JUMPI PUSH1 0x0 DUP1 REVERT JUMPDEST POP PUSH2 0x27EE DUP9 DUP3 DUP10 ADD PUSH2 0x2239 JUMP JUMPDEST SWAP2 POP POP SWAP3 SWAP6 POP SWAP3 SWAP6 SWAP1 SWAP4 POP JUMP JUMPDEST PUSH1 0x20 DUP1 DUP3 MSTORE PUSH1 0x18 SWAP1 DUP3 ADD MSTORE PUSH32 0x4C616D706F7274426173653A204E6F2073756368206B65790000000000000000 PUSH1 0x40 DUP3 ADD MSTORE PUSH1 0x60 ADD SWAP1 JUMP JUMPDEST PUSH4 0x4E487B71 PUSH1 0xE0 SHL PUSH1 0x0 MSTORE PUSH1 0x32 PUSH1 0x4 MSTORE PUSH1 0x24 PUSH1 0x0 REVERT JUMPDEST PUSH1 0x0 PUSH1 0x1 DUP3 ADD PUSH2 0x2868 JUMPI PUSH4 0x4E487B71 PUSH1 0xE0 SHL PUSH1 0x0 MSTORE PUSH1 0x11 PUSH1 0x4 MSTORE PUSH1 0x24 PUSH1 0x0 REVERT JUMPDEST POP PUSH1 0x1 ADD SWAP1 JUMP JUMPDEST PUSH1 0x20 DUP1 DUP3 MSTORE PUSH1 0x1C SWAP1 DUP3 ADD MSTORE PUSH32 0x4C616D706F7274426173653A206E6F7420696E697469616C697A656400000000 PUSH1 0x40 DUP3 ADD MSTORE PUSH1 0x60 ADD SWAP1 JUMP JUMPDEST PUSH1 0x0 DUP2 DUP4 DUP3 JUMPDEST PUSH2 0x100 DUP2 LT ISZERO PUSH2 0x28CD JUMPI PUSH1 0x40 DUP1 DUP4 DUP6 CALLDATACOPY SWAP3 DUP4 ADD SWAP3 SWAP2 SWAP1 SWAP2 ADD SWAP1 PUSH1 0x1 ADD PUSH2 0x28AC JUMP JUMPDEST POP POP POP PUSH2 0x4000 DUP3 ADD SWAP1 POP SWAP3 SWAP2 POP POP JUMP JUMPDEST PUSH1 0x0 JUMPDEST DUP4 DUP2 LT ISZERO PUSH2 0x28F8 JUMPI DUP2 DUP2 ADD MLOAD DUP4 DUP3 ADD MSTORE PUSH1 0x20 ADD PUSH2 0x28E0 JUMP JUMPDEST POP POP PUSH1 0x0 SWAP2 ADD MSTORE JUMP JUMPDEST PUSH1 0x0 DUP4 MLOAD PUSH2 0x2913 DUP2 DUP5 PUSH1 0x20 DUP9 ADD PUSH2 0x28DD JUMP JUMPDEST SWAP2 SWAP1 SWAP2 ADD SWAP2 DUP3 MSTORE POP PUSH1 0x20 ADD SWAP2 SWAP1 POP JUMP JUMPDEST PUSH1 0x20 DUP1 DUP3 MSTORE PUSH1 0x1D SWAP1 DUP3 ADD MSTORE PUSH32 0x4C616D706F7274426173653A204E6F742061206D6173746572206B6579000000 PUSH1 0x40 DUP3 ADD MSTORE PUSH1 0x60 ADD SWAP1 JUMP JUMPDEST PUSH1 0x20 DUP1 DUP3 MSTORE DUP2 DUP2 ADD MSTORE PUSH32 0x4C616D706F7274426173653A20566572696669636174696F6E206661696C6564 PUSH1 0x40 DUP3 ADD MSTORE PUSH1 0x60 ADD SWAP1 JUMP JUMPDEST DUP1 PUSH1 0x0 JUMPDEST PUSH1 0xA DUP2 LT ISZERO PUSH2 0x29B3 JUMPI PUSH1 0x40 DUP1 DUP4 DUP7 CALLDATACOPY SWAP4 DUP5 ADD SWAP4 SWAP2 SWAP1 SWAP2 ADD SWAP1 PUSH1 0x1 ADD PUSH2 0x2993 JUMP JUMPDEST POP POP POP POP JUMP JUMPDEST PUSH2 0x29C3 DUP2 DUP4 PUSH2 0x298F JUMP JUMPDEST PUSH2 0x280 ADD SWAP2 SWAP1 POP JUMP JUMPDEST PUSH1 0x0 PUSH1 0x20 DUP1 DUP4 ADD DUP2 DUP5 MSTORE DUP1 DUP6 SLOAD DUP1 DUP4 MSTORE PUSH1 0x40 SWAP3 POP DUP3 DUP7 ADD SWAP2 POP DUP7 PUSH1 0x0 MSTORE DUP4 PUSH1 0x0 KECCAK256 PUSH1 0x0 JUMPDEST DUP3 DUP2 LT ISZERO PUSH2 0x2A1F JUMPI DUP2 SLOAD PUSH1 0x1 PUSH1 0x1 PUSH1 0xA0 SHL SUB AND DUP5 MSTORE PUSH1 0x1 DUP3 DUP2 ADD SLOAD DUP8 DUP7 ADD MSTORE SWAP4 DUP6 ADD SWAP4 PUSH1 0x2 SWAP1 SWAP3 ADD SWAP2 ADD PUSH2 0x29F0 JUMP JUMPDEST POP SWAP2 SWAP8 SWAP7 POP POP POP POP POP POP POP JUMP JUMPDEST PUSH2 0x2A36 DUP2 DUP7 PUSH2 0x298F JUMP JUMPDEST PUSH1 0x0 PUSH2 0x280 DUP6 MLOAD PUSH2 0x2A4D DUP2 DUP4 DUP7 ADD PUSH1 0x20 DUP11 ADD PUSH2 0x28DD JUMP JUMPDEST SWAP3 SWAP1 SWAP3 ADD SWAP2 DUP3 ADD SWAP4 SWAP1 SWAP4 MSTORE PUSH1 0x60 SWAP2 SWAP1 SWAP2 SHL PUSH12 0xFFFFFFFFFFFFFFFFFFFFFFFF NOT AND PUSH2 0x2A0 DUP3 ADD MSTORE PUSH2 0x2B4 ADD SWAP4 SWAP3 POP POP POP JUMP JUMPDEST PUSH1 0x0 DUP2 MLOAD DUP1 DUP5 MSTORE PUSH2 0x2A96 DUP2 PUSH1 0x20 DUP7 ADD PUSH1 0x20 DUP7 ADD PUSH2 0x28DD JUMP JUMPDEST PUSH1 0x1F ADD PUSH1 0x1F NOT AND SWAP3 SWAP1 SWAP3 ADD PUSH1 0x20 ADD SWAP3 SWAP2 POP POP JUMP JUMPDEST PUSH1 0x20 DUP2 MSTORE PUSH1 0x0 PUSH2 0x1189 PUSH1 0x20 DUP4 ADD DUP5 PUSH2 0x2A7E JUMP JUMPDEST PUSH1 0x0 DUP1 DUP4 CALLDATALOAD PUSH1 0x1E NOT DUP5 CALLDATASIZE SUB ADD DUP2 SLT PUSH2 0x2AD4 JUMPI PUSH1 0x0 DUP1 REVERT JUMPDEST DUP4 ADD DUP1 CALLDATALOAD SWAP2 POP PUSH1 0x1 PUSH1 0x1 PUSH1 0x40 SHL SUB DUP3 GT ISZERO PUSH2 0x2AEE JUMPI PUSH1 0x0 DUP1 REVERT JUMPDEST PUSH1 0x20 ADD SWAP2 POP CALLDATASIZE DUP2 SWAP1 SUB DUP3 SGT ISZERO PUSH2 0x2B03 JUMPI PUSH1 0x0 DUP1 REVERT JUMPDEST SWAP3 POP SWAP3 SWAP1 POP JUMP JUMPDEST DUP2 DUP4 DUP3 CALLDATACOPY PUSH1 0x0 SWAP2 ADD SWAP1 DUP2 MSTORE SWAP2 SWAP1 POP JUMP JUMPDEST PUSH1 0x0 DUP5 MLOAD PUSH2 0x2B2C DUP2 DUP5 PUSH1 0x20 DUP10 ADD PUSH2 0x28DD JUMP JUMPDEST SWAP2 SWAP1 SWAP2 ADD SWAP3 DUP4 MSTORE POP PUSH1 0x60 SHL PUSH12 0xFFFFFFFFFFFFFFFFFFFFFFFF NOT AND PUSH1 0x20 DUP3 ADD MSTORE PUSH1 0x34 ADD SWAP2 SWAP1 POP JUMP JUMPDEST PUSH1 0x60 DUP2 MSTORE PUSH1 0x0 PUSH2 0x2B66 PUSH1 0x60 DUP4 ADD DUP7 PUSH2 0x2A7E JUMP JUMPDEST PUSH1 0x20 DUP4 ADD SWAP5 SWAP1 SWAP5 MSTORE POP PUSH1 0x1 PUSH1 0x1 PUSH1 0xA0 SHL SUB SWAP2 SWAP1 SWAP2 AND PUSH1 0x40 SWAP1 SWAP2 ADD MSTORE SWAP2 SWAP1 POP JUMP JUMPDEST PUSH1 0x80 DUP2 ADD PUSH2 0x2B94 DUP3 DUP8 PUSH2 0x2199 JUMP JUMPDEST DUP5 PUSH1 0x20 DUP4 ADD MSTORE DUP4 PUSH1 0x40 DUP4 ADD MSTORE PUSH2 0x2BAD PUSH1 0x60 DUP4 ADD DUP5 PUSH2 0x2199 JUMP JUMPDEST SWAP6 SWAP5 POP POP POP POP POP JUMP JUMPDEST PUSH1 0x40 DUP2 MSTORE PUSH1 0x0 PUSH2 0x2BC9 PUSH1 0x40 DUP4 ADD DUP6 PUSH2 0x2A7E JUMP JUMPDEST SWAP1 POP DUP3 PUSH1 0x20 DUP4 ADD MSTORE SWAP4 SWAP3 POP POP POP JUMP INVALID ORIGIN PUSH3 0x9D5802 ADDMOD 0xE1 SWAP16 SWAP8 0xE5 PUSH22 0x2EEF849E102F803999C88AA7F75E12B1744EECD5A7D8 PUSH31 0x68F36F73A7EB22739D6639E36CAFEBFCDE0B5543340B39F42CAC68FDD1F068 0x25 LOG3 SWAP12 0xD1 PUSH2 0xF4EF GAS 0xAB PUSH13 0xFD2C26DB3EE0005C11B43CFFD5 DIFFICULTY 0xFC DUP8 PUSH4 0x12116EDD LOG2 PUSH5 0x6970667358 0x22 SLT KECCAK256 ISZERO LOG3 0xCD 0xB5 ADDMOD TIMESTAMP CREATE2 PUSH1 0x3E REVERT SELFDESTRUCT JUMPDEST 0x4C PUSH19 0xACF2B0B9719451A56A8FA2DC85E28B293EDE64 PUSH20 0x6F6C634300081500330000000000000000000000 ",
  "sha1": "bc5c92fd7dabe8656613c80448f5b59df15987c2",
  "source": "// SPDX-License-Identifier: MIT\npragma solidity ^0.8.1;\n\nimport \"./LamportLib.sol\";\nimport \"./LamportBase.sol\";\n\n/*\n    @name LamportTest2\n    @description Demonstrate how to use the LamportLib library to verify a signature while only storing the hash of a public key\n    @author William Doyle\n    @date October 3rd 2022\n */\ncontract LamportTest2 is LamportBase {\n    struct AddressValuePair {\n        address addr;\n        bytes32 value;\n    }\n\n    event AddressValuePairsBroadcasted(AddressValuePair[] pairs);\n\n    AddressValuePair[] public pairsArray;\n\n    uint256 constant MAX_PAIRS = 500;\n\n    event Message(string message);\n    event MessageWithNumber(string message, uint256 number);\n    event MessageWithNumberAndAddress(string message, uint256 number, address addr);\n    event EncodedPairs(bytes encodedPairs);\n    // function getEncodedPairs(bytes32[2][10] calldata pairs) public {\n    //     // Emit the result\n    //     emit EncodedPairs(abi.encodePacked(pairs));\n    // }\n// Define an event\n\n    function getEncodedPairs(\n        bytes32[2][10] calldata pairs,\n        bytes32[2][256] calldata currentpub,\n        string memory messageToBroadcast,\n        uint256 numberToBroadcast,\n        address addrToBroadcast,\n        bytes32 nextPKH\n\n        ) \n            public \n        {\n        // Emit the result\n        bytes memory firstPart = abi.encodePacked(pairs, messageToBroadcast, numberToBroadcast, addrToBroadcast);\n        emit EncodedPairs(abi.encodePacked(firstPart, nextPKH));\n        //emit EncodedPairs(abi.encodePacked(currentpub));\n    }\n        function contractCallTest2(\n        bytes32[2][10] calldata pairs,\n        bytes32[2][256] calldata currentpub,\n        string memory messageToBroadcast,\n        uint256 numberToBroadcast,\n        address addrToBroadcast,\n        bytes[256] calldata sig,\n        bytes32 nextPKH\n\n        ) \n            onlyLamportMaster(currentpub, sig, nextPKH, abi.encodePacked(pairs, messageToBroadcast, numberToBroadcast, addrToBroadcast))\n            public \n        {\n        // Emit the result\n        bytes memory firstPart = abi.encodePacked(pairs, messageToBroadcast, numberToBroadcast, addrToBroadcast);\n        emit EncodedPairs(abi.encodePacked(firstPart, nextPKH));\n        //emit EncodedPairs(abi.encodePacked(currentpub));\n    }\n\n    function contractCallTest(\n        bytes32[2][10] calldata pairs,\n        bytes32[2][256] calldata currentpub,\n        bytes32 nextPKH,\n        bytes[256] calldata sig\n    )\n        public\n        onlyLamportMaster(currentpub, sig, nextPKH, abi.encodePacked(pairs))\n    {\n        require(pairs.length <= MAX_PAIRS, \"Too many address-value pairs\");\n\n        for (uint256 i = 0; i < pairs.length; i++) {\n            pairsArray.push(AddressValuePair(address(bytes20(pairs[i][0])), pairs[i][1]));\n        }\n\n        emit AddressValuePairsBroadcasted(pairsArray);\n    }\n\n    // publish a signed message to the blockchain ... the message is text and a number\n    function broadcastnextpkhdcastWithNumber(\n        string memory messageToBroadcast,\n        uint256 numberToBroadcast,\n        bytes32[2][256] calldata currentpub,\n        bytes32 nextPKH,\n        bytes[256] calldata sig\n    )\n        public\n        onlyLamportOracle(\n            currentpub,\n            sig,\n            nextPKH,\n            abi.encodePacked(messageToBroadcast, numberToBroadcast)\n        )\n    {\n        emit MessageWithNumber(messageToBroadcast, numberToBroadcast);\n    }\n\n    // publish a signed message to the blockchain ... the message is text, a number, and an address\n    function broadcastWithNumberAndAddress(\n        string memory messageToBroadcast,\n        uint256 numberToBroadcast,\n        address addrToBroadcast,\n        bytes32[2][256] calldata currentpub,\n        bytes32 nextPKH,\n        bytes[256] calldata sig\n    )\n        public\n        onlyLamportOracle(\n            currentpub,\n            sig,\n            nextPKH,\n            abi.encodePacked(messageToBroadcast, numberToBroadcast, addrToBroadcast)\n        )\n    {\n        emit MessageWithNumberAndAddress(messageToBroadcast, numberToBroadcast, addrToBroadcast);\n    }\n}\n",
  "sourcePath": "contracts/LamportTest2.sol",
  "type": "contract"
}