{
  "abi": [
    {
      "inputs": [
        {
          "internalType": "address",
          "name": "_sfcAddress",
          "type": "address"
        },
        {
          "internalType": "address",
          "name": "_lamportBase",
          "type": "address"
        }
      ],
      "stateMutability": "nonpayable",
      "type": "constructor"
    },
    {
      "anonymous": false,
      "inputs": [
        {
          "indexed": false,
          "internalType": "enum LamportBase.KeyType",
          "name": "keyType",
          "type": "uint8"
        },
        {
          "indexed": false,
          "internalType": "bytes32",
          "name": "newPKH",
          "type": "bytes32"
        }
      ],
      "name": "KeyAdded",
      "type": "event"
    },
    {
      "anonymous": false,
      "inputs": [
        {
          "indexed": false,
          "internalType": "enum LamportBase.KeyType",
          "name": "originalKeyType",
          "type": "uint8"
        },
        {
          "indexed": false,
          "internalType": "bytes32",
          "name": "originalPKH",
          "type": "bytes32"
        },
        {
          "indexed": false,
          "internalType": "bytes32",
          "name": "modifiedPKH",
          "type": "bytes32"
        },
        {
          "indexed": false,
          "internalType": "enum LamportBase.KeyType",
          "name": "newKeyType",
          "type": "uint8"
        }
      ],
      "name": "KeyModified",
      "type": "event"
    },
    {
      "anonymous": false,
      "inputs": [
        {
          "indexed": false,
          "internalType": "uint256",
          "name": "hash",
          "type": "uint256"
        }
      ],
      "name": "LogLastCalculatedHash",
      "type": "event"
    },
    {
      "anonymous": false,
      "inputs": [
        {
          "indexed": false,
          "internalType": "enum LamportBase.KeyType",
          "name": "keyType",
          "type": "uint8"
        },
        {
          "indexed": false,
          "internalType": "bytes32",
          "name": "previousPKH",
          "type": "bytes32"
        },
        {
          "indexed": false,
          "internalType": "bytes32",
          "name": "newPKH",
          "type": "bytes32"
        }
      ],
      "name": "PkhUpdated",
      "type": "event"
    },
    {
      "anonymous": false,
      "inputs": [
        {
          "indexed": false,
          "internalType": "address",
          "name": "newSFCAddress",
          "type": "address"
        }
      ],
      "name": "SFCAddressSet2",
      "type": "event"
    },
    {
      "anonymous": false,
      "inputs": [
        {
          "indexed": false,
          "internalType": "uint256",
          "name": "hashedData",
          "type": "uint256"
        }
      ],
      "name": "VerificationFailed",
      "type": "event"
    },
    {
      "inputs": [
        {
          "internalType": "bytes32[2][256]",
          "name": "currentpub",
          "type": "bytes32[2][256]"
        },
        {
          "internalType": "bytes[256]",
          "name": "sig",
          "type": "bytes[256]"
        },
        {
          "internalType": "bytes32",
          "name": "nextPKH",
          "type": "bytes32"
        },
        {
          "internalType": "uint256",
          "name": "num",
          "type": "uint256"
        }
      ],
      "name": "SFCadvanceEpochsStepOne",
      "outputs": [],
      "stateMutability": "nonpayable",
      "type": "function"
    },
    {
      "inputs": [
        {
          "internalType": "bytes32[2][256]",
          "name": "currentpub",
          "type": "bytes32[2][256]"
        },
        {
          "internalType": "bytes[256]",
          "name": "sig",
          "type": "bytes[256]"
        },
        {
          "internalType": "bytes32",
          "name": "nextPKH",
          "type": "bytes32"
        },
        {
          "internalType": "uint256",
          "name": "num",
          "type": "uint256"
        }
      ],
      "name": "SFCadvanceEpochsStepTwo",
      "outputs": [],
      "stateMutability": "nonpayable",
      "type": "function"
    },
    {
      "inputs": [
        {
          "internalType": "bytes32[2][256]",
          "name": "currentpub",
          "type": "bytes32[2][256]"
        },
        {
          "internalType": "bytes[256]",
          "name": "sig",
          "type": "bytes[256]"
        },
        {
          "internalType": "bytes32",
          "name": "nextPKH",
          "type": "bytes32"
        },
        {
          "internalType": "address",
          "name": "acc",
          "type": "address"
        },
        {
          "internalType": "uint256",
          "name": "diff",
          "type": "uint256"
        }
      ],
      "name": "SFCincNonceStepOne",
      "outputs": [],
      "stateMutability": "nonpayable",
      "type": "function"
    },
    {
      "inputs": [
        {
          "internalType": "bytes32[2][256]",
          "name": "currentpub",
          "type": "bytes32[2][256]"
        },
        {
          "internalType": "bytes[256]",
          "name": "sig",
          "type": "bytes[256]"
        },
        {
          "internalType": "bytes32",
          "name": "nextPKH",
          "type": "bytes32"
        },
        {
          "internalType": "address",
          "name": "acc",
          "type": "address"
        },
        {
          "internalType": "uint256",
          "name": "diff",
          "type": "uint256"
        }
      ],
      "name": "SFCincNonceStepTwo",
      "outputs": [],
      "stateMutability": "nonpayable",
      "type": "function"
    },
    {
      "inputs": [
        {
          "internalType": "bytes32[2][256]",
          "name": "currentpub",
          "type": "bytes32[2][256]"
        },
        {
          "internalType": "bytes[256]",
          "name": "sig",
          "type": "bytes[256]"
        },
        {
          "internalType": "bytes32",
          "name": "nextPKH",
          "type": "bytes32"
        },
        {
          "internalType": "bytes",
          "name": "diff",
          "type": "bytes"
        }
      ],
      "name": "SFCupdateNetworkRulesStepOne",
      "outputs": [],
      "stateMutability": "nonpayable",
      "type": "function"
    },
    {
      "inputs": [
        {
          "internalType": "bytes32[2][256]",
          "name": "currentpub",
          "type": "bytes32[2][256]"
        },
        {
          "internalType": "bytes[256]",
          "name": "sig",
          "type": "bytes[256]"
        },
        {
          "internalType": "bytes32",
          "name": "nextPKH",
          "type": "bytes32"
        },
        {
          "internalType": "bytes",
          "name": "diff",
          "type": "bytes"
        }
      ],
      "name": "SFCupdateNetworkRulesStepTwo",
      "outputs": [],
      "stateMutability": "nonpayable",
      "type": "function"
    },
    {
      "inputs": [
        {
          "internalType": "bytes32[2][256]",
          "name": "currentpub",
          "type": "bytes32[2][256]"
        },
        {
          "internalType": "bytes[256]",
          "name": "sig",
          "type": "bytes[256]"
        },
        {
          "internalType": "bytes32",
          "name": "nextPKH",
          "type": "bytes32"
        },
        {
          "internalType": "uint256",
          "name": "version",
          "type": "uint256"
        }
      ],
      "name": "SFCupdateNetworkVersionStepOne",
      "outputs": [],
      "stateMutability": "nonpayable",
      "type": "function"
    },
    {
      "inputs": [
        {
          "internalType": "bytes32[2][256]",
          "name": "currentpub",
          "type": "bytes32[2][256]"
        },
        {
          "internalType": "bytes[256]",
          "name": "sig",
          "type": "bytes[256]"
        },
        {
          "internalType": "bytes32",
          "name": "nextPKH",
          "type": "bytes32"
        },
        {
          "internalType": "uint256",
          "name": "version",
          "type": "uint256"
        }
      ],
      "name": "SFCupdateNetworkVersionStepTwo",
      "outputs": [],
      "stateMutability": "nonpayable",
      "type": "function"
    },
    {
      "inputs": [
        {
          "internalType": "bytes32[2][256]",
          "name": "currentpub",
          "type": "bytes32[2][256]"
        },
        {
          "internalType": "bytes[256]",
          "name": "sig",
          "type": "bytes[256]"
        },
        {
          "internalType": "bytes32",
          "name": "nextPKH",
          "type": "bytes32"
        },
        {
          "internalType": "bytes",
          "name": "newmasterPKH",
          "type": "bytes"
        }
      ],
      "name": "createMasterKeyStepOne",
      "outputs": [],
      "stateMutability": "nonpayable",
      "type": "function"
    },
    {
      "inputs": [
        {
          "internalType": "bytes32[2][256]",
          "name": "currentpub",
          "type": "bytes32[2][256]"
        },
        {
          "internalType": "bytes[256]",
          "name": "sig",
          "type": "bytes[256]"
        },
        {
          "internalType": "bytes32",
          "name": "nextPKH",
          "type": "bytes32"
        },
        {
          "internalType": "bytes32",
          "name": "newmasterPKH",
          "type": "bytes32"
        }
      ],
      "name": "createMasterKeyStepTwo",
      "outputs": [],
      "stateMutability": "nonpayable",
      "type": "function"
    },
    {
      "inputs": [
        {
          "internalType": "bytes32[2][256]",
          "name": "currentpub",
          "type": "bytes32[2][256]"
        },
        {
          "internalType": "bytes32",
          "name": "nextPKH",
          "type": "bytes32"
        },
        {
          "internalType": "bytes[256]",
          "name": "sig",
          "type": "bytes[256]"
        },
        {
          "internalType": "bytes32",
          "name": "neworaclePKH",
          "type": "bytes32"
        }
      ],
      "name": "createOracleKeyFromMaster",
      "outputs": [],
      "stateMutability": "nonpayable",
      "type": "function"
    },
    {
      "inputs": [
        {
          "internalType": "bytes32[2][256]",
          "name": "currentpub",
          "type": "bytes32[2][256]"
        },
        {
          "internalType": "bytes[256]",
          "name": "sig",
          "type": "bytes[256]"
        },
        {
          "internalType": "bytes32",
          "name": "nextPKH",
          "type": "bytes32"
        },
        {
          "internalType": "bytes32",
          "name": "deleteKeyHash",
          "type": "bytes32"
        }
      ],
      "name": "deleteKeyStepOne",
      "outputs": [],
      "stateMutability": "nonpayable",
      "type": "function"
    },
    {
      "inputs": [
        {
          "internalType": "bytes32[2][256]",
          "name": "currentpub",
          "type": "bytes32[2][256]"
        },
        {
          "internalType": "bytes[256]",
          "name": "sig",
          "type": "bytes[256]"
        },
        {
          "internalType": "bytes32",
          "name": "nextPKH",
          "type": "bytes32"
        },
        {
          "internalType": "bytes32",
          "name": "confirmDeleteKeyHash",
          "type": "bytes32"
        }
      ],
      "name": "deleteKeyStepTwo",
      "outputs": [],
      "stateMutability": "nonpayable",
      "type": "function"
    },
    {
      "inputs": [
        {
          "internalType": "bytes32",
          "name": "pkh",
          "type": "bytes32"
        }
      ],
      "name": "getKeyAndPosByPKH",
      "outputs": [
        {
          "internalType": "enum LamportBase.KeyType",
          "name": "",
          "type": "uint8"
        },
        {
          "internalType": "bytes32",
          "name": "",
          "type": "bytes32"
        },
        {
          "internalType": "uint256",
          "name": "",
          "type": "uint256"
        }
      ],
      "stateMutability": "view",
      "type": "function"
    },
    {
      "inputs": [
        {
          "internalType": "enum LamportBase.KeyType",
          "name": "privilege",
          "type": "uint8"
        }
      ],
      "name": "getPKHsByPrivilege",
      "outputs": [
        {
          "internalType": "bytes32[]",
          "name": "",
          "type": "bytes32[]"
        }
      ],
      "stateMutability": "view",
      "type": "function"
    },
    {
      "inputs": [
        {
          "internalType": "bytes32",
          "name": "masterPKH1",
          "type": "bytes32"
        },
        {
          "internalType": "bytes32",
          "name": "masterPKH2",
          "type": "bytes32"
        },
        {
          "internalType": "bytes32",
          "name": "oraclePKH",
          "type": "bytes32"
        }
      ],
      "name": "init",
      "outputs": [],
      "stateMutability": "nonpayable",
      "type": "function"
    },
    {
      "inputs": [
        {
          "internalType": "bytes32",
          "name": "",
          "type": "bytes32"
        }
      ],
      "name": "keyData",
      "outputs": [
        {
          "internalType": "enum LamportBase.KeyType",
          "name": "keyType",
          "type": "uint8"
        },
        {
          "internalType": "bytes32",
          "name": "pkh",
          "type": "bytes32"
        }
      ],
      "stateMutability": "view",
      "type": "function"
    },
    {
      "inputs": [
        {
          "internalType": "uint256",
          "name": "",
          "type": "uint256"
        }
      ],
      "name": "keys",
      "outputs": [
        {
          "internalType": "enum LamportBase.KeyType",
          "name": "keyType",
          "type": "uint8"
        },
        {
          "internalType": "bytes32",
          "name": "pkh",
          "type": "bytes32"
        }
      ],
      "stateMutability": "view",
      "type": "function"
    },
    {
      "inputs": [],
      "name": "lamportBase",
      "outputs": [
        {
          "internalType": "contract LamportBase",
          "name": "",
          "type": "address"
        }
      ],
      "stateMutability": "view",
      "type": "function"
    },
    {
      "inputs": [],
      "name": "lastUsedNextPKH",
      "outputs": [
        {
          "internalType": "bytes32",
          "name": "",
          "type": "bytes32"
        }
      ],
      "stateMutability": "view",
      "type": "function"
    },
    {
      "inputs": [],
      "name": "lastVerificationResult",
      "outputs": [
        {
          "internalType": "bool",
          "name": "",
          "type": "bool"
        }
      ],
      "stateMutability": "view",
      "type": "function"
    },
    {
      "inputs": [],
      "name": "maxDelegatedRatio",
      "outputs": [
        {
          "internalType": "uint256",
          "name": "",
          "type": "uint256"
        }
      ],
      "stateMutability": "view",
      "type": "function"
    },
    {
      "inputs": [],
      "name": "minSelfStake",
      "outputs": [
        {
          "internalType": "uint256",
          "name": "",
          "type": "uint256"
        }
      ],
      "stateMutability": "view",
      "type": "function"
    },
    {
      "inputs": [
        {
          "internalType": "bytes32[2][256]",
          "name": "currentpub",
          "type": "bytes32[2][256]"
        },
        {
          "internalType": "bytes[256]",
          "name": "sig",
          "type": "bytes[256]"
        },
        {
          "internalType": "bytes32",
          "name": "nextPKH",
          "type": "bytes32"
        },
        {
          "internalType": "bytes",
          "name": "prepacked",
          "type": "bytes"
        }
      ],
      "name": "performLamportMasterCheck",
      "outputs": [
        {
          "internalType": "bool",
          "name": "",
          "type": "bool"
        }
      ],
      "stateMutability": "nonpayable",
      "type": "function"
    },
    {
      "inputs": [
        {
          "internalType": "bytes32[2][256]",
          "name": "currentpub",
          "type": "bytes32[2][256]"
        },
        {
          "internalType": "bytes[256]",
          "name": "sig",
          "type": "bytes[256]"
        },
        {
          "internalType": "bytes32",
          "name": "nextPKH",
          "type": "bytes32"
        },
        {
          "internalType": "bytes",
          "name": "prepacked",
          "type": "bytes"
        }
      ],
      "name": "performLamportOracleCheck",
      "outputs": [
        {
          "internalType": "bool",
          "name": "",
          "type": "bool"
        }
      ],
      "stateMutability": "nonpayable",
      "type": "function"
    },
    {
      "inputs": [
        {
          "internalType": "bytes32[2][256]",
          "name": "currentpub",
          "type": "bytes32[2][256]"
        },
        {
          "internalType": "bytes[256]",
          "name": "sig",
          "type": "bytes[256]"
        },
        {
          "internalType": "bytes32",
          "name": "nextPKH",
          "type": "bytes32"
        },
        {
          "internalType": "address",
          "name": "newSFCAddress",
          "type": "address"
        }
      ],
      "name": "setSFCforSFCtAddressStepOne",
      "outputs": [],
      "stateMutability": "nonpayable",
      "type": "function"
    },
    {
      "inputs": [
        {
          "internalType": "bytes32[2][256]",
          "name": "currentpub",
          "type": "bytes32[2][256]"
        },
        {
          "internalType": "bytes[256]",
          "name": "sig",
          "type": "bytes[256]"
        },
        {
          "internalType": "bytes32",
          "name": "nextPKH",
          "type": "bytes32"
        },
        {
          "internalType": "address",
          "name": "newSFCAddress",
          "type": "address"
        }
      ],
      "name": "setSFCforSFCtAddressStepTwo",
      "outputs": [],
      "stateMutability": "nonpayable",
      "type": "function"
    },
    {
      "inputs": [],
      "name": "sfc",
      "outputs": [
        {
          "internalType": "contract ISFC",
          "name": "",
          "type": "address"
        }
      ],
      "stateMutability": "view",
      "type": "function"
    },
    {
      "inputs": [
        {
          "internalType": "bytes32[2][256]",
          "name": "currentpub",
          "type": "bytes32[2][256]"
        },
        {
          "internalType": "bytes[256]",
          "name": "sig",
          "type": "bytes[256]"
        },
        {
          "internalType": "bytes32",
          "name": "nextPKH",
          "type": "bytes32"
        },
        {
          "internalType": "address",
          "name": "v",
          "type": "address"
        }
      ],
      "name": "updateVoteBookAddressStepOne",
      "outputs": [],
      "stateMutability": "nonpayable",
      "type": "function"
    },
    {
      "inputs": [
        {
          "internalType": "bytes32[2][256]",
          "name": "currentpub",
          "type": "bytes32[2][256]"
        },
        {
          "internalType": "bytes[256]",
          "name": "sig",
          "type": "bytes[256]"
        },
        {
          "internalType": "bytes32",
          "name": "nextPKH",
          "type": "bytes32"
        },
        {
          "internalType": "address",
          "name": "v",
          "type": "address"
        }
      ],
      "name": "updateVoteBookAddressStepTwo",
      "outputs": [],
      "stateMutability": "nonpayable",
      "type": "function"
    },
    {
      "inputs": [
        {
          "internalType": "uint256",
          "name": "bits",
          "type": "uint256"
        },
        {
          "internalType": "bytes[256]",
          "name": "sig",
          "type": "bytes[256]"
        },
        {
          "internalType": "bytes32[2][256]",
          "name": "pub",
          "type": "bytes32[2][256]"
        }
      ],
      "name": "verify_u256",
      "outputs": [
        {
          "internalType": "bool",
          "name": "",
          "type": "bool"
        }
      ],
      "stateMutability": "pure",
      "type": "function"
    }
  ],
  "bytecode": "60806040526000805460ff191690553480156200001b57600080fd5b5060405162003332380380620033328339810160408190526200003e916200008d565b600680546001600160a01b039384166001600160a01b03199182161790915560078054929093169116179055620000c5565b80516001600160a01b03811681146200008857600080fd5b919050565b60008060408385031215620000a157600080fd5b620000ac8362000070565b9150620000bc6020840162000070565b90509250929050565b61325d80620000d56000396000f3fe608060405234801561001057600080fd5b50600436106101e55760003560e01c80635e12f3101161010f578063a9711ee3116100a2578063d38aa59411610071578063d38aa59414610451578063d6393c5114610464578063d83c413c14610477578063e673d71f1461048a57600080fd5b8063a9711ee3146103e8578063af82f3e714610415578063b97b4f7714610428578063c5f530af1461044857600080fd5b80638992229f116100de5780638992229f1461039c5780638eb8f1a6146103af5780639e8e1e82146103c2578063a4fa28b4146103d557600080fd5b80635e12f31014610350578063753998c514610363578063789e5797146103765780637e888f261461038957600080fd5b806334881d20116101875780634e657d2a116101565780634e657d2a146102ec578063503c262f146102ff57806356bf7b57146103125780635796841a1461033d57600080fd5b806334881d20146102aa578063429eed56146102bd5780634a89d52b146102d05780634bdd4499146102e357600080fd5b80630cb6aaf1116101c35780630cb6aaf11461023d5780632265f2841461025e5780632fd5c24714610275578063333f61111461029757600080fd5b8063050b13e5146101ea57806305aacc7d146101ff5780630b0ad5081461022a575b600080fd5b6101fd6101f8366004612908565b61049d565b005b61021261020d36600461296b565b61062f565b604051610221939291906129bc565b60405180910390f35b6101fd6102383660046129db565b61072d565b61025061024b36600461296b565b6107b3565b604051610221929190612a07565b610267601a5481565b604051908152602001610221565b60005461028790610100900460ff1681565b6040519015158152602001610221565b6102876102a5366004612a38565b6107e5565b6101fd6102b8366004612908565b6108d6565b6101fd6102cb366004612b49565b6109b2565b6102876102de366004612a38565b610aa2565b61026760055481565b6101fd6102fa366004612a38565b610af9565b6101fd61030d366004612bbf565b610cca565b600754610325906001600160a01b031681565b6040516001600160a01b039091168152602001610221565b6101fd61034b366004612908565b610da8565b6101fd61035e366004612bbf565b611007565b6101fd610371366004612c2c565b61114a565b6101fd610384366004612908565b6112f9565b6101fd610397366004612908565b6113d5565b600654610325906001600160a01b031681565b6101fd6103bd366004612ce0565b61156b565b6101fd6103d0366004612bbf565b611714565b6101fd6103e3366004612c2c565b6118bc565b6102506103f636600461296b565b6002602052600090815260409020805460019091015460ff9091169082565b610287610423366004612d44565b6119ac565b61043b610436366004612d9d565b611a61565b6040516102219190612dbe565b61026760195481565b6101fd61045f366004612b49565b611c11565b6101fd610472366004612bbf565b611db7565b6101fd610485366004612908565b611f46565b6101fd610498366004612908565b6120ee565b600754604080516020808201859052825180830390910181528183019283905263333f611160e01b9092526001600160a01b039092169163333f6111916104ed9188918891889190604401612e7b565b6020604051808303816000875af115801561050c573d6000803e3d6000fd5b505050506040513d601f19601f820116820180604052508101906105309190612f5c565b6105555760405162461bcd60e51b815260040161054c90612f7e565b60405180910390fd5b60408051602081018390520160405160208183030381529060405280519060200120601854146105c75760405162461bcd60e51b815260206004820152601d60248201527f4d69736d61746368656420616476616e636545706f6368732068617368000000604482015260640161054c565b6006546040516205776560e91b8152600481018390526001600160a01b0390911690630aeeca0090602401600060405180830381600087803b15801561060c57600080fd5b505af1158015610620573d6000803e3d6000fd5b50506000601855505050505050565b60008181526002602081905260408083208151808301909252805484938493849390929091839160ff169081111561066957610669612984565b600281111561067a5761067a612984565b8152600191909101546020918201528101519091506000036106ae5760405162461bcd60e51b815260040161054c90612fab565b60005b60015481101561070d5785600182815481106106cf576106cf612fe2565b906000526020600020906002020160010154036106fb5781516020909201519194509092509050610726565b8061070581612ff8565b9150506106b1565b5060405162461bcd60e51b815260040161054c90612fab565b9193909250565b60005460ff16156107805760405162461bcd60e51b815260206004820181905260248201527f4c616d706f7274426173653a20416c726561647920696e697469616c697a6564604482015260640161054c565b61078b600084612623565b610796600083612623565b6107a1600182612623565b50506000805460ff1916600117905550565b600181815481106107c357600080fd5b60009182526020909120600290910201805460019091015460ff909116915082565b6000805460ff166108085760405162461bcd60e51b815260040161054c9061301f565b60008560405160200161081b9190613056565b60408051601f198184030181529190528051602090910120905060005b60008281526002602081905260409091205460ff169081111561085d5761085d612984565b1461086c5760009150506108ce565b6000838560405160200161088192919061308d565b6040516020818303038152906040528051906020012060001c905060006108a982888a6119ac565b9050806108bc57600093505050506108ce565b6108c6838761273c565b600193505050505b949350505050565b600754604080516020808201859052825180830390910181528183019283905263333f611160e01b9092526001600160a01b039092169163333f6111916109269188918891889190604401612e7b565b6020604051808303816000875af1158015610945573d6000803e3d6000fd5b505050506040513d601f19601f820116820180604052508101906109699190612f5c565b6109855760405162461bcd60e51b815260040161054c90612f7e565b60408051602081018390520160408051601f19818403018152919052805160209091012060175550505050565b6007546040516001600160a01b039091169063333f6111908790879087906109e090889088906020016130af565b6040516020818303038152906040526040518563ffffffff1660e01b8152600401610a0e9493929190612e7b565b6020604051808303816000875af1158015610a2d573d6000803e3d6000fd5b505050506040513d601f19601f82011682018060405250810190610a519190612f5c565b610a6d5760405162461bcd60e51b815260040161054c90612f7e565b8181604051602001610a809291906130af565b60408051601f1981840301815291905280516020909101206015555050505050565b6000805460ff16610ac55760405162461bcd60e51b815260040161054c9061301f565b600085604051602001610ad89190613056565b60408051601f19818403018152919052805160209091012090506001610838565b600054849084908490849060ff16610b235760405162461bcd60e51b815260040161054c9061301f565b600084604051602001610b369190613056565b60408051601f19818403018152919052805160209091012090506000808281526002602081905260409091205460ff1690811115610b7657610b76612984565b14610b935760405162461bcd60e51b815260040161054c906130d1565b60008284604051602001610ba892919061308d565b60408051601f1981840301815290829052805160209182012080835292506000805160206131e8833981519152910160405180910390a16000610bec8287896119ac565b6000805461ff00191661010083151502179055905080610c70576040518281526000805160206131c8833981519152906020015b60405180910390a160405162461bcd60e51b815260206004820181905260248201527f4c616d706f7274426173653a20566572696669636174696f6e206661696c6564604482015260640161054c565b6000838152600260205260409081902054905160008051602061320883398151915291610ca69160ff90911690869089906129bc565b60405180910390a1610cb8838661273c565b50505060059590955550505050505050565b6007546040516001600160a01b039091169063333f611190869086908690610cf6908790602001613108565b6040516020818303038152906040526040518563ffffffff1660e01b8152600401610d249493929190612e7b565b6020604051808303816000875af1158015610d43573d6000803e3d6000fd5b505050506040513d601f19601f82011682018060405250810190610d679190612f5c565b610d835760405162461bcd60e51b815260040161054c90612f7e565b601b80546001600160a01b0319166001600160a01b0392909216919091179055505050565b83838383604051602001610dbe91815260200190565b60408051601f1981840301815291905260005460ff16610df05760405162461bcd60e51b815260040161054c9061301f565b600084604051602001610e039190613056565b60408051601f19818403018152919052805160209091012090506000808281526002602081905260409091205460ff1690811115610e4357610e43612984565b14610e605760405162461bcd60e51b815260040161054c906130d1565b60008284604051602001610e7592919061308d565b60408051601f1981840301815290829052805160209182012080835292506000805160206131e8833981519152910160405180910390a16000610eb98287896119ac565b6000805461ff00191661010083151502179055905080610ef1576040518281526000805160206131c883398151915290602001610c20565b6000838152600260205260409081902054905160008051602061320883398151915291610f279160ff90911690869089906129bc565b60405180910390a1610f39838661273c565b60008b604051602001610f4c9190613056565b60408051601f19818403018152919052805160209091012060058054600090915590915081141580610fe8576040805162461bcd60e51b81526020600482015260248101919091527f4c616d706f7274426173653a20504b48206d617463686573206c61737420757360448201527f656420504b482028757365207365706172617465207365636f6e64206b657929606482015260840161054c565b610ff360008b612623565b505060006005555050505050505050505050565b6007546040516001600160a01b039091169063333f611190869086908690611033908790602001613108565b6040516020818303038152906040526040518563ffffffff1660e01b81526004016110619493929190612e7b565b6020604051808303816000875af1158015611080573d6000803e3d6000fd5b505050506040513d601f19601f820116820180604052508101906110a49190612f5c565b6110c05760405162461bcd60e51b815260040161054c90612f7e565b6001600160a01b0381166111255760405162461bcd60e51b815260206004820152602660248201527f53464320616464726573732063616e6e6f7420626520746865207a65726f206160448201526564647265737360d01b606482015260840161054c565b600a80546001600160a01b0319166001600160a01b0392909216919091179055505050565b6007546040516001600160a01b039091169063333f6111908790879087906111789088908890602001613125565b6040516020818303038152906040526040518563ffffffff1660e01b81526004016111a69493929190612e7b565b6020604051808303816000875af11580156111c5573d6000803e3d6000fd5b505050506040513d601f19601f820116820180604052508101906111e99190612f5c565b6112055760405162461bcd60e51b815260040161054c90612f7e565b8181604051602001611218929190613125565b60405160208183030381529060405280519060200120601654146112895760405162461bcd60e51b815260206004820152602260248201527f4d69736d617463686564207570646174654e6574776f726b52756c65732068616044820152610e6d60f31b606482015260840161054c565b600654604051632e731ac760e21b81526001600160a01b039091169063b9cc6b1c906112bb9085908590600401613135565b600060405180830381600087803b1580156112d557600080fd5b505af11580156112e9573d6000803e3d6000fd5b5050600060165550505050505050565b600754604080516020808201859052825180830390910181528183019283905263333f611160e01b9092526001600160a01b039092169163333f6111916113499188918891889190604401612e7b565b6020604051808303816000875af1158015611368573d6000803e3d6000fd5b505050506040513d601f19601f8201168201806040525081019061138c9190612f5c565b6113a85760405162461bcd60e51b815260040161054c90612f7e565b60408051602081018390520160408051601f19818403018152919052805160209091012060185550505050565b600754604080516020808201859052825180830390910181528183019283905263333f611160e01b9092526001600160a01b039092169163333f6111916114259188918891889190604401612e7b565b6020604051808303816000875af1158015611444573d6000803e3d6000fd5b505050506040513d601f19601f820116820180604052508101906114689190612f5c565b6114845760405162461bcd60e51b815260040161054c90612f7e565b60408051602081018390520160405160208183030381529060405280519060200120601754146115025760405162461bcd60e51b8152602060048201526024808201527f4d69736d617463686564207570646174654e6574776f726b56657273696f6e206044820152630d0c2e6d60e31b606482015260840161054c565b60065460405163133d5a2360e11b8152600481018390526001600160a01b039091169063267ab44690602401600060405180830381600087803b15801561154857600080fd5b505af115801561155c573d6000803e3d6000fd5b50506000601755505050505050565b8382848360405160200161158191815260200190565b60408051601f1981840301815291905260005460ff166115b35760405162461bcd60e51b815260040161054c9061301f565b6000846040516020016115c69190613056565b60408051601f19818403018152919052805160209091012090506000808281526002602081905260409091205460ff169081111561160657611606612984565b146116235760405162461bcd60e51b815260040161054c906130d1565b6000828460405160200161163892919061308d565b60408051601f1981840301815290829052805160209182012080835292506000805160206131e8833981519152910160405180910390a1600061167c8287896119ac565b6000805461ff001916610100831515021790559050806116b4576040518281526000805160206131c883398151915290602001610c20565b60008381526002602052604090819020549051600080516020613208833981519152916116ea9160ff90911690869089906129bc565b60405180910390a16116fc838661273c565b611707600189612623565b5050505050505050505050565b6007546040516001600160a01b039091169063333f611190869086908690611740908790602001613108565b6040516020818303038152906040526040518563ffffffff1660e01b815260040161176e9493929190612e7b565b6020604051808303816000875af115801561178d573d6000803e3d6000fd5b505050506040513d601f19601f820116820180604052508101906117b19190612f5c565b6117cd5760405162461bcd60e51b815260040161054c90612f7e565b601b546001600160a01b038281169116146118475760405162461bcd60e51b815260206004820152603460248201527f4d69736d61746368656420766f7465426f6f6b2061646472657373206265747760448201527365656e2073746570206f6e6520616e642074776f60601b606482015260840161054c565b6006546040516302a81acd60e51b81526001600160a01b0383811660048301529091169063550359a090602401600060405180830381600087803b15801561188e57600080fd5b505af11580156118a2573d6000803e3d6000fd5b5050601b80546001600160a01b0319169055505050505050565b6007546040516001600160a01b039091169063333f6111908790879087906118ea9088908890602001613125565b6040516020818303038152906040526040518563ffffffff1660e01b81526004016119189493929190612e7b565b6020604051808303816000875af1158015611937573d6000803e3d6000fd5b505050506040513d601f19601f8201168201806040525081019061195b9190612f5c565b6119775760405162461bcd60e51b815260040161054c90612f7e565b818160405160200161198a929190613125565b60408051601f1981840301815291905280516020909101206016555050505050565b6000805b610100811015611a5457838161010081106119cd576119cd612fe2565b6020028101906119dd9190613149565b6040516119eb929190613125565b604051809103902083826101008110611a0657611a06612fe2565b6040020160008360ff036001901b881611611a22576000611a25565b60015b60ff1660028110611a3857611a38612fe2565b602002013514611a4c576000915050611a5a565b6001016119b0565b50600190505b9392505050565b60015460609060009067ffffffffffffffff811115611a8257611a82612a22565b604051908082528060200260200182016040528015611aab578160200160208202803683370190505b5090506000805b600154811015611b6c57846002811115611ace57611ace612984565b60018281548110611ae157611ae1612fe2565b600091825260209091206002918202015460ff1690811115611b0557611b05612984565b03611b5a5760018181548110611b1d57611b1d612fe2565b906000526020600020906002020160010154838381518110611b4157611b41612fe2565b602090810291909101015281611b5681612ff8565b9250505b80611b6481612ff8565b915050611ab2565b5060008167ffffffffffffffff811115611b8857611b88612a22565b604051908082528060200260200182016040528015611bb1578160200160208202803683370190505b50905060005b82811015611c0857838181518110611bd157611bd1612fe2565b6020026020010151828281518110611beb57611beb612fe2565b602090810291909101015280611c0081612ff8565b915050611bb7565b50949350505050565b6007546040516001600160a01b039091169063333f611190879087908790611c3f90889088906020016130af565b6040516020818303038152906040526040518563ffffffff1660e01b8152600401611c6d9493929190612e7b565b6020604051808303816000875af1158015611c8c573d6000803e3d6000fd5b505050506040513d601f19601f82011682018060405250810190611cb09190612f5c565b611ccc5760405162461bcd60e51b815260040161054c90612f7e565b8181604051602001611cdf9291906130af565b6040516020818303038152906040528051906020012060155414611d455760405162461bcd60e51b815260206004820152601860248201527f4d69736d61746368656420696e634e6f6e636520686173680000000000000000604482015260640161054c565b600654604051630f37d5a760e31b81526001600160a01b03848116600483015260248201849052909116906379bead3890604401600060405180830381600087803b158015611d9357600080fd5b505af1158015611da7573d6000803e3d6000fd5b5050600060155550505050505050565b6007546040516001600160a01b039091169063333f611190869086908690611de3908790602001613108565b6040516020818303038152906040526040518563ffffffff1660e01b8152600401611e119493929190612e7b565b6020604051808303816000875af1158015611e30573d6000803e3d6000fd5b505050506040513d601f19601f82011682018060405250810190611e549190612f5c565b611e705760405162461bcd60e51b815260040161054c90612f7e565b600a546001600160a01b03828116911614611ee55760405162461bcd60e51b815260206004820152602f60248201527f4d69736d617463686564205346432061646472657373206265747765656e207360448201526e746570206f6e6520616e642074776f60881b606482015260840161054c565b600680546001600160a01b0383166001600160a01b03199182168117909255600a805490911690556040519081527fa58e865b123363c0f0ca6529faf8ecd8c7333dda1dd61e7e054cb9ea7c18c4879060200160405180910390a150505050565b83838383604051602001611f5c91815260200190565b60408051601f1981840301815291905260005460ff16611f8e5760405162461bcd60e51b815260040161054c9061301f565b600084604051602001611fa19190613056565b60408051601f19818403018152919052805160209091012090506000808281526002602081905260409091205460ff1690811115611fe157611fe1612984565b14611ffe5760405162461bcd60e51b815260040161054c906130d1565b6000828460405160200161201392919061308d565b60408051601f1981840301815290829052805160209182012080835292506000805160206131e8833981519152910160405180910390a160006120578287896119ac565b6000805461ff0019166101008315150217905590508061208f576040518281526000805160206131c883398151915290602001610c20565b60008381526002602052604090819020549051600080516020613208833981519152916120c59160ff90911690869089906129bc565b60405180910390a16120d7838661273c565b505050600394909455505050600491909155505050565b8383838360405160200161210491815260200190565b60408051601f1981840301815291905260005460ff166121365760405162461bcd60e51b815260040161054c9061301f565b6000846040516020016121499190613056565b60408051601f19818403018152919052805160209091012090506000808281526002602081905260409091205460ff169081111561218957612189612984565b146121a65760405162461bcd60e51b815260040161054c906130d1565b600082846040516020016121bb92919061308d565b60408051601f1981840301815290829052805160209182012080835292506000805160206131e8833981519152910160405180910390a160006121ff8287896119ac565b6000805461ff00191661010083151502179055905080612237576040518281526000805160206131c883398151915290602001610c20565b600083815260026020526040908190205490516000805160206132088339815191529161226d9160ff90911690869089906129bc565b60405180910390a161227f838661273c565b60008b6040516020016122929190613056565b604051602081830303815290604052805190602001209050600454810361232b5760405162461bcd60e51b815260206004820152604160248201527f4c616d706f7274426173653a2043616e6e6f7420757365207468652073616d6560448201527f206b6579636861696e20747769636520666f7220746869732066756e6374696f6064820152603760f91b608482015260a40161054c565b886003541461237c5760405162461bcd60e51b815260206004820152601e60248201527f4c616d706f7274426173653a204b65797320646f206e6f74206d617463680000604482015260640161054c565b600454818a6000808481526002602081905260409091205460ff16908111156123a7576123a7612984565b1480156123d55750600082815260026020819052604082205460ff16908111156123d3576123d3612984565b145b6124385760405162461bcd60e51b815260206004820152602e60248201527f4c616d706f7274426173653a2050726f7669646564206b65797320617265206e60448201526d6f74206d6173746572206b65797360901b606482015260840161054c565b8281141580156124485750818114155b6124ae5760405162461bcd60e51b815260206004820152603160248201527f4c616d706f7274426173653a204d6173746572206b6579732063616e6e6f742060448201527064656c657465207468656d73656c76657360781b606482015260840161054c565b600081815260026020526040812060010154900361251a5760405162461bcd60e51b815260206004820152602360248201527f4c616d706f7274426173653a204e6f2073756368206b6579202864656c6574696044820152626f6e2960e81b606482015260840161054c565b60005b60015481101561260757816001828154811061253b5761253b612fe2565b906000526020600020906002020160010154036125f557600082815260026020818152604080842080548251428186015244818501528351808203850181526060909101938490528051908501209588905292849052630de1e7ed60e41b85186001820181905560ff198416851790915560ff9092169391927f0643be3612916977c69d5ed1abb75a50cca49df49ba2444d836e2a0cf65fe074916125e591869189918791613197565b60405180910390a1505050612607565b806125ff81612ff8565b91505061251d565b5050600060038190556004555050505050505050505050505050565b6000604051806040016040528084600281111561264257612642612984565b81526020018390526001805480820182556000829052825160029182027fb10e2d527612073b26eecdfd717e6a320cf44b4afac2b0732d9fcbe2b7fa0cf6018054949550859490939192849260ff19909216919084908111156126a7576126a7612984565b021790555060209182015160019182015560008481526002928390526040902083518154859492939192849260ff19909216919084908111156126ec576126ec612984565b0217905550602082015181600101559050507f2172c7b01a6de957d29fd6166a23025d181bf56538ad606a526ab2d62603f3fc838360405161272f929190612a07565b60405180910390a1505050565b600082815260026020526040812060010154900361276c5760405162461bcd60e51b815260040161054c90612fab565b604080518082018252600084815260026020819052928120549092829160ff169081111561279c5761279c612984565b8152602001838152509050806002600084815260200190815260200160002060008201518160000160006101000a81548160ff021916908360028111156127e5576127e5612984565b02179055506020918201516001918201556000858152600290925260408220805460ff19168155018190555b6001548110156128bb57836001828154811061282f5761282f612fe2565b906000526020600020906002020160010154036128a957816001828154811061285a5761285a612fe2565b906000526020600020906002020160008201518160000160006101000a81548160ff0219169083600281111561289257612892612984565b0217905550602082015181600101559050506128bb565b806128b381612ff8565b915050612811565b5080516040516000805160206132088339815191529161272f91869086906129bc565b8061400081018310156128f057600080fd5b92915050565b8061200081018310156128f057600080fd5b600080600080614060858703121561291f57600080fd5b61292986866128de565b935061400085013567ffffffffffffffff81111561294657600080fd5b612952878288016128f6565b9497949650505050614020830135926140400135919050565b60006020828403121561297d57600080fd5b5035919050565b634e487b7160e01b600052602160045260246000fd5b600381106129b857634e487b7160e01b600052602160045260246000fd5b9052565b606081016129ca828661299a565b602082019390935260400152919050565b6000806000606084860312156129f057600080fd5b505081359360208301359350604090920135919050565b60408101612a15828561299a565b8260208301529392505050565b634e487b7160e01b600052604160045260246000fd5b6000806000806140608587031215612a4f57600080fd5b612a5986866128de565b935061400085013567ffffffffffffffff80821115612a7757600080fd5b612a83888389016128f6565b94506140208701359350614040870135915080821115612aa257600080fd5b818701915087601f830112612ab657600080fd5b813581811115612ac857612ac8612a22565b604051601f8201601f19908116603f01168101908382118183101715612af057612af0612a22565b816040528281528a6020848701011115612b0957600080fd5b82602086016020830137600060208483010152809550505050505092959194509250565b80356001600160a01b0381168114612b4457600080fd5b919050565b60008060008060006140808688031215612b6257600080fd5b612b6c87876128de565b945061400086013567ffffffffffffffff811115612b8957600080fd5b612b95888289016128f6565b9450506140208601359250612bad6140408701612b2d565b94979396509194614060013592915050565b6000806000806140608587031215612bd657600080fd5b612be086866128de565b935061400085013567ffffffffffffffff811115612bfd57600080fd5b612c09878288016128f6565b9350506140208501359150612c216140408601612b2d565b905092959194509250565b60008060008060006140608688031215612c4557600080fd5b612c4f87876128de565b945061400086013567ffffffffffffffff80821115612c6d57600080fd5b612c7989838a016128f6565b95506140208801359450614040880135915080821115612c9857600080fd5b818801915088601f830112612cac57600080fd5b813581811115612cbb57600080fd5b896020828501011115612ccd57600080fd5b9699959850939650602001949392505050565b6000806000806140608587031215612cf757600080fd5b612d0186866128de565b9350614000850135925061402085013567ffffffffffffffff811115612d2657600080fd5b612d32878288016128f6565b94979396509394614040013593505050565b60008060006140408486031215612d5a57600080fd5b83359250602084013567ffffffffffffffff811115612d7857600080fd5b612d84868287016128f6565b925050612d9485604086016128de565b90509250925092565b600060208284031215612daf57600080fd5b813560038110611a5a57600080fd5b6020808252825182820181905260009190848201906040850190845b81811015612df657835183529284019291840191600101612dda565b50909695505050505050565b81835281816020850137506000828201602090810191909152601f909101601f19169091010190565b60005b83811015612e46578181015183820152602001612e2e565b50506000910152565b60008151808452612e67816020860160208601612e2b565b601f01601f19169290920160200192915050565b60006140608281018388845b610100811015612ea857604080838537928301929190910190600101612e87565b50505061400084019190915261606083018660005b610100811015612f345785830361405f190184528135368a9003601e19018112612ee657600080fd5b8901602081810191359067ffffffffffffffff821115612f0557600080fd5b813603831315612f1457600080fd5b612f1f868385612e02565b96810196955093909301925050600101612ebd565b505085614020850152838103614040850152612f508186612e4f565b98975050505050505050565b600060208284031215612f6e57600080fd5b81518015158114611a5a57600080fd5b60208082526013908201527213585cdd195c8818da1958dac819985a5b1959606a1b604082015260600190565b60208082526018908201527f4c616d706f7274426173653a204e6f2073756368206b65790000000000000000604082015260600190565b634e487b7160e01b600052603260045260246000fd5b60006001820161301857634e487b7160e01b600052601160045260246000fd5b5060010190565b6020808252601c908201527f4c616d706f7274426173653a206e6f7420696e697469616c697a656400000000604082015260600190565b60008183825b61010081101561307d5760408083853792830192919091019060010161305c565b5050506140008201905092915050565b6000835161309f818460208801612e2b565b9190910191825250602001919050565b60609290921b6bffffffffffffffffffffffff19168252601482015260340190565b6020808252601d908201527f4c616d706f7274426173653a204e6f742061206d6173746572206b6579000000604082015260600190565b60609190911b6bffffffffffffffffffffffff1916815260140190565b8183823760009101908152919050565b6020815260006108ce602083018486612e02565b6000808335601e1984360301811261316057600080fd5b83018035915067ffffffffffffffff82111561317b57600080fd5b60200191503681900382131561319057600080fd5b9250929050565b608081016131a5828761299a565b8460208301528360408301526131be606083018461299a565b9594505050505056fe32629d580208e19f97e5752eef849e102f803999c88aa7f75e12b1744eecd5a7d87e68f36f73a7eb22739d6639e36cafebfcde0b5543340b39f42cac68fdd1f06825a39bd161f4ef5aab6cfd2c26db3ee0005c11b43cffd544fc876312116edda264697066735822122053cb7af8bde3f7df0b10d1c23d1c9578c47ce9b4fc73660830c748c2121166fd64736f6c63430008150033",
  "bytecodeSha1": "60a6702a8810d8b63df10cb85af6fbc35ce97f5f",
  "compiler": {
    "evm_version": "istanbul",
    "optimizer": {
      "enabled": true,
      "runs": 200
    },
    "version": "0.8.21+commit.d9974bed"
  },
  "contractName": "SFCInterfacePart2",
  "language": "Solidity",
  "natspec": {
    "kind": "dev",
    "methods": {},
    "version": 1
  },
  "opcodes": "PUSH1 0x80 PUSH1 0x40 MSTORE CALLVALUE DUP1 ISZERO PUSH2 0x10 JUMPI PUSH1 0x0 DUP1 REVERT JUMPDEST POP PUSH1 0x4 CALLDATASIZE LT PUSH2 0x1E5 JUMPI PUSH1 0x0 CALLDATALOAD PUSH1 0xE0 SHR DUP1 PUSH4 0x5E12F310 GT PUSH2 0x10F JUMPI DUP1 PUSH4 0xA9711EE3 GT PUSH2 0xA2 JUMPI DUP1 PUSH4 0xD38AA594 GT PUSH2 0x71 JUMPI DUP1 PUSH4 0xD38AA594 EQ PUSH2 0x451 JUMPI DUP1 PUSH4 0xD6393C51 EQ PUSH2 0x464 JUMPI DUP1 PUSH4 0xD83C413C EQ PUSH2 0x477 JUMPI DUP1 PUSH4 0xE673D71F EQ PUSH2 0x48A JUMPI PUSH1 0x0 DUP1 REVERT JUMPDEST DUP1 PUSH4 0xA9711EE3 EQ PUSH2 0x3E8 JUMPI DUP1 PUSH4 0xAF82F3E7 EQ PUSH2 0x415 JUMPI DUP1 PUSH4 0xB97B4F77 EQ PUSH2 0x428 JUMPI DUP1 PUSH4 0xC5F530AF EQ PUSH2 0x448 JUMPI PUSH1 0x0 DUP1 REVERT JUMPDEST DUP1 PUSH4 0x8992229F GT PUSH2 0xDE JUMPI DUP1 PUSH4 0x8992229F EQ PUSH2 0x39C JUMPI DUP1 PUSH4 0x8EB8F1A6 EQ PUSH2 0x3AF JUMPI DUP1 PUSH4 0x9E8E1E82 EQ PUSH2 0x3C2 JUMPI DUP1 PUSH4 0xA4FA28B4 EQ PUSH2 0x3D5 JUMPI PUSH1 0x0 DUP1 REVERT JUMPDEST DUP1 PUSH4 0x5E12F310 EQ PUSH2 0x350 JUMPI DUP1 PUSH4 0x753998C5 EQ PUSH2 0x363 JUMPI DUP1 PUSH4 0x789E5797 EQ PUSH2 0x376 JUMPI DUP1 PUSH4 0x7E888F26 EQ PUSH2 0x389 JUMPI PUSH1 0x0 DUP1 REVERT JUMPDEST DUP1 PUSH4 0x34881D20 GT PUSH2 0x187 JUMPI DUP1 PUSH4 0x4E657D2A GT PUSH2 0x156 JUMPI DUP1 PUSH4 0x4E657D2A EQ PUSH2 0x2EC JUMPI DUP1 PUSH4 0x503C262F EQ PUSH2 0x2FF JUMPI DUP1 PUSH4 0x56BF7B57 EQ PUSH2 0x312 JUMPI DUP1 PUSH4 0x5796841A EQ PUSH2 0x33D JUMPI PUSH1 0x0 DUP1 REVERT JUMPDEST DUP1 PUSH4 0x34881D20 EQ PUSH2 0x2AA JUMPI DUP1 PUSH4 0x429EED56 EQ PUSH2 0x2BD JUMPI DUP1 PUSH4 0x4A89D52B EQ PUSH2 0x2D0 JUMPI DUP1 PUSH4 0x4BDD4499 EQ PUSH2 0x2E3 JUMPI PUSH1 0x0 DUP1 REVERT JUMPDEST DUP1 PUSH4 0xCB6AAF1 GT PUSH2 0x1C3 JUMPI DUP1 PUSH4 0xCB6AAF1 EQ PUSH2 0x23D JUMPI DUP1 PUSH4 0x2265F284 EQ PUSH2 0x25E JUMPI DUP1 PUSH4 0x2FD5C247 EQ PUSH2 0x275 JUMPI DUP1 PUSH4 0x333F6111 EQ PUSH2 0x297 JUMPI PUSH1 0x0 DUP1 REVERT JUMPDEST DUP1 PUSH4 0x50B13E5 EQ PUSH2 0x1EA JUMPI DUP1 PUSH4 0x5AACC7D EQ PUSH2 0x1FF JUMPI DUP1 PUSH4 0xB0AD508 EQ PUSH2 0x22A JUMPI JUMPDEST PUSH1 0x0 DUP1 REVERT JUMPDEST PUSH2 0x1FD PUSH2 0x1F8 CALLDATASIZE PUSH1 0x4 PUSH2 0x2908 JUMP JUMPDEST PUSH2 0x49D JUMP JUMPDEST STOP JUMPDEST PUSH2 0x212 PUSH2 0x20D CALLDATASIZE PUSH1 0x4 PUSH2 0x296B JUMP JUMPDEST PUSH2 0x62F JUMP JUMPDEST PUSH1 0x40 MLOAD PUSH2 0x221 SWAP4 SWAP3 SWAP2 SWAP1 PUSH2 0x29BC JUMP JUMPDEST PUSH1 0x40 MLOAD DUP1 SWAP2 SUB SWAP1 RETURN JUMPDEST PUSH2 0x1FD PUSH2 0x238 CALLDATASIZE PUSH1 0x4 PUSH2 0x29DB JUMP JUMPDEST PUSH2 0x72D JUMP JUMPDEST PUSH2 0x250 PUSH2 0x24B CALLDATASIZE PUSH1 0x4 PUSH2 0x296B JUMP JUMPDEST PUSH2 0x7B3 JUMP JUMPDEST PUSH1 0x40 MLOAD PUSH2 0x221 SWAP3 SWAP2 SWAP1 PUSH2 0x2A07 JUMP JUMPDEST PUSH2 0x267 PUSH1 0x1A SLOAD DUP2 JUMP JUMPDEST PUSH1 0x40 MLOAD SWAP1 DUP2 MSTORE PUSH1 0x20 ADD PUSH2 0x221 JUMP JUMPDEST PUSH1 0x0 SLOAD PUSH2 0x287 SWAP1 PUSH2 0x100 SWAP1 DIV PUSH1 0xFF AND DUP2 JUMP JUMPDEST PUSH1 0x40 MLOAD SWAP1 ISZERO ISZERO DUP2 MSTORE PUSH1 0x20 ADD PUSH2 0x221 JUMP JUMPDEST PUSH2 0x287 PUSH2 0x2A5 CALLDATASIZE PUSH1 0x4 PUSH2 0x2A38 JUMP JUMPDEST PUSH2 0x7E5 JUMP JUMPDEST PUSH2 0x1FD PUSH2 0x2B8 CALLDATASIZE PUSH1 0x4 PUSH2 0x2908 JUMP JUMPDEST PUSH2 0x8D6 JUMP JUMPDEST PUSH2 0x1FD PUSH2 0x2CB CALLDATASIZE PUSH1 0x4 PUSH2 0x2B49 JUMP JUMPDEST PUSH2 0x9B2 JUMP JUMPDEST PUSH2 0x287 PUSH2 0x2DE CALLDATASIZE PUSH1 0x4 PUSH2 0x2A38 JUMP JUMPDEST PUSH2 0xAA2 JUMP JUMPDEST PUSH2 0x267 PUSH1 0x5 SLOAD DUP2 JUMP JUMPDEST PUSH2 0x1FD PUSH2 0x2FA CALLDATASIZE PUSH1 0x4 PUSH2 0x2A38 JUMP JUMPDEST PUSH2 0xAF9 JUMP JUMPDEST PUSH2 0x1FD PUSH2 0x30D CALLDATASIZE PUSH1 0x4 PUSH2 0x2BBF JUMP JUMPDEST PUSH2 0xCCA JUMP JUMPDEST PUSH1 0x7 SLOAD PUSH2 0x325 SWAP1 PUSH1 0x1 PUSH1 0x1 PUSH1 0xA0 SHL SUB AND DUP2 JUMP JUMPDEST PUSH1 0x40 MLOAD PUSH1 0x1 PUSH1 0x1 PUSH1 0xA0 SHL SUB SWAP1 SWAP2 AND DUP2 MSTORE PUSH1 0x20 ADD PUSH2 0x221 JUMP JUMPDEST PUSH2 0x1FD PUSH2 0x34B CALLDATASIZE PUSH1 0x4 PUSH2 0x2908 JUMP JUMPDEST PUSH2 0xDA8 JUMP JUMPDEST PUSH2 0x1FD PUSH2 0x35E CALLDATASIZE PUSH1 0x4 PUSH2 0x2BBF JUMP JUMPDEST PUSH2 0x1007 JUMP JUMPDEST PUSH2 0x1FD PUSH2 0x371 CALLDATASIZE PUSH1 0x4 PUSH2 0x2C2C JUMP JUMPDEST PUSH2 0x114A JUMP JUMPDEST PUSH2 0x1FD PUSH2 0x384 CALLDATASIZE PUSH1 0x4 PUSH2 0x2908 JUMP JUMPDEST PUSH2 0x12F9 JUMP JUMPDEST PUSH2 0x1FD PUSH2 0x397 CALLDATASIZE PUSH1 0x4 PUSH2 0x2908 JUMP JUMPDEST PUSH2 0x13D5 JUMP JUMPDEST PUSH1 0x6 SLOAD PUSH2 0x325 SWAP1 PUSH1 0x1 PUSH1 0x1 PUSH1 0xA0 SHL SUB AND DUP2 JUMP JUMPDEST PUSH2 0x1FD PUSH2 0x3BD CALLDATASIZE PUSH1 0x4 PUSH2 0x2CE0 JUMP JUMPDEST PUSH2 0x156B JUMP JUMPDEST PUSH2 0x1FD PUSH2 0x3D0 CALLDATASIZE PUSH1 0x4 PUSH2 0x2BBF JUMP JUMPDEST PUSH2 0x1714 JUMP JUMPDEST PUSH2 0x1FD PUSH2 0x3E3 CALLDATASIZE PUSH1 0x4 PUSH2 0x2C2C JUMP JUMPDEST PUSH2 0x18BC JUMP JUMPDEST PUSH2 0x250 PUSH2 0x3F6 CALLDATASIZE PUSH1 0x4 PUSH2 0x296B JUMP JUMPDEST PUSH1 0x2 PUSH1 0x20 MSTORE PUSH1 0x0 SWAP1 DUP2 MSTORE PUSH1 0x40 SWAP1 KECCAK256 DUP1 SLOAD PUSH1 0x1 SWAP1 SWAP2 ADD SLOAD PUSH1 0xFF SWAP1 SWAP2 AND SWAP1 DUP3 JUMP JUMPDEST PUSH2 0x287 PUSH2 0x423 CALLDATASIZE PUSH1 0x4 PUSH2 0x2D44 JUMP JUMPDEST PUSH2 0x19AC JUMP JUMPDEST PUSH2 0x43B PUSH2 0x436 CALLDATASIZE PUSH1 0x4 PUSH2 0x2D9D JUMP JUMPDEST PUSH2 0x1A61 JUMP JUMPDEST PUSH1 0x40 MLOAD PUSH2 0x221 SWAP2 SWAP1 PUSH2 0x2DBE JUMP JUMPDEST PUSH2 0x267 PUSH1 0x19 SLOAD DUP2 JUMP JUMPDEST PUSH2 0x1FD PUSH2 0x45F CALLDATASIZE PUSH1 0x4 PUSH2 0x2B49 JUMP JUMPDEST PUSH2 0x1C11 JUMP JUMPDEST PUSH2 0x1FD PUSH2 0x472 CALLDATASIZE PUSH1 0x4 PUSH2 0x2BBF JUMP JUMPDEST PUSH2 0x1DB7 JUMP JUMPDEST PUSH2 0x1FD PUSH2 0x485 CALLDATASIZE PUSH1 0x4 PUSH2 0x2908 JUMP JUMPDEST PUSH2 0x1F46 JUMP JUMPDEST PUSH2 0x1FD PUSH2 0x498 CALLDATASIZE PUSH1 0x4 PUSH2 0x2908 JUMP JUMPDEST PUSH2 0x20EE JUMP JUMPDEST PUSH1 0x7 SLOAD PUSH1 0x40 DUP1 MLOAD PUSH1 0x20 DUP1 DUP3 ADD DUP6 SWAP1 MSTORE DUP3 MLOAD DUP1 DUP4 SUB SWAP1 SWAP2 ADD DUP2 MSTORE DUP2 DUP4 ADD SWAP3 DUP4 SWAP1 MSTORE PUSH4 0x333F6111 PUSH1 0xE0 SHL SWAP1 SWAP3 MSTORE PUSH1 0x1 PUSH1 0x1 PUSH1 0xA0 SHL SUB SWAP1 SWAP3 AND SWAP2 PUSH4 0x333F6111 SWAP2 PUSH2 0x4ED SWAP2 DUP9 SWAP2 DUP9 SWAP2 DUP9 SWAP2 SWAP1 PUSH1 0x44 ADD PUSH2 0x2E7B JUMP JUMPDEST PUSH1 0x20 PUSH1 0x40 MLOAD DUP1 DUP4 SUB DUP2 PUSH1 0x0 DUP8 GAS CALL ISZERO DUP1 ISZERO PUSH2 0x50C JUMPI RETURNDATASIZE PUSH1 0x0 DUP1 RETURNDATACOPY RETURNDATASIZE PUSH1 0x0 REVERT JUMPDEST POP POP POP POP PUSH1 0x40 MLOAD RETURNDATASIZE PUSH1 0x1F NOT PUSH1 0x1F DUP3 ADD AND DUP3 ADD DUP1 PUSH1 0x40 MSTORE POP DUP2 ADD SWAP1 PUSH2 0x530 SWAP2 SWAP1 PUSH2 0x2F5C JUMP JUMPDEST PUSH2 0x555 JUMPI PUSH1 0x40 MLOAD PUSH3 0x461BCD PUSH1 0xE5 SHL DUP2 MSTORE PUSH1 0x4 ADD PUSH2 0x54C SWAP1 PUSH2 0x2F7E JUMP JUMPDEST PUSH1 0x40 MLOAD DUP1 SWAP2 SUB SWAP1 REVERT JUMPDEST PUSH1 0x40 DUP1 MLOAD PUSH1 0x20 DUP2 ADD DUP4 SWAP1 MSTORE ADD PUSH1 0x40 MLOAD PUSH1 0x20 DUP2 DUP4 SUB SUB DUP2 MSTORE SWAP1 PUSH1 0x40 MSTORE DUP1 MLOAD SWAP1 PUSH1 0x20 ADD KECCAK256 PUSH1 0x18 SLOAD EQ PUSH2 0x5C7 JUMPI PUSH1 0x40 MLOAD PUSH3 0x461BCD PUSH1 0xE5 SHL DUP2 MSTORE PUSH1 0x20 PUSH1 0x4 DUP3 ADD MSTORE PUSH1 0x1D PUSH1 0x24 DUP3 ADD MSTORE PUSH32 0x4D69736D61746368656420616476616E636545706F6368732068617368000000 PUSH1 0x44 DUP3 ADD MSTORE PUSH1 0x64 ADD PUSH2 0x54C JUMP JUMPDEST PUSH1 0x6 SLOAD PUSH1 0x40 MLOAD PUSH3 0x57765 PUSH1 0xE9 SHL DUP2 MSTORE PUSH1 0x4 DUP2 ADD DUP4 SWAP1 MSTORE PUSH1 0x1 PUSH1 0x1 PUSH1 0xA0 SHL SUB SWAP1 SWAP2 AND SWAP1 PUSH4 0xAEECA00 SWAP1 PUSH1 0x24 ADD PUSH1 0x0 PUSH1 0x40 MLOAD DUP1 DUP4 SUB DUP2 PUSH1 0x0 DUP8 DUP1 EXTCODESIZE ISZERO DUP1 ISZERO PUSH2 0x60C JUMPI PUSH1 0x0 DUP1 REVERT JUMPDEST POP GAS CALL ISZERO DUP1 ISZERO PUSH2 0x620 JUMPI RETURNDATASIZE PUSH1 0x0 DUP1 RETURNDATACOPY RETURNDATASIZE PUSH1 0x0 REVERT JUMPDEST POP POP PUSH1 0x0 PUSH1 0x18 SSTORE POP POP POP POP POP POP JUMP JUMPDEST PUSH1 0x0 DUP2 DUP2 MSTORE PUSH1 0x2 PUSH1 0x20 DUP2 SWAP1 MSTORE PUSH1 0x40 DUP1 DUP4 KECCAK256 DUP2 MLOAD DUP1 DUP4 ADD SWAP1 SWAP3 MSTORE DUP1 SLOAD DUP5 SWAP4 DUP5 SWAP4 DUP5 SWAP4 SWAP1 SWAP3 SWAP1 SWAP2 DUP4 SWAP2 PUSH1 0xFF AND SWAP1 DUP2 GT ISZERO PUSH2 0x669 JUMPI PUSH2 0x669 PUSH2 0x2984 JUMP JUMPDEST PUSH1 0x2 DUP2 GT ISZERO PUSH2 0x67A JUMPI PUSH2 0x67A PUSH2 0x2984 JUMP JUMPDEST DUP2 MSTORE PUSH1 0x1 SWAP2 SWAP1 SWAP2 ADD SLOAD PUSH1 0x20 SWAP2 DUP3 ADD MSTORE DUP2 ADD MLOAD SWAP1 SWAP2 POP PUSH1 0x0 SUB PUSH2 0x6AE JUMPI PUSH1 0x40 MLOAD PUSH3 0x461BCD PUSH1 0xE5 SHL DUP2 MSTORE PUSH1 0x4 ADD PUSH2 0x54C SWAP1 PUSH2 0x2FAB JUMP JUMPDEST PUSH1 0x0 JUMPDEST PUSH1 0x1 SLOAD DUP2 LT ISZERO PUSH2 0x70D JUMPI DUP6 PUSH1 0x1 DUP3 DUP2 SLOAD DUP2 LT PUSH2 0x6CF JUMPI PUSH2 0x6CF PUSH2 0x2FE2 JUMP JUMPDEST SWAP1 PUSH1 0x0 MSTORE PUSH1 0x20 PUSH1 0x0 KECCAK256 SWAP1 PUSH1 0x2 MUL ADD PUSH1 0x1 ADD SLOAD SUB PUSH2 0x6FB JUMPI DUP2 MLOAD PUSH1 0x20 SWAP1 SWAP3 ADD MLOAD SWAP2 SWAP5 POP SWAP1 SWAP3 POP SWAP1 POP PUSH2 0x726 JUMP JUMPDEST DUP1 PUSH2 0x705 DUP2 PUSH2 0x2FF8 JUMP JUMPDEST SWAP2 POP POP PUSH2 0x6B1 JUMP JUMPDEST POP PUSH1 0x40 MLOAD PUSH3 0x461BCD PUSH1 0xE5 SHL DUP2 MSTORE PUSH1 0x4 ADD PUSH2 0x54C SWAP1 PUSH2 0x2FAB JUMP JUMPDEST SWAP2 SWAP4 SWAP1 SWAP3 POP JUMP JUMPDEST PUSH1 0x0 SLOAD PUSH1 0xFF AND ISZERO PUSH2 0x780 JUMPI PUSH1 0x40 MLOAD PUSH3 0x461BCD PUSH1 0xE5 SHL DUP2 MSTORE PUSH1 0x20 PUSH1 0x4 DUP3 ADD DUP2 SWAP1 MSTORE PUSH1 0x24 DUP3 ADD MSTORE PUSH32 0x4C616D706F7274426173653A20416C726561647920696E697469616C697A6564 PUSH1 0x44 DUP3 ADD MSTORE PUSH1 0x64 ADD PUSH2 0x54C JUMP JUMPDEST PUSH2 0x78B PUSH1 0x0 DUP5 PUSH2 0x2623 JUMP JUMPDEST PUSH2 0x796 PUSH1 0x0 DUP4 PUSH2 0x2623 JUMP JUMPDEST PUSH2 0x7A1 PUSH1 0x1 DUP3 PUSH2 0x2623 JUMP JUMPDEST POP POP PUSH1 0x0 DUP1 SLOAD PUSH1 0xFF NOT AND PUSH1 0x1 OR SWAP1 SSTORE POP JUMP JUMPDEST PUSH1 0x1 DUP2 DUP2 SLOAD DUP2 LT PUSH2 0x7C3 JUMPI PUSH1 0x0 DUP1 REVERT JUMPDEST PUSH1 0x0 SWAP2 DUP3 MSTORE PUSH1 0x20 SWAP1 SWAP2 KECCAK256 PUSH1 0x2 SWAP1 SWAP2 MUL ADD DUP1 SLOAD PUSH1 0x1 SWAP1 SWAP2 ADD SLOAD PUSH1 0xFF SWAP1 SWAP2 AND SWAP2 POP DUP3 JUMP JUMPDEST PUSH1 0x0 DUP1 SLOAD PUSH1 0xFF AND PUSH2 0x808 JUMPI PUSH1 0x40 MLOAD PUSH3 0x461BCD PUSH1 0xE5 SHL DUP2 MSTORE PUSH1 0x4 ADD PUSH2 0x54C SWAP1 PUSH2 0x301F JUMP JUMPDEST PUSH1 0x0 DUP6 PUSH1 0x40 MLOAD PUSH1 0x20 ADD PUSH2 0x81B SWAP2 SWAP1 PUSH2 0x3056 JUMP JUMPDEST PUSH1 0x40 DUP1 MLOAD PUSH1 0x1F NOT DUP2 DUP5 SUB ADD DUP2 MSTORE SWAP2 SWAP1 MSTORE DUP1 MLOAD PUSH1 0x20 SWAP1 SWAP2 ADD KECCAK256 SWAP1 POP PUSH1 0x0 JUMPDEST PUSH1 0x0 DUP3 DUP2 MSTORE PUSH1 0x2 PUSH1 0x20 DUP2 SWAP1 MSTORE PUSH1 0x40 SWAP1 SWAP2 KECCAK256 SLOAD PUSH1 0xFF AND SWAP1 DUP2 GT ISZERO PUSH2 0x85D JUMPI PUSH2 0x85D PUSH2 0x2984 JUMP JUMPDEST EQ PUSH2 0x86C JUMPI PUSH1 0x0 SWAP2 POP POP PUSH2 0x8CE JUMP JUMPDEST PUSH1 0x0 DUP4 DUP6 PUSH1 0x40 MLOAD PUSH1 0x20 ADD PUSH2 0x881 SWAP3 SWAP2 SWAP1 PUSH2 0x308D JUMP JUMPDEST PUSH1 0x40 MLOAD PUSH1 0x20 DUP2 DUP4 SUB SUB DUP2 MSTORE SWAP1 PUSH1 0x40 MSTORE DUP1 MLOAD SWAP1 PUSH1 0x20 ADD KECCAK256 PUSH1 0x0 SHR SWAP1 POP PUSH1 0x0 PUSH2 0x8A9 DUP3 DUP9 DUP11 PUSH2 0x19AC JUMP JUMPDEST SWAP1 POP DUP1 PUSH2 0x8BC JUMPI PUSH1 0x0 SWAP4 POP POP POP POP PUSH2 0x8CE JUMP JUMPDEST PUSH2 0x8C6 DUP4 DUP8 PUSH2 0x273C JUMP JUMPDEST PUSH1 0x1 SWAP4 POP POP POP POP JUMPDEST SWAP5 SWAP4 POP POP POP POP JUMP JUMPDEST PUSH1 0x7 SLOAD PUSH1 0x40 DUP1 MLOAD PUSH1 0x20 DUP1 DUP3 ADD DUP6 SWAP1 MSTORE DUP3 MLOAD DUP1 DUP4 SUB SWAP1 SWAP2 ADD DUP2 MSTORE DUP2 DUP4 ADD SWAP3 DUP4 SWAP1 MSTORE PUSH4 0x333F6111 PUSH1 0xE0 SHL SWAP1 SWAP3 MSTORE PUSH1 0x1 PUSH1 0x1 PUSH1 0xA0 SHL SUB SWAP1 SWAP3 AND SWAP2 PUSH4 0x333F6111 SWAP2 PUSH2 0x926 SWAP2 DUP9 SWAP2 DUP9 SWAP2 DUP9 SWAP2 SWAP1 PUSH1 0x44 ADD PUSH2 0x2E7B JUMP JUMPDEST PUSH1 0x20 PUSH1 0x40 MLOAD DUP1 DUP4 SUB DUP2 PUSH1 0x0 DUP8 GAS CALL ISZERO DUP1 ISZERO PUSH2 0x945 JUMPI RETURNDATASIZE PUSH1 0x0 DUP1 RETURNDATACOPY RETURNDATASIZE PUSH1 0x0 REVERT JUMPDEST POP POP POP POP PUSH1 0x40 MLOAD RETURNDATASIZE PUSH1 0x1F NOT PUSH1 0x1F DUP3 ADD AND DUP3 ADD DUP1 PUSH1 0x40 MSTORE POP DUP2 ADD SWAP1 PUSH2 0x969 SWAP2 SWAP1 PUSH2 0x2F5C JUMP JUMPDEST PUSH2 0x985 JUMPI PUSH1 0x40 MLOAD PUSH3 0x461BCD PUSH1 0xE5 SHL DUP2 MSTORE PUSH1 0x4 ADD PUSH2 0x54C SWAP1 PUSH2 0x2F7E JUMP JUMPDEST PUSH1 0x40 DUP1 MLOAD PUSH1 0x20 DUP2 ADD DUP4 SWAP1 MSTORE ADD PUSH1 0x40 DUP1 MLOAD PUSH1 0x1F NOT DUP2 DUP5 SUB ADD DUP2 MSTORE SWAP2 SWAP1 MSTORE DUP1 MLOAD PUSH1 0x20 SWAP1 SWAP2 ADD KECCAK256 PUSH1 0x17 SSTORE POP POP POP POP JUMP JUMPDEST PUSH1 0x7 SLOAD PUSH1 0x40 MLOAD PUSH1 0x1 PUSH1 0x1 PUSH1 0xA0 SHL SUB SWAP1 SWAP2 AND SWAP1 PUSH4 0x333F6111 SWAP1 DUP8 SWAP1 DUP8 SWAP1 DUP8 SWAP1 PUSH2 0x9E0 SWAP1 DUP9 SWAP1 DUP9 SWAP1 PUSH1 0x20 ADD PUSH2 0x30AF JUMP JUMPDEST PUSH1 0x40 MLOAD PUSH1 0x20 DUP2 DUP4 SUB SUB DUP2 MSTORE SWAP1 PUSH1 0x40 MSTORE PUSH1 0x40 MLOAD DUP6 PUSH4 0xFFFFFFFF AND PUSH1 0xE0 SHL DUP2 MSTORE PUSH1 0x4 ADD PUSH2 0xA0E SWAP5 SWAP4 SWAP3 SWAP2 SWAP1 PUSH2 0x2E7B JUMP JUMPDEST PUSH1 0x20 PUSH1 0x40 MLOAD DUP1 DUP4 SUB DUP2 PUSH1 0x0 DUP8 GAS CALL ISZERO DUP1 ISZERO PUSH2 0xA2D JUMPI RETURNDATASIZE PUSH1 0x0 DUP1 RETURNDATACOPY RETURNDATASIZE PUSH1 0x0 REVERT JUMPDEST POP POP POP POP PUSH1 0x40 MLOAD RETURNDATASIZE PUSH1 0x1F NOT PUSH1 0x1F DUP3 ADD AND DUP3 ADD DUP1 PUSH1 0x40 MSTORE POP DUP2 ADD SWAP1 PUSH2 0xA51 SWAP2 SWAP1 PUSH2 0x2F5C JUMP JUMPDEST PUSH2 0xA6D JUMPI PUSH1 0x40 MLOAD PUSH3 0x461BCD PUSH1 0xE5 SHL DUP2 MSTORE PUSH1 0x4 ADD PUSH2 0x54C SWAP1 PUSH2 0x2F7E JUMP JUMPDEST DUP2 DUP2 PUSH1 0x40 MLOAD PUSH1 0x20 ADD PUSH2 0xA80 SWAP3 SWAP2 SWAP1 PUSH2 0x30AF JUMP JUMPDEST PUSH1 0x40 DUP1 MLOAD PUSH1 0x1F NOT DUP2 DUP5 SUB ADD DUP2 MSTORE SWAP2 SWAP1 MSTORE DUP1 MLOAD PUSH1 0x20 SWAP1 SWAP2 ADD KECCAK256 PUSH1 0x15 SSTORE POP POP POP POP POP JUMP JUMPDEST PUSH1 0x0 DUP1 SLOAD PUSH1 0xFF AND PUSH2 0xAC5 JUMPI PUSH1 0x40 MLOAD PUSH3 0x461BCD PUSH1 0xE5 SHL DUP2 MSTORE PUSH1 0x4 ADD PUSH2 0x54C SWAP1 PUSH2 0x301F JUMP JUMPDEST PUSH1 0x0 DUP6 PUSH1 0x40 MLOAD PUSH1 0x20 ADD PUSH2 0xAD8 SWAP2 SWAP1 PUSH2 0x3056 JUMP JUMPDEST PUSH1 0x40 DUP1 MLOAD PUSH1 0x1F NOT DUP2 DUP5 SUB ADD DUP2 MSTORE SWAP2 SWAP1 MSTORE DUP1 MLOAD PUSH1 0x20 SWAP1 SWAP2 ADD KECCAK256 SWAP1 POP PUSH1 0x1 PUSH2 0x838 JUMP JUMPDEST PUSH1 0x0 SLOAD DUP5 SWAP1 DUP5 SWAP1 DUP5 SWAP1 DUP5 SWAP1 PUSH1 0xFF AND PUSH2 0xB23 JUMPI PUSH1 0x40 MLOAD PUSH3 0x461BCD PUSH1 0xE5 SHL DUP2 MSTORE PUSH1 0x4 ADD PUSH2 0x54C SWAP1 PUSH2 0x301F JUMP JUMPDEST PUSH1 0x0 DUP5 PUSH1 0x40 MLOAD PUSH1 0x20 ADD PUSH2 0xB36 SWAP2 SWAP1 PUSH2 0x3056 JUMP JUMPDEST PUSH1 0x40 DUP1 MLOAD PUSH1 0x1F NOT DUP2 DUP5 SUB ADD DUP2 MSTORE SWAP2 SWAP1 MSTORE DUP1 MLOAD PUSH1 0x20 SWAP1 SWAP2 ADD KECCAK256 SWAP1 POP PUSH1 0x0 DUP1 DUP3 DUP2 MSTORE PUSH1 0x2 PUSH1 0x20 DUP2 SWAP1 MSTORE PUSH1 0x40 SWAP1 SWAP2 KECCAK256 SLOAD PUSH1 0xFF AND SWAP1 DUP2 GT ISZERO PUSH2 0xB76 JUMPI PUSH2 0xB76 PUSH2 0x2984 JUMP JUMPDEST EQ PUSH2 0xB93 JUMPI PUSH1 0x40 MLOAD PUSH3 0x461BCD PUSH1 0xE5 SHL DUP2 MSTORE PUSH1 0x4 ADD PUSH2 0x54C SWAP1 PUSH2 0x30D1 JUMP JUMPDEST PUSH1 0x0 DUP3 DUP5 PUSH1 0x40 MLOAD PUSH1 0x20 ADD PUSH2 0xBA8 SWAP3 SWAP2 SWAP1 PUSH2 0x308D JUMP JUMPDEST PUSH1 0x40 DUP1 MLOAD PUSH1 0x1F NOT DUP2 DUP5 SUB ADD DUP2 MSTORE SWAP1 DUP3 SWAP1 MSTORE DUP1 MLOAD PUSH1 0x20 SWAP2 DUP3 ADD KECCAK256 DUP1 DUP4 MSTORE SWAP3 POP PUSH1 0x0 DUP1 MLOAD PUSH1 0x20 PUSH2 0x31E8 DUP4 CODECOPY DUP2 MLOAD SWAP2 MSTORE SWAP2 ADD PUSH1 0x40 MLOAD DUP1 SWAP2 SUB SWAP1 LOG1 PUSH1 0x0 PUSH2 0xBEC DUP3 DUP8 DUP10 PUSH2 0x19AC JUMP JUMPDEST PUSH1 0x0 DUP1 SLOAD PUSH2 0xFF00 NOT AND PUSH2 0x100 DUP4 ISZERO ISZERO MUL OR SWAP1 SSTORE SWAP1 POP DUP1 PUSH2 0xC70 JUMPI PUSH1 0x40 MLOAD DUP3 DUP2 MSTORE PUSH1 0x0 DUP1 MLOAD PUSH1 0x20 PUSH2 0x31C8 DUP4 CODECOPY DUP2 MLOAD SWAP2 MSTORE SWAP1 PUSH1 0x20 ADD JUMPDEST PUSH1 0x40 MLOAD DUP1 SWAP2 SUB SWAP1 LOG1 PUSH1 0x40 MLOAD PUSH3 0x461BCD PUSH1 0xE5 SHL DUP2 MSTORE PUSH1 0x20 PUSH1 0x4 DUP3 ADD DUP2 SWAP1 MSTORE PUSH1 0x24 DUP3 ADD MSTORE PUSH32 0x4C616D706F7274426173653A20566572696669636174696F6E206661696C6564 PUSH1 0x44 DUP3 ADD MSTORE PUSH1 0x64 ADD PUSH2 0x54C JUMP JUMPDEST PUSH1 0x0 DUP4 DUP2 MSTORE PUSH1 0x2 PUSH1 0x20 MSTORE PUSH1 0x40 SWAP1 DUP2 SWAP1 KECCAK256 SLOAD SWAP1 MLOAD PUSH1 0x0 DUP1 MLOAD PUSH1 0x20 PUSH2 0x3208 DUP4 CODECOPY DUP2 MLOAD SWAP2 MSTORE SWAP2 PUSH2 0xCA6 SWAP2 PUSH1 0xFF SWAP1 SWAP2 AND SWAP1 DUP7 SWAP1 DUP10 SWAP1 PUSH2 0x29BC JUMP JUMPDEST PUSH1 0x40 MLOAD DUP1 SWAP2 SUB SWAP1 LOG1 PUSH2 0xCB8 DUP4 DUP7 PUSH2 0x273C JUMP JUMPDEST POP POP POP PUSH1 0x5 SWAP6 SWAP1 SWAP6 SSTORE POP POP POP POP POP POP POP JUMP JUMPDEST PUSH1 0x7 SLOAD PUSH1 0x40 MLOAD PUSH1 0x1 PUSH1 0x1 PUSH1 0xA0 SHL SUB SWAP1 SWAP2 AND SWAP1 PUSH4 0x333F6111 SWAP1 DUP7 SWAP1 DUP7 SWAP1 DUP7 SWAP1 PUSH2 0xCF6 SWAP1 DUP8 SWAP1 PUSH1 0x20 ADD PUSH2 0x3108 JUMP JUMPDEST PUSH1 0x40 MLOAD PUSH1 0x20 DUP2 DUP4 SUB SUB DUP2 MSTORE SWAP1 PUSH1 0x40 MSTORE PUSH1 0x40 MLOAD DUP6 PUSH4 0xFFFFFFFF AND PUSH1 0xE0 SHL DUP2 MSTORE PUSH1 0x4 ADD PUSH2 0xD24 SWAP5 SWAP4 SWAP3 SWAP2 SWAP1 PUSH2 0x2E7B JUMP JUMPDEST PUSH1 0x20 PUSH1 0x40 MLOAD DUP1 DUP4 SUB DUP2 PUSH1 0x0 DUP8 GAS CALL ISZERO DUP1 ISZERO PUSH2 0xD43 JUMPI RETURNDATASIZE PUSH1 0x0 DUP1 RETURNDATACOPY RETURNDATASIZE PUSH1 0x0 REVERT JUMPDEST POP POP POP POP PUSH1 0x40 MLOAD RETURNDATASIZE PUSH1 0x1F NOT PUSH1 0x1F DUP3 ADD AND DUP3 ADD DUP1 PUSH1 0x40 MSTORE POP DUP2 ADD SWAP1 PUSH2 0xD67 SWAP2 SWAP1 PUSH2 0x2F5C JUMP JUMPDEST PUSH2 0xD83 JUMPI PUSH1 0x40 MLOAD PUSH3 0x461BCD PUSH1 0xE5 SHL DUP2 MSTORE PUSH1 0x4 ADD PUSH2 0x54C SWAP1 PUSH2 0x2F7E JUMP JUMPDEST PUSH1 0x1B DUP1 SLOAD PUSH1 0x1 PUSH1 0x1 PUSH1 0xA0 SHL SUB NOT AND PUSH1 0x1 PUSH1 0x1 PUSH1 0xA0 SHL SUB SWAP3 SWAP1 SWAP3 AND SWAP2 SWAP1 SWAP2 OR SWAP1 SSTORE POP POP POP JUMP JUMPDEST DUP4 DUP4 DUP4 DUP4 PUSH1 0x40 MLOAD PUSH1 0x20 ADD PUSH2 0xDBE SWAP2 DUP2 MSTORE PUSH1 0x20 ADD SWAP1 JUMP JUMPDEST PUSH1 0x40 DUP1 MLOAD PUSH1 0x1F NOT DUP2 DUP5 SUB ADD DUP2 MSTORE SWAP2 SWAP1 MSTORE PUSH1 0x0 SLOAD PUSH1 0xFF AND PUSH2 0xDF0 JUMPI PUSH1 0x40 MLOAD PUSH3 0x461BCD PUSH1 0xE5 SHL DUP2 MSTORE PUSH1 0x4 ADD PUSH2 0x54C SWAP1 PUSH2 0x301F JUMP JUMPDEST PUSH1 0x0 DUP5 PUSH1 0x40 MLOAD PUSH1 0x20 ADD PUSH2 0xE03 SWAP2 SWAP1 PUSH2 0x3056 JUMP JUMPDEST PUSH1 0x40 DUP1 MLOAD PUSH1 0x1F NOT DUP2 DUP5 SUB ADD DUP2 MSTORE SWAP2 SWAP1 MSTORE DUP1 MLOAD PUSH1 0x20 SWAP1 SWAP2 ADD KECCAK256 SWAP1 POP PUSH1 0x0 DUP1 DUP3 DUP2 MSTORE PUSH1 0x2 PUSH1 0x20 DUP2 SWAP1 MSTORE PUSH1 0x40 SWAP1 SWAP2 KECCAK256 SLOAD PUSH1 0xFF AND SWAP1 DUP2 GT ISZERO PUSH2 0xE43 JUMPI PUSH2 0xE43 PUSH2 0x2984 JUMP JUMPDEST EQ PUSH2 0xE60 JUMPI PUSH1 0x40 MLOAD PUSH3 0x461BCD PUSH1 0xE5 SHL DUP2 MSTORE PUSH1 0x4 ADD PUSH2 0x54C SWAP1 PUSH2 0x30D1 JUMP JUMPDEST PUSH1 0x0 DUP3 DUP5 PUSH1 0x40 MLOAD PUSH1 0x20 ADD PUSH2 0xE75 SWAP3 SWAP2 SWAP1 PUSH2 0x308D JUMP JUMPDEST PUSH1 0x40 DUP1 MLOAD PUSH1 0x1F NOT DUP2 DUP5 SUB ADD DUP2 MSTORE SWAP1 DUP3 SWAP1 MSTORE DUP1 MLOAD PUSH1 0x20 SWAP2 DUP3 ADD KECCAK256 DUP1 DUP4 MSTORE SWAP3 POP PUSH1 0x0 DUP1 MLOAD PUSH1 0x20 PUSH2 0x31E8 DUP4 CODECOPY DUP2 MLOAD SWAP2 MSTORE SWAP2 ADD PUSH1 0x40 MLOAD DUP1 SWAP2 SUB SWAP1 LOG1 PUSH1 0x0 PUSH2 0xEB9 DUP3 DUP8 DUP10 PUSH2 0x19AC JUMP JUMPDEST PUSH1 0x0 DUP1 SLOAD PUSH2 0xFF00 NOT AND PUSH2 0x100 DUP4 ISZERO ISZERO MUL OR SWAP1 SSTORE SWAP1 POP DUP1 PUSH2 0xEF1 JUMPI PUSH1 0x40 MLOAD DUP3 DUP2 MSTORE PUSH1 0x0 DUP1 MLOAD PUSH1 0x20 PUSH2 0x31C8 DUP4 CODECOPY DUP2 MLOAD SWAP2 MSTORE SWAP1 PUSH1 0x20 ADD PUSH2 0xC20 JUMP JUMPDEST PUSH1 0x0 DUP4 DUP2 MSTORE PUSH1 0x2 PUSH1 0x20 MSTORE PUSH1 0x40 SWAP1 DUP2 SWAP1 KECCAK256 SLOAD SWAP1 MLOAD PUSH1 0x0 DUP1 MLOAD PUSH1 0x20 PUSH2 0x3208 DUP4 CODECOPY DUP2 MLOAD SWAP2 MSTORE SWAP2 PUSH2 0xF27 SWAP2 PUSH1 0xFF SWAP1 SWAP2 AND SWAP1 DUP7 SWAP1 DUP10 SWAP1 PUSH2 0x29BC JUMP JUMPDEST PUSH1 0x40 MLOAD DUP1 SWAP2 SUB SWAP1 LOG1 PUSH2 0xF39 DUP4 DUP7 PUSH2 0x273C JUMP JUMPDEST PUSH1 0x0 DUP12 PUSH1 0x40 MLOAD PUSH1 0x20 ADD PUSH2 0xF4C SWAP2 SWAP1 PUSH2 0x3056 JUMP JUMPDEST PUSH1 0x40 DUP1 MLOAD PUSH1 0x1F NOT DUP2 DUP5 SUB ADD DUP2 MSTORE SWAP2 SWAP1 MSTORE DUP1 MLOAD PUSH1 0x20 SWAP1 SWAP2 ADD KECCAK256 PUSH1 0x5 DUP1 SLOAD PUSH1 0x0 SWAP1 SWAP2 SSTORE SWAP1 SWAP2 POP DUP2 EQ ISZERO DUP1 PUSH2 0xFE8 JUMPI PUSH1 0x40 DUP1 MLOAD PUSH3 0x461BCD PUSH1 0xE5 SHL DUP2 MSTORE PUSH1 0x20 PUSH1 0x4 DUP3 ADD MSTORE PUSH1 0x24 DUP2 ADD SWAP2 SWAP1 SWAP2 MSTORE PUSH32 0x4C616D706F7274426173653A20504B48206D617463686573206C617374207573 PUSH1 0x44 DUP3 ADD MSTORE PUSH32 0x656420504B482028757365207365706172617465207365636F6E64206B657929 PUSH1 0x64 DUP3 ADD MSTORE PUSH1 0x84 ADD PUSH2 0x54C JUMP JUMPDEST PUSH2 0xFF3 PUSH1 0x0 DUP12 PUSH2 0x2623 JUMP JUMPDEST POP POP PUSH1 0x0 PUSH1 0x5 SSTORE POP POP POP POP POP POP POP POP POP POP POP JUMP JUMPDEST PUSH1 0x7 SLOAD PUSH1 0x40 MLOAD PUSH1 0x1 PUSH1 0x1 PUSH1 0xA0 SHL SUB SWAP1 SWAP2 AND SWAP1 PUSH4 0x333F6111 SWAP1 DUP7 SWAP1 DUP7 SWAP1 DUP7 SWAP1 PUSH2 0x1033 SWAP1 DUP8 SWAP1 PUSH1 0x20 ADD PUSH2 0x3108 JUMP JUMPDEST PUSH1 0x40 MLOAD PUSH1 0x20 DUP2 DUP4 SUB SUB DUP2 MSTORE SWAP1 PUSH1 0x40 MSTORE PUSH1 0x40 MLOAD DUP6 PUSH4 0xFFFFFFFF AND PUSH1 0xE0 SHL DUP2 MSTORE PUSH1 0x4 ADD PUSH2 0x1061 SWAP5 SWAP4 SWAP3 SWAP2 SWAP1 PUSH2 0x2E7B JUMP JUMPDEST PUSH1 0x20 PUSH1 0x40 MLOAD DUP1 DUP4 SUB DUP2 PUSH1 0x0 DUP8 GAS CALL ISZERO DUP1 ISZERO PUSH2 0x1080 JUMPI RETURNDATASIZE PUSH1 0x0 DUP1 RETURNDATACOPY RETURNDATASIZE PUSH1 0x0 REVERT JUMPDEST POP POP POP POP PUSH1 0x40 MLOAD RETURNDATASIZE PUSH1 0x1F NOT PUSH1 0x1F DUP3 ADD AND DUP3 ADD DUP1 PUSH1 0x40 MSTORE POP DUP2 ADD SWAP1 PUSH2 0x10A4 SWAP2 SWAP1 PUSH2 0x2F5C JUMP JUMPDEST PUSH2 0x10C0 JUMPI PUSH1 0x40 MLOAD PUSH3 0x461BCD PUSH1 0xE5 SHL DUP2 MSTORE PUSH1 0x4 ADD PUSH2 0x54C SWAP1 PUSH2 0x2F7E JUMP JUMPDEST PUSH1 0x1 PUSH1 0x1 PUSH1 0xA0 SHL SUB DUP2 AND PUSH2 0x1125 JUMPI PUSH1 0x40 MLOAD PUSH3 0x461BCD PUSH1 0xE5 SHL DUP2 MSTORE PUSH1 0x20 PUSH1 0x4 DUP3 ADD MSTORE PUSH1 0x26 PUSH1 0x24 DUP3 ADD MSTORE PUSH32 0x53464320616464726573732063616E6E6F7420626520746865207A65726F2061 PUSH1 0x44 DUP3 ADD MSTORE PUSH6 0x646472657373 PUSH1 0xD0 SHL PUSH1 0x64 DUP3 ADD MSTORE PUSH1 0x84 ADD PUSH2 0x54C JUMP JUMPDEST PUSH1 0xA DUP1 SLOAD PUSH1 0x1 PUSH1 0x1 PUSH1 0xA0 SHL SUB NOT AND PUSH1 0x1 PUSH1 0x1 PUSH1 0xA0 SHL SUB SWAP3 SWAP1 SWAP3 AND SWAP2 SWAP1 SWAP2 OR SWAP1 SSTORE POP POP POP JUMP JUMPDEST PUSH1 0x7 SLOAD PUSH1 0x40 MLOAD PUSH1 0x1 PUSH1 0x1 PUSH1 0xA0 SHL SUB SWAP1 SWAP2 AND SWAP1 PUSH4 0x333F6111 SWAP1 DUP8 SWAP1 DUP8 SWAP1 DUP8 SWAP1 PUSH2 0x1178 SWAP1 DUP9 SWAP1 DUP9 SWAP1 PUSH1 0x20 ADD PUSH2 0x3125 JUMP JUMPDEST PUSH1 0x40 MLOAD PUSH1 0x20 DUP2 DUP4 SUB SUB DUP2 MSTORE SWAP1 PUSH1 0x40 MSTORE PUSH1 0x40 MLOAD DUP6 PUSH4 0xFFFFFFFF AND PUSH1 0xE0 SHL DUP2 MSTORE PUSH1 0x4 ADD PUSH2 0x11A6 SWAP5 SWAP4 SWAP3 SWAP2 SWAP1 PUSH2 0x2E7B JUMP JUMPDEST PUSH1 0x20 PUSH1 0x40 MLOAD DUP1 DUP4 SUB DUP2 PUSH1 0x0 DUP8 GAS CALL ISZERO DUP1 ISZERO PUSH2 0x11C5 JUMPI RETURNDATASIZE PUSH1 0x0 DUP1 RETURNDATACOPY RETURNDATASIZE PUSH1 0x0 REVERT JUMPDEST POP POP POP POP PUSH1 0x40 MLOAD RETURNDATASIZE PUSH1 0x1F NOT PUSH1 0x1F DUP3 ADD AND DUP3 ADD DUP1 PUSH1 0x40 MSTORE POP DUP2 ADD SWAP1 PUSH2 0x11E9 SWAP2 SWAP1 PUSH2 0x2F5C JUMP JUMPDEST PUSH2 0x1205 JUMPI PUSH1 0x40 MLOAD PUSH3 0x461BCD PUSH1 0xE5 SHL DUP2 MSTORE PUSH1 0x4 ADD PUSH2 0x54C SWAP1 PUSH2 0x2F7E JUMP JUMPDEST DUP2 DUP2 PUSH1 0x40 MLOAD PUSH1 0x20 ADD PUSH2 0x1218 SWAP3 SWAP2 SWAP1 PUSH2 0x3125 JUMP JUMPDEST PUSH1 0x40 MLOAD PUSH1 0x20 DUP2 DUP4 SUB SUB DUP2 MSTORE SWAP1 PUSH1 0x40 MSTORE DUP1 MLOAD SWAP1 PUSH1 0x20 ADD KECCAK256 PUSH1 0x16 SLOAD EQ PUSH2 0x1289 JUMPI PUSH1 0x40 MLOAD PUSH3 0x461BCD PUSH1 0xE5 SHL DUP2 MSTORE PUSH1 0x20 PUSH1 0x4 DUP3 ADD MSTORE PUSH1 0x22 PUSH1 0x24 DUP3 ADD MSTORE PUSH32 0x4D69736D617463686564207570646174654E6574776F726B52756C6573206861 PUSH1 0x44 DUP3 ADD MSTORE PUSH2 0xE6D PUSH1 0xF3 SHL PUSH1 0x64 DUP3 ADD MSTORE PUSH1 0x84 ADD PUSH2 0x54C JUMP JUMPDEST PUSH1 0x6 SLOAD PUSH1 0x40 MLOAD PUSH4 0x2E731AC7 PUSH1 0xE2 SHL DUP2 MSTORE PUSH1 0x1 PUSH1 0x1 PUSH1 0xA0 SHL SUB SWAP1 SWAP2 AND SWAP1 PUSH4 0xB9CC6B1C SWAP1 PUSH2 0x12BB SWAP1 DUP6 SWAP1 DUP6 SWAP1 PUSH1 0x4 ADD PUSH2 0x3135 JUMP JUMPDEST PUSH1 0x0 PUSH1 0x40 MLOAD DUP1 DUP4 SUB DUP2 PUSH1 0x0 DUP8 DUP1 EXTCODESIZE ISZERO DUP1 ISZERO PUSH2 0x12D5 JUMPI PUSH1 0x0 DUP1 REVERT JUMPDEST POP GAS CALL ISZERO DUP1 ISZERO PUSH2 0x12E9 JUMPI RETURNDATASIZE PUSH1 0x0 DUP1 RETURNDATACOPY RETURNDATASIZE PUSH1 0x0 REVERT JUMPDEST POP POP PUSH1 0x0 PUSH1 0x16 SSTORE POP POP POP POP POP POP POP JUMP JUMPDEST PUSH1 0x7 SLOAD PUSH1 0x40 DUP1 MLOAD PUSH1 0x20 DUP1 DUP3 ADD DUP6 SWAP1 MSTORE DUP3 MLOAD DUP1 DUP4 SUB SWAP1 SWAP2 ADD DUP2 MSTORE DUP2 DUP4 ADD SWAP3 DUP4 SWAP1 MSTORE PUSH4 0x333F6111 PUSH1 0xE0 SHL SWAP1 SWAP3 MSTORE PUSH1 0x1 PUSH1 0x1 PUSH1 0xA0 SHL SUB SWAP1 SWAP3 AND SWAP2 PUSH4 0x333F6111 SWAP2 PUSH2 0x1349 SWAP2 DUP9 SWAP2 DUP9 SWAP2 DUP9 SWAP2 SWAP1 PUSH1 0x44 ADD PUSH2 0x2E7B JUMP JUMPDEST PUSH1 0x20 PUSH1 0x40 MLOAD DUP1 DUP4 SUB DUP2 PUSH1 0x0 DUP8 GAS CALL ISZERO DUP1 ISZERO PUSH2 0x1368 JUMPI RETURNDATASIZE PUSH1 0x0 DUP1 RETURNDATACOPY RETURNDATASIZE PUSH1 0x0 REVERT JUMPDEST POP POP POP POP PUSH1 0x40 MLOAD RETURNDATASIZE PUSH1 0x1F NOT PUSH1 0x1F DUP3 ADD AND DUP3 ADD DUP1 PUSH1 0x40 MSTORE POP DUP2 ADD SWAP1 PUSH2 0x138C SWAP2 SWAP1 PUSH2 0x2F5C JUMP JUMPDEST PUSH2 0x13A8 JUMPI PUSH1 0x40 MLOAD PUSH3 0x461BCD PUSH1 0xE5 SHL DUP2 MSTORE PUSH1 0x4 ADD PUSH2 0x54C SWAP1 PUSH2 0x2F7E JUMP JUMPDEST PUSH1 0x40 DUP1 MLOAD PUSH1 0x20 DUP2 ADD DUP4 SWAP1 MSTORE ADD PUSH1 0x40 DUP1 MLOAD PUSH1 0x1F NOT DUP2 DUP5 SUB ADD DUP2 MSTORE SWAP2 SWAP1 MSTORE DUP1 MLOAD PUSH1 0x20 SWAP1 SWAP2 ADD KECCAK256 PUSH1 0x18 SSTORE POP POP POP POP JUMP JUMPDEST PUSH1 0x7 SLOAD PUSH1 0x40 DUP1 MLOAD PUSH1 0x20 DUP1 DUP3 ADD DUP6 SWAP1 MSTORE DUP3 MLOAD DUP1 DUP4 SUB SWAP1 SWAP2 ADD DUP2 MSTORE DUP2 DUP4 ADD SWAP3 DUP4 SWAP1 MSTORE PUSH4 0x333F6111 PUSH1 0xE0 SHL SWAP1 SWAP3 MSTORE PUSH1 0x1 PUSH1 0x1 PUSH1 0xA0 SHL SUB SWAP1 SWAP3 AND SWAP2 PUSH4 0x333F6111 SWAP2 PUSH2 0x1425 SWAP2 DUP9 SWAP2 DUP9 SWAP2 DUP9 SWAP2 SWAP1 PUSH1 0x44 ADD PUSH2 0x2E7B JUMP JUMPDEST PUSH1 0x20 PUSH1 0x40 MLOAD DUP1 DUP4 SUB DUP2 PUSH1 0x0 DUP8 GAS CALL ISZERO DUP1 ISZERO PUSH2 0x1444 JUMPI RETURNDATASIZE PUSH1 0x0 DUP1 RETURNDATACOPY RETURNDATASIZE PUSH1 0x0 REVERT JUMPDEST POP POP POP POP PUSH1 0x40 MLOAD RETURNDATASIZE PUSH1 0x1F NOT PUSH1 0x1F DUP3 ADD AND DUP3 ADD DUP1 PUSH1 0x40 MSTORE POP DUP2 ADD SWAP1 PUSH2 0x1468 SWAP2 SWAP1 PUSH2 0x2F5C JUMP JUMPDEST PUSH2 0x1484 JUMPI PUSH1 0x40 MLOAD PUSH3 0x461BCD PUSH1 0xE5 SHL DUP2 MSTORE PUSH1 0x4 ADD PUSH2 0x54C SWAP1 PUSH2 0x2F7E JUMP JUMPDEST PUSH1 0x40 DUP1 MLOAD PUSH1 0x20 DUP2 ADD DUP4 SWAP1 MSTORE ADD PUSH1 0x40 MLOAD PUSH1 0x20 DUP2 DUP4 SUB SUB DUP2 MSTORE SWAP1 PUSH1 0x40 MSTORE DUP1 MLOAD SWAP1 PUSH1 0x20 ADD KECCAK256 PUSH1 0x17 SLOAD EQ PUSH2 0x1502 JUMPI PUSH1 0x40 MLOAD PUSH3 0x461BCD PUSH1 0xE5 SHL DUP2 MSTORE PUSH1 0x20 PUSH1 0x4 DUP3 ADD MSTORE PUSH1 0x24 DUP1 DUP3 ADD MSTORE PUSH32 0x4D69736D617463686564207570646174654E6574776F726B56657273696F6E20 PUSH1 0x44 DUP3 ADD MSTORE PUSH4 0xD0C2E6D PUSH1 0xE3 SHL PUSH1 0x64 DUP3 ADD MSTORE PUSH1 0x84 ADD PUSH2 0x54C JUMP JUMPDEST PUSH1 0x6 SLOAD PUSH1 0x40 MLOAD PUSH4 0x133D5A23 PUSH1 0xE1 SHL DUP2 MSTORE PUSH1 0x4 DUP2 ADD DUP4 SWAP1 MSTORE PUSH1 0x1 PUSH1 0x1 PUSH1 0xA0 SHL SUB SWAP1 SWAP2 AND SWAP1 PUSH4 0x267AB446 SWAP1 PUSH1 0x24 ADD PUSH1 0x0 PUSH1 0x40 MLOAD DUP1 DUP4 SUB DUP2 PUSH1 0x0 DUP8 DUP1 EXTCODESIZE ISZERO DUP1 ISZERO PUSH2 0x1548 JUMPI PUSH1 0x0 DUP1 REVERT JUMPDEST POP GAS CALL ISZERO DUP1 ISZERO PUSH2 0x155C JUMPI RETURNDATASIZE PUSH1 0x0 DUP1 RETURNDATACOPY RETURNDATASIZE PUSH1 0x0 REVERT JUMPDEST POP POP PUSH1 0x0 PUSH1 0x17 SSTORE POP POP POP POP POP POP JUMP JUMPDEST DUP4 DUP3 DUP5 DUP4 PUSH1 0x40 MLOAD PUSH1 0x20 ADD PUSH2 0x1581 SWAP2 DUP2 MSTORE PUSH1 0x20 ADD SWAP1 JUMP JUMPDEST PUSH1 0x40 DUP1 MLOAD PUSH1 0x1F NOT DUP2 DUP5 SUB ADD DUP2 MSTORE SWAP2 SWAP1 MSTORE PUSH1 0x0 SLOAD PUSH1 0xFF AND PUSH2 0x15B3 JUMPI PUSH1 0x40 MLOAD PUSH3 0x461BCD PUSH1 0xE5 SHL DUP2 MSTORE PUSH1 0x4 ADD PUSH2 0x54C SWAP1 PUSH2 0x301F JUMP JUMPDEST PUSH1 0x0 DUP5 PUSH1 0x40 MLOAD PUSH1 0x20 ADD PUSH2 0x15C6 SWAP2 SWAP1 PUSH2 0x3056 JUMP JUMPDEST PUSH1 0x40 DUP1 MLOAD PUSH1 0x1F NOT DUP2 DUP5 SUB ADD DUP2 MSTORE SWAP2 SWAP1 MSTORE DUP1 MLOAD PUSH1 0x20 SWAP1 SWAP2 ADD KECCAK256 SWAP1 POP PUSH1 0x0 DUP1 DUP3 DUP2 MSTORE PUSH1 0x2 PUSH1 0x20 DUP2 SWAP1 MSTORE PUSH1 0x40 SWAP1 SWAP2 KECCAK256 SLOAD PUSH1 0xFF AND SWAP1 DUP2 GT ISZERO PUSH2 0x1606 JUMPI PUSH2 0x1606 PUSH2 0x2984 JUMP JUMPDEST EQ PUSH2 0x1623 JUMPI PUSH1 0x40 MLOAD PUSH3 0x461BCD PUSH1 0xE5 SHL DUP2 MSTORE PUSH1 0x4 ADD PUSH2 0x54C SWAP1 PUSH2 0x30D1 JUMP JUMPDEST PUSH1 0x0 DUP3 DUP5 PUSH1 0x40 MLOAD PUSH1 0x20 ADD PUSH2 0x1638 SWAP3 SWAP2 SWAP1 PUSH2 0x308D JUMP JUMPDEST PUSH1 0x40 DUP1 MLOAD PUSH1 0x1F NOT DUP2 DUP5 SUB ADD DUP2 MSTORE SWAP1 DUP3 SWAP1 MSTORE DUP1 MLOAD PUSH1 0x20 SWAP2 DUP3 ADD KECCAK256 DUP1 DUP4 MSTORE SWAP3 POP PUSH1 0x0 DUP1 MLOAD PUSH1 0x20 PUSH2 0x31E8 DUP4 CODECOPY DUP2 MLOAD SWAP2 MSTORE SWAP2 ADD PUSH1 0x40 MLOAD DUP1 SWAP2 SUB SWAP1 LOG1 PUSH1 0x0 PUSH2 0x167C DUP3 DUP8 DUP10 PUSH2 0x19AC JUMP JUMPDEST PUSH1 0x0 DUP1 SLOAD PUSH2 0xFF00 NOT AND PUSH2 0x100 DUP4 ISZERO ISZERO MUL OR SWAP1 SSTORE SWAP1 POP DUP1 PUSH2 0x16B4 JUMPI PUSH1 0x40 MLOAD DUP3 DUP2 MSTORE PUSH1 0x0 DUP1 MLOAD PUSH1 0x20 PUSH2 0x31C8 DUP4 CODECOPY DUP2 MLOAD SWAP2 MSTORE SWAP1 PUSH1 0x20 ADD PUSH2 0xC20 JUMP JUMPDEST PUSH1 0x0 DUP4 DUP2 MSTORE PUSH1 0x2 PUSH1 0x20 MSTORE PUSH1 0x40 SWAP1 DUP2 SWAP1 KECCAK256 SLOAD SWAP1 MLOAD PUSH1 0x0 DUP1 MLOAD PUSH1 0x20 PUSH2 0x3208 DUP4 CODECOPY DUP2 MLOAD SWAP2 MSTORE SWAP2 PUSH2 0x16EA SWAP2 PUSH1 0xFF SWAP1 SWAP2 AND SWAP1 DUP7 SWAP1 DUP10 SWAP1 PUSH2 0x29BC JUMP JUMPDEST PUSH1 0x40 MLOAD DUP1 SWAP2 SUB SWAP1 LOG1 PUSH2 0x16FC DUP4 DUP7 PUSH2 0x273C JUMP JUMPDEST PUSH2 0x1707 PUSH1 0x1 DUP10 PUSH2 0x2623 JUMP JUMPDEST POP POP POP POP POP POP POP POP POP POP POP JUMP JUMPDEST PUSH1 0x7 SLOAD PUSH1 0x40 MLOAD PUSH1 0x1 PUSH1 0x1 PUSH1 0xA0 SHL SUB SWAP1 SWAP2 AND SWAP1 PUSH4 0x333F6111 SWAP1 DUP7 SWAP1 DUP7 SWAP1 DUP7 SWAP1 PUSH2 0x1740 SWAP1 DUP8 SWAP1 PUSH1 0x20 ADD PUSH2 0x3108 JUMP JUMPDEST PUSH1 0x40 MLOAD PUSH1 0x20 DUP2 DUP4 SUB SUB DUP2 MSTORE SWAP1 PUSH1 0x40 MSTORE PUSH1 0x40 MLOAD DUP6 PUSH4 0xFFFFFFFF AND PUSH1 0xE0 SHL DUP2 MSTORE PUSH1 0x4 ADD PUSH2 0x176E SWAP5 SWAP4 SWAP3 SWAP2 SWAP1 PUSH2 0x2E7B JUMP JUMPDEST PUSH1 0x20 PUSH1 0x40 MLOAD DUP1 DUP4 SUB DUP2 PUSH1 0x0 DUP8 GAS CALL ISZERO DUP1 ISZERO PUSH2 0x178D JUMPI RETURNDATASIZE PUSH1 0x0 DUP1 RETURNDATACOPY RETURNDATASIZE PUSH1 0x0 REVERT JUMPDEST POP POP POP POP PUSH1 0x40 MLOAD RETURNDATASIZE PUSH1 0x1F NOT PUSH1 0x1F DUP3 ADD AND DUP3 ADD DUP1 PUSH1 0x40 MSTORE POP DUP2 ADD SWAP1 PUSH2 0x17B1 SWAP2 SWAP1 PUSH2 0x2F5C JUMP JUMPDEST PUSH2 0x17CD JUMPI PUSH1 0x40 MLOAD PUSH3 0x461BCD PUSH1 0xE5 SHL DUP2 MSTORE PUSH1 0x4 ADD PUSH2 0x54C SWAP1 PUSH2 0x2F7E JUMP JUMPDEST PUSH1 0x1B SLOAD PUSH1 0x1 PUSH1 0x1 PUSH1 0xA0 SHL SUB DUP3 DUP2 AND SWAP2 AND EQ PUSH2 0x1847 JUMPI PUSH1 0x40 MLOAD PUSH3 0x461BCD PUSH1 0xE5 SHL DUP2 MSTORE PUSH1 0x20 PUSH1 0x4 DUP3 ADD MSTORE PUSH1 0x34 PUSH1 0x24 DUP3 ADD MSTORE PUSH32 0x4D69736D61746368656420766F7465426F6F6B20616464726573732062657477 PUSH1 0x44 DUP3 ADD MSTORE PUSH20 0x65656E2073746570206F6E6520616E642074776F PUSH1 0x60 SHL PUSH1 0x64 DUP3 ADD MSTORE PUSH1 0x84 ADD PUSH2 0x54C JUMP JUMPDEST PUSH1 0x6 SLOAD PUSH1 0x40 MLOAD PUSH4 0x2A81ACD PUSH1 0xE5 SHL DUP2 MSTORE PUSH1 0x1 PUSH1 0x1 PUSH1 0xA0 SHL SUB DUP4 DUP2 AND PUSH1 0x4 DUP4 ADD MSTORE SWAP1 SWAP2 AND SWAP1 PUSH4 0x550359A0 SWAP1 PUSH1 0x24 ADD PUSH1 0x0 PUSH1 0x40 MLOAD DUP1 DUP4 SUB DUP2 PUSH1 0x0 DUP8 DUP1 EXTCODESIZE ISZERO DUP1 ISZERO PUSH2 0x188E JUMPI PUSH1 0x0 DUP1 REVERT JUMPDEST POP GAS CALL ISZERO DUP1 ISZERO PUSH2 0x18A2 JUMPI RETURNDATASIZE PUSH1 0x0 DUP1 RETURNDATACOPY RETURNDATASIZE PUSH1 0x0 REVERT JUMPDEST POP POP PUSH1 0x1B DUP1 SLOAD PUSH1 0x1 PUSH1 0x1 PUSH1 0xA0 SHL SUB NOT AND SWAP1 SSTORE POP POP POP POP POP POP JUMP JUMPDEST PUSH1 0x7 SLOAD PUSH1 0x40 MLOAD PUSH1 0x1 PUSH1 0x1 PUSH1 0xA0 SHL SUB SWAP1 SWAP2 AND SWAP1 PUSH4 0x333F6111 SWAP1 DUP8 SWAP1 DUP8 SWAP1 DUP8 SWAP1 PUSH2 0x18EA SWAP1 DUP9 SWAP1 DUP9 SWAP1 PUSH1 0x20 ADD PUSH2 0x3125 JUMP JUMPDEST PUSH1 0x40 MLOAD PUSH1 0x20 DUP2 DUP4 SUB SUB DUP2 MSTORE SWAP1 PUSH1 0x40 MSTORE PUSH1 0x40 MLOAD DUP6 PUSH4 0xFFFFFFFF AND PUSH1 0xE0 SHL DUP2 MSTORE PUSH1 0x4 ADD PUSH2 0x1918 SWAP5 SWAP4 SWAP3 SWAP2 SWAP1 PUSH2 0x2E7B JUMP JUMPDEST PUSH1 0x20 PUSH1 0x40 MLOAD DUP1 DUP4 SUB DUP2 PUSH1 0x0 DUP8 GAS CALL ISZERO DUP1 ISZERO PUSH2 0x1937 JUMPI RETURNDATASIZE PUSH1 0x0 DUP1 RETURNDATACOPY RETURNDATASIZE PUSH1 0x0 REVERT JUMPDEST POP POP POP POP PUSH1 0x40 MLOAD RETURNDATASIZE PUSH1 0x1F NOT PUSH1 0x1F DUP3 ADD AND DUP3 ADD DUP1 PUSH1 0x40 MSTORE POP DUP2 ADD SWAP1 PUSH2 0x195B SWAP2 SWAP1 PUSH2 0x2F5C JUMP JUMPDEST PUSH2 0x1977 JUMPI PUSH1 0x40 MLOAD PUSH3 0x461BCD PUSH1 0xE5 SHL DUP2 MSTORE PUSH1 0x4 ADD PUSH2 0x54C SWAP1 PUSH2 0x2F7E JUMP JUMPDEST DUP2 DUP2 PUSH1 0x40 MLOAD PUSH1 0x20 ADD PUSH2 0x198A SWAP3 SWAP2 SWAP1 PUSH2 0x3125 JUMP JUMPDEST PUSH1 0x40 DUP1 MLOAD PUSH1 0x1F NOT DUP2 DUP5 SUB ADD DUP2 MSTORE SWAP2 SWAP1 MSTORE DUP1 MLOAD PUSH1 0x20 SWAP1 SWAP2 ADD KECCAK256 PUSH1 0x16 SSTORE POP POP POP POP POP JUMP JUMPDEST PUSH1 0x0 DUP1 JUMPDEST PUSH2 0x100 DUP2 LT ISZERO PUSH2 0x1A54 JUMPI DUP4 DUP2 PUSH2 0x100 DUP2 LT PUSH2 0x19CD JUMPI PUSH2 0x19CD PUSH2 0x2FE2 JUMP JUMPDEST PUSH1 0x20 MUL DUP2 ADD SWAP1 PUSH2 0x19DD SWAP2 SWAP1 PUSH2 0x3149 JUMP JUMPDEST PUSH1 0x40 MLOAD PUSH2 0x19EB SWAP3 SWAP2 SWAP1 PUSH2 0x3125 JUMP JUMPDEST PUSH1 0x40 MLOAD DUP1 SWAP2 SUB SWAP1 KECCAK256 DUP4 DUP3 PUSH2 0x100 DUP2 LT PUSH2 0x1A06 JUMPI PUSH2 0x1A06 PUSH2 0x2FE2 JUMP JUMPDEST PUSH1 0x40 MUL ADD PUSH1 0x0 DUP4 PUSH1 0xFF SUB PUSH1 0x1 SWAP1 SHL DUP9 AND GT PUSH2 0x1A22 JUMPI PUSH1 0x0 PUSH2 0x1A25 JUMP JUMPDEST PUSH1 0x1 JUMPDEST PUSH1 0xFF AND PUSH1 0x2 DUP2 LT PUSH2 0x1A38 JUMPI PUSH2 0x1A38 PUSH2 0x2FE2 JUMP JUMPDEST PUSH1 0x20 MUL ADD CALLDATALOAD EQ PUSH2 0x1A4C JUMPI PUSH1 0x0 SWAP2 POP POP PUSH2 0x1A5A JUMP JUMPDEST PUSH1 0x1 ADD PUSH2 0x19B0 JUMP JUMPDEST POP PUSH1 0x1 SWAP1 POP JUMPDEST SWAP4 SWAP3 POP POP POP JUMP JUMPDEST PUSH1 0x1 SLOAD PUSH1 0x60 SWAP1 PUSH1 0x0 SWAP1 PUSH8 0xFFFFFFFFFFFFFFFF DUP2 GT ISZERO PUSH2 0x1A82 JUMPI PUSH2 0x1A82 PUSH2 0x2A22 JUMP JUMPDEST PUSH1 0x40 MLOAD SWAP1 DUP1 DUP3 MSTORE DUP1 PUSH1 0x20 MUL PUSH1 0x20 ADD DUP3 ADD PUSH1 0x40 MSTORE DUP1 ISZERO PUSH2 0x1AAB JUMPI DUP2 PUSH1 0x20 ADD PUSH1 0x20 DUP3 MUL DUP1 CALLDATASIZE DUP4 CALLDATACOPY ADD SWAP1 POP JUMPDEST POP SWAP1 POP PUSH1 0x0 DUP1 JUMPDEST PUSH1 0x1 SLOAD DUP2 LT ISZERO PUSH2 0x1B6C JUMPI DUP5 PUSH1 0x2 DUP2 GT ISZERO PUSH2 0x1ACE JUMPI PUSH2 0x1ACE PUSH2 0x2984 JUMP JUMPDEST PUSH1 0x1 DUP3 DUP2 SLOAD DUP2 LT PUSH2 0x1AE1 JUMPI PUSH2 0x1AE1 PUSH2 0x2FE2 JUMP JUMPDEST PUSH1 0x0 SWAP2 DUP3 MSTORE PUSH1 0x20 SWAP1 SWAP2 KECCAK256 PUSH1 0x2 SWAP2 DUP3 MUL ADD SLOAD PUSH1 0xFF AND SWAP1 DUP2 GT ISZERO PUSH2 0x1B05 JUMPI PUSH2 0x1B05 PUSH2 0x2984 JUMP JUMPDEST SUB PUSH2 0x1B5A JUMPI PUSH1 0x1 DUP2 DUP2 SLOAD DUP2 LT PUSH2 0x1B1D JUMPI PUSH2 0x1B1D PUSH2 0x2FE2 JUMP JUMPDEST SWAP1 PUSH1 0x0 MSTORE PUSH1 0x20 PUSH1 0x0 KECCAK256 SWAP1 PUSH1 0x2 MUL ADD PUSH1 0x1 ADD SLOAD DUP4 DUP4 DUP2 MLOAD DUP2 LT PUSH2 0x1B41 JUMPI PUSH2 0x1B41 PUSH2 0x2FE2 JUMP JUMPDEST PUSH1 0x20 SWAP1 DUP2 MUL SWAP2 SWAP1 SWAP2 ADD ADD MSTORE DUP2 PUSH2 0x1B56 DUP2 PUSH2 0x2FF8 JUMP JUMPDEST SWAP3 POP POP JUMPDEST DUP1 PUSH2 0x1B64 DUP2 PUSH2 0x2FF8 JUMP JUMPDEST SWAP2 POP POP PUSH2 0x1AB2 JUMP JUMPDEST POP PUSH1 0x0 DUP2 PUSH8 0xFFFFFFFFFFFFFFFF DUP2 GT ISZERO PUSH2 0x1B88 JUMPI PUSH2 0x1B88 PUSH2 0x2A22 JUMP JUMPDEST PUSH1 0x40 MLOAD SWAP1 DUP1 DUP3 MSTORE DUP1 PUSH1 0x20 MUL PUSH1 0x20 ADD DUP3 ADD PUSH1 0x40 MSTORE DUP1 ISZERO PUSH2 0x1BB1 JUMPI DUP2 PUSH1 0x20 ADD PUSH1 0x20 DUP3 MUL DUP1 CALLDATASIZE DUP4 CALLDATACOPY ADD SWAP1 POP JUMPDEST POP SWAP1 POP PUSH1 0x0 JUMPDEST DUP3 DUP2 LT ISZERO PUSH2 0x1C08 JUMPI DUP4 DUP2 DUP2 MLOAD DUP2 LT PUSH2 0x1BD1 JUMPI PUSH2 0x1BD1 PUSH2 0x2FE2 JUMP JUMPDEST PUSH1 0x20 MUL PUSH1 0x20 ADD ADD MLOAD DUP3 DUP3 DUP2 MLOAD DUP2 LT PUSH2 0x1BEB JUMPI PUSH2 0x1BEB PUSH2 0x2FE2 JUMP JUMPDEST PUSH1 0x20 SWAP1 DUP2 MUL SWAP2 SWAP1 SWAP2 ADD ADD MSTORE DUP1 PUSH2 0x1C00 DUP2 PUSH2 0x2FF8 JUMP JUMPDEST SWAP2 POP POP PUSH2 0x1BB7 JUMP JUMPDEST POP SWAP5 SWAP4 POP POP POP POP JUMP JUMPDEST PUSH1 0x7 SLOAD PUSH1 0x40 MLOAD PUSH1 0x1 PUSH1 0x1 PUSH1 0xA0 SHL SUB SWAP1 SWAP2 AND SWAP1 PUSH4 0x333F6111 SWAP1 DUP8 SWAP1 DUP8 SWAP1 DUP8 SWAP1 PUSH2 0x1C3F SWAP1 DUP9 SWAP1 DUP9 SWAP1 PUSH1 0x20 ADD PUSH2 0x30AF JUMP JUMPDEST PUSH1 0x40 MLOAD PUSH1 0x20 DUP2 DUP4 SUB SUB DUP2 MSTORE SWAP1 PUSH1 0x40 MSTORE PUSH1 0x40 MLOAD DUP6 PUSH4 0xFFFFFFFF AND PUSH1 0xE0 SHL DUP2 MSTORE PUSH1 0x4 ADD PUSH2 0x1C6D SWAP5 SWAP4 SWAP3 SWAP2 SWAP1 PUSH2 0x2E7B JUMP JUMPDEST PUSH1 0x20 PUSH1 0x40 MLOAD DUP1 DUP4 SUB DUP2 PUSH1 0x0 DUP8 GAS CALL ISZERO DUP1 ISZERO PUSH2 0x1C8C JUMPI RETURNDATASIZE PUSH1 0x0 DUP1 RETURNDATACOPY RETURNDATASIZE PUSH1 0x0 REVERT JUMPDEST POP POP POP POP PUSH1 0x40 MLOAD RETURNDATASIZE PUSH1 0x1F NOT PUSH1 0x1F DUP3 ADD AND DUP3 ADD DUP1 PUSH1 0x40 MSTORE POP DUP2 ADD SWAP1 PUSH2 0x1CB0 SWAP2 SWAP1 PUSH2 0x2F5C JUMP JUMPDEST PUSH2 0x1CCC JUMPI PUSH1 0x40 MLOAD PUSH3 0x461BCD PUSH1 0xE5 SHL DUP2 MSTORE PUSH1 0x4 ADD PUSH2 0x54C SWAP1 PUSH2 0x2F7E JUMP JUMPDEST DUP2 DUP2 PUSH1 0x40 MLOAD PUSH1 0x20 ADD PUSH2 0x1CDF SWAP3 SWAP2 SWAP1 PUSH2 0x30AF JUMP JUMPDEST PUSH1 0x40 MLOAD PUSH1 0x20 DUP2 DUP4 SUB SUB DUP2 MSTORE SWAP1 PUSH1 0x40 MSTORE DUP1 MLOAD SWAP1 PUSH1 0x20 ADD KECCAK256 PUSH1 0x15 SLOAD EQ PUSH2 0x1D45 JUMPI PUSH1 0x40 MLOAD PUSH3 0x461BCD PUSH1 0xE5 SHL DUP2 MSTORE PUSH1 0x20 PUSH1 0x4 DUP3 ADD MSTORE PUSH1 0x18 PUSH1 0x24 DUP3 ADD MSTORE PUSH32 0x4D69736D61746368656420696E634E6F6E636520686173680000000000000000 PUSH1 0x44 DUP3 ADD MSTORE PUSH1 0x64 ADD PUSH2 0x54C JUMP JUMPDEST PUSH1 0x6 SLOAD PUSH1 0x40 MLOAD PUSH4 0xF37D5A7 PUSH1 0xE3 SHL DUP2 MSTORE PUSH1 0x1 PUSH1 0x1 PUSH1 0xA0 SHL SUB DUP5 DUP2 AND PUSH1 0x4 DUP4 ADD MSTORE PUSH1 0x24 DUP3 ADD DUP5 SWAP1 MSTORE SWAP1 SWAP2 AND SWAP1 PUSH4 0x79BEAD38 SWAP1 PUSH1 0x44 ADD PUSH1 0x0 PUSH1 0x40 MLOAD DUP1 DUP4 SUB DUP2 PUSH1 0x0 DUP8 DUP1 EXTCODESIZE ISZERO DUP1 ISZERO PUSH2 0x1D93 JUMPI PUSH1 0x0 DUP1 REVERT JUMPDEST POP GAS CALL ISZERO DUP1 ISZERO PUSH2 0x1DA7 JUMPI RETURNDATASIZE PUSH1 0x0 DUP1 RETURNDATACOPY RETURNDATASIZE PUSH1 0x0 REVERT JUMPDEST POP POP PUSH1 0x0 PUSH1 0x15 SSTORE POP POP POP POP POP POP POP JUMP JUMPDEST PUSH1 0x7 SLOAD PUSH1 0x40 MLOAD PUSH1 0x1 PUSH1 0x1 PUSH1 0xA0 SHL SUB SWAP1 SWAP2 AND SWAP1 PUSH4 0x333F6111 SWAP1 DUP7 SWAP1 DUP7 SWAP1 DUP7 SWAP1 PUSH2 0x1DE3 SWAP1 DUP8 SWAP1 PUSH1 0x20 ADD PUSH2 0x3108 JUMP JUMPDEST PUSH1 0x40 MLOAD PUSH1 0x20 DUP2 DUP4 SUB SUB DUP2 MSTORE SWAP1 PUSH1 0x40 MSTORE PUSH1 0x40 MLOAD DUP6 PUSH4 0xFFFFFFFF AND PUSH1 0xE0 SHL DUP2 MSTORE PUSH1 0x4 ADD PUSH2 0x1E11 SWAP5 SWAP4 SWAP3 SWAP2 SWAP1 PUSH2 0x2E7B JUMP JUMPDEST PUSH1 0x20 PUSH1 0x40 MLOAD DUP1 DUP4 SUB DUP2 PUSH1 0x0 DUP8 GAS CALL ISZERO DUP1 ISZERO PUSH2 0x1E30 JUMPI RETURNDATASIZE PUSH1 0x0 DUP1 RETURNDATACOPY RETURNDATASIZE PUSH1 0x0 REVERT JUMPDEST POP POP POP POP PUSH1 0x40 MLOAD RETURNDATASIZE PUSH1 0x1F NOT PUSH1 0x1F DUP3 ADD AND DUP3 ADD DUP1 PUSH1 0x40 MSTORE POP DUP2 ADD SWAP1 PUSH2 0x1E54 SWAP2 SWAP1 PUSH2 0x2F5C JUMP JUMPDEST PUSH2 0x1E70 JUMPI PUSH1 0x40 MLOAD PUSH3 0x461BCD PUSH1 0xE5 SHL DUP2 MSTORE PUSH1 0x4 ADD PUSH2 0x54C SWAP1 PUSH2 0x2F7E JUMP JUMPDEST PUSH1 0xA SLOAD PUSH1 0x1 PUSH1 0x1 PUSH1 0xA0 SHL SUB DUP3 DUP2 AND SWAP2 AND EQ PUSH2 0x1EE5 JUMPI PUSH1 0x40 MLOAD PUSH3 0x461BCD PUSH1 0xE5 SHL DUP2 MSTORE PUSH1 0x20 PUSH1 0x4 DUP3 ADD MSTORE PUSH1 0x2F PUSH1 0x24 DUP3 ADD MSTORE PUSH32 0x4D69736D617463686564205346432061646472657373206265747765656E2073 PUSH1 0x44 DUP3 ADD MSTORE PUSH15 0x746570206F6E6520616E642074776F PUSH1 0x88 SHL PUSH1 0x64 DUP3 ADD MSTORE PUSH1 0x84 ADD PUSH2 0x54C JUMP JUMPDEST PUSH1 0x6 DUP1 SLOAD PUSH1 0x1 PUSH1 0x1 PUSH1 0xA0 SHL SUB DUP4 AND PUSH1 0x1 PUSH1 0x1 PUSH1 0xA0 SHL SUB NOT SWAP2 DUP3 AND DUP2 OR SWAP1 SWAP3 SSTORE PUSH1 0xA DUP1 SLOAD SWAP1 SWAP2 AND SWAP1 SSTORE PUSH1 0x40 MLOAD SWAP1 DUP2 MSTORE PUSH32 0xA58E865B123363C0F0CA6529FAF8ECD8C7333DDA1DD61E7E054CB9EA7C18C487 SWAP1 PUSH1 0x20 ADD PUSH1 0x40 MLOAD DUP1 SWAP2 SUB SWAP1 LOG1 POP POP POP POP JUMP JUMPDEST DUP4 DUP4 DUP4 DUP4 PUSH1 0x40 MLOAD PUSH1 0x20 ADD PUSH2 0x1F5C SWAP2 DUP2 MSTORE PUSH1 0x20 ADD SWAP1 JUMP JUMPDEST PUSH1 0x40 DUP1 MLOAD PUSH1 0x1F NOT DUP2 DUP5 SUB ADD DUP2 MSTORE SWAP2 SWAP1 MSTORE PUSH1 0x0 SLOAD PUSH1 0xFF AND PUSH2 0x1F8E JUMPI PUSH1 0x40 MLOAD PUSH3 0x461BCD PUSH1 0xE5 SHL DUP2 MSTORE PUSH1 0x4 ADD PUSH2 0x54C SWAP1 PUSH2 0x301F JUMP JUMPDEST PUSH1 0x0 DUP5 PUSH1 0x40 MLOAD PUSH1 0x20 ADD PUSH2 0x1FA1 SWAP2 SWAP1 PUSH2 0x3056 JUMP JUMPDEST PUSH1 0x40 DUP1 MLOAD PUSH1 0x1F NOT DUP2 DUP5 SUB ADD DUP2 MSTORE SWAP2 SWAP1 MSTORE DUP1 MLOAD PUSH1 0x20 SWAP1 SWAP2 ADD KECCAK256 SWAP1 POP PUSH1 0x0 DUP1 DUP3 DUP2 MSTORE PUSH1 0x2 PUSH1 0x20 DUP2 SWAP1 MSTORE PUSH1 0x40 SWAP1 SWAP2 KECCAK256 SLOAD PUSH1 0xFF AND SWAP1 DUP2 GT ISZERO PUSH2 0x1FE1 JUMPI PUSH2 0x1FE1 PUSH2 0x2984 JUMP JUMPDEST EQ PUSH2 0x1FFE JUMPI PUSH1 0x40 MLOAD PUSH3 0x461BCD PUSH1 0xE5 SHL DUP2 MSTORE PUSH1 0x4 ADD PUSH2 0x54C SWAP1 PUSH2 0x30D1 JUMP JUMPDEST PUSH1 0x0 DUP3 DUP5 PUSH1 0x40 MLOAD PUSH1 0x20 ADD PUSH2 0x2013 SWAP3 SWAP2 SWAP1 PUSH2 0x308D JUMP JUMPDEST PUSH1 0x40 DUP1 MLOAD PUSH1 0x1F NOT DUP2 DUP5 SUB ADD DUP2 MSTORE SWAP1 DUP3 SWAP1 MSTORE DUP1 MLOAD PUSH1 0x20 SWAP2 DUP3 ADD KECCAK256 DUP1 DUP4 MSTORE SWAP3 POP PUSH1 0x0 DUP1 MLOAD PUSH1 0x20 PUSH2 0x31E8 DUP4 CODECOPY DUP2 MLOAD SWAP2 MSTORE SWAP2 ADD PUSH1 0x40 MLOAD DUP1 SWAP2 SUB SWAP1 LOG1 PUSH1 0x0 PUSH2 0x2057 DUP3 DUP8 DUP10 PUSH2 0x19AC JUMP JUMPDEST PUSH1 0x0 DUP1 SLOAD PUSH2 0xFF00 NOT AND PUSH2 0x100 DUP4 ISZERO ISZERO MUL OR SWAP1 SSTORE SWAP1 POP DUP1 PUSH2 0x208F JUMPI PUSH1 0x40 MLOAD DUP3 DUP2 MSTORE PUSH1 0x0 DUP1 MLOAD PUSH1 0x20 PUSH2 0x31C8 DUP4 CODECOPY DUP2 MLOAD SWAP2 MSTORE SWAP1 PUSH1 0x20 ADD PUSH2 0xC20 JUMP JUMPDEST PUSH1 0x0 DUP4 DUP2 MSTORE PUSH1 0x2 PUSH1 0x20 MSTORE PUSH1 0x40 SWAP1 DUP2 SWAP1 KECCAK256 SLOAD SWAP1 MLOAD PUSH1 0x0 DUP1 MLOAD PUSH1 0x20 PUSH2 0x3208 DUP4 CODECOPY DUP2 MLOAD SWAP2 MSTORE SWAP2 PUSH2 0x20C5 SWAP2 PUSH1 0xFF SWAP1 SWAP2 AND SWAP1 DUP7 SWAP1 DUP10 SWAP1 PUSH2 0x29BC JUMP JUMPDEST PUSH1 0x40 MLOAD DUP1 SWAP2 SUB SWAP1 LOG1 PUSH2 0x20D7 DUP4 DUP7 PUSH2 0x273C JUMP JUMPDEST POP POP POP PUSH1 0x3 SWAP5 SWAP1 SWAP5 SSTORE POP POP POP PUSH1 0x4 SWAP2 SWAP1 SWAP2 SSTORE POP POP POP JUMP JUMPDEST DUP4 DUP4 DUP4 DUP4 PUSH1 0x40 MLOAD PUSH1 0x20 ADD PUSH2 0x2104 SWAP2 DUP2 MSTORE PUSH1 0x20 ADD SWAP1 JUMP JUMPDEST PUSH1 0x40 DUP1 MLOAD PUSH1 0x1F NOT DUP2 DUP5 SUB ADD DUP2 MSTORE SWAP2 SWAP1 MSTORE PUSH1 0x0 SLOAD PUSH1 0xFF AND PUSH2 0x2136 JUMPI PUSH1 0x40 MLOAD PUSH3 0x461BCD PUSH1 0xE5 SHL DUP2 MSTORE PUSH1 0x4 ADD PUSH2 0x54C SWAP1 PUSH2 0x301F JUMP JUMPDEST PUSH1 0x0 DUP5 PUSH1 0x40 MLOAD PUSH1 0x20 ADD PUSH2 0x2149 SWAP2 SWAP1 PUSH2 0x3056 JUMP JUMPDEST PUSH1 0x40 DUP1 MLOAD PUSH1 0x1F NOT DUP2 DUP5 SUB ADD DUP2 MSTORE SWAP2 SWAP1 MSTORE DUP1 MLOAD PUSH1 0x20 SWAP1 SWAP2 ADD KECCAK256 SWAP1 POP PUSH1 0x0 DUP1 DUP3 DUP2 MSTORE PUSH1 0x2 PUSH1 0x20 DUP2 SWAP1 MSTORE PUSH1 0x40 SWAP1 SWAP2 KECCAK256 SLOAD PUSH1 0xFF AND SWAP1 DUP2 GT ISZERO PUSH2 0x2189 JUMPI PUSH2 0x2189 PUSH2 0x2984 JUMP JUMPDEST EQ PUSH2 0x21A6 JUMPI PUSH1 0x40 MLOAD PUSH3 0x461BCD PUSH1 0xE5 SHL DUP2 MSTORE PUSH1 0x4 ADD PUSH2 0x54C SWAP1 PUSH2 0x30D1 JUMP JUMPDEST PUSH1 0x0 DUP3 DUP5 PUSH1 0x40 MLOAD PUSH1 0x20 ADD PUSH2 0x21BB SWAP3 SWAP2 SWAP1 PUSH2 0x308D JUMP JUMPDEST PUSH1 0x40 DUP1 MLOAD PUSH1 0x1F NOT DUP2 DUP5 SUB ADD DUP2 MSTORE SWAP1 DUP3 SWAP1 MSTORE DUP1 MLOAD PUSH1 0x20 SWAP2 DUP3 ADD KECCAK256 DUP1 DUP4 MSTORE SWAP3 POP PUSH1 0x0 DUP1 MLOAD PUSH1 0x20 PUSH2 0x31E8 DUP4 CODECOPY DUP2 MLOAD SWAP2 MSTORE SWAP2 ADD PUSH1 0x40 MLOAD DUP1 SWAP2 SUB SWAP1 LOG1 PUSH1 0x0 PUSH2 0x21FF DUP3 DUP8 DUP10 PUSH2 0x19AC JUMP JUMPDEST PUSH1 0x0 DUP1 SLOAD PUSH2 0xFF00 NOT AND PUSH2 0x100 DUP4 ISZERO ISZERO MUL OR SWAP1 SSTORE SWAP1 POP DUP1 PUSH2 0x2237 JUMPI PUSH1 0x40 MLOAD DUP3 DUP2 MSTORE PUSH1 0x0 DUP1 MLOAD PUSH1 0x20 PUSH2 0x31C8 DUP4 CODECOPY DUP2 MLOAD SWAP2 MSTORE SWAP1 PUSH1 0x20 ADD PUSH2 0xC20 JUMP JUMPDEST PUSH1 0x0 DUP4 DUP2 MSTORE PUSH1 0x2 PUSH1 0x20 MSTORE PUSH1 0x40 SWAP1 DUP2 SWAP1 KECCAK256 SLOAD SWAP1 MLOAD PUSH1 0x0 DUP1 MLOAD PUSH1 0x20 PUSH2 0x3208 DUP4 CODECOPY DUP2 MLOAD SWAP2 MSTORE SWAP2 PUSH2 0x226D SWAP2 PUSH1 0xFF SWAP1 SWAP2 AND SWAP1 DUP7 SWAP1 DUP10 SWAP1 PUSH2 0x29BC JUMP JUMPDEST PUSH1 0x40 MLOAD DUP1 SWAP2 SUB SWAP1 LOG1 PUSH2 0x227F DUP4 DUP7 PUSH2 0x273C JUMP JUMPDEST PUSH1 0x0 DUP12 PUSH1 0x40 MLOAD PUSH1 0x20 ADD PUSH2 0x2292 SWAP2 SWAP1 PUSH2 0x3056 JUMP JUMPDEST PUSH1 0x40 MLOAD PUSH1 0x20 DUP2 DUP4 SUB SUB DUP2 MSTORE SWAP1 PUSH1 0x40 MSTORE DUP1 MLOAD SWAP1 PUSH1 0x20 ADD KECCAK256 SWAP1 POP PUSH1 0x4 SLOAD DUP2 SUB PUSH2 0x232B JUMPI PUSH1 0x40 MLOAD PUSH3 0x461BCD PUSH1 0xE5 SHL DUP2 MSTORE PUSH1 0x20 PUSH1 0x4 DUP3 ADD MSTORE PUSH1 0x41 PUSH1 0x24 DUP3 ADD MSTORE PUSH32 0x4C616D706F7274426173653A2043616E6E6F7420757365207468652073616D65 PUSH1 0x44 DUP3 ADD MSTORE PUSH32 0x206B6579636861696E20747769636520666F7220746869732066756E6374696F PUSH1 0x64 DUP3 ADD MSTORE PUSH1 0x37 PUSH1 0xF9 SHL PUSH1 0x84 DUP3 ADD MSTORE PUSH1 0xA4 ADD PUSH2 0x54C JUMP JUMPDEST DUP9 PUSH1 0x3 SLOAD EQ PUSH2 0x237C JUMPI PUSH1 0x40 MLOAD PUSH3 0x461BCD PUSH1 0xE5 SHL DUP2 MSTORE PUSH1 0x20 PUSH1 0x4 DUP3 ADD MSTORE PUSH1 0x1E PUSH1 0x24 DUP3 ADD MSTORE PUSH32 0x4C616D706F7274426173653A204B65797320646F206E6F74206D617463680000 PUSH1 0x44 DUP3 ADD MSTORE PUSH1 0x64 ADD PUSH2 0x54C JUMP JUMPDEST PUSH1 0x4 SLOAD DUP2 DUP11 PUSH1 0x0 DUP1 DUP5 DUP2 MSTORE PUSH1 0x2 PUSH1 0x20 DUP2 SWAP1 MSTORE PUSH1 0x40 SWAP1 SWAP2 KECCAK256 SLOAD PUSH1 0xFF AND SWAP1 DUP2 GT ISZERO PUSH2 0x23A7 JUMPI PUSH2 0x23A7 PUSH2 0x2984 JUMP JUMPDEST EQ DUP1 ISZERO PUSH2 0x23D5 JUMPI POP PUSH1 0x0 DUP3 DUP2 MSTORE PUSH1 0x2 PUSH1 0x20 DUP2 SWAP1 MSTORE PUSH1 0x40 DUP3 KECCAK256 SLOAD PUSH1 0xFF AND SWAP1 DUP2 GT ISZERO PUSH2 0x23D3 JUMPI PUSH2 0x23D3 PUSH2 0x2984 JUMP JUMPDEST EQ JUMPDEST PUSH2 0x2438 JUMPI PUSH1 0x40 MLOAD PUSH3 0x461BCD PUSH1 0xE5 SHL DUP2 MSTORE PUSH1 0x20 PUSH1 0x4 DUP3 ADD MSTORE PUSH1 0x2E PUSH1 0x24 DUP3 ADD MSTORE PUSH32 0x4C616D706F7274426173653A2050726F7669646564206B65797320617265206E PUSH1 0x44 DUP3 ADD MSTORE PUSH14 0x6F74206D6173746572206B657973 PUSH1 0x90 SHL PUSH1 0x64 DUP3 ADD MSTORE PUSH1 0x84 ADD PUSH2 0x54C JUMP JUMPDEST DUP3 DUP2 EQ ISZERO DUP1 ISZERO PUSH2 0x2448 JUMPI POP DUP2 DUP2 EQ ISZERO JUMPDEST PUSH2 0x24AE JUMPI PUSH1 0x40 MLOAD PUSH3 0x461BCD PUSH1 0xE5 SHL DUP2 MSTORE PUSH1 0x20 PUSH1 0x4 DUP3 ADD MSTORE PUSH1 0x31 PUSH1 0x24 DUP3 ADD MSTORE PUSH32 0x4C616D706F7274426173653A204D6173746572206B6579732063616E6E6F7420 PUSH1 0x44 DUP3 ADD MSTORE PUSH17 0x64656C657465207468656D73656C766573 PUSH1 0x78 SHL PUSH1 0x64 DUP3 ADD MSTORE PUSH1 0x84 ADD PUSH2 0x54C JUMP JUMPDEST PUSH1 0x0 DUP2 DUP2 MSTORE PUSH1 0x2 PUSH1 0x20 MSTORE PUSH1 0x40 DUP2 KECCAK256 PUSH1 0x1 ADD SLOAD SWAP1 SUB PUSH2 0x251A JUMPI PUSH1 0x40 MLOAD PUSH3 0x461BCD PUSH1 0xE5 SHL DUP2 MSTORE PUSH1 0x20 PUSH1 0x4 DUP3 ADD MSTORE PUSH1 0x23 PUSH1 0x24 DUP3 ADD MSTORE PUSH32 0x4C616D706F7274426173653A204E6F2073756368206B6579202864656C657469 PUSH1 0x44 DUP3 ADD MSTORE PUSH3 0x6F6E29 PUSH1 0xE8 SHL PUSH1 0x64 DUP3 ADD MSTORE PUSH1 0x84 ADD PUSH2 0x54C JUMP JUMPDEST PUSH1 0x0 JUMPDEST PUSH1 0x1 SLOAD DUP2 LT ISZERO PUSH2 0x2607 JUMPI DUP2 PUSH1 0x1 DUP3 DUP2 SLOAD DUP2 LT PUSH2 0x253B JUMPI PUSH2 0x253B PUSH2 0x2FE2 JUMP JUMPDEST SWAP1 PUSH1 0x0 MSTORE PUSH1 0x20 PUSH1 0x0 KECCAK256 SWAP1 PUSH1 0x2 MUL ADD PUSH1 0x1 ADD SLOAD SUB PUSH2 0x25F5 JUMPI PUSH1 0x0 DUP3 DUP2 MSTORE PUSH1 0x2 PUSH1 0x20 DUP2 DUP2 MSTORE PUSH1 0x40 DUP1 DUP5 KECCAK256 DUP1 SLOAD DUP3 MLOAD TIMESTAMP DUP2 DUP7 ADD MSTORE DIFFICULTY DUP2 DUP6 ADD MSTORE DUP4 MLOAD DUP1 DUP3 SUB DUP6 ADD DUP2 MSTORE PUSH1 0x60 SWAP1 SWAP2 ADD SWAP4 DUP5 SWAP1 MSTORE DUP1 MLOAD SWAP1 DUP6 ADD KECCAK256 SWAP6 DUP9 SWAP1 MSTORE SWAP3 DUP5 SWAP1 MSTORE PUSH4 0xDE1E7ED PUSH1 0xE4 SHL DUP6 XOR PUSH1 0x1 DUP3 ADD DUP2 SWAP1 SSTORE PUSH1 0xFF NOT DUP5 AND DUP6 OR SWAP1 SWAP2 SSTORE PUSH1 0xFF SWAP1 SWAP3 AND SWAP4 SWAP2 SWAP3 PUSH32 0x643BE3612916977C69D5ED1ABB75A50CCA49DF49BA2444D836E2A0CF65FE074 SWAP2 PUSH2 0x25E5 SWAP2 DUP7 SWAP2 DUP10 SWAP2 DUP8 SWAP2 PUSH2 0x3197 JUMP JUMPDEST PUSH1 0x40 MLOAD DUP1 SWAP2 SUB SWAP1 LOG1 POP POP POP PUSH2 0x2607 JUMP JUMPDEST DUP1 PUSH2 0x25FF DUP2 PUSH2 0x2FF8 JUMP JUMPDEST SWAP2 POP POP PUSH2 0x251D JUMP JUMPDEST POP POP PUSH1 0x0 PUSH1 0x3 DUP2 SWAP1 SSTORE PUSH1 0x4 SSTORE POP POP POP POP POP POP POP POP POP POP POP POP POP POP JUMP JUMPDEST PUSH1 0x0 PUSH1 0x40 MLOAD DUP1 PUSH1 0x40 ADD PUSH1 0x40 MSTORE DUP1 DUP5 PUSH1 0x2 DUP2 GT ISZERO PUSH2 0x2642 JUMPI PUSH2 0x2642 PUSH2 0x2984 JUMP JUMPDEST DUP2 MSTORE PUSH1 0x20 ADD DUP4 SWAP1 MSTORE PUSH1 0x1 DUP1 SLOAD DUP1 DUP3 ADD DUP3 SSTORE PUSH1 0x0 DUP3 SWAP1 MSTORE DUP3 MLOAD PUSH1 0x2 SWAP2 DUP3 MUL PUSH32 0xB10E2D527612073B26EECDFD717E6A320CF44B4AFAC2B0732D9FCBE2B7FA0CF6 ADD DUP1 SLOAD SWAP5 SWAP6 POP DUP6 SWAP5 SWAP1 SWAP4 SWAP2 SWAP3 DUP5 SWAP3 PUSH1 0xFF NOT SWAP1 SWAP3 AND SWAP2 SWAP1 DUP5 SWAP1 DUP2 GT ISZERO PUSH2 0x26A7 JUMPI PUSH2 0x26A7 PUSH2 0x2984 JUMP JUMPDEST MUL OR SWAP1 SSTORE POP PUSH1 0x20 SWAP2 DUP3 ADD MLOAD PUSH1 0x1 SWAP2 DUP3 ADD SSTORE PUSH1 0x0 DUP5 DUP2 MSTORE PUSH1 0x2 SWAP3 DUP4 SWAP1 MSTORE PUSH1 0x40 SWAP1 KECCAK256 DUP4 MLOAD DUP2 SLOAD DUP6 SWAP5 SWAP3 SWAP4 SWAP2 SWAP3 DUP5 SWAP3 PUSH1 0xFF NOT SWAP1 SWAP3 AND SWAP2 SWAP1 DUP5 SWAP1 DUP2 GT ISZERO PUSH2 0x26EC JUMPI PUSH2 0x26EC PUSH2 0x2984 JUMP JUMPDEST MUL OR SWAP1 SSTORE POP PUSH1 0x20 DUP3 ADD MLOAD DUP2 PUSH1 0x1 ADD SSTORE SWAP1 POP POP PUSH32 0x2172C7B01A6DE957D29FD6166A23025D181BF56538AD606A526AB2D62603F3FC DUP4 DUP4 PUSH1 0x40 MLOAD PUSH2 0x272F SWAP3 SWAP2 SWAP1 PUSH2 0x2A07 JUMP JUMPDEST PUSH1 0x40 MLOAD DUP1 SWAP2 SUB SWAP1 LOG1 POP POP POP JUMP JUMPDEST PUSH1 0x0 DUP3 DUP2 MSTORE PUSH1 0x2 PUSH1 0x20 MSTORE PUSH1 0x40 DUP2 KECCAK256 PUSH1 0x1 ADD SLOAD SWAP1 SUB PUSH2 0x276C JUMPI PUSH1 0x40 MLOAD PUSH3 0x461BCD PUSH1 0xE5 SHL DUP2 MSTORE PUSH1 0x4 ADD PUSH2 0x54C SWAP1 PUSH2 0x2FAB JUMP JUMPDEST PUSH1 0x40 DUP1 MLOAD DUP1 DUP3 ADD DUP3 MSTORE PUSH1 0x0 DUP5 DUP2 MSTORE PUSH1 0x2 PUSH1 0x20 DUP2 SWAP1 MSTORE SWAP3 DUP2 KECCAK256 SLOAD SWAP1 SWAP3 DUP3 SWAP2 PUSH1 0xFF AND SWAP1 DUP2 GT ISZERO PUSH2 0x279C JUMPI PUSH2 0x279C PUSH2 0x2984 JUMP JUMPDEST DUP2 MSTORE PUSH1 0x20 ADD DUP4 DUP2 MSTORE POP SWAP1 POP DUP1 PUSH1 0x2 PUSH1 0x0 DUP5 DUP2 MSTORE PUSH1 0x20 ADD SWAP1 DUP2 MSTORE PUSH1 0x20 ADD PUSH1 0x0 KECCAK256 PUSH1 0x0 DUP3 ADD MLOAD DUP2 PUSH1 0x0 ADD PUSH1 0x0 PUSH2 0x100 EXP DUP2 SLOAD DUP2 PUSH1 0xFF MUL NOT AND SWAP1 DUP4 PUSH1 0x2 DUP2 GT ISZERO PUSH2 0x27E5 JUMPI PUSH2 0x27E5 PUSH2 0x2984 JUMP JUMPDEST MUL OR SWAP1 SSTORE POP PUSH1 0x20 SWAP2 DUP3 ADD MLOAD PUSH1 0x1 SWAP2 DUP3 ADD SSTORE PUSH1 0x0 DUP6 DUP2 MSTORE PUSH1 0x2 SWAP1 SWAP3 MSTORE PUSH1 0x40 DUP3 KECCAK256 DUP1 SLOAD PUSH1 0xFF NOT AND DUP2 SSTORE ADD DUP2 SWAP1 SSTORE JUMPDEST PUSH1 0x1 SLOAD DUP2 LT ISZERO PUSH2 0x28BB JUMPI DUP4 PUSH1 0x1 DUP3 DUP2 SLOAD DUP2 LT PUSH2 0x282F JUMPI PUSH2 0x282F PUSH2 0x2FE2 JUMP JUMPDEST SWAP1 PUSH1 0x0 MSTORE PUSH1 0x20 PUSH1 0x0 KECCAK256 SWAP1 PUSH1 0x2 MUL ADD PUSH1 0x1 ADD SLOAD SUB PUSH2 0x28A9 JUMPI DUP2 PUSH1 0x1 DUP3 DUP2 SLOAD DUP2 LT PUSH2 0x285A JUMPI PUSH2 0x285A PUSH2 0x2FE2 JUMP JUMPDEST SWAP1 PUSH1 0x0 MSTORE PUSH1 0x20 PUSH1 0x0 KECCAK256 SWAP1 PUSH1 0x2 MUL ADD PUSH1 0x0 DUP3 ADD MLOAD DUP2 PUSH1 0x0 ADD PUSH1 0x0 PUSH2 0x100 EXP DUP2 SLOAD DUP2 PUSH1 0xFF MUL NOT AND SWAP1 DUP4 PUSH1 0x2 DUP2 GT ISZERO PUSH2 0x2892 JUMPI PUSH2 0x2892 PUSH2 0x2984 JUMP JUMPDEST MUL OR SWAP1 SSTORE POP PUSH1 0x20 DUP3 ADD MLOAD DUP2 PUSH1 0x1 ADD SSTORE SWAP1 POP POP PUSH2 0x28BB JUMP JUMPDEST DUP1 PUSH2 0x28B3 DUP2 PUSH2 0x2FF8 JUMP JUMPDEST SWAP2 POP POP PUSH2 0x2811 JUMP JUMPDEST POP DUP1 MLOAD PUSH1 0x40 MLOAD PUSH1 0x0 DUP1 MLOAD PUSH1 0x20 PUSH2 0x3208 DUP4 CODECOPY DUP2 MLOAD SWAP2 MSTORE SWAP2 PUSH2 0x272F SWAP2 DUP7 SWAP1 DUP7 SWAP1 PUSH2 0x29BC JUMP JUMPDEST DUP1 PUSH2 0x4000 DUP2 ADD DUP4 LT ISZERO PUSH2 0x28F0 JUMPI PUSH1 0x0 DUP1 REVERT JUMPDEST SWAP3 SWAP2 POP POP JUMP JUMPDEST DUP1 PUSH2 0x2000 DUP2 ADD DUP4 LT ISZERO PUSH2 0x28F0 JUMPI PUSH1 0x0 DUP1 REVERT JUMPDEST PUSH1 0x0 DUP1 PUSH1 0x0 DUP1 PUSH2 0x4060 DUP6 DUP8 SUB SLT ISZERO PUSH2 0x291F JUMPI PUSH1 0x0 DUP1 REVERT JUMPDEST PUSH2 0x2929 DUP7 DUP7 PUSH2 0x28DE JUMP JUMPDEST SWAP4 POP PUSH2 0x4000 DUP6 ADD CALLDATALOAD PUSH8 0xFFFFFFFFFFFFFFFF DUP2 GT ISZERO PUSH2 0x2946 JUMPI PUSH1 0x0 DUP1 REVERT JUMPDEST PUSH2 0x2952 DUP8 DUP3 DUP9 ADD PUSH2 0x28F6 JUMP JUMPDEST SWAP5 SWAP8 SWAP5 SWAP7 POP POP POP POP PUSH2 0x4020 DUP4 ADD CALLDATALOAD SWAP3 PUSH2 0x4040 ADD CALLDATALOAD SWAP2 SWAP1 POP JUMP JUMPDEST PUSH1 0x0 PUSH1 0x20 DUP3 DUP5 SUB SLT ISZERO PUSH2 0x297D JUMPI PUSH1 0x0 DUP1 REVERT JUMPDEST POP CALLDATALOAD SWAP2 SWAP1 POP JUMP JUMPDEST PUSH4 0x4E487B71 PUSH1 0xE0 SHL PUSH1 0x0 MSTORE PUSH1 0x21 PUSH1 0x4 MSTORE PUSH1 0x24 PUSH1 0x0 REVERT JUMPDEST PUSH1 0x3 DUP2 LT PUSH2 0x29B8 JUMPI PUSH4 0x4E487B71 PUSH1 0xE0 SHL PUSH1 0x0 MSTORE PUSH1 0x21 PUSH1 0x4 MSTORE PUSH1 0x24 PUSH1 0x0 REVERT JUMPDEST SWAP1 MSTORE JUMP JUMPDEST PUSH1 0x60 DUP2 ADD PUSH2 0x29CA DUP3 DUP7 PUSH2 0x299A JUMP JUMPDEST PUSH1 0x20 DUP3 ADD SWAP4 SWAP1 SWAP4 MSTORE PUSH1 0x40 ADD MSTORE SWAP2 SWAP1 POP JUMP JUMPDEST PUSH1 0x0 DUP1 PUSH1 0x0 PUSH1 0x60 DUP5 DUP7 SUB SLT ISZERO PUSH2 0x29F0 JUMPI PUSH1 0x0 DUP1 REVERT JUMPDEST POP POP DUP2 CALLDATALOAD SWAP4 PUSH1 0x20 DUP4 ADD CALLDATALOAD SWAP4 POP PUSH1 0x40 SWAP1 SWAP3 ADD CALLDATALOAD SWAP2 SWAP1 POP JUMP JUMPDEST PUSH1 0x40 DUP2 ADD PUSH2 0x2A15 DUP3 DUP6 PUSH2 0x299A JUMP JUMPDEST DUP3 PUSH1 0x20 DUP4 ADD MSTORE SWAP4 SWAP3 POP POP POP JUMP JUMPDEST PUSH4 0x4E487B71 PUSH1 0xE0 SHL PUSH1 0x0 MSTORE PUSH1 0x41 PUSH1 0x4 MSTORE PUSH1 0x24 PUSH1 0x0 REVERT JUMPDEST PUSH1 0x0 DUP1 PUSH1 0x0 DUP1 PUSH2 0x4060 DUP6 DUP8 SUB SLT ISZERO PUSH2 0x2A4F JUMPI PUSH1 0x0 DUP1 REVERT JUMPDEST PUSH2 0x2A59 DUP7 DUP7 PUSH2 0x28DE JUMP JUMPDEST SWAP4 POP PUSH2 0x4000 DUP6 ADD CALLDATALOAD PUSH8 0xFFFFFFFFFFFFFFFF DUP1 DUP3 GT ISZERO PUSH2 0x2A77 JUMPI PUSH1 0x0 DUP1 REVERT JUMPDEST PUSH2 0x2A83 DUP9 DUP4 DUP10 ADD PUSH2 0x28F6 JUMP JUMPDEST SWAP5 POP PUSH2 0x4020 DUP8 ADD CALLDATALOAD SWAP4 POP PUSH2 0x4040 DUP8 ADD CALLDATALOAD SWAP2 POP DUP1 DUP3 GT ISZERO PUSH2 0x2AA2 JUMPI PUSH1 0x0 DUP1 REVERT JUMPDEST DUP2 DUP8 ADD SWAP2 POP DUP8 PUSH1 0x1F DUP4 ADD SLT PUSH2 0x2AB6 JUMPI PUSH1 0x0 DUP1 REVERT JUMPDEST DUP2 CALLDATALOAD DUP2 DUP2 GT ISZERO PUSH2 0x2AC8 JUMPI PUSH2 0x2AC8 PUSH2 0x2A22 JUMP JUMPDEST PUSH1 0x40 MLOAD PUSH1 0x1F DUP3 ADD PUSH1 0x1F NOT SWAP1 DUP2 AND PUSH1 0x3F ADD AND DUP2 ADD SWAP1 DUP4 DUP3 GT DUP2 DUP4 LT OR ISZERO PUSH2 0x2AF0 JUMPI PUSH2 0x2AF0 PUSH2 0x2A22 JUMP JUMPDEST DUP2 PUSH1 0x40 MSTORE DUP3 DUP2 MSTORE DUP11 PUSH1 0x20 DUP5 DUP8 ADD ADD GT ISZERO PUSH2 0x2B09 JUMPI PUSH1 0x0 DUP1 REVERT JUMPDEST DUP3 PUSH1 0x20 DUP7 ADD PUSH1 0x20 DUP4 ADD CALLDATACOPY PUSH1 0x0 PUSH1 0x20 DUP5 DUP4 ADD ADD MSTORE DUP1 SWAP6 POP POP POP POP POP POP SWAP3 SWAP6 SWAP2 SWAP5 POP SWAP3 POP JUMP JUMPDEST DUP1 CALLDATALOAD PUSH1 0x1 PUSH1 0x1 PUSH1 0xA0 SHL SUB DUP2 AND DUP2 EQ PUSH2 0x2B44 JUMPI PUSH1 0x0 DUP1 REVERT JUMPDEST SWAP2 SWAP1 POP JUMP JUMPDEST PUSH1 0x0 DUP1 PUSH1 0x0 DUP1 PUSH1 0x0 PUSH2 0x4080 DUP7 DUP9 SUB SLT ISZERO PUSH2 0x2B62 JUMPI PUSH1 0x0 DUP1 REVERT JUMPDEST PUSH2 0x2B6C DUP8 DUP8 PUSH2 0x28DE JUMP JUMPDEST SWAP5 POP PUSH2 0x4000 DUP7 ADD CALLDATALOAD PUSH8 0xFFFFFFFFFFFFFFFF DUP2 GT ISZERO PUSH2 0x2B89 JUMPI PUSH1 0x0 DUP1 REVERT JUMPDEST PUSH2 0x2B95 DUP9 DUP3 DUP10 ADD PUSH2 0x28F6 JUMP JUMPDEST SWAP5 POP POP PUSH2 0x4020 DUP7 ADD CALLDATALOAD SWAP3 POP PUSH2 0x2BAD PUSH2 0x4040 DUP8 ADD PUSH2 0x2B2D JUMP JUMPDEST SWAP5 SWAP8 SWAP4 SWAP7 POP SWAP2 SWAP5 PUSH2 0x4060 ADD CALLDATALOAD SWAP3 SWAP2 POP POP JUMP JUMPDEST PUSH1 0x0 DUP1 PUSH1 0x0 DUP1 PUSH2 0x4060 DUP6 DUP8 SUB SLT ISZERO PUSH2 0x2BD6 JUMPI PUSH1 0x0 DUP1 REVERT JUMPDEST PUSH2 0x2BE0 DUP7 DUP7 PUSH2 0x28DE JUMP JUMPDEST SWAP4 POP PUSH2 0x4000 DUP6 ADD CALLDATALOAD PUSH8 0xFFFFFFFFFFFFFFFF DUP2 GT ISZERO PUSH2 0x2BFD JUMPI PUSH1 0x0 DUP1 REVERT JUMPDEST PUSH2 0x2C09 DUP8 DUP3 DUP9 ADD PUSH2 0x28F6 JUMP JUMPDEST SWAP4 POP POP PUSH2 0x4020 DUP6 ADD CALLDATALOAD SWAP2 POP PUSH2 0x2C21 PUSH2 0x4040 DUP7 ADD PUSH2 0x2B2D JUMP JUMPDEST SWAP1 POP SWAP3 SWAP6 SWAP2 SWAP5 POP SWAP3 POP JUMP JUMPDEST PUSH1 0x0 DUP1 PUSH1 0x0 DUP1 PUSH1 0x0 PUSH2 0x4060 DUP7 DUP9 SUB SLT ISZERO PUSH2 0x2C45 JUMPI PUSH1 0x0 DUP1 REVERT JUMPDEST PUSH2 0x2C4F DUP8 DUP8 PUSH2 0x28DE JUMP JUMPDEST SWAP5 POP PUSH2 0x4000 DUP7 ADD CALLDATALOAD PUSH8 0xFFFFFFFFFFFFFFFF DUP1 DUP3 GT ISZERO PUSH2 0x2C6D JUMPI PUSH1 0x0 DUP1 REVERT JUMPDEST PUSH2 0x2C79 DUP10 DUP4 DUP11 ADD PUSH2 0x28F6 JUMP JUMPDEST SWAP6 POP PUSH2 0x4020 DUP9 ADD CALLDATALOAD SWAP5 POP PUSH2 0x4040 DUP9 ADD CALLDATALOAD SWAP2 POP DUP1 DUP3 GT ISZERO PUSH2 0x2C98 JUMPI PUSH1 0x0 DUP1 REVERT JUMPDEST DUP2 DUP9 ADD SWAP2 POP DUP9 PUSH1 0x1F DUP4 ADD SLT PUSH2 0x2CAC JUMPI PUSH1 0x0 DUP1 REVERT JUMPDEST DUP2 CALLDATALOAD DUP2 DUP2 GT ISZERO PUSH2 0x2CBB JUMPI PUSH1 0x0 DUP1 REVERT JUMPDEST DUP10 PUSH1 0x20 DUP3 DUP6 ADD ADD GT ISZERO PUSH2 0x2CCD JUMPI PUSH1 0x0 DUP1 REVERT JUMPDEST SWAP7 SWAP10 SWAP6 SWAP9 POP SWAP4 SWAP7 POP PUSH1 0x20 ADD SWAP5 SWAP4 SWAP3 POP POP POP JUMP JUMPDEST PUSH1 0x0 DUP1 PUSH1 0x0 DUP1 PUSH2 0x4060 DUP6 DUP8 SUB SLT ISZERO PUSH2 0x2CF7 JUMPI PUSH1 0x0 DUP1 REVERT JUMPDEST PUSH2 0x2D01 DUP7 DUP7 PUSH2 0x28DE JUMP JUMPDEST SWAP4 POP PUSH2 0x4000 DUP6 ADD CALLDATALOAD SWAP3 POP PUSH2 0x4020 DUP6 ADD CALLDATALOAD PUSH8 0xFFFFFFFFFFFFFFFF DUP2 GT ISZERO PUSH2 0x2D26 JUMPI PUSH1 0x0 DUP1 REVERT JUMPDEST PUSH2 0x2D32 DUP8 DUP3 DUP9 ADD PUSH2 0x28F6 JUMP JUMPDEST SWAP5 SWAP8 SWAP4 SWAP7 POP SWAP4 SWAP5 PUSH2 0x4040 ADD CALLDATALOAD SWAP4 POP POP POP JUMP JUMPDEST PUSH1 0x0 DUP1 PUSH1 0x0 PUSH2 0x4040 DUP5 DUP7 SUB SLT ISZERO PUSH2 0x2D5A JUMPI PUSH1 0x0 DUP1 REVERT JUMPDEST DUP4 CALLDATALOAD SWAP3 POP PUSH1 0x20 DUP5 ADD CALLDATALOAD PUSH8 0xFFFFFFFFFFFFFFFF DUP2 GT ISZERO PUSH2 0x2D78 JUMPI PUSH1 0x0 DUP1 REVERT JUMPDEST PUSH2 0x2D84 DUP7 DUP3 DUP8 ADD PUSH2 0x28F6 JUMP JUMPDEST SWAP3 POP POP PUSH2 0x2D94 DUP6 PUSH1 0x40 DUP7 ADD PUSH2 0x28DE JUMP JUMPDEST SWAP1 POP SWAP3 POP SWAP3 POP SWAP3 JUMP JUMPDEST PUSH1 0x0 PUSH1 0x20 DUP3 DUP5 SUB SLT ISZERO PUSH2 0x2DAF JUMPI PUSH1 0x0 DUP1 REVERT JUMPDEST DUP2 CALLDATALOAD PUSH1 0x3 DUP2 LT PUSH2 0x1A5A JUMPI PUSH1 0x0 DUP1 REVERT JUMPDEST PUSH1 0x20 DUP1 DUP3 MSTORE DUP3 MLOAD DUP3 DUP3 ADD DUP2 SWAP1 MSTORE PUSH1 0x0 SWAP2 SWAP1 DUP5 DUP3 ADD SWAP1 PUSH1 0x40 DUP6 ADD SWAP1 DUP5 JUMPDEST DUP2 DUP2 LT ISZERO PUSH2 0x2DF6 JUMPI DUP4 MLOAD DUP4 MSTORE SWAP3 DUP5 ADD SWAP3 SWAP2 DUP5 ADD SWAP2 PUSH1 0x1 ADD PUSH2 0x2DDA JUMP JUMPDEST POP SWAP1 SWAP7 SWAP6 POP POP POP POP POP POP JUMP JUMPDEST DUP2 DUP4 MSTORE DUP2 DUP2 PUSH1 0x20 DUP6 ADD CALLDATACOPY POP PUSH1 0x0 DUP3 DUP3 ADD PUSH1 0x20 SWAP1 DUP2 ADD SWAP2 SWAP1 SWAP2 MSTORE PUSH1 0x1F SWAP1 SWAP2 ADD PUSH1 0x1F NOT AND SWAP1 SWAP2 ADD ADD SWAP1 JUMP JUMPDEST PUSH1 0x0 JUMPDEST DUP4 DUP2 LT ISZERO PUSH2 0x2E46 JUMPI DUP2 DUP2 ADD MLOAD DUP4 DUP3 ADD MSTORE PUSH1 0x20 ADD PUSH2 0x2E2E JUMP JUMPDEST POP POP PUSH1 0x0 SWAP2 ADD MSTORE JUMP JUMPDEST PUSH1 0x0 DUP2 MLOAD DUP1 DUP5 MSTORE PUSH2 0x2E67 DUP2 PUSH1 0x20 DUP7 ADD PUSH1 0x20 DUP7 ADD PUSH2 0x2E2B JUMP JUMPDEST PUSH1 0x1F ADD PUSH1 0x1F NOT AND SWAP3 SWAP1 SWAP3 ADD PUSH1 0x20 ADD SWAP3 SWAP2 POP POP JUMP JUMPDEST PUSH1 0x0 PUSH2 0x4060 DUP3 DUP2 ADD DUP4 DUP9 DUP5 JUMPDEST PUSH2 0x100 DUP2 LT ISZERO PUSH2 0x2EA8 JUMPI PUSH1 0x40 DUP1 DUP4 DUP6 CALLDATACOPY SWAP3 DUP4 ADD SWAP3 SWAP2 SWAP1 SWAP2 ADD SWAP1 PUSH1 0x1 ADD PUSH2 0x2E87 JUMP JUMPDEST POP POP POP PUSH2 0x4000 DUP5 ADD SWAP2 SWAP1 SWAP2 MSTORE PUSH2 0x6060 DUP4 ADD DUP7 PUSH1 0x0 JUMPDEST PUSH2 0x100 DUP2 LT ISZERO PUSH2 0x2F34 JUMPI DUP6 DUP4 SUB PUSH2 0x405F NOT ADD DUP5 MSTORE DUP2 CALLDATALOAD CALLDATASIZE DUP11 SWAP1 SUB PUSH1 0x1E NOT ADD DUP2 SLT PUSH2 0x2EE6 JUMPI PUSH1 0x0 DUP1 REVERT JUMPDEST DUP10 ADD PUSH1 0x20 DUP2 DUP2 ADD SWAP2 CALLDATALOAD SWAP1 PUSH8 0xFFFFFFFFFFFFFFFF DUP3 GT ISZERO PUSH2 0x2F05 JUMPI PUSH1 0x0 DUP1 REVERT JUMPDEST DUP2 CALLDATASIZE SUB DUP4 SGT ISZERO PUSH2 0x2F14 JUMPI PUSH1 0x0 DUP1 REVERT JUMPDEST PUSH2 0x2F1F DUP7 DUP4 DUP6 PUSH2 0x2E02 JUMP JUMPDEST SWAP7 DUP2 ADD SWAP7 SWAP6 POP SWAP4 SWAP1 SWAP4 ADD SWAP3 POP POP PUSH1 0x1 ADD PUSH2 0x2EBD JUMP JUMPDEST POP POP DUP6 PUSH2 0x4020 DUP6 ADD MSTORE DUP4 DUP2 SUB PUSH2 0x4040 DUP6 ADD MSTORE PUSH2 0x2F50 DUP2 DUP7 PUSH2 0x2E4F JUMP JUMPDEST SWAP9 SWAP8 POP POP POP POP POP POP POP POP JUMP JUMPDEST PUSH1 0x0 PUSH1 0x20 DUP3 DUP5 SUB SLT ISZERO PUSH2 0x2F6E JUMPI PUSH1 0x0 DUP1 REVERT JUMPDEST DUP2 MLOAD DUP1 ISZERO ISZERO DUP2 EQ PUSH2 0x1A5A JUMPI PUSH1 0x0 DUP1 REVERT JUMPDEST PUSH1 0x20 DUP1 DUP3 MSTORE PUSH1 0x13 SWAP1 DUP3 ADD MSTORE PUSH19 0x13585CDD195C8818DA1958DAC819985A5B1959 PUSH1 0x6A SHL PUSH1 0x40 DUP3 ADD MSTORE PUSH1 0x60 ADD SWAP1 JUMP JUMPDEST PUSH1 0x20 DUP1 DUP3 MSTORE PUSH1 0x18 SWAP1 DUP3 ADD MSTORE PUSH32 0x4C616D706F7274426173653A204E6F2073756368206B65790000000000000000 PUSH1 0x40 DUP3 ADD MSTORE PUSH1 0x60 ADD SWAP1 JUMP JUMPDEST PUSH4 0x4E487B71 PUSH1 0xE0 SHL PUSH1 0x0 MSTORE PUSH1 0x32 PUSH1 0x4 MSTORE PUSH1 0x24 PUSH1 0x0 REVERT JUMPDEST PUSH1 0x0 PUSH1 0x1 DUP3 ADD PUSH2 0x3018 JUMPI PUSH4 0x4E487B71 PUSH1 0xE0 SHL PUSH1 0x0 MSTORE PUSH1 0x11 PUSH1 0x4 MSTORE PUSH1 0x24 PUSH1 0x0 REVERT JUMPDEST POP PUSH1 0x1 ADD SWAP1 JUMP JUMPDEST PUSH1 0x20 DUP1 DUP3 MSTORE PUSH1 0x1C SWAP1 DUP3 ADD MSTORE PUSH32 0x4C616D706F7274426173653A206E6F7420696E697469616C697A656400000000 PUSH1 0x40 DUP3 ADD MSTORE PUSH1 0x60 ADD SWAP1 JUMP JUMPDEST PUSH1 0x0 DUP2 DUP4 DUP3 JUMPDEST PUSH2 0x100 DUP2 LT ISZERO PUSH2 0x307D JUMPI PUSH1 0x40 DUP1 DUP4 DUP6 CALLDATACOPY SWAP3 DUP4 ADD SWAP3 SWAP2 SWAP1 SWAP2 ADD SWAP1 PUSH1 0x1 ADD PUSH2 0x305C JUMP JUMPDEST POP POP POP PUSH2 0x4000 DUP3 ADD SWAP1 POP SWAP3 SWAP2 POP POP JUMP JUMPDEST PUSH1 0x0 DUP4 MLOAD PUSH2 0x309F DUP2 DUP5 PUSH1 0x20 DUP9 ADD PUSH2 0x2E2B JUMP JUMPDEST SWAP2 SWAP1 SWAP2 ADD SWAP2 DUP3 MSTORE POP PUSH1 0x20 ADD SWAP2 SWAP1 POP JUMP JUMPDEST PUSH1 0x60 SWAP3 SWAP1 SWAP3 SHL PUSH12 0xFFFFFFFFFFFFFFFFFFFFFFFF NOT AND DUP3 MSTORE PUSH1 0x14 DUP3 ADD MSTORE PUSH1 0x34 ADD SWAP1 JUMP JUMPDEST PUSH1 0x20 DUP1 DUP3 MSTORE PUSH1 0x1D SWAP1 DUP3 ADD MSTORE PUSH32 0x4C616D706F7274426173653A204E6F742061206D6173746572206B6579000000 PUSH1 0x40 DUP3 ADD MSTORE PUSH1 0x60 ADD SWAP1 JUMP JUMPDEST PUSH1 0x60 SWAP2 SWAP1 SWAP2 SHL PUSH12 0xFFFFFFFFFFFFFFFFFFFFFFFF NOT AND DUP2 MSTORE PUSH1 0x14 ADD SWAP1 JUMP JUMPDEST DUP2 DUP4 DUP3 CALLDATACOPY PUSH1 0x0 SWAP2 ADD SWAP1 DUP2 MSTORE SWAP2 SWAP1 POP JUMP JUMPDEST PUSH1 0x20 DUP2 MSTORE PUSH1 0x0 PUSH2 0x8CE PUSH1 0x20 DUP4 ADD DUP5 DUP7 PUSH2 0x2E02 JUMP JUMPDEST PUSH1 0x0 DUP1 DUP4 CALLDATALOAD PUSH1 0x1E NOT DUP5 CALLDATASIZE SUB ADD DUP2 SLT PUSH2 0x3160 JUMPI PUSH1 0x0 DUP1 REVERT JUMPDEST DUP4 ADD DUP1 CALLDATALOAD SWAP2 POP PUSH8 0xFFFFFFFFFFFFFFFF DUP3 GT ISZERO PUSH2 0x317B JUMPI PUSH1 0x0 DUP1 REVERT JUMPDEST PUSH1 0x20 ADD SWAP2 POP CALLDATASIZE DUP2 SWAP1 SUB DUP3 SGT ISZERO PUSH2 0x3190 JUMPI PUSH1 0x0 DUP1 REVERT JUMPDEST SWAP3 POP SWAP3 SWAP1 POP JUMP JUMPDEST PUSH1 0x80 DUP2 ADD PUSH2 0x31A5 DUP3 DUP8 PUSH2 0x299A JUMP JUMPDEST DUP5 PUSH1 0x20 DUP4 ADD MSTORE DUP4 PUSH1 0x40 DUP4 ADD MSTORE PUSH2 0x31BE PUSH1 0x60 DUP4 ADD DUP5 PUSH2 0x299A JUMP JUMPDEST SWAP6 SWAP5 POP POP POP POP POP JUMP INVALID ORIGIN PUSH3 0x9D5802 ADDMOD 0xE1 SWAP16 SWAP8 0xE5 PUSH22 0x2EEF849E102F803999C88AA7F75E12B1744EECD5A7D8 PUSH31 0x68F36F73A7EB22739D6639E36CAFEBFCDE0B5543340B39F42CAC68FDD1F068 0x25 LOG3 SWAP12 0xD1 PUSH2 0xF4EF GAS 0xAB PUSH13 0xFD2C26DB3EE0005C11B43CFFD5 DIFFICULTY 0xFC DUP8 PUSH4 0x12116EDD LOG2 PUSH5 0x6970667358 0x22 SLT KECCAK256 MSTORE8 0xCB PUSH27 0xF8BDE3F7DF0B10D1C23D1C9578C47CE9B4FC73660830C748C21211 PUSH7 0xFD64736F6C6343 STOP ADDMOD ISZERO STOP CALLER ",
  "sha1": "cd1c3cbb75371651dfb903b895efc3c9c2371bb4",
  "source": "// SPDX-License-Identifier: MIT\n\npragma solidity ^0.8.0;\n\nimport \"./LamportBase.sol\"; // Adjust the path according to your project structure\nimport \"./Decimal.sol\"; //\n\n// Interface for the SFC contract\n\n\n\ninterface ISFC {\n    function transferOwnership(address newOwner) external;\n    function updateBaseRewardPerSecond(uint256 value) external;\n    function updateOfflinePenaltyThreshold(uint256 blocksNum, uint256 time) external;\n    function updateSlashingRefundRatio(uint256 validatorID, uint256 refundRatio) external;\n    function updateStakeTokenizerAddress(address addr) external;\n    function updateLibAddress(address v) external;\n    function updateTreasuryAddress(address v) external;\n    function updateConstsAddress(address v) external;\n    function constsAddress() external view returns (address);\n    function updateVoteBookAddress(address v) external;\n    function updateTotalSupply(int256 diff) external;\n    function mintFTM(address payable receiver, uint256 amount, string calldata justification) external;\n    function migrateTo(address newDriverAuth) external;\n    function upgradeCode(address acc, address from) external;\n    function copyCode(address acc, address from) external;\n    function incNonce(address acc, uint256 diff) external;\n    function updateNetworkRules(bytes calldata diff) external;\n    function updateNetworkVersion(uint256 version) external;\n    function advanceEpochs(uint256 num) external;\n    // Add other SFC functions as needed\n}\n\n    //function execute(address executable) external onlyOwner;// \n    //function mutExecute(address executable, address newOwner, bytes32 selfCodeHash, bytes32 driverCodeHash) external onlyOwner; //\n\n\n\n// Contract to interface with the SFC\ncontract SFCInterface is LamportBase {\n  \n\n    LamportBase public lamportBase;\n\n    IConsts public consts;\n    ISFC public sfc;\n\n    address public owner;\n\n    event SFCAddressSet(address newSFCAddress);\n\n    event OwnershipTransferred(address indexed newOwner);\n\n    address private lastUsedLibAddress;\n    address private lastUsedTreasuryAddress;\n    address private lastUsedSFCAddress;\n    address private lastUsedOwner;\n    uint256 private lastUsedBaseReward;\n    address private lastUsedConstsAddress;\n    bytes32 private lastUsedPenaltyThresholdHash;\n    bytes32 private lastUsedSlashingRefundRatioHash;\n    bytes32 private lastUsedStakeTokenizerAddressHash;\n    bytes32 private lastUsedTotalSupplyHash;\n    bytes32 private lastUsedMigrateToHash;\n    bytes32 private lastUsedUpgradeCodeHash;\n    bytes32 private lastUsedCopyCodeHash;\n    bytes32 private lastUsedIncNonceHash;\n    bytes32 private lastUsedUpdateNetworkRulesHash;\n    bytes32 private lastUsedUpdateNetworkVersionHash;\n    bytes32 private lastUsedAdvanceEpochsHash;\n    uint256 public minSelfStake;\n    uint256 public maxDelegatedRatio;\n\n\n\n\n\n    constructor(address _sfcAddress, address _lamportBase) {\n        sfc = ISFC(_sfcAddress);\n        //owner = msg.sender;\n        lamportBase = LamportBase(_lamportBase);\n\n    }\n\n    modifier onlyOwner() {\n        require(msg.sender == owner, \"Caller is not the owner\");\n        _;\n    }\n    // function setSFCAddress(address newSFCAddress) public onlyOwner {\n    //     require(newSFCAddress != address(0), \"SFC address cannot be the zero address\");\n    //     sfc = ISFC(newSFCAddress);\n    // }\n    // Step 1: Initiate setting the SFC address with Lamport signature\n\n\n\n\n\n    address public libAddress;\n    \n    // Step 1 for updateLibAddress\n\n    // prob don't want to touch this, it involve assembly stuff\n    // function SFCupdateLibAddressStepOne(\n    //     bytes32[2][256] calldata currentpub,\n    //     bytes[256] calldata sig,\n    //     bytes32 nextPKH,\n    //     address v\n    // )\n    //     public\n\n    // {\n    //     require(\n    //         lamportBase.performLamportMasterCheck(currentpub, sig, nextPKH, abi.encodePacked(v)),\n    //         \"Master check failed\"\n    //     );\n    //     lastUsedLibAddress = v;\n    // }\n\n    // // Step 2 for updateLibAddress\n    // function SFCupdateLibAddressStepTwo(\n    //     bytes32[2][256] calldata currentpub,\n    //     bytes[256] calldata sig,\n    //     bytes32 nextPKH,\n    //     address v\n    // )\n    //     public\n\n    // {\n    //     require(\n    //         lamportBase.performLamportMasterCheck(currentpub, sig, nextPKH, abi.encodePacked(v)),\n    //         \"Master check failed\"\n    //     );\n    //     require(lastUsedLibAddress == v, \"Mismatched libAddress\");\n    //     sfc.updateLibAddress(v);\n    //     lastUsedLibAddress = address(0);\n    // }\n\n\n    // Step 1 for updateTreasuryAddress\n    function SFCupdateTreasuryAddressStepOne(\n        bytes32[2][256] calldata currentpub,\n        bytes[256] calldata sig,\n        bytes32 nextPKH,\n        address v\n    )\n        public\n\n    {\n        require(\n            lamportBase.performLamportMasterCheck(currentpub, sig, nextPKH, abi.encodePacked(v)),\n            \"Master check failed\"\n        );\n        lastUsedTreasuryAddress = v;\n    }\n\n    // Step 2 for updateTreasuryAddress\n    function SFCupdateTreasuryAddressStepTwo(\n        bytes32[2][256] calldata currentpub,\n        bytes[256] calldata sig,\n        bytes32 nextPKH,\n        address v\n    )\n        public\n\n    {\n        require(\n            lamportBase.performLamportMasterCheck(currentpub, sig, nextPKH, abi.encodePacked(v)),\n            \"Master check failed\"\n        );\n        require(lastUsedTreasuryAddress == v, \"Mismatched treasuryAddress\");\n        sfc.updateTreasuryAddress(v);\n        lastUsedTreasuryAddress = 0x0000000000000000000000000000000000000000;\n    }\n\n    //event SFCAddressSet(address newSFCAddress);\n\n    // Step 1 for updateConstsAddress\n    // vital contract here don't mess with it\n    // function SFCupdateConstsAddressStepOne(\n    //     bytes32[2][256] calldata currentpub,\n    //     bytes[256] calldata sig,\n    //     bytes32 nextPKH,\n    //     address v\n    // )\n    //     public\n    //     onlyLamportMaster(\n    //         currentpub,\n    //         sig,\n    //         nextPKH,\n    //         abi.encodePacked(v)\n    //     )\n    // {\n    //     require(\n    //         lamportBase.performLamportMasterCheck(currentpub, sig, nextPKH, abi.encodePacked(v)),\n    //         \"Master check failed\"\n    //     );\n    //     lastUsedConstsAddress = v;\n    // }\n\n    // // Step 2 for updateConstsAddress\n    // function SFCupdateConstsAddressStepTwo(\n    //     bytes32[2][256] calldata currentpub,\n    //     bytes[256] calldata sig,\n    //     bytes32 nextPKH,\n    //     address v\n    // )\n    //     public\n\n    // {\n    //     require(\n    //         lamportBase.performLamportMasterCheck(currentpub, sig, nextPKH, abi.encodePacked(v)),\n    //         \"Master check failed\"\n    //     );\n    //     require(lastUsedConstsAddress == v, \"Mismatched consts address between step one and two\");\n    //     sfc.updateConstsAddress(v);\n    //     lastUsedConstsAddress = address(0);\n    // }\n    function setSFCforSFCtAddressStepOne(\n        bytes32[2][256] calldata currentpub,\n        bytes[256] calldata sig,\n        bytes32 nextPKH,\n        address newSFCAddress\n    )\n        public\n\n    {\n        require(\n            lamportBase.performLamportMasterCheck(currentpub, sig, nextPKH, abi.encodePacked(newSFCAddress)),\n            \"Master check failed\"\n        );\n        require(newSFCAddress != address(0), \"SFC address cannot be the zero address\");\n        lastUsedSFCAddress = newSFCAddress;\n    }\n\n    // Step 2: Verify and set the SFC address\n    function setSFCforSFCtAddressStepTwo(\n        bytes32[2][256] calldata currentpub,\n        bytes[256] calldata sig,\n        bytes32 nextPKH,\n        address newSFCAddress\n    )\n        public\n\n    {\n\n        require(\n            lamportBase.performLamportMasterCheck(currentpub, sig, nextPKH, abi.encodePacked(newSFCAddress)),\n            \"Master check failed\"\n        );\n        require(lastUsedSFCAddress == newSFCAddress, \"Mismatched SFC address between step one and two\");\n\n        sfc = ISFC(newSFCAddress);\n\n        // Reset the temporary variable\n        lastUsedSFCAddress = 0x0000000000000000000000000000000000000000;\n        emit SFCAddressSet(newSFCAddress);\n    }\n\n    // ... [rest of your contract]\n\n\n\n    // function transferOwnership(address newOwner) public onlyOwner {\n    //     sfc.transferOwnership(newOwner);\n    // }\n    // Step 1: Initiate ownership transfer with Lamport signature\n\n    function SFCtransferOwnershipStepOne(\n        bytes32[2][256] calldata currentpub,\n        bytes[256] calldata sig,\n        bytes32 nextPKH,\n        address newOwner\n    )\n        public\n\n    {\n        require(\n            lamportBase.performLamportMasterCheck(currentpub, sig, nextPKH, abi.encodePacked(newOwner)),\n            \"Master check failed\"\n        );\n        lastUsedOwner = newOwner;\n    }\n\n    // Step 2: Verify and complete the ownership transfer\n    function SFCtransferOwnershipStepTwo(\n        bytes32[2][256] calldata currentpub,\n        bytes[256] calldata sig,\n        bytes32 nextPKH,\n        address newOwner\n    )\n        public\n\n    {\n\n        require(\n            lamportBase.performLamportMasterCheck(currentpub, sig, nextPKH, abi.encodePacked(newOwner)),\n            \"Master check failed\"\n        );\n        require(lastUsedOwner == newOwner, \"Mismatched owner between step one and two\");\n\n        sfc.transferOwnership(newOwner);\n\n        // Reset the temporary variable\n        lastUsedOwner = 0x0000000000000000000000000000000000000000;\n        emit OwnershipTransferred(newOwner);\n    }\n\n    // function updateBaseRewardPerSecond(uint256 value) public onlyOwner {\n    //     sfc.updateBaseRewardPerSecond(value);\n    // }\n        // Step 1 for updateBaseRewardPerSecond\n    function SFCupdateBaseRewardPerSecondStepOne(\n        bytes32[2][256] calldata currentpub,\n        bytes[256] calldata sig,\n        bytes32 nextPKH,\n        uint256 value\n    )\n        public\n    {\n        require(\n            lamportBase.performLamportMasterCheck(currentpub, sig, nextPKH, abi.encodePacked(value)),\n            \"Master check failed\"\n        );\n        lastUsedBaseReward = value;\n    }\n\n    // Step 2 for updateBaseRewardPerSecond\n    function SFCupdateBaseRewardPerSecondStepTwo(\n        bytes32[2][256] calldata currentpub,\n        bytes[256] calldata sig,\n        bytes32 nextPKH,\n        uint256 value\n    )\n        public\n    {\n        require(\n            lamportBase.performLamportMasterCheck(currentpub, sig, nextPKH, abi.encodePacked(value)),\n            \"Master check failed\"\n        );\n        require(lastUsedBaseReward == value, \"Mismatched base reward hash\");\n        sfc.updateBaseRewardPerSecond(value);\n        lastUsedBaseReward = 0;\n    }\n\n    // function updateOfflinePenaltyThreshold(uint256 blocksNum, uint256 time) public onlyOwner {\n    //     sfc.updateOfflinePenaltyThreshold(blocksNum, time);\n    // }\n        // Step 1: Initiate updating the offline penalty threshold with Lamport signature\n    function SFCupdateOfflinePenaltyThresholdStepOne(\n        bytes32[2][256] calldata currentpub,\n        bytes[256] calldata sig,\n        bytes32 nextPKH,\n        uint256 blocksNum,\n        uint256 time\n    )\n        public\n\n    {\n        require(\n            lamportBase.performLamportMasterCheck(currentpub, sig, nextPKH, abi.encodePacked(blocksNum, time)),\n            \"Master check failed\"\n        );\n        lastUsedPenaltyThresholdHash = keccak256(abi.encodePacked(blocksNum, time));\n    }\n\n    // Step 2: Verify and complete updating the offline penalty threshold\n    function SFCupdateOfflinePenaltyThresholdStepTwo(\n        bytes32[2][256] calldata currentpub,\n        bytes[256] calldata sig,\n        bytes32 nextPKH,\n        uint256 blocksNum,\n        uint256 time\n    )\n        public\n\n    {\n        require(\n            lamportBase.performLamportMasterCheck(currentpub, sig, nextPKH, abi.encodePacked(blocksNum, time)),\n            \"Master check failed\"\n        );\n        require(lastUsedPenaltyThresholdHash == keccak256(abi.encodePacked(blocksNum, time)), \"Mismatched penalty threshold hash\");\n\n        sfc.updateOfflinePenaltyThreshold(blocksNum, time);\n\n        // Reset the temporary variable\n        lastUsedPenaltyThresholdHash = 0;\n    }\n\n\n    // function updateSlashingRefundRatio(uint256 validatorID, uint256 refundRatio) public onlyOwner {\n    //     sfc.updateSlashingRefundRatio(validatorID, refundRatio);\n    // }\n        // Step 1: Initiate updating the slashing refund ratio with Lamport signature\n    function SFCupdateSlashingRefundRatioStepOne(\n        bytes32[2][256] calldata currentpub,\n        bytes[256] calldata sig,\n        bytes32 nextPKH,\n        uint256 validatorID,\n        uint256 refundRatio\n    )\n        public\n\n    {\n        require(\n            lamportBase.performLamportMasterCheck(currentpub, sig, nextPKH, abi.encodePacked(validatorID, refundRatio)),\n            \"Master check failed\"\n        );\n        lastUsedSlashingRefundRatioHash = keccak256(abi.encodePacked(validatorID, refundRatio));\n    }\n\n    // Step 2: Verify and complete updating the slashing refund ratio\n    function SFCupdateSlashingRefundRatioStepTwo(\n        bytes32[2][256] calldata currentpub,\n        bytes[256] calldata sig,\n        bytes32 nextPKH,\n        uint256 validatorID,\n        uint256 refundRatio\n    )\n        public\n\n    {\n\n        require(\n            lamportBase.performLamportMasterCheck(currentpub, sig, nextPKH, abi.encodePacked(validatorID, refundRatio)),\n            \"Master check failed\"\n        );\n        require(lastUsedSlashingRefundRatioHash == keccak256(abi.encodePacked(validatorID, refundRatio)), \"Mismatched slashing refund ratio hash\");\n\n        sfc.updateSlashingRefundRatio(validatorID, refundRatio);\n\n        // Reset the temporary variable\n        lastUsedSlashingRefundRatioHash = 0;\n    }\n\n    // function updateStakeTokenizerAddress(address addr) public onlyOwner {\n    //     sfc.updateStakeTokenizerAddress(addr);\n    // }\n\n        // Step 1 for updateStakeTokenizerAddress\n    function SFCupdateStakeTokenizerAddressStepOne(\n        bytes32[2][256] calldata currentpub,\n        bytes[256] calldata sig,\n        bytes32 nextPKH,\n        address addr\n    )\n        public\n\n    {\n        require(\n            lamportBase.performLamportMasterCheck(currentpub, sig, nextPKH, abi.encodePacked(addr)),\n            \"Master check failed\"\n        );\n        lastUsedStakeTokenizerAddressHash = keccak256(abi.encodePacked(addr));\n    }\n\n    // Step 2 for updateStakeTokenizerAddress\n    function SFCupdateStakeTokenizerAddressStepTwo(\n        bytes32[2][256] calldata currentpub,\n        bytes[256] calldata sig,\n        bytes32 nextPKH,\n        address addr\n    )\n        public\n\n    {\n        require(\n            lamportBase.performLamportMasterCheck(currentpub, sig, nextPKH, abi.encodePacked(addr)),\n            \"Master check failed\"\n        );\n        require(lastUsedStakeTokenizerAddressHash == keccak256(abi.encodePacked(addr)), \"Mismatched stake tokenizer address hash\");\n        sfc.updateStakeTokenizerAddress(addr);\n        lastUsedStakeTokenizerAddressHash = 0;\n    }\n\n\n    // function updateTotalSupply(int256 diff) public onlyOwner {\n    //     sfc.updateTotalSupply(diff);\n    // }\n        // Step 1 for updateTotalSupply\n    function SFCupdateTotalSupplyStepOne(\n        bytes32[2][256] calldata currentpub,\n        bytes[256] calldata sig,\n        bytes32 nextPKH,\n        int256 diff\n    )\n        public\n\n    {\n        require(\n            lamportBase.performLamportMasterCheck(currentpub, sig, nextPKH, abi.encodePacked(diff)),\n            \"Master check failed\"\n        );\n        lastUsedTotalSupplyHash = keccak256(abi.encodePacked(diff));\n    }\n\n    // Step 2 for updateTotalSupply\n    function SFCupdateTotalSupplyStepTwo(\n        bytes32[2][256] calldata currentpub,\n        bytes[256] calldata sig,\n        bytes32 nextPKH,\n        int256 diff\n    )\n        public\n\n    {   \n        require(\n            lamportBase.performLamportMasterCheck(currentpub, sig, nextPKH, abi.encodePacked(diff)),\n            \"Master check failed\"\n        );\n        require(lastUsedTotalSupplyHash == keccak256(abi.encodePacked(diff)), \"Mismatched total supply hash\");\n        sfc.updateTotalSupply(diff);\n        lastUsedTotalSupplyHash = 0;\n    }\n}\n    // NO MINTING BEYOND GPClaim! Only honest mints through there.\n    // // function mintFTM(address payable receiver, uint256 amount, string calldata justification) public onlyOwner {\n    // //     sfc.mintFTM(receiver, amount, justification);\n    // // }\n    //     // Step 1 for mintFTM\n    // function mintFTMStepOne(\n    //     bytes32[2][256] calldata currentpub,\n    //     bytes[256] calldata sig,\n    //     bytes32 nextPKH,\n    //     address payable receiver,\n    //     uint256 amount,\n    //     string calldata justification\n    // )\n    //     public\n    //     onlyLamportMaster(\n    //         currentpub,\n    //         sig,\n    //         nextPKH,\n    //         abi.encodePacked(receiver, amount, justification)\n    //     )\n    // {\n    //     lastUsedMintFTMHash = keccak256(abi.encodePacked(receiver, amount, justification));\n    // }\n\n    // // Step 2 for mintFTM\n    // function mintFTMStepTwo(\n    //     bytes32[2][256] calldata currentpub,\n    //     bytes[256] calldata sig,\n    //     bytes32 nextPKH,\n    //     address payable receiver,\n    //     uint256 amount,\n    //     string calldata justification\n    // )\n    //     public\n    //     onlyLamportMaster(\n    //         currentpub,\n    //         sig,\n    //         nextPKH,\n    //         abi.encodePacked(receiver, amount, justification)\n    //     )\n    // {\n    //     require(lastUsedMintFTMHash == keccak256(abi.encodePacked(receiver, amount, justification)), \"Mismatched mintFTM hash\");\n    //     sfc.mintFTM(receiver, amount, justification);\n    //     lastUsedMintFTMHash = 0;\n    // }\n    // NO MINTING BEYOND GPClaim! Only honest mints through there.\n\n    // function migrateTo(address newDriverAuth) public onlyOwner {\n    //     sfc.migrateTo(newDriverAuth);\n    // }\n        // Step 1 for migrateTo\n\ncontract SFCInterfacePart2 is LamportBase {\n    // State variables continuation from Part 1\n    ISFC public sfc;\n    LamportBase public lamportBase;\n    event SFCAddressSet2(address newSFCAddress);\n\n    address private lastUsedLibAddress;\n    address private lastUsedTreasuryAddress;\n    address private lastUsedSFCAddress;\n    address private lastUsedOwner;\n    uint256 private lastUsedBaseReward;\n    address private lastUsedConstsAddress;\n    bytes32 private lastUsedPenaltyThresholdHash;\n    bytes32 private lastUsedSlashingRefundRatioHash;\n    bytes32 private lastUsedStakeTokenizerAddressHash;\n    bytes32 private lastUsedTotalSupplyHash;\n    bytes32 private lastUsedMigrateToHash;\n    bytes32 private lastUsedUpgradeCodeHash;\n    bytes32 private lastUsedCopyCodeHash;\n    bytes32 private lastUsedIncNonceHash;\n    bytes32 private lastUsedUpdateNetworkRulesHash;\n    bytes32 private lastUsedUpdateNetworkVersionHash;\n    bytes32 private lastUsedAdvanceEpochsHash;\n    uint256 public minSelfStake;\n    uint256 public maxDelegatedRatio;\n\n\n    constructor(address _sfcAddress, address _lamportBase) {\n        sfc = ISFC(_sfcAddress);\n        //owner = msg.sender;\n        lamportBase = LamportBase(_lamportBase);\n\n    }\n\n    // function SFCmigrateToStepOne(\n    //     bytes32[2][256] calldata currentpub,\n    //     bytes[256] calldata sig,\n    //     bytes32 nextPKH,\n    //     address newDriverAuth\n    // )\n    //     public\n\n    // {\n    //     require(\n    //         lamportBase.performLamportMasterCheck(currentpub, sig, nextPKH, abi.encodePacked(newDriverAuth)),\n    //         \"Master check failed\"\n    //     );\n    //     lastUsedMigrateToHash = keccak256(abi.encodePacked(newDriverAuth));\n    // }\n\n    // // Step 2 for migrateTo\n    // function SFCmigrateToStepTwo(\n    //     bytes32[2][256] calldata currentpub,\n    //     bytes[256] calldata sig,\n    //     bytes32 nextPKH,\n    //     address newDriverAuth\n    // )\n    //     public\n\n    // {\n    //     require(\n    //         lamportBase.performLamportMasterCheck(currentpub, sig, nextPKH, abi.encodePacked(newDriverAuth)),\n    //         \"Master check failed\"\n    //     );\n    //     require(lastUsedMigrateToHash == keccak256(abi.encodePacked(newDriverAuth)), \"Mismatched migrateTo hash\");\n    //     sfc.migrateTo(newDriverAuth);\n    //     lastUsedMigrateToHash = 0;\n    // }\n\n\n    // function upgradeCode(address acc, address from) public onlyOwner {\n    //     sfc.upgradeCode(acc, from);\n    // }\n\n    // // Step 1 for upgradeCode\n    // function SFCupgradeCodeStepOne(\n    //     bytes32[2][256] calldata currentpub,\n    //     bytes[256] calldata sig,\n    //     bytes32 nextPKH,\n    //     address acc,\n    //     address from\n    // )\n    //     public\n\n    // {\n    //     require(\n    //         lamportBase.performLamportMasterCheck(currentpub, sig, nextPKH, abi.encodePacked(acc, from)),\n    //         \"Master check failed\"\n    //     );\n    //     lastUsedUpgradeCodeHash = keccak256(abi.encodePacked(acc, from));\n    // }\n\n    // // Step 2 for upgradeCode\n    // function SFCupgradeCodeStepTwo(\n    //     bytes32[2][256] calldata currentpub,\n    //     bytes[256] calldata sig,\n    //     bytes32 nextPKH,\n    //     address acc,\n    //     address from\n    // )\n    //     public\n\n    // {\n    //     require(\n    //         lamportBase.performLamportMasterCheck(currentpub, sig, nextPKH, abi.encodePacked(acc, from)),\n    //         \"Master check failed\"\n    //     );\n    //     require(lastUsedUpgradeCodeHash == keccak256(abi.encodePacked(acc, from)), \"Mismatched upgradeCode hash\");\n    //     sfc.upgradeCode(acc, from);\n    //     lastUsedUpgradeCodeHash = 0;\n    // }\n\n    // function copyCode(address acc, address from) public onlyOwner {\n    //     sfc.copyCode(acc, from);\n    // }\n    // // Step 1 for copyCode\n    // function SFCcopyCodeStepOne(\n    //     bytes32[2][256] calldata currentpub,\n    //     bytes[256] calldata sig,\n    //     bytes32 nextPKH,\n    //     address acc,\n    //     address from\n    // )\n    //     public\n\n    // {\n    //     require(\n    //         lamportBase.performLamportMasterCheck(currentpub, sig, nextPKH, abi.encodePacked(acc, from)),\n    //         \"Master check failed\"\n    //     );\n    //     lastUsedCopyCodeHash = keccak256(abi.encodePacked(acc, from));\n    // }\n\n    // // Step 2 for copyCode\n    // function SFCcopyCodeStepTwo(\n    //     bytes32[2][256] calldata currentpub,\n    //     bytes[256] calldata sig,\n    //     bytes32 nextPKH,\n    //     address acc,\n    //     address from\n    // )\n    //     public\n\n    // {\n    //     require(\n    //         lamportBase.performLamportMasterCheck(currentpub, sig, nextPKH, abi.encodePacked(acc, from)),\n    //         \"Master check failed\"\n    //     );\n    //     require(lastUsedCopyCodeHash == keccak256(abi.encodePacked(acc, from)), \"Mismatched copyCode hash\");\n    //     sfc.copyCode(acc, from);\n    //     lastUsedCopyCodeHash = 0;\n    // }\n\n    // function incNonce(address acc, uint256 diff) public onlyOwner {\n    //     sfc.incNonce(acc, diff);\n    // }\n\n    // function updateNetworkRules(bytes calldata diff) public onlyOwner {\n    //     sfc.updateNetworkRules(diff);\n    // }\n    // Step 1 for incNonce\n    function SFCincNonceStepOne(\n        bytes32[2][256] calldata currentpub,\n        bytes[256] calldata sig,\n        bytes32 nextPKH,\n        address acc,\n        uint256 diff\n    )\n        public\n\n    {\n        require(\n            lamportBase.performLamportMasterCheck(currentpub, sig, nextPKH, abi.encodePacked(acc, diff)),\n            \"Master check failed\"\n        );\n        lastUsedIncNonceHash = keccak256(abi.encodePacked(acc, diff));\n    }\n\n    // Step 2 for incNonce\n    function SFCincNonceStepTwo(\n        bytes32[2][256] calldata currentpub,\n        bytes[256] calldata sig,\n        bytes32 nextPKH,\n        address acc,\n        uint256 diff\n    )\n        public\n    {\n        require(\n            lamportBase.performLamportMasterCheck(currentpub, sig, nextPKH, abi.encodePacked(acc, diff)),\n            \"Master check failed\"\n        );\n        require(lastUsedIncNonceHash == keccak256(abi.encodePacked(acc, diff)), \"Mismatched incNonce hash\");\n        sfc.incNonce(acc, diff);\n        lastUsedIncNonceHash = 0;\n    }\n\n    //Step 1 for updateNetworkRules\n    function SFCupdateNetworkRulesStepOne(\n        bytes32[2][256] calldata currentpub,\n        bytes[256] calldata sig,\n        bytes32 nextPKH,\n        bytes calldata diff\n    )\n        public\n\n    {\n        require(\n            lamportBase.performLamportMasterCheck(currentpub, sig, nextPKH, abi.encodePacked(diff)),\n            \"Master check failed\"\n        );\n        lastUsedUpdateNetworkRulesHash = keccak256(abi.encodePacked(diff));\n    }\n\n    // Step 2 for updateNetworkRules\n    function SFCupdateNetworkRulesStepTwo(\n        bytes32[2][256] calldata currentpub,\n        bytes[256] calldata sig,\n        bytes32 nextPKH,\n        bytes calldata diff\n    )\n        public\n\n    {\n        require(\n            lamportBase.performLamportMasterCheck(currentpub, sig, nextPKH, abi.encodePacked(diff)),\n            \"Master check failed\"\n        );\n        require(lastUsedUpdateNetworkRulesHash == keccak256(abi.encodePacked(diff)), \"Mismatched updateNetworkRules hash\");\n        sfc.updateNetworkRules(diff);\n        lastUsedUpdateNetworkRulesHash = 0;\n    }\n\n    // function updateNetworkVersion(uint256 version) public onlyOwner {\n    //     sfc.updateNetworkVersion(version);\n    // }\n\n    // function advanceEpochs(uint256 num) public onlyOwner {\n    //     sfc.advanceEpochs(num);\n    // }\n    // Step 1 for updateNetworkVersion \n    function SFCupdateNetworkVersionStepOne(\n        bytes32[2][256] calldata currentpub,\n        bytes[256] calldata sig,\n        bytes32 nextPKH,\n        uint256 version\n    )\n        public\n\n    {\n        require(\n            lamportBase.performLamportMasterCheck(currentpub, sig, nextPKH, abi.encodePacked(version)),\n            \"Master check failed\"\n        );\n        lastUsedUpdateNetworkVersionHash = keccak256(abi.encodePacked(version));\n    }\n\n    // Step 2 for updateNetworkVersion\n    function SFCupdateNetworkVersionStepTwo(\n        bytes32[2][256] calldata currentpub,\n        bytes[256] calldata sig,\n        bytes32 nextPKH,\n        uint256 version\n    )\n        public\n\n    {\n        require(\n            lamportBase.performLamportMasterCheck(currentpub, sig, nextPKH, abi.encodePacked(version)),\n            \"Master check failed\"\n        );\n        require(lastUsedUpdateNetworkVersionHash == keccak256(abi.encodePacked(version)), \"Mismatched updateNetworkVersion hash\");\n        sfc.updateNetworkVersion(version);\n        lastUsedUpdateNetworkVersionHash = 0;\n    }\n\n    // Step 1 for advanceEpochs\n    function SFCadvanceEpochsStepOne(\n        bytes32[2][256] calldata currentpub,\n        bytes[256] calldata sig,\n        bytes32 nextPKH,\n        uint256 num\n    )\n        public\n\n    {\n        require(\n            lamportBase.performLamportMasterCheck(currentpub, sig, nextPKH, abi.encodePacked(num)),\n            \"Master check failed\"\n        );\n        lastUsedAdvanceEpochsHash = keccak256(abi.encodePacked(num));\n    }\n\n    // Step 2 for advanceEpochs\n    function SFCadvanceEpochsStepTwo(\n        bytes32[2][256] calldata currentpub,\n        bytes[256] calldata sig,\n        bytes32 nextPKH,\n        uint256 num\n    )\n        public\n\n    {\n        require(\n            lamportBase.performLamportMasterCheck(currentpub, sig, nextPKH, abi.encodePacked(num)),\n            \"Master check failed\"\n        );\n        require(lastUsedAdvanceEpochsHash == keccak256(abi.encodePacked(num)), \"Mismatched advanceEpochs hash\");\n        sfc.advanceEpochs(num);\n        lastUsedAdvanceEpochsHash = 0;\n    }\n\n\n    address private lastUsedVoteBookAddress;\n    // Step 1 for updateVoteBookAddress\n    function updateVoteBookAddressStepOne(\n        bytes32[2][256] calldata currentpub,\n        bytes[256] calldata sig,\n        bytes32 nextPKH,\n        address v\n    )\n        public\n\n    {\n        require(\n            lamportBase.performLamportMasterCheck(currentpub, sig, nextPKH, abi.encodePacked(v)),\n            \"Master check failed\"\n        );\n        lastUsedVoteBookAddress = v;\n    }\n\n    // Step 2 for updateVoteBookAddress\n    function updateVoteBookAddressStepTwo(\n        bytes32[2][256] calldata currentpub,\n        bytes[256] calldata sig,\n        bytes32 nextPKH,\n        address v\n    )\n        public\n\n    {\n        require(\n            lamportBase.performLamportMasterCheck(currentpub, sig, nextPKH, abi.encodePacked(v)),\n            \"Master check failed\"\n        );\n        require(lastUsedVoteBookAddress == v, \"Mismatched voteBook address between step one and two\");\n        sfc.updateVoteBookAddress(v);\n        lastUsedVoteBookAddress = address(0);\n    }\n\n    function setSFCforSFCtAddressStepOne(\n        bytes32[2][256] calldata currentpub,\n        bytes[256] calldata sig,\n        bytes32 nextPKH,\n        address newSFCAddress\n    )\n        public\n\n    {\n        require(\n            lamportBase.performLamportMasterCheck(currentpub, sig, nextPKH, abi.encodePacked(newSFCAddress)),\n            \"Master check failed\"\n        );\n        require(newSFCAddress != address(0), \"SFC address cannot be the zero address\");\n        lastUsedSFCAddress = newSFCAddress;\n    }\n\n    // Step 2: Verify and set the SFC address\n    function setSFCforSFCtAddressStepTwo(\n        bytes32[2][256] calldata currentpub,\n        bytes[256] calldata sig,\n        bytes32 nextPKH,\n        address newSFCAddress\n    )\n        public\n\n    {\n\n        require(\n            lamportBase.performLamportMasterCheck(currentpub, sig, nextPKH, abi.encodePacked(newSFCAddress)),\n            \"Master check failed\"\n        );\n        require(lastUsedSFCAddress == newSFCAddress, \"Mismatched SFC address between step one and two\");\n\n        sfc = ISFC(newSFCAddress);\n\n        // Reset the temporary variable\n        lastUsedSFCAddress = 0x0000000000000000000000000000000000000000;\n        emit SFCAddressSet2(newSFCAddress);\n    }\n\n}\n    //     NodeDriverAuth (also 0xFC00FACE00...)\n\n\n    // function execute(address executable) external onlyOwner {\n    //     _execute(executable, owner(), _getCodeHash(address(this)), _getCodeHash(address(driver)));\n    // }\n\n    // function mutExecute(address executable, address newOwner, bytes32 selfCodeHash, bytes32 driverCodeHash) external onlyOwner {\n    //     _execute(executable, newOwner, selfCodeHash, driverCodeHash);\n    // }\n\t\n    // Additional functions and logic can be added here\n\n\n\n\n    // ConstantsManager contract\n\n    // Step 1 for updateMinSelfStake\n\npragma solidity ^0.8.0;\n\nimport \"./LamportBase.sol\"; // Adjust the path according to your project structure\nimport \"./Decimal.sol\"; // Ensure this is included if needed\n\n// Interface for the Constants contract\ninterface IConsts {\n    function constsAddress() external view returns (address);\n    function updateMinSelfStake(uint256 v) external;\n    function updateMaxDelegatedRatio(uint256 v) external;\n    function updateValidatorCommission(uint256 v) external;\n    function updateBurntFeeShare(uint256 v) external;\n    function updateTreasuryFeeShare(uint256 v) external;\n    function updateUnlockedRewardRatio(uint256 v) external;\n    function updateMinLockupDuration(uint256 v) external;\n    function updateMaxLockupDuration(uint256 v) external;\n    function updateWithdrawalPeriodEpochs(uint256 v) external;\n    function updateWithdrawalPeriodTime(uint256 v) external;\n    function updateBaseRewardPerSecond(uint256 v) external;\n    function updateOfflinePenaltyThresholdTime(uint256 v) external;\n    function updateOfflinePenaltyThresholdBlocksNum(uint256 v) external;\n    function updateTargetGasPowerPerSecond(uint256 v) external;\n    function updateGasPriceBalancingCounterweight(uint256 v) external;\n}\n\n    // Contract to manage constants\ncontract ConstantsInterface is LamportBase {\n\n    bytes32 private lastUsedMinSelfStakeHash;\n    bytes32 private lastUsedMaxDelegatedRatioHash;\n    IConsts public consts;\n    LamportBase public lamportBase;\n    \n    event SFCConstsAddressSet(address newConstsAddress);\n\n\n    constructor(address _consts, address _lamportBase) {\n        consts = IConsts(_consts);\n        lamportBase = LamportBase(_lamportBase);\n\n        //owner = msg.sender;\n    }\n    function constsUpdateMinSelfStakeStepOne(\n        bytes32[2][256] calldata currentpub,\n        bytes[256] calldata sig,\n        bytes32 nextPKH,\n        uint256 v\n    )\n        public\n\n    {\n        require(\n            lamportBase.performLamportMasterCheck(currentpub, sig, nextPKH, abi.encodePacked(v)),\n            \"Master check failed\"\n        );\n        lastUsedMinSelfStakeHash = keccak256(abi.encodePacked(v));\n    }\n\n    // Step 2 for updateMinSelfStake\n    function constsUpdateMinSelfStakeStepTwo(\n        bytes32[2][256] calldata currentpub,\n        bytes[256] calldata sig,\n        bytes32 nextPKH,\n        uint256 v\n    )\n        public\n\n    {\n        require(\n            lamportBase.performLamportMasterCheck(currentpub, sig, nextPKH, abi.encodePacked(v)),\n            \"Master check failed\"\n        );\n        require(lastUsedMinSelfStakeHash == keccak256(abi.encodePacked(v)), \"Mismatched minSelfStake hash\");\n        require(v >= 100000 * 1e18 && v <= 10000000 * 1e18, \"Invalid value range\");\n        consts.updateMinSelfStake(v);\n        lastUsedMinSelfStakeHash = 0;\n    }\n\n    // Step 1 for updateMaxDelegatedRatio\n    function constsUpdateMaxDelegatedRatioStepOne(\n        bytes32[2][256] calldata currentpub,\n        bytes[256] calldata sig,\n        bytes32 nextPKH,\n        uint256 v\n    )\n        public\n    {\n        require(\n            lamportBase.performLamportMasterCheck(currentpub, sig, nextPKH, abi.encodePacked(v)),\n            \"Master check failed\"\n        );\n        lastUsedMaxDelegatedRatioHash = keccak256(abi.encodePacked(v));\n    }\n\n    // Step 2 for updateMaxDelegatedRatio\n    function constsUpdateMaxDelegatedRatioStepTwo(\n        bytes32[2][256] calldata currentpub,\n        bytes[256] calldata sig,\n        bytes32 nextPKH,\n        uint256 v\n    )\n        public\n\n    {\n        require(\n            lamportBase.performLamportMasterCheck(currentpub, sig, nextPKH, abi.encodePacked(v)),\n            \"Master check failed\"\n        );\n        require(lastUsedMaxDelegatedRatioHash == keccak256(abi.encodePacked(v)), \"Mismatched maxDelegatedRatio hash\");\n        require(v >= Decimal.unit() && v <= 31 * Decimal.unit(), \"Invalid value range\");\n        consts.updateMaxDelegatedRatio(v);\n        lastUsedMaxDelegatedRatioHash = 0;\n    }\n    // Step 1 for updateValidatorCommission\n    function constsUpdateValidatorCommissionStepOne(\n        bytes32[2][256] calldata currentpub,\n        bytes[256] calldata sig,\n        bytes32 nextPKH,\n        uint256 v\n    )\n        public\n\n    {\n        require(\n            lamportBase.performLamportMasterCheck(currentpub, sig, nextPKH, abi.encodePacked(v)),\n            \"Master check failed\"\n        );\n        lastUsedValidatorCommissionHash = keccak256(abi.encodePacked(v));\n    }\n\n    // Step 2 for updateValidatorCommission\n    function constsUpdateValidatorCommissionStepTwo(\n        bytes32[2][256] calldata currentpub,\n        bytes[256] calldata sig,\n        bytes32 nextPKH,\n        uint256 v\n    )\n        public\n    {\n        require(\n            lamportBase.performLamportMasterCheck(currentpub, sig, nextPKH, abi.encodePacked(v)),\n            \"Master check failed\"\n        );\n        require(lastUsedValidatorCommissionHash == keccak256(abi.encodePacked(v)), \"Mismatched validatorCommission hash\");\n        require(v <= Decimal.unit() / 2, \"too large value\");\n        consts.updateValidatorCommission(v);\n        lastUsedValidatorCommissionHash = 0;\n    }\n\n    // Step 1 for updateBurntFeeShare\n    function constsUpdateBurntFeeShareStepOne(\n        bytes32[2][256] calldata currentpub,\n        bytes[256] calldata sig,\n        bytes32 nextPKH,\n        uint256 v\n    )\n        public\n\n    {\n        require(\n            lamportBase.performLamportMasterCheck(currentpub, sig, nextPKH, abi.encodePacked(v)),\n            \"Master check failed\"\n        );\n        lastUsedBurntFeeShareHash = keccak256(abi.encodePacked(v));\n    }\n\n    // Step 2 for updateBurntFeeShare\n    function constsUpdateBurntFeeShareStepTwo(\n        bytes32[2][256] calldata currentpub,\n        bytes[256] calldata sig,\n        bytes32 nextPKH,\n        uint256 v\n    )\n        public\n\n    {\n\n        require(\n            lamportBase.performLamportMasterCheck(currentpub, sig, nextPKH, abi.encodePacked(v)),\n            \"Master check failed\"\n        );\n        require(lastUsedBurntFeeShareHash == keccak256(abi.encodePacked(v)), \"Mismatched burntFeeShare hash\");\n        require(v <= Decimal.unit() / 2, \"too large value\");\n        consts.updateBurntFeeShare(v);\n        lastUsedBurntFeeShareHash = 0;\n    }\n    uint256 public treasuryFeeShare;\n    uint256 public unlockedRewardRatio;\n\n    bytes32 private lastUsedTreasuryFeeShareHash;\n    bytes32 private lastUsedUnlockedRewardRatioHash;\n\n    // Step 1 for updateTreasuryFeeShare\n    function constsUpdateTreasuryFeeShareStepOne(\n        bytes32[2][256] calldata currentpub,\n        bytes[256] calldata sig,\n        bytes32 nextPKH,\n        uint256 v\n    )\n        public\n\n    {\n        require(\n            lamportBase.performLamportMasterCheck(currentpub, sig, nextPKH, abi.encodePacked(v)),\n            \"Master check failed\"\n        );\n        lastUsedTreasuryFeeShareHash = keccak256(abi.encodePacked(v));\n    }\n    uint256 public validatorCommission;\n    uint256 public burntFeeShare;\n\n    bytes32 private lastUsedValidatorCommissionHash;\n    bytes32 private lastUsedBurntFeeShareHash;\n\n    // Step 2 for updateTreasuryFeeShare\n    function constsUpdateTreasuryFeeShareStepTwo(\n        bytes32[2][256] calldata currentpub,\n        bytes[256] calldata sig,\n        bytes32 nextPKH,\n        uint256 v\n    )\n        public\n\n    {\n        require(\n            lamportBase.performLamportMasterCheck(currentpub, sig, nextPKH, abi.encodePacked(v)),\n            \"Master check failed\"\n        );\n        require(lastUsedTreasuryFeeShareHash == keccak256(abi.encodePacked(v)), \"Mismatched treasuryFeeShare hash\");\n        require(v <= Decimal.unit() / 2, \"too large value\");\n        consts.updateTreasuryFeeShare(v);\n        lastUsedTreasuryFeeShareHash = 0;\n    }\n\n    // Step 1 for updateUnlockedRewardRatio\n    function constsUpdateUnlockedRewardRatioStepOne(\n        bytes32[2][256] calldata currentpub,\n        bytes[256] calldata sig,\n        bytes32 nextPKH,\n        uint256 v\n    )\n        public\n\n    {\n        require(\n            lamportBase.performLamportMasterCheck(currentpub, sig, nextPKH, abi.encodePacked(v)),\n            \"Master check failed\"\n        );\n        lastUsedUnlockedRewardRatioHash = keccak256(abi.encodePacked(v));\n    }\n\n    // Step 2 for updateUnlockedRewardRatio\n    function constsUpdateUnlockedRewardRatioStepTwo(\n        bytes32[2][256] calldata currentpub,\n        bytes[256] calldata sig,\n        bytes32 nextPKH,\n        uint256 v\n    )\n        public\n\n    {\n        require(\n            lamportBase.performLamportMasterCheck(currentpub, sig, nextPKH, abi.encodePacked(v)),\n            \"Master check failed\"\n        );\n        require(lastUsedUnlockedRewardRatioHash == keccak256(abi.encodePacked(v)), \"Mismatched unlockedRewardRatio hash\");\n        require(v >= (5 * Decimal.unit()) / 100 && v <= Decimal.unit() / 2, \"Invalid value range\");\n        consts.updateUnlockedRewardRatio(v);\n        lastUsedUnlockedRewardRatioHash = 0;\n    }\n    uint256 public minLockupDuration;\n    uint256 public maxLockupDuration;\n\n    bytes32 private lastUsedMinLockupDurationHash;\n    bytes32 private lastUsedMaxLockupDurationHash;\n\n    // Step 1 for updateMinLockupDuration\n    function constsUpdateMinLockupDurationStepOne(\n        bytes32[2][256] calldata currentpub,\n        bytes[256] calldata sig,\n        bytes32 nextPKH,\n        uint256 v\n    )\n        public\n    {\n        require(\n            lamportBase.performLamportMasterCheck(currentpub, sig, nextPKH, abi.encodePacked(v)),\n            \"Master check failed\"\n        );\n        lastUsedMinLockupDurationHash = keccak256(abi.encodePacked(v));\n    }\n\n    // Step 2 for updateMinLockupDuration\n    function constsUpdateMinLockupDurationStepTwo(\n        bytes32[2][256] calldata currentpub,\n        bytes[256] calldata sig,\n        bytes32 nextPKH,\n        uint256 v\n    )\n        public\n    {\n        require(\n            lamportBase.performLamportMasterCheck(currentpub, sig, nextPKH, abi.encodePacked(v)),\n            \"Master check failed\"\n        );\n        require(lastUsedMinLockupDurationHash == keccak256(abi.encodePacked(v)), \"Mismatched minLockupDuration hash\");\n        require(v >= 86400 && v <= 86400 * 30, \"Invalid minLockupDuration range\");\n        consts.updateMinLockupDuration(v);\n        lastUsedMinLockupDurationHash = 0;\n    }\n\n    // Step 1 for updateMaxLockupDuration\n    function constsUpdateMaxLockupDurationStepOne(\n        bytes32[2][256] calldata currentpub,\n        bytes[256] calldata sig,\n        bytes32 nextPKH,\n        uint256 v\n    )\n        public\n\n    {\n        require(\n            lamportBase.performLamportMasterCheck(currentpub, sig, nextPKH, abi.encodePacked(v)),\n            \"Master check failed\"\n        );\n        lastUsedMaxLockupDurationHash = keccak256(abi.encodePacked(v));\n    }\n\n    // Step 2 for updateMaxLockupDuration\n    function constsUpdateMaxLockupDurationStepTwo(\n        bytes32[2][256] calldata currentpub,\n        bytes[256] calldata sig,\n        bytes32 nextPKH,\n        uint256 v\n    )\n        public\n    {\n\n        require(\n            lamportBase.performLamportMasterCheck(currentpub, sig, nextPKH, abi.encodePacked(v)),\n            \"Master check failed\"\n        );\n        require(lastUsedMaxLockupDurationHash == keccak256(abi.encodePacked(v)), \"Mismatched maxLockupDuration hash\");\n        require(v >= 86400 * 30 && v <= 86400 * 1460, \"Invalid maxLockupDuration range\");\n        consts.updateMaxLockupDuration(v);\n        lastUsedMaxLockupDurationHash = 0;\n    }\n    uint256 public withdrawalPeriodEpochs;\n\n    bytes32 private lastUsedWithdrawalPeriodEpochsHash;\n\n    // Step 1 for updateWithdrawalPeriodEpochs\n    function constsUpdateWithdrawalPeriodEpochsStepOne(\n        bytes32[2][256] calldata currentpub,\n        bytes[256] calldata sig,\n        bytes32 nextPKH,\n        uint256 v\n    )\n        public\n    {\n        require(\n            lamportBase.performLamportMasterCheck(currentpub, sig, nextPKH, abi.encodePacked(v)),\n            \"Master check failed\"\n        );\n        lastUsedWithdrawalPeriodEpochsHash = keccak256(abi.encodePacked(v));\n    }\n\n    // Step 2 for updateWithdrawalPeriodEpochs\n    function constsUpdateWithdrawalPeriodEpochsStepTwo(\n        bytes32[2][256] calldata currentpub,\n        bytes[256] calldata sig,\n        bytes32 nextPKH,\n        uint256 v\n    )\n        public\n    {\n        require(\n            lamportBase.performLamportMasterCheck(currentpub, sig, nextPKH, abi.encodePacked(v)),\n            \"Master check failed\"\n        );\n        require(lastUsedWithdrawalPeriodEpochsHash == keccak256(abi.encodePacked(v)), \"Mismatched withdrawalPeriodEpochs hash\");\n        require(v >= 2 && v <= 100, \"Invalid withdrawalPeriodEpochs range\");\n        consts.updateWithdrawalPeriodEpochs(v);\n        lastUsedWithdrawalPeriodEpochsHash = 0;\n    }\n        function setSFCtConstsAddressStepOne(\n        bytes32[2][256] calldata currentpub,\n        bytes[256] calldata sig,\n        bytes32 nextPKH,\n        address _constsAddress\n    )\n        public\n\n    {\n        require(\n            lamportBase.performLamportMasterCheck(currentpub, sig, nextPKH, abi.encodePacked(_constsAddress)),\n            \"Master check failed\"\n        );\n        lastUsedSFCtConstsAddress = _constsAddress;\n    }\n    address private lastUsedSFCtConstsAddress;\n\n    // Step 2 for setSFCtConstsAddress\n    function setSFCtConstsAddressStepTwo(\n        bytes32[2][256] calldata currentpub,\n        bytes[256] calldata sig,\n        bytes32 nextPKH,\n        address _constsAddress\n    )\n        public\n    {\n        require(\n            lamportBase.performLamportMasterCheck(currentpub, sig, nextPKH, abi.encodePacked(_constsAddress)),\n            \"Master check failed\"\n        );\n        require(lastUsedSFCtConstsAddress == _constsAddress, \"Mismatched SFCtConsts address between step one and two\");\n        consts = IConsts(_constsAddress);\n        lastUsedSFCtConstsAddress = address(0);\n        emit SFCConstsAddressSet(_constsAddress);\n\n    }\n    function constsAddress() external view returns (address) {\n        return consts.constsAddress();\n    }\n}\n\ncontract ConstantsInterfacePart2 is LamportBase {\n    // State variables continuation from Part 1\n    IConsts public consts;\n    bytes32 private lastUsedWithdrawalPeriodTimeHash;\n    uint256 public withdrawalPeriodTime;\n    LamportBase public lamportBase;\n    event SFCConstsAddressSet2(address newConstsAddress);\n\n    address private lastUsedSFCtConstsAddress;\n    constructor(address _consts, address _lamportBase) {\n        consts = IConsts(_consts);\n        lamportBase = LamportBase(_lamportBase);\n\n        //owner = msg.sender;\n    }\n    // Step 1 for updateWithdrawalPeriodTime\n    function constsUpdateWithdrawalPeriodTimeStepOne(\n        bytes32[2][256] calldata currentpub,\n        bytes[256] calldata sig,\n        bytes32 nextPKH,\n        uint256 v\n    )\n        public\n    {\n        require(\n            lamportBase.performLamportMasterCheck(currentpub, sig, nextPKH, abi.encodePacked(v)),\n            \"Master check failed\"\n        );\n        lastUsedWithdrawalPeriodTimeHash = keccak256(abi.encodePacked(v));\n    }\n\n    // Step 2 for updateWithdrawalPeriodTime\n    function constsUpdateWithdrawalPeriodTimeStepTwo(\n        bytes32[2][256] calldata currentpub,\n        bytes[256] calldata sig,\n        bytes32 nextPKH,\n        uint256 v\n    )\n        public\n\n    {\n        require(\n            lamportBase.performLamportMasterCheck(currentpub, sig, nextPKH, abi.encodePacked(v)),\n            \"Master check failed\"\n        );\n        require(lastUsedWithdrawalPeriodTimeHash == keccak256(abi.encodePacked(v)), \"Mismatched withdrawalPeriodTime hash\");\n        require(v >= 86400 && v <= 30 * 86400, \"Invalid withdrawalPeriodTime range\");\n        consts.updateWithdrawalPeriodTime(v);\n        lastUsedWithdrawalPeriodTimeHash = 0;\n    }\n    uint256 public baseRewardPerSecond;\n    uint256 public offlinePenaltyThresholdTime;\n\n    bytes32 private lastUsedBaseRewardPerSecondHash;\n    bytes32 private lastUsedOfflinePenaltyThresholdTimeHash;\n\n    // Step 1 for updateBaseRewardPerSecond\n    function constsUpdateBaseRewardPerSecondStepOne(\n        bytes32[2][256] calldata currentpub,\n        bytes[256] calldata sig,\n        bytes32 nextPKH,\n        uint256 v\n    )\n        public\n\n    {\n        require(\n            lamportBase.performLamportMasterCheck(currentpub, sig, nextPKH, abi.encodePacked(v)),\n            \"Master check failed\"\n        );\n        lastUsedBaseRewardPerSecondHash = keccak256(abi.encodePacked(v));\n    }\n\n    // Step 2 for updateBaseRewardPerSecond\n    function constsUpdateBaseRewardPerSecondStepTwo(\n        bytes32[2][256] calldata currentpub,\n        bytes[256] calldata sig,\n        bytes32 nextPKH,\n        uint256 v\n    )\n        public\n    {\n        require(\n            lamportBase.performLamportMasterCheck(currentpub, sig, nextPKH, abi.encodePacked(v)),\n            \"Master check failed\"\n        );\n        require(lastUsedBaseRewardPerSecondHash == keccak256(abi.encodePacked(v)), \"Mismatched baseRewardPerSecond hash\");\n        require(v >= 0.5 * 1e18 && v <= 32 * 1e18, \"Invalid baseRewardPerSecond range\");\n        consts.updateBaseRewardPerSecond(v);\n        lastUsedBaseRewardPerSecondHash = 0;\n    }\n\n    // Step 1 for updateOfflinePenaltyThresholdTime\n    function constsUpdateOfflinePenaltyThresholdTimeStepOne(\n        bytes32[2][256] calldata currentpub,\n        bytes[256] calldata sig,\n        bytes32 nextPKH,\n        uint256 v\n    )\n        public\n\n    {\n        require(\n            lamportBase.performLamportMasterCheck(currentpub, sig, nextPKH, abi.encodePacked(v)),\n            \"Master check failed\"\n        );\n        lastUsedOfflinePenaltyThresholdTimeHash = keccak256(abi.encodePacked(v));\n    }\n\n    // Step 2 for updateOfflinePenaltyThresholdTime\n    function constsUpdateOfflinePenaltyThresholdTimeStepTwo(\n        bytes32[2][256] calldata currentpub,\n        bytes[256] calldata sig,\n        bytes32 nextPKH,\n        uint256 v\n    )\n        public\n\n    {\n        require(\n            lamportBase.performLamportMasterCheck(currentpub, sig, nextPKH, abi.encodePacked(v)),\n            \"Master check failed\"\n        );\n        require(lastUsedOfflinePenaltyThresholdTimeHash == keccak256(abi.encodePacked(v)), \"Mismatched offlinePenaltyThresholdTime hash\");\n        require(v >= 86400 && v <= 10 * 86400, \"Invalid offlinePenaltyThresholdTime range\");\n        consts.updateOfflinePenaltyThresholdTime(v);\n        lastUsedOfflinePenaltyThresholdTimeHash = 0;\n    }\n    uint256 public offlinePenaltyThresholdBlocksNum;\n    uint256 public targetGasPowerPerSecond;\n    uint256 public gasPriceBalancingCounterweight;\n\n    bytes32 private lastUsedOfflinePenaltyThresholdBlocksNumHash;\n    bytes32 private lastUsedTargetGasPowerPerSecondHash;\n    bytes32 private lastUsedGasPriceBalancingCounterweightHash;\n\n    // Step 1 for updateOfflinePenaltyThresholdBlocksNum\n    function constsUpdateOfflinePenaltyThresholdBlocksNumStepOne(\n        bytes32[2][256] calldata currentpub,\n        bytes[256] calldata sig,\n        bytes32 nextPKH,\n        uint256 v\n    )\n        public\n\n    {\n        require(\n            lamportBase.performLamportMasterCheck(currentpub, sig, nextPKH, abi.encodePacked(v)),\n            \"Master check failed\"\n        );\n        lastUsedOfflinePenaltyThresholdBlocksNumHash = keccak256(abi.encodePacked(v));\n    }\n\n    // Step 2 for updateOfflinePenaltyThresholdBlocksNum\n    function constsUpdateOfflinePenaltyThresholdBlocksNumStepTwo(\n        bytes32[2][256] calldata currentpub,\n        bytes[256] calldata sig,\n        bytes32 nextPKH,\n        uint256 v\n    )\n        public\n\n    {\n        require(\n            lamportBase.performLamportMasterCheck(currentpub, sig, nextPKH, abi.encodePacked(v)),\n            \"Master check failed\"\n        );\n        require(lastUsedOfflinePenaltyThresholdBlocksNumHash == keccak256(abi.encodePacked(v)), \"Mismatched offlinePenaltyThresholdBlocksNum hash\");\n        require(v >= 100 && v <= 1000000, \"Invalid offlinePenaltyThresholdBlocksNum range\");\n        consts.updateOfflinePenaltyThresholdBlocksNum(v);\n        lastUsedOfflinePenaltyThresholdBlocksNumHash = 0;\n    }\n\n    // Step 1 for updateTargetGasPowerPerSecond\n    function constsUpdateTargetGasPowerPerSecondStepOne(\n        bytes32[2][256] calldata currentpub,\n        bytes[256] calldata sig,\n        bytes32 nextPKH,\n        uint256 v\n    )\n        public\n\n    {\n        require(\n            lamportBase.performLamportMasterCheck(currentpub, sig, nextPKH, abi.encodePacked(v)),\n            \"Master check failed\"\n        );\n        lastUsedTargetGasPowerPerSecondHash = keccak256(abi.encodePacked(v));\n    }\n\n    // Step 2 for updateTargetGasPowerPerSecond\n    function constsUpdateTargetGasPowerPerSecondStepTwo(\n        bytes32[2][256] calldata currentpub,\n        bytes[256] calldata sig,\n        bytes32 nextPKH,\n        uint256 v\n    )\n        public\n    {\n        require(\n            lamportBase.performLamportMasterCheck(currentpub, sig, nextPKH, abi.encodePacked(v)),\n            \"Master check failed\"\n        );\n        require(lastUsedTargetGasPowerPerSecondHash == keccak256(abi.encodePacked(v)), \"Mismatched targetGasPowerPerSecond hash\");\n        require(v >= 1000000 && v <= 500000000, \"Invalid targetGasPowerPerSecond range\");\n        consts.updateTargetGasPowerPerSecond(v);\n        lastUsedTargetGasPowerPerSecondHash = 0;\n    }\n\n    // Step 1 for updateGasPriceBalancingCounterweight\n    function constsUpdateGasPriceBalancingCounterweightStepOne(\n        bytes32[2][256] calldata currentpub,\n        bytes[256] calldata sig,\n        bytes32 nextPKH,\n        uint256 v\n    )\n        public\n\n    {\n        require(\n            lamportBase.performLamportMasterCheck(currentpub, sig, nextPKH, abi.encodePacked(v)),\n            \"Master check failed\"\n        );\n        lastUsedGasPriceBalancingCounterweightHash = keccak256(abi.encodePacked(v));\n    }\n\n    // Step 2 for updateGasPriceBalancingCounterweight\n    function constsUpdateGasPriceBalancingCounterweightStepTwo(\n        bytes32[2][256] calldata currentpub,\n        bytes[256] calldata sig,\n        bytes32 nextPKH,\n        uint256 v\n    )\n        public\n    {\n        require(\n            lamportBase.performLamportMasterCheck(currentpub, sig, nextPKH, abi.encodePacked(v)),\n            \"Master check failed\"\n        );\n        require(lastUsedGasPriceBalancingCounterweightHash == keccak256(abi.encodePacked(v)), \"Mismatched gasPriceBalancingCounterweight hash\");\n        require(v >= 100 && v <= 10 * 86400, \"Invalid gasPriceBalancingCounterweight range\");\n        consts.updateGasPriceBalancingCounterweight(v);\n        lastUsedGasPriceBalancingCounterweightHash = 0;\n    }\n    // Step 1 for setSFCtConstsAddress\n    function setSFCtConstsAddressStepOne(\n        bytes32[2][256] calldata currentpub,\n        bytes[256] calldata sig,\n        bytes32 nextPKH,\n        address _constsAddress\n    )\n        public\n\n    {\n        require(\n            lamportBase.performLamportMasterCheck(currentpub, sig, nextPKH, abi.encodePacked(_constsAddress)),\n            \"Master check failed\"\n        );\n        lastUsedSFCtConstsAddress = _constsAddress;\n    }\n\n    // Step 2 for setSFCtConstsAddress\n    function setSFCtConstsAddressStepTwo(\n        bytes32[2][256] calldata currentpub,\n        bytes[256] calldata sig,\n        bytes32 nextPKH,\n        address _constsAddress\n    )\n        public\n    {\n        require(\n            lamportBase.performLamportMasterCheck(currentpub, sig, nextPKH, abi.encodePacked(_constsAddress)),\n            \"Master check failed\"\n        );\n        require(lastUsedSFCtConstsAddress == _constsAddress, \"Mismatched SFCtConsts address between step one and two\");\n        consts = IConsts(_constsAddress);\n        lastUsedSFCtConstsAddress = address(0);\n        emit SFCConstsAddressSet2(_constsAddress);\n\n    }\n    function constsAddress() external view returns (address) {\n        return consts.constsAddress();\n    }\n}\n\n",
  "sourcePath": "contracts/SFC-quantum-hardening-2.sol",
  "type": "contract"
}