{
  "abi": [
    {
      "inputs": [
        {
          "internalType": "address",
          "name": "_sfcAddress",
          "type": "address"
        },
        {
          "internalType": "address",
          "name": "_lamportBase",
          "type": "address"
        }
      ],
      "stateMutability": "nonpayable",
      "type": "constructor"
    },
    {
      "anonymous": false,
      "inputs": [
        {
          "indexed": false,
          "internalType": "enum LamportBase.KeyType",
          "name": "keyType",
          "type": "uint8"
        },
        {
          "indexed": false,
          "internalType": "bytes32",
          "name": "newPKH",
          "type": "bytes32"
        }
      ],
      "name": "KeyAdded",
      "type": "event"
    },
    {
      "anonymous": false,
      "inputs": [
        {
          "indexed": false,
          "internalType": "enum LamportBase.KeyType",
          "name": "originalKeyType",
          "type": "uint8"
        },
        {
          "indexed": false,
          "internalType": "bytes32",
          "name": "originalPKH",
          "type": "bytes32"
        },
        {
          "indexed": false,
          "internalType": "bytes32",
          "name": "modifiedPKH",
          "type": "bytes32"
        },
        {
          "indexed": false,
          "internalType": "enum LamportBase.KeyType",
          "name": "newKeyType",
          "type": "uint8"
        }
      ],
      "name": "KeyModified",
      "type": "event"
    },
    {
      "anonymous": false,
      "inputs": [
        {
          "indexed": false,
          "internalType": "uint256",
          "name": "hash",
          "type": "uint256"
        }
      ],
      "name": "LogLastCalculatedHash",
      "type": "event"
    },
    {
      "anonymous": false,
      "inputs": [
        {
          "indexed": true,
          "internalType": "address",
          "name": "newOwner",
          "type": "address"
        }
      ],
      "name": "OwnershipTransferred",
      "type": "event"
    },
    {
      "anonymous": false,
      "inputs": [
        {
          "indexed": false,
          "internalType": "enum LamportBase.KeyType",
          "name": "keyType",
          "type": "uint8"
        },
        {
          "indexed": false,
          "internalType": "bytes32",
          "name": "previousPKH",
          "type": "bytes32"
        },
        {
          "indexed": false,
          "internalType": "bytes32",
          "name": "newPKH",
          "type": "bytes32"
        }
      ],
      "name": "PkhUpdated",
      "type": "event"
    },
    {
      "anonymous": false,
      "inputs": [
        {
          "indexed": false,
          "internalType": "address",
          "name": "newSFCAddress",
          "type": "address"
        }
      ],
      "name": "SFCAddressSet",
      "type": "event"
    },
    {
      "anonymous": false,
      "inputs": [
        {
          "indexed": false,
          "internalType": "uint256",
          "name": "hashedData",
          "type": "uint256"
        }
      ],
      "name": "VerificationFailed",
      "type": "event"
    },
    {
      "inputs": [
        {
          "internalType": "bytes32[2][256]",
          "name": "currentpub",
          "type": "bytes32[2][256]"
        },
        {
          "internalType": "bytes[256]",
          "name": "sig",
          "type": "bytes[256]"
        },
        {
          "internalType": "bytes32",
          "name": "nextPKH",
          "type": "bytes32"
        },
        {
          "internalType": "address",
          "name": "newOwner",
          "type": "address"
        }
      ],
      "name": "SFCtransferOwnershipStepOne",
      "outputs": [],
      "stateMutability": "nonpayable",
      "type": "function"
    },
    {
      "inputs": [
        {
          "internalType": "bytes32[2][256]",
          "name": "currentpub",
          "type": "bytes32[2][256]"
        },
        {
          "internalType": "bytes[256]",
          "name": "sig",
          "type": "bytes[256]"
        },
        {
          "internalType": "bytes32",
          "name": "nextPKH",
          "type": "bytes32"
        },
        {
          "internalType": "address",
          "name": "newOwner",
          "type": "address"
        }
      ],
      "name": "SFCtransferOwnershipStepTwo",
      "outputs": [],
      "stateMutability": "nonpayable",
      "type": "function"
    },
    {
      "inputs": [
        {
          "internalType": "bytes32[2][256]",
          "name": "currentpub",
          "type": "bytes32[2][256]"
        },
        {
          "internalType": "bytes[256]",
          "name": "sig",
          "type": "bytes[256]"
        },
        {
          "internalType": "bytes32",
          "name": "nextPKH",
          "type": "bytes32"
        },
        {
          "internalType": "uint256",
          "name": "value",
          "type": "uint256"
        }
      ],
      "name": "SFCupdateBaseRewardPerSecondStepOne",
      "outputs": [],
      "stateMutability": "nonpayable",
      "type": "function"
    },
    {
      "inputs": [
        {
          "internalType": "bytes32[2][256]",
          "name": "currentpub",
          "type": "bytes32[2][256]"
        },
        {
          "internalType": "bytes[256]",
          "name": "sig",
          "type": "bytes[256]"
        },
        {
          "internalType": "bytes32",
          "name": "nextPKH",
          "type": "bytes32"
        },
        {
          "internalType": "uint256",
          "name": "value",
          "type": "uint256"
        }
      ],
      "name": "SFCupdateBaseRewardPerSecondStepTwo",
      "outputs": [],
      "stateMutability": "nonpayable",
      "type": "function"
    },
    {
      "inputs": [
        {
          "internalType": "bytes32[2][256]",
          "name": "currentpub",
          "type": "bytes32[2][256]"
        },
        {
          "internalType": "bytes[256]",
          "name": "sig",
          "type": "bytes[256]"
        },
        {
          "internalType": "bytes32",
          "name": "nextPKH",
          "type": "bytes32"
        },
        {
          "internalType": "uint256",
          "name": "blocksNum",
          "type": "uint256"
        },
        {
          "internalType": "uint256",
          "name": "time",
          "type": "uint256"
        }
      ],
      "name": "SFCupdateOfflinePenaltyThresholdStepOne",
      "outputs": [],
      "stateMutability": "nonpayable",
      "type": "function"
    },
    {
      "inputs": [
        {
          "internalType": "bytes32[2][256]",
          "name": "currentpub",
          "type": "bytes32[2][256]"
        },
        {
          "internalType": "bytes[256]",
          "name": "sig",
          "type": "bytes[256]"
        },
        {
          "internalType": "bytes32",
          "name": "nextPKH",
          "type": "bytes32"
        },
        {
          "internalType": "uint256",
          "name": "blocksNum",
          "type": "uint256"
        },
        {
          "internalType": "uint256",
          "name": "time",
          "type": "uint256"
        }
      ],
      "name": "SFCupdateOfflinePenaltyThresholdStepTwo",
      "outputs": [],
      "stateMutability": "nonpayable",
      "type": "function"
    },
    {
      "inputs": [
        {
          "internalType": "bytes32[2][256]",
          "name": "currentpub",
          "type": "bytes32[2][256]"
        },
        {
          "internalType": "bytes[256]",
          "name": "sig",
          "type": "bytes[256]"
        },
        {
          "internalType": "bytes32",
          "name": "nextPKH",
          "type": "bytes32"
        },
        {
          "internalType": "uint256",
          "name": "validatorID",
          "type": "uint256"
        },
        {
          "internalType": "uint256",
          "name": "refundRatio",
          "type": "uint256"
        }
      ],
      "name": "SFCupdateSlashingRefundRatioStepOne",
      "outputs": [],
      "stateMutability": "nonpayable",
      "type": "function"
    },
    {
      "inputs": [
        {
          "internalType": "bytes32[2][256]",
          "name": "currentpub",
          "type": "bytes32[2][256]"
        },
        {
          "internalType": "bytes[256]",
          "name": "sig",
          "type": "bytes[256]"
        },
        {
          "internalType": "bytes32",
          "name": "nextPKH",
          "type": "bytes32"
        },
        {
          "internalType": "uint256",
          "name": "validatorID",
          "type": "uint256"
        },
        {
          "internalType": "uint256",
          "name": "refundRatio",
          "type": "uint256"
        }
      ],
      "name": "SFCupdateSlashingRefundRatioStepTwo",
      "outputs": [],
      "stateMutability": "nonpayable",
      "type": "function"
    },
    {
      "inputs": [
        {
          "internalType": "bytes32[2][256]",
          "name": "currentpub",
          "type": "bytes32[2][256]"
        },
        {
          "internalType": "bytes[256]",
          "name": "sig",
          "type": "bytes[256]"
        },
        {
          "internalType": "bytes32",
          "name": "nextPKH",
          "type": "bytes32"
        },
        {
          "internalType": "address",
          "name": "addr",
          "type": "address"
        }
      ],
      "name": "SFCupdateStakeTokenizerAddressStepOne",
      "outputs": [],
      "stateMutability": "nonpayable",
      "type": "function"
    },
    {
      "inputs": [
        {
          "internalType": "bytes32[2][256]",
          "name": "currentpub",
          "type": "bytes32[2][256]"
        },
        {
          "internalType": "bytes[256]",
          "name": "sig",
          "type": "bytes[256]"
        },
        {
          "internalType": "bytes32",
          "name": "nextPKH",
          "type": "bytes32"
        },
        {
          "internalType": "address",
          "name": "addr",
          "type": "address"
        }
      ],
      "name": "SFCupdateStakeTokenizerAddressStepTwo",
      "outputs": [],
      "stateMutability": "nonpayable",
      "type": "function"
    },
    {
      "inputs": [
        {
          "internalType": "bytes32[2][256]",
          "name": "currentpub",
          "type": "bytes32[2][256]"
        },
        {
          "internalType": "bytes[256]",
          "name": "sig",
          "type": "bytes[256]"
        },
        {
          "internalType": "bytes32",
          "name": "nextPKH",
          "type": "bytes32"
        },
        {
          "internalType": "int256",
          "name": "diff",
          "type": "int256"
        }
      ],
      "name": "SFCupdateTotalSupplyStepOne",
      "outputs": [],
      "stateMutability": "nonpayable",
      "type": "function"
    },
    {
      "inputs": [
        {
          "internalType": "bytes32[2][256]",
          "name": "currentpub",
          "type": "bytes32[2][256]"
        },
        {
          "internalType": "bytes[256]",
          "name": "sig",
          "type": "bytes[256]"
        },
        {
          "internalType": "bytes32",
          "name": "nextPKH",
          "type": "bytes32"
        },
        {
          "internalType": "int256",
          "name": "diff",
          "type": "int256"
        }
      ],
      "name": "SFCupdateTotalSupplyStepTwo",
      "outputs": [],
      "stateMutability": "nonpayable",
      "type": "function"
    },
    {
      "inputs": [
        {
          "internalType": "bytes32[2][256]",
          "name": "currentpub",
          "type": "bytes32[2][256]"
        },
        {
          "internalType": "bytes[256]",
          "name": "sig",
          "type": "bytes[256]"
        },
        {
          "internalType": "bytes32",
          "name": "nextPKH",
          "type": "bytes32"
        },
        {
          "internalType": "address",
          "name": "v",
          "type": "address"
        }
      ],
      "name": "SFCupdateTreasuryAddressStepOne",
      "outputs": [],
      "stateMutability": "nonpayable",
      "type": "function"
    },
    {
      "inputs": [
        {
          "internalType": "bytes32[2][256]",
          "name": "currentpub",
          "type": "bytes32[2][256]"
        },
        {
          "internalType": "bytes[256]",
          "name": "sig",
          "type": "bytes[256]"
        },
        {
          "internalType": "bytes32",
          "name": "nextPKH",
          "type": "bytes32"
        },
        {
          "internalType": "address",
          "name": "v",
          "type": "address"
        }
      ],
      "name": "SFCupdateTreasuryAddressStepTwo",
      "outputs": [],
      "stateMutability": "nonpayable",
      "type": "function"
    },
    {
      "inputs": [],
      "name": "consts",
      "outputs": [
        {
          "internalType": "contract IConsts",
          "name": "",
          "type": "address"
        }
      ],
      "stateMutability": "view",
      "type": "function"
    },
    {
      "inputs": [
        {
          "internalType": "bytes32[2][256]",
          "name": "currentpub",
          "type": "bytes32[2][256]"
        },
        {
          "internalType": "bytes[256]",
          "name": "sig",
          "type": "bytes[256]"
        },
        {
          "internalType": "bytes32",
          "name": "nextPKH",
          "type": "bytes32"
        },
        {
          "internalType": "bytes",
          "name": "newmasterPKH",
          "type": "bytes"
        }
      ],
      "name": "createMasterKeyStepOne",
      "outputs": [],
      "stateMutability": "nonpayable",
      "type": "function"
    },
    {
      "inputs": [
        {
          "internalType": "bytes32[2][256]",
          "name": "currentpub",
          "type": "bytes32[2][256]"
        },
        {
          "internalType": "bytes[256]",
          "name": "sig",
          "type": "bytes[256]"
        },
        {
          "internalType": "bytes32",
          "name": "nextPKH",
          "type": "bytes32"
        },
        {
          "internalType": "bytes32",
          "name": "newmasterPKH",
          "type": "bytes32"
        }
      ],
      "name": "createMasterKeyStepTwo",
      "outputs": [],
      "stateMutability": "nonpayable",
      "type": "function"
    },
    {
      "inputs": [
        {
          "internalType": "bytes32[2][256]",
          "name": "currentpub",
          "type": "bytes32[2][256]"
        },
        {
          "internalType": "bytes32",
          "name": "nextPKH",
          "type": "bytes32"
        },
        {
          "internalType": "bytes[256]",
          "name": "sig",
          "type": "bytes[256]"
        },
        {
          "internalType": "bytes32",
          "name": "neworaclePKH",
          "type": "bytes32"
        }
      ],
      "name": "createOracleKeyFromMaster",
      "outputs": [],
      "stateMutability": "nonpayable",
      "type": "function"
    },
    {
      "inputs": [
        {
          "internalType": "bytes32[2][256]",
          "name": "currentpub",
          "type": "bytes32[2][256]"
        },
        {
          "internalType": "bytes[256]",
          "name": "sig",
          "type": "bytes[256]"
        },
        {
          "internalType": "bytes32",
          "name": "nextPKH",
          "type": "bytes32"
        },
        {
          "internalType": "bytes32",
          "name": "deleteKeyHash",
          "type": "bytes32"
        }
      ],
      "name": "deleteKeyStepOne",
      "outputs": [],
      "stateMutability": "nonpayable",
      "type": "function"
    },
    {
      "inputs": [
        {
          "internalType": "bytes32[2][256]",
          "name": "currentpub",
          "type": "bytes32[2][256]"
        },
        {
          "internalType": "bytes[256]",
          "name": "sig",
          "type": "bytes[256]"
        },
        {
          "internalType": "bytes32",
          "name": "nextPKH",
          "type": "bytes32"
        },
        {
          "internalType": "bytes32",
          "name": "confirmDeleteKeyHash",
          "type": "bytes32"
        }
      ],
      "name": "deleteKeyStepTwo",
      "outputs": [],
      "stateMutability": "nonpayable",
      "type": "function"
    },
    {
      "inputs": [
        {
          "internalType": "bytes32",
          "name": "pkh",
          "type": "bytes32"
        }
      ],
      "name": "getKeyAndPosByPKH",
      "outputs": [
        {
          "internalType": "enum LamportBase.KeyType",
          "name": "",
          "type": "uint8"
        },
        {
          "internalType": "bytes32",
          "name": "",
          "type": "bytes32"
        },
        {
          "internalType": "uint256",
          "name": "",
          "type": "uint256"
        }
      ],
      "stateMutability": "view",
      "type": "function"
    },
    {
      "inputs": [
        {
          "internalType": "enum LamportBase.KeyType",
          "name": "privilege",
          "type": "uint8"
        }
      ],
      "name": "getPKHsByPrivilege",
      "outputs": [
        {
          "internalType": "bytes32[]",
          "name": "",
          "type": "bytes32[]"
        }
      ],
      "stateMutability": "view",
      "type": "function"
    },
    {
      "inputs": [
        {
          "internalType": "bytes32",
          "name": "masterPKH1",
          "type": "bytes32"
        },
        {
          "internalType": "bytes32",
          "name": "masterPKH2",
          "type": "bytes32"
        },
        {
          "internalType": "bytes32",
          "name": "oraclePKH",
          "type": "bytes32"
        }
      ],
      "name": "init",
      "outputs": [],
      "stateMutability": "nonpayable",
      "type": "function"
    },
    {
      "inputs": [
        {
          "internalType": "bytes32",
          "name": "",
          "type": "bytes32"
        }
      ],
      "name": "keyData",
      "outputs": [
        {
          "internalType": "enum LamportBase.KeyType",
          "name": "keyType",
          "type": "uint8"
        },
        {
          "internalType": "bytes32",
          "name": "pkh",
          "type": "bytes32"
        }
      ],
      "stateMutability": "view",
      "type": "function"
    },
    {
      "inputs": [
        {
          "internalType": "uint256",
          "name": "",
          "type": "uint256"
        }
      ],
      "name": "keys",
      "outputs": [
        {
          "internalType": "enum LamportBase.KeyType",
          "name": "keyType",
          "type": "uint8"
        },
        {
          "internalType": "bytes32",
          "name": "pkh",
          "type": "bytes32"
        }
      ],
      "stateMutability": "view",
      "type": "function"
    },
    {
      "inputs": [],
      "name": "lamportBase",
      "outputs": [
        {
          "internalType": "contract LamportBase",
          "name": "",
          "type": "address"
        }
      ],
      "stateMutability": "view",
      "type": "function"
    },
    {
      "inputs": [],
      "name": "lastUsedNextPKH",
      "outputs": [
        {
          "internalType": "bytes32",
          "name": "",
          "type": "bytes32"
        }
      ],
      "stateMutability": "view",
      "type": "function"
    },
    {
      "inputs": [],
      "name": "lastVerificationResult",
      "outputs": [
        {
          "internalType": "bool",
          "name": "",
          "type": "bool"
        }
      ],
      "stateMutability": "view",
      "type": "function"
    },
    {
      "inputs": [],
      "name": "libAddress",
      "outputs": [
        {
          "internalType": "address",
          "name": "",
          "type": "address"
        }
      ],
      "stateMutability": "view",
      "type": "function"
    },
    {
      "inputs": [],
      "name": "maxDelegatedRatio",
      "outputs": [
        {
          "internalType": "uint256",
          "name": "",
          "type": "uint256"
        }
      ],
      "stateMutability": "view",
      "type": "function"
    },
    {
      "inputs": [],
      "name": "minSelfStake",
      "outputs": [
        {
          "internalType": "uint256",
          "name": "",
          "type": "uint256"
        }
      ],
      "stateMutability": "view",
      "type": "function"
    },
    {
      "inputs": [],
      "name": "owner",
      "outputs": [
        {
          "internalType": "address",
          "name": "",
          "type": "address"
        }
      ],
      "stateMutability": "view",
      "type": "function"
    },
    {
      "inputs": [
        {
          "internalType": "bytes32[2][256]",
          "name": "currentpub",
          "type": "bytes32[2][256]"
        },
        {
          "internalType": "bytes[256]",
          "name": "sig",
          "type": "bytes[256]"
        },
        {
          "internalType": "bytes32",
          "name": "nextPKH",
          "type": "bytes32"
        },
        {
          "internalType": "bytes",
          "name": "prepacked",
          "type": "bytes"
        }
      ],
      "name": "performLamportMasterCheck",
      "outputs": [
        {
          "internalType": "bool",
          "name": "",
          "type": "bool"
        }
      ],
      "stateMutability": "nonpayable",
      "type": "function"
    },
    {
      "inputs": [
        {
          "internalType": "bytes32[2][256]",
          "name": "currentpub",
          "type": "bytes32[2][256]"
        },
        {
          "internalType": "bytes[256]",
          "name": "sig",
          "type": "bytes[256]"
        },
        {
          "internalType": "bytes32",
          "name": "nextPKH",
          "type": "bytes32"
        },
        {
          "internalType": "bytes",
          "name": "prepacked",
          "type": "bytes"
        }
      ],
      "name": "performLamportOracleCheck",
      "outputs": [
        {
          "internalType": "bool",
          "name": "",
          "type": "bool"
        }
      ],
      "stateMutability": "nonpayable",
      "type": "function"
    },
    {
      "inputs": [
        {
          "internalType": "bytes32[2][256]",
          "name": "currentpub",
          "type": "bytes32[2][256]"
        },
        {
          "internalType": "bytes[256]",
          "name": "sig",
          "type": "bytes[256]"
        },
        {
          "internalType": "bytes32",
          "name": "nextPKH",
          "type": "bytes32"
        },
        {
          "internalType": "address",
          "name": "newSFCAddress",
          "type": "address"
        }
      ],
      "name": "setSFCforSFCtAddressStepOne",
      "outputs": [],
      "stateMutability": "nonpayable",
      "type": "function"
    },
    {
      "inputs": [
        {
          "internalType": "bytes32[2][256]",
          "name": "currentpub",
          "type": "bytes32[2][256]"
        },
        {
          "internalType": "bytes[256]",
          "name": "sig",
          "type": "bytes[256]"
        },
        {
          "internalType": "bytes32",
          "name": "nextPKH",
          "type": "bytes32"
        },
        {
          "internalType": "address",
          "name": "newSFCAddress",
          "type": "address"
        }
      ],
      "name": "setSFCforSFCtAddressStepTwo",
      "outputs": [],
      "stateMutability": "nonpayable",
      "type": "function"
    },
    {
      "inputs": [],
      "name": "sfc",
      "outputs": [
        {
          "internalType": "contract ISFC",
          "name": "",
          "type": "address"
        }
      ],
      "stateMutability": "view",
      "type": "function"
    },
    {
      "inputs": [
        {
          "internalType": "uint256",
          "name": "bits",
          "type": "uint256"
        },
        {
          "internalType": "bytes[256]",
          "name": "sig",
          "type": "bytes[256]"
        },
        {
          "internalType": "bytes32[2][256]",
          "name": "pub",
          "type": "bytes32[2][256]"
        }
      ],
      "name": "verify_u256",
      "outputs": [
        {
          "internalType": "bool",
          "name": "",
          "type": "bool"
        }
      ],
      "stateMutability": "pure",
      "type": "function"
    }
  ],
  "bytecode": "60806040526000805460ff191690553480156200001b57600080fd5b50604051620037c6380380620037c68339810160408190526200003e916200008d565b600880546001600160a01b039384166001600160a01b03199182161790915560068054929093169116179055620000c5565b80516001600160a01b03811681146200008857600080fd5b919050565b60008060408385031215620000a157600080fd5b620000ac8362000070565b9150620000bc6020840162000070565b90509250929050565b6136f180620000d56000396000f3fe608060405234801561001057600080fd5b50600436106102325760003560e01c80636e82f3a111610130578063af82f3e7116100b8578063d83c413c1161007c578063d83c413c14610510578063d86d744e14610523578063e673d71f14610536578063e9cd405314610549578063fd9924fb1461055c57600080fd5b8063af82f3e7146104ae578063b97b4f77146104c1578063c5f530af146104e1578063d58b135f146104ea578063d6393c51146104fd57600080fd5b80638992229f116100ff5780638992229f146104355780638da5cb5b146104485780638eb8f1a61461045b57806393eb25c21461046e578063a9711ee31461048157600080fd5b80636e82f3a1146103e95780637507918a146103fc57806375a23ee51461040f57806380a713a11461042257600080fd5b8063333f6111116101be57806356bf7b571161018257806356bf7b571461038a5780635796841a1461039d5780635befb831146103b05780635c81d286146103c35780635e12f310146103d657600080fd5b8063333f611114610335578063499f7d86146103485780634a89d52b1461035b5780634bdd44991461036e5780634e657d2a1461037757600080fd5b80631e4c9450116102055780631e4c9450146102ab5780632265f284146102be57806324e7d008146102d557806329fd50eb146102e85780632fd5c2471461031357600080fd5b806305aacc7d146102375780630996eea1146102625780630b0ad508146102775780630cb6aaf11461028a575b600080fd5b61024a610245366004612e71565b61056f565b60405161025993929190612ec2565b60405180910390f35b610275610270366004612f0b565b610676565b005b610275610285366004612f7a565b610823565b61029d610298366004612e71565b6108a9565b604051610259929190612fa6565b6102756102b9366004612fc1565b6108db565b6102c7601c5481565b604051908152602001610259565b6102756102e3366004612f0b565b610a85565b601d546102fb906001600160a01b031681565b6040516001600160a01b039091168152602001610259565b60005461032590610100900460ff1681565b6040519015158152602001610259565b610325610343366004613052565b610b6a565b610275610356366004612fc1565b610c5b565b610325610369366004613052565b610d46565b6102c760055481565b610275610385366004613052565b610d9d565b6006546102fb906001600160a01b031681565b6102756103ab366004613147565b610f6e565b6102756103be366004612fc1565b6111cd565b6102756103d1366004613147565b6112ab565b6102756103e4366004612fc1565b611387565b6102756103f7366004613147565b6114ca565b61027561040a366004612f0b565b611633565b61027561041d366004612fc1565b611718565b610275610430366004612f0b565b6117f6565b6008546102fb906001600160a01b031681565b6009546102fb906001600160a01b031681565b6102756104693660046131aa565b61199f565b61027561047c366004613147565b611b48565b61029d61048f366004612e71565b6002602052600090815260409020805460019091015460ff9091169082565b6103256104bc36600461320e565b611cd2565b6104d46104cf366004613267565b611d87565b6040516102599190613288565b6102c7601b5481565b6102756104f8366004612fc1565b611f37565b61027561050b366004612fc1565b612108565b61027561051e366004613147565b612297565b6007546102fb906001600160a01b031681565b610275610544366004613147565b61243f565b610275610557366004612fc1565b612974565b61027561056a366004613147565b612aff565b60008181526002602081905260408083208151808301909252805484938493849390929091839160ff16908111156105a9576105a9612e8a565b60028111156105ba576105ba612e8a565b8152600191909101546020918201528101519091506000036105f75760405162461bcd60e51b81526004016105ee906132cc565b60405180910390fd5b60005b60015481101561065657856001828154811061061857610618613303565b90600052602060002090600202016001015403610644578151602090920151919450909250905061066f565b8061064e81613319565b9150506105fa565b5060405162461bcd60e51b81526004016105ee906132cc565b9193909250565b6006546040805160208101859052808201849052815180820383018152606082019283905263333f611160e01b9092526001600160a01b039092169163333f6111916106cb91899189918991906064016133b9565b6020604051808303816000875af11580156106ea573d6000803e3d6000fd5b505050506040513d601f19601f8201168201806040525081019061070e919061349a565b61072a5760405162461bcd60e51b81526004016105ee906134bc565b604080516020810184905290810182905260600160405160208183030381529060405280519060200120601154146107b25760405162461bcd60e51b815260206004820152602560248201527f4d69736d61746368656420736c617368696e6720726566756e6420726174696f604482015264040d0c2e6d60db1b60648201526084016105ee565b600854604051634f7c4efb60e01b815260048101849052602481018390526001600160a01b0390911690634f7c4efb90604401600060405180830381600087803b1580156107ff57600080fd5b505af1158015610813573d6000803e3d6000fd5b5050600060115550505050505050565b60005460ff16156108765760405162461bcd60e51b815260206004820181905260248201527f4c616d706f7274426173653a20416c726561647920696e697469616c697a656460448201526064016105ee565b610881600084612bb6565b61088c600083612bb6565b610897600182612bb6565b50506000805460ff1916600117905550565b600181815481106108b957600080fd5b60009182526020909120600290910201805460019091015460ff909116915082565b6006546040516001600160a01b039091169063333f6111908690869086906109079087906020016134e9565b6040516020818303038152906040526040518563ffffffff1660e01b815260040161093594939291906133b9565b6020604051808303816000875af1158015610954573d6000803e3d6000fd5b505050506040513d601f19601f82011682018060405250810190610978919061349a565b6109945760405162461bcd60e51b81526004016105ee906134bc565b806040516020016109a591906134e9565b6040516020818303038152906040528051906020012060125414610a1b5760405162461bcd60e51b815260206004820152602760248201527f4d69736d617463686564207374616b6520746f6b656e697a65722061646472656044820152660e6e640d0c2e6d60cb1b60648201526084016105ee565b6008546040516328bdb9af60e21b81526001600160a01b0383811660048301529091169063a2f6e6bc90602401600060405180830381600087803b158015610a6257600080fd5b505af1158015610a76573d6000803e3d6000fd5b50506000601255505050505050565b6006546040805160208101859052808201849052815180820383018152606082019283905263333f611160e01b9092526001600160a01b039092169163333f611191610ada91899189918991906064016133b9565b6020604051808303816000875af1158015610af9573d6000803e3d6000fd5b505050506040513d601f19601f82011682018060405250810190610b1d919061349a565b610b395760405162461bcd60e51b81526004016105ee906134bc565b6040805160208082019490945280820192909252805180830382018152606090920190528051910120601055505050565b6000805460ff16610b8d5760405162461bcd60e51b81526004016105ee90613506565b600085604051602001610ba0919061353d565b60408051601f198184030181529190528051602090910120905060005b60008281526002602081905260409091205460ff1690811115610be257610be2612e8a565b14610bf1576000915050610c53565b60008385604051602001610c06929190613574565b6040516020818303038152906040528051906020012060001c90506000610c2e82888a611cd2565b905080610c415760009350505050610c53565b610c4b8387612ccf565b600193505050505b949350505050565b6006546040516001600160a01b039091169063333f611190869086908690610c879087906020016134e9565b6040516020818303038152906040526040518563ffffffff1660e01b8152600401610cb594939291906133b9565b6020604051808303816000875af1158015610cd4573d6000803e3d6000fd5b505050506040513d601f19601f82011682018060405250810190610cf8919061349a565b610d145760405162461bcd60e51b81526004016105ee906134bc565b80604051602001610d2591906134e9565b60408051601f19818403018152919052805160209091012060125550505050565b6000805460ff16610d695760405162461bcd60e51b81526004016105ee90613506565b600085604051602001610d7c919061353d565b60408051601f19818403018152919052805160209091012090506001610bbd565b600054849084908490849060ff16610dc75760405162461bcd60e51b81526004016105ee90613506565b600084604051602001610dda919061353d565b60408051601f19818403018152919052805160209091012090506000808281526002602081905260409091205460ff1690811115610e1a57610e1a612e8a565b14610e375760405162461bcd60e51b81526004016105ee90613596565b60008284604051602001610e4c929190613574565b60408051601f19818403018152908290528051602091820120808352925060008051602061367c833981519152910160405180910390a16000610e90828789611cd2565b6000805461ff00191661010083151502179055905080610f145760405182815260008051602061365c833981519152906020015b60405180910390a160405162461bcd60e51b815260206004820181905260248201527f4c616d706f7274426173653a20566572696669636174696f6e206661696c656460448201526064016105ee565b6000838152600260205260409081902054905160008051602061369c83398151915291610f4a9160ff9091169086908990612ec2565b60405180910390a1610f5c8386612ccf565b50505060059590955550505050505050565b83838383604051602001610f8491815260200190565b60408051601f1981840301815291905260005460ff16610fb65760405162461bcd60e51b81526004016105ee90613506565b600084604051602001610fc9919061353d565b60408051601f19818403018152919052805160209091012090506000808281526002602081905260409091205460ff169081111561100957611009612e8a565b146110265760405162461bcd60e51b81526004016105ee90613596565b6000828460405160200161103b929190613574565b60408051601f19818403018152908290528051602091820120808352925060008051602061367c833981519152910160405180910390a1600061107f828789611cd2565b6000805461ff001916610100831515021790559050806110b75760405182815260008051602061365c83398151915290602001610ec4565b6000838152600260205260409081902054905160008051602061369c833981519152916110ed9160ff9091169086908990612ec2565b60405180910390a16110ff8386612ccf565b60008b604051602001611112919061353d565b60408051601f198184030181529190528051602090910120600580546000909155909150811415806111ae576040805162461bcd60e51b81526020600482015260248101919091527f4c616d706f7274426173653a20504b48206d617463686573206c61737420757360448201527f656420504b482028757365207365706172617465207365636f6e64206b65792960648201526084016105ee565b6111b960008b612bb6565b505060006005555050505050505050505050565b6006546040516001600160a01b039091169063333f6111908690869086906111f99087906020016134e9565b6040516020818303038152906040526040518563ffffffff1660e01b815260040161122794939291906133b9565b6020604051808303816000875af1158015611246573d6000803e3d6000fd5b505050506040513d601f19601f8201168201806040525081019061126a919061349a565b6112865760405162461bcd60e51b81526004016105ee906134bc565b600d80546001600160a01b0319166001600160a01b0392909216919091179055505050565b600654604080516020808201859052825180830390910181528183019283905263333f611160e01b9092526001600160a01b039092169163333f6111916112fb91889188918891906044016133b9565b6020604051808303816000875af115801561131a573d6000803e3d6000fd5b505050506040513d601f19601f8201168201806040525081019061133e919061349a565b61135a5760405162461bcd60e51b81526004016105ee906134bc565b60408051602081018390520160408051601f19818403018152919052805160209091012060135550505050565b6006546040516001600160a01b039091169063333f6111908690869086906113b39087906020016134e9565b6040516020818303038152906040526040518563ffffffff1660e01b81526004016113e194939291906133b9565b6020604051808303816000875af1158015611400573d6000803e3d6000fd5b505050506040513d601f19601f82011682018060405250810190611424919061349a565b6114405760405162461bcd60e51b81526004016105ee906134bc565b6001600160a01b0381166114a55760405162461bcd60e51b815260206004820152602660248201527f53464320616464726573732063616e6e6f7420626520746865207a65726f206160448201526564647265737360d01b60648201526084016105ee565b600c80546001600160a01b0319166001600160a01b0392909216919091179055505050565b600654604080516020808201859052825180830390910181528183019283905263333f611160e01b9092526001600160a01b039092169163333f61119161151a91889188918891906044016133b9565b6020604051808303816000875af1158015611539573d6000803e3d6000fd5b505050506040513d601f19601f8201168201806040525081019061155d919061349a565b6115795760405162461bcd60e51b81526004016105ee906134bc565b80600e54146115ca5760405162461bcd60e51b815260206004820152601b60248201527f4d69736d6174636865642062617365207265776172642068617368000000000060448201526064016105ee565b60085460405163b6d9edd560e01b8152600481018390526001600160a01b039091169063b6d9edd590602401600060405180830381600087803b15801561161057600080fd5b505af1158015611624573d6000803e3d6000fd5b50506000600e55505050505050565b6006546040805160208101859052808201849052815180820383018152606082019283905263333f611160e01b9092526001600160a01b039092169163333f61119161168891899189918991906064016133b9565b6020604051808303816000875af11580156116a7573d6000803e3d6000fd5b505050506040513d601f19601f820116820180604052508101906116cb919061349a565b6116e75760405162461bcd60e51b81526004016105ee906134bc565b6040805160208082019490945280820192909252805180830382018152606090920190528051910120601155505050565b6006546040516001600160a01b039091169063333f6111908690869086906117449087906020016134e9565b6040516020818303038152906040526040518563ffffffff1660e01b815260040161177294939291906133b9565b6020604051808303816000875af1158015611791573d6000803e3d6000fd5b505050506040513d601f19601f820116820180604052508101906117b5919061349a565b6117d15760405162461bcd60e51b81526004016105ee906134bc565b600b80546001600160a01b0319166001600160a01b0392909216919091179055505050565b6006546040805160208101859052808201849052815180820383018152606082019283905263333f611160e01b9092526001600160a01b039092169163333f61119161184b91899189918991906064016133b9565b6020604051808303816000875af115801561186a573d6000803e3d6000fd5b505050506040513d601f19601f8201168201806040525081019061188e919061349a565b6118aa5760405162461bcd60e51b81526004016105ee906134bc565b6040805160208101849052908101829052606001604051602081830303815290604052805190602001206010541461192e5760405162461bcd60e51b815260206004820152602160248201527f4d69736d6174636865642070656e616c7479207468726573686f6c64206861736044820152600d60fb1b60648201526084016105ee565b600854604051638b1a0d1160e01b815260048101849052602481018390526001600160a01b0390911690638b1a0d1190604401600060405180830381600087803b15801561197b57600080fd5b505af115801561198f573d6000803e3d6000fd5b5050600060105550505050505050565b838284836040516020016119b591815260200190565b60408051601f1981840301815291905260005460ff166119e75760405162461bcd60e51b81526004016105ee90613506565b6000846040516020016119fa919061353d565b60408051601f19818403018152919052805160209091012090506000808281526002602081905260409091205460ff1690811115611a3a57611a3a612e8a565b14611a575760405162461bcd60e51b81526004016105ee90613596565b60008284604051602001611a6c929190613574565b60408051601f19818403018152908290528051602091820120808352925060008051602061367c833981519152910160405180910390a16000611ab0828789611cd2565b6000805461ff00191661010083151502179055905080611ae85760405182815260008051602061365c83398151915290602001610ec4565b6000838152600260205260409081902054905160008051602061369c83398151915291611b1e9160ff9091169086908990612ec2565b60405180910390a1611b308386612ccf565b611b3b600189612bb6565b5050505050505050505050565b600654604080516020808201859052825180830390910181528183019283905263333f611160e01b9092526001600160a01b039092169163333f611191611b9891889188918891906044016133b9565b6020604051808303816000875af1158015611bb7573d6000803e3d6000fd5b505050506040513d601f19601f82011682018060405250810190611bdb919061349a565b611bf75760405162461bcd60e51b81526004016105ee906134bc565b6040805160208101839052016040516020818303038152906040528051906020012060135414611c695760405162461bcd60e51b815260206004820152601c60248201527f4d69736d61746368656420746f74616c20737570706c7920686173680000000060448201526064016105ee565b60085460405163346bdcfb60e01b8152600481018390526001600160a01b039091169063346bdcfb90602401600060405180830381600087803b158015611caf57600080fd5b505af1158015611cc3573d6000803e3d6000fd5b50506000601355505050505050565b6000805b610100811015611d7a5783816101008110611cf357611cf3613303565b602002810190611d0391906135cd565b604051611d1192919061361b565b604051809103902083826101008110611d2c57611d2c613303565b6040020160008360ff036001901b881611611d48576000611d4b565b60015b60ff1660028110611d5e57611d5e613303565b602002013514611d72576000915050611d80565b600101611cd6565b50600190505b9392505050565b60015460609060009067ffffffffffffffff811115611da857611da861303c565b604051908082528060200260200182016040528015611dd1578160200160208202803683370190505b5090506000805b600154811015611e9257846002811115611df457611df4612e8a565b60018281548110611e0757611e07613303565b600091825260209091206002918202015460ff1690811115611e2b57611e2b612e8a565b03611e805760018181548110611e4357611e43613303565b906000526020600020906002020160010154838381518110611e6757611e67613303565b602090810291909101015281611e7c81613319565b9250505b80611e8a81613319565b915050611dd8565b5060008167ffffffffffffffff811115611eae57611eae61303c565b604051908082528060200260200182016040528015611ed7578160200160208202803683370190505b50905060005b82811015611f2e57838181518110611ef757611ef7613303565b6020026020010151828281518110611f1157611f11613303565b602090810291909101015280611f2681613319565b915050611edd565b50949350505050565b6006546040516001600160a01b039091169063333f611190869086908690611f639087906020016134e9565b6040516020818303038152906040526040518563ffffffff1660e01b8152600401611f9194939291906133b9565b6020604051808303816000875af1158015611fb0573d6000803e3d6000fd5b505050506040513d601f19601f82011682018060405250810190611fd4919061349a565b611ff05760405162461bcd60e51b81526004016105ee906134bc565b600d546001600160a01b0382811691161461205f5760405162461bcd60e51b815260206004820152602960248201527f4d69736d617463686564206f776e6572206265747765656e2073746570206f6e6044820152686520616e642074776f60b81b60648201526084016105ee565b60085460405163f2fde38b60e01b81526001600160a01b0383811660048301529091169063f2fde38b90602401600060405180830381600087803b1580156120a657600080fd5b505af11580156120ba573d6000803e3d6000fd5b5050600d80546001600160a01b031916905550506040516001600160a01b038216907f04dba622d284ed0014ee4b9a6a68386be1a4c08a4913ae272de89199cc68616390600090a250505050565b6006546040516001600160a01b039091169063333f6111908690869086906121349087906020016134e9565b6040516020818303038152906040526040518563ffffffff1660e01b815260040161216294939291906133b9565b6020604051808303816000875af1158015612181573d6000803e3d6000fd5b505050506040513d601f19601f820116820180604052508101906121a5919061349a565b6121c15760405162461bcd60e51b81526004016105ee906134bc565b600c546001600160a01b038281169116146122365760405162461bcd60e51b815260206004820152602f60248201527f4d69736d617463686564205346432061646472657373206265747765656e207360448201526e746570206f6e6520616e642074776f60881b60648201526084016105ee565b600880546001600160a01b0383166001600160a01b03199182168117909255600c805490911690556040519081527f337d2e60f33e85c6d188fa86cd3b2acbe8848aeb110b90b8ac65129fc2d05d869060200160405180910390a150505050565b838383836040516020016122ad91815260200190565b60408051601f1981840301815291905260005460ff166122df5760405162461bcd60e51b81526004016105ee90613506565b6000846040516020016122f2919061353d565b60408051601f19818403018152919052805160209091012090506000808281526002602081905260409091205460ff169081111561233257612332612e8a565b1461234f5760405162461bcd60e51b81526004016105ee90613596565b60008284604051602001612364929190613574565b60408051601f19818403018152908290528051602091820120808352925060008051602061367c833981519152910160405180910390a160006123a8828789611cd2565b6000805461ff001916610100831515021790559050806123e05760405182815260008051602061365c83398151915290602001610ec4565b6000838152600260205260409081902054905160008051602061369c833981519152916124169160ff9091169086908990612ec2565b60405180910390a16124288386612ccf565b505050600394909455505050600491909155505050565b8383838360405160200161245591815260200190565b60408051601f1981840301815291905260005460ff166124875760405162461bcd60e51b81526004016105ee90613506565b60008460405160200161249a919061353d565b60408051601f19818403018152919052805160209091012090506000808281526002602081905260409091205460ff16908111156124da576124da612e8a565b146124f75760405162461bcd60e51b81526004016105ee90613596565b6000828460405160200161250c929190613574565b60408051601f19818403018152908290528051602091820120808352925060008051602061367c833981519152910160405180910390a16000612550828789611cd2565b6000805461ff001916610100831515021790559050806125885760405182815260008051602061365c83398151915290602001610ec4565b6000838152600260205260409081902054905160008051602061369c833981519152916125be9160ff9091169086908990612ec2565b60405180910390a16125d08386612ccf565b60008b6040516020016125e3919061353d565b604051602081830303815290604052805190602001209050600454810361267c5760405162461bcd60e51b815260206004820152604160248201527f4c616d706f7274426173653a2043616e6e6f7420757365207468652073616d6560448201527f206b6579636861696e20747769636520666f7220746869732066756e6374696f6064820152603760f91b608482015260a4016105ee565b88600354146126cd5760405162461bcd60e51b815260206004820152601e60248201527f4c616d706f7274426173653a204b65797320646f206e6f74206d61746368000060448201526064016105ee565b600454818a6000808481526002602081905260409091205460ff16908111156126f8576126f8612e8a565b1480156127265750600082815260026020819052604082205460ff169081111561272457612724612e8a565b145b6127895760405162461bcd60e51b815260206004820152602e60248201527f4c616d706f7274426173653a2050726f7669646564206b65797320617265206e60448201526d6f74206d6173746572206b65797360901b60648201526084016105ee565b8281141580156127995750818114155b6127ff5760405162461bcd60e51b815260206004820152603160248201527f4c616d706f7274426173653a204d6173746572206b6579732063616e6e6f742060448201527064656c657465207468656d73656c76657360781b60648201526084016105ee565b600081815260026020526040812060010154900361286b5760405162461bcd60e51b815260206004820152602360248201527f4c616d706f7274426173653a204e6f2073756368206b6579202864656c6574696044820152626f6e2960e81b60648201526084016105ee565b60005b60015481101561295857816001828154811061288c5761288c613303565b9060005260206000209060020201600101540361294657600082815260026020818152604080842080548251428186015244818501528351808203850181526060909101938490528051908501209588905292849052630de1e7ed60e41b85186001820181905560ff198416851790915560ff9092169391927f0643be3612916977c69d5ed1abb75a50cca49df49ba2444d836e2a0cf65fe074916129369186918991879161362b565b60405180910390a1505050612958565b8061295081613319565b91505061286e565b5050600060038190556004555050505050505050505050505050565b6006546040516001600160a01b039091169063333f6111908690869086906129a09087906020016134e9565b6040516020818303038152906040526040518563ffffffff1660e01b81526004016129ce94939291906133b9565b6020604051808303816000875af11580156129ed573d6000803e3d6000fd5b505050506040513d601f19601f82011682018060405250810190612a11919061349a565b612a2d5760405162461bcd60e51b81526004016105ee906134bc565b600b546001600160a01b03828116911614612a8a5760405162461bcd60e51b815260206004820152601a60248201527f4d69736d6174636865642074726561737572794164647265737300000000000060448201526064016105ee565b60085460405163841e456160e01b81526001600160a01b0383811660048301529091169063841e456190602401600060405180830381600087803b158015612ad157600080fd5b505af1158015612ae5573d6000803e3d6000fd5b5050600b80546001600160a01b0319169055505050505050565b600654604080516020808201859052825180830390910181528183019283905263333f611160e01b9092526001600160a01b039092169163333f611191612b4f91889188918891906044016133b9565b6020604051808303816000875af1158015612b6e573d6000803e3d6000fd5b505050506040513d601f19601f82011682018060405250810190612b92919061349a565b612bae5760405162461bcd60e51b81526004016105ee906134bc565b600e55505050565b60006040518060400160405280846002811115612bd557612bd5612e8a565b81526020018390526001805480820182556000829052825160029182027fb10e2d527612073b26eecdfd717e6a320cf44b4afac2b0732d9fcbe2b7fa0cf6018054949550859490939192849260ff1990921691908490811115612c3a57612c3a612e8a565b021790555060209182015160019182015560008481526002928390526040902083518154859492939192849260ff1990921691908490811115612c7f57612c7f612e8a565b0217905550602082015181600101559050507f2172c7b01a6de957d29fd6166a23025d181bf56538ad606a526ab2d62603f3fc8383604051612cc2929190612fa6565b60405180910390a1505050565b6000828152600260205260408120600101549003612cff5760405162461bcd60e51b81526004016105ee906132cc565b604080518082018252600084815260026020819052928120549092829160ff1690811115612d2f57612d2f612e8a565b8152602001838152509050806002600084815260200190815260200160002060008201518160000160006101000a81548160ff02191690836002811115612d7857612d78612e8a565b02179055506020918201516001918201556000858152600290925260408220805460ff19168155018190555b600154811015612e4e578360018281548110612dc257612dc2613303565b90600052602060002090600202016001015403612e3c578160018281548110612ded57612ded613303565b906000526020600020906002020160008201518160000160006101000a81548160ff02191690836002811115612e2557612e25612e8a565b021790555060208201518160010155905050612e4e565b80612e4681613319565b915050612da4565b50805160405160008051602061369c83398151915291612cc29186908690612ec2565b600060208284031215612e8357600080fd5b5035919050565b634e487b7160e01b600052602160045260246000fd5b60038110612ebe57634e487b7160e01b600052602160045260246000fd5b9052565b60608101612ed08286612ea0565b602082019390935260400152919050565b806140008101831015612ef357600080fd5b92915050565b806120008101831015612ef357600080fd5b60008060008060006140808688031215612f2457600080fd5b612f2e8787612ee1565b945061400086013567ffffffffffffffff811115612f4b57600080fd5b612f5788828901612ef9565b959895975050505061402084013593614040810135936140609091013592509050565b600080600060608486031215612f8f57600080fd5b505081359360208301359350604090920135919050565b60408101612fb48285612ea0565b8260208301529392505050565b6000806000806140608587031215612fd857600080fd5b612fe28686612ee1565b935061400085013567ffffffffffffffff811115612fff57600080fd5b61300b87828801612ef9565b93505061402085013591506140408501356001600160a01b038116811461303157600080fd5b939692955090935050565b634e487b7160e01b600052604160045260246000fd5b600080600080614060858703121561306957600080fd5b6130738686612ee1565b935061400085013567ffffffffffffffff8082111561309157600080fd5b61309d88838901612ef9565b945061402087013593506140408701359150808211156130bc57600080fd5b818701915087601f8301126130d057600080fd5b8135818111156130e2576130e261303c565b604051601f8201601f19908116603f0116810190838211818310171561310a5761310a61303c565b816040528281528a602084870101111561312357600080fd5b82602086016020830137600060208483010152809550505050505092959194509250565b600080600080614060858703121561315e57600080fd5b6131688686612ee1565b935061400085013567ffffffffffffffff81111561318557600080fd5b61319187828801612ef9565b9497949650505050614020830135926140400135919050565b60008060008061406085870312156131c157600080fd5b6131cb8686612ee1565b9350614000850135925061402085013567ffffffffffffffff8111156131f057600080fd5b6131fc87828801612ef9565b94979396509394614040013593505050565b6000806000614040848603121561322457600080fd5b83359250602084013567ffffffffffffffff81111561324257600080fd5b61324e86828701612ef9565b92505061325e8560408601612ee1565b90509250925092565b60006020828403121561327957600080fd5b813560038110611d8057600080fd5b6020808252825182820181905260009190848201906040850190845b818110156132c0578351835292840192918401916001016132a4565b50909695505050505050565b60208082526018908201527f4c616d706f7274426173653a204e6f2073756368206b65790000000000000000604082015260600190565b634e487b7160e01b600052603260045260246000fd5b60006001820161333957634e487b7160e01b600052601160045260246000fd5b5060010190565b81835281816020850137506000828201602090810191909152601f909101601f19169091010190565b60005b8381101561338457818101518382015260200161336c565b50506000910152565b600081518084526133a5816020860160208601613369565b601f01601f19169290920160200192915050565b60006140608281018388845b6101008110156133e6576040808385379283019291909101906001016133c5565b50505061400084019190915261606083018660005b6101008110156134725785830361405f190184528135368a9003601e1901811261342457600080fd5b8901602081810191359067ffffffffffffffff82111561344357600080fd5b81360383131561345257600080fd5b61345d868385613340565b968101969550939093019250506001016133fb565b50508561402085015283810361404085015261348e818661338d565b98975050505050505050565b6000602082840312156134ac57600080fd5b81518015158114611d8057600080fd5b60208082526013908201527213585cdd195c8818da1958dac819985a5b1959606a1b604082015260600190565b60609190911b6bffffffffffffffffffffffff1916815260140190565b6020808252601c908201527f4c616d706f7274426173653a206e6f7420696e697469616c697a656400000000604082015260600190565b60008183825b61010081101561356457604080838537928301929190910190600101613543565b5050506140008201905092915050565b60008351613586818460208801613369565b9190910191825250602001919050565b6020808252601d908201527f4c616d706f7274426173653a204e6f742061206d6173746572206b6579000000604082015260600190565b6000808335601e198436030181126135e457600080fd5b83018035915067ffffffffffffffff8211156135ff57600080fd5b60200191503681900382131561361457600080fd5b9250929050565b8183823760009101908152919050565b608081016136398287612ea0565b8460208301528360408301526136526060830184612ea0565b9594505050505056fe32629d580208e19f97e5752eef849e102f803999c88aa7f75e12b1744eecd5a7d87e68f36f73a7eb22739d6639e36cafebfcde0b5543340b39f42cac68fdd1f06825a39bd161f4ef5aab6cfd2c26db3ee0005c11b43cffd544fc876312116edda264697066735822122067e6ab5d591197a91e0edc319df8d115b45d23e0ee49737a4ff36c23bf326bee64736f6c63430008150033",
  "bytecodeSha1": "e96ca0c485401c7058a3df457df519278ff4d86d",
  "compiler": {
    "evm_version": "istanbul",
    "optimizer": {
      "enabled": true,
      "runs": 200
    },
    "version": "0.8.21+commit.d9974bed"
  },
  "contractName": "SFCInterface",
  "language": "Solidity",
  "natspec": {
    "kind": "dev",
    "methods": {},
    "version": 1
  },
  "opcodes": "PUSH1 0x80 PUSH1 0x40 MSTORE CALLVALUE DUP1 ISZERO PUSH2 0x10 JUMPI PUSH1 0x0 DUP1 REVERT JUMPDEST POP PUSH1 0x4 CALLDATASIZE LT PUSH2 0x232 JUMPI PUSH1 0x0 CALLDATALOAD PUSH1 0xE0 SHR DUP1 PUSH4 0x6E82F3A1 GT PUSH2 0x130 JUMPI DUP1 PUSH4 0xAF82F3E7 GT PUSH2 0xB8 JUMPI DUP1 PUSH4 0xD83C413C GT PUSH2 0x7C JUMPI DUP1 PUSH4 0xD83C413C EQ PUSH2 0x510 JUMPI DUP1 PUSH4 0xD86D744E EQ PUSH2 0x523 JUMPI DUP1 PUSH4 0xE673D71F EQ PUSH2 0x536 JUMPI DUP1 PUSH4 0xE9CD4053 EQ PUSH2 0x549 JUMPI DUP1 PUSH4 0xFD9924FB EQ PUSH2 0x55C JUMPI PUSH1 0x0 DUP1 REVERT JUMPDEST DUP1 PUSH4 0xAF82F3E7 EQ PUSH2 0x4AE JUMPI DUP1 PUSH4 0xB97B4F77 EQ PUSH2 0x4C1 JUMPI DUP1 PUSH4 0xC5F530AF EQ PUSH2 0x4E1 JUMPI DUP1 PUSH4 0xD58B135F EQ PUSH2 0x4EA JUMPI DUP1 PUSH4 0xD6393C51 EQ PUSH2 0x4FD JUMPI PUSH1 0x0 DUP1 REVERT JUMPDEST DUP1 PUSH4 0x8992229F GT PUSH2 0xFF JUMPI DUP1 PUSH4 0x8992229F EQ PUSH2 0x435 JUMPI DUP1 PUSH4 0x8DA5CB5B EQ PUSH2 0x448 JUMPI DUP1 PUSH4 0x8EB8F1A6 EQ PUSH2 0x45B JUMPI DUP1 PUSH4 0x93EB25C2 EQ PUSH2 0x46E JUMPI DUP1 PUSH4 0xA9711EE3 EQ PUSH2 0x481 JUMPI PUSH1 0x0 DUP1 REVERT JUMPDEST DUP1 PUSH4 0x6E82F3A1 EQ PUSH2 0x3E9 JUMPI DUP1 PUSH4 0x7507918A EQ PUSH2 0x3FC JUMPI DUP1 PUSH4 0x75A23EE5 EQ PUSH2 0x40F JUMPI DUP1 PUSH4 0x80A713A1 EQ PUSH2 0x422 JUMPI PUSH1 0x0 DUP1 REVERT JUMPDEST DUP1 PUSH4 0x333F6111 GT PUSH2 0x1BE JUMPI DUP1 PUSH4 0x56BF7B57 GT PUSH2 0x182 JUMPI DUP1 PUSH4 0x56BF7B57 EQ PUSH2 0x38A JUMPI DUP1 PUSH4 0x5796841A EQ PUSH2 0x39D JUMPI DUP1 PUSH4 0x5BEFB831 EQ PUSH2 0x3B0 JUMPI DUP1 PUSH4 0x5C81D286 EQ PUSH2 0x3C3 JUMPI DUP1 PUSH4 0x5E12F310 EQ PUSH2 0x3D6 JUMPI PUSH1 0x0 DUP1 REVERT JUMPDEST DUP1 PUSH4 0x333F6111 EQ PUSH2 0x335 JUMPI DUP1 PUSH4 0x499F7D86 EQ PUSH2 0x348 JUMPI DUP1 PUSH4 0x4A89D52B EQ PUSH2 0x35B JUMPI DUP1 PUSH4 0x4BDD4499 EQ PUSH2 0x36E JUMPI DUP1 PUSH4 0x4E657D2A EQ PUSH2 0x377 JUMPI PUSH1 0x0 DUP1 REVERT JUMPDEST DUP1 PUSH4 0x1E4C9450 GT PUSH2 0x205 JUMPI DUP1 PUSH4 0x1E4C9450 EQ PUSH2 0x2AB JUMPI DUP1 PUSH4 0x2265F284 EQ PUSH2 0x2BE JUMPI DUP1 PUSH4 0x24E7D008 EQ PUSH2 0x2D5 JUMPI DUP1 PUSH4 0x29FD50EB EQ PUSH2 0x2E8 JUMPI DUP1 PUSH4 0x2FD5C247 EQ PUSH2 0x313 JUMPI PUSH1 0x0 DUP1 REVERT JUMPDEST DUP1 PUSH4 0x5AACC7D EQ PUSH2 0x237 JUMPI DUP1 PUSH4 0x996EEA1 EQ PUSH2 0x262 JUMPI DUP1 PUSH4 0xB0AD508 EQ PUSH2 0x277 JUMPI DUP1 PUSH4 0xCB6AAF1 EQ PUSH2 0x28A JUMPI JUMPDEST PUSH1 0x0 DUP1 REVERT JUMPDEST PUSH2 0x24A PUSH2 0x245 CALLDATASIZE PUSH1 0x4 PUSH2 0x2E71 JUMP JUMPDEST PUSH2 0x56F JUMP JUMPDEST PUSH1 0x40 MLOAD PUSH2 0x259 SWAP4 SWAP3 SWAP2 SWAP1 PUSH2 0x2EC2 JUMP JUMPDEST PUSH1 0x40 MLOAD DUP1 SWAP2 SUB SWAP1 RETURN JUMPDEST PUSH2 0x275 PUSH2 0x270 CALLDATASIZE PUSH1 0x4 PUSH2 0x2F0B JUMP JUMPDEST PUSH2 0x676 JUMP JUMPDEST STOP JUMPDEST PUSH2 0x275 PUSH2 0x285 CALLDATASIZE PUSH1 0x4 PUSH2 0x2F7A JUMP JUMPDEST PUSH2 0x823 JUMP JUMPDEST PUSH2 0x29D PUSH2 0x298 CALLDATASIZE PUSH1 0x4 PUSH2 0x2E71 JUMP JUMPDEST PUSH2 0x8A9 JUMP JUMPDEST PUSH1 0x40 MLOAD PUSH2 0x259 SWAP3 SWAP2 SWAP1 PUSH2 0x2FA6 JUMP JUMPDEST PUSH2 0x275 PUSH2 0x2B9 CALLDATASIZE PUSH1 0x4 PUSH2 0x2FC1 JUMP JUMPDEST PUSH2 0x8DB JUMP JUMPDEST PUSH2 0x2C7 PUSH1 0x1C SLOAD DUP2 JUMP JUMPDEST PUSH1 0x40 MLOAD SWAP1 DUP2 MSTORE PUSH1 0x20 ADD PUSH2 0x259 JUMP JUMPDEST PUSH2 0x275 PUSH2 0x2E3 CALLDATASIZE PUSH1 0x4 PUSH2 0x2F0B JUMP JUMPDEST PUSH2 0xA85 JUMP JUMPDEST PUSH1 0x1D SLOAD PUSH2 0x2FB SWAP1 PUSH1 0x1 PUSH1 0x1 PUSH1 0xA0 SHL SUB AND DUP2 JUMP JUMPDEST PUSH1 0x40 MLOAD PUSH1 0x1 PUSH1 0x1 PUSH1 0xA0 SHL SUB SWAP1 SWAP2 AND DUP2 MSTORE PUSH1 0x20 ADD PUSH2 0x259 JUMP JUMPDEST PUSH1 0x0 SLOAD PUSH2 0x325 SWAP1 PUSH2 0x100 SWAP1 DIV PUSH1 0xFF AND DUP2 JUMP JUMPDEST PUSH1 0x40 MLOAD SWAP1 ISZERO ISZERO DUP2 MSTORE PUSH1 0x20 ADD PUSH2 0x259 JUMP JUMPDEST PUSH2 0x325 PUSH2 0x343 CALLDATASIZE PUSH1 0x4 PUSH2 0x3052 JUMP JUMPDEST PUSH2 0xB6A JUMP JUMPDEST PUSH2 0x275 PUSH2 0x356 CALLDATASIZE PUSH1 0x4 PUSH2 0x2FC1 JUMP JUMPDEST PUSH2 0xC5B JUMP JUMPDEST PUSH2 0x325 PUSH2 0x369 CALLDATASIZE PUSH1 0x4 PUSH2 0x3052 JUMP JUMPDEST PUSH2 0xD46 JUMP JUMPDEST PUSH2 0x2C7 PUSH1 0x5 SLOAD DUP2 JUMP JUMPDEST PUSH2 0x275 PUSH2 0x385 CALLDATASIZE PUSH1 0x4 PUSH2 0x3052 JUMP JUMPDEST PUSH2 0xD9D JUMP JUMPDEST PUSH1 0x6 SLOAD PUSH2 0x2FB SWAP1 PUSH1 0x1 PUSH1 0x1 PUSH1 0xA0 SHL SUB AND DUP2 JUMP JUMPDEST PUSH2 0x275 PUSH2 0x3AB CALLDATASIZE PUSH1 0x4 PUSH2 0x3147 JUMP JUMPDEST PUSH2 0xF6E JUMP JUMPDEST PUSH2 0x275 PUSH2 0x3BE CALLDATASIZE PUSH1 0x4 PUSH2 0x2FC1 JUMP JUMPDEST PUSH2 0x11CD JUMP JUMPDEST PUSH2 0x275 PUSH2 0x3D1 CALLDATASIZE PUSH1 0x4 PUSH2 0x3147 JUMP JUMPDEST PUSH2 0x12AB JUMP JUMPDEST PUSH2 0x275 PUSH2 0x3E4 CALLDATASIZE PUSH1 0x4 PUSH2 0x2FC1 JUMP JUMPDEST PUSH2 0x1387 JUMP JUMPDEST PUSH2 0x275 PUSH2 0x3F7 CALLDATASIZE PUSH1 0x4 PUSH2 0x3147 JUMP JUMPDEST PUSH2 0x14CA JUMP JUMPDEST PUSH2 0x275 PUSH2 0x40A CALLDATASIZE PUSH1 0x4 PUSH2 0x2F0B JUMP JUMPDEST PUSH2 0x1633 JUMP JUMPDEST PUSH2 0x275 PUSH2 0x41D CALLDATASIZE PUSH1 0x4 PUSH2 0x2FC1 JUMP JUMPDEST PUSH2 0x1718 JUMP JUMPDEST PUSH2 0x275 PUSH2 0x430 CALLDATASIZE PUSH1 0x4 PUSH2 0x2F0B JUMP JUMPDEST PUSH2 0x17F6 JUMP JUMPDEST PUSH1 0x8 SLOAD PUSH2 0x2FB SWAP1 PUSH1 0x1 PUSH1 0x1 PUSH1 0xA0 SHL SUB AND DUP2 JUMP JUMPDEST PUSH1 0x9 SLOAD PUSH2 0x2FB SWAP1 PUSH1 0x1 PUSH1 0x1 PUSH1 0xA0 SHL SUB AND DUP2 JUMP JUMPDEST PUSH2 0x275 PUSH2 0x469 CALLDATASIZE PUSH1 0x4 PUSH2 0x31AA JUMP JUMPDEST PUSH2 0x199F JUMP JUMPDEST PUSH2 0x275 PUSH2 0x47C CALLDATASIZE PUSH1 0x4 PUSH2 0x3147 JUMP JUMPDEST PUSH2 0x1B48 JUMP JUMPDEST PUSH2 0x29D PUSH2 0x48F CALLDATASIZE PUSH1 0x4 PUSH2 0x2E71 JUMP JUMPDEST PUSH1 0x2 PUSH1 0x20 MSTORE PUSH1 0x0 SWAP1 DUP2 MSTORE PUSH1 0x40 SWAP1 KECCAK256 DUP1 SLOAD PUSH1 0x1 SWAP1 SWAP2 ADD SLOAD PUSH1 0xFF SWAP1 SWAP2 AND SWAP1 DUP3 JUMP JUMPDEST PUSH2 0x325 PUSH2 0x4BC CALLDATASIZE PUSH1 0x4 PUSH2 0x320E JUMP JUMPDEST PUSH2 0x1CD2 JUMP JUMPDEST PUSH2 0x4D4 PUSH2 0x4CF CALLDATASIZE PUSH1 0x4 PUSH2 0x3267 JUMP JUMPDEST PUSH2 0x1D87 JUMP JUMPDEST PUSH1 0x40 MLOAD PUSH2 0x259 SWAP2 SWAP1 PUSH2 0x3288 JUMP JUMPDEST PUSH2 0x2C7 PUSH1 0x1B SLOAD DUP2 JUMP JUMPDEST PUSH2 0x275 PUSH2 0x4F8 CALLDATASIZE PUSH1 0x4 PUSH2 0x2FC1 JUMP JUMPDEST PUSH2 0x1F37 JUMP JUMPDEST PUSH2 0x275 PUSH2 0x50B CALLDATASIZE PUSH1 0x4 PUSH2 0x2FC1 JUMP JUMPDEST PUSH2 0x2108 JUMP JUMPDEST PUSH2 0x275 PUSH2 0x51E CALLDATASIZE PUSH1 0x4 PUSH2 0x3147 JUMP JUMPDEST PUSH2 0x2297 JUMP JUMPDEST PUSH1 0x7 SLOAD PUSH2 0x2FB SWAP1 PUSH1 0x1 PUSH1 0x1 PUSH1 0xA0 SHL SUB AND DUP2 JUMP JUMPDEST PUSH2 0x275 PUSH2 0x544 CALLDATASIZE PUSH1 0x4 PUSH2 0x3147 JUMP JUMPDEST PUSH2 0x243F JUMP JUMPDEST PUSH2 0x275 PUSH2 0x557 CALLDATASIZE PUSH1 0x4 PUSH2 0x2FC1 JUMP JUMPDEST PUSH2 0x2974 JUMP JUMPDEST PUSH2 0x275 PUSH2 0x56A CALLDATASIZE PUSH1 0x4 PUSH2 0x3147 JUMP JUMPDEST PUSH2 0x2AFF JUMP JUMPDEST PUSH1 0x0 DUP2 DUP2 MSTORE PUSH1 0x2 PUSH1 0x20 DUP2 SWAP1 MSTORE PUSH1 0x40 DUP1 DUP4 KECCAK256 DUP2 MLOAD DUP1 DUP4 ADD SWAP1 SWAP3 MSTORE DUP1 SLOAD DUP5 SWAP4 DUP5 SWAP4 DUP5 SWAP4 SWAP1 SWAP3 SWAP1 SWAP2 DUP4 SWAP2 PUSH1 0xFF AND SWAP1 DUP2 GT ISZERO PUSH2 0x5A9 JUMPI PUSH2 0x5A9 PUSH2 0x2E8A JUMP JUMPDEST PUSH1 0x2 DUP2 GT ISZERO PUSH2 0x5BA JUMPI PUSH2 0x5BA PUSH2 0x2E8A JUMP JUMPDEST DUP2 MSTORE PUSH1 0x1 SWAP2 SWAP1 SWAP2 ADD SLOAD PUSH1 0x20 SWAP2 DUP3 ADD MSTORE DUP2 ADD MLOAD SWAP1 SWAP2 POP PUSH1 0x0 SUB PUSH2 0x5F7 JUMPI PUSH1 0x40 MLOAD PUSH3 0x461BCD PUSH1 0xE5 SHL DUP2 MSTORE PUSH1 0x4 ADD PUSH2 0x5EE SWAP1 PUSH2 0x32CC JUMP JUMPDEST PUSH1 0x40 MLOAD DUP1 SWAP2 SUB SWAP1 REVERT JUMPDEST PUSH1 0x0 JUMPDEST PUSH1 0x1 SLOAD DUP2 LT ISZERO PUSH2 0x656 JUMPI DUP6 PUSH1 0x1 DUP3 DUP2 SLOAD DUP2 LT PUSH2 0x618 JUMPI PUSH2 0x618 PUSH2 0x3303 JUMP JUMPDEST SWAP1 PUSH1 0x0 MSTORE PUSH1 0x20 PUSH1 0x0 KECCAK256 SWAP1 PUSH1 0x2 MUL ADD PUSH1 0x1 ADD SLOAD SUB PUSH2 0x644 JUMPI DUP2 MLOAD PUSH1 0x20 SWAP1 SWAP3 ADD MLOAD SWAP2 SWAP5 POP SWAP1 SWAP3 POP SWAP1 POP PUSH2 0x66F JUMP JUMPDEST DUP1 PUSH2 0x64E DUP2 PUSH2 0x3319 JUMP JUMPDEST SWAP2 POP POP PUSH2 0x5FA JUMP JUMPDEST POP PUSH1 0x40 MLOAD PUSH3 0x461BCD PUSH1 0xE5 SHL DUP2 MSTORE PUSH1 0x4 ADD PUSH2 0x5EE SWAP1 PUSH2 0x32CC JUMP JUMPDEST SWAP2 SWAP4 SWAP1 SWAP3 POP JUMP JUMPDEST PUSH1 0x6 SLOAD PUSH1 0x40 DUP1 MLOAD PUSH1 0x20 DUP2 ADD DUP6 SWAP1 MSTORE DUP1 DUP3 ADD DUP5 SWAP1 MSTORE DUP2 MLOAD DUP1 DUP3 SUB DUP4 ADD DUP2 MSTORE PUSH1 0x60 DUP3 ADD SWAP3 DUP4 SWAP1 MSTORE PUSH4 0x333F6111 PUSH1 0xE0 SHL SWAP1 SWAP3 MSTORE PUSH1 0x1 PUSH1 0x1 PUSH1 0xA0 SHL SUB SWAP1 SWAP3 AND SWAP2 PUSH4 0x333F6111 SWAP2 PUSH2 0x6CB SWAP2 DUP10 SWAP2 DUP10 SWAP2 DUP10 SWAP2 SWAP1 PUSH1 0x64 ADD PUSH2 0x33B9 JUMP JUMPDEST PUSH1 0x20 PUSH1 0x40 MLOAD DUP1 DUP4 SUB DUP2 PUSH1 0x0 DUP8 GAS CALL ISZERO DUP1 ISZERO PUSH2 0x6EA JUMPI RETURNDATASIZE PUSH1 0x0 DUP1 RETURNDATACOPY RETURNDATASIZE PUSH1 0x0 REVERT JUMPDEST POP POP POP POP PUSH1 0x40 MLOAD RETURNDATASIZE PUSH1 0x1F NOT PUSH1 0x1F DUP3 ADD AND DUP3 ADD DUP1 PUSH1 0x40 MSTORE POP DUP2 ADD SWAP1 PUSH2 0x70E SWAP2 SWAP1 PUSH2 0x349A JUMP JUMPDEST PUSH2 0x72A JUMPI PUSH1 0x40 MLOAD PUSH3 0x461BCD PUSH1 0xE5 SHL DUP2 MSTORE PUSH1 0x4 ADD PUSH2 0x5EE SWAP1 PUSH2 0x34BC JUMP JUMPDEST PUSH1 0x40 DUP1 MLOAD PUSH1 0x20 DUP2 ADD DUP5 SWAP1 MSTORE SWAP1 DUP2 ADD DUP3 SWAP1 MSTORE PUSH1 0x60 ADD PUSH1 0x40 MLOAD PUSH1 0x20 DUP2 DUP4 SUB SUB DUP2 MSTORE SWAP1 PUSH1 0x40 MSTORE DUP1 MLOAD SWAP1 PUSH1 0x20 ADD KECCAK256 PUSH1 0x11 SLOAD EQ PUSH2 0x7B2 JUMPI PUSH1 0x40 MLOAD PUSH3 0x461BCD PUSH1 0xE5 SHL DUP2 MSTORE PUSH1 0x20 PUSH1 0x4 DUP3 ADD MSTORE PUSH1 0x25 PUSH1 0x24 DUP3 ADD MSTORE PUSH32 0x4D69736D61746368656420736C617368696E6720726566756E6420726174696F PUSH1 0x44 DUP3 ADD MSTORE PUSH5 0x40D0C2E6D PUSH1 0xDB SHL PUSH1 0x64 DUP3 ADD MSTORE PUSH1 0x84 ADD PUSH2 0x5EE JUMP JUMPDEST PUSH1 0x8 SLOAD PUSH1 0x40 MLOAD PUSH4 0x4F7C4EFB PUSH1 0xE0 SHL DUP2 MSTORE PUSH1 0x4 DUP2 ADD DUP5 SWAP1 MSTORE PUSH1 0x24 DUP2 ADD DUP4 SWAP1 MSTORE PUSH1 0x1 PUSH1 0x1 PUSH1 0xA0 SHL SUB SWAP1 SWAP2 AND SWAP1 PUSH4 0x4F7C4EFB SWAP1 PUSH1 0x44 ADD PUSH1 0x0 PUSH1 0x40 MLOAD DUP1 DUP4 SUB DUP2 PUSH1 0x0 DUP8 DUP1 EXTCODESIZE ISZERO DUP1 ISZERO PUSH2 0x7FF JUMPI PUSH1 0x0 DUP1 REVERT JUMPDEST POP GAS CALL ISZERO DUP1 ISZERO PUSH2 0x813 JUMPI RETURNDATASIZE PUSH1 0x0 DUP1 RETURNDATACOPY RETURNDATASIZE PUSH1 0x0 REVERT JUMPDEST POP POP PUSH1 0x0 PUSH1 0x11 SSTORE POP POP POP POP POP POP POP JUMP JUMPDEST PUSH1 0x0 SLOAD PUSH1 0xFF AND ISZERO PUSH2 0x876 JUMPI PUSH1 0x40 MLOAD PUSH3 0x461BCD PUSH1 0xE5 SHL DUP2 MSTORE PUSH1 0x20 PUSH1 0x4 DUP3 ADD DUP2 SWAP1 MSTORE PUSH1 0x24 DUP3 ADD MSTORE PUSH32 0x4C616D706F7274426173653A20416C726561647920696E697469616C697A6564 PUSH1 0x44 DUP3 ADD MSTORE PUSH1 0x64 ADD PUSH2 0x5EE JUMP JUMPDEST PUSH2 0x881 PUSH1 0x0 DUP5 PUSH2 0x2BB6 JUMP JUMPDEST PUSH2 0x88C PUSH1 0x0 DUP4 PUSH2 0x2BB6 JUMP JUMPDEST PUSH2 0x897 PUSH1 0x1 DUP3 PUSH2 0x2BB6 JUMP JUMPDEST POP POP PUSH1 0x0 DUP1 SLOAD PUSH1 0xFF NOT AND PUSH1 0x1 OR SWAP1 SSTORE POP JUMP JUMPDEST PUSH1 0x1 DUP2 DUP2 SLOAD DUP2 LT PUSH2 0x8B9 JUMPI PUSH1 0x0 DUP1 REVERT JUMPDEST PUSH1 0x0 SWAP2 DUP3 MSTORE PUSH1 0x20 SWAP1 SWAP2 KECCAK256 PUSH1 0x2 SWAP1 SWAP2 MUL ADD DUP1 SLOAD PUSH1 0x1 SWAP1 SWAP2 ADD SLOAD PUSH1 0xFF SWAP1 SWAP2 AND SWAP2 POP DUP3 JUMP JUMPDEST PUSH1 0x6 SLOAD PUSH1 0x40 MLOAD PUSH1 0x1 PUSH1 0x1 PUSH1 0xA0 SHL SUB SWAP1 SWAP2 AND SWAP1 PUSH4 0x333F6111 SWAP1 DUP7 SWAP1 DUP7 SWAP1 DUP7 SWAP1 PUSH2 0x907 SWAP1 DUP8 SWAP1 PUSH1 0x20 ADD PUSH2 0x34E9 JUMP JUMPDEST PUSH1 0x40 MLOAD PUSH1 0x20 DUP2 DUP4 SUB SUB DUP2 MSTORE SWAP1 PUSH1 0x40 MSTORE PUSH1 0x40 MLOAD DUP6 PUSH4 0xFFFFFFFF AND PUSH1 0xE0 SHL DUP2 MSTORE PUSH1 0x4 ADD PUSH2 0x935 SWAP5 SWAP4 SWAP3 SWAP2 SWAP1 PUSH2 0x33B9 JUMP JUMPDEST PUSH1 0x20 PUSH1 0x40 MLOAD DUP1 DUP4 SUB DUP2 PUSH1 0x0 DUP8 GAS CALL ISZERO DUP1 ISZERO PUSH2 0x954 JUMPI RETURNDATASIZE PUSH1 0x0 DUP1 RETURNDATACOPY RETURNDATASIZE PUSH1 0x0 REVERT JUMPDEST POP POP POP POP PUSH1 0x40 MLOAD RETURNDATASIZE PUSH1 0x1F NOT PUSH1 0x1F DUP3 ADD AND DUP3 ADD DUP1 PUSH1 0x40 MSTORE POP DUP2 ADD SWAP1 PUSH2 0x978 SWAP2 SWAP1 PUSH2 0x349A JUMP JUMPDEST PUSH2 0x994 JUMPI PUSH1 0x40 MLOAD PUSH3 0x461BCD PUSH1 0xE5 SHL DUP2 MSTORE PUSH1 0x4 ADD PUSH2 0x5EE SWAP1 PUSH2 0x34BC JUMP JUMPDEST DUP1 PUSH1 0x40 MLOAD PUSH1 0x20 ADD PUSH2 0x9A5 SWAP2 SWAP1 PUSH2 0x34E9 JUMP JUMPDEST PUSH1 0x40 MLOAD PUSH1 0x20 DUP2 DUP4 SUB SUB DUP2 MSTORE SWAP1 PUSH1 0x40 MSTORE DUP1 MLOAD SWAP1 PUSH1 0x20 ADD KECCAK256 PUSH1 0x12 SLOAD EQ PUSH2 0xA1B JUMPI PUSH1 0x40 MLOAD PUSH3 0x461BCD PUSH1 0xE5 SHL DUP2 MSTORE PUSH1 0x20 PUSH1 0x4 DUP3 ADD MSTORE PUSH1 0x27 PUSH1 0x24 DUP3 ADD MSTORE PUSH32 0x4D69736D617463686564207374616B6520746F6B656E697A6572206164647265 PUSH1 0x44 DUP3 ADD MSTORE PUSH7 0xE6E640D0C2E6D PUSH1 0xCB SHL PUSH1 0x64 DUP3 ADD MSTORE PUSH1 0x84 ADD PUSH2 0x5EE JUMP JUMPDEST PUSH1 0x8 SLOAD PUSH1 0x40 MLOAD PUSH4 0x28BDB9AF PUSH1 0xE2 SHL DUP2 MSTORE PUSH1 0x1 PUSH1 0x1 PUSH1 0xA0 SHL SUB DUP4 DUP2 AND PUSH1 0x4 DUP4 ADD MSTORE SWAP1 SWAP2 AND SWAP1 PUSH4 0xA2F6E6BC SWAP1 PUSH1 0x24 ADD PUSH1 0x0 PUSH1 0x40 MLOAD DUP1 DUP4 SUB DUP2 PUSH1 0x0 DUP8 DUP1 EXTCODESIZE ISZERO DUP1 ISZERO PUSH2 0xA62 JUMPI PUSH1 0x0 DUP1 REVERT JUMPDEST POP GAS CALL ISZERO DUP1 ISZERO PUSH2 0xA76 JUMPI RETURNDATASIZE PUSH1 0x0 DUP1 RETURNDATACOPY RETURNDATASIZE PUSH1 0x0 REVERT JUMPDEST POP POP PUSH1 0x0 PUSH1 0x12 SSTORE POP POP POP POP POP POP JUMP JUMPDEST PUSH1 0x6 SLOAD PUSH1 0x40 DUP1 MLOAD PUSH1 0x20 DUP2 ADD DUP6 SWAP1 MSTORE DUP1 DUP3 ADD DUP5 SWAP1 MSTORE DUP2 MLOAD DUP1 DUP3 SUB DUP4 ADD DUP2 MSTORE PUSH1 0x60 DUP3 ADD SWAP3 DUP4 SWAP1 MSTORE PUSH4 0x333F6111 PUSH1 0xE0 SHL SWAP1 SWAP3 MSTORE PUSH1 0x1 PUSH1 0x1 PUSH1 0xA0 SHL SUB SWAP1 SWAP3 AND SWAP2 PUSH4 0x333F6111 SWAP2 PUSH2 0xADA SWAP2 DUP10 SWAP2 DUP10 SWAP2 DUP10 SWAP2 SWAP1 PUSH1 0x64 ADD PUSH2 0x33B9 JUMP JUMPDEST PUSH1 0x20 PUSH1 0x40 MLOAD DUP1 DUP4 SUB DUP2 PUSH1 0x0 DUP8 GAS CALL ISZERO DUP1 ISZERO PUSH2 0xAF9 JUMPI RETURNDATASIZE PUSH1 0x0 DUP1 RETURNDATACOPY RETURNDATASIZE PUSH1 0x0 REVERT JUMPDEST POP POP POP POP PUSH1 0x40 MLOAD RETURNDATASIZE PUSH1 0x1F NOT PUSH1 0x1F DUP3 ADD AND DUP3 ADD DUP1 PUSH1 0x40 MSTORE POP DUP2 ADD SWAP1 PUSH2 0xB1D SWAP2 SWAP1 PUSH2 0x349A JUMP JUMPDEST PUSH2 0xB39 JUMPI PUSH1 0x40 MLOAD PUSH3 0x461BCD PUSH1 0xE5 SHL DUP2 MSTORE PUSH1 0x4 ADD PUSH2 0x5EE SWAP1 PUSH2 0x34BC JUMP JUMPDEST PUSH1 0x40 DUP1 MLOAD PUSH1 0x20 DUP1 DUP3 ADD SWAP5 SWAP1 SWAP5 MSTORE DUP1 DUP3 ADD SWAP3 SWAP1 SWAP3 MSTORE DUP1 MLOAD DUP1 DUP4 SUB DUP3 ADD DUP2 MSTORE PUSH1 0x60 SWAP1 SWAP3 ADD SWAP1 MSTORE DUP1 MLOAD SWAP2 ADD KECCAK256 PUSH1 0x10 SSTORE POP POP POP JUMP JUMPDEST PUSH1 0x0 DUP1 SLOAD PUSH1 0xFF AND PUSH2 0xB8D JUMPI PUSH1 0x40 MLOAD PUSH3 0x461BCD PUSH1 0xE5 SHL DUP2 MSTORE PUSH1 0x4 ADD PUSH2 0x5EE SWAP1 PUSH2 0x3506 JUMP JUMPDEST PUSH1 0x0 DUP6 PUSH1 0x40 MLOAD PUSH1 0x20 ADD PUSH2 0xBA0 SWAP2 SWAP1 PUSH2 0x353D JUMP JUMPDEST PUSH1 0x40 DUP1 MLOAD PUSH1 0x1F NOT DUP2 DUP5 SUB ADD DUP2 MSTORE SWAP2 SWAP1 MSTORE DUP1 MLOAD PUSH1 0x20 SWAP1 SWAP2 ADD KECCAK256 SWAP1 POP PUSH1 0x0 JUMPDEST PUSH1 0x0 DUP3 DUP2 MSTORE PUSH1 0x2 PUSH1 0x20 DUP2 SWAP1 MSTORE PUSH1 0x40 SWAP1 SWAP2 KECCAK256 SLOAD PUSH1 0xFF AND SWAP1 DUP2 GT ISZERO PUSH2 0xBE2 JUMPI PUSH2 0xBE2 PUSH2 0x2E8A JUMP JUMPDEST EQ PUSH2 0xBF1 JUMPI PUSH1 0x0 SWAP2 POP POP PUSH2 0xC53 JUMP JUMPDEST PUSH1 0x0 DUP4 DUP6 PUSH1 0x40 MLOAD PUSH1 0x20 ADD PUSH2 0xC06 SWAP3 SWAP2 SWAP1 PUSH2 0x3574 JUMP JUMPDEST PUSH1 0x40 MLOAD PUSH1 0x20 DUP2 DUP4 SUB SUB DUP2 MSTORE SWAP1 PUSH1 0x40 MSTORE DUP1 MLOAD SWAP1 PUSH1 0x20 ADD KECCAK256 PUSH1 0x0 SHR SWAP1 POP PUSH1 0x0 PUSH2 0xC2E DUP3 DUP9 DUP11 PUSH2 0x1CD2 JUMP JUMPDEST SWAP1 POP DUP1 PUSH2 0xC41 JUMPI PUSH1 0x0 SWAP4 POP POP POP POP PUSH2 0xC53 JUMP JUMPDEST PUSH2 0xC4B DUP4 DUP8 PUSH2 0x2CCF JUMP JUMPDEST PUSH1 0x1 SWAP4 POP POP POP POP JUMPDEST SWAP5 SWAP4 POP POP POP POP JUMP JUMPDEST PUSH1 0x6 SLOAD PUSH1 0x40 MLOAD PUSH1 0x1 PUSH1 0x1 PUSH1 0xA0 SHL SUB SWAP1 SWAP2 AND SWAP1 PUSH4 0x333F6111 SWAP1 DUP7 SWAP1 DUP7 SWAP1 DUP7 SWAP1 PUSH2 0xC87 SWAP1 DUP8 SWAP1 PUSH1 0x20 ADD PUSH2 0x34E9 JUMP JUMPDEST PUSH1 0x40 MLOAD PUSH1 0x20 DUP2 DUP4 SUB SUB DUP2 MSTORE SWAP1 PUSH1 0x40 MSTORE PUSH1 0x40 MLOAD DUP6 PUSH4 0xFFFFFFFF AND PUSH1 0xE0 SHL DUP2 MSTORE PUSH1 0x4 ADD PUSH2 0xCB5 SWAP5 SWAP4 SWAP3 SWAP2 SWAP1 PUSH2 0x33B9 JUMP JUMPDEST PUSH1 0x20 PUSH1 0x40 MLOAD DUP1 DUP4 SUB DUP2 PUSH1 0x0 DUP8 GAS CALL ISZERO DUP1 ISZERO PUSH2 0xCD4 JUMPI RETURNDATASIZE PUSH1 0x0 DUP1 RETURNDATACOPY RETURNDATASIZE PUSH1 0x0 REVERT JUMPDEST POP POP POP POP PUSH1 0x40 MLOAD RETURNDATASIZE PUSH1 0x1F NOT PUSH1 0x1F DUP3 ADD AND DUP3 ADD DUP1 PUSH1 0x40 MSTORE POP DUP2 ADD SWAP1 PUSH2 0xCF8 SWAP2 SWAP1 PUSH2 0x349A JUMP JUMPDEST PUSH2 0xD14 JUMPI PUSH1 0x40 MLOAD PUSH3 0x461BCD PUSH1 0xE5 SHL DUP2 MSTORE PUSH1 0x4 ADD PUSH2 0x5EE SWAP1 PUSH2 0x34BC JUMP JUMPDEST DUP1 PUSH1 0x40 MLOAD PUSH1 0x20 ADD PUSH2 0xD25 SWAP2 SWAP1 PUSH2 0x34E9 JUMP JUMPDEST PUSH1 0x40 DUP1 MLOAD PUSH1 0x1F NOT DUP2 DUP5 SUB ADD DUP2 MSTORE SWAP2 SWAP1 MSTORE DUP1 MLOAD PUSH1 0x20 SWAP1 SWAP2 ADD KECCAK256 PUSH1 0x12 SSTORE POP POP POP POP JUMP JUMPDEST PUSH1 0x0 DUP1 SLOAD PUSH1 0xFF AND PUSH2 0xD69 JUMPI PUSH1 0x40 MLOAD PUSH3 0x461BCD PUSH1 0xE5 SHL DUP2 MSTORE PUSH1 0x4 ADD PUSH2 0x5EE SWAP1 PUSH2 0x3506 JUMP JUMPDEST PUSH1 0x0 DUP6 PUSH1 0x40 MLOAD PUSH1 0x20 ADD PUSH2 0xD7C SWAP2 SWAP1 PUSH2 0x353D JUMP JUMPDEST PUSH1 0x40 DUP1 MLOAD PUSH1 0x1F NOT DUP2 DUP5 SUB ADD DUP2 MSTORE SWAP2 SWAP1 MSTORE DUP1 MLOAD PUSH1 0x20 SWAP1 SWAP2 ADD KECCAK256 SWAP1 POP PUSH1 0x1 PUSH2 0xBBD JUMP JUMPDEST PUSH1 0x0 SLOAD DUP5 SWAP1 DUP5 SWAP1 DUP5 SWAP1 DUP5 SWAP1 PUSH1 0xFF AND PUSH2 0xDC7 JUMPI PUSH1 0x40 MLOAD PUSH3 0x461BCD PUSH1 0xE5 SHL DUP2 MSTORE PUSH1 0x4 ADD PUSH2 0x5EE SWAP1 PUSH2 0x3506 JUMP JUMPDEST PUSH1 0x0 DUP5 PUSH1 0x40 MLOAD PUSH1 0x20 ADD PUSH2 0xDDA SWAP2 SWAP1 PUSH2 0x353D JUMP JUMPDEST PUSH1 0x40 DUP1 MLOAD PUSH1 0x1F NOT DUP2 DUP5 SUB ADD DUP2 MSTORE SWAP2 SWAP1 MSTORE DUP1 MLOAD PUSH1 0x20 SWAP1 SWAP2 ADD KECCAK256 SWAP1 POP PUSH1 0x0 DUP1 DUP3 DUP2 MSTORE PUSH1 0x2 PUSH1 0x20 DUP2 SWAP1 MSTORE PUSH1 0x40 SWAP1 SWAP2 KECCAK256 SLOAD PUSH1 0xFF AND SWAP1 DUP2 GT ISZERO PUSH2 0xE1A JUMPI PUSH2 0xE1A PUSH2 0x2E8A JUMP JUMPDEST EQ PUSH2 0xE37 JUMPI PUSH1 0x40 MLOAD PUSH3 0x461BCD PUSH1 0xE5 SHL DUP2 MSTORE PUSH1 0x4 ADD PUSH2 0x5EE SWAP1 PUSH2 0x3596 JUMP JUMPDEST PUSH1 0x0 DUP3 DUP5 PUSH1 0x40 MLOAD PUSH1 0x20 ADD PUSH2 0xE4C SWAP3 SWAP2 SWAP1 PUSH2 0x3574 JUMP JUMPDEST PUSH1 0x40 DUP1 MLOAD PUSH1 0x1F NOT DUP2 DUP5 SUB ADD DUP2 MSTORE SWAP1 DUP3 SWAP1 MSTORE DUP1 MLOAD PUSH1 0x20 SWAP2 DUP3 ADD KECCAK256 DUP1 DUP4 MSTORE SWAP3 POP PUSH1 0x0 DUP1 MLOAD PUSH1 0x20 PUSH2 0x367C DUP4 CODECOPY DUP2 MLOAD SWAP2 MSTORE SWAP2 ADD PUSH1 0x40 MLOAD DUP1 SWAP2 SUB SWAP1 LOG1 PUSH1 0x0 PUSH2 0xE90 DUP3 DUP8 DUP10 PUSH2 0x1CD2 JUMP JUMPDEST PUSH1 0x0 DUP1 SLOAD PUSH2 0xFF00 NOT AND PUSH2 0x100 DUP4 ISZERO ISZERO MUL OR SWAP1 SSTORE SWAP1 POP DUP1 PUSH2 0xF14 JUMPI PUSH1 0x40 MLOAD DUP3 DUP2 MSTORE PUSH1 0x0 DUP1 MLOAD PUSH1 0x20 PUSH2 0x365C DUP4 CODECOPY DUP2 MLOAD SWAP2 MSTORE SWAP1 PUSH1 0x20 ADD JUMPDEST PUSH1 0x40 MLOAD DUP1 SWAP2 SUB SWAP1 LOG1 PUSH1 0x40 MLOAD PUSH3 0x461BCD PUSH1 0xE5 SHL DUP2 MSTORE PUSH1 0x20 PUSH1 0x4 DUP3 ADD DUP2 SWAP1 MSTORE PUSH1 0x24 DUP3 ADD MSTORE PUSH32 0x4C616D706F7274426173653A20566572696669636174696F6E206661696C6564 PUSH1 0x44 DUP3 ADD MSTORE PUSH1 0x64 ADD PUSH2 0x5EE JUMP JUMPDEST PUSH1 0x0 DUP4 DUP2 MSTORE PUSH1 0x2 PUSH1 0x20 MSTORE PUSH1 0x40 SWAP1 DUP2 SWAP1 KECCAK256 SLOAD SWAP1 MLOAD PUSH1 0x0 DUP1 MLOAD PUSH1 0x20 PUSH2 0x369C DUP4 CODECOPY DUP2 MLOAD SWAP2 MSTORE SWAP2 PUSH2 0xF4A SWAP2 PUSH1 0xFF SWAP1 SWAP2 AND SWAP1 DUP7 SWAP1 DUP10 SWAP1 PUSH2 0x2EC2 JUMP JUMPDEST PUSH1 0x40 MLOAD DUP1 SWAP2 SUB SWAP1 LOG1 PUSH2 0xF5C DUP4 DUP7 PUSH2 0x2CCF JUMP JUMPDEST POP POP POP PUSH1 0x5 SWAP6 SWAP1 SWAP6 SSTORE POP POP POP POP POP POP POP JUMP JUMPDEST DUP4 DUP4 DUP4 DUP4 PUSH1 0x40 MLOAD PUSH1 0x20 ADD PUSH2 0xF84 SWAP2 DUP2 MSTORE PUSH1 0x20 ADD SWAP1 JUMP JUMPDEST PUSH1 0x40 DUP1 MLOAD PUSH1 0x1F NOT DUP2 DUP5 SUB ADD DUP2 MSTORE SWAP2 SWAP1 MSTORE PUSH1 0x0 SLOAD PUSH1 0xFF AND PUSH2 0xFB6 JUMPI PUSH1 0x40 MLOAD PUSH3 0x461BCD PUSH1 0xE5 SHL DUP2 MSTORE PUSH1 0x4 ADD PUSH2 0x5EE SWAP1 PUSH2 0x3506 JUMP JUMPDEST PUSH1 0x0 DUP5 PUSH1 0x40 MLOAD PUSH1 0x20 ADD PUSH2 0xFC9 SWAP2 SWAP1 PUSH2 0x353D JUMP JUMPDEST PUSH1 0x40 DUP1 MLOAD PUSH1 0x1F NOT DUP2 DUP5 SUB ADD DUP2 MSTORE SWAP2 SWAP1 MSTORE DUP1 MLOAD PUSH1 0x20 SWAP1 SWAP2 ADD KECCAK256 SWAP1 POP PUSH1 0x0 DUP1 DUP3 DUP2 MSTORE PUSH1 0x2 PUSH1 0x20 DUP2 SWAP1 MSTORE PUSH1 0x40 SWAP1 SWAP2 KECCAK256 SLOAD PUSH1 0xFF AND SWAP1 DUP2 GT ISZERO PUSH2 0x1009 JUMPI PUSH2 0x1009 PUSH2 0x2E8A JUMP JUMPDEST EQ PUSH2 0x1026 JUMPI PUSH1 0x40 MLOAD PUSH3 0x461BCD PUSH1 0xE5 SHL DUP2 MSTORE PUSH1 0x4 ADD PUSH2 0x5EE SWAP1 PUSH2 0x3596 JUMP JUMPDEST PUSH1 0x0 DUP3 DUP5 PUSH1 0x40 MLOAD PUSH1 0x20 ADD PUSH2 0x103B SWAP3 SWAP2 SWAP1 PUSH2 0x3574 JUMP JUMPDEST PUSH1 0x40 DUP1 MLOAD PUSH1 0x1F NOT DUP2 DUP5 SUB ADD DUP2 MSTORE SWAP1 DUP3 SWAP1 MSTORE DUP1 MLOAD PUSH1 0x20 SWAP2 DUP3 ADD KECCAK256 DUP1 DUP4 MSTORE SWAP3 POP PUSH1 0x0 DUP1 MLOAD PUSH1 0x20 PUSH2 0x367C DUP4 CODECOPY DUP2 MLOAD SWAP2 MSTORE SWAP2 ADD PUSH1 0x40 MLOAD DUP1 SWAP2 SUB SWAP1 LOG1 PUSH1 0x0 PUSH2 0x107F DUP3 DUP8 DUP10 PUSH2 0x1CD2 JUMP JUMPDEST PUSH1 0x0 DUP1 SLOAD PUSH2 0xFF00 NOT AND PUSH2 0x100 DUP4 ISZERO ISZERO MUL OR SWAP1 SSTORE SWAP1 POP DUP1 PUSH2 0x10B7 JUMPI PUSH1 0x40 MLOAD DUP3 DUP2 MSTORE PUSH1 0x0 DUP1 MLOAD PUSH1 0x20 PUSH2 0x365C DUP4 CODECOPY DUP2 MLOAD SWAP2 MSTORE SWAP1 PUSH1 0x20 ADD PUSH2 0xEC4 JUMP JUMPDEST PUSH1 0x0 DUP4 DUP2 MSTORE PUSH1 0x2 PUSH1 0x20 MSTORE PUSH1 0x40 SWAP1 DUP2 SWAP1 KECCAK256 SLOAD SWAP1 MLOAD PUSH1 0x0 DUP1 MLOAD PUSH1 0x20 PUSH2 0x369C DUP4 CODECOPY DUP2 MLOAD SWAP2 MSTORE SWAP2 PUSH2 0x10ED SWAP2 PUSH1 0xFF SWAP1 SWAP2 AND SWAP1 DUP7 SWAP1 DUP10 SWAP1 PUSH2 0x2EC2 JUMP JUMPDEST PUSH1 0x40 MLOAD DUP1 SWAP2 SUB SWAP1 LOG1 PUSH2 0x10FF DUP4 DUP7 PUSH2 0x2CCF JUMP JUMPDEST PUSH1 0x0 DUP12 PUSH1 0x40 MLOAD PUSH1 0x20 ADD PUSH2 0x1112 SWAP2 SWAP1 PUSH2 0x353D JUMP JUMPDEST PUSH1 0x40 DUP1 MLOAD PUSH1 0x1F NOT DUP2 DUP5 SUB ADD DUP2 MSTORE SWAP2 SWAP1 MSTORE DUP1 MLOAD PUSH1 0x20 SWAP1 SWAP2 ADD KECCAK256 PUSH1 0x5 DUP1 SLOAD PUSH1 0x0 SWAP1 SWAP2 SSTORE SWAP1 SWAP2 POP DUP2 EQ ISZERO DUP1 PUSH2 0x11AE JUMPI PUSH1 0x40 DUP1 MLOAD PUSH3 0x461BCD PUSH1 0xE5 SHL DUP2 MSTORE PUSH1 0x20 PUSH1 0x4 DUP3 ADD MSTORE PUSH1 0x24 DUP2 ADD SWAP2 SWAP1 SWAP2 MSTORE PUSH32 0x4C616D706F7274426173653A20504B48206D617463686573206C617374207573 PUSH1 0x44 DUP3 ADD MSTORE PUSH32 0x656420504B482028757365207365706172617465207365636F6E64206B657929 PUSH1 0x64 DUP3 ADD MSTORE PUSH1 0x84 ADD PUSH2 0x5EE JUMP JUMPDEST PUSH2 0x11B9 PUSH1 0x0 DUP12 PUSH2 0x2BB6 JUMP JUMPDEST POP POP PUSH1 0x0 PUSH1 0x5 SSTORE POP POP POP POP POP POP POP POP POP POP POP JUMP JUMPDEST PUSH1 0x6 SLOAD PUSH1 0x40 MLOAD PUSH1 0x1 PUSH1 0x1 PUSH1 0xA0 SHL SUB SWAP1 SWAP2 AND SWAP1 PUSH4 0x333F6111 SWAP1 DUP7 SWAP1 DUP7 SWAP1 DUP7 SWAP1 PUSH2 0x11F9 SWAP1 DUP8 SWAP1 PUSH1 0x20 ADD PUSH2 0x34E9 JUMP JUMPDEST PUSH1 0x40 MLOAD PUSH1 0x20 DUP2 DUP4 SUB SUB DUP2 MSTORE SWAP1 PUSH1 0x40 MSTORE PUSH1 0x40 MLOAD DUP6 PUSH4 0xFFFFFFFF AND PUSH1 0xE0 SHL DUP2 MSTORE PUSH1 0x4 ADD PUSH2 0x1227 SWAP5 SWAP4 SWAP3 SWAP2 SWAP1 PUSH2 0x33B9 JUMP JUMPDEST PUSH1 0x20 PUSH1 0x40 MLOAD DUP1 DUP4 SUB DUP2 PUSH1 0x0 DUP8 GAS CALL ISZERO DUP1 ISZERO PUSH2 0x1246 JUMPI RETURNDATASIZE PUSH1 0x0 DUP1 RETURNDATACOPY RETURNDATASIZE PUSH1 0x0 REVERT JUMPDEST POP POP POP POP PUSH1 0x40 MLOAD RETURNDATASIZE PUSH1 0x1F NOT PUSH1 0x1F DUP3 ADD AND DUP3 ADD DUP1 PUSH1 0x40 MSTORE POP DUP2 ADD SWAP1 PUSH2 0x126A SWAP2 SWAP1 PUSH2 0x349A JUMP JUMPDEST PUSH2 0x1286 JUMPI PUSH1 0x40 MLOAD PUSH3 0x461BCD PUSH1 0xE5 SHL DUP2 MSTORE PUSH1 0x4 ADD PUSH2 0x5EE SWAP1 PUSH2 0x34BC JUMP JUMPDEST PUSH1 0xD DUP1 SLOAD PUSH1 0x1 PUSH1 0x1 PUSH1 0xA0 SHL SUB NOT AND PUSH1 0x1 PUSH1 0x1 PUSH1 0xA0 SHL SUB SWAP3 SWAP1 SWAP3 AND SWAP2 SWAP1 SWAP2 OR SWAP1 SSTORE POP POP POP JUMP JUMPDEST PUSH1 0x6 SLOAD PUSH1 0x40 DUP1 MLOAD PUSH1 0x20 DUP1 DUP3 ADD DUP6 SWAP1 MSTORE DUP3 MLOAD DUP1 DUP4 SUB SWAP1 SWAP2 ADD DUP2 MSTORE DUP2 DUP4 ADD SWAP3 DUP4 SWAP1 MSTORE PUSH4 0x333F6111 PUSH1 0xE0 SHL SWAP1 SWAP3 MSTORE PUSH1 0x1 PUSH1 0x1 PUSH1 0xA0 SHL SUB SWAP1 SWAP3 AND SWAP2 PUSH4 0x333F6111 SWAP2 PUSH2 0x12FB SWAP2 DUP9 SWAP2 DUP9 SWAP2 DUP9 SWAP2 SWAP1 PUSH1 0x44 ADD PUSH2 0x33B9 JUMP JUMPDEST PUSH1 0x20 PUSH1 0x40 MLOAD DUP1 DUP4 SUB DUP2 PUSH1 0x0 DUP8 GAS CALL ISZERO DUP1 ISZERO PUSH2 0x131A JUMPI RETURNDATASIZE PUSH1 0x0 DUP1 RETURNDATACOPY RETURNDATASIZE PUSH1 0x0 REVERT JUMPDEST POP POP POP POP PUSH1 0x40 MLOAD RETURNDATASIZE PUSH1 0x1F NOT PUSH1 0x1F DUP3 ADD AND DUP3 ADD DUP1 PUSH1 0x40 MSTORE POP DUP2 ADD SWAP1 PUSH2 0x133E SWAP2 SWAP1 PUSH2 0x349A JUMP JUMPDEST PUSH2 0x135A JUMPI PUSH1 0x40 MLOAD PUSH3 0x461BCD PUSH1 0xE5 SHL DUP2 MSTORE PUSH1 0x4 ADD PUSH2 0x5EE SWAP1 PUSH2 0x34BC JUMP JUMPDEST PUSH1 0x40 DUP1 MLOAD PUSH1 0x20 DUP2 ADD DUP4 SWAP1 MSTORE ADD PUSH1 0x40 DUP1 MLOAD PUSH1 0x1F NOT DUP2 DUP5 SUB ADD DUP2 MSTORE SWAP2 SWAP1 MSTORE DUP1 MLOAD PUSH1 0x20 SWAP1 SWAP2 ADD KECCAK256 PUSH1 0x13 SSTORE POP POP POP POP JUMP JUMPDEST PUSH1 0x6 SLOAD PUSH1 0x40 MLOAD PUSH1 0x1 PUSH1 0x1 PUSH1 0xA0 SHL SUB SWAP1 SWAP2 AND SWAP1 PUSH4 0x333F6111 SWAP1 DUP7 SWAP1 DUP7 SWAP1 DUP7 SWAP1 PUSH2 0x13B3 SWAP1 DUP8 SWAP1 PUSH1 0x20 ADD PUSH2 0x34E9 JUMP JUMPDEST PUSH1 0x40 MLOAD PUSH1 0x20 DUP2 DUP4 SUB SUB DUP2 MSTORE SWAP1 PUSH1 0x40 MSTORE PUSH1 0x40 MLOAD DUP6 PUSH4 0xFFFFFFFF AND PUSH1 0xE0 SHL DUP2 MSTORE PUSH1 0x4 ADD PUSH2 0x13E1 SWAP5 SWAP4 SWAP3 SWAP2 SWAP1 PUSH2 0x33B9 JUMP JUMPDEST PUSH1 0x20 PUSH1 0x40 MLOAD DUP1 DUP4 SUB DUP2 PUSH1 0x0 DUP8 GAS CALL ISZERO DUP1 ISZERO PUSH2 0x1400 JUMPI RETURNDATASIZE PUSH1 0x0 DUP1 RETURNDATACOPY RETURNDATASIZE PUSH1 0x0 REVERT JUMPDEST POP POP POP POP PUSH1 0x40 MLOAD RETURNDATASIZE PUSH1 0x1F NOT PUSH1 0x1F DUP3 ADD AND DUP3 ADD DUP1 PUSH1 0x40 MSTORE POP DUP2 ADD SWAP1 PUSH2 0x1424 SWAP2 SWAP1 PUSH2 0x349A JUMP JUMPDEST PUSH2 0x1440 JUMPI PUSH1 0x40 MLOAD PUSH3 0x461BCD PUSH1 0xE5 SHL DUP2 MSTORE PUSH1 0x4 ADD PUSH2 0x5EE SWAP1 PUSH2 0x34BC JUMP JUMPDEST PUSH1 0x1 PUSH1 0x1 PUSH1 0xA0 SHL SUB DUP2 AND PUSH2 0x14A5 JUMPI PUSH1 0x40 MLOAD PUSH3 0x461BCD PUSH1 0xE5 SHL DUP2 MSTORE PUSH1 0x20 PUSH1 0x4 DUP3 ADD MSTORE PUSH1 0x26 PUSH1 0x24 DUP3 ADD MSTORE PUSH32 0x53464320616464726573732063616E6E6F7420626520746865207A65726F2061 PUSH1 0x44 DUP3 ADD MSTORE PUSH6 0x646472657373 PUSH1 0xD0 SHL PUSH1 0x64 DUP3 ADD MSTORE PUSH1 0x84 ADD PUSH2 0x5EE JUMP JUMPDEST PUSH1 0xC DUP1 SLOAD PUSH1 0x1 PUSH1 0x1 PUSH1 0xA0 SHL SUB NOT AND PUSH1 0x1 PUSH1 0x1 PUSH1 0xA0 SHL SUB SWAP3 SWAP1 SWAP3 AND SWAP2 SWAP1 SWAP2 OR SWAP1 SSTORE POP POP POP JUMP JUMPDEST PUSH1 0x6 SLOAD PUSH1 0x40 DUP1 MLOAD PUSH1 0x20 DUP1 DUP3 ADD DUP6 SWAP1 MSTORE DUP3 MLOAD DUP1 DUP4 SUB SWAP1 SWAP2 ADD DUP2 MSTORE DUP2 DUP4 ADD SWAP3 DUP4 SWAP1 MSTORE PUSH4 0x333F6111 PUSH1 0xE0 SHL SWAP1 SWAP3 MSTORE PUSH1 0x1 PUSH1 0x1 PUSH1 0xA0 SHL SUB SWAP1 SWAP3 AND SWAP2 PUSH4 0x333F6111 SWAP2 PUSH2 0x151A SWAP2 DUP9 SWAP2 DUP9 SWAP2 DUP9 SWAP2 SWAP1 PUSH1 0x44 ADD PUSH2 0x33B9 JUMP JUMPDEST PUSH1 0x20 PUSH1 0x40 MLOAD DUP1 DUP4 SUB DUP2 PUSH1 0x0 DUP8 GAS CALL ISZERO DUP1 ISZERO PUSH2 0x1539 JUMPI RETURNDATASIZE PUSH1 0x0 DUP1 RETURNDATACOPY RETURNDATASIZE PUSH1 0x0 REVERT JUMPDEST POP POP POP POP PUSH1 0x40 MLOAD RETURNDATASIZE PUSH1 0x1F NOT PUSH1 0x1F DUP3 ADD AND DUP3 ADD DUP1 PUSH1 0x40 MSTORE POP DUP2 ADD SWAP1 PUSH2 0x155D SWAP2 SWAP1 PUSH2 0x349A JUMP JUMPDEST PUSH2 0x1579 JUMPI PUSH1 0x40 MLOAD PUSH3 0x461BCD PUSH1 0xE5 SHL DUP2 MSTORE PUSH1 0x4 ADD PUSH2 0x5EE SWAP1 PUSH2 0x34BC JUMP JUMPDEST DUP1 PUSH1 0xE SLOAD EQ PUSH2 0x15CA JUMPI PUSH1 0x40 MLOAD PUSH3 0x461BCD PUSH1 0xE5 SHL DUP2 MSTORE PUSH1 0x20 PUSH1 0x4 DUP3 ADD MSTORE PUSH1 0x1B PUSH1 0x24 DUP3 ADD MSTORE PUSH32 0x4D69736D61746368656420626173652072657761726420686173680000000000 PUSH1 0x44 DUP3 ADD MSTORE PUSH1 0x64 ADD PUSH2 0x5EE JUMP JUMPDEST PUSH1 0x8 SLOAD PUSH1 0x40 MLOAD PUSH4 0xB6D9EDD5 PUSH1 0xE0 SHL DUP2 MSTORE PUSH1 0x4 DUP2 ADD DUP4 SWAP1 MSTORE PUSH1 0x1 PUSH1 0x1 PUSH1 0xA0 SHL SUB SWAP1 SWAP2 AND SWAP1 PUSH4 0xB6D9EDD5 SWAP1 PUSH1 0x24 ADD PUSH1 0x0 PUSH1 0x40 MLOAD DUP1 DUP4 SUB DUP2 PUSH1 0x0 DUP8 DUP1 EXTCODESIZE ISZERO DUP1 ISZERO PUSH2 0x1610 JUMPI PUSH1 0x0 DUP1 REVERT JUMPDEST POP GAS CALL ISZERO DUP1 ISZERO PUSH2 0x1624 JUMPI RETURNDATASIZE PUSH1 0x0 DUP1 RETURNDATACOPY RETURNDATASIZE PUSH1 0x0 REVERT JUMPDEST POP POP PUSH1 0x0 PUSH1 0xE SSTORE POP POP POP POP POP POP JUMP JUMPDEST PUSH1 0x6 SLOAD PUSH1 0x40 DUP1 MLOAD PUSH1 0x20 DUP2 ADD DUP6 SWAP1 MSTORE DUP1 DUP3 ADD DUP5 SWAP1 MSTORE DUP2 MLOAD DUP1 DUP3 SUB DUP4 ADD DUP2 MSTORE PUSH1 0x60 DUP3 ADD SWAP3 DUP4 SWAP1 MSTORE PUSH4 0x333F6111 PUSH1 0xE0 SHL SWAP1 SWAP3 MSTORE PUSH1 0x1 PUSH1 0x1 PUSH1 0xA0 SHL SUB SWAP1 SWAP3 AND SWAP2 PUSH4 0x333F6111 SWAP2 PUSH2 0x1688 SWAP2 DUP10 SWAP2 DUP10 SWAP2 DUP10 SWAP2 SWAP1 PUSH1 0x64 ADD PUSH2 0x33B9 JUMP JUMPDEST PUSH1 0x20 PUSH1 0x40 MLOAD DUP1 DUP4 SUB DUP2 PUSH1 0x0 DUP8 GAS CALL ISZERO DUP1 ISZERO PUSH2 0x16A7 JUMPI RETURNDATASIZE PUSH1 0x0 DUP1 RETURNDATACOPY RETURNDATASIZE PUSH1 0x0 REVERT JUMPDEST POP POP POP POP PUSH1 0x40 MLOAD RETURNDATASIZE PUSH1 0x1F NOT PUSH1 0x1F DUP3 ADD AND DUP3 ADD DUP1 PUSH1 0x40 MSTORE POP DUP2 ADD SWAP1 PUSH2 0x16CB SWAP2 SWAP1 PUSH2 0x349A JUMP JUMPDEST PUSH2 0x16E7 JUMPI PUSH1 0x40 MLOAD PUSH3 0x461BCD PUSH1 0xE5 SHL DUP2 MSTORE PUSH1 0x4 ADD PUSH2 0x5EE SWAP1 PUSH2 0x34BC JUMP JUMPDEST PUSH1 0x40 DUP1 MLOAD PUSH1 0x20 DUP1 DUP3 ADD SWAP5 SWAP1 SWAP5 MSTORE DUP1 DUP3 ADD SWAP3 SWAP1 SWAP3 MSTORE DUP1 MLOAD DUP1 DUP4 SUB DUP3 ADD DUP2 MSTORE PUSH1 0x60 SWAP1 SWAP3 ADD SWAP1 MSTORE DUP1 MLOAD SWAP2 ADD KECCAK256 PUSH1 0x11 SSTORE POP POP POP JUMP JUMPDEST PUSH1 0x6 SLOAD PUSH1 0x40 MLOAD PUSH1 0x1 PUSH1 0x1 PUSH1 0xA0 SHL SUB SWAP1 SWAP2 AND SWAP1 PUSH4 0x333F6111 SWAP1 DUP7 SWAP1 DUP7 SWAP1 DUP7 SWAP1 PUSH2 0x1744 SWAP1 DUP8 SWAP1 PUSH1 0x20 ADD PUSH2 0x34E9 JUMP JUMPDEST PUSH1 0x40 MLOAD PUSH1 0x20 DUP2 DUP4 SUB SUB DUP2 MSTORE SWAP1 PUSH1 0x40 MSTORE PUSH1 0x40 MLOAD DUP6 PUSH4 0xFFFFFFFF AND PUSH1 0xE0 SHL DUP2 MSTORE PUSH1 0x4 ADD PUSH2 0x1772 SWAP5 SWAP4 SWAP3 SWAP2 SWAP1 PUSH2 0x33B9 JUMP JUMPDEST PUSH1 0x20 PUSH1 0x40 MLOAD DUP1 DUP4 SUB DUP2 PUSH1 0x0 DUP8 GAS CALL ISZERO DUP1 ISZERO PUSH2 0x1791 JUMPI RETURNDATASIZE PUSH1 0x0 DUP1 RETURNDATACOPY RETURNDATASIZE PUSH1 0x0 REVERT JUMPDEST POP POP POP POP PUSH1 0x40 MLOAD RETURNDATASIZE PUSH1 0x1F NOT PUSH1 0x1F DUP3 ADD AND DUP3 ADD DUP1 PUSH1 0x40 MSTORE POP DUP2 ADD SWAP1 PUSH2 0x17B5 SWAP2 SWAP1 PUSH2 0x349A JUMP JUMPDEST PUSH2 0x17D1 JUMPI PUSH1 0x40 MLOAD PUSH3 0x461BCD PUSH1 0xE5 SHL DUP2 MSTORE PUSH1 0x4 ADD PUSH2 0x5EE SWAP1 PUSH2 0x34BC JUMP JUMPDEST PUSH1 0xB DUP1 SLOAD PUSH1 0x1 PUSH1 0x1 PUSH1 0xA0 SHL SUB NOT AND PUSH1 0x1 PUSH1 0x1 PUSH1 0xA0 SHL SUB SWAP3 SWAP1 SWAP3 AND SWAP2 SWAP1 SWAP2 OR SWAP1 SSTORE POP POP POP JUMP JUMPDEST PUSH1 0x6 SLOAD PUSH1 0x40 DUP1 MLOAD PUSH1 0x20 DUP2 ADD DUP6 SWAP1 MSTORE DUP1 DUP3 ADD DUP5 SWAP1 MSTORE DUP2 MLOAD DUP1 DUP3 SUB DUP4 ADD DUP2 MSTORE PUSH1 0x60 DUP3 ADD SWAP3 DUP4 SWAP1 MSTORE PUSH4 0x333F6111 PUSH1 0xE0 SHL SWAP1 SWAP3 MSTORE PUSH1 0x1 PUSH1 0x1 PUSH1 0xA0 SHL SUB SWAP1 SWAP3 AND SWAP2 PUSH4 0x333F6111 SWAP2 PUSH2 0x184B SWAP2 DUP10 SWAP2 DUP10 SWAP2 DUP10 SWAP2 SWAP1 PUSH1 0x64 ADD PUSH2 0x33B9 JUMP JUMPDEST PUSH1 0x20 PUSH1 0x40 MLOAD DUP1 DUP4 SUB DUP2 PUSH1 0x0 DUP8 GAS CALL ISZERO DUP1 ISZERO PUSH2 0x186A JUMPI RETURNDATASIZE PUSH1 0x0 DUP1 RETURNDATACOPY RETURNDATASIZE PUSH1 0x0 REVERT JUMPDEST POP POP POP POP PUSH1 0x40 MLOAD RETURNDATASIZE PUSH1 0x1F NOT PUSH1 0x1F DUP3 ADD AND DUP3 ADD DUP1 PUSH1 0x40 MSTORE POP DUP2 ADD SWAP1 PUSH2 0x188E SWAP2 SWAP1 PUSH2 0x349A JUMP JUMPDEST PUSH2 0x18AA JUMPI PUSH1 0x40 MLOAD PUSH3 0x461BCD PUSH1 0xE5 SHL DUP2 MSTORE PUSH1 0x4 ADD PUSH2 0x5EE SWAP1 PUSH2 0x34BC JUMP JUMPDEST PUSH1 0x40 DUP1 MLOAD PUSH1 0x20 DUP2 ADD DUP5 SWAP1 MSTORE SWAP1 DUP2 ADD DUP3 SWAP1 MSTORE PUSH1 0x60 ADD PUSH1 0x40 MLOAD PUSH1 0x20 DUP2 DUP4 SUB SUB DUP2 MSTORE SWAP1 PUSH1 0x40 MSTORE DUP1 MLOAD SWAP1 PUSH1 0x20 ADD KECCAK256 PUSH1 0x10 SLOAD EQ PUSH2 0x192E JUMPI PUSH1 0x40 MLOAD PUSH3 0x461BCD PUSH1 0xE5 SHL DUP2 MSTORE PUSH1 0x20 PUSH1 0x4 DUP3 ADD MSTORE PUSH1 0x21 PUSH1 0x24 DUP3 ADD MSTORE PUSH32 0x4D69736D6174636865642070656E616C7479207468726573686F6C6420686173 PUSH1 0x44 DUP3 ADD MSTORE PUSH1 0xD PUSH1 0xFB SHL PUSH1 0x64 DUP3 ADD MSTORE PUSH1 0x84 ADD PUSH2 0x5EE JUMP JUMPDEST PUSH1 0x8 SLOAD PUSH1 0x40 MLOAD PUSH4 0x8B1A0D11 PUSH1 0xE0 SHL DUP2 MSTORE PUSH1 0x4 DUP2 ADD DUP5 SWAP1 MSTORE PUSH1 0x24 DUP2 ADD DUP4 SWAP1 MSTORE PUSH1 0x1 PUSH1 0x1 PUSH1 0xA0 SHL SUB SWAP1 SWAP2 AND SWAP1 PUSH4 0x8B1A0D11 SWAP1 PUSH1 0x44 ADD PUSH1 0x0 PUSH1 0x40 MLOAD DUP1 DUP4 SUB DUP2 PUSH1 0x0 DUP8 DUP1 EXTCODESIZE ISZERO DUP1 ISZERO PUSH2 0x197B JUMPI PUSH1 0x0 DUP1 REVERT JUMPDEST POP GAS CALL ISZERO DUP1 ISZERO PUSH2 0x198F JUMPI RETURNDATASIZE PUSH1 0x0 DUP1 RETURNDATACOPY RETURNDATASIZE PUSH1 0x0 REVERT JUMPDEST POP POP PUSH1 0x0 PUSH1 0x10 SSTORE POP POP POP POP POP POP POP JUMP JUMPDEST DUP4 DUP3 DUP5 DUP4 PUSH1 0x40 MLOAD PUSH1 0x20 ADD PUSH2 0x19B5 SWAP2 DUP2 MSTORE PUSH1 0x20 ADD SWAP1 JUMP JUMPDEST PUSH1 0x40 DUP1 MLOAD PUSH1 0x1F NOT DUP2 DUP5 SUB ADD DUP2 MSTORE SWAP2 SWAP1 MSTORE PUSH1 0x0 SLOAD PUSH1 0xFF AND PUSH2 0x19E7 JUMPI PUSH1 0x40 MLOAD PUSH3 0x461BCD PUSH1 0xE5 SHL DUP2 MSTORE PUSH1 0x4 ADD PUSH2 0x5EE SWAP1 PUSH2 0x3506 JUMP JUMPDEST PUSH1 0x0 DUP5 PUSH1 0x40 MLOAD PUSH1 0x20 ADD PUSH2 0x19FA SWAP2 SWAP1 PUSH2 0x353D JUMP JUMPDEST PUSH1 0x40 DUP1 MLOAD PUSH1 0x1F NOT DUP2 DUP5 SUB ADD DUP2 MSTORE SWAP2 SWAP1 MSTORE DUP1 MLOAD PUSH1 0x20 SWAP1 SWAP2 ADD KECCAK256 SWAP1 POP PUSH1 0x0 DUP1 DUP3 DUP2 MSTORE PUSH1 0x2 PUSH1 0x20 DUP2 SWAP1 MSTORE PUSH1 0x40 SWAP1 SWAP2 KECCAK256 SLOAD PUSH1 0xFF AND SWAP1 DUP2 GT ISZERO PUSH2 0x1A3A JUMPI PUSH2 0x1A3A PUSH2 0x2E8A JUMP JUMPDEST EQ PUSH2 0x1A57 JUMPI PUSH1 0x40 MLOAD PUSH3 0x461BCD PUSH1 0xE5 SHL DUP2 MSTORE PUSH1 0x4 ADD PUSH2 0x5EE SWAP1 PUSH2 0x3596 JUMP JUMPDEST PUSH1 0x0 DUP3 DUP5 PUSH1 0x40 MLOAD PUSH1 0x20 ADD PUSH2 0x1A6C SWAP3 SWAP2 SWAP1 PUSH2 0x3574 JUMP JUMPDEST PUSH1 0x40 DUP1 MLOAD PUSH1 0x1F NOT DUP2 DUP5 SUB ADD DUP2 MSTORE SWAP1 DUP3 SWAP1 MSTORE DUP1 MLOAD PUSH1 0x20 SWAP2 DUP3 ADD KECCAK256 DUP1 DUP4 MSTORE SWAP3 POP PUSH1 0x0 DUP1 MLOAD PUSH1 0x20 PUSH2 0x367C DUP4 CODECOPY DUP2 MLOAD SWAP2 MSTORE SWAP2 ADD PUSH1 0x40 MLOAD DUP1 SWAP2 SUB SWAP1 LOG1 PUSH1 0x0 PUSH2 0x1AB0 DUP3 DUP8 DUP10 PUSH2 0x1CD2 JUMP JUMPDEST PUSH1 0x0 DUP1 SLOAD PUSH2 0xFF00 NOT AND PUSH2 0x100 DUP4 ISZERO ISZERO MUL OR SWAP1 SSTORE SWAP1 POP DUP1 PUSH2 0x1AE8 JUMPI PUSH1 0x40 MLOAD DUP3 DUP2 MSTORE PUSH1 0x0 DUP1 MLOAD PUSH1 0x20 PUSH2 0x365C DUP4 CODECOPY DUP2 MLOAD SWAP2 MSTORE SWAP1 PUSH1 0x20 ADD PUSH2 0xEC4 JUMP JUMPDEST PUSH1 0x0 DUP4 DUP2 MSTORE PUSH1 0x2 PUSH1 0x20 MSTORE PUSH1 0x40 SWAP1 DUP2 SWAP1 KECCAK256 SLOAD SWAP1 MLOAD PUSH1 0x0 DUP1 MLOAD PUSH1 0x20 PUSH2 0x369C DUP4 CODECOPY DUP2 MLOAD SWAP2 MSTORE SWAP2 PUSH2 0x1B1E SWAP2 PUSH1 0xFF SWAP1 SWAP2 AND SWAP1 DUP7 SWAP1 DUP10 SWAP1 PUSH2 0x2EC2 JUMP JUMPDEST PUSH1 0x40 MLOAD DUP1 SWAP2 SUB SWAP1 LOG1 PUSH2 0x1B30 DUP4 DUP7 PUSH2 0x2CCF JUMP JUMPDEST PUSH2 0x1B3B PUSH1 0x1 DUP10 PUSH2 0x2BB6 JUMP JUMPDEST POP POP POP POP POP POP POP POP POP POP POP JUMP JUMPDEST PUSH1 0x6 SLOAD PUSH1 0x40 DUP1 MLOAD PUSH1 0x20 DUP1 DUP3 ADD DUP6 SWAP1 MSTORE DUP3 MLOAD DUP1 DUP4 SUB SWAP1 SWAP2 ADD DUP2 MSTORE DUP2 DUP4 ADD SWAP3 DUP4 SWAP1 MSTORE PUSH4 0x333F6111 PUSH1 0xE0 SHL SWAP1 SWAP3 MSTORE PUSH1 0x1 PUSH1 0x1 PUSH1 0xA0 SHL SUB SWAP1 SWAP3 AND SWAP2 PUSH4 0x333F6111 SWAP2 PUSH2 0x1B98 SWAP2 DUP9 SWAP2 DUP9 SWAP2 DUP9 SWAP2 SWAP1 PUSH1 0x44 ADD PUSH2 0x33B9 JUMP JUMPDEST PUSH1 0x20 PUSH1 0x40 MLOAD DUP1 DUP4 SUB DUP2 PUSH1 0x0 DUP8 GAS CALL ISZERO DUP1 ISZERO PUSH2 0x1BB7 JUMPI RETURNDATASIZE PUSH1 0x0 DUP1 RETURNDATACOPY RETURNDATASIZE PUSH1 0x0 REVERT JUMPDEST POP POP POP POP PUSH1 0x40 MLOAD RETURNDATASIZE PUSH1 0x1F NOT PUSH1 0x1F DUP3 ADD AND DUP3 ADD DUP1 PUSH1 0x40 MSTORE POP DUP2 ADD SWAP1 PUSH2 0x1BDB SWAP2 SWAP1 PUSH2 0x349A JUMP JUMPDEST PUSH2 0x1BF7 JUMPI PUSH1 0x40 MLOAD PUSH3 0x461BCD PUSH1 0xE5 SHL DUP2 MSTORE PUSH1 0x4 ADD PUSH2 0x5EE SWAP1 PUSH2 0x34BC JUMP JUMPDEST PUSH1 0x40 DUP1 MLOAD PUSH1 0x20 DUP2 ADD DUP4 SWAP1 MSTORE ADD PUSH1 0x40 MLOAD PUSH1 0x20 DUP2 DUP4 SUB SUB DUP2 MSTORE SWAP1 PUSH1 0x40 MSTORE DUP1 MLOAD SWAP1 PUSH1 0x20 ADD KECCAK256 PUSH1 0x13 SLOAD EQ PUSH2 0x1C69 JUMPI PUSH1 0x40 MLOAD PUSH3 0x461BCD PUSH1 0xE5 SHL DUP2 MSTORE PUSH1 0x20 PUSH1 0x4 DUP3 ADD MSTORE PUSH1 0x1C PUSH1 0x24 DUP3 ADD MSTORE PUSH32 0x4D69736D61746368656420746F74616C20737570706C79206861736800000000 PUSH1 0x44 DUP3 ADD MSTORE PUSH1 0x64 ADD PUSH2 0x5EE JUMP JUMPDEST PUSH1 0x8 SLOAD PUSH1 0x40 MLOAD PUSH4 0x346BDCFB PUSH1 0xE0 SHL DUP2 MSTORE PUSH1 0x4 DUP2 ADD DUP4 SWAP1 MSTORE PUSH1 0x1 PUSH1 0x1 PUSH1 0xA0 SHL SUB SWAP1 SWAP2 AND SWAP1 PUSH4 0x346BDCFB SWAP1 PUSH1 0x24 ADD PUSH1 0x0 PUSH1 0x40 MLOAD DUP1 DUP4 SUB DUP2 PUSH1 0x0 DUP8 DUP1 EXTCODESIZE ISZERO DUP1 ISZERO PUSH2 0x1CAF JUMPI PUSH1 0x0 DUP1 REVERT JUMPDEST POP GAS CALL ISZERO DUP1 ISZERO PUSH2 0x1CC3 JUMPI RETURNDATASIZE PUSH1 0x0 DUP1 RETURNDATACOPY RETURNDATASIZE PUSH1 0x0 REVERT JUMPDEST POP POP PUSH1 0x0 PUSH1 0x13 SSTORE POP POP POP POP POP POP JUMP JUMPDEST PUSH1 0x0 DUP1 JUMPDEST PUSH2 0x100 DUP2 LT ISZERO PUSH2 0x1D7A JUMPI DUP4 DUP2 PUSH2 0x100 DUP2 LT PUSH2 0x1CF3 JUMPI PUSH2 0x1CF3 PUSH2 0x3303 JUMP JUMPDEST PUSH1 0x20 MUL DUP2 ADD SWAP1 PUSH2 0x1D03 SWAP2 SWAP1 PUSH2 0x35CD JUMP JUMPDEST PUSH1 0x40 MLOAD PUSH2 0x1D11 SWAP3 SWAP2 SWAP1 PUSH2 0x361B JUMP JUMPDEST PUSH1 0x40 MLOAD DUP1 SWAP2 SUB SWAP1 KECCAK256 DUP4 DUP3 PUSH2 0x100 DUP2 LT PUSH2 0x1D2C JUMPI PUSH2 0x1D2C PUSH2 0x3303 JUMP JUMPDEST PUSH1 0x40 MUL ADD PUSH1 0x0 DUP4 PUSH1 0xFF SUB PUSH1 0x1 SWAP1 SHL DUP9 AND GT PUSH2 0x1D48 JUMPI PUSH1 0x0 PUSH2 0x1D4B JUMP JUMPDEST PUSH1 0x1 JUMPDEST PUSH1 0xFF AND PUSH1 0x2 DUP2 LT PUSH2 0x1D5E JUMPI PUSH2 0x1D5E PUSH2 0x3303 JUMP JUMPDEST PUSH1 0x20 MUL ADD CALLDATALOAD EQ PUSH2 0x1D72 JUMPI PUSH1 0x0 SWAP2 POP POP PUSH2 0x1D80 JUMP JUMPDEST PUSH1 0x1 ADD PUSH2 0x1CD6 JUMP JUMPDEST POP PUSH1 0x1 SWAP1 POP JUMPDEST SWAP4 SWAP3 POP POP POP JUMP JUMPDEST PUSH1 0x1 SLOAD PUSH1 0x60 SWAP1 PUSH1 0x0 SWAP1 PUSH8 0xFFFFFFFFFFFFFFFF DUP2 GT ISZERO PUSH2 0x1DA8 JUMPI PUSH2 0x1DA8 PUSH2 0x303C JUMP JUMPDEST PUSH1 0x40 MLOAD SWAP1 DUP1 DUP3 MSTORE DUP1 PUSH1 0x20 MUL PUSH1 0x20 ADD DUP3 ADD PUSH1 0x40 MSTORE DUP1 ISZERO PUSH2 0x1DD1 JUMPI DUP2 PUSH1 0x20 ADD PUSH1 0x20 DUP3 MUL DUP1 CALLDATASIZE DUP4 CALLDATACOPY ADD SWAP1 POP JUMPDEST POP SWAP1 POP PUSH1 0x0 DUP1 JUMPDEST PUSH1 0x1 SLOAD DUP2 LT ISZERO PUSH2 0x1E92 JUMPI DUP5 PUSH1 0x2 DUP2 GT ISZERO PUSH2 0x1DF4 JUMPI PUSH2 0x1DF4 PUSH2 0x2E8A JUMP JUMPDEST PUSH1 0x1 DUP3 DUP2 SLOAD DUP2 LT PUSH2 0x1E07 JUMPI PUSH2 0x1E07 PUSH2 0x3303 JUMP JUMPDEST PUSH1 0x0 SWAP2 DUP3 MSTORE PUSH1 0x20 SWAP1 SWAP2 KECCAK256 PUSH1 0x2 SWAP2 DUP3 MUL ADD SLOAD PUSH1 0xFF AND SWAP1 DUP2 GT ISZERO PUSH2 0x1E2B JUMPI PUSH2 0x1E2B PUSH2 0x2E8A JUMP JUMPDEST SUB PUSH2 0x1E80 JUMPI PUSH1 0x1 DUP2 DUP2 SLOAD DUP2 LT PUSH2 0x1E43 JUMPI PUSH2 0x1E43 PUSH2 0x3303 JUMP JUMPDEST SWAP1 PUSH1 0x0 MSTORE PUSH1 0x20 PUSH1 0x0 KECCAK256 SWAP1 PUSH1 0x2 MUL ADD PUSH1 0x1 ADD SLOAD DUP4 DUP4 DUP2 MLOAD DUP2 LT PUSH2 0x1E67 JUMPI PUSH2 0x1E67 PUSH2 0x3303 JUMP JUMPDEST PUSH1 0x20 SWAP1 DUP2 MUL SWAP2 SWAP1 SWAP2 ADD ADD MSTORE DUP2 PUSH2 0x1E7C DUP2 PUSH2 0x3319 JUMP JUMPDEST SWAP3 POP POP JUMPDEST DUP1 PUSH2 0x1E8A DUP2 PUSH2 0x3319 JUMP JUMPDEST SWAP2 POP POP PUSH2 0x1DD8 JUMP JUMPDEST POP PUSH1 0x0 DUP2 PUSH8 0xFFFFFFFFFFFFFFFF DUP2 GT ISZERO PUSH2 0x1EAE JUMPI PUSH2 0x1EAE PUSH2 0x303C JUMP JUMPDEST PUSH1 0x40 MLOAD SWAP1 DUP1 DUP3 MSTORE DUP1 PUSH1 0x20 MUL PUSH1 0x20 ADD DUP3 ADD PUSH1 0x40 MSTORE DUP1 ISZERO PUSH2 0x1ED7 JUMPI DUP2 PUSH1 0x20 ADD PUSH1 0x20 DUP3 MUL DUP1 CALLDATASIZE DUP4 CALLDATACOPY ADD SWAP1 POP JUMPDEST POP SWAP1 POP PUSH1 0x0 JUMPDEST DUP3 DUP2 LT ISZERO PUSH2 0x1F2E JUMPI DUP4 DUP2 DUP2 MLOAD DUP2 LT PUSH2 0x1EF7 JUMPI PUSH2 0x1EF7 PUSH2 0x3303 JUMP JUMPDEST PUSH1 0x20 MUL PUSH1 0x20 ADD ADD MLOAD DUP3 DUP3 DUP2 MLOAD DUP2 LT PUSH2 0x1F11 JUMPI PUSH2 0x1F11 PUSH2 0x3303 JUMP JUMPDEST PUSH1 0x20 SWAP1 DUP2 MUL SWAP2 SWAP1 SWAP2 ADD ADD MSTORE DUP1 PUSH2 0x1F26 DUP2 PUSH2 0x3319 JUMP JUMPDEST SWAP2 POP POP PUSH2 0x1EDD JUMP JUMPDEST POP SWAP5 SWAP4 POP POP POP POP JUMP JUMPDEST PUSH1 0x6 SLOAD PUSH1 0x40 MLOAD PUSH1 0x1 PUSH1 0x1 PUSH1 0xA0 SHL SUB SWAP1 SWAP2 AND SWAP1 PUSH4 0x333F6111 SWAP1 DUP7 SWAP1 DUP7 SWAP1 DUP7 SWAP1 PUSH2 0x1F63 SWAP1 DUP8 SWAP1 PUSH1 0x20 ADD PUSH2 0x34E9 JUMP JUMPDEST PUSH1 0x40 MLOAD PUSH1 0x20 DUP2 DUP4 SUB SUB DUP2 MSTORE SWAP1 PUSH1 0x40 MSTORE PUSH1 0x40 MLOAD DUP6 PUSH4 0xFFFFFFFF AND PUSH1 0xE0 SHL DUP2 MSTORE PUSH1 0x4 ADD PUSH2 0x1F91 SWAP5 SWAP4 SWAP3 SWAP2 SWAP1 PUSH2 0x33B9 JUMP JUMPDEST PUSH1 0x20 PUSH1 0x40 MLOAD DUP1 DUP4 SUB DUP2 PUSH1 0x0 DUP8 GAS CALL ISZERO DUP1 ISZERO PUSH2 0x1FB0 JUMPI RETURNDATASIZE PUSH1 0x0 DUP1 RETURNDATACOPY RETURNDATASIZE PUSH1 0x0 REVERT JUMPDEST POP POP POP POP PUSH1 0x40 MLOAD RETURNDATASIZE PUSH1 0x1F NOT PUSH1 0x1F DUP3 ADD AND DUP3 ADD DUP1 PUSH1 0x40 MSTORE POP DUP2 ADD SWAP1 PUSH2 0x1FD4 SWAP2 SWAP1 PUSH2 0x349A JUMP JUMPDEST PUSH2 0x1FF0 JUMPI PUSH1 0x40 MLOAD PUSH3 0x461BCD PUSH1 0xE5 SHL DUP2 MSTORE PUSH1 0x4 ADD PUSH2 0x5EE SWAP1 PUSH2 0x34BC JUMP JUMPDEST PUSH1 0xD SLOAD PUSH1 0x1 PUSH1 0x1 PUSH1 0xA0 SHL SUB DUP3 DUP2 AND SWAP2 AND EQ PUSH2 0x205F JUMPI PUSH1 0x40 MLOAD PUSH3 0x461BCD PUSH1 0xE5 SHL DUP2 MSTORE PUSH1 0x20 PUSH1 0x4 DUP3 ADD MSTORE PUSH1 0x29 PUSH1 0x24 DUP3 ADD MSTORE PUSH32 0x4D69736D617463686564206F776E6572206265747765656E2073746570206F6E PUSH1 0x44 DUP3 ADD MSTORE PUSH9 0x6520616E642074776F PUSH1 0xB8 SHL PUSH1 0x64 DUP3 ADD MSTORE PUSH1 0x84 ADD PUSH2 0x5EE JUMP JUMPDEST PUSH1 0x8 SLOAD PUSH1 0x40 MLOAD PUSH4 0xF2FDE38B PUSH1 0xE0 SHL DUP2 MSTORE PUSH1 0x1 PUSH1 0x1 PUSH1 0xA0 SHL SUB DUP4 DUP2 AND PUSH1 0x4 DUP4 ADD MSTORE SWAP1 SWAP2 AND SWAP1 PUSH4 0xF2FDE38B SWAP1 PUSH1 0x24 ADD PUSH1 0x0 PUSH1 0x40 MLOAD DUP1 DUP4 SUB DUP2 PUSH1 0x0 DUP8 DUP1 EXTCODESIZE ISZERO DUP1 ISZERO PUSH2 0x20A6 JUMPI PUSH1 0x0 DUP1 REVERT JUMPDEST POP GAS CALL ISZERO DUP1 ISZERO PUSH2 0x20BA JUMPI RETURNDATASIZE PUSH1 0x0 DUP1 RETURNDATACOPY RETURNDATASIZE PUSH1 0x0 REVERT JUMPDEST POP POP PUSH1 0xD DUP1 SLOAD PUSH1 0x1 PUSH1 0x1 PUSH1 0xA0 SHL SUB NOT AND SWAP1 SSTORE POP POP PUSH1 0x40 MLOAD PUSH1 0x1 PUSH1 0x1 PUSH1 0xA0 SHL SUB DUP3 AND SWAP1 PUSH32 0x4DBA622D284ED0014EE4B9A6A68386BE1A4C08A4913AE272DE89199CC686163 SWAP1 PUSH1 0x0 SWAP1 LOG2 POP POP POP POP JUMP JUMPDEST PUSH1 0x6 SLOAD PUSH1 0x40 MLOAD PUSH1 0x1 PUSH1 0x1 PUSH1 0xA0 SHL SUB SWAP1 SWAP2 AND SWAP1 PUSH4 0x333F6111 SWAP1 DUP7 SWAP1 DUP7 SWAP1 DUP7 SWAP1 PUSH2 0x2134 SWAP1 DUP8 SWAP1 PUSH1 0x20 ADD PUSH2 0x34E9 JUMP JUMPDEST PUSH1 0x40 MLOAD PUSH1 0x20 DUP2 DUP4 SUB SUB DUP2 MSTORE SWAP1 PUSH1 0x40 MSTORE PUSH1 0x40 MLOAD DUP6 PUSH4 0xFFFFFFFF AND PUSH1 0xE0 SHL DUP2 MSTORE PUSH1 0x4 ADD PUSH2 0x2162 SWAP5 SWAP4 SWAP3 SWAP2 SWAP1 PUSH2 0x33B9 JUMP JUMPDEST PUSH1 0x20 PUSH1 0x40 MLOAD DUP1 DUP4 SUB DUP2 PUSH1 0x0 DUP8 GAS CALL ISZERO DUP1 ISZERO PUSH2 0x2181 JUMPI RETURNDATASIZE PUSH1 0x0 DUP1 RETURNDATACOPY RETURNDATASIZE PUSH1 0x0 REVERT JUMPDEST POP POP POP POP PUSH1 0x40 MLOAD RETURNDATASIZE PUSH1 0x1F NOT PUSH1 0x1F DUP3 ADD AND DUP3 ADD DUP1 PUSH1 0x40 MSTORE POP DUP2 ADD SWAP1 PUSH2 0x21A5 SWAP2 SWAP1 PUSH2 0x349A JUMP JUMPDEST PUSH2 0x21C1 JUMPI PUSH1 0x40 MLOAD PUSH3 0x461BCD PUSH1 0xE5 SHL DUP2 MSTORE PUSH1 0x4 ADD PUSH2 0x5EE SWAP1 PUSH2 0x34BC JUMP JUMPDEST PUSH1 0xC SLOAD PUSH1 0x1 PUSH1 0x1 PUSH1 0xA0 SHL SUB DUP3 DUP2 AND SWAP2 AND EQ PUSH2 0x2236 JUMPI PUSH1 0x40 MLOAD PUSH3 0x461BCD PUSH1 0xE5 SHL DUP2 MSTORE PUSH1 0x20 PUSH1 0x4 DUP3 ADD MSTORE PUSH1 0x2F PUSH1 0x24 DUP3 ADD MSTORE PUSH32 0x4D69736D617463686564205346432061646472657373206265747765656E2073 PUSH1 0x44 DUP3 ADD MSTORE PUSH15 0x746570206F6E6520616E642074776F PUSH1 0x88 SHL PUSH1 0x64 DUP3 ADD MSTORE PUSH1 0x84 ADD PUSH2 0x5EE JUMP JUMPDEST PUSH1 0x8 DUP1 SLOAD PUSH1 0x1 PUSH1 0x1 PUSH1 0xA0 SHL SUB DUP4 AND PUSH1 0x1 PUSH1 0x1 PUSH1 0xA0 SHL SUB NOT SWAP2 DUP3 AND DUP2 OR SWAP1 SWAP3 SSTORE PUSH1 0xC DUP1 SLOAD SWAP1 SWAP2 AND SWAP1 SSTORE PUSH1 0x40 MLOAD SWAP1 DUP2 MSTORE PUSH32 0x337D2E60F33E85C6D188FA86CD3B2ACBE8848AEB110B90B8AC65129FC2D05D86 SWAP1 PUSH1 0x20 ADD PUSH1 0x40 MLOAD DUP1 SWAP2 SUB SWAP1 LOG1 POP POP POP POP JUMP JUMPDEST DUP4 DUP4 DUP4 DUP4 PUSH1 0x40 MLOAD PUSH1 0x20 ADD PUSH2 0x22AD SWAP2 DUP2 MSTORE PUSH1 0x20 ADD SWAP1 JUMP JUMPDEST PUSH1 0x40 DUP1 MLOAD PUSH1 0x1F NOT DUP2 DUP5 SUB ADD DUP2 MSTORE SWAP2 SWAP1 MSTORE PUSH1 0x0 SLOAD PUSH1 0xFF AND PUSH2 0x22DF JUMPI PUSH1 0x40 MLOAD PUSH3 0x461BCD PUSH1 0xE5 SHL DUP2 MSTORE PUSH1 0x4 ADD PUSH2 0x5EE SWAP1 PUSH2 0x3506 JUMP JUMPDEST PUSH1 0x0 DUP5 PUSH1 0x40 MLOAD PUSH1 0x20 ADD PUSH2 0x22F2 SWAP2 SWAP1 PUSH2 0x353D JUMP JUMPDEST PUSH1 0x40 DUP1 MLOAD PUSH1 0x1F NOT DUP2 DUP5 SUB ADD DUP2 MSTORE SWAP2 SWAP1 MSTORE DUP1 MLOAD PUSH1 0x20 SWAP1 SWAP2 ADD KECCAK256 SWAP1 POP PUSH1 0x0 DUP1 DUP3 DUP2 MSTORE PUSH1 0x2 PUSH1 0x20 DUP2 SWAP1 MSTORE PUSH1 0x40 SWAP1 SWAP2 KECCAK256 SLOAD PUSH1 0xFF AND SWAP1 DUP2 GT ISZERO PUSH2 0x2332 JUMPI PUSH2 0x2332 PUSH2 0x2E8A JUMP JUMPDEST EQ PUSH2 0x234F JUMPI PUSH1 0x40 MLOAD PUSH3 0x461BCD PUSH1 0xE5 SHL DUP2 MSTORE PUSH1 0x4 ADD PUSH2 0x5EE SWAP1 PUSH2 0x3596 JUMP JUMPDEST PUSH1 0x0 DUP3 DUP5 PUSH1 0x40 MLOAD PUSH1 0x20 ADD PUSH2 0x2364 SWAP3 SWAP2 SWAP1 PUSH2 0x3574 JUMP JUMPDEST PUSH1 0x40 DUP1 MLOAD PUSH1 0x1F NOT DUP2 DUP5 SUB ADD DUP2 MSTORE SWAP1 DUP3 SWAP1 MSTORE DUP1 MLOAD PUSH1 0x20 SWAP2 DUP3 ADD KECCAK256 DUP1 DUP4 MSTORE SWAP3 POP PUSH1 0x0 DUP1 MLOAD PUSH1 0x20 PUSH2 0x367C DUP4 CODECOPY DUP2 MLOAD SWAP2 MSTORE SWAP2 ADD PUSH1 0x40 MLOAD DUP1 SWAP2 SUB SWAP1 LOG1 PUSH1 0x0 PUSH2 0x23A8 DUP3 DUP8 DUP10 PUSH2 0x1CD2 JUMP JUMPDEST PUSH1 0x0 DUP1 SLOAD PUSH2 0xFF00 NOT AND PUSH2 0x100 DUP4 ISZERO ISZERO MUL OR SWAP1 SSTORE SWAP1 POP DUP1 PUSH2 0x23E0 JUMPI PUSH1 0x40 MLOAD DUP3 DUP2 MSTORE PUSH1 0x0 DUP1 MLOAD PUSH1 0x20 PUSH2 0x365C DUP4 CODECOPY DUP2 MLOAD SWAP2 MSTORE SWAP1 PUSH1 0x20 ADD PUSH2 0xEC4 JUMP JUMPDEST PUSH1 0x0 DUP4 DUP2 MSTORE PUSH1 0x2 PUSH1 0x20 MSTORE PUSH1 0x40 SWAP1 DUP2 SWAP1 KECCAK256 SLOAD SWAP1 MLOAD PUSH1 0x0 DUP1 MLOAD PUSH1 0x20 PUSH2 0x369C DUP4 CODECOPY DUP2 MLOAD SWAP2 MSTORE SWAP2 PUSH2 0x2416 SWAP2 PUSH1 0xFF SWAP1 SWAP2 AND SWAP1 DUP7 SWAP1 DUP10 SWAP1 PUSH2 0x2EC2 JUMP JUMPDEST PUSH1 0x40 MLOAD DUP1 SWAP2 SUB SWAP1 LOG1 PUSH2 0x2428 DUP4 DUP7 PUSH2 0x2CCF JUMP JUMPDEST POP POP POP PUSH1 0x3 SWAP5 SWAP1 SWAP5 SSTORE POP POP POP PUSH1 0x4 SWAP2 SWAP1 SWAP2 SSTORE POP POP POP JUMP JUMPDEST DUP4 DUP4 DUP4 DUP4 PUSH1 0x40 MLOAD PUSH1 0x20 ADD PUSH2 0x2455 SWAP2 DUP2 MSTORE PUSH1 0x20 ADD SWAP1 JUMP JUMPDEST PUSH1 0x40 DUP1 MLOAD PUSH1 0x1F NOT DUP2 DUP5 SUB ADD DUP2 MSTORE SWAP2 SWAP1 MSTORE PUSH1 0x0 SLOAD PUSH1 0xFF AND PUSH2 0x2487 JUMPI PUSH1 0x40 MLOAD PUSH3 0x461BCD PUSH1 0xE5 SHL DUP2 MSTORE PUSH1 0x4 ADD PUSH2 0x5EE SWAP1 PUSH2 0x3506 JUMP JUMPDEST PUSH1 0x0 DUP5 PUSH1 0x40 MLOAD PUSH1 0x20 ADD PUSH2 0x249A SWAP2 SWAP1 PUSH2 0x353D JUMP JUMPDEST PUSH1 0x40 DUP1 MLOAD PUSH1 0x1F NOT DUP2 DUP5 SUB ADD DUP2 MSTORE SWAP2 SWAP1 MSTORE DUP1 MLOAD PUSH1 0x20 SWAP1 SWAP2 ADD KECCAK256 SWAP1 POP PUSH1 0x0 DUP1 DUP3 DUP2 MSTORE PUSH1 0x2 PUSH1 0x20 DUP2 SWAP1 MSTORE PUSH1 0x40 SWAP1 SWAP2 KECCAK256 SLOAD PUSH1 0xFF AND SWAP1 DUP2 GT ISZERO PUSH2 0x24DA JUMPI PUSH2 0x24DA PUSH2 0x2E8A JUMP JUMPDEST EQ PUSH2 0x24F7 JUMPI PUSH1 0x40 MLOAD PUSH3 0x461BCD PUSH1 0xE5 SHL DUP2 MSTORE PUSH1 0x4 ADD PUSH2 0x5EE SWAP1 PUSH2 0x3596 JUMP JUMPDEST PUSH1 0x0 DUP3 DUP5 PUSH1 0x40 MLOAD PUSH1 0x20 ADD PUSH2 0x250C SWAP3 SWAP2 SWAP1 PUSH2 0x3574 JUMP JUMPDEST PUSH1 0x40 DUP1 MLOAD PUSH1 0x1F NOT DUP2 DUP5 SUB ADD DUP2 MSTORE SWAP1 DUP3 SWAP1 MSTORE DUP1 MLOAD PUSH1 0x20 SWAP2 DUP3 ADD KECCAK256 DUP1 DUP4 MSTORE SWAP3 POP PUSH1 0x0 DUP1 MLOAD PUSH1 0x20 PUSH2 0x367C DUP4 CODECOPY DUP2 MLOAD SWAP2 MSTORE SWAP2 ADD PUSH1 0x40 MLOAD DUP1 SWAP2 SUB SWAP1 LOG1 PUSH1 0x0 PUSH2 0x2550 DUP3 DUP8 DUP10 PUSH2 0x1CD2 JUMP JUMPDEST PUSH1 0x0 DUP1 SLOAD PUSH2 0xFF00 NOT AND PUSH2 0x100 DUP4 ISZERO ISZERO MUL OR SWAP1 SSTORE SWAP1 POP DUP1 PUSH2 0x2588 JUMPI PUSH1 0x40 MLOAD DUP3 DUP2 MSTORE PUSH1 0x0 DUP1 MLOAD PUSH1 0x20 PUSH2 0x365C DUP4 CODECOPY DUP2 MLOAD SWAP2 MSTORE SWAP1 PUSH1 0x20 ADD PUSH2 0xEC4 JUMP JUMPDEST PUSH1 0x0 DUP4 DUP2 MSTORE PUSH1 0x2 PUSH1 0x20 MSTORE PUSH1 0x40 SWAP1 DUP2 SWAP1 KECCAK256 SLOAD SWAP1 MLOAD PUSH1 0x0 DUP1 MLOAD PUSH1 0x20 PUSH2 0x369C DUP4 CODECOPY DUP2 MLOAD SWAP2 MSTORE SWAP2 PUSH2 0x25BE SWAP2 PUSH1 0xFF SWAP1 SWAP2 AND SWAP1 DUP7 SWAP1 DUP10 SWAP1 PUSH2 0x2EC2 JUMP JUMPDEST PUSH1 0x40 MLOAD DUP1 SWAP2 SUB SWAP1 LOG1 PUSH2 0x25D0 DUP4 DUP7 PUSH2 0x2CCF JUMP JUMPDEST PUSH1 0x0 DUP12 PUSH1 0x40 MLOAD PUSH1 0x20 ADD PUSH2 0x25E3 SWAP2 SWAP1 PUSH2 0x353D JUMP JUMPDEST PUSH1 0x40 MLOAD PUSH1 0x20 DUP2 DUP4 SUB SUB DUP2 MSTORE SWAP1 PUSH1 0x40 MSTORE DUP1 MLOAD SWAP1 PUSH1 0x20 ADD KECCAK256 SWAP1 POP PUSH1 0x4 SLOAD DUP2 SUB PUSH2 0x267C JUMPI PUSH1 0x40 MLOAD PUSH3 0x461BCD PUSH1 0xE5 SHL DUP2 MSTORE PUSH1 0x20 PUSH1 0x4 DUP3 ADD MSTORE PUSH1 0x41 PUSH1 0x24 DUP3 ADD MSTORE PUSH32 0x4C616D706F7274426173653A2043616E6E6F7420757365207468652073616D65 PUSH1 0x44 DUP3 ADD MSTORE PUSH32 0x206B6579636861696E20747769636520666F7220746869732066756E6374696F PUSH1 0x64 DUP3 ADD MSTORE PUSH1 0x37 PUSH1 0xF9 SHL PUSH1 0x84 DUP3 ADD MSTORE PUSH1 0xA4 ADD PUSH2 0x5EE JUMP JUMPDEST DUP9 PUSH1 0x3 SLOAD EQ PUSH2 0x26CD JUMPI PUSH1 0x40 MLOAD PUSH3 0x461BCD PUSH1 0xE5 SHL DUP2 MSTORE PUSH1 0x20 PUSH1 0x4 DUP3 ADD MSTORE PUSH1 0x1E PUSH1 0x24 DUP3 ADD MSTORE PUSH32 0x4C616D706F7274426173653A204B65797320646F206E6F74206D617463680000 PUSH1 0x44 DUP3 ADD MSTORE PUSH1 0x64 ADD PUSH2 0x5EE JUMP JUMPDEST PUSH1 0x4 SLOAD DUP2 DUP11 PUSH1 0x0 DUP1 DUP5 DUP2 MSTORE PUSH1 0x2 PUSH1 0x20 DUP2 SWAP1 MSTORE PUSH1 0x40 SWAP1 SWAP2 KECCAK256 SLOAD PUSH1 0xFF AND SWAP1 DUP2 GT ISZERO PUSH2 0x26F8 JUMPI PUSH2 0x26F8 PUSH2 0x2E8A JUMP JUMPDEST EQ DUP1 ISZERO PUSH2 0x2726 JUMPI POP PUSH1 0x0 DUP3 DUP2 MSTORE PUSH1 0x2 PUSH1 0x20 DUP2 SWAP1 MSTORE PUSH1 0x40 DUP3 KECCAK256 SLOAD PUSH1 0xFF AND SWAP1 DUP2 GT ISZERO PUSH2 0x2724 JUMPI PUSH2 0x2724 PUSH2 0x2E8A JUMP JUMPDEST EQ JUMPDEST PUSH2 0x2789 JUMPI PUSH1 0x40 MLOAD PUSH3 0x461BCD PUSH1 0xE5 SHL DUP2 MSTORE PUSH1 0x20 PUSH1 0x4 DUP3 ADD MSTORE PUSH1 0x2E PUSH1 0x24 DUP3 ADD MSTORE PUSH32 0x4C616D706F7274426173653A2050726F7669646564206B65797320617265206E PUSH1 0x44 DUP3 ADD MSTORE PUSH14 0x6F74206D6173746572206B657973 PUSH1 0x90 SHL PUSH1 0x64 DUP3 ADD MSTORE PUSH1 0x84 ADD PUSH2 0x5EE JUMP JUMPDEST DUP3 DUP2 EQ ISZERO DUP1 ISZERO PUSH2 0x2799 JUMPI POP DUP2 DUP2 EQ ISZERO JUMPDEST PUSH2 0x27FF JUMPI PUSH1 0x40 MLOAD PUSH3 0x461BCD PUSH1 0xE5 SHL DUP2 MSTORE PUSH1 0x20 PUSH1 0x4 DUP3 ADD MSTORE PUSH1 0x31 PUSH1 0x24 DUP3 ADD MSTORE PUSH32 0x4C616D706F7274426173653A204D6173746572206B6579732063616E6E6F7420 PUSH1 0x44 DUP3 ADD MSTORE PUSH17 0x64656C657465207468656D73656C766573 PUSH1 0x78 SHL PUSH1 0x64 DUP3 ADD MSTORE PUSH1 0x84 ADD PUSH2 0x5EE JUMP JUMPDEST PUSH1 0x0 DUP2 DUP2 MSTORE PUSH1 0x2 PUSH1 0x20 MSTORE PUSH1 0x40 DUP2 KECCAK256 PUSH1 0x1 ADD SLOAD SWAP1 SUB PUSH2 0x286B JUMPI PUSH1 0x40 MLOAD PUSH3 0x461BCD PUSH1 0xE5 SHL DUP2 MSTORE PUSH1 0x20 PUSH1 0x4 DUP3 ADD MSTORE PUSH1 0x23 PUSH1 0x24 DUP3 ADD MSTORE PUSH32 0x4C616D706F7274426173653A204E6F2073756368206B6579202864656C657469 PUSH1 0x44 DUP3 ADD MSTORE PUSH3 0x6F6E29 PUSH1 0xE8 SHL PUSH1 0x64 DUP3 ADD MSTORE PUSH1 0x84 ADD PUSH2 0x5EE JUMP JUMPDEST PUSH1 0x0 JUMPDEST PUSH1 0x1 SLOAD DUP2 LT ISZERO PUSH2 0x2958 JUMPI DUP2 PUSH1 0x1 DUP3 DUP2 SLOAD DUP2 LT PUSH2 0x288C JUMPI PUSH2 0x288C PUSH2 0x3303 JUMP JUMPDEST SWAP1 PUSH1 0x0 MSTORE PUSH1 0x20 PUSH1 0x0 KECCAK256 SWAP1 PUSH1 0x2 MUL ADD PUSH1 0x1 ADD SLOAD SUB PUSH2 0x2946 JUMPI PUSH1 0x0 DUP3 DUP2 MSTORE PUSH1 0x2 PUSH1 0x20 DUP2 DUP2 MSTORE PUSH1 0x40 DUP1 DUP5 KECCAK256 DUP1 SLOAD DUP3 MLOAD TIMESTAMP DUP2 DUP7 ADD MSTORE DIFFICULTY DUP2 DUP6 ADD MSTORE DUP4 MLOAD DUP1 DUP3 SUB DUP6 ADD DUP2 MSTORE PUSH1 0x60 SWAP1 SWAP2 ADD SWAP4 DUP5 SWAP1 MSTORE DUP1 MLOAD SWAP1 DUP6 ADD KECCAK256 SWAP6 DUP9 SWAP1 MSTORE SWAP3 DUP5 SWAP1 MSTORE PUSH4 0xDE1E7ED PUSH1 0xE4 SHL DUP6 XOR PUSH1 0x1 DUP3 ADD DUP2 SWAP1 SSTORE PUSH1 0xFF NOT DUP5 AND DUP6 OR SWAP1 SWAP2 SSTORE PUSH1 0xFF SWAP1 SWAP3 AND SWAP4 SWAP2 SWAP3 PUSH32 0x643BE3612916977C69D5ED1ABB75A50CCA49DF49BA2444D836E2A0CF65FE074 SWAP2 PUSH2 0x2936 SWAP2 DUP7 SWAP2 DUP10 SWAP2 DUP8 SWAP2 PUSH2 0x362B JUMP JUMPDEST PUSH1 0x40 MLOAD DUP1 SWAP2 SUB SWAP1 LOG1 POP POP POP PUSH2 0x2958 JUMP JUMPDEST DUP1 PUSH2 0x2950 DUP2 PUSH2 0x3319 JUMP JUMPDEST SWAP2 POP POP PUSH2 0x286E JUMP JUMPDEST POP POP PUSH1 0x0 PUSH1 0x3 DUP2 SWAP1 SSTORE PUSH1 0x4 SSTORE POP POP POP POP POP POP POP POP POP POP POP POP POP POP JUMP JUMPDEST PUSH1 0x6 SLOAD PUSH1 0x40 MLOAD PUSH1 0x1 PUSH1 0x1 PUSH1 0xA0 SHL SUB SWAP1 SWAP2 AND SWAP1 PUSH4 0x333F6111 SWAP1 DUP7 SWAP1 DUP7 SWAP1 DUP7 SWAP1 PUSH2 0x29A0 SWAP1 DUP8 SWAP1 PUSH1 0x20 ADD PUSH2 0x34E9 JUMP JUMPDEST PUSH1 0x40 MLOAD PUSH1 0x20 DUP2 DUP4 SUB SUB DUP2 MSTORE SWAP1 PUSH1 0x40 MSTORE PUSH1 0x40 MLOAD DUP6 PUSH4 0xFFFFFFFF AND PUSH1 0xE0 SHL DUP2 MSTORE PUSH1 0x4 ADD PUSH2 0x29CE SWAP5 SWAP4 SWAP3 SWAP2 SWAP1 PUSH2 0x33B9 JUMP JUMPDEST PUSH1 0x20 PUSH1 0x40 MLOAD DUP1 DUP4 SUB DUP2 PUSH1 0x0 DUP8 GAS CALL ISZERO DUP1 ISZERO PUSH2 0x29ED JUMPI RETURNDATASIZE PUSH1 0x0 DUP1 RETURNDATACOPY RETURNDATASIZE PUSH1 0x0 REVERT JUMPDEST POP POP POP POP PUSH1 0x40 MLOAD RETURNDATASIZE PUSH1 0x1F NOT PUSH1 0x1F DUP3 ADD AND DUP3 ADD DUP1 PUSH1 0x40 MSTORE POP DUP2 ADD SWAP1 PUSH2 0x2A11 SWAP2 SWAP1 PUSH2 0x349A JUMP JUMPDEST PUSH2 0x2A2D JUMPI PUSH1 0x40 MLOAD PUSH3 0x461BCD PUSH1 0xE5 SHL DUP2 MSTORE PUSH1 0x4 ADD PUSH2 0x5EE SWAP1 PUSH2 0x34BC JUMP JUMPDEST PUSH1 0xB SLOAD PUSH1 0x1 PUSH1 0x1 PUSH1 0xA0 SHL SUB DUP3 DUP2 AND SWAP2 AND EQ PUSH2 0x2A8A JUMPI PUSH1 0x40 MLOAD PUSH3 0x461BCD PUSH1 0xE5 SHL DUP2 MSTORE PUSH1 0x20 PUSH1 0x4 DUP3 ADD MSTORE PUSH1 0x1A PUSH1 0x24 DUP3 ADD MSTORE PUSH32 0x4D69736D61746368656420747265617375727941646472657373000000000000 PUSH1 0x44 DUP3 ADD MSTORE PUSH1 0x64 ADD PUSH2 0x5EE JUMP JUMPDEST PUSH1 0x8 SLOAD PUSH1 0x40 MLOAD PUSH4 0x841E4561 PUSH1 0xE0 SHL DUP2 MSTORE PUSH1 0x1 PUSH1 0x1 PUSH1 0xA0 SHL SUB DUP4 DUP2 AND PUSH1 0x4 DUP4 ADD MSTORE SWAP1 SWAP2 AND SWAP1 PUSH4 0x841E4561 SWAP1 PUSH1 0x24 ADD PUSH1 0x0 PUSH1 0x40 MLOAD DUP1 DUP4 SUB DUP2 PUSH1 0x0 DUP8 DUP1 EXTCODESIZE ISZERO DUP1 ISZERO PUSH2 0x2AD1 JUMPI PUSH1 0x0 DUP1 REVERT JUMPDEST POP GAS CALL ISZERO DUP1 ISZERO PUSH2 0x2AE5 JUMPI RETURNDATASIZE PUSH1 0x0 DUP1 RETURNDATACOPY RETURNDATASIZE PUSH1 0x0 REVERT JUMPDEST POP POP PUSH1 0xB DUP1 SLOAD PUSH1 0x1 PUSH1 0x1 PUSH1 0xA0 SHL SUB NOT AND SWAP1 SSTORE POP POP POP POP POP POP JUMP JUMPDEST PUSH1 0x6 SLOAD PUSH1 0x40 DUP1 MLOAD PUSH1 0x20 DUP1 DUP3 ADD DUP6 SWAP1 MSTORE DUP3 MLOAD DUP1 DUP4 SUB SWAP1 SWAP2 ADD DUP2 MSTORE DUP2 DUP4 ADD SWAP3 DUP4 SWAP1 MSTORE PUSH4 0x333F6111 PUSH1 0xE0 SHL SWAP1 SWAP3 MSTORE PUSH1 0x1 PUSH1 0x1 PUSH1 0xA0 SHL SUB SWAP1 SWAP3 AND SWAP2 PUSH4 0x333F6111 SWAP2 PUSH2 0x2B4F SWAP2 DUP9 SWAP2 DUP9 SWAP2 DUP9 SWAP2 SWAP1 PUSH1 0x44 ADD PUSH2 0x33B9 JUMP JUMPDEST PUSH1 0x20 PUSH1 0x40 MLOAD DUP1 DUP4 SUB DUP2 PUSH1 0x0 DUP8 GAS CALL ISZERO DUP1 ISZERO PUSH2 0x2B6E JUMPI RETURNDATASIZE PUSH1 0x0 DUP1 RETURNDATACOPY RETURNDATASIZE PUSH1 0x0 REVERT JUMPDEST POP POP POP POP PUSH1 0x40 MLOAD RETURNDATASIZE PUSH1 0x1F NOT PUSH1 0x1F DUP3 ADD AND DUP3 ADD DUP1 PUSH1 0x40 MSTORE POP DUP2 ADD SWAP1 PUSH2 0x2B92 SWAP2 SWAP1 PUSH2 0x349A JUMP JUMPDEST PUSH2 0x2BAE JUMPI PUSH1 0x40 MLOAD PUSH3 0x461BCD PUSH1 0xE5 SHL DUP2 MSTORE PUSH1 0x4 ADD PUSH2 0x5EE SWAP1 PUSH2 0x34BC JUMP JUMPDEST PUSH1 0xE SSTORE POP POP POP JUMP JUMPDEST PUSH1 0x0 PUSH1 0x40 MLOAD DUP1 PUSH1 0x40 ADD PUSH1 0x40 MSTORE DUP1 DUP5 PUSH1 0x2 DUP2 GT ISZERO PUSH2 0x2BD5 JUMPI PUSH2 0x2BD5 PUSH2 0x2E8A JUMP JUMPDEST DUP2 MSTORE PUSH1 0x20 ADD DUP4 SWAP1 MSTORE PUSH1 0x1 DUP1 SLOAD DUP1 DUP3 ADD DUP3 SSTORE PUSH1 0x0 DUP3 SWAP1 MSTORE DUP3 MLOAD PUSH1 0x2 SWAP2 DUP3 MUL PUSH32 0xB10E2D527612073B26EECDFD717E6A320CF44B4AFAC2B0732D9FCBE2B7FA0CF6 ADD DUP1 SLOAD SWAP5 SWAP6 POP DUP6 SWAP5 SWAP1 SWAP4 SWAP2 SWAP3 DUP5 SWAP3 PUSH1 0xFF NOT SWAP1 SWAP3 AND SWAP2 SWAP1 DUP5 SWAP1 DUP2 GT ISZERO PUSH2 0x2C3A JUMPI PUSH2 0x2C3A PUSH2 0x2E8A JUMP JUMPDEST MUL OR SWAP1 SSTORE POP PUSH1 0x20 SWAP2 DUP3 ADD MLOAD PUSH1 0x1 SWAP2 DUP3 ADD SSTORE PUSH1 0x0 DUP5 DUP2 MSTORE PUSH1 0x2 SWAP3 DUP4 SWAP1 MSTORE PUSH1 0x40 SWAP1 KECCAK256 DUP4 MLOAD DUP2 SLOAD DUP6 SWAP5 SWAP3 SWAP4 SWAP2 SWAP3 DUP5 SWAP3 PUSH1 0xFF NOT SWAP1 SWAP3 AND SWAP2 SWAP1 DUP5 SWAP1 DUP2 GT ISZERO PUSH2 0x2C7F JUMPI PUSH2 0x2C7F PUSH2 0x2E8A JUMP JUMPDEST MUL OR SWAP1 SSTORE POP PUSH1 0x20 DUP3 ADD MLOAD DUP2 PUSH1 0x1 ADD SSTORE SWAP1 POP POP PUSH32 0x2172C7B01A6DE957D29FD6166A23025D181BF56538AD606A526AB2D62603F3FC DUP4 DUP4 PUSH1 0x40 MLOAD PUSH2 0x2CC2 SWAP3 SWAP2 SWAP1 PUSH2 0x2FA6 JUMP JUMPDEST PUSH1 0x40 MLOAD DUP1 SWAP2 SUB SWAP1 LOG1 POP POP POP JUMP JUMPDEST PUSH1 0x0 DUP3 DUP2 MSTORE PUSH1 0x2 PUSH1 0x20 MSTORE PUSH1 0x40 DUP2 KECCAK256 PUSH1 0x1 ADD SLOAD SWAP1 SUB PUSH2 0x2CFF JUMPI PUSH1 0x40 MLOAD PUSH3 0x461BCD PUSH1 0xE5 SHL DUP2 MSTORE PUSH1 0x4 ADD PUSH2 0x5EE SWAP1 PUSH2 0x32CC JUMP JUMPDEST PUSH1 0x40 DUP1 MLOAD DUP1 DUP3 ADD DUP3 MSTORE PUSH1 0x0 DUP5 DUP2 MSTORE PUSH1 0x2 PUSH1 0x20 DUP2 SWAP1 MSTORE SWAP3 DUP2 KECCAK256 SLOAD SWAP1 SWAP3 DUP3 SWAP2 PUSH1 0xFF AND SWAP1 DUP2 GT ISZERO PUSH2 0x2D2F JUMPI PUSH2 0x2D2F PUSH2 0x2E8A JUMP JUMPDEST DUP2 MSTORE PUSH1 0x20 ADD DUP4 DUP2 MSTORE POP SWAP1 POP DUP1 PUSH1 0x2 PUSH1 0x0 DUP5 DUP2 MSTORE PUSH1 0x20 ADD SWAP1 DUP2 MSTORE PUSH1 0x20 ADD PUSH1 0x0 KECCAK256 PUSH1 0x0 DUP3 ADD MLOAD DUP2 PUSH1 0x0 ADD PUSH1 0x0 PUSH2 0x100 EXP DUP2 SLOAD DUP2 PUSH1 0xFF MUL NOT AND SWAP1 DUP4 PUSH1 0x2 DUP2 GT ISZERO PUSH2 0x2D78 JUMPI PUSH2 0x2D78 PUSH2 0x2E8A JUMP JUMPDEST MUL OR SWAP1 SSTORE POP PUSH1 0x20 SWAP2 DUP3 ADD MLOAD PUSH1 0x1 SWAP2 DUP3 ADD SSTORE PUSH1 0x0 DUP6 DUP2 MSTORE PUSH1 0x2 SWAP1 SWAP3 MSTORE PUSH1 0x40 DUP3 KECCAK256 DUP1 SLOAD PUSH1 0xFF NOT AND DUP2 SSTORE ADD DUP2 SWAP1 SSTORE JUMPDEST PUSH1 0x1 SLOAD DUP2 LT ISZERO PUSH2 0x2E4E JUMPI DUP4 PUSH1 0x1 DUP3 DUP2 SLOAD DUP2 LT PUSH2 0x2DC2 JUMPI PUSH2 0x2DC2 PUSH2 0x3303 JUMP JUMPDEST SWAP1 PUSH1 0x0 MSTORE PUSH1 0x20 PUSH1 0x0 KECCAK256 SWAP1 PUSH1 0x2 MUL ADD PUSH1 0x1 ADD SLOAD SUB PUSH2 0x2E3C JUMPI DUP2 PUSH1 0x1 DUP3 DUP2 SLOAD DUP2 LT PUSH2 0x2DED JUMPI PUSH2 0x2DED PUSH2 0x3303 JUMP JUMPDEST SWAP1 PUSH1 0x0 MSTORE PUSH1 0x20 PUSH1 0x0 KECCAK256 SWAP1 PUSH1 0x2 MUL ADD PUSH1 0x0 DUP3 ADD MLOAD DUP2 PUSH1 0x0 ADD PUSH1 0x0 PUSH2 0x100 EXP DUP2 SLOAD DUP2 PUSH1 0xFF MUL NOT AND SWAP1 DUP4 PUSH1 0x2 DUP2 GT ISZERO PUSH2 0x2E25 JUMPI PUSH2 0x2E25 PUSH2 0x2E8A JUMP JUMPDEST MUL OR SWAP1 SSTORE POP PUSH1 0x20 DUP3 ADD MLOAD DUP2 PUSH1 0x1 ADD SSTORE SWAP1 POP POP PUSH2 0x2E4E JUMP JUMPDEST DUP1 PUSH2 0x2E46 DUP2 PUSH2 0x3319 JUMP JUMPDEST SWAP2 POP POP PUSH2 0x2DA4 JUMP JUMPDEST POP DUP1 MLOAD PUSH1 0x40 MLOAD PUSH1 0x0 DUP1 MLOAD PUSH1 0x20 PUSH2 0x369C DUP4 CODECOPY DUP2 MLOAD SWAP2 MSTORE SWAP2 PUSH2 0x2CC2 SWAP2 DUP7 SWAP1 DUP7 SWAP1 PUSH2 0x2EC2 JUMP JUMPDEST PUSH1 0x0 PUSH1 0x20 DUP3 DUP5 SUB SLT ISZERO PUSH2 0x2E83 JUMPI PUSH1 0x0 DUP1 REVERT JUMPDEST POP CALLDATALOAD SWAP2 SWAP1 POP JUMP JUMPDEST PUSH4 0x4E487B71 PUSH1 0xE0 SHL PUSH1 0x0 MSTORE PUSH1 0x21 PUSH1 0x4 MSTORE PUSH1 0x24 PUSH1 0x0 REVERT JUMPDEST PUSH1 0x3 DUP2 LT PUSH2 0x2EBE JUMPI PUSH4 0x4E487B71 PUSH1 0xE0 SHL PUSH1 0x0 MSTORE PUSH1 0x21 PUSH1 0x4 MSTORE PUSH1 0x24 PUSH1 0x0 REVERT JUMPDEST SWAP1 MSTORE JUMP JUMPDEST PUSH1 0x60 DUP2 ADD PUSH2 0x2ED0 DUP3 DUP7 PUSH2 0x2EA0 JUMP JUMPDEST PUSH1 0x20 DUP3 ADD SWAP4 SWAP1 SWAP4 MSTORE PUSH1 0x40 ADD MSTORE SWAP2 SWAP1 POP JUMP JUMPDEST DUP1 PUSH2 0x4000 DUP2 ADD DUP4 LT ISZERO PUSH2 0x2EF3 JUMPI PUSH1 0x0 DUP1 REVERT JUMPDEST SWAP3 SWAP2 POP POP JUMP JUMPDEST DUP1 PUSH2 0x2000 DUP2 ADD DUP4 LT ISZERO PUSH2 0x2EF3 JUMPI PUSH1 0x0 DUP1 REVERT JUMPDEST PUSH1 0x0 DUP1 PUSH1 0x0 DUP1 PUSH1 0x0 PUSH2 0x4080 DUP7 DUP9 SUB SLT ISZERO PUSH2 0x2F24 JUMPI PUSH1 0x0 DUP1 REVERT JUMPDEST PUSH2 0x2F2E DUP8 DUP8 PUSH2 0x2EE1 JUMP JUMPDEST SWAP5 POP PUSH2 0x4000 DUP7 ADD CALLDATALOAD PUSH8 0xFFFFFFFFFFFFFFFF DUP2 GT ISZERO PUSH2 0x2F4B JUMPI PUSH1 0x0 DUP1 REVERT JUMPDEST PUSH2 0x2F57 DUP9 DUP3 DUP10 ADD PUSH2 0x2EF9 JUMP JUMPDEST SWAP6 SWAP9 SWAP6 SWAP8 POP POP POP POP PUSH2 0x4020 DUP5 ADD CALLDATALOAD SWAP4 PUSH2 0x4040 DUP2 ADD CALLDATALOAD SWAP4 PUSH2 0x4060 SWAP1 SWAP2 ADD CALLDATALOAD SWAP3 POP SWAP1 POP JUMP JUMPDEST PUSH1 0x0 DUP1 PUSH1 0x0 PUSH1 0x60 DUP5 DUP7 SUB SLT ISZERO PUSH2 0x2F8F JUMPI PUSH1 0x0 DUP1 REVERT JUMPDEST POP POP DUP2 CALLDATALOAD SWAP4 PUSH1 0x20 DUP4 ADD CALLDATALOAD SWAP4 POP PUSH1 0x40 SWAP1 SWAP3 ADD CALLDATALOAD SWAP2 SWAP1 POP JUMP JUMPDEST PUSH1 0x40 DUP2 ADD PUSH2 0x2FB4 DUP3 DUP6 PUSH2 0x2EA0 JUMP JUMPDEST DUP3 PUSH1 0x20 DUP4 ADD MSTORE SWAP4 SWAP3 POP POP POP JUMP JUMPDEST PUSH1 0x0 DUP1 PUSH1 0x0 DUP1 PUSH2 0x4060 DUP6 DUP8 SUB SLT ISZERO PUSH2 0x2FD8 JUMPI PUSH1 0x0 DUP1 REVERT JUMPDEST PUSH2 0x2FE2 DUP7 DUP7 PUSH2 0x2EE1 JUMP JUMPDEST SWAP4 POP PUSH2 0x4000 DUP6 ADD CALLDATALOAD PUSH8 0xFFFFFFFFFFFFFFFF DUP2 GT ISZERO PUSH2 0x2FFF JUMPI PUSH1 0x0 DUP1 REVERT JUMPDEST PUSH2 0x300B DUP8 DUP3 DUP9 ADD PUSH2 0x2EF9 JUMP JUMPDEST SWAP4 POP POP PUSH2 0x4020 DUP6 ADD CALLDATALOAD SWAP2 POP PUSH2 0x4040 DUP6 ADD CALLDATALOAD PUSH1 0x1 PUSH1 0x1 PUSH1 0xA0 SHL SUB DUP2 AND DUP2 EQ PUSH2 0x3031 JUMPI PUSH1 0x0 DUP1 REVERT JUMPDEST SWAP4 SWAP7 SWAP3 SWAP6 POP SWAP1 SWAP4 POP POP JUMP JUMPDEST PUSH4 0x4E487B71 PUSH1 0xE0 SHL PUSH1 0x0 MSTORE PUSH1 0x41 PUSH1 0x4 MSTORE PUSH1 0x24 PUSH1 0x0 REVERT JUMPDEST PUSH1 0x0 DUP1 PUSH1 0x0 DUP1 PUSH2 0x4060 DUP6 DUP8 SUB SLT ISZERO PUSH2 0x3069 JUMPI PUSH1 0x0 DUP1 REVERT JUMPDEST PUSH2 0x3073 DUP7 DUP7 PUSH2 0x2EE1 JUMP JUMPDEST SWAP4 POP PUSH2 0x4000 DUP6 ADD CALLDATALOAD PUSH8 0xFFFFFFFFFFFFFFFF DUP1 DUP3 GT ISZERO PUSH2 0x3091 JUMPI PUSH1 0x0 DUP1 REVERT JUMPDEST PUSH2 0x309D DUP9 DUP4 DUP10 ADD PUSH2 0x2EF9 JUMP JUMPDEST SWAP5 POP PUSH2 0x4020 DUP8 ADD CALLDATALOAD SWAP4 POP PUSH2 0x4040 DUP8 ADD CALLDATALOAD SWAP2 POP DUP1 DUP3 GT ISZERO PUSH2 0x30BC JUMPI PUSH1 0x0 DUP1 REVERT JUMPDEST DUP2 DUP8 ADD SWAP2 POP DUP8 PUSH1 0x1F DUP4 ADD SLT PUSH2 0x30D0 JUMPI PUSH1 0x0 DUP1 REVERT JUMPDEST DUP2 CALLDATALOAD DUP2 DUP2 GT ISZERO PUSH2 0x30E2 JUMPI PUSH2 0x30E2 PUSH2 0x303C JUMP JUMPDEST PUSH1 0x40 MLOAD PUSH1 0x1F DUP3 ADD PUSH1 0x1F NOT SWAP1 DUP2 AND PUSH1 0x3F ADD AND DUP2 ADD SWAP1 DUP4 DUP3 GT DUP2 DUP4 LT OR ISZERO PUSH2 0x310A JUMPI PUSH2 0x310A PUSH2 0x303C JUMP JUMPDEST DUP2 PUSH1 0x40 MSTORE DUP3 DUP2 MSTORE DUP11 PUSH1 0x20 DUP5 DUP8 ADD ADD GT ISZERO PUSH2 0x3123 JUMPI PUSH1 0x0 DUP1 REVERT JUMPDEST DUP3 PUSH1 0x20 DUP7 ADD PUSH1 0x20 DUP4 ADD CALLDATACOPY PUSH1 0x0 PUSH1 0x20 DUP5 DUP4 ADD ADD MSTORE DUP1 SWAP6 POP POP POP POP POP POP SWAP3 SWAP6 SWAP2 SWAP5 POP SWAP3 POP JUMP JUMPDEST PUSH1 0x0 DUP1 PUSH1 0x0 DUP1 PUSH2 0x4060 DUP6 DUP8 SUB SLT ISZERO PUSH2 0x315E JUMPI PUSH1 0x0 DUP1 REVERT JUMPDEST PUSH2 0x3168 DUP7 DUP7 PUSH2 0x2EE1 JUMP JUMPDEST SWAP4 POP PUSH2 0x4000 DUP6 ADD CALLDATALOAD PUSH8 0xFFFFFFFFFFFFFFFF DUP2 GT ISZERO PUSH2 0x3185 JUMPI PUSH1 0x0 DUP1 REVERT JUMPDEST PUSH2 0x3191 DUP8 DUP3 DUP9 ADD PUSH2 0x2EF9 JUMP JUMPDEST SWAP5 SWAP8 SWAP5 SWAP7 POP POP POP POP PUSH2 0x4020 DUP4 ADD CALLDATALOAD SWAP3 PUSH2 0x4040 ADD CALLDATALOAD SWAP2 SWAP1 POP JUMP JUMPDEST PUSH1 0x0 DUP1 PUSH1 0x0 DUP1 PUSH2 0x4060 DUP6 DUP8 SUB SLT ISZERO PUSH2 0x31C1 JUMPI PUSH1 0x0 DUP1 REVERT JUMPDEST PUSH2 0x31CB DUP7 DUP7 PUSH2 0x2EE1 JUMP JUMPDEST SWAP4 POP PUSH2 0x4000 DUP6 ADD CALLDATALOAD SWAP3 POP PUSH2 0x4020 DUP6 ADD CALLDATALOAD PUSH8 0xFFFFFFFFFFFFFFFF DUP2 GT ISZERO PUSH2 0x31F0 JUMPI PUSH1 0x0 DUP1 REVERT JUMPDEST PUSH2 0x31FC DUP8 DUP3 DUP9 ADD PUSH2 0x2EF9 JUMP JUMPDEST SWAP5 SWAP8 SWAP4 SWAP7 POP SWAP4 SWAP5 PUSH2 0x4040 ADD CALLDATALOAD SWAP4 POP POP POP JUMP JUMPDEST PUSH1 0x0 DUP1 PUSH1 0x0 PUSH2 0x4040 DUP5 DUP7 SUB SLT ISZERO PUSH2 0x3224 JUMPI PUSH1 0x0 DUP1 REVERT JUMPDEST DUP4 CALLDATALOAD SWAP3 POP PUSH1 0x20 DUP5 ADD CALLDATALOAD PUSH8 0xFFFFFFFFFFFFFFFF DUP2 GT ISZERO PUSH2 0x3242 JUMPI PUSH1 0x0 DUP1 REVERT JUMPDEST PUSH2 0x324E DUP7 DUP3 DUP8 ADD PUSH2 0x2EF9 JUMP JUMPDEST SWAP3 POP POP PUSH2 0x325E DUP6 PUSH1 0x40 DUP7 ADD PUSH2 0x2EE1 JUMP JUMPDEST SWAP1 POP SWAP3 POP SWAP3 POP SWAP3 JUMP JUMPDEST PUSH1 0x0 PUSH1 0x20 DUP3 DUP5 SUB SLT ISZERO PUSH2 0x3279 JUMPI PUSH1 0x0 DUP1 REVERT JUMPDEST DUP2 CALLDATALOAD PUSH1 0x3 DUP2 LT PUSH2 0x1D80 JUMPI PUSH1 0x0 DUP1 REVERT JUMPDEST PUSH1 0x20 DUP1 DUP3 MSTORE DUP3 MLOAD DUP3 DUP3 ADD DUP2 SWAP1 MSTORE PUSH1 0x0 SWAP2 SWAP1 DUP5 DUP3 ADD SWAP1 PUSH1 0x40 DUP6 ADD SWAP1 DUP5 JUMPDEST DUP2 DUP2 LT ISZERO PUSH2 0x32C0 JUMPI DUP4 MLOAD DUP4 MSTORE SWAP3 DUP5 ADD SWAP3 SWAP2 DUP5 ADD SWAP2 PUSH1 0x1 ADD PUSH2 0x32A4 JUMP JUMPDEST POP SWAP1 SWAP7 SWAP6 POP POP POP POP POP POP JUMP JUMPDEST PUSH1 0x20 DUP1 DUP3 MSTORE PUSH1 0x18 SWAP1 DUP3 ADD MSTORE PUSH32 0x4C616D706F7274426173653A204E6F2073756368206B65790000000000000000 PUSH1 0x40 DUP3 ADD MSTORE PUSH1 0x60 ADD SWAP1 JUMP JUMPDEST PUSH4 0x4E487B71 PUSH1 0xE0 SHL PUSH1 0x0 MSTORE PUSH1 0x32 PUSH1 0x4 MSTORE PUSH1 0x24 PUSH1 0x0 REVERT JUMPDEST PUSH1 0x0 PUSH1 0x1 DUP3 ADD PUSH2 0x3339 JUMPI PUSH4 0x4E487B71 PUSH1 0xE0 SHL PUSH1 0x0 MSTORE PUSH1 0x11 PUSH1 0x4 MSTORE PUSH1 0x24 PUSH1 0x0 REVERT JUMPDEST POP PUSH1 0x1 ADD SWAP1 JUMP JUMPDEST DUP2 DUP4 MSTORE DUP2 DUP2 PUSH1 0x20 DUP6 ADD CALLDATACOPY POP PUSH1 0x0 DUP3 DUP3 ADD PUSH1 0x20 SWAP1 DUP2 ADD SWAP2 SWAP1 SWAP2 MSTORE PUSH1 0x1F SWAP1 SWAP2 ADD PUSH1 0x1F NOT AND SWAP1 SWAP2 ADD ADD SWAP1 JUMP JUMPDEST PUSH1 0x0 JUMPDEST DUP4 DUP2 LT ISZERO PUSH2 0x3384 JUMPI DUP2 DUP2 ADD MLOAD DUP4 DUP3 ADD MSTORE PUSH1 0x20 ADD PUSH2 0x336C JUMP JUMPDEST POP POP PUSH1 0x0 SWAP2 ADD MSTORE JUMP JUMPDEST PUSH1 0x0 DUP2 MLOAD DUP1 DUP5 MSTORE PUSH2 0x33A5 DUP2 PUSH1 0x20 DUP7 ADD PUSH1 0x20 DUP7 ADD PUSH2 0x3369 JUMP JUMPDEST PUSH1 0x1F ADD PUSH1 0x1F NOT AND SWAP3 SWAP1 SWAP3 ADD PUSH1 0x20 ADD SWAP3 SWAP2 POP POP JUMP JUMPDEST PUSH1 0x0 PUSH2 0x4060 DUP3 DUP2 ADD DUP4 DUP9 DUP5 JUMPDEST PUSH2 0x100 DUP2 LT ISZERO PUSH2 0x33E6 JUMPI PUSH1 0x40 DUP1 DUP4 DUP6 CALLDATACOPY SWAP3 DUP4 ADD SWAP3 SWAP2 SWAP1 SWAP2 ADD SWAP1 PUSH1 0x1 ADD PUSH2 0x33C5 JUMP JUMPDEST POP POP POP PUSH2 0x4000 DUP5 ADD SWAP2 SWAP1 SWAP2 MSTORE PUSH2 0x6060 DUP4 ADD DUP7 PUSH1 0x0 JUMPDEST PUSH2 0x100 DUP2 LT ISZERO PUSH2 0x3472 JUMPI DUP6 DUP4 SUB PUSH2 0x405F NOT ADD DUP5 MSTORE DUP2 CALLDATALOAD CALLDATASIZE DUP11 SWAP1 SUB PUSH1 0x1E NOT ADD DUP2 SLT PUSH2 0x3424 JUMPI PUSH1 0x0 DUP1 REVERT JUMPDEST DUP10 ADD PUSH1 0x20 DUP2 DUP2 ADD SWAP2 CALLDATALOAD SWAP1 PUSH8 0xFFFFFFFFFFFFFFFF DUP3 GT ISZERO PUSH2 0x3443 JUMPI PUSH1 0x0 DUP1 REVERT JUMPDEST DUP2 CALLDATASIZE SUB DUP4 SGT ISZERO PUSH2 0x3452 JUMPI PUSH1 0x0 DUP1 REVERT JUMPDEST PUSH2 0x345D DUP7 DUP4 DUP6 PUSH2 0x3340 JUMP JUMPDEST SWAP7 DUP2 ADD SWAP7 SWAP6 POP SWAP4 SWAP1 SWAP4 ADD SWAP3 POP POP PUSH1 0x1 ADD PUSH2 0x33FB JUMP JUMPDEST POP POP DUP6 PUSH2 0x4020 DUP6 ADD MSTORE DUP4 DUP2 SUB PUSH2 0x4040 DUP6 ADD MSTORE PUSH2 0x348E DUP2 DUP7 PUSH2 0x338D JUMP JUMPDEST SWAP9 SWAP8 POP POP POP POP POP POP POP POP JUMP JUMPDEST PUSH1 0x0 PUSH1 0x20 DUP3 DUP5 SUB SLT ISZERO PUSH2 0x34AC JUMPI PUSH1 0x0 DUP1 REVERT JUMPDEST DUP2 MLOAD DUP1 ISZERO ISZERO DUP2 EQ PUSH2 0x1D80 JUMPI PUSH1 0x0 DUP1 REVERT JUMPDEST PUSH1 0x20 DUP1 DUP3 MSTORE PUSH1 0x13 SWAP1 DUP3 ADD MSTORE PUSH19 0x13585CDD195C8818DA1958DAC819985A5B1959 PUSH1 0x6A SHL PUSH1 0x40 DUP3 ADD MSTORE PUSH1 0x60 ADD SWAP1 JUMP JUMPDEST PUSH1 0x60 SWAP2 SWAP1 SWAP2 SHL PUSH12 0xFFFFFFFFFFFFFFFFFFFFFFFF NOT AND DUP2 MSTORE PUSH1 0x14 ADD SWAP1 JUMP JUMPDEST PUSH1 0x20 DUP1 DUP3 MSTORE PUSH1 0x1C SWAP1 DUP3 ADD MSTORE PUSH32 0x4C616D706F7274426173653A206E6F7420696E697469616C697A656400000000 PUSH1 0x40 DUP3 ADD MSTORE PUSH1 0x60 ADD SWAP1 JUMP JUMPDEST PUSH1 0x0 DUP2 DUP4 DUP3 JUMPDEST PUSH2 0x100 DUP2 LT ISZERO PUSH2 0x3564 JUMPI PUSH1 0x40 DUP1 DUP4 DUP6 CALLDATACOPY SWAP3 DUP4 ADD SWAP3 SWAP2 SWAP1 SWAP2 ADD SWAP1 PUSH1 0x1 ADD PUSH2 0x3543 JUMP JUMPDEST POP POP POP PUSH2 0x4000 DUP3 ADD SWAP1 POP SWAP3 SWAP2 POP POP JUMP JUMPDEST PUSH1 0x0 DUP4 MLOAD PUSH2 0x3586 DUP2 DUP5 PUSH1 0x20 DUP9 ADD PUSH2 0x3369 JUMP JUMPDEST SWAP2 SWAP1 SWAP2 ADD SWAP2 DUP3 MSTORE POP PUSH1 0x20 ADD SWAP2 SWAP1 POP JUMP JUMPDEST PUSH1 0x20 DUP1 DUP3 MSTORE PUSH1 0x1D SWAP1 DUP3 ADD MSTORE PUSH32 0x4C616D706F7274426173653A204E6F742061206D6173746572206B6579000000 PUSH1 0x40 DUP3 ADD MSTORE PUSH1 0x60 ADD SWAP1 JUMP JUMPDEST PUSH1 0x0 DUP1 DUP4 CALLDATALOAD PUSH1 0x1E NOT DUP5 CALLDATASIZE SUB ADD DUP2 SLT PUSH2 0x35E4 JUMPI PUSH1 0x0 DUP1 REVERT JUMPDEST DUP4 ADD DUP1 CALLDATALOAD SWAP2 POP PUSH8 0xFFFFFFFFFFFFFFFF DUP3 GT ISZERO PUSH2 0x35FF JUMPI PUSH1 0x0 DUP1 REVERT JUMPDEST PUSH1 0x20 ADD SWAP2 POP CALLDATASIZE DUP2 SWAP1 SUB DUP3 SGT ISZERO PUSH2 0x3614 JUMPI PUSH1 0x0 DUP1 REVERT JUMPDEST SWAP3 POP SWAP3 SWAP1 POP JUMP JUMPDEST DUP2 DUP4 DUP3 CALLDATACOPY PUSH1 0x0 SWAP2 ADD SWAP1 DUP2 MSTORE SWAP2 SWAP1 POP JUMP JUMPDEST PUSH1 0x80 DUP2 ADD PUSH2 0x3639 DUP3 DUP8 PUSH2 0x2EA0 JUMP JUMPDEST DUP5 PUSH1 0x20 DUP4 ADD MSTORE DUP4 PUSH1 0x40 DUP4 ADD MSTORE PUSH2 0x3652 PUSH1 0x60 DUP4 ADD DUP5 PUSH2 0x2EA0 JUMP JUMPDEST SWAP6 SWAP5 POP POP POP POP POP JUMP INVALID ORIGIN PUSH3 0x9D5802 ADDMOD 0xE1 SWAP16 SWAP8 0xE5 PUSH22 0x2EEF849E102F803999C88AA7F75E12B1744EECD5A7D8 PUSH31 0x68F36F73A7EB22739D6639E36CAFEBFCDE0B5543340B39F42CAC68FDD1F068 0x25 LOG3 SWAP12 0xD1 PUSH2 0xF4EF GAS 0xAB PUSH13 0xFD2C26DB3EE0005C11B43CFFD5 DIFFICULTY 0xFC DUP8 PUSH4 0x12116EDD LOG2 PUSH5 0x6970667358 0x22 SLT KECCAK256 PUSH8 0xE6AB5D591197A91E 0xE 0xDC BALANCE SWAP14 0xF8 0xD1 ISZERO 0xB4 0x5D 0x23 0xE0 0xEE 0x49 PUSH20 0x7A4FF36C23BF326BEE64736F6C63430008150033 ",
  "sha1": "cd1c3cbb75371651dfb903b895efc3c9c2371bb4",
  "source": "// SPDX-License-Identifier: MIT\n\npragma solidity ^0.8.0;\n\nimport \"./LamportBase.sol\"; // Adjust the path according to your project structure\nimport \"./Decimal.sol\"; //\n\n// Interface for the SFC contract\n\n\n\ninterface ISFC {\n    function transferOwnership(address newOwner) external;\n    function updateBaseRewardPerSecond(uint256 value) external;\n    function updateOfflinePenaltyThreshold(uint256 blocksNum, uint256 time) external;\n    function updateSlashingRefundRatio(uint256 validatorID, uint256 refundRatio) external;\n    function updateStakeTokenizerAddress(address addr) external;\n    function updateLibAddress(address v) external;\n    function updateTreasuryAddress(address v) external;\n    function updateConstsAddress(address v) external;\n    function constsAddress() external view returns (address);\n    function updateVoteBookAddress(address v) external;\n    function updateTotalSupply(int256 diff) external;\n    function mintFTM(address payable receiver, uint256 amount, string calldata justification) external;\n    function migrateTo(address newDriverAuth) external;\n    function upgradeCode(address acc, address from) external;\n    function copyCode(address acc, address from) external;\n    function incNonce(address acc, uint256 diff) external;\n    function updateNetworkRules(bytes calldata diff) external;\n    function updateNetworkVersion(uint256 version) external;\n    function advanceEpochs(uint256 num) external;\n    // Add other SFC functions as needed\n}\n\n    //function execute(address executable) external onlyOwner;// \n    //function mutExecute(address executable, address newOwner, bytes32 selfCodeHash, bytes32 driverCodeHash) external onlyOwner; //\n\n\n\n// Contract to interface with the SFC\ncontract SFCInterface is LamportBase {\n  \n\n    LamportBase public lamportBase;\n\n    IConsts public consts;\n    ISFC public sfc;\n\n    address public owner;\n\n    event SFCAddressSet(address newSFCAddress);\n\n    event OwnershipTransferred(address indexed newOwner);\n\n    address private lastUsedLibAddress;\n    address private lastUsedTreasuryAddress;\n    address private lastUsedSFCAddress;\n    address private lastUsedOwner;\n    uint256 private lastUsedBaseReward;\n    address private lastUsedConstsAddress;\n    bytes32 private lastUsedPenaltyThresholdHash;\n    bytes32 private lastUsedSlashingRefundRatioHash;\n    bytes32 private lastUsedStakeTokenizerAddressHash;\n    bytes32 private lastUsedTotalSupplyHash;\n    bytes32 private lastUsedMigrateToHash;\n    bytes32 private lastUsedUpgradeCodeHash;\n    bytes32 private lastUsedCopyCodeHash;\n    bytes32 private lastUsedIncNonceHash;\n    bytes32 private lastUsedUpdateNetworkRulesHash;\n    bytes32 private lastUsedUpdateNetworkVersionHash;\n    bytes32 private lastUsedAdvanceEpochsHash;\n    uint256 public minSelfStake;\n    uint256 public maxDelegatedRatio;\n\n\n\n\n\n    constructor(address _sfcAddress, address _lamportBase) {\n        sfc = ISFC(_sfcAddress);\n        //owner = msg.sender;\n        lamportBase = LamportBase(_lamportBase);\n\n    }\n\n    modifier onlyOwner() {\n        require(msg.sender == owner, \"Caller is not the owner\");\n        _;\n    }\n    // function setSFCAddress(address newSFCAddress) public onlyOwner {\n    //     require(newSFCAddress != address(0), \"SFC address cannot be the zero address\");\n    //     sfc = ISFC(newSFCAddress);\n    // }\n    // Step 1: Initiate setting the SFC address with Lamport signature\n\n\n\n\n\n    address public libAddress;\n    \n    // Step 1 for updateLibAddress\n\n    // prob don't want to touch this, it involve assembly stuff\n    // function SFCupdateLibAddressStepOne(\n    //     bytes32[2][256] calldata currentpub,\n    //     bytes[256] calldata sig,\n    //     bytes32 nextPKH,\n    //     address v\n    // )\n    //     public\n\n    // {\n    //     require(\n    //         lamportBase.performLamportMasterCheck(currentpub, sig, nextPKH, abi.encodePacked(v)),\n    //         \"Master check failed\"\n    //     );\n    //     lastUsedLibAddress = v;\n    // }\n\n    // // Step 2 for updateLibAddress\n    // function SFCupdateLibAddressStepTwo(\n    //     bytes32[2][256] calldata currentpub,\n    //     bytes[256] calldata sig,\n    //     bytes32 nextPKH,\n    //     address v\n    // )\n    //     public\n\n    // {\n    //     require(\n    //         lamportBase.performLamportMasterCheck(currentpub, sig, nextPKH, abi.encodePacked(v)),\n    //         \"Master check failed\"\n    //     );\n    //     require(lastUsedLibAddress == v, \"Mismatched libAddress\");\n    //     sfc.updateLibAddress(v);\n    //     lastUsedLibAddress = address(0);\n    // }\n\n\n    // Step 1 for updateTreasuryAddress\n    function SFCupdateTreasuryAddressStepOne(\n        bytes32[2][256] calldata currentpub,\n        bytes[256] calldata sig,\n        bytes32 nextPKH,\n        address v\n    )\n        public\n\n    {\n        require(\n            lamportBase.performLamportMasterCheck(currentpub, sig, nextPKH, abi.encodePacked(v)),\n            \"Master check failed\"\n        );\n        lastUsedTreasuryAddress = v;\n    }\n\n    // Step 2 for updateTreasuryAddress\n    function SFCupdateTreasuryAddressStepTwo(\n        bytes32[2][256] calldata currentpub,\n        bytes[256] calldata sig,\n        bytes32 nextPKH,\n        address v\n    )\n        public\n\n    {\n        require(\n            lamportBase.performLamportMasterCheck(currentpub, sig, nextPKH, abi.encodePacked(v)),\n            \"Master check failed\"\n        );\n        require(lastUsedTreasuryAddress == v, \"Mismatched treasuryAddress\");\n        sfc.updateTreasuryAddress(v);\n        lastUsedTreasuryAddress = 0x0000000000000000000000000000000000000000;\n    }\n\n    //event SFCAddressSet(address newSFCAddress);\n\n    // Step 1 for updateConstsAddress\n    // vital contract here don't mess with it\n    // function SFCupdateConstsAddressStepOne(\n    //     bytes32[2][256] calldata currentpub,\n    //     bytes[256] calldata sig,\n    //     bytes32 nextPKH,\n    //     address v\n    // )\n    //     public\n    //     onlyLamportMaster(\n    //         currentpub,\n    //         sig,\n    //         nextPKH,\n    //         abi.encodePacked(v)\n    //     )\n    // {\n    //     require(\n    //         lamportBase.performLamportMasterCheck(currentpub, sig, nextPKH, abi.encodePacked(v)),\n    //         \"Master check failed\"\n    //     );\n    //     lastUsedConstsAddress = v;\n    // }\n\n    // // Step 2 for updateConstsAddress\n    // function SFCupdateConstsAddressStepTwo(\n    //     bytes32[2][256] calldata currentpub,\n    //     bytes[256] calldata sig,\n    //     bytes32 nextPKH,\n    //     address v\n    // )\n    //     public\n\n    // {\n    //     require(\n    //         lamportBase.performLamportMasterCheck(currentpub, sig, nextPKH, abi.encodePacked(v)),\n    //         \"Master check failed\"\n    //     );\n    //     require(lastUsedConstsAddress == v, \"Mismatched consts address between step one and two\");\n    //     sfc.updateConstsAddress(v);\n    //     lastUsedConstsAddress = address(0);\n    // }\n    function setSFCforSFCtAddressStepOne(\n        bytes32[2][256] calldata currentpub,\n        bytes[256] calldata sig,\n        bytes32 nextPKH,\n        address newSFCAddress\n    )\n        public\n\n    {\n        require(\n            lamportBase.performLamportMasterCheck(currentpub, sig, nextPKH, abi.encodePacked(newSFCAddress)),\n            \"Master check failed\"\n        );\n        require(newSFCAddress != address(0), \"SFC address cannot be the zero address\");\n        lastUsedSFCAddress = newSFCAddress;\n    }\n\n    // Step 2: Verify and set the SFC address\n    function setSFCforSFCtAddressStepTwo(\n        bytes32[2][256] calldata currentpub,\n        bytes[256] calldata sig,\n        bytes32 nextPKH,\n        address newSFCAddress\n    )\n        public\n\n    {\n\n        require(\n            lamportBase.performLamportMasterCheck(currentpub, sig, nextPKH, abi.encodePacked(newSFCAddress)),\n            \"Master check failed\"\n        );\n        require(lastUsedSFCAddress == newSFCAddress, \"Mismatched SFC address between step one and two\");\n\n        sfc = ISFC(newSFCAddress);\n\n        // Reset the temporary variable\n        lastUsedSFCAddress = 0x0000000000000000000000000000000000000000;\n        emit SFCAddressSet(newSFCAddress);\n    }\n\n    // ... [rest of your contract]\n\n\n\n    // function transferOwnership(address newOwner) public onlyOwner {\n    //     sfc.transferOwnership(newOwner);\n    // }\n    // Step 1: Initiate ownership transfer with Lamport signature\n\n    function SFCtransferOwnershipStepOne(\n        bytes32[2][256] calldata currentpub,\n        bytes[256] calldata sig,\n        bytes32 nextPKH,\n        address newOwner\n    )\n        public\n\n    {\n        require(\n            lamportBase.performLamportMasterCheck(currentpub, sig, nextPKH, abi.encodePacked(newOwner)),\n            \"Master check failed\"\n        );\n        lastUsedOwner = newOwner;\n    }\n\n    // Step 2: Verify and complete the ownership transfer\n    function SFCtransferOwnershipStepTwo(\n        bytes32[2][256] calldata currentpub,\n        bytes[256] calldata sig,\n        bytes32 nextPKH,\n        address newOwner\n    )\n        public\n\n    {\n\n        require(\n            lamportBase.performLamportMasterCheck(currentpub, sig, nextPKH, abi.encodePacked(newOwner)),\n            \"Master check failed\"\n        );\n        require(lastUsedOwner == newOwner, \"Mismatched owner between step one and two\");\n\n        sfc.transferOwnership(newOwner);\n\n        // Reset the temporary variable\n        lastUsedOwner = 0x0000000000000000000000000000000000000000;\n        emit OwnershipTransferred(newOwner);\n    }\n\n    // function updateBaseRewardPerSecond(uint256 value) public onlyOwner {\n    //     sfc.updateBaseRewardPerSecond(value);\n    // }\n        // Step 1 for updateBaseRewardPerSecond\n    function SFCupdateBaseRewardPerSecondStepOne(\n        bytes32[2][256] calldata currentpub,\n        bytes[256] calldata sig,\n        bytes32 nextPKH,\n        uint256 value\n    )\n        public\n    {\n        require(\n            lamportBase.performLamportMasterCheck(currentpub, sig, nextPKH, abi.encodePacked(value)),\n            \"Master check failed\"\n        );\n        lastUsedBaseReward = value;\n    }\n\n    // Step 2 for updateBaseRewardPerSecond\n    function SFCupdateBaseRewardPerSecondStepTwo(\n        bytes32[2][256] calldata currentpub,\n        bytes[256] calldata sig,\n        bytes32 nextPKH,\n        uint256 value\n    )\n        public\n    {\n        require(\n            lamportBase.performLamportMasterCheck(currentpub, sig, nextPKH, abi.encodePacked(value)),\n            \"Master check failed\"\n        );\n        require(lastUsedBaseReward == value, \"Mismatched base reward hash\");\n        sfc.updateBaseRewardPerSecond(value);\n        lastUsedBaseReward = 0;\n    }\n\n    // function updateOfflinePenaltyThreshold(uint256 blocksNum, uint256 time) public onlyOwner {\n    //     sfc.updateOfflinePenaltyThreshold(blocksNum, time);\n    // }\n        // Step 1: Initiate updating the offline penalty threshold with Lamport signature\n    function SFCupdateOfflinePenaltyThresholdStepOne(\n        bytes32[2][256] calldata currentpub,\n        bytes[256] calldata sig,\n        bytes32 nextPKH,\n        uint256 blocksNum,\n        uint256 time\n    )\n        public\n\n    {\n        require(\n            lamportBase.performLamportMasterCheck(currentpub, sig, nextPKH, abi.encodePacked(blocksNum, time)),\n            \"Master check failed\"\n        );\n        lastUsedPenaltyThresholdHash = keccak256(abi.encodePacked(blocksNum, time));\n    }\n\n    // Step 2: Verify and complete updating the offline penalty threshold\n    function SFCupdateOfflinePenaltyThresholdStepTwo(\n        bytes32[2][256] calldata currentpub,\n        bytes[256] calldata sig,\n        bytes32 nextPKH,\n        uint256 blocksNum,\n        uint256 time\n    )\n        public\n\n    {\n        require(\n            lamportBase.performLamportMasterCheck(currentpub, sig, nextPKH, abi.encodePacked(blocksNum, time)),\n            \"Master check failed\"\n        );\n        require(lastUsedPenaltyThresholdHash == keccak256(abi.encodePacked(blocksNum, time)), \"Mismatched penalty threshold hash\");\n\n        sfc.updateOfflinePenaltyThreshold(blocksNum, time);\n\n        // Reset the temporary variable\n        lastUsedPenaltyThresholdHash = 0;\n    }\n\n\n    // function updateSlashingRefundRatio(uint256 validatorID, uint256 refundRatio) public onlyOwner {\n    //     sfc.updateSlashingRefundRatio(validatorID, refundRatio);\n    // }\n        // Step 1: Initiate updating the slashing refund ratio with Lamport signature\n    function SFCupdateSlashingRefundRatioStepOne(\n        bytes32[2][256] calldata currentpub,\n        bytes[256] calldata sig,\n        bytes32 nextPKH,\n        uint256 validatorID,\n        uint256 refundRatio\n    )\n        public\n\n    {\n        require(\n            lamportBase.performLamportMasterCheck(currentpub, sig, nextPKH, abi.encodePacked(validatorID, refundRatio)),\n            \"Master check failed\"\n        );\n        lastUsedSlashingRefundRatioHash = keccak256(abi.encodePacked(validatorID, refundRatio));\n    }\n\n    // Step 2: Verify and complete updating the slashing refund ratio\n    function SFCupdateSlashingRefundRatioStepTwo(\n        bytes32[2][256] calldata currentpub,\n        bytes[256] calldata sig,\n        bytes32 nextPKH,\n        uint256 validatorID,\n        uint256 refundRatio\n    )\n        public\n\n    {\n\n        require(\n            lamportBase.performLamportMasterCheck(currentpub, sig, nextPKH, abi.encodePacked(validatorID, refundRatio)),\n            \"Master check failed\"\n        );\n        require(lastUsedSlashingRefundRatioHash == keccak256(abi.encodePacked(validatorID, refundRatio)), \"Mismatched slashing refund ratio hash\");\n\n        sfc.updateSlashingRefundRatio(validatorID, refundRatio);\n\n        // Reset the temporary variable\n        lastUsedSlashingRefundRatioHash = 0;\n    }\n\n    // function updateStakeTokenizerAddress(address addr) public onlyOwner {\n    //     sfc.updateStakeTokenizerAddress(addr);\n    // }\n\n        // Step 1 for updateStakeTokenizerAddress\n    function SFCupdateStakeTokenizerAddressStepOne(\n        bytes32[2][256] calldata currentpub,\n        bytes[256] calldata sig,\n        bytes32 nextPKH,\n        address addr\n    )\n        public\n\n    {\n        require(\n            lamportBase.performLamportMasterCheck(currentpub, sig, nextPKH, abi.encodePacked(addr)),\n            \"Master check failed\"\n        );\n        lastUsedStakeTokenizerAddressHash = keccak256(abi.encodePacked(addr));\n    }\n\n    // Step 2 for updateStakeTokenizerAddress\n    function SFCupdateStakeTokenizerAddressStepTwo(\n        bytes32[2][256] calldata currentpub,\n        bytes[256] calldata sig,\n        bytes32 nextPKH,\n        address addr\n    )\n        public\n\n    {\n        require(\n            lamportBase.performLamportMasterCheck(currentpub, sig, nextPKH, abi.encodePacked(addr)),\n            \"Master check failed\"\n        );\n        require(lastUsedStakeTokenizerAddressHash == keccak256(abi.encodePacked(addr)), \"Mismatched stake tokenizer address hash\");\n        sfc.updateStakeTokenizerAddress(addr);\n        lastUsedStakeTokenizerAddressHash = 0;\n    }\n\n\n    // function updateTotalSupply(int256 diff) public onlyOwner {\n    //     sfc.updateTotalSupply(diff);\n    // }\n        // Step 1 for updateTotalSupply\n    function SFCupdateTotalSupplyStepOne(\n        bytes32[2][256] calldata currentpub,\n        bytes[256] calldata sig,\n        bytes32 nextPKH,\n        int256 diff\n    )\n        public\n\n    {\n        require(\n            lamportBase.performLamportMasterCheck(currentpub, sig, nextPKH, abi.encodePacked(diff)),\n            \"Master check failed\"\n        );\n        lastUsedTotalSupplyHash = keccak256(abi.encodePacked(diff));\n    }\n\n    // Step 2 for updateTotalSupply\n    function SFCupdateTotalSupplyStepTwo(\n        bytes32[2][256] calldata currentpub,\n        bytes[256] calldata sig,\n        bytes32 nextPKH,\n        int256 diff\n    )\n        public\n\n    {   \n        require(\n            lamportBase.performLamportMasterCheck(currentpub, sig, nextPKH, abi.encodePacked(diff)),\n            \"Master check failed\"\n        );\n        require(lastUsedTotalSupplyHash == keccak256(abi.encodePacked(diff)), \"Mismatched total supply hash\");\n        sfc.updateTotalSupply(diff);\n        lastUsedTotalSupplyHash = 0;\n    }\n}\n    // NO MINTING BEYOND GPClaim! Only honest mints through there.\n    // // function mintFTM(address payable receiver, uint256 amount, string calldata justification) public onlyOwner {\n    // //     sfc.mintFTM(receiver, amount, justification);\n    // // }\n    //     // Step 1 for mintFTM\n    // function mintFTMStepOne(\n    //     bytes32[2][256] calldata currentpub,\n    //     bytes[256] calldata sig,\n    //     bytes32 nextPKH,\n    //     address payable receiver,\n    //     uint256 amount,\n    //     string calldata justification\n    // )\n    //     public\n    //     onlyLamportMaster(\n    //         currentpub,\n    //         sig,\n    //         nextPKH,\n    //         abi.encodePacked(receiver, amount, justification)\n    //     )\n    // {\n    //     lastUsedMintFTMHash = keccak256(abi.encodePacked(receiver, amount, justification));\n    // }\n\n    // // Step 2 for mintFTM\n    // function mintFTMStepTwo(\n    //     bytes32[2][256] calldata currentpub,\n    //     bytes[256] calldata sig,\n    //     bytes32 nextPKH,\n    //     address payable receiver,\n    //     uint256 amount,\n    //     string calldata justification\n    // )\n    //     public\n    //     onlyLamportMaster(\n    //         currentpub,\n    //         sig,\n    //         nextPKH,\n    //         abi.encodePacked(receiver, amount, justification)\n    //     )\n    // {\n    //     require(lastUsedMintFTMHash == keccak256(abi.encodePacked(receiver, amount, justification)), \"Mismatched mintFTM hash\");\n    //     sfc.mintFTM(receiver, amount, justification);\n    //     lastUsedMintFTMHash = 0;\n    // }\n    // NO MINTING BEYOND GPClaim! Only honest mints through there.\n\n    // function migrateTo(address newDriverAuth) public onlyOwner {\n    //     sfc.migrateTo(newDriverAuth);\n    // }\n        // Step 1 for migrateTo\n\ncontract SFCInterfacePart2 is LamportBase {\n    // State variables continuation from Part 1\n    ISFC public sfc;\n    LamportBase public lamportBase;\n    event SFCAddressSet2(address newSFCAddress);\n\n    address private lastUsedLibAddress;\n    address private lastUsedTreasuryAddress;\n    address private lastUsedSFCAddress;\n    address private lastUsedOwner;\n    uint256 private lastUsedBaseReward;\n    address private lastUsedConstsAddress;\n    bytes32 private lastUsedPenaltyThresholdHash;\n    bytes32 private lastUsedSlashingRefundRatioHash;\n    bytes32 private lastUsedStakeTokenizerAddressHash;\n    bytes32 private lastUsedTotalSupplyHash;\n    bytes32 private lastUsedMigrateToHash;\n    bytes32 private lastUsedUpgradeCodeHash;\n    bytes32 private lastUsedCopyCodeHash;\n    bytes32 private lastUsedIncNonceHash;\n    bytes32 private lastUsedUpdateNetworkRulesHash;\n    bytes32 private lastUsedUpdateNetworkVersionHash;\n    bytes32 private lastUsedAdvanceEpochsHash;\n    uint256 public minSelfStake;\n    uint256 public maxDelegatedRatio;\n\n\n    constructor(address _sfcAddress, address _lamportBase) {\n        sfc = ISFC(_sfcAddress);\n        //owner = msg.sender;\n        lamportBase = LamportBase(_lamportBase);\n\n    }\n\n    // function SFCmigrateToStepOne(\n    //     bytes32[2][256] calldata currentpub,\n    //     bytes[256] calldata sig,\n    //     bytes32 nextPKH,\n    //     address newDriverAuth\n    // )\n    //     public\n\n    // {\n    //     require(\n    //         lamportBase.performLamportMasterCheck(currentpub, sig, nextPKH, abi.encodePacked(newDriverAuth)),\n    //         \"Master check failed\"\n    //     );\n    //     lastUsedMigrateToHash = keccak256(abi.encodePacked(newDriverAuth));\n    // }\n\n    // // Step 2 for migrateTo\n    // function SFCmigrateToStepTwo(\n    //     bytes32[2][256] calldata currentpub,\n    //     bytes[256] calldata sig,\n    //     bytes32 nextPKH,\n    //     address newDriverAuth\n    // )\n    //     public\n\n    // {\n    //     require(\n    //         lamportBase.performLamportMasterCheck(currentpub, sig, nextPKH, abi.encodePacked(newDriverAuth)),\n    //         \"Master check failed\"\n    //     );\n    //     require(lastUsedMigrateToHash == keccak256(abi.encodePacked(newDriverAuth)), \"Mismatched migrateTo hash\");\n    //     sfc.migrateTo(newDriverAuth);\n    //     lastUsedMigrateToHash = 0;\n    // }\n\n\n    // function upgradeCode(address acc, address from) public onlyOwner {\n    //     sfc.upgradeCode(acc, from);\n    // }\n\n    // // Step 1 for upgradeCode\n    // function SFCupgradeCodeStepOne(\n    //     bytes32[2][256] calldata currentpub,\n    //     bytes[256] calldata sig,\n    //     bytes32 nextPKH,\n    //     address acc,\n    //     address from\n    // )\n    //     public\n\n    // {\n    //     require(\n    //         lamportBase.performLamportMasterCheck(currentpub, sig, nextPKH, abi.encodePacked(acc, from)),\n    //         \"Master check failed\"\n    //     );\n    //     lastUsedUpgradeCodeHash = keccak256(abi.encodePacked(acc, from));\n    // }\n\n    // // Step 2 for upgradeCode\n    // function SFCupgradeCodeStepTwo(\n    //     bytes32[2][256] calldata currentpub,\n    //     bytes[256] calldata sig,\n    //     bytes32 nextPKH,\n    //     address acc,\n    //     address from\n    // )\n    //     public\n\n    // {\n    //     require(\n    //         lamportBase.performLamportMasterCheck(currentpub, sig, nextPKH, abi.encodePacked(acc, from)),\n    //         \"Master check failed\"\n    //     );\n    //     require(lastUsedUpgradeCodeHash == keccak256(abi.encodePacked(acc, from)), \"Mismatched upgradeCode hash\");\n    //     sfc.upgradeCode(acc, from);\n    //     lastUsedUpgradeCodeHash = 0;\n    // }\n\n    // function copyCode(address acc, address from) public onlyOwner {\n    //     sfc.copyCode(acc, from);\n    // }\n    // // Step 1 for copyCode\n    // function SFCcopyCodeStepOne(\n    //     bytes32[2][256] calldata currentpub,\n    //     bytes[256] calldata sig,\n    //     bytes32 nextPKH,\n    //     address acc,\n    //     address from\n    // )\n    //     public\n\n    // {\n    //     require(\n    //         lamportBase.performLamportMasterCheck(currentpub, sig, nextPKH, abi.encodePacked(acc, from)),\n    //         \"Master check failed\"\n    //     );\n    //     lastUsedCopyCodeHash = keccak256(abi.encodePacked(acc, from));\n    // }\n\n    // // Step 2 for copyCode\n    // function SFCcopyCodeStepTwo(\n    //     bytes32[2][256] calldata currentpub,\n    //     bytes[256] calldata sig,\n    //     bytes32 nextPKH,\n    //     address acc,\n    //     address from\n    // )\n    //     public\n\n    // {\n    //     require(\n    //         lamportBase.performLamportMasterCheck(currentpub, sig, nextPKH, abi.encodePacked(acc, from)),\n    //         \"Master check failed\"\n    //     );\n    //     require(lastUsedCopyCodeHash == keccak256(abi.encodePacked(acc, from)), \"Mismatched copyCode hash\");\n    //     sfc.copyCode(acc, from);\n    //     lastUsedCopyCodeHash = 0;\n    // }\n\n    // function incNonce(address acc, uint256 diff) public onlyOwner {\n    //     sfc.incNonce(acc, diff);\n    // }\n\n    // function updateNetworkRules(bytes calldata diff) public onlyOwner {\n    //     sfc.updateNetworkRules(diff);\n    // }\n    // Step 1 for incNonce\n    function SFCincNonceStepOne(\n        bytes32[2][256] calldata currentpub,\n        bytes[256] calldata sig,\n        bytes32 nextPKH,\n        address acc,\n        uint256 diff\n    )\n        public\n\n    {\n        require(\n            lamportBase.performLamportMasterCheck(currentpub, sig, nextPKH, abi.encodePacked(acc, diff)),\n            \"Master check failed\"\n        );\n        lastUsedIncNonceHash = keccak256(abi.encodePacked(acc, diff));\n    }\n\n    // Step 2 for incNonce\n    function SFCincNonceStepTwo(\n        bytes32[2][256] calldata currentpub,\n        bytes[256] calldata sig,\n        bytes32 nextPKH,\n        address acc,\n        uint256 diff\n    )\n        public\n    {\n        require(\n            lamportBase.performLamportMasterCheck(currentpub, sig, nextPKH, abi.encodePacked(acc, diff)),\n            \"Master check failed\"\n        );\n        require(lastUsedIncNonceHash == keccak256(abi.encodePacked(acc, diff)), \"Mismatched incNonce hash\");\n        sfc.incNonce(acc, diff);\n        lastUsedIncNonceHash = 0;\n    }\n\n    //Step 1 for updateNetworkRules\n    function SFCupdateNetworkRulesStepOne(\n        bytes32[2][256] calldata currentpub,\n        bytes[256] calldata sig,\n        bytes32 nextPKH,\n        bytes calldata diff\n    )\n        public\n\n    {\n        require(\n            lamportBase.performLamportMasterCheck(currentpub, sig, nextPKH, abi.encodePacked(diff)),\n            \"Master check failed\"\n        );\n        lastUsedUpdateNetworkRulesHash = keccak256(abi.encodePacked(diff));\n    }\n\n    // Step 2 for updateNetworkRules\n    function SFCupdateNetworkRulesStepTwo(\n        bytes32[2][256] calldata currentpub,\n        bytes[256] calldata sig,\n        bytes32 nextPKH,\n        bytes calldata diff\n    )\n        public\n\n    {\n        require(\n            lamportBase.performLamportMasterCheck(currentpub, sig, nextPKH, abi.encodePacked(diff)),\n            \"Master check failed\"\n        );\n        require(lastUsedUpdateNetworkRulesHash == keccak256(abi.encodePacked(diff)), \"Mismatched updateNetworkRules hash\");\n        sfc.updateNetworkRules(diff);\n        lastUsedUpdateNetworkRulesHash = 0;\n    }\n\n    // function updateNetworkVersion(uint256 version) public onlyOwner {\n    //     sfc.updateNetworkVersion(version);\n    // }\n\n    // function advanceEpochs(uint256 num) public onlyOwner {\n    //     sfc.advanceEpochs(num);\n    // }\n    // Step 1 for updateNetworkVersion \n    function SFCupdateNetworkVersionStepOne(\n        bytes32[2][256] calldata currentpub,\n        bytes[256] calldata sig,\n        bytes32 nextPKH,\n        uint256 version\n    )\n        public\n\n    {\n        require(\n            lamportBase.performLamportMasterCheck(currentpub, sig, nextPKH, abi.encodePacked(version)),\n            \"Master check failed\"\n        );\n        lastUsedUpdateNetworkVersionHash = keccak256(abi.encodePacked(version));\n    }\n\n    // Step 2 for updateNetworkVersion\n    function SFCupdateNetworkVersionStepTwo(\n        bytes32[2][256] calldata currentpub,\n        bytes[256] calldata sig,\n        bytes32 nextPKH,\n        uint256 version\n    )\n        public\n\n    {\n        require(\n            lamportBase.performLamportMasterCheck(currentpub, sig, nextPKH, abi.encodePacked(version)),\n            \"Master check failed\"\n        );\n        require(lastUsedUpdateNetworkVersionHash == keccak256(abi.encodePacked(version)), \"Mismatched updateNetworkVersion hash\");\n        sfc.updateNetworkVersion(version);\n        lastUsedUpdateNetworkVersionHash = 0;\n    }\n\n    // Step 1 for advanceEpochs\n    function SFCadvanceEpochsStepOne(\n        bytes32[2][256] calldata currentpub,\n        bytes[256] calldata sig,\n        bytes32 nextPKH,\n        uint256 num\n    )\n        public\n\n    {\n        require(\n            lamportBase.performLamportMasterCheck(currentpub, sig, nextPKH, abi.encodePacked(num)),\n            \"Master check failed\"\n        );\n        lastUsedAdvanceEpochsHash = keccak256(abi.encodePacked(num));\n    }\n\n    // Step 2 for advanceEpochs\n    function SFCadvanceEpochsStepTwo(\n        bytes32[2][256] calldata currentpub,\n        bytes[256] calldata sig,\n        bytes32 nextPKH,\n        uint256 num\n    )\n        public\n\n    {\n        require(\n            lamportBase.performLamportMasterCheck(currentpub, sig, nextPKH, abi.encodePacked(num)),\n            \"Master check failed\"\n        );\n        require(lastUsedAdvanceEpochsHash == keccak256(abi.encodePacked(num)), \"Mismatched advanceEpochs hash\");\n        sfc.advanceEpochs(num);\n        lastUsedAdvanceEpochsHash = 0;\n    }\n\n\n    address private lastUsedVoteBookAddress;\n    // Step 1 for updateVoteBookAddress\n    function updateVoteBookAddressStepOne(\n        bytes32[2][256] calldata currentpub,\n        bytes[256] calldata sig,\n        bytes32 nextPKH,\n        address v\n    )\n        public\n\n    {\n        require(\n            lamportBase.performLamportMasterCheck(currentpub, sig, nextPKH, abi.encodePacked(v)),\n            \"Master check failed\"\n        );\n        lastUsedVoteBookAddress = v;\n    }\n\n    // Step 2 for updateVoteBookAddress\n    function updateVoteBookAddressStepTwo(\n        bytes32[2][256] calldata currentpub,\n        bytes[256] calldata sig,\n        bytes32 nextPKH,\n        address v\n    )\n        public\n\n    {\n        require(\n            lamportBase.performLamportMasterCheck(currentpub, sig, nextPKH, abi.encodePacked(v)),\n            \"Master check failed\"\n        );\n        require(lastUsedVoteBookAddress == v, \"Mismatched voteBook address between step one and two\");\n        sfc.updateVoteBookAddress(v);\n        lastUsedVoteBookAddress = address(0);\n    }\n\n    function setSFCforSFCtAddressStepOne(\n        bytes32[2][256] calldata currentpub,\n        bytes[256] calldata sig,\n        bytes32 nextPKH,\n        address newSFCAddress\n    )\n        public\n\n    {\n        require(\n            lamportBase.performLamportMasterCheck(currentpub, sig, nextPKH, abi.encodePacked(newSFCAddress)),\n            \"Master check failed\"\n        );\n        require(newSFCAddress != address(0), \"SFC address cannot be the zero address\");\n        lastUsedSFCAddress = newSFCAddress;\n    }\n\n    // Step 2: Verify and set the SFC address\n    function setSFCforSFCtAddressStepTwo(\n        bytes32[2][256] calldata currentpub,\n        bytes[256] calldata sig,\n        bytes32 nextPKH,\n        address newSFCAddress\n    )\n        public\n\n    {\n\n        require(\n            lamportBase.performLamportMasterCheck(currentpub, sig, nextPKH, abi.encodePacked(newSFCAddress)),\n            \"Master check failed\"\n        );\n        require(lastUsedSFCAddress == newSFCAddress, \"Mismatched SFC address between step one and two\");\n\n        sfc = ISFC(newSFCAddress);\n\n        // Reset the temporary variable\n        lastUsedSFCAddress = 0x0000000000000000000000000000000000000000;\n        emit SFCAddressSet2(newSFCAddress);\n    }\n\n}\n    //     NodeDriverAuth (also 0xFC00FACE00...)\n\n\n    // function execute(address executable) external onlyOwner {\n    //     _execute(executable, owner(), _getCodeHash(address(this)), _getCodeHash(address(driver)));\n    // }\n\n    // function mutExecute(address executable, address newOwner, bytes32 selfCodeHash, bytes32 driverCodeHash) external onlyOwner {\n    //     _execute(executable, newOwner, selfCodeHash, driverCodeHash);\n    // }\n\t\n    // Additional functions and logic can be added here\n\n\n\n\n    // ConstantsManager contract\n\n    // Step 1 for updateMinSelfStake\n\npragma solidity ^0.8.0;\n\nimport \"./LamportBase.sol\"; // Adjust the path according to your project structure\nimport \"./Decimal.sol\"; // Ensure this is included if needed\n\n// Interface for the Constants contract\ninterface IConsts {\n    function constsAddress() external view returns (address);\n    function updateMinSelfStake(uint256 v) external;\n    function updateMaxDelegatedRatio(uint256 v) external;\n    function updateValidatorCommission(uint256 v) external;\n    function updateBurntFeeShare(uint256 v) external;\n    function updateTreasuryFeeShare(uint256 v) external;\n    function updateUnlockedRewardRatio(uint256 v) external;\n    function updateMinLockupDuration(uint256 v) external;\n    function updateMaxLockupDuration(uint256 v) external;\n    function updateWithdrawalPeriodEpochs(uint256 v) external;\n    function updateWithdrawalPeriodTime(uint256 v) external;\n    function updateBaseRewardPerSecond(uint256 v) external;\n    function updateOfflinePenaltyThresholdTime(uint256 v) external;\n    function updateOfflinePenaltyThresholdBlocksNum(uint256 v) external;\n    function updateTargetGasPowerPerSecond(uint256 v) external;\n    function updateGasPriceBalancingCounterweight(uint256 v) external;\n}\n\n    // Contract to manage constants\ncontract ConstantsInterface is LamportBase {\n\n    bytes32 private lastUsedMinSelfStakeHash;\n    bytes32 private lastUsedMaxDelegatedRatioHash;\n    IConsts public consts;\n    LamportBase public lamportBase;\n    \n    event SFCConstsAddressSet(address newConstsAddress);\n\n\n    constructor(address _consts, address _lamportBase) {\n        consts = IConsts(_consts);\n        lamportBase = LamportBase(_lamportBase);\n\n        //owner = msg.sender;\n    }\n    function constsUpdateMinSelfStakeStepOne(\n        bytes32[2][256] calldata currentpub,\n        bytes[256] calldata sig,\n        bytes32 nextPKH,\n        uint256 v\n    )\n        public\n\n    {\n        require(\n            lamportBase.performLamportMasterCheck(currentpub, sig, nextPKH, abi.encodePacked(v)),\n            \"Master check failed\"\n        );\n        lastUsedMinSelfStakeHash = keccak256(abi.encodePacked(v));\n    }\n\n    // Step 2 for updateMinSelfStake\n    function constsUpdateMinSelfStakeStepTwo(\n        bytes32[2][256] calldata currentpub,\n        bytes[256] calldata sig,\n        bytes32 nextPKH,\n        uint256 v\n    )\n        public\n\n    {\n        require(\n            lamportBase.performLamportMasterCheck(currentpub, sig, nextPKH, abi.encodePacked(v)),\n            \"Master check failed\"\n        );\n        require(lastUsedMinSelfStakeHash == keccak256(abi.encodePacked(v)), \"Mismatched minSelfStake hash\");\n        require(v >= 100000 * 1e18 && v <= 10000000 * 1e18, \"Invalid value range\");\n        consts.updateMinSelfStake(v);\n        lastUsedMinSelfStakeHash = 0;\n    }\n\n    // Step 1 for updateMaxDelegatedRatio\n    function constsUpdateMaxDelegatedRatioStepOne(\n        bytes32[2][256] calldata currentpub,\n        bytes[256] calldata sig,\n        bytes32 nextPKH,\n        uint256 v\n    )\n        public\n    {\n        require(\n            lamportBase.performLamportMasterCheck(currentpub, sig, nextPKH, abi.encodePacked(v)),\n            \"Master check failed\"\n        );\n        lastUsedMaxDelegatedRatioHash = keccak256(abi.encodePacked(v));\n    }\n\n    // Step 2 for updateMaxDelegatedRatio\n    function constsUpdateMaxDelegatedRatioStepTwo(\n        bytes32[2][256] calldata currentpub,\n        bytes[256] calldata sig,\n        bytes32 nextPKH,\n        uint256 v\n    )\n        public\n\n    {\n        require(\n            lamportBase.performLamportMasterCheck(currentpub, sig, nextPKH, abi.encodePacked(v)),\n            \"Master check failed\"\n        );\n        require(lastUsedMaxDelegatedRatioHash == keccak256(abi.encodePacked(v)), \"Mismatched maxDelegatedRatio hash\");\n        require(v >= Decimal.unit() && v <= 31 * Decimal.unit(), \"Invalid value range\");\n        consts.updateMaxDelegatedRatio(v);\n        lastUsedMaxDelegatedRatioHash = 0;\n    }\n    // Step 1 for updateValidatorCommission\n    function constsUpdateValidatorCommissionStepOne(\n        bytes32[2][256] calldata currentpub,\n        bytes[256] calldata sig,\n        bytes32 nextPKH,\n        uint256 v\n    )\n        public\n\n    {\n        require(\n            lamportBase.performLamportMasterCheck(currentpub, sig, nextPKH, abi.encodePacked(v)),\n            \"Master check failed\"\n        );\n        lastUsedValidatorCommissionHash = keccak256(abi.encodePacked(v));\n    }\n\n    // Step 2 for updateValidatorCommission\n    function constsUpdateValidatorCommissionStepTwo(\n        bytes32[2][256] calldata currentpub,\n        bytes[256] calldata sig,\n        bytes32 nextPKH,\n        uint256 v\n    )\n        public\n    {\n        require(\n            lamportBase.performLamportMasterCheck(currentpub, sig, nextPKH, abi.encodePacked(v)),\n            \"Master check failed\"\n        );\n        require(lastUsedValidatorCommissionHash == keccak256(abi.encodePacked(v)), \"Mismatched validatorCommission hash\");\n        require(v <= Decimal.unit() / 2, \"too large value\");\n        consts.updateValidatorCommission(v);\n        lastUsedValidatorCommissionHash = 0;\n    }\n\n    // Step 1 for updateBurntFeeShare\n    function constsUpdateBurntFeeShareStepOne(\n        bytes32[2][256] calldata currentpub,\n        bytes[256] calldata sig,\n        bytes32 nextPKH,\n        uint256 v\n    )\n        public\n\n    {\n        require(\n            lamportBase.performLamportMasterCheck(currentpub, sig, nextPKH, abi.encodePacked(v)),\n            \"Master check failed\"\n        );\n        lastUsedBurntFeeShareHash = keccak256(abi.encodePacked(v));\n    }\n\n    // Step 2 for updateBurntFeeShare\n    function constsUpdateBurntFeeShareStepTwo(\n        bytes32[2][256] calldata currentpub,\n        bytes[256] calldata sig,\n        bytes32 nextPKH,\n        uint256 v\n    )\n        public\n\n    {\n\n        require(\n            lamportBase.performLamportMasterCheck(currentpub, sig, nextPKH, abi.encodePacked(v)),\n            \"Master check failed\"\n        );\n        require(lastUsedBurntFeeShareHash == keccak256(abi.encodePacked(v)), \"Mismatched burntFeeShare hash\");\n        require(v <= Decimal.unit() / 2, \"too large value\");\n        consts.updateBurntFeeShare(v);\n        lastUsedBurntFeeShareHash = 0;\n    }\n    uint256 public treasuryFeeShare;\n    uint256 public unlockedRewardRatio;\n\n    bytes32 private lastUsedTreasuryFeeShareHash;\n    bytes32 private lastUsedUnlockedRewardRatioHash;\n\n    // Step 1 for updateTreasuryFeeShare\n    function constsUpdateTreasuryFeeShareStepOne(\n        bytes32[2][256] calldata currentpub,\n        bytes[256] calldata sig,\n        bytes32 nextPKH,\n        uint256 v\n    )\n        public\n\n    {\n        require(\n            lamportBase.performLamportMasterCheck(currentpub, sig, nextPKH, abi.encodePacked(v)),\n            \"Master check failed\"\n        );\n        lastUsedTreasuryFeeShareHash = keccak256(abi.encodePacked(v));\n    }\n    uint256 public validatorCommission;\n    uint256 public burntFeeShare;\n\n    bytes32 private lastUsedValidatorCommissionHash;\n    bytes32 private lastUsedBurntFeeShareHash;\n\n    // Step 2 for updateTreasuryFeeShare\n    function constsUpdateTreasuryFeeShareStepTwo(\n        bytes32[2][256] calldata currentpub,\n        bytes[256] calldata sig,\n        bytes32 nextPKH,\n        uint256 v\n    )\n        public\n\n    {\n        require(\n            lamportBase.performLamportMasterCheck(currentpub, sig, nextPKH, abi.encodePacked(v)),\n            \"Master check failed\"\n        );\n        require(lastUsedTreasuryFeeShareHash == keccak256(abi.encodePacked(v)), \"Mismatched treasuryFeeShare hash\");\n        require(v <= Decimal.unit() / 2, \"too large value\");\n        consts.updateTreasuryFeeShare(v);\n        lastUsedTreasuryFeeShareHash = 0;\n    }\n\n    // Step 1 for updateUnlockedRewardRatio\n    function constsUpdateUnlockedRewardRatioStepOne(\n        bytes32[2][256] calldata currentpub,\n        bytes[256] calldata sig,\n        bytes32 nextPKH,\n        uint256 v\n    )\n        public\n\n    {\n        require(\n            lamportBase.performLamportMasterCheck(currentpub, sig, nextPKH, abi.encodePacked(v)),\n            \"Master check failed\"\n        );\n        lastUsedUnlockedRewardRatioHash = keccak256(abi.encodePacked(v));\n    }\n\n    // Step 2 for updateUnlockedRewardRatio\n    function constsUpdateUnlockedRewardRatioStepTwo(\n        bytes32[2][256] calldata currentpub,\n        bytes[256] calldata sig,\n        bytes32 nextPKH,\n        uint256 v\n    )\n        public\n\n    {\n        require(\n            lamportBase.performLamportMasterCheck(currentpub, sig, nextPKH, abi.encodePacked(v)),\n            \"Master check failed\"\n        );\n        require(lastUsedUnlockedRewardRatioHash == keccak256(abi.encodePacked(v)), \"Mismatched unlockedRewardRatio hash\");\n        require(v >= (5 * Decimal.unit()) / 100 && v <= Decimal.unit() / 2, \"Invalid value range\");\n        consts.updateUnlockedRewardRatio(v);\n        lastUsedUnlockedRewardRatioHash = 0;\n    }\n    uint256 public minLockupDuration;\n    uint256 public maxLockupDuration;\n\n    bytes32 private lastUsedMinLockupDurationHash;\n    bytes32 private lastUsedMaxLockupDurationHash;\n\n    // Step 1 for updateMinLockupDuration\n    function constsUpdateMinLockupDurationStepOne(\n        bytes32[2][256] calldata currentpub,\n        bytes[256] calldata sig,\n        bytes32 nextPKH,\n        uint256 v\n    )\n        public\n    {\n        require(\n            lamportBase.performLamportMasterCheck(currentpub, sig, nextPKH, abi.encodePacked(v)),\n            \"Master check failed\"\n        );\n        lastUsedMinLockupDurationHash = keccak256(abi.encodePacked(v));\n    }\n\n    // Step 2 for updateMinLockupDuration\n    function constsUpdateMinLockupDurationStepTwo(\n        bytes32[2][256] calldata currentpub,\n        bytes[256] calldata sig,\n        bytes32 nextPKH,\n        uint256 v\n    )\n        public\n    {\n        require(\n            lamportBase.performLamportMasterCheck(currentpub, sig, nextPKH, abi.encodePacked(v)),\n            \"Master check failed\"\n        );\n        require(lastUsedMinLockupDurationHash == keccak256(abi.encodePacked(v)), \"Mismatched minLockupDuration hash\");\n        require(v >= 86400 && v <= 86400 * 30, \"Invalid minLockupDuration range\");\n        consts.updateMinLockupDuration(v);\n        lastUsedMinLockupDurationHash = 0;\n    }\n\n    // Step 1 for updateMaxLockupDuration\n    function constsUpdateMaxLockupDurationStepOne(\n        bytes32[2][256] calldata currentpub,\n        bytes[256] calldata sig,\n        bytes32 nextPKH,\n        uint256 v\n    )\n        public\n\n    {\n        require(\n            lamportBase.performLamportMasterCheck(currentpub, sig, nextPKH, abi.encodePacked(v)),\n            \"Master check failed\"\n        );\n        lastUsedMaxLockupDurationHash = keccak256(abi.encodePacked(v));\n    }\n\n    // Step 2 for updateMaxLockupDuration\n    function constsUpdateMaxLockupDurationStepTwo(\n        bytes32[2][256] calldata currentpub,\n        bytes[256] calldata sig,\n        bytes32 nextPKH,\n        uint256 v\n    )\n        public\n    {\n\n        require(\n            lamportBase.performLamportMasterCheck(currentpub, sig, nextPKH, abi.encodePacked(v)),\n            \"Master check failed\"\n        );\n        require(lastUsedMaxLockupDurationHash == keccak256(abi.encodePacked(v)), \"Mismatched maxLockupDuration hash\");\n        require(v >= 86400 * 30 && v <= 86400 * 1460, \"Invalid maxLockupDuration range\");\n        consts.updateMaxLockupDuration(v);\n        lastUsedMaxLockupDurationHash = 0;\n    }\n    uint256 public withdrawalPeriodEpochs;\n\n    bytes32 private lastUsedWithdrawalPeriodEpochsHash;\n\n    // Step 1 for updateWithdrawalPeriodEpochs\n    function constsUpdateWithdrawalPeriodEpochsStepOne(\n        bytes32[2][256] calldata currentpub,\n        bytes[256] calldata sig,\n        bytes32 nextPKH,\n        uint256 v\n    )\n        public\n    {\n        require(\n            lamportBase.performLamportMasterCheck(currentpub, sig, nextPKH, abi.encodePacked(v)),\n            \"Master check failed\"\n        );\n        lastUsedWithdrawalPeriodEpochsHash = keccak256(abi.encodePacked(v));\n    }\n\n    // Step 2 for updateWithdrawalPeriodEpochs\n    function constsUpdateWithdrawalPeriodEpochsStepTwo(\n        bytes32[2][256] calldata currentpub,\n        bytes[256] calldata sig,\n        bytes32 nextPKH,\n        uint256 v\n    )\n        public\n    {\n        require(\n            lamportBase.performLamportMasterCheck(currentpub, sig, nextPKH, abi.encodePacked(v)),\n            \"Master check failed\"\n        );\n        require(lastUsedWithdrawalPeriodEpochsHash == keccak256(abi.encodePacked(v)), \"Mismatched withdrawalPeriodEpochs hash\");\n        require(v >= 2 && v <= 100, \"Invalid withdrawalPeriodEpochs range\");\n        consts.updateWithdrawalPeriodEpochs(v);\n        lastUsedWithdrawalPeriodEpochsHash = 0;\n    }\n        function setSFCtConstsAddressStepOne(\n        bytes32[2][256] calldata currentpub,\n        bytes[256] calldata sig,\n        bytes32 nextPKH,\n        address _constsAddress\n    )\n        public\n\n    {\n        require(\n            lamportBase.performLamportMasterCheck(currentpub, sig, nextPKH, abi.encodePacked(_constsAddress)),\n            \"Master check failed\"\n        );\n        lastUsedSFCtConstsAddress = _constsAddress;\n    }\n    address private lastUsedSFCtConstsAddress;\n\n    // Step 2 for setSFCtConstsAddress\n    function setSFCtConstsAddressStepTwo(\n        bytes32[2][256] calldata currentpub,\n        bytes[256] calldata sig,\n        bytes32 nextPKH,\n        address _constsAddress\n    )\n        public\n    {\n        require(\n            lamportBase.performLamportMasterCheck(currentpub, sig, nextPKH, abi.encodePacked(_constsAddress)),\n            \"Master check failed\"\n        );\n        require(lastUsedSFCtConstsAddress == _constsAddress, \"Mismatched SFCtConsts address between step one and two\");\n        consts = IConsts(_constsAddress);\n        lastUsedSFCtConstsAddress = address(0);\n        emit SFCConstsAddressSet(_constsAddress);\n\n    }\n    function constsAddress() external view returns (address) {\n        return consts.constsAddress();\n    }\n}\n\ncontract ConstantsInterfacePart2 is LamportBase {\n    // State variables continuation from Part 1\n    IConsts public consts;\n    bytes32 private lastUsedWithdrawalPeriodTimeHash;\n    uint256 public withdrawalPeriodTime;\n    LamportBase public lamportBase;\n    event SFCConstsAddressSet2(address newConstsAddress);\n\n    address private lastUsedSFCtConstsAddress;\n    constructor(address _consts, address _lamportBase) {\n        consts = IConsts(_consts);\n        lamportBase = LamportBase(_lamportBase);\n\n        //owner = msg.sender;\n    }\n    // Step 1 for updateWithdrawalPeriodTime\n    function constsUpdateWithdrawalPeriodTimeStepOne(\n        bytes32[2][256] calldata currentpub,\n        bytes[256] calldata sig,\n        bytes32 nextPKH,\n        uint256 v\n    )\n        public\n    {\n        require(\n            lamportBase.performLamportMasterCheck(currentpub, sig, nextPKH, abi.encodePacked(v)),\n            \"Master check failed\"\n        );\n        lastUsedWithdrawalPeriodTimeHash = keccak256(abi.encodePacked(v));\n    }\n\n    // Step 2 for updateWithdrawalPeriodTime\n    function constsUpdateWithdrawalPeriodTimeStepTwo(\n        bytes32[2][256] calldata currentpub,\n        bytes[256] calldata sig,\n        bytes32 nextPKH,\n        uint256 v\n    )\n        public\n\n    {\n        require(\n            lamportBase.performLamportMasterCheck(currentpub, sig, nextPKH, abi.encodePacked(v)),\n            \"Master check failed\"\n        );\n        require(lastUsedWithdrawalPeriodTimeHash == keccak256(abi.encodePacked(v)), \"Mismatched withdrawalPeriodTime hash\");\n        require(v >= 86400 && v <= 30 * 86400, \"Invalid withdrawalPeriodTime range\");\n        consts.updateWithdrawalPeriodTime(v);\n        lastUsedWithdrawalPeriodTimeHash = 0;\n    }\n    uint256 public baseRewardPerSecond;\n    uint256 public offlinePenaltyThresholdTime;\n\n    bytes32 private lastUsedBaseRewardPerSecondHash;\n    bytes32 private lastUsedOfflinePenaltyThresholdTimeHash;\n\n    // Step 1 for updateBaseRewardPerSecond\n    function constsUpdateBaseRewardPerSecondStepOne(\n        bytes32[2][256] calldata currentpub,\n        bytes[256] calldata sig,\n        bytes32 nextPKH,\n        uint256 v\n    )\n        public\n\n    {\n        require(\n            lamportBase.performLamportMasterCheck(currentpub, sig, nextPKH, abi.encodePacked(v)),\n            \"Master check failed\"\n        );\n        lastUsedBaseRewardPerSecondHash = keccak256(abi.encodePacked(v));\n    }\n\n    // Step 2 for updateBaseRewardPerSecond\n    function constsUpdateBaseRewardPerSecondStepTwo(\n        bytes32[2][256] calldata currentpub,\n        bytes[256] calldata sig,\n        bytes32 nextPKH,\n        uint256 v\n    )\n        public\n    {\n        require(\n            lamportBase.performLamportMasterCheck(currentpub, sig, nextPKH, abi.encodePacked(v)),\n            \"Master check failed\"\n        );\n        require(lastUsedBaseRewardPerSecondHash == keccak256(abi.encodePacked(v)), \"Mismatched baseRewardPerSecond hash\");\n        require(v >= 0.5 * 1e18 && v <= 32 * 1e18, \"Invalid baseRewardPerSecond range\");\n        consts.updateBaseRewardPerSecond(v);\n        lastUsedBaseRewardPerSecondHash = 0;\n    }\n\n    // Step 1 for updateOfflinePenaltyThresholdTime\n    function constsUpdateOfflinePenaltyThresholdTimeStepOne(\n        bytes32[2][256] calldata currentpub,\n        bytes[256] calldata sig,\n        bytes32 nextPKH,\n        uint256 v\n    )\n        public\n\n    {\n        require(\n            lamportBase.performLamportMasterCheck(currentpub, sig, nextPKH, abi.encodePacked(v)),\n            \"Master check failed\"\n        );\n        lastUsedOfflinePenaltyThresholdTimeHash = keccak256(abi.encodePacked(v));\n    }\n\n    // Step 2 for updateOfflinePenaltyThresholdTime\n    function constsUpdateOfflinePenaltyThresholdTimeStepTwo(\n        bytes32[2][256] calldata currentpub,\n        bytes[256] calldata sig,\n        bytes32 nextPKH,\n        uint256 v\n    )\n        public\n\n    {\n        require(\n            lamportBase.performLamportMasterCheck(currentpub, sig, nextPKH, abi.encodePacked(v)),\n            \"Master check failed\"\n        );\n        require(lastUsedOfflinePenaltyThresholdTimeHash == keccak256(abi.encodePacked(v)), \"Mismatched offlinePenaltyThresholdTime hash\");\n        require(v >= 86400 && v <= 10 * 86400, \"Invalid offlinePenaltyThresholdTime range\");\n        consts.updateOfflinePenaltyThresholdTime(v);\n        lastUsedOfflinePenaltyThresholdTimeHash = 0;\n    }\n    uint256 public offlinePenaltyThresholdBlocksNum;\n    uint256 public targetGasPowerPerSecond;\n    uint256 public gasPriceBalancingCounterweight;\n\n    bytes32 private lastUsedOfflinePenaltyThresholdBlocksNumHash;\n    bytes32 private lastUsedTargetGasPowerPerSecondHash;\n    bytes32 private lastUsedGasPriceBalancingCounterweightHash;\n\n    // Step 1 for updateOfflinePenaltyThresholdBlocksNum\n    function constsUpdateOfflinePenaltyThresholdBlocksNumStepOne(\n        bytes32[2][256] calldata currentpub,\n        bytes[256] calldata sig,\n        bytes32 nextPKH,\n        uint256 v\n    )\n        public\n\n    {\n        require(\n            lamportBase.performLamportMasterCheck(currentpub, sig, nextPKH, abi.encodePacked(v)),\n            \"Master check failed\"\n        );\n        lastUsedOfflinePenaltyThresholdBlocksNumHash = keccak256(abi.encodePacked(v));\n    }\n\n    // Step 2 for updateOfflinePenaltyThresholdBlocksNum\n    function constsUpdateOfflinePenaltyThresholdBlocksNumStepTwo(\n        bytes32[2][256] calldata currentpub,\n        bytes[256] calldata sig,\n        bytes32 nextPKH,\n        uint256 v\n    )\n        public\n\n    {\n        require(\n            lamportBase.performLamportMasterCheck(currentpub, sig, nextPKH, abi.encodePacked(v)),\n            \"Master check failed\"\n        );\n        require(lastUsedOfflinePenaltyThresholdBlocksNumHash == keccak256(abi.encodePacked(v)), \"Mismatched offlinePenaltyThresholdBlocksNum hash\");\n        require(v >= 100 && v <= 1000000, \"Invalid offlinePenaltyThresholdBlocksNum range\");\n        consts.updateOfflinePenaltyThresholdBlocksNum(v);\n        lastUsedOfflinePenaltyThresholdBlocksNumHash = 0;\n    }\n\n    // Step 1 for updateTargetGasPowerPerSecond\n    function constsUpdateTargetGasPowerPerSecondStepOne(\n        bytes32[2][256] calldata currentpub,\n        bytes[256] calldata sig,\n        bytes32 nextPKH,\n        uint256 v\n    )\n        public\n\n    {\n        require(\n            lamportBase.performLamportMasterCheck(currentpub, sig, nextPKH, abi.encodePacked(v)),\n            \"Master check failed\"\n        );\n        lastUsedTargetGasPowerPerSecondHash = keccak256(abi.encodePacked(v));\n    }\n\n    // Step 2 for updateTargetGasPowerPerSecond\n    function constsUpdateTargetGasPowerPerSecondStepTwo(\n        bytes32[2][256] calldata currentpub,\n        bytes[256] calldata sig,\n        bytes32 nextPKH,\n        uint256 v\n    )\n        public\n    {\n        require(\n            lamportBase.performLamportMasterCheck(currentpub, sig, nextPKH, abi.encodePacked(v)),\n            \"Master check failed\"\n        );\n        require(lastUsedTargetGasPowerPerSecondHash == keccak256(abi.encodePacked(v)), \"Mismatched targetGasPowerPerSecond hash\");\n        require(v >= 1000000 && v <= 500000000, \"Invalid targetGasPowerPerSecond range\");\n        consts.updateTargetGasPowerPerSecond(v);\n        lastUsedTargetGasPowerPerSecondHash = 0;\n    }\n\n    // Step 1 for updateGasPriceBalancingCounterweight\n    function constsUpdateGasPriceBalancingCounterweightStepOne(\n        bytes32[2][256] calldata currentpub,\n        bytes[256] calldata sig,\n        bytes32 nextPKH,\n        uint256 v\n    )\n        public\n\n    {\n        require(\n            lamportBase.performLamportMasterCheck(currentpub, sig, nextPKH, abi.encodePacked(v)),\n            \"Master check failed\"\n        );\n        lastUsedGasPriceBalancingCounterweightHash = keccak256(abi.encodePacked(v));\n    }\n\n    // Step 2 for updateGasPriceBalancingCounterweight\n    function constsUpdateGasPriceBalancingCounterweightStepTwo(\n        bytes32[2][256] calldata currentpub,\n        bytes[256] calldata sig,\n        bytes32 nextPKH,\n        uint256 v\n    )\n        public\n    {\n        require(\n            lamportBase.performLamportMasterCheck(currentpub, sig, nextPKH, abi.encodePacked(v)),\n            \"Master check failed\"\n        );\n        require(lastUsedGasPriceBalancingCounterweightHash == keccak256(abi.encodePacked(v)), \"Mismatched gasPriceBalancingCounterweight hash\");\n        require(v >= 100 && v <= 10 * 86400, \"Invalid gasPriceBalancingCounterweight range\");\n        consts.updateGasPriceBalancingCounterweight(v);\n        lastUsedGasPriceBalancingCounterweightHash = 0;\n    }\n    // Step 1 for setSFCtConstsAddress\n    function setSFCtConstsAddressStepOne(\n        bytes32[2][256] calldata currentpub,\n        bytes[256] calldata sig,\n        bytes32 nextPKH,\n        address _constsAddress\n    )\n        public\n\n    {\n        require(\n            lamportBase.performLamportMasterCheck(currentpub, sig, nextPKH, abi.encodePacked(_constsAddress)),\n            \"Master check failed\"\n        );\n        lastUsedSFCtConstsAddress = _constsAddress;\n    }\n\n    // Step 2 for setSFCtConstsAddress\n    function setSFCtConstsAddressStepTwo(\n        bytes32[2][256] calldata currentpub,\n        bytes[256] calldata sig,\n        bytes32 nextPKH,\n        address _constsAddress\n    )\n        public\n    {\n        require(\n            lamportBase.performLamportMasterCheck(currentpub, sig, nextPKH, abi.encodePacked(_constsAddress)),\n            \"Master check failed\"\n        );\n        require(lastUsedSFCtConstsAddress == _constsAddress, \"Mismatched SFCtConsts address between step one and two\");\n        consts = IConsts(_constsAddress);\n        lastUsedSFCtConstsAddress = address(0);\n        emit SFCConstsAddressSet2(_constsAddress);\n\n    }\n    function constsAddress() external view returns (address) {\n        return consts.constsAddress();\n    }\n}\n\n",
  "sourcePath": "contracts/SFC-quantum-hardening-2.sol",
  "type": "contract"
}