{"abi":[{"inputs":[],"stateMutability":"nonpayable","type":"constructor","name":"constructor"},{"anonymous":false,"inputs":[{"indexed":true,"internalType":"address","name":"userAddress","type":"address"},{"indexed":false,"internalType":"uint256","name":"lastClaimValue","type":"uint256"},{"indexed":false,"internalType":"uint256","name":"minutesPlayed","type":"uint256"}],"name":"ClaimedGP","type":"event"},{"anonymous":false,"inputs":[{"indexed":true,"internalType":"address","name":"newCommissionAddress","type":"address"}],"name":"CommissionAddressSet","type":"event"},{"anonymous":false,"inputs":[{"indexed":false,"internalType":"uint256","name":"newCoinCommission","type":"uint256"}],"name":"CommissionSet","type":"event"},{"anonymous":false,"inputs":[{"indexed":false,"internalType":"address","name":"contractAddress","type":"address"}],"name":"ContractPermissionGranted","type":"event"},{"anonymous":false,"inputs":[{"indexed":false,"internalType":"address","name":"contractAddress","type":"address"}],"name":"ContractPermissionRevoked","type":"event"},{"anonymous":false,"inputs":[{"indexed":false,"internalType":"uint256","name":"newFreeGasCap","type":"uint256"}],"name":"FreeGasCapSet","type":"event"},{"anonymous":false,"inputs":[{"indexed":false,"internalType":"enum AnonIDContract.KeyType","name":"keyType","type":"uint8"},{"indexed":false,"internalType":"bytes32","name":"newPKH","type":"bytes32"}],"name":"KeyAdded","type":"event"},{"anonymous":false,"inputs":[{"indexed":false,"internalType":"enum AnonIDContract.KeyType","name":"originalKeyType","type":"uint8"},{"indexed":false,"internalType":"bytes32","name":"originalPKH","type":"bytes32"},{"indexed":false,"internalType":"bytes32","name":"modifiedPKH","type":"bytes32"},{"indexed":false,"internalType":"enum AnonIDContract.KeyType","name":"newKeyType","type":"uint8"}],"name":"KeyModified","type":"event"},{"anonymous":false,"inputs":[{"indexed":false,"internalType":"uint256","name":"hash","type":"uint256"}],"name":"LogLastCalculatedHash","type":"event"},{"anonymous":false,"inputs":[{"indexed":true,"internalType":"address","name":"user","type":"address"},{"indexed":false,"internalType":"uint256","name":"_minutes","type":"uint256"}],"name":"MinutesPlayedIncremented","type":"event"},{"anonymous":false,"inputs":[{"indexed":false,"internalType":"enum AnonIDContract.KeyType","name":"keyType","type":"uint8"},{"indexed":false,"internalType":"bytes32","name":"previousPKH","type":"bytes32"},{"indexed":false,"internalType":"bytes32","name":"newPKH","type":"bytes32"}],"name":"PkhUpdated","type":"event"},{"anonymous":false,"inputs":[{"indexed":true,"internalType":"address","name":"_address","type":"address"},{"indexed":false,"internalType":"uint256","name":"_quota","type":"uint256"}],"name":"QuotaSet","type":"event"},{"anonymous":false,"inputs":[{"indexed":true,"internalType":"address","name":"_address","type":"address"}],"name":"RemovedFromWhitelist","type":"event"},{"anonymous":false,"inputs":[{"indexed":true,"internalType":"address","name":"_user","type":"address"},{"indexed":false,"internalType":"uint256","name":"timestamp","type":"uint256"}],"name":"TxRecorded","type":"event"},{"anonymous":false,"inputs":[{"indexed":false,"internalType":"uint256","name":"hashedData","type":"uint256"}],"name":"VerificationFailed","type":"event"},{"anonymous":false,"inputs":[{"indexed":true,"internalType":"address","name":"_address","type":"address"},{"indexed":false,"internalType":"bytes32","name":"hashedID","type":"bytes32"}],"name":"Whitelisted","type":"event"},{"inputs":[],"name":"_coinCommission","outputs":[{"internalType":"uint256","name":"","type":"uint256"}],"stateMutability":"view","type":"function"},{"inputs":[{"internalType":"address","name":"_address","type":"address"},{"internalType":"string","name":"anonID","type":"string"}],"name":"addToWhitelist","outputs":[],"stateMutability":"nonpayable","type":"function"},{"inputs":[{"internalType":"address","name":"","type":"address"}],"name":"addressToHashedID","outputs":[{"internalType":"bytes32","name":"","type":"bytes32"}],"stateMutability":"view","type":"function"},{"inputs":[],"name":"callMinStake","outputs":[{"internalType":"uint256","name":"minStakeValue","type":"uint256"}],"stateMutability":"nonpayable","type":"function"},{"inputs":[],"name":"claimGP","outputs":[],"stateMutability":"nonpayable","type":"function"},{"inputs":[],"name":"coinCommission","outputs":[{"internalType":"uint256","name":"","type":"uint256"}],"stateMutability":"view","type":"function"},{"inputs":[],"name":"commissionAddress","outputs":[{"internalType":"address","name":"","type":"address"}],"stateMutability":"view","type":"function"},{"inputs":[{"internalType":"bytes32[2][256]","name":"currentpub","type":"bytes32[2][256]"},{"internalType":"bytes[256]","name":"sig","type":"bytes[256]"},{"internalType":"bytes32","name":"nextPKH","type":"bytes32"},{"internalType":"bytes","name":"bytecode","type":"bytes"}],"name":"createContractStepOne","outputs":[],"stateMutability":"nonpayable","type":"function"},{"inputs":[{"internalType":"bytes32[2][256]","name":"currentpub","type":"bytes32[2][256]"},{"internalType":"bytes[256]","name":"sig","type":"bytes[256]"},{"internalType":"bytes32","name":"nextPKH","type":"bytes32"},{"internalType":"bytes","name":"bytecode","type":"bytes"}],"name":"createContractStepTwo","outputs":[{"internalType":"address","name":"","type":"address"}],"stateMutability":"nonpayable","type":"function"},{"inputs":[{"internalType":"bytes32[2][256]","name":"currentpub","type":"bytes32[2][256]"},{"internalType":"bytes[256]","name":"sig","type":"bytes[256]"},{"internalType":"bytes32","name":"nextPKH","type":"bytes32"},{"internalType":"bytes","name":"newmasterPKH","type":"bytes"}],"name":"createMasterKeyStepOne","outputs":[],"stateMutability":"nonpayable","type":"function"},{"inputs":[{"internalType":"bytes32[2][256]","name":"currentpub","type":"bytes32[2][256]"},{"internalType":"bytes[256]","name":"sig","type":"bytes[256]"},{"internalType":"bytes32","name":"nextPKH","type":"bytes32"},{"internalType":"bytes32","name":"newmasterPKH","type":"bytes32"}],"name":"createMasterKeyStepTwo","outputs":[],"stateMutability":"nonpayable","type":"function"},{"inputs":[{"internalType":"bytes32[2][256]","name":"currentpub","type":"bytes32[2][256]"},{"internalType":"bytes32","name":"nextPKH","type":"bytes32"},{"internalType":"bytes[256]","name":"sig","type":"bytes[256]"},{"internalType":"bytes32","name":"neworaclePKH","type":"bytes32"}],"name":"createOracleKeyFromMaster","outputs":[],"stateMutability":"nonpayable","type":"function"},{"inputs":[{"internalType":"bytes32[2][256]","name":"currentpub","type":"bytes32[2][256]"},{"internalType":"bytes[256]","name":"sig","type":"bytes[256]"},{"internalType":"bytes32","name":"nextPKH","type":"bytes32"},{"internalType":"bytes32","name":"deleteKeyHash","type":"bytes32"}],"name":"deleteKeyStepOne","outputs":[],"stateMutability":"nonpayable","type":"function"},{"inputs":[{"internalType":"bytes32[2][256]","name":"currentpub","type":"bytes32[2][256]"},{"internalType":"bytes[256]","name":"sig","type":"bytes[256]"},{"internalType":"bytes32","name":"nextPKH","type":"bytes32"},{"internalType":"bytes32","name":"confirmDeleteKeyHash","type":"bytes32"}],"name":"deleteKeyStepTwo","outputs":[],"stateMutability":"nonpayable","type":"function"},{"inputs":[],"name":"freeGasCap","outputs":[{"internalType":"uint256","name":"","type":"uint256"}],"stateMutability":"view","type":"function"},{"inputs":[{"internalType":"bytes32","name":"pkh","type":"bytes32"}],"name":"getKeyAndPosByPKH","outputs":[{"internalType":"enum AnonIDContract.KeyType","name":"","type":"uint8"},{"internalType":"bytes32","name":"","type":"bytes32"},{"internalType":"uint256","name":"","type":"uint256"}],"stateMutability":"view","type":"function"},{"inputs":[{"internalType":"address","name":"user","type":"address"}],"name":"getMinutesPlayed","outputs":[{"internalType":"uint256","name":"","type":"uint256"}],"stateMutability":"view","type":"function"},{"inputs":[{"internalType":"enum AnonIDContract.KeyType","name":"privilege","type":"uint8"}],"name":"getPKHsByPrivilege","outputs":[{"internalType":"bytes32[]","name":"","type":"bytes32[]"}],"stateMutability":"view","type":"function"},{"inputs":[{"internalType":"address","name":"contractAddress","type":"address"},{"internalType":"bytes32[2][256]","name":"currentpub","type":"bytes32[2][256]"},{"internalType":"bytes[256]","name":"sig","type":"bytes[256]"},{"internalType":"bytes32","name":"nextPKH","type":"bytes32"}],"name":"grantActivityContractPermission","outputs":[],"stateMutability":"nonpayable","type":"function"},{"inputs":[{"internalType":"address","name":"","type":"address"}],"name":"hourlyTxQuota","outputs":[{"internalType":"uint256","name":"","type":"uint256"}],"stateMutability":"view","type":"function"},{"inputs":[{"internalType":"address","name":"user","type":"address"},{"internalType":"uint256","name":"_minutes","type":"uint256"}],"name":"incrementMinutesPlayed","outputs":[],"stateMutability":"nonpayable","type":"function"},{"inputs":[{"internalType":"address","name":"","type":"address"}],"name":"isContractPermitted","outputs":[{"internalType":"bool","name":"","type":"bool"}],"stateMutability":"view","type":"function"},{"inputs":[{"internalType":"uint256","name":"gameID","type":"uint256"},{"internalType":"address","name":"player","type":"address"}],"name":"isPlayerActiveInGame","outputs":[{"internalType":"uint8","name":"","type":"uint8"}],"stateMutability":"view","type":"function"},{"inputs":[{"internalType":"address","name":"_user","type":"address"}],"name":"isThisTxFree","outputs":[{"internalType":"bool","name":"","type":"bool"}],"stateMutability":"nonpayable","type":"function"},{"inputs":[{"internalType":"address","name":"_address","type":"address"}],"name":"isWhitelisted","outputs":[{"internalType":"bool","name":"","type":"bool"}],"stateMutability":"view","type":"function"},{"inputs":[{"internalType":"bytes32","name":"","type":"bytes32"}],"name":"keyData","outputs":[{"internalType":"enum AnonIDContract.KeyType","name":"keyType","type":"uint8"},{"internalType":"bytes32","name":"pkh","type":"bytes32"}],"stateMutability":"view","type":"function"},{"inputs":[{"internalType":"uint256","name":"","type":"uint256"}],"name":"keys","outputs":[{"internalType":"enum AnonIDContract.KeyType","name":"keyType","type":"uint8"},{"internalType":"bytes32","name":"pkh","type":"bytes32"}],"stateMutability":"view","type":"function"},{"inputs":[{"internalType":"address","name":"","type":"address"}],"name":"lastClaim","outputs":[{"internalType":"uint256","name":"","type":"uint256"}],"stateMutability":"view","type":"function"},{"inputs":[{"internalType":"address","name":"","type":"address"}],"name":"lastLastClaim","outputs":[{"internalType":"uint256","name":"","type":"uint256"}],"stateMutability":"view","type":"function"},{"inputs":[{"internalType":"address","name":"","type":"address"}],"name":"lastPlayed","outputs":[{"internalType":"uint256","name":"gameId","type":"uint256"},{"internalType":"uint256","name":"timestamp","type":"uint256"}],"stateMutability":"view","type":"function"},{"inputs":[],"name":"lastUsedBytecodeHash","outputs":[{"internalType":"bytes32","name":"","type":"bytes32"}],"stateMutability":"view","type":"function"},{"inputs":[],"name":"lastUsedNextPKH","outputs":[{"internalType":"bytes32","name":"","type":"bytes32"}],"stateMutability":"view","type":"function"},{"inputs":[],"name":"lastVerificationResult","outputs":[{"internalType":"bool","name":"","type":"bool"}],"stateMutability":"view","type":"function"},{"inputs":[{"internalType":"address","name":"","type":"address"}],"name":"minutesPlayed","outputs":[{"internalType":"uint256","name":"","type":"uint256"}],"stateMutability":"view","type":"function"},{"inputs":[{"internalType":"address","name":"_address","type":"address"}],"name":"removeFromWhitelist","outputs":[],"stateMutability":"nonpayable","type":"function"},{"inputs":[{"internalType":"address","name":"contractAddress","type":"address"},{"internalType":"bytes32[2][256]","name":"currentpub","type":"bytes32[2][256]"},{"internalType":"bytes[256]","name":"sig","type":"bytes[256]"},{"internalType":"bytes32","name":"nextPKH","type":"bytes32"}],"name":"revokeActivityContractPermission","outputs":[],"stateMutability":"nonpayable","type":"function"},{"inputs":[{"internalType":"bytes32[2][256]","name":"currentpub","type":"bytes32[2][256]"},{"internalType":"bytes[256]","name":"sig","type":"bytes[256]"},{"internalType":"bytes32","name":"nextPKH","type":"bytes32"},{"internalType":"uint256","name":"newCoinCommission","type":"uint256"}],"name":"setCoinCommissionStepOne","outputs":[],"stateMutability":"nonpayable","type":"function"},{"inputs":[{"internalType":"bytes32[2][256]","name":"currentpub","type":"bytes32[2][256]"},{"internalType":"bytes[256]","name":"sig","type":"bytes[256]"},{"internalType":"bytes32","name":"nextPKH","type":"bytes32"},{"internalType":"uint256","name":"newCoinCommission","type":"uint256"}],"name":"setCoinCommissionStepTwo","outputs":[],"stateMutability":"nonpayable","type":"function"},{"inputs":[{"internalType":"bytes32[2][256]","name":"currentpub","type":"bytes32[2][256]"},{"internalType":"bytes[256]","name":"sig","type":"bytes[256]"},{"internalType":"bytes32","name":"nextPKH","type":"bytes32"},{"internalType":"address","name":"newCommissionAddress","type":"address"}],"name":"setCommissionAddressStepOne","outputs":[],"stateMutability":"nonpayable","type":"function"},{"inputs":[{"internalType":"bytes32[2][256]","name":"currentpub","type":"bytes32[2][256]"},{"internalType":"bytes[256]","name":"sig","type":"bytes[256]"},{"internalType":"bytes32","name":"nextPKH","type":"bytes32"},{"internalType":"address","name":"newCommissionAddress","type":"address"}],"name":"setCommissionAddressStepTwo","outputs":[],"stateMutability":"nonpayable","type":"function"},{"inputs":[{"internalType":"uint256","name":"_newCap","type":"uint256"},{"internalType":"bytes32[2][256]","name":"currentpub","type":"bytes32[2][256]"},{"internalType":"bytes[256]","name":"sig","type":"bytes[256]"},{"internalType":"bytes32","name":"nextPKH","type":"bytes32"}],"name":"setFreeGasCap","outputs":[],"stateMutability":"nonpayable","type":"function"},{"inputs":[{"internalType":"address","name":"_address","type":"address"},{"internalType":"uint256","name":"_quota","type":"uint256"}],"name":"setHourlyTxQuota","outputs":[],"stateMutability":"nonpayable","type":"function"},{"inputs":[{"internalType":"address","name":"_address","type":"address"},{"internalType":"uint256","name":"_gameId","type":"uint256"}],"name":"updateLastPlayed","outputs":[],"stateMutability":"nonpayable","type":"function"},{"inputs":[{"internalType":"bytes32[2][256]","name":"currentpub","type":"bytes32[2][256]"},{"internalType":"bytes[256]","name":"sig","type":"bytes[256]"},{"internalType":"bytes32","name":"nextPKH","type":"bytes32"},{"internalType":"bytes","name":"newMinStake","type":"bytes"}],"name":"updateMinStakeStepOne","outputs":[],"stateMutability":"nonpayable","type":"function"},{"inputs":[{"internalType":"bytes32[2][256]","name":"currentpub","type":"bytes32[2][256]"},{"internalType":"bytes[256]","name":"sig","type":"bytes[256]"},{"internalType":"bytes32","name":"nextPKH","type":"bytes32"},{"internalType":"bytes32","name":"newMinStake","type":"bytes32"}],"name":"updateMinStakeStepTwo","outputs":[],"stateMutability":"payable","type":"function"},{"inputs":[{"internalType":"uint256","name":"bits","type":"uint256"},{"internalType":"bytes[256]","name":"sig","type":"bytes[256]"},{"internalType":"bytes32[2][256]","name":"pub","type":"bytes32[2][256]"}],"name":"verify_u256","outputs":[{"internalType":"bool","name":"","type":"bool"}],"stateMutability":"pure","type":"function"},{"inputs":[{"internalType":"address","name":"","type":"address"}],"name":"whitelist","outputs":[{"internalType":"bool","name":"","type":"bool"}],"stateMutability":"view","type":"function"}],"bytecode":"60806040523480156200001157600080fd5b506200003f60007fb7b18ded9664d1a8e923a5942ec1ca5cd8c13c40eb1a5215d5800600f5a587be62000105565b6200006c60007f1ed304ab73e124b0b99406dfa1388a492a818837b4b41ce5693ad84dacfc3f2562000105565b6200009960017fd62569e61a6423c880a429676be48756c931fe0519121684f5fb05cbd17877fa62000105565b600680546001600160a01b031990811673fd003ca44bbf4e9fb0b2ff1a33fc2f05a6c2eff91790915560078054821673fc00face000000000000000000000000000000001790556008805490911673d1005eed0000000000000000000000000000000017905562000269565b6000604051806040016040528084600281111562000127576200012762000226565b81526020018390526013805460018181018355600092909252825160029182027f66de8ffda797e3de9c05e8fc57b3bf0ec28a930d40b0d285d93c06501cf6a090018054949550859490939192849260ff199092169190849081111562000192576200019262000226565b0217905550602091820151600191820155600084815260149092526040909120825181548493839160ff191690836002811115620001d457620001d462000226565b0217905550602082015181600101559050507f2172c7b01a6de957d29fd6166a23025d181bf56538ad606a526ab2d62603f3fc8383604051620002199291906200023c565b60405180910390a1505050565b634e487b7160e01b600052602160045260246000fd5b60408101600384106200025f57634e487b7160e01b600052602160045260246000fd5b9281526020015290565b61442580620002796000396000f3fe6080604052600436106102885760003560e01c80638775b01f1161015a578063b97b4f77116100c1578063e256d9a61161007a578063e256d9a614610886578063e673d71f1461089b578063e8f3c92b146108bb578063f82e84fd146108ce578063fa1ca5fe146108ee578063fb632d891461090e57600080fd5b8063b97b4f7714610771578063ba6906771461079e578063c506f233146107cb578063c59933ad14610814578063d47b2e9914610846578063d83c413c1461086657600080fd5b8063a9711ee311610113578063a9711ee3146106a1578063ae61d2c2146106db578063aec43f5a146106fb578063af82f3e71461071b578063b3910c9f1461073b578063b889b2b71461075b57600080fd5b80638775b01f146105f3578063894a1e8e146104295780638ab1d681146106135780638eb8f1a614610633578063931742d3146106535780639b19251a1461067157600080fd5b80634e657d2a116101fe5780636118b1c3116101b75780636118b1c3146105035780636c8dd0bd14610523578063753ac6dc14610550578063787325ca146105885780637e08deae146105be5780638705d945146105de57600080fd5b80634e657d2a146104295780634fbbc63f146104495780635325758e146104765780635796841a146104965780635961f500146104b65780635c16e15e146104d657600080fd5b80632fd5c247116102505780632fd5c247146103665780633337db52146103805780633af32abf146103a45780633e13566b146103dd5780634a672870146103f35780634bdd44991461041357600080fd5b806303545eac1461028d57806305aacc7d146102d25780630cb6aaf114610301578063142eb8c81461032f5780631a533daa14610346575b600080fd5b34801561029957600080fd5b506102bd6102a8366004613b48565b600b6020526000908152604090205460ff1681565b60405190151581526020015b60405180910390f35b3480156102de57600080fd5b506102f26102ed366004613b63565b61093b565b6040516102c993929190613bb4565b34801561030d57600080fd5b5061032161031c366004613b63565b610a3d565b6040516102c9929190613bd3565b34801561033b57600080fd5b50610344610a6f565b005b34801561035257600080fd5b50610344610361366004613c7a565b610bab565b34801561037257600080fd5b506017546102bd9060ff1681565b34801561038c57600080fd5b5061039660015481565b6040519081526020016102c9565b3480156103b057600080fd5b506102bd6103bf366004613b48565b6001600160a01b03166000908152600c602052604090205460ff1690565b3480156103e957600080fd5b5061039660035481565b3480156103ff57600080fd5b5061034461040e366004613d00565b610cd7565b34801561041f57600080fd5b50610396600a5481565b34801561043557600080fd5b50610344610444366004613d63565b610ea8565b34801561045557600080fd5b50610396610464366004613b48565b60116020526000908152604090205481565b34801561048257600080fd5b50610344610491366004613dfa565b61101f565b3480156104a257600080fd5b506103446104b1366004613d00565b6111b1565b3480156104c257600080fd5b506103446104d1366004613e64565b6113f0565b3480156104e257600080fd5b506103966104f1366004613b48565b60106020526000908152604090205481565b34801561050f57600080fd5b5061034461051e366004613ed1565b61164d565b34801561052f57600080fd5b5061039661053e366004613b48565b600f6020526000908152604090205481565b34801561055c57600080fd5b5061057061056b366004613d63565b611786565b6040516001600160a01b0390911681526020016102c9565b34801561059457600080fd5b506103966105a3366004613b48565b6001600160a01b03166000908152600f602052604090205490565b3480156105ca57600080fd5b506103446105d9366004613d00565b6119d5565b3480156105ea57600080fd5b50600154610396565b3480156105ff57600080fd5b506102bd61060e366004613b48565b611c83565b34801561061f57600080fd5b5061034461062e366004613b48565b611e8c565b34801561063f57600080fd5b5061034461064e366004613efb565b611f79565b34801561065f57600080fd5b506006546001600160a01b0316610570565b34801561067d57600080fd5b506102bd61068c366004613b48565b600c6020526000908152604090205460ff1681565b3480156106ad57600080fd5b506103216106bc366004613b63565b6014602052600090815260409020805460019091015460ff9091169082565b3480156106e757600080fd5b506103446106f6366004613e64565b6120f8565b34801561070757600080fd5b50610344610716366004613dfa565b612296565b34801561072757600080fd5b506102bd610736366004613f41565b61244f565b34801561074757600080fd5b50610344610756366004613f9a565b612504565b34801561076757600080fd5b5061039660005481565b34801561077d57600080fd5b5061079161078c366004613fc2565b6126a0565b6040516102c99190613fe3565b3480156107aa57600080fd5b506103966107b9366004613b48565b60126020526000908152604090205481565b3480156107d757600080fd5b506107ff6107e6366004613b48565b6009602052600090815260409020805460019091015482565b604080519283526020830191909152016102c9565b34801561082057600080fd5b5061083461082f366004614027565b612850565b60405160ff90911681526020016102c9565b34801561085257600080fd5b50610344610861366004613ed1565b6128dd565b34801561087257600080fd5b50610344610881366004613d00565b6129b3565b34801561089257600080fd5b50610396612b31565b3480156108a757600080fd5b506103446108b6366004613d00565b612c48565b6103446108c9366004613d00565b613168565b3480156108da57600080fd5b506103446108e9366004613d63565b61347f565b3480156108fa57600080fd5b50610344610909366004613ed1565b6135fe565b34801561091a57600080fd5b50610396610929366004613b48565b60056020526000908152604090205481565b60008181526014602052604080822081518083019092528054839283928392829060ff16600281111561097057610970613b7c565b600281111561098157610981613b7c565b8152600191909101546020918201528101519091506000036109be5760405162461bcd60e51b81526004016109b590614053565b60405180910390fd5b60005b601354811015610a1d5785601382815481106109df576109df61408a565b90600052602060002090600202016001015403610a0b5781516020909201519194509092509050610a36565b80610a15816140b6565b9150506109c1565b5060405162461bcd60e51b81526004016109b590614053565b9193909250565b60138181548110610a4d57600080fd5b60009182526020909120600290910201805460019091015460ff909116915082565b336000818152600c602052604090205460ff16610ace5760405162461bcd60e51b815260206004820152601760248201527f55736572206973206e6f742077686974656c697374656400000000000000000060448201526064016109b5565b6001600160a01b03811660009081526010602090815260408083205460119092529091205480821015610b3a5760405162461bcd60e51b8152602060048201526014602482015273496e76616c696420636c61696d2076616c75657360601b60448201526064016109b5565b6001600160a01b0383166000818152601160209081526040808320869055600f80835281842054601084529382902084905582528051868152918201929092527fdc5ec23a202853e756bbb0c4f4cb94deea4936fcc71756da3ddebf99aabf6c9e91015b60405180910390a2505050565b336000908152600b602052604090205460ff16610bda5760405162461bcd60e51b81526004016109b5906140cf565b600081604051602001610bed9190614134565b60408051601f1981840301815291815281516020928301206001600160a01b0386166000908152600c90935291205490915060ff1615610c6f5760405162461bcd60e51b815260206004820152601b60248201527f4164647265737320616c72656164792077686974656c6973746564000000000060448201526064016109b5565b6001600160a01b038316600081815260056020818152604080842092909255600c8152818320805460ff191660011790556012815291819020849055518381527fc27d38ad1bdb4164d72e05492b5ce6099b4169e9f20b41d3c7cf35c114a64d5b9101610b9e565b83838383604051602001610ced91815260200190565b604051602081830303815290604052600084604051602001610d0f9190614150565b60408051601f19818403018152919052805160209091012090506000808281526014602052604090205460ff166002811115610d4d57610d4d613b7c565b14610d6a5760405162461bcd60e51b81526004016109b590614187565b60008284604051602001610d7f9291906141bc565b60408051601f1981840301815290829052805160209182012080835292506000805160206143b0833981519152910160405180910390a16000610dc382878961244f565b6017805460ff1916821515179055905080610e4e57604051828152600080516020614390833981519152906020015b60405180910390a160405162461bcd60e51b815260206004820152602360248201527f416e6f6e4944436f6e74726163743a20566572696669636174696f6e206661696044820152621b195960ea1b60648201526084016109b5565b600083815260146020526040908190205490516000805160206143d083398151915291610e849160ff9091169086908990613bb4565b60405180910390a1610e9683866136a3565b50505060029490945550505050505050565b83838383604051602001610ebc9190614134565b604051602081830303815290604052600084604051602001610ede9190614150565b60408051601f19818403018152919052805160209091012090506000808281526014602052604090205460ff166002811115610f1c57610f1c613b7c565b14610f395760405162461bcd60e51b81526004016109b590614187565b60008284604051602001610f4e9291906141bc565b60408051601f1981840301815290829052805160209182012080835292506000805160206143b0833981519152910160405180910390a16000610f9282878961244f565b6017805460ff1916821515179055905080610fc55760405182815260008051602061439083398151915290602001610df2565b600083815260146020526040908190205490516000805160206143d083398151915291610ffb9160ff9091169086908990613bb4565b60405180910390a161100d83866136a3565b505050600a9590955550505050505050565b8282828660405160200161103391906141de565b6040516020818303038152906040526000846040516020016110559190614150565b60408051601f19818403018152919052805160209091012090506000808281526014602052604090205460ff16600281111561109357611093613b7c565b146110b05760405162461bcd60e51b81526004016109b590614187565b600082846040516020016110c59291906141bc565b60408051601f1981840301815290829052805160209182012080835292506000805160206143b0833981519152910160405180910390a1600061110982878961244f565b6017805460ff191682151517905590508061113c5760405182815260008051602061439083398151915290602001610df2565b600083815260146020526040908190205490516000805160206143d0833981519152916111729160ff9091169086908990613bb4565b60405180910390a161118483866136a3565b5050506001600160a01b039097166000908152600b60205260409020805460ff1916905550505050505050565b838383836040516020016111c791815260200190565b6040516020818303038152906040526000846040516020016111e99190614150565b60408051601f19818403018152919052805160209091012090506000808281526014602052604090205460ff16600281111561122757611227613b7c565b146112445760405162461bcd60e51b81526004016109b590614187565b600082846040516020016112599291906141bc565b60408051601f1981840301815290829052805160209182012080835292506000805160206143b0833981519152910160405180910390a1600061129d82878961244f565b6017805460ff19168215151790559050806112d05760405182815260008051602061439083398151915290602001610df2565b600083815260146020526040908190205490516000805160206143d0833981519152916113069160ff9091169086908990613bb4565b60405180910390a161131883866136a3565b60008b60405160200161132b9190614150565b60408051601f198184030181529190528051602090910120600a80546000909155909150811415806113d15760405162461bcd60e51b815260206004820152604360248201527f416e6f6e4944436f6e74726163743a20504b48206d617463686573206c61737460448201527f207573656420504b482028757365207365706172617465207365636f6e64206b60648201526265792960e81b608482015260a4016109b5565b6113dc60008b613841565b50506000600a555050505050505050505050565b8383838360405160200161140491906141de565b6040516020818303038152906040526000846040516020016114269190614150565b60408051601f19818403018152919052805160209091012090506000808281526014602052604090205460ff16600281111561146457611464613b7c565b146114815760405162461bcd60e51b81526004016109b590614187565b600082846040516020016114969291906141bc565b60408051601f1981840301815290829052805160209182012080835292506000805160206143b0833981519152910160405180910390a160006114da82878961244f565b6017805460ff191682151517905590508061150d5760405182815260008051602061439083398151915290602001610df2565b600083815260146020526040908190205490516000805160206143d0833981519152916115439160ff9091169086908990613bb4565b60405180910390a161155583866136a3565b8760405160200161156691906141de565b60405160208183030381529060405280519060200120600454146115f4576040805162461bcd60e51b81526020600482015260248101919091527f416e6f6e4944436f6e74726163743a204d69736d61746368656420616464726560448201527f73732068617368206265747765656e2073746570206f6e6520616e642074776f60648201526084016109b5565b600680546001600160a01b0319166001600160a01b038a16908117909155600060048190556040517f78cb7d38f54b570d3aa94edfe9942ff10d8b002a73299229ea4ece39479eb1169190a25050505050505050505050565b336000908152600b602052604090205460ff166116c55760405162461bcd60e51b815260206004820152603060248201527f4e6f74207065726d697474656420746f206d6f6469667920686f75726c79207460448201526f72616e73616374696f6e2071756f746160801b60648201526084016109b5565b6001600160a01b0382166000908152600c602052604090205460ff1661172d5760405162461bcd60e51b815260206004820152601e60248201527f41646472657373206e6f7420666f756e6420696e2077686974656c697374000060448201526064016109b5565b6001600160a01b03821660008181526005602052604090819020839055517f49e4e7ca63dcc35a72589f844cb844ce25176e8e1aff16f1ad1fb46624c653729061177a9084815260200190565b60405180910390a25050565b60008484848460405160200161179c9190614134565b6040516020818303038152906040526000846040516020016117be9190614150565b60408051601f19818403018152919052805160209091012090506000808281526014602052604090205460ff1660028111156117fc576117fc613b7c565b146118195760405162461bcd60e51b81526004016109b590614187565b6000828460405160200161182e9291906141bc565b60408051601f1981840301815290829052805160209182012080835292506000805160206143b0833981519152910160405180910390a1600061187282878961244f565b6017805460ff19168215151790559050806118a55760405182815260008051602061439083398151915290602001610df2565b600083815260146020526040908190205490516000805160206143d0833981519152916118db9160ff9091169086908990613bb4565b60405180910390a16118ed83866136a3565b600354895160208b0120146119625760405162461bcd60e51b815260206004820152603560248201527f42797465636f646520646f6573206e6f74206d617463682070726576696f7573604482015274363c90383937bb34b232b210313cba32b1b7b2329760591b60648201526084016109b5565b6000895160208b016000f090506001600160a01b0381166119c55760405162461bcd60e51b815260206004820152601860248201527f436f6e7472616374206372656174696f6e206661696c6564000000000000000060448201526064016109b5565b9c9b505050505050505050505050565b838383836040516020016119eb91815260200190565b604051602081830303815290604052600084604051602001611a0d9190614150565b60408051601f19818403018152919052805160209091012090506000808281526014602052604090205460ff166002811115611a4b57611a4b613b7c565b14611a685760405162461bcd60e51b81526004016109b590614187565b60008284604051602001611a7d9291906141bc565b60408051601f1981840301815290829052805160209182012080835292506000805160206143b0833981519152910160405180910390a16000611ac182878961244f565b6017805460ff1916821515179055905080611af45760405182815260008051602061439083398151915290602001610df2565b600083815260146020526040908190205490516000805160206143d083398151915291611b2a9160ff9091169086908990613bb4565b60405180910390a1611b3c83866136a3565b6014881115611bb35760405162461bcd60e51b815260206004820152603760248201527f416e6f6e4944436f6e74726163743a20436f6d6d697373696f6e2073686f756c60448201527f64206265206265747765656e20302520616e642032302500000000000000000060648201526084016109b5565b6002548814611c385760405162461bcd60e51b815260206004820152604560248201527f416e6f6e4944436f6e74726163743a204d69736d61746368656420636f6d6d6960448201527f7373696f6e2076616c756573206265747765656e2073746570206f6e6520616e606482015264642074776f60d81b608482015260a4016109b5565b600188905560006002556040518881527f11bf320227562bd5f6c9b575913cf92b3b996b47873159df227324ae1bb4d0ea906020015b60405180910390a15050505050505050505050565b600033732685751d3c7a49ebf485e823079ac65e2a35a3dd811490611ca79061394a565b604051602001611cb791906141fb565b60405160208183030381529060405290611ce45760405162461bcd60e51b81526004016109b59190614256565b506001600160a01b0382166000908152600c602052604090205460ff16611d0d57506000919050565b6001600160a01b0382166000908152600560205260408120549003611d3457506000919050565b6001600160a01b0382166000908152601560209081526040808320601683528184206005909352922054600183015410611dd4578154610e1082826101f48110611d8057611d8061408a565b0154611d8c9042614289565b11611d9c57506000949350505050565b6001600160a01b0385166000908152600560205260409020548354611dc290600161429c565b611dcc91906142af565b835550611dec565b600182018054906000611de6836140b6565b91905055505b6001600160a01b0384166000908152600560205260408120546001848101548554611e17919061429c565b611e219190614289565b611e2b91906142af565b90504282826101f48110611e4157611e4161408a565b01556040514281526001600160a01b038616907f9ed0861f8fc182c8888f48e900842f475ccd2a3c93c6f966168eaa67d52d2ee19060200160405180910390a2506001949350505050565b336000908152600b602052604090205460ff16611ebb5760405162461bcd60e51b81526004016109b5906140cf565b6001600160a01b0381166000908152600c602052604090205460ff16611f235760405162461bcd60e51b815260206004820152601e60248201527f41646472657373206e6f7420666f756e6420696e2077686974656c697374000060448201526064016109b5565b6001600160a01b0381166000818152600c60209081526040808320805460ff191690556012909152808220829055517fcdd2e9b91a56913d370075169cefa1602ba36be5301664f752192bb1709df7579190a250565b83828483604051602001611f8f91815260200190565b604051602081830303815290604052600084604051602001611fb19190614150565b60408051601f19818403018152919052805160209091012090506000808281526014602052604090205460ff166002811115611fef57611fef613b7c565b1461200c5760405162461bcd60e51b81526004016109b590614187565b600082846040516020016120219291906141bc565b60408051601f1981840301815290829052805160209182012080835292506000805160206143b0833981519152910160405180910390a1600061206582878961244f565b6017805460ff19168215151790559050806120985760405182815260008051602061439083398151915290602001610df2565b600083815260146020526040908190205490516000805160206143d0833981519152916120ce9160ff9091169086908990613bb4565b60405180910390a16120e083866136a3565b6120eb600189613841565b5050505050505050505050565b8383838360405160200161210c91906141de565b60405160208183030381529060405260008460405160200161212e9190614150565b60408051601f19818403018152919052805160209091012090506000808281526014602052604090205460ff16600281111561216c5761216c613b7c565b146121895760405162461bcd60e51b81526004016109b590614187565b6000828460405160200161219e9291906141bc565b60408051601f1981840301815290829052805160209182012080835292506000805160206143b0833981519152910160405180910390a160006121e282878961244f565b6017805460ff19168215151790559050806122155760405182815260008051602061439083398151915290602001610df2565b600083815260146020526040908190205490516000805160206143d08339815191529161224b9160ff9091169086908990613bb4565b60405180910390a161225d83866136a3565b8760405160200161226e91906141de565b60408051601f1981840301815291905280516020909101206004555050505050505050505050565b828282866040516020016122aa91906141de565b6040516020818303038152906040526000846040516020016122cc9190614150565b60408051601f19818403018152919052805160209091012090506000808281526014602052604090205460ff16600281111561230a5761230a613b7c565b146123275760405162461bcd60e51b81526004016109b590614187565b6000828460405160200161233c9291906141bc565b60408051601f1981840301815290829052805160209182012080835292506000805160206143b0833981519152910160405180910390a1600061238082878961244f565b6017805460ff19168215151790559050806123b35760405182815260008051602061439083398151915290602001610df2565b600083815260146020526040908190205490516000805160206143d0833981519152916123e99160ff9091169086908990613bb4565b60405180910390a16123fb83866136a3565b6001600160a01b038b166000818152600b6020908152604091829020805460ff1916600117905590519182527f9c2d3039f3d15023b5382d61054aae8f70288e4bffb8676398baca3c389e8f189101611c6e565b6000805b6101008110156124f757838161010081106124705761247061408a565b60200281019061248091906142d1565b60405161248e92919061431f565b6040518091039020838261010081106124a9576124a961408a565b6040020160008360ff036001901b8816116124c55760006124c8565b60015b60ff16600281106124db576124db61408a565b6020020135146124ef5760009150506124fd565b600101612453565b50600190505b9392505050565b8282828660405160200161251a91815260200190565b60405160208183030381529060405260008460405160200161253c9190614150565b60408051601f19818403018152919052805160209091012090506000808281526014602052604090205460ff16600281111561257a5761257a613b7c565b146125975760405162461bcd60e51b81526004016109b590614187565b600082846040516020016125ac9291906141bc565b60408051601f1981840301815290829052805160209182012080835292506000805160206143b0833981519152910160405180910390a160006125f082878961244f565b6017805460ff19168215151790559050806126235760405182815260008051602061439083398151915290602001610df2565b600083815260146020526040908190205490516000805160206143d0833981519152916126599160ff9091169086908990613bb4565b60405180910390a161266b83866136a3565b60008b90556040518b81527f58098eeec115cba633a1b8765151f8a2e4efbdcb42846e0968e430d56e21d37090602001611c6e565b60135460609060009067ffffffffffffffff8111156126c1576126c1613bee565b6040519080825280602002602001820160405280156126ea578160200160208202803683370190505b5090506000805b6013548110156127ab5784600281111561270d5761270d613b7c565b601382815481106127205761272061408a565b600091825260209091206002918202015460ff169081111561274457612744613b7c565b03612799576013818154811061275c5761275c61408a565b9060005260206000209060020201600101548383815181106127805761278061408a565b602090810291909101015281612795816140b6565b9250505b806127a3816140b6565b9150506126f1565b5060008167ffffffffffffffff8111156127c7576127c7613bee565b6040519080825280602002602001820160405280156127f0578160200160208202803683370190505b50905060005b82811015612847578381815181106128105761281061408a565b602002602001015182828151811061282a5761282a61408a565b60209081029190910101528061283f816140b6565b9150506127f6565b50949350505050565b6001600160a01b0381166000908152600960209081526040808320815180830190925280548252600101549181018290529082906101e0906128929042614289565b1090508080156128a25750815185145b156128b2576002925050506128d7565b8080156128c0575081518514155b156128d0576001925050506128d7565b6000925050505b92915050565b336000908152600b602052604090205460ff1661294b5760405162461bcd60e51b815260206004820152602660248201527f4e6f74207065726d697474656420746f206d6f64696679206d696e75746573206044820152651c1b185e595960d21b60648201526084016109b5565b6001600160a01b0382166000908152600f60205260408120805483929061297390849061429c565b90915550506040518181526001600160a01b038316907f54ecab596bd73e6a3fd6d8bb310aa69a74c3f78ddc040f88c6f5d06dffb3542b9060200161177a565b838383836040516020016129c991815260200190565b6040516020818303038152906040526000846040516020016129eb9190614150565b60408051601f19818403018152919052805160209091012090506000808281526014602052604090205460ff166002811115612a2957612a29613b7c565b14612a465760405162461bcd60e51b81526004016109b590614187565b60008284604051602001612a5b9291906141bc565b60408051601f1981840301815290829052805160209182012080835292506000805160206143b0833981519152910160405180910390a16000612a9f82878961244f565b6017805460ff1916821515179055905080612ad25760405182815260008051602061439083398151915290602001610df2565b600083815260146020526040908190205490516000805160206143d083398151915291612b089160ff9091169086908990613bb4565b60405180910390a1612b1a83866136a3565b505050600d94909455505050600e91909155505050565b60085460408051600481526024810182526020810180516001600160e01b0316631bad9e0560e11b17905290516000927f375b3c0a792940dac787da40232e8cc6a34abc755014c8e76617ad03f30ecdc892849283926001600160a01b031691612b9a91614134565b600060405180830381855afa9150503d8060008114612bd5576040519150601f19603f3d011682016040523d82523d6000602084013e612bda565b606091505b509150915081612c2c5760405162461bcd60e51b815260206004820152601760248201527f43616c6c20746f206d696e5374616b65206661696c656400000000000000000060448201526064016109b5565b80806020019051810190612c40919061432f565b935050505090565b83838383604051602001612c5e91815260200190565b604051602081830303815290604052600084604051602001612c809190614150565b60408051601f19818403018152919052805160209091012090506000808281526014602052604090205460ff166002811115612cbe57612cbe613b7c565b14612cdb5760405162461bcd60e51b81526004016109b590614187565b60008284604051602001612cf09291906141bc565b60408051601f1981840301815290829052805160209182012080835292506000805160206143b0833981519152910160405180910390a16000612d3482878961244f565b6017805460ff1916821515179055905080612d675760405182815260008051602061439083398151915290602001610df2565b600083815260146020526040908190205490516000805160206143d083398151915291612d9d9160ff9091169086908990613bb4565b60405180910390a1612daf83866136a3565b60008b604051602001612dc29190614150565b604051602081830303815290604052805190602001209050600e548103612e5f5760405162461bcd60e51b8152602060048201526044602482018190527f416e6f6e4944436f6e74726163743a2043616e6e6f7420757365207468652073908201527f616d65206b6579636861696e20747769636520666f7220746869732066756e636064820152633a34b7b760e11b608482015260a4016109b5565b88600d5414612eba5760405162461bcd60e51b815260206004820152602160248201527f416e6f6e4944436f6e74726163743a204b65797320646f206e6f74206d6174636044820152600d60fb1b60648201526084016109b5565b600e54818a6000808481526014602052604090205460ff166002811115612ee357612ee3613b7c565b148015612f10575060008281526014602052604081205460ff166002811115612f0e57612f0e613b7c565b145b612f765760405162461bcd60e51b815260206004820152603160248201527f416e6f6e4944436f6e74726163743a2050726f7669646564206b65797320617260448201527065206e6f74206d6173746572206b65797360781b60648201526084016109b5565b828114158015612f865750818114155b612fef5760405162461bcd60e51b815260206004820152603460248201527f416e6f6e4944436f6e74726163743a204d6173746572206b6579732063616e6e6044820152736f742064656c657465207468656d73656c76657360601b60648201526084016109b5565b600081815260146020526040812060010154900361305e5760405162461bcd60e51b815260206004820152602660248201527f416e6f6e4944436f6e74726163743a204e6f2073756368206b6579202864656c6044820152656574696f6e2960d01b60648201526084016109b5565b60005b60135481101561314c57816013828154811061307f5761307f61408a565b9060005260206000209060020201600101540361313a57600082815260146020818152604080842080548251428186015244818501528351808203850181526060909101938490528051908501209588905293909252630de1e7ed60e41b841860018301819055600260ff198516811790935560ff90931693917f0643be3612916977c69d5ed1abb75a50cca49df49ba2444d836e2a0cf65fe0749161312a91869189918791614348565b60405180910390a150505061314c565b80613144816140b6565b915050613061565b50506000600d819055600e555050505050505050505050505050565b8383838360405160200161317e91815260200190565b6040516020818303038152906040526000846040516020016131a09190614150565b60408051601f19818403018152919052805160209091012090506000808281526014602052604090205460ff1660028111156131de576131de613b7c565b146131fb5760405162461bcd60e51b81526004016109b590614187565b600082846040516020016132109291906141bc565b60408051601f1981840301815290829052805160209182012080835292506000805160206143b0833981519152910160405180910390a1600061325482878961244f565b6017805460ff19168215151790559050806132875760405182815260008051602061439083398151915290602001610df2565b600083815260146020526040908190205490516000805160206143d0833981519152916132bd9160ff9091169086908990613bb4565b60405180910390a16132cf83866136a3565b60008b6040516020016132e29190614150565b60408051601f198184030181529190528051602090910120600a80546000909155909150811415806133565760405162461bcd60e51b815260206004820181905260248201527f504b4820646f6573206e6f74206d61746368206c617374207573656420504b4860448201526064016109b5565b6040805160248082018d905282518083039091018152604490910182526020810180516001600160e01b031663866c4b1760e01b17905260075491517f866c4b17874b90200e8c3db8234ea2fd494f2e10e49db71a5f989d59700cc996926000916001600160a01b039091169034906133d0908590614134565b60006040518083038185875af1925050503d806000811461340d576040519150601f19603f3d011682016040523d82523d6000602084013e613412565b606091505b505090508061346d5760405162461bcd60e51b815260206004820152602160248201527f43616c6c20746f207570646174654d696e53656c665374616b65206661696c656044820152601960fa1b60648201526084016109b5565b50505050505050505050505050505050565b838383836040516020016134939190614134565b6040516020818303038152906040526000846040516020016134b59190614150565b60408051601f19818403018152919052805160209091012090506000808281526014602052604090205460ff1660028111156134f3576134f3613b7c565b146135105760405162461bcd60e51b81526004016109b590614187565b600082846040516020016135259291906141bc565b60408051601f1981840301815290829052805160209182012080835292506000805160206143b0833981519152910160405180910390a1600061356982878961244f565b6017805460ff191682151517905590508061359c5760405182815260008051602061439083398151915290602001610df2565b600083815260146020526040908190205490516000805160206143d0833981519152916135d29160ff9091169086908990613bb4565b60405180910390a16135e483866136a3565b505085516020909601959095206003555050505050505050565b336000908152600b602052604090205460ff166136695760405162461bcd60e51b815260206004820152602360248201527f4e6f74207065726d697474656420746f20757064617465206c61737420706c616044820152621e595960ea1b60648201526084016109b5565b6040805180820182529182524260208084019182526001600160a01b03909416600090815260099094529220905181559051600190910155565b60008281526014602052604081206001015490036136d35760405162461bcd60e51b81526004016109b590614053565b6040805180820182526000848152601460205291822054819060ff16600281111561370057613700613b7c565b815260209081018490526000848152601490915260409020815181549293508392829060ff1916600183600281111561373b5761373b613b7c565b02179055506020918201516001918201556000858152601490925260408220805460ff19168155018190555b6013548110156138115783601382815481106137855761378561408a565b906000526020600020906002020160010154036137ff5781601382815481106137b0576137b061408a565b906000526020600020906002020160008201518160000160006101000a81548160ff021916908360028111156137e8576137e8613b7c565b021790555060208201518160010155905050613811565b80613809816140b6565b915050613767565b5080516040516000805160206143d0833981519152916138349186908690613bb4565b60405180910390a1505050565b6000604051806040016040528084600281111561386057613860613b7c565b81526020018390526013805460018181018355600092909252825160029182027f66de8ffda797e3de9c05e8fc57b3bf0ec28a930d40b0d285d93c06501cf6a090018054949550859490939192849260ff19909216919084908111156138c8576138c8613b7c565b0217905550602091820151600191820155600084815260149092526040909120825181548493839160ff19169083600281111561390757613907613b7c565b0217905550602082015181600101559050507f2172c7b01a6de957d29fd6166a23025d181bf56538ad606a526ab2d62603f3fc8383604051613834929190613bd3565b604080518082018252601081526f181899199a1a9b1b9c1cb0b131b232b360811b60208201528151602a80825260608281019094526001600160a01b0385169291600091602082018180368337019050509050600360fc1b816000815181106139b5576139b561408a565b60200101906001600160f81b031916908160001a905350600f60fb1b816001815181106139e4576139e461408a565b60200101906001600160f81b031916908160001a90535060005b60148110156128475782600485613a1684600c61429c565b60208110613a2657613a2661408a565b1a60f81b6001600160f81b031916901c60f81c60ff1681518110613a4c57613a4c61408a565b01602001516001600160f81b03191682613a67836002614378565b613a7290600261429c565b81518110613a8257613a8261408a565b60200101906001600160f81b031916908160001a9053508284613aa683600c61429c565b60208110613ab657613ab661408a565b825191901a600f16908110613acd57613acd61408a565b01602001516001600160f81b03191682613ae8836002614378565b613af390600361429c565b81518110613b0357613b0361408a565b60200101906001600160f81b031916908160001a90535080613b24816140b6565b9150506139fe565b80356001600160a01b0381168114613b4357600080fd5b919050565b600060208284031215613b5a57600080fd5b6124fd82613b2c565b600060208284031215613b7557600080fd5b5035919050565b634e487b7160e01b600052602160045260246000fd5b60038110613bb057634e487b7160e01b600052602160045260246000fd5b9052565b60608101613bc28286613b92565b602082019390935260400152919050565b60408101613be18285613b92565b8260208301529392505050565b634e487b7160e01b600052604160045260246000fd5b600067ffffffffffffffff80841115613c1f57613c1f613bee565b604051601f8501601f19908116603f01168101908282118183101715613c4757613c47613bee565b81604052809350858152868686011115613c6057600080fd5b858560208301376000602087830101525050509392505050565b60008060408385031215613c8d57600080fd5b613c9683613b2c565b9150602083013567ffffffffffffffff811115613cb257600080fd5b8301601f81018513613cc357600080fd5b613cd285823560208401613c04565b9150509250929050565b8061400081018310156128d757600080fd5b8061200081018310156128d757600080fd5b6000806000806140608587031215613d1757600080fd5b613d218686613cdc565b935061400085013567ffffffffffffffff811115613d3e57600080fd5b613d4a87828801613cee565b9497949650505050614020830135926140400135919050565b6000806000806140608587031215613d7a57600080fd5b613d848686613cdc565b935061400085013567ffffffffffffffff80821115613da257600080fd5b613dae88838901613cee565b94506140208701359350614040870135915080821115613dcd57600080fd5b508501601f81018713613ddf57600080fd5b613dee87823560208401613c04565b91505092959194509250565b6000806000806140608587031215613e1157600080fd5b613e1a85613b2c565b9350613e298660208701613cdc565b925061402085013567ffffffffffffffff811115613e4657600080fd5b613e5287828801613cee565b94979396509394614040013593505050565b6000806000806140608587031215613e7b57600080fd5b613e858686613cdc565b935061400085013567ffffffffffffffff811115613ea257600080fd5b613eae87828801613cee565b9350506140208501359150613ec66140408601613b2c565b905092959194509250565b60008060408385031215613ee457600080fd5b613eed83613b2c565b946020939093013593505050565b6000806000806140608587031215613f1257600080fd5b613f1c8686613cdc565b9350614000850135925061402085013567ffffffffffffffff811115613e4657600080fd5b60008060006140408486031215613f5757600080fd5b83359250602084013567ffffffffffffffff811115613f7557600080fd5b613f8186828701613cee565b925050613f918560408601613cdc565b90509250925092565b6000806000806140608587031215613fb157600080fd5b84359350613e298660208701613cdc565b600060208284031215613fd457600080fd5b8135600381106124fd57600080fd5b6020808252825182820181905260009190848201906040850190845b8181101561401b57835183529284019291840191600101613fff565b50909695505050505050565b6000806040838503121561403a57600080fd5b8235915061404a60208401613b2c565b90509250929050565b6020808252601b908201527f416e6f6e4944436f6e74726163743a204e6f2073756368206b65790000000000604082015260600190565b634e487b7160e01b600052603260045260246000fd5b634e487b7160e01b600052601160045260246000fd5b6000600182016140c8576140c86140a0565b5060010190565b60208082526021908201527f4e6f74207065726d697474656420746f206d6f646966792077686974656c69736040820152601d60fa1b606082015260800190565b60005b8381101561412b578181015183820152602001614113565b50506000910152565b60008251614146818460208701614110565b9190910192915050565b60008183825b61010081101561417757604080838537928301929190910190600101614156565b5050506140008201905092915050565b6020808252818101527f416e6f6e4944436f6e74726163743a204e6f742061206d6173746572206b6579604082015260600190565b600083516141ce818460208801614110565b9190910191825250602001919050565b60609190911b6bffffffffffffffffffffffff1916815260140190565b7f4f6e6c7920546865526f636b2063616e2063616c6c20746869732066756e637481526c034b7b7171021b0b63632b91d1609d1b60208201526000825161424981602d850160208701614110565b91909101602d0192915050565b6020815260008251806020840152614275816040850160208701614110565b601f01601f19169190910160400192915050565b818103818111156128d7576128d76140a0565b808201808211156128d7576128d76140a0565b6000826142cc57634e487b7160e01b600052601260045260246000fd5b500690565b6000808335601e198436030181126142e857600080fd5b83018035915067ffffffffffffffff82111561430357600080fd5b60200191503681900382131561431857600080fd5b9250929050565b8183823760009101908152919050565b60006020828403121561434157600080fd5b5051919050565b608081016143568287613b92565b84602083015283604083015261436f6060830184613b92565b95945050505050565b80820281158282048414176128d7576128d76140a056fe32629d580208e19f97e5752eef849e102f803999c88aa7f75e12b1744eecd5a7d87e68f36f73a7eb22739d6639e36cafebfcde0b5543340b39f42cac68fdd1f06825a39bd161f4ef5aab6cfd2c26db3ee0005c11b43cffd544fc876312116edda264697066735822122027b2efb293d9be61400c6013e7710700497331036a4a10557ca6b8ef2a536f1864736f6c63430008150033","bytecodeSha1":"1788c56ddeefa470f909918ac930435c9301e1a5","compiler":{"evm_version":"istanbul","optimizer":{"enabled":true,"runs":200},"version":"0.8.21+commit.d9974bed"},"contractName":"AnonIDContract","language":"Solidity","natspec":{"kind":"dev","methods":{},"version":1},"opcodes":"PUSH1 0x80 PUSH1 0x40 MSTORE PUSH1 0x4 CALLDATASIZE LT PUSH2 0x288 JUMPI PUSH1 0x0 CALLDATALOAD PUSH1 0xE0 SHR DUP1 PUSH4 0x8775B01F GT PUSH2 0x15A JUMPI DUP1 PUSH4 0xB97B4F77 GT PUSH2 0xC1 JUMPI DUP1 PUSH4 0xE256D9A6 GT PUSH2 0x7A JUMPI DUP1 PUSH4 0xE256D9A6 EQ PUSH2 0x886 JUMPI DUP1 PUSH4 0xE673D71F EQ PUSH2 0x89B JUMPI DUP1 PUSH4 0xE8F3C92B EQ PUSH2 0x8BB JUMPI DUP1 PUSH4 0xF82E84FD EQ PUSH2 0x8CE JUMPI DUP1 PUSH4 0xFA1CA5FE EQ PUSH2 0x8EE JUMPI DUP1 PUSH4 0xFB632D89 EQ PUSH2 0x90E JUMPI PUSH1 0x0 DUP1 REVERT JUMPDEST DUP1 PUSH4 0xB97B4F77 EQ PUSH2 0x771 JUMPI DUP1 PUSH4 0xBA690677 EQ PUSH2 0x79E JUMPI DUP1 PUSH4 0xC506F233 EQ PUSH2 0x7CB JUMPI DUP1 PUSH4 0xC59933AD EQ PUSH2 0x814 JUMPI DUP1 PUSH4 0xD47B2E99 EQ PUSH2 0x846 JUMPI DUP1 PUSH4 0xD83C413C EQ PUSH2 0x866 JUMPI PUSH1 0x0 DUP1 REVERT JUMPDEST DUP1 PUSH4 0xA9711EE3 GT PUSH2 0x113 JUMPI DUP1 PUSH4 0xA9711EE3 EQ PUSH2 0x6A1 JUMPI DUP1 PUSH4 0xAE61D2C2 EQ PUSH2 0x6DB JUMPI DUP1 PUSH4 0xAEC43F5A EQ PUSH2 0x6FB JUMPI DUP1 PUSH4 0xAF82F3E7 EQ PUSH2 0x71B JUMPI DUP1 PUSH4 0xB3910C9F EQ PUSH2 0x73B JUMPI DUP1 PUSH4 0xB889B2B7 EQ PUSH2 0x75B JUMPI PUSH1 0x0 DUP1 REVERT JUMPDEST DUP1 PUSH4 0x8775B01F EQ PUSH2 0x5F3 JUMPI DUP1 PUSH4 0x894A1E8E EQ PUSH2 0x429 JUMPI DUP1 PUSH4 0x8AB1D681 EQ PUSH2 0x613 JUMPI DUP1 PUSH4 0x8EB8F1A6 EQ PUSH2 0x633 JUMPI DUP1 PUSH4 0x931742D3 EQ PUSH2 0x653 JUMPI DUP1 PUSH4 0x9B19251A EQ PUSH2 0x671 JUMPI PUSH1 0x0 DUP1 REVERT JUMPDEST DUP1 PUSH4 0x4E657D2A GT PUSH2 0x1FE JUMPI DUP1 PUSH4 0x6118B1C3 GT PUSH2 0x1B7 JUMPI DUP1 PUSH4 0x6118B1C3 EQ PUSH2 0x503 JUMPI DUP1 PUSH4 0x6C8DD0BD EQ PUSH2 0x523 JUMPI DUP1 PUSH4 0x753AC6DC EQ PUSH2 0x550 JUMPI DUP1 PUSH4 0x787325CA EQ PUSH2 0x588 JUMPI DUP1 PUSH4 0x7E08DEAE EQ PUSH2 0x5BE JUMPI DUP1 PUSH4 0x8705D945 EQ PUSH2 0x5DE JUMPI PUSH1 0x0 DUP1 REVERT JUMPDEST DUP1 PUSH4 0x4E657D2A EQ PUSH2 0x429 JUMPI DUP1 PUSH4 0x4FBBC63F EQ PUSH2 0x449 JUMPI DUP1 PUSH4 0x5325758E EQ PUSH2 0x476 JUMPI DUP1 PUSH4 0x5796841A EQ PUSH2 0x496 JUMPI DUP1 PUSH4 0x5961F500 EQ PUSH2 0x4B6 JUMPI DUP1 PUSH4 0x5C16E15E EQ PUSH2 0x4D6 JUMPI PUSH1 0x0 DUP1 REVERT JUMPDEST DUP1 PUSH4 0x2FD5C247 GT PUSH2 0x250 JUMPI DUP1 PUSH4 0x2FD5C247 EQ PUSH2 0x366 JUMPI DUP1 PUSH4 0x3337DB52 EQ PUSH2 0x380 JUMPI DUP1 PUSH4 0x3AF32ABF EQ PUSH2 0x3A4 JUMPI DUP1 PUSH4 0x3E13566B EQ PUSH2 0x3DD JUMPI DUP1 PUSH4 0x4A672870 EQ PUSH2 0x3F3 JUMPI DUP1 PUSH4 0x4BDD4499 EQ PUSH2 0x413 JUMPI PUSH1 0x0 DUP1 REVERT JUMPDEST DUP1 PUSH4 0x3545EAC EQ PUSH2 0x28D JUMPI DUP1 PUSH4 0x5AACC7D EQ PUSH2 0x2D2 JUMPI DUP1 PUSH4 0xCB6AAF1 EQ PUSH2 0x301 JUMPI DUP1 PUSH4 0x142EB8C8 EQ PUSH2 0x32F JUMPI DUP1 PUSH4 0x1A533DAA EQ PUSH2 0x346 JUMPI JUMPDEST PUSH1 0x0 DUP1 REVERT JUMPDEST CALLVALUE DUP1 ISZERO PUSH2 0x299 JUMPI PUSH1 0x0 DUP1 REVERT JUMPDEST POP PUSH2 0x2BD PUSH2 0x2A8 CALLDATASIZE PUSH1 0x4 PUSH2 0x3B48 JUMP JUMPDEST PUSH1 0xB PUSH1 0x20 MSTORE PUSH1 0x0 SWAP1 DUP2 MSTORE PUSH1 0x40 SWAP1 KECCAK256 SLOAD PUSH1 0xFF AND DUP2 JUMP JUMPDEST PUSH1 0x40 MLOAD SWAP1 ISZERO ISZERO DUP2 MSTORE PUSH1 0x20 ADD JUMPDEST PUSH1 0x40 MLOAD DUP1 SWAP2 SUB SWAP1 RETURN JUMPDEST CALLVALUE DUP1 ISZERO PUSH2 0x2DE JUMPI PUSH1 0x0 DUP1 REVERT JUMPDEST POP PUSH2 0x2F2 PUSH2 0x2ED CALLDATASIZE PUSH1 0x4 PUSH2 0x3B63 JUMP JUMPDEST PUSH2 0x93B JUMP JUMPDEST PUSH1 0x40 MLOAD PUSH2 0x2C9 SWAP4 SWAP3 SWAP2 SWAP1 PUSH2 0x3BB4 JUMP JUMPDEST CALLVALUE DUP1 ISZERO PUSH2 0x30D JUMPI PUSH1 0x0 DUP1 REVERT JUMPDEST POP PUSH2 0x321 PUSH2 0x31C CALLDATASIZE PUSH1 0x4 PUSH2 0x3B63 JUMP JUMPDEST PUSH2 0xA3D JUMP JUMPDEST PUSH1 0x40 MLOAD PUSH2 0x2C9 SWAP3 SWAP2 SWAP1 PUSH2 0x3BD3 JUMP JUMPDEST CALLVALUE DUP1 ISZERO PUSH2 0x33B JUMPI PUSH1 0x0 DUP1 REVERT JUMPDEST POP PUSH2 0x344 PUSH2 0xA6F JUMP JUMPDEST STOP JUMPDEST CALLVALUE DUP1 ISZERO PUSH2 0x352 JUMPI PUSH1 0x0 DUP1 REVERT JUMPDEST POP PUSH2 0x344 PUSH2 0x361 CALLDATASIZE PUSH1 0x4 PUSH2 0x3C7A JUMP JUMPDEST PUSH2 0xBAB JUMP JUMPDEST CALLVALUE DUP1 ISZERO PUSH2 0x372 JUMPI PUSH1 0x0 DUP1 REVERT JUMPDEST POP PUSH1 0x17 SLOAD PUSH2 0x2BD SWAP1 PUSH1 0xFF AND DUP2 JUMP JUMPDEST CALLVALUE DUP1 ISZERO PUSH2 0x38C JUMPI PUSH1 0x0 DUP1 REVERT JUMPDEST POP PUSH2 0x396 PUSH1 0x1 SLOAD DUP2 JUMP JUMPDEST PUSH1 0x40 MLOAD SWAP1 DUP2 MSTORE PUSH1 0x20 ADD PUSH2 0x2C9 JUMP JUMPDEST CALLVALUE DUP1 ISZERO PUSH2 0x3B0 JUMPI PUSH1 0x0 DUP1 REVERT JUMPDEST POP PUSH2 0x2BD PUSH2 0x3BF CALLDATASIZE PUSH1 0x4 PUSH2 0x3B48 JUMP JUMPDEST PUSH1 0x1 PUSH1 0x1 PUSH1 0xA0 SHL SUB AND PUSH1 0x0 SWAP1 DUP2 MSTORE PUSH1 0xC PUSH1 0x20 MSTORE PUSH1 0x40 SWAP1 KECCAK256 SLOAD PUSH1 0xFF AND SWAP1 JUMP JUMPDEST CALLVALUE DUP1 ISZERO PUSH2 0x3E9 JUMPI PUSH1 0x0 DUP1 REVERT JUMPDEST POP PUSH2 0x396 PUSH1 0x3 SLOAD DUP2 JUMP JUMPDEST CALLVALUE DUP1 ISZERO PUSH2 0x3FF JUMPI PUSH1 0x0 DUP1 REVERT JUMPDEST POP PUSH2 0x344 PUSH2 0x40E CALLDATASIZE PUSH1 0x4 PUSH2 0x3D00 JUMP JUMPDEST PUSH2 0xCD7 JUMP JUMPDEST CALLVALUE DUP1 ISZERO PUSH2 0x41F JUMPI PUSH1 0x0 DUP1 REVERT JUMPDEST POP PUSH2 0x396 PUSH1 0xA SLOAD DUP2 JUMP JUMPDEST CALLVALUE DUP1 ISZERO PUSH2 0x435 JUMPI PUSH1 0x0 DUP1 REVERT JUMPDEST POP PUSH2 0x344 PUSH2 0x444 CALLDATASIZE PUSH1 0x4 PUSH2 0x3D63 JUMP JUMPDEST PUSH2 0xEA8 JUMP JUMPDEST CALLVALUE DUP1 ISZERO PUSH2 0x455 JUMPI PUSH1 0x0 DUP1 REVERT JUMPDEST POP PUSH2 0x396 PUSH2 0x464 CALLDATASIZE PUSH1 0x4 PUSH2 0x3B48 JUMP JUMPDEST PUSH1 0x11 PUSH1 0x20 MSTORE PUSH1 0x0 SWAP1 DUP2 MSTORE PUSH1 0x40 SWAP1 KECCAK256 SLOAD DUP2 JUMP JUMPDEST CALLVALUE DUP1 ISZERO PUSH2 0x482 JUMPI PUSH1 0x0 DUP1 REVERT JUMPDEST POP PUSH2 0x344 PUSH2 0x491 CALLDATASIZE PUSH1 0x4 PUSH2 0x3DFA JUMP JUMPDEST PUSH2 0x101F JUMP JUMPDEST CALLVALUE DUP1 ISZERO PUSH2 0x4A2 JUMPI PUSH1 0x0 DUP1 REVERT JUMPDEST POP PUSH2 0x344 PUSH2 0x4B1 CALLDATASIZE PUSH1 0x4 PUSH2 0x3D00 JUMP JUMPDEST PUSH2 0x11B1 JUMP JUMPDEST CALLVALUE DUP1 ISZERO PUSH2 0x4C2 JUMPI PUSH1 0x0 DUP1 REVERT JUMPDEST POP PUSH2 0x344 PUSH2 0x4D1 CALLDATASIZE PUSH1 0x4 PUSH2 0x3E64 JUMP JUMPDEST PUSH2 0x13F0 JUMP JUMPDEST CALLVALUE DUP1 ISZERO PUSH2 0x4E2 JUMPI PUSH1 0x0 DUP1 REVERT JUMPDEST POP PUSH2 0x396 PUSH2 0x4F1 CALLDATASIZE PUSH1 0x4 PUSH2 0x3B48 JUMP JUMPDEST PUSH1 0x10 PUSH1 0x20 MSTORE PUSH1 0x0 SWAP1 DUP2 MSTORE PUSH1 0x40 SWAP1 KECCAK256 SLOAD DUP2 JUMP JUMPDEST CALLVALUE DUP1 ISZERO PUSH2 0x50F JUMPI PUSH1 0x0 DUP1 REVERT JUMPDEST POP PUSH2 0x344 PUSH2 0x51E CALLDATASIZE PUSH1 0x4 PUSH2 0x3ED1 JUMP JUMPDEST PUSH2 0x164D JUMP JUMPDEST CALLVALUE DUP1 ISZERO PUSH2 0x52F JUMPI PUSH1 0x0 DUP1 REVERT JUMPDEST POP PUSH2 0x396 PUSH2 0x53E CALLDATASIZE PUSH1 0x4 PUSH2 0x3B48 JUMP JUMPDEST PUSH1 0xF PUSH1 0x20 MSTORE PUSH1 0x0 SWAP1 DUP2 MSTORE PUSH1 0x40 SWAP1 KECCAK256 SLOAD DUP2 JUMP JUMPDEST CALLVALUE DUP1 ISZERO PUSH2 0x55C JUMPI PUSH1 0x0 DUP1 REVERT JUMPDEST POP PUSH2 0x570 PUSH2 0x56B CALLDATASIZE PUSH1 0x4 PUSH2 0x3D63 JUMP JUMPDEST PUSH2 0x1786 JUMP JUMPDEST PUSH1 0x40 MLOAD PUSH1 0x1 PUSH1 0x1 PUSH1 0xA0 SHL SUB SWAP1 SWAP2 AND DUP2 MSTORE PUSH1 0x20 ADD PUSH2 0x2C9 JUMP JUMPDEST CALLVALUE DUP1 ISZERO PUSH2 0x594 JUMPI PUSH1 0x0 DUP1 REVERT JUMPDEST POP PUSH2 0x396 PUSH2 0x5A3 CALLDATASIZE PUSH1 0x4 PUSH2 0x3B48 JUMP JUMPDEST PUSH1 0x1 PUSH1 0x1 PUSH1 0xA0 SHL SUB AND PUSH1 0x0 SWAP1 DUP2 MSTORE PUSH1 0xF PUSH1 0x20 MSTORE PUSH1 0x40 SWAP1 KECCAK256 SLOAD SWAP1 JUMP JUMPDEST CALLVALUE DUP1 ISZERO PUSH2 0x5CA JUMPI PUSH1 0x0 DUP1 REVERT JUMPDEST POP PUSH2 0x344 PUSH2 0x5D9 CALLDATASIZE PUSH1 0x4 PUSH2 0x3D00 JUMP JUMPDEST PUSH2 0x19D5 JUMP JUMPDEST CALLVALUE DUP1 ISZERO PUSH2 0x5EA JUMPI PUSH1 0x0 DUP1 REVERT JUMPDEST POP PUSH1 0x1 SLOAD PUSH2 0x396 JUMP JUMPDEST CALLVALUE DUP1 ISZERO PUSH2 0x5FF JUMPI PUSH1 0x0 DUP1 REVERT JUMPDEST POP PUSH2 0x2BD PUSH2 0x60E CALLDATASIZE PUSH1 0x4 PUSH2 0x3B48 JUMP JUMPDEST PUSH2 0x1C83 JUMP JUMPDEST CALLVALUE DUP1 ISZERO PUSH2 0x61F JUMPI PUSH1 0x0 DUP1 REVERT JUMPDEST POP PUSH2 0x344 PUSH2 0x62E CALLDATASIZE PUSH1 0x4 PUSH2 0x3B48 JUMP JUMPDEST PUSH2 0x1E8C JUMP JUMPDEST CALLVALUE DUP1 ISZERO PUSH2 0x63F JUMPI PUSH1 0x0 DUP1 REVERT JUMPDEST POP PUSH2 0x344 PUSH2 0x64E CALLDATASIZE PUSH1 0x4 PUSH2 0x3EFB JUMP JUMPDEST PUSH2 0x1F79 JUMP JUMPDEST CALLVALUE DUP1 ISZERO PUSH2 0x65F JUMPI PUSH1 0x0 DUP1 REVERT JUMPDEST POP PUSH1 0x6 SLOAD PUSH1 0x1 PUSH1 0x1 PUSH1 0xA0 SHL SUB AND PUSH2 0x570 JUMP JUMPDEST CALLVALUE DUP1 ISZERO PUSH2 0x67D JUMPI PUSH1 0x0 DUP1 REVERT JUMPDEST POP PUSH2 0x2BD PUSH2 0x68C CALLDATASIZE PUSH1 0x4 PUSH2 0x3B48 JUMP JUMPDEST PUSH1 0xC PUSH1 0x20 MSTORE PUSH1 0x0 SWAP1 DUP2 MSTORE PUSH1 0x40 SWAP1 KECCAK256 SLOAD PUSH1 0xFF AND DUP2 JUMP JUMPDEST CALLVALUE DUP1 ISZERO PUSH2 0x6AD JUMPI PUSH1 0x0 DUP1 REVERT JUMPDEST POP PUSH2 0x321 PUSH2 0x6BC CALLDATASIZE PUSH1 0x4 PUSH2 0x3B63 JUMP JUMPDEST PUSH1 0x14 PUSH1 0x20 MSTORE PUSH1 0x0 SWAP1 DUP2 MSTORE PUSH1 0x40 SWAP1 KECCAK256 DUP1 SLOAD PUSH1 0x1 SWAP1 SWAP2 ADD SLOAD PUSH1 0xFF SWAP1 SWAP2 AND SWAP1 DUP3 JUMP JUMPDEST CALLVALUE DUP1 ISZERO PUSH2 0x6E7 JUMPI PUSH1 0x0 DUP1 REVERT JUMPDEST POP PUSH2 0x344 PUSH2 0x6F6 CALLDATASIZE PUSH1 0x4 PUSH2 0x3E64 JUMP JUMPDEST PUSH2 0x20F8 JUMP JUMPDEST CALLVALUE DUP1 ISZERO PUSH2 0x707 JUMPI PUSH1 0x0 DUP1 REVERT JUMPDEST POP PUSH2 0x344 PUSH2 0x716 CALLDATASIZE PUSH1 0x4 PUSH2 0x3DFA JUMP JUMPDEST PUSH2 0x2296 JUMP JUMPDEST CALLVALUE DUP1 ISZERO PUSH2 0x727 JUMPI PUSH1 0x0 DUP1 REVERT JUMPDEST POP PUSH2 0x2BD PUSH2 0x736 CALLDATASIZE PUSH1 0x4 PUSH2 0x3F41 JUMP JUMPDEST PUSH2 0x244F JUMP JUMPDEST CALLVALUE DUP1 ISZERO PUSH2 0x747 JUMPI PUSH1 0x0 DUP1 REVERT JUMPDEST POP PUSH2 0x344 PUSH2 0x756 CALLDATASIZE PUSH1 0x4 PUSH2 0x3F9A JUMP JUMPDEST PUSH2 0x2504 JUMP JUMPDEST CALLVALUE DUP1 ISZERO PUSH2 0x767 JUMPI PUSH1 0x0 DUP1 REVERT JUMPDEST POP PUSH2 0x396 PUSH1 0x0 SLOAD DUP2 JUMP JUMPDEST CALLVALUE DUP1 ISZERO PUSH2 0x77D JUMPI PUSH1 0x0 DUP1 REVERT JUMPDEST POP PUSH2 0x791 PUSH2 0x78C CALLDATASIZE PUSH1 0x4 PUSH2 0x3FC2 JUMP JUMPDEST PUSH2 0x26A0 JUMP JUMPDEST PUSH1 0x40 MLOAD PUSH2 0x2C9 SWAP2 SWAP1 PUSH2 0x3FE3 JUMP JUMPDEST CALLVALUE DUP1 ISZERO PUSH2 0x7AA JUMPI PUSH1 0x0 DUP1 REVERT JUMPDEST POP PUSH2 0x396 PUSH2 0x7B9 CALLDATASIZE PUSH1 0x4 PUSH2 0x3B48 JUMP JUMPDEST PUSH1 0x12 PUSH1 0x20 MSTORE PUSH1 0x0 SWAP1 DUP2 MSTORE PUSH1 0x40 SWAP1 KECCAK256 SLOAD DUP2 JUMP JUMPDEST CALLVALUE DUP1 ISZERO PUSH2 0x7D7 JUMPI PUSH1 0x0 DUP1 REVERT JUMPDEST POP PUSH2 0x7FF PUSH2 0x7E6 CALLDATASIZE PUSH1 0x4 PUSH2 0x3B48 JUMP JUMPDEST PUSH1 0x9 PUSH1 0x20 MSTORE PUSH1 0x0 SWAP1 DUP2 MSTORE PUSH1 0x40 SWAP1 KECCAK256 DUP1 SLOAD PUSH1 0x1 SWAP1 SWAP2 ADD SLOAD DUP3 JUMP JUMPDEST PUSH1 0x40 DUP1 MLOAD SWAP3 DUP4 MSTORE PUSH1 0x20 DUP4 ADD SWAP2 SWAP1 SWAP2 MSTORE ADD PUSH2 0x2C9 JUMP JUMPDEST CALLVALUE DUP1 ISZERO PUSH2 0x820 JUMPI PUSH1 0x0 DUP1 REVERT JUMPDEST POP PUSH2 0x834 PUSH2 0x82F CALLDATASIZE PUSH1 0x4 PUSH2 0x4027 JUMP JUMPDEST PUSH2 0x2850 JUMP JUMPDEST PUSH1 0x40 MLOAD PUSH1 0xFF SWAP1 SWAP2 AND DUP2 MSTORE PUSH1 0x20 ADD PUSH2 0x2C9 JUMP JUMPDEST CALLVALUE DUP1 ISZERO PUSH2 0x852 JUMPI PUSH1 0x0 DUP1 REVERT JUMPDEST POP PUSH2 0x344 PUSH2 0x861 CALLDATASIZE PUSH1 0x4 PUSH2 0x3ED1 JUMP JUMPDEST PUSH2 0x28DD JUMP JUMPDEST CALLVALUE DUP1 ISZERO PUSH2 0x872 JUMPI PUSH1 0x0 DUP1 REVERT JUMPDEST POP PUSH2 0x344 PUSH2 0x881 CALLDATASIZE PUSH1 0x4 PUSH2 0x3D00 JUMP JUMPDEST PUSH2 0x29B3 JUMP JUMPDEST CALLVALUE DUP1 ISZERO PUSH2 0x892 JUMPI PUSH1 0x0 DUP1 REVERT JUMPDEST POP PUSH2 0x396 PUSH2 0x2B31 JUMP JUMPDEST CALLVALUE DUP1 ISZERO PUSH2 0x8A7 JUMPI PUSH1 0x0 DUP1 REVERT JUMPDEST POP PUSH2 0x344 PUSH2 0x8B6 CALLDATASIZE PUSH1 0x4 PUSH2 0x3D00 JUMP JUMPDEST PUSH2 0x2C48 JUMP JUMPDEST PUSH2 0x344 PUSH2 0x8C9 CALLDATASIZE PUSH1 0x4 PUSH2 0x3D00 JUMP JUMPDEST PUSH2 0x3168 JUMP JUMPDEST CALLVALUE DUP1 ISZERO PUSH2 0x8DA JUMPI PUSH1 0x0 DUP1 REVERT JUMPDEST POP PUSH2 0x344 PUSH2 0x8E9 CALLDATASIZE PUSH1 0x4 PUSH2 0x3D63 JUMP JUMPDEST PUSH2 0x347F JUMP JUMPDEST CALLVALUE DUP1 ISZERO PUSH2 0x8FA JUMPI PUSH1 0x0 DUP1 REVERT JUMPDEST POP PUSH2 0x344 PUSH2 0x909 CALLDATASIZE PUSH1 0x4 PUSH2 0x3ED1 JUMP JUMPDEST PUSH2 0x35FE JUMP JUMPDEST CALLVALUE DUP1 ISZERO PUSH2 0x91A JUMPI PUSH1 0x0 DUP1 REVERT JUMPDEST POP PUSH2 0x396 PUSH2 0x929 CALLDATASIZE PUSH1 0x4 PUSH2 0x3B48 JUMP JUMPDEST PUSH1 0x5 PUSH1 0x20 MSTORE PUSH1 0x0 SWAP1 DUP2 MSTORE PUSH1 0x40 SWAP1 KECCAK256 SLOAD DUP2 JUMP JUMPDEST PUSH1 0x0 DUP2 DUP2 MSTORE PUSH1 0x14 PUSH1 0x20 MSTORE PUSH1 0x40 DUP1 DUP3 KECCAK256 DUP2 MLOAD DUP1 DUP4 ADD SWAP1 SWAP3 MSTORE DUP1 SLOAD DUP4 SWAP3 DUP4 SWAP3 DUP4 SWAP3 DUP3 SWAP1 PUSH1 0xFF AND PUSH1 0x2 DUP2 GT ISZERO PUSH2 0x970 JUMPI PUSH2 0x970 PUSH2 0x3B7C JUMP JUMPDEST PUSH1 0x2 DUP2 GT ISZERO PUSH2 0x981 JUMPI PUSH2 0x981 PUSH2 0x3B7C JUMP JUMPDEST DUP2 MSTORE PUSH1 0x1 SWAP2 SWAP1 SWAP2 ADD SLOAD PUSH1 0x20 SWAP2 DUP3 ADD MSTORE DUP2 ADD MLOAD SWAP1 SWAP2 POP PUSH1 0x0 SUB PUSH2 0x9BE JUMPI PUSH1 0x40 MLOAD PUSH3 0x461BCD PUSH1 0xE5 SHL DUP2 MSTORE PUSH1 0x4 ADD PUSH2 0x9B5 SWAP1 PUSH2 0x4053 JUMP JUMPDEST PUSH1 0x40 MLOAD DUP1 SWAP2 SUB SWAP1 REVERT JUMPDEST PUSH1 0x0 JUMPDEST PUSH1 0x13 SLOAD DUP2 LT ISZERO PUSH2 0xA1D JUMPI DUP6 PUSH1 0x13 DUP3 DUP2 SLOAD DUP2 LT PUSH2 0x9DF JUMPI PUSH2 0x9DF PUSH2 0x408A JUMP JUMPDEST SWAP1 PUSH1 0x0 MSTORE PUSH1 0x20 PUSH1 0x0 KECCAK256 SWAP1 PUSH1 0x2 MUL ADD PUSH1 0x1 ADD SLOAD SUB PUSH2 0xA0B JUMPI DUP2 MLOAD PUSH1 0x20 SWAP1 SWAP3 ADD MLOAD SWAP2 SWAP5 POP SWAP1 SWAP3 POP SWAP1 POP PUSH2 0xA36 JUMP JUMPDEST DUP1 PUSH2 0xA15 DUP2 PUSH2 0x40B6 JUMP JUMPDEST SWAP2 POP POP PUSH2 0x9C1 JUMP JUMPDEST POP PUSH1 0x40 MLOAD PUSH3 0x461BCD PUSH1 0xE5 SHL DUP2 MSTORE PUSH1 0x4 ADD PUSH2 0x9B5 SWAP1 PUSH2 0x4053 JUMP JUMPDEST SWAP2 SWAP4 SWAP1 SWAP3 POP JUMP JUMPDEST PUSH1 0x13 DUP2 DUP2 SLOAD DUP2 LT PUSH2 0xA4D JUMPI PUSH1 0x0 DUP1 REVERT JUMPDEST PUSH1 0x0 SWAP2 DUP3 MSTORE PUSH1 0x20 SWAP1 SWAP2 KECCAK256 PUSH1 0x2 SWAP1 SWAP2 MUL ADD DUP1 SLOAD PUSH1 0x1 SWAP1 SWAP2 ADD SLOAD PUSH1 0xFF SWAP1 SWAP2 AND SWAP2 POP DUP3 JUMP JUMPDEST CALLER PUSH1 0x0 DUP2 DUP2 MSTORE PUSH1 0xC PUSH1 0x20 MSTORE PUSH1 0x40 SWAP1 KECCAK256 SLOAD PUSH1 0xFF AND PUSH2 0xACE JUMPI PUSH1 0x40 MLOAD PUSH3 0x461BCD PUSH1 0xE5 SHL DUP2 MSTORE PUSH1 0x20 PUSH1 0x4 DUP3 ADD MSTORE PUSH1 0x17 PUSH1 0x24 DUP3 ADD MSTORE PUSH32 0x55736572206973206E6F742077686974656C6973746564000000000000000000 PUSH1 0x44 DUP3 ADD MSTORE PUSH1 0x64 ADD PUSH2 0x9B5 JUMP JUMPDEST PUSH1 0x1 PUSH1 0x1 PUSH1 0xA0 SHL SUB DUP2 AND PUSH1 0x0 SWAP1 DUP2 MSTORE PUSH1 0x10 PUSH1 0x20 SWAP1 DUP2 MSTORE PUSH1 0x40 DUP1 DUP4 KECCAK256 SLOAD PUSH1 0x11 SWAP1 SWAP3 MSTORE SWAP1 SWAP2 KECCAK256 SLOAD DUP1 DUP3 LT ISZERO PUSH2 0xB3A JUMPI PUSH1 0x40 MLOAD PUSH3 0x461BCD PUSH1 0xE5 SHL DUP2 MSTORE PUSH1 0x20 PUSH1 0x4 DUP3 ADD MSTORE PUSH1 0x14 PUSH1 0x24 DUP3 ADD MSTORE PUSH20 0x496E76616C696420636C61696D2076616C756573 PUSH1 0x60 SHL PUSH1 0x44 DUP3 ADD MSTORE PUSH1 0x64 ADD PUSH2 0x9B5 JUMP JUMPDEST PUSH1 0x1 PUSH1 0x1 PUSH1 0xA0 SHL SUB DUP4 AND PUSH1 0x0 DUP2 DUP2 MSTORE PUSH1 0x11 PUSH1 0x20 SWAP1 DUP2 MSTORE PUSH1 0x40 DUP1 DUP4 KECCAK256 DUP7 SWAP1 SSTORE PUSH1 0xF DUP1 DUP4 MSTORE DUP2 DUP5 KECCAK256 SLOAD PUSH1 0x10 DUP5 MSTORE SWAP4 DUP3 SWAP1 KECCAK256 DUP5 SWAP1 SSTORE DUP3 MSTORE DUP1 MLOAD DUP7 DUP2 MSTORE SWAP2 DUP3 ADD SWAP3 SWAP1 SWAP3 MSTORE PUSH32 0xDC5EC23A202853E756BBB0C4F4CB94DEEA4936FCC71756DA3DDEBF99AABF6C9E SWAP2 ADD JUMPDEST PUSH1 0x40 MLOAD DUP1 SWAP2 SUB SWAP1 LOG2 POP POP POP JUMP JUMPDEST CALLER PUSH1 0x0 SWAP1 DUP2 MSTORE PUSH1 0xB PUSH1 0x20 MSTORE PUSH1 0x40 SWAP1 KECCAK256 SLOAD PUSH1 0xFF AND PUSH2 0xBDA JUMPI PUSH1 0x40 MLOAD PUSH3 0x461BCD PUSH1 0xE5 SHL DUP2 MSTORE PUSH1 0x4 ADD PUSH2 0x9B5 SWAP1 PUSH2 0x40CF JUMP JUMPDEST PUSH1 0x0 DUP2 PUSH1 0x40 MLOAD PUSH1 0x20 ADD PUSH2 0xBED SWAP2 SWAP1 PUSH2 0x4134 JUMP JUMPDEST PUSH1 0x40 DUP1 MLOAD PUSH1 0x1F NOT DUP2 DUP5 SUB ADD DUP2 MSTORE SWAP2 DUP2 MSTORE DUP2 MLOAD PUSH1 0x20 SWAP3 DUP4 ADD KECCAK256 PUSH1 0x1 PUSH1 0x1 PUSH1 0xA0 SHL SUB DUP7 AND PUSH1 0x0 SWAP1 DUP2 MSTORE PUSH1 0xC SWAP1 SWAP4 MSTORE SWAP2 KECCAK256 SLOAD SWAP1 SWAP2 POP PUSH1 0xFF AND ISZERO PUSH2 0xC6F JUMPI PUSH1 0x40 MLOAD PUSH3 0x461BCD PUSH1 0xE5 SHL DUP2 MSTORE PUSH1 0x20 PUSH1 0x4 DUP3 ADD MSTORE PUSH1 0x1B PUSH1 0x24 DUP3 ADD MSTORE PUSH32 0x4164647265737320616C72656164792077686974656C69737465640000000000 PUSH1 0x44 DUP3 ADD MSTORE PUSH1 0x64 ADD PUSH2 0x9B5 JUMP JUMPDEST PUSH1 0x1 PUSH1 0x1 PUSH1 0xA0 SHL SUB DUP4 AND PUSH1 0x0 DUP2 DUP2 MSTORE PUSH1 0x5 PUSH1 0x20 DUP2 DUP2 MSTORE PUSH1 0x40 DUP1 DUP5 KECCAK256 SWAP3 SWAP1 SWAP3 SSTORE PUSH1 0xC DUP2 MSTORE DUP2 DUP4 KECCAK256 DUP1 SLOAD PUSH1 0xFF NOT AND PUSH1 0x1 OR SWAP1 SSTORE PUSH1 0x12 DUP2 MSTORE SWAP2 DUP2 SWAP1 KECCAK256 DUP5 SWAP1 SSTORE MLOAD DUP4 DUP2 MSTORE PUSH32 0xC27D38AD1BDB4164D72E05492B5CE6099B4169E9F20B41D3C7CF35C114A64D5B SWAP2 ADD PUSH2 0xB9E JUMP JUMPDEST DUP4 DUP4 DUP4 DUP4 PUSH1 0x40 MLOAD PUSH1 0x20 ADD PUSH2 0xCED SWAP2 DUP2 MSTORE PUSH1 0x20 ADD SWAP1 JUMP JUMPDEST PUSH1 0x40 MLOAD PUSH1 0x20 DUP2 DUP4 SUB SUB DUP2 MSTORE SWAP1 PUSH1 0x40 MSTORE PUSH1 0x0 DUP5 PUSH1 0x40 MLOAD PUSH1 0x20 ADD PUSH2 0xD0F SWAP2 SWAP1 PUSH2 0x4150 JUMP JUMPDEST PUSH1 0x40 DUP1 MLOAD PUSH1 0x1F NOT DUP2 DUP5 SUB ADD DUP2 MSTORE SWAP2 SWAP1 MSTORE DUP1 MLOAD PUSH1 0x20 SWAP1 SWAP2 ADD KECCAK256 SWAP1 POP PUSH1 0x0 DUP1 DUP3 DUP2 MSTORE PUSH1 0x14 PUSH1 0x20 MSTORE PUSH1 0x40 SWAP1 KECCAK256 SLOAD PUSH1 0xFF AND PUSH1 0x2 DUP2 GT ISZERO PUSH2 0xD4D JUMPI PUSH2 0xD4D PUSH2 0x3B7C JUMP JUMPDEST EQ PUSH2 0xD6A JUMPI PUSH1 0x40 MLOAD PUSH3 0x461BCD PUSH1 0xE5 SHL DUP2 MSTORE PUSH1 0x4 ADD PUSH2 0x9B5 SWAP1 PUSH2 0x4187 JUMP JUMPDEST PUSH1 0x0 DUP3 DUP5 PUSH1 0x40 MLOAD PUSH1 0x20 ADD PUSH2 0xD7F SWAP3 SWAP2 SWAP1 PUSH2 0x41BC JUMP JUMPDEST PUSH1 0x40 DUP1 MLOAD PUSH1 0x1F NOT DUP2 DUP5 SUB ADD DUP2 MSTORE SWAP1 DUP3 SWAP1 MSTORE DUP1 MLOAD PUSH1 0x20 SWAP2 DUP3 ADD KECCAK256 DUP1 DUP4 MSTORE SWAP3 POP PUSH1 0x0 DUP1 MLOAD PUSH1 0x20 PUSH2 0x43B0 DUP4 CODECOPY DUP2 MLOAD SWAP2 MSTORE SWAP2 ADD PUSH1 0x40 MLOAD DUP1 SWAP2 SUB SWAP1 LOG1 PUSH1 0x0 PUSH2 0xDC3 DUP3 DUP8 DUP10 PUSH2 0x244F JUMP JUMPDEST PUSH1 0x17 DUP1 SLOAD PUSH1 0xFF NOT AND DUP3 ISZERO ISZERO OR SWAP1 SSTORE SWAP1 POP DUP1 PUSH2 0xE4E JUMPI PUSH1 0x40 MLOAD DUP3 DUP2 MSTORE PUSH1 0x0 DUP1 MLOAD PUSH1 0x20 PUSH2 0x4390 DUP4 CODECOPY DUP2 MLOAD SWAP2 MSTORE SWAP1 PUSH1 0x20 ADD JUMPDEST PUSH1 0x40 MLOAD DUP1 SWAP2 SUB SWAP1 LOG1 PUSH1 0x40 MLOAD PUSH3 0x461BCD PUSH1 0xE5 SHL DUP2 MSTORE PUSH1 0x20 PUSH1 0x4 DUP3 ADD MSTORE PUSH1 0x23 PUSH1 0x24 DUP3 ADD MSTORE PUSH32 0x416E6F6E4944436F6E74726163743A20566572696669636174696F6E20666169 PUSH1 0x44 DUP3 ADD MSTORE PUSH3 0x1B1959 PUSH1 0xEA SHL PUSH1 0x64 DUP3 ADD MSTORE PUSH1 0x84 ADD PUSH2 0x9B5 JUMP JUMPDEST PUSH1 0x0 DUP4 DUP2 MSTORE PUSH1 0x14 PUSH1 0x20 MSTORE PUSH1 0x40 SWAP1 DUP2 SWAP1 KECCAK256 SLOAD SWAP1 MLOAD PUSH1 0x0 DUP1 MLOAD PUSH1 0x20 PUSH2 0x43D0 DUP4 CODECOPY DUP2 MLOAD SWAP2 MSTORE SWAP2 PUSH2 0xE84 SWAP2 PUSH1 0xFF SWAP1 SWAP2 AND SWAP1 DUP7 SWAP1 DUP10 SWAP1 PUSH2 0x3BB4 JUMP JUMPDEST PUSH1 0x40 MLOAD DUP1 SWAP2 SUB SWAP1 LOG1 PUSH2 0xE96 DUP4 DUP7 PUSH2 0x36A3 JUMP JUMPDEST POP POP POP PUSH1 0x2 SWAP5 SWAP1 SWAP5 SSTORE POP POP POP POP POP POP POP JUMP JUMPDEST DUP4 DUP4 DUP4 DUP4 PUSH1 0x40 MLOAD PUSH1 0x20 ADD PUSH2 0xEBC SWAP2 SWAP1 PUSH2 0x4134 JUMP JUMPDEST PUSH1 0x40 MLOAD PUSH1 0x20 DUP2 DUP4 SUB SUB DUP2 MSTORE SWAP1 PUSH1 0x40 MSTORE PUSH1 0x0 DUP5 PUSH1 0x40 MLOAD PUSH1 0x20 ADD PUSH2 0xEDE SWAP2 SWAP1 PUSH2 0x4150 JUMP JUMPDEST PUSH1 0x40 DUP1 MLOAD PUSH1 0x1F NOT DUP2 DUP5 SUB ADD DUP2 MSTORE SWAP2 SWAP1 MSTORE DUP1 MLOAD PUSH1 0x20 SWAP1 SWAP2 ADD KECCAK256 SWAP1 POP PUSH1 0x0 DUP1 DUP3 DUP2 MSTORE PUSH1 0x14 PUSH1 0x20 MSTORE PUSH1 0x40 SWAP1 KECCAK256 SLOAD PUSH1 0xFF AND PUSH1 0x2 DUP2 GT ISZERO PUSH2 0xF1C JUMPI PUSH2 0xF1C PUSH2 0x3B7C JUMP JUMPDEST EQ PUSH2 0xF39 JUMPI PUSH1 0x40 MLOAD PUSH3 0x461BCD PUSH1 0xE5 SHL DUP2 MSTORE PUSH1 0x4 ADD PUSH2 0x9B5 SWAP1 PUSH2 0x4187 JUMP JUMPDEST PUSH1 0x0 DUP3 DUP5 PUSH1 0x40 MLOAD PUSH1 0x20 ADD PUSH2 0xF4E SWAP3 SWAP2 SWAP1 PUSH2 0x41BC JUMP JUMPDEST PUSH1 0x40 DUP1 MLOAD PUSH1 0x1F NOT DUP2 DUP5 SUB ADD DUP2 MSTORE SWAP1 DUP3 SWAP1 MSTORE DUP1 MLOAD PUSH1 0x20 SWAP2 DUP3 ADD KECCAK256 DUP1 DUP4 MSTORE SWAP3 POP PUSH1 0x0 DUP1 MLOAD PUSH1 0x20 PUSH2 0x43B0 DUP4 CODECOPY DUP2 MLOAD SWAP2 MSTORE SWAP2 ADD PUSH1 0x40 MLOAD DUP1 SWAP2 SUB SWAP1 LOG1 PUSH1 0x0 PUSH2 0xF92 DUP3 DUP8 DUP10 PUSH2 0x244F JUMP JUMPDEST PUSH1 0x17 DUP1 SLOAD PUSH1 0xFF NOT AND DUP3 ISZERO ISZERO OR SWAP1 SSTORE SWAP1 POP DUP1 PUSH2 0xFC5 JUMPI PUSH1 0x40 MLOAD DUP3 DUP2 MSTORE PUSH1 0x0 DUP1 MLOAD PUSH1 0x20 PUSH2 0x4390 DUP4 CODECOPY DUP2 MLOAD SWAP2 MSTORE SWAP1 PUSH1 0x20 ADD PUSH2 0xDF2 JUMP JUMPDEST PUSH1 0x0 DUP4 DUP2 MSTORE PUSH1 0x14 PUSH1 0x20 MSTORE PUSH1 0x40 SWAP1 DUP2 SWAP1 KECCAK256 SLOAD SWAP1 MLOAD PUSH1 0x0 DUP1 MLOAD PUSH1 0x20 PUSH2 0x43D0 DUP4 CODECOPY DUP2 MLOAD SWAP2 MSTORE SWAP2 PUSH2 0xFFB SWAP2 PUSH1 0xFF SWAP1 SWAP2 AND SWAP1 DUP7 SWAP1 DUP10 SWAP1 PUSH2 0x3BB4 JUMP JUMPDEST PUSH1 0x40 MLOAD DUP1 SWAP2 SUB SWAP1 LOG1 PUSH2 0x100D DUP4 DUP7 PUSH2 0x36A3 JUMP JUMPDEST POP POP POP PUSH1 0xA SWAP6 SWAP1 SWAP6 SSTORE POP POP POP POP POP POP POP JUMP JUMPDEST DUP3 DUP3 DUP3 DUP7 PUSH1 0x40 MLOAD PUSH1 0x20 ADD PUSH2 0x1033 SWAP2 SWAP1 PUSH2 0x41DE JUMP JUMPDEST PUSH1 0x40 MLOAD PUSH1 0x20 DUP2 DUP4 SUB SUB DUP2 MSTORE SWAP1 PUSH1 0x40 MSTORE PUSH1 0x0 DUP5 PUSH1 0x40 MLOAD PUSH1 0x20 ADD PUSH2 0x1055 SWAP2 SWAP1 PUSH2 0x4150 JUMP JUMPDEST PUSH1 0x40 DUP1 MLOAD PUSH1 0x1F NOT DUP2 DUP5 SUB ADD DUP2 MSTORE SWAP2 SWAP1 MSTORE DUP1 MLOAD PUSH1 0x20 SWAP1 SWAP2 ADD KECCAK256 SWAP1 POP PUSH1 0x0 DUP1 DUP3 DUP2 MSTORE PUSH1 0x14 PUSH1 0x20 MSTORE PUSH1 0x40 SWAP1 KECCAK256 SLOAD PUSH1 0xFF AND PUSH1 0x2 DUP2 GT ISZERO PUSH2 0x1093 JUMPI PUSH2 0x1093 PUSH2 0x3B7C JUMP JUMPDEST EQ PUSH2 0x10B0 JUMPI PUSH1 0x40 MLOAD PUSH3 0x461BCD PUSH1 0xE5 SHL DUP2 MSTORE PUSH1 0x4 ADD PUSH2 0x9B5 SWAP1 PUSH2 0x4187 JUMP JUMPDEST PUSH1 0x0 DUP3 DUP5 PUSH1 0x40 MLOAD PUSH1 0x20 ADD PUSH2 0x10C5 SWAP3 SWAP2 SWAP1 PUSH2 0x41BC JUMP JUMPDEST PUSH1 0x40 DUP1 MLOAD PUSH1 0x1F NOT DUP2 DUP5 SUB ADD DUP2 MSTORE SWAP1 DUP3 SWAP1 MSTORE DUP1 MLOAD PUSH1 0x20 SWAP2 DUP3 ADD KECCAK256 DUP1 DUP4 MSTORE SWAP3 POP PUSH1 0x0 DUP1 MLOAD PUSH1 0x20 PUSH2 0x43B0 DUP4 CODECOPY DUP2 MLOAD SWAP2 MSTORE SWAP2 ADD PUSH1 0x40 MLOAD DUP1 SWAP2 SUB SWAP1 LOG1 PUSH1 0x0 PUSH2 0x1109 DUP3 DUP8 DUP10 PUSH2 0x244F JUMP JUMPDEST PUSH1 0x17 DUP1 SLOAD PUSH1 0xFF NOT AND DUP3 ISZERO ISZERO OR SWAP1 SSTORE SWAP1 POP DUP1 PUSH2 0x113C JUMPI PUSH1 0x40 MLOAD DUP3 DUP2 MSTORE PUSH1 0x0 DUP1 MLOAD PUSH1 0x20 PUSH2 0x4390 DUP4 CODECOPY DUP2 MLOAD SWAP2 MSTORE SWAP1 PUSH1 0x20 ADD PUSH2 0xDF2 JUMP JUMPDEST PUSH1 0x0 DUP4 DUP2 MSTORE PUSH1 0x14 PUSH1 0x20 MSTORE PUSH1 0x40 SWAP1 DUP2 SWAP1 KECCAK256 SLOAD SWAP1 MLOAD PUSH1 0x0 DUP1 MLOAD PUSH1 0x20 PUSH2 0x43D0 DUP4 CODECOPY DUP2 MLOAD SWAP2 MSTORE SWAP2 PUSH2 0x1172 SWAP2 PUSH1 0xFF SWAP1 SWAP2 AND SWAP1 DUP7 SWAP1 DUP10 SWAP1 PUSH2 0x3BB4 JUMP JUMPDEST PUSH1 0x40 MLOAD DUP1 SWAP2 SUB SWAP1 LOG1 PUSH2 0x1184 DUP4 DUP7 PUSH2 0x36A3 JUMP JUMPDEST POP POP POP PUSH1 0x1 PUSH1 0x1 PUSH1 0xA0 SHL SUB SWAP1 SWAP8 AND PUSH1 0x0 SWAP1 DUP2 MSTORE PUSH1 0xB PUSH1 0x20 MSTORE PUSH1 0x40 SWAP1 KECCAK256 DUP1 SLOAD PUSH1 0xFF NOT AND SWAP1 SSTORE POP POP POP POP POP POP POP JUMP JUMPDEST DUP4 DUP4 DUP4 DUP4 PUSH1 0x40 MLOAD PUSH1 0x20 ADD PUSH2 0x11C7 SWAP2 DUP2 MSTORE PUSH1 0x20 ADD SWAP1 JUMP JUMPDEST PUSH1 0x40 MLOAD PUSH1 0x20 DUP2 DUP4 SUB SUB DUP2 MSTORE SWAP1 PUSH1 0x40 MSTORE PUSH1 0x0 DUP5 PUSH1 0x40 MLOAD PUSH1 0x20 ADD PUSH2 0x11E9 SWAP2 SWAP1 PUSH2 0x4150 JUMP JUMPDEST PUSH1 0x40 DUP1 MLOAD PUSH1 0x1F NOT DUP2 DUP5 SUB ADD DUP2 MSTORE SWAP2 SWAP1 MSTORE DUP1 MLOAD PUSH1 0x20 SWAP1 SWAP2 ADD KECCAK256 SWAP1 POP PUSH1 0x0 DUP1 DUP3 DUP2 MSTORE PUSH1 0x14 PUSH1 0x20 MSTORE PUSH1 0x40 SWAP1 KECCAK256 SLOAD PUSH1 0xFF AND PUSH1 0x2 DUP2 GT ISZERO PUSH2 0x1227 JUMPI PUSH2 0x1227 PUSH2 0x3B7C JUMP JUMPDEST EQ PUSH2 0x1244 JUMPI PUSH1 0x40 MLOAD PUSH3 0x461BCD PUSH1 0xE5 SHL DUP2 MSTORE PUSH1 0x4 ADD PUSH2 0x9B5 SWAP1 PUSH2 0x4187 JUMP JUMPDEST PUSH1 0x0 DUP3 DUP5 PUSH1 0x40 MLOAD PUSH1 0x20 ADD PUSH2 0x1259 SWAP3 SWAP2 SWAP1 PUSH2 0x41BC JUMP JUMPDEST PUSH1 0x40 DUP1 MLOAD PUSH1 0x1F NOT DUP2 DUP5 SUB ADD DUP2 MSTORE SWAP1 DUP3 SWAP1 MSTORE DUP1 MLOAD PUSH1 0x20 SWAP2 DUP3 ADD KECCAK256 DUP1 DUP4 MSTORE SWAP3 POP PUSH1 0x0 DUP1 MLOAD PUSH1 0x20 PUSH2 0x43B0 DUP4 CODECOPY DUP2 MLOAD SWAP2 MSTORE SWAP2 ADD PUSH1 0x40 MLOAD DUP1 SWAP2 SUB SWAP1 LOG1 PUSH1 0x0 PUSH2 0x129D DUP3 DUP8 DUP10 PUSH2 0x244F JUMP JUMPDEST PUSH1 0x17 DUP1 SLOAD PUSH1 0xFF NOT AND DUP3 ISZERO ISZERO OR SWAP1 SSTORE SWAP1 POP DUP1 PUSH2 0x12D0 JUMPI PUSH1 0x40 MLOAD DUP3 DUP2 MSTORE PUSH1 0x0 DUP1 MLOAD PUSH1 0x20 PUSH2 0x4390 DUP4 CODECOPY DUP2 MLOAD SWAP2 MSTORE SWAP1 PUSH1 0x20 ADD PUSH2 0xDF2 JUMP JUMPDEST PUSH1 0x0 DUP4 DUP2 MSTORE PUSH1 0x14 PUSH1 0x20 MSTORE PUSH1 0x40 SWAP1 DUP2 SWAP1 KECCAK256 SLOAD SWAP1 MLOAD PUSH1 0x0 DUP1 MLOAD PUSH1 0x20 PUSH2 0x43D0 DUP4 CODECOPY DUP2 MLOAD SWAP2 MSTORE SWAP2 PUSH2 0x1306 SWAP2 PUSH1 0xFF SWAP1 SWAP2 AND SWAP1 DUP7 SWAP1 DUP10 SWAP1 PUSH2 0x3BB4 JUMP JUMPDEST PUSH1 0x40 MLOAD DUP1 SWAP2 SUB SWAP1 LOG1 PUSH2 0x1318 DUP4 DUP7 PUSH2 0x36A3 JUMP JUMPDEST PUSH1 0x0 DUP12 PUSH1 0x40 MLOAD PUSH1 0x20 ADD PUSH2 0x132B SWAP2 SWAP1 PUSH2 0x4150 JUMP JUMPDEST PUSH1 0x40 DUP1 MLOAD PUSH1 0x1F NOT DUP2 DUP5 SUB ADD DUP2 MSTORE SWAP2 SWAP1 MSTORE DUP1 MLOAD PUSH1 0x20 SWAP1 SWAP2 ADD KECCAK256 PUSH1 0xA DUP1 SLOAD PUSH1 0x0 SWAP1 SWAP2 SSTORE SWAP1 SWAP2 POP DUP2 EQ ISZERO DUP1 PUSH2 0x13D1 JUMPI PUSH1 0x40 MLOAD PUSH3 0x461BCD PUSH1 0xE5 SHL DUP2 MSTORE PUSH1 0x20 PUSH1 0x4 DUP3 ADD MSTORE PUSH1 0x43 PUSH1 0x24 DUP3 ADD MSTORE PUSH32 0x416E6F6E4944436F6E74726163743A20504B48206D617463686573206C617374 PUSH1 0x44 DUP3 ADD MSTORE PUSH32 0x207573656420504B482028757365207365706172617465207365636F6E64206B PUSH1 0x64 DUP3 ADD MSTORE PUSH3 0x657929 PUSH1 0xE8 SHL PUSH1 0x84 DUP3 ADD MSTORE PUSH1 0xA4 ADD PUSH2 0x9B5 JUMP JUMPDEST PUSH2 0x13DC PUSH1 0x0 DUP12 PUSH2 0x3841 JUMP JUMPDEST POP POP PUSH1 0x0 PUSH1 0xA SSTORE POP POP POP POP POP POP POP POP POP POP POP JUMP JUMPDEST DUP4 DUP4 DUP4 DUP4 PUSH1 0x40 MLOAD PUSH1 0x20 ADD PUSH2 0x1404 SWAP2 SWAP1 PUSH2 0x41DE JUMP JUMPDEST PUSH1 0x40 MLOAD PUSH1 0x20 DUP2 DUP4 SUB SUB DUP2 MSTORE SWAP1 PUSH1 0x40 MSTORE PUSH1 0x0 DUP5 PUSH1 0x40 MLOAD PUSH1 0x20 ADD PUSH2 0x1426 SWAP2 SWAP1 PUSH2 0x4150 JUMP JUMPDEST PUSH1 0x40 DUP1 MLOAD PUSH1 0x1F NOT DUP2 DUP5 SUB ADD DUP2 MSTORE SWAP2 SWAP1 MSTORE DUP1 MLOAD PUSH1 0x20 SWAP1 SWAP2 ADD KECCAK256 SWAP1 POP PUSH1 0x0 DUP1 DUP3 DUP2 MSTORE PUSH1 0x14 PUSH1 0x20 MSTORE PUSH1 0x40 SWAP1 KECCAK256 SLOAD PUSH1 0xFF AND PUSH1 0x2 DUP2 GT ISZERO PUSH2 0x1464 JUMPI PUSH2 0x1464 PUSH2 0x3B7C JUMP JUMPDEST EQ PUSH2 0x1481 JUMPI PUSH1 0x40 MLOAD PUSH3 0x461BCD PUSH1 0xE5 SHL DUP2 MSTORE PUSH1 0x4 ADD PUSH2 0x9B5 SWAP1 PUSH2 0x4187 JUMP JUMPDEST PUSH1 0x0 DUP3 DUP5 PUSH1 0x40 MLOAD PUSH1 0x20 ADD PUSH2 0x1496 SWAP3 SWAP2 SWAP1 PUSH2 0x41BC JUMP JUMPDEST PUSH1 0x40 DUP1 MLOAD PUSH1 0x1F NOT DUP2 DUP5 SUB ADD DUP2 MSTORE SWAP1 DUP3 SWAP1 MSTORE DUP1 MLOAD PUSH1 0x20 SWAP2 DUP3 ADD KECCAK256 DUP1 DUP4 MSTORE SWAP3 POP PUSH1 0x0 DUP1 MLOAD PUSH1 0x20 PUSH2 0x43B0 DUP4 CODECOPY DUP2 MLOAD SWAP2 MSTORE SWAP2 ADD PUSH1 0x40 MLOAD DUP1 SWAP2 SUB SWAP1 LOG1 PUSH1 0x0 PUSH2 0x14DA DUP3 DUP8 DUP10 PUSH2 0x244F JUMP JUMPDEST PUSH1 0x17 DUP1 SLOAD PUSH1 0xFF NOT AND DUP3 ISZERO ISZERO OR SWAP1 SSTORE SWAP1 POP DUP1 PUSH2 0x150D JUMPI PUSH1 0x40 MLOAD DUP3 DUP2 MSTORE PUSH1 0x0 DUP1 MLOAD PUSH1 0x20 PUSH2 0x4390 DUP4 CODECOPY DUP2 MLOAD SWAP2 MSTORE SWAP1 PUSH1 0x20 ADD PUSH2 0xDF2 JUMP JUMPDEST PUSH1 0x0 DUP4 DUP2 MSTORE PUSH1 0x14 PUSH1 0x20 MSTORE PUSH1 0x40 SWAP1 DUP2 SWAP1 KECCAK256 SLOAD SWAP1 MLOAD PUSH1 0x0 DUP1 MLOAD PUSH1 0x20 PUSH2 0x43D0 DUP4 CODECOPY DUP2 MLOAD SWAP2 MSTORE SWAP2 PUSH2 0x1543 SWAP2 PUSH1 0xFF SWAP1 SWAP2 AND SWAP1 DUP7 SWAP1 DUP10 SWAP1 PUSH2 0x3BB4 JUMP JUMPDEST PUSH1 0x40 MLOAD DUP1 SWAP2 SUB SWAP1 LOG1 PUSH2 0x1555 DUP4 DUP7 PUSH2 0x36A3 JUMP JUMPDEST DUP8 PUSH1 0x40 MLOAD PUSH1 0x20 ADD PUSH2 0x1566 SWAP2 SWAP1 PUSH2 0x41DE JUMP JUMPDEST PUSH1 0x40 MLOAD PUSH1 0x20 DUP2 DUP4 SUB SUB DUP2 MSTORE SWAP1 PUSH1 0x40 MSTORE DUP1 MLOAD SWAP1 PUSH1 0x20 ADD KECCAK256 PUSH1 0x4 SLOAD EQ PUSH2 0x15F4 JUMPI PUSH1 0x40 DUP1 MLOAD PUSH3 0x461BCD PUSH1 0xE5 SHL DUP2 MSTORE PUSH1 0x20 PUSH1 0x4 DUP3 ADD MSTORE PUSH1 0x24 DUP2 ADD SWAP2 SWAP1 SWAP2 MSTORE PUSH32 0x416E6F6E4944436F6E74726163743A204D69736D617463686564206164647265 PUSH1 0x44 DUP3 ADD MSTORE PUSH32 0x73732068617368206265747765656E2073746570206F6E6520616E642074776F PUSH1 0x64 DUP3 ADD MSTORE PUSH1 0x84 ADD PUSH2 0x9B5 JUMP JUMPDEST PUSH1 0x6 DUP1 SLOAD PUSH1 0x1 PUSH1 0x1 PUSH1 0xA0 SHL SUB NOT AND PUSH1 0x1 PUSH1 0x1 PUSH1 0xA0 SHL SUB DUP11 AND SWAP1 DUP2 OR SWAP1 SWAP2 SSTORE PUSH1 0x0 PUSH1 0x4 DUP2 SWAP1 SSTORE PUSH1 0x40 MLOAD PUSH32 0x78CB7D38F54B570D3AA94EDFE9942FF10D8B002A73299229EA4ECE39479EB116 SWAP2 SWAP1 LOG2 POP POP POP POP POP POP POP POP POP POP POP JUMP JUMPDEST CALLER PUSH1 0x0 SWAP1 DUP2 MSTORE PUSH1 0xB PUSH1 0x20 MSTORE PUSH1 0x40 SWAP1 KECCAK256 SLOAD PUSH1 0xFF AND PUSH2 0x16C5 JUMPI PUSH1 0x40 MLOAD PUSH3 0x461BCD PUSH1 0xE5 SHL DUP2 MSTORE PUSH1 0x20 PUSH1 0x4 DUP3 ADD MSTORE PUSH1 0x30 PUSH1 0x24 DUP3 ADD MSTORE PUSH32 0x4E6F74207065726D697474656420746F206D6F6469667920686F75726C792074 PUSH1 0x44 DUP3 ADD MSTORE PUSH16 0x72616E73616374696F6E2071756F7461 PUSH1 0x80 SHL PUSH1 0x64 DUP3 ADD MSTORE PUSH1 0x84 ADD PUSH2 0x9B5 JUMP JUMPDEST PUSH1 0x1 PUSH1 0x1 PUSH1 0xA0 SHL SUB DUP3 AND PUSH1 0x0 SWAP1 DUP2 MSTORE PUSH1 0xC PUSH1 0x20 MSTORE PUSH1 0x40 SWAP1 KECCAK256 SLOAD PUSH1 0xFF AND PUSH2 0x172D JUMPI PUSH1 0x40 MLOAD PUSH3 0x461BCD PUSH1 0xE5 SHL DUP2 MSTORE PUSH1 0x20 PUSH1 0x4 DUP3 ADD MSTORE PUSH1 0x1E PUSH1 0x24 DUP3 ADD MSTORE PUSH32 0x41646472657373206E6F7420666F756E6420696E2077686974656C6973740000 PUSH1 0x44 DUP3 ADD MSTORE PUSH1 0x64 ADD PUSH2 0x9B5 JUMP JUMPDEST PUSH1 0x1 PUSH1 0x1 PUSH1 0xA0 SHL SUB DUP3 AND PUSH1 0x0 DUP2 DUP2 MSTORE PUSH1 0x5 PUSH1 0x20 MSTORE PUSH1 0x40 SWAP1 DUP2 SWAP1 KECCAK256 DUP4 SWAP1 SSTORE MLOAD PUSH32 0x49E4E7CA63DCC35A72589F844CB844CE25176E8E1AFF16F1AD1FB46624C65372 SWAP1 PUSH2 0x177A SWAP1 DUP5 DUP2 MSTORE PUSH1 0x20 ADD SWAP1 JUMP JUMPDEST PUSH1 0x40 MLOAD DUP1 SWAP2 SUB SWAP1 LOG2 POP POP JUMP JUMPDEST PUSH1 0x0 DUP5 DUP5 DUP5 DUP5 PUSH1 0x40 MLOAD PUSH1 0x20 ADD PUSH2 0x179C SWAP2 SWAP1 PUSH2 0x4134 JUMP JUMPDEST PUSH1 0x40 MLOAD PUSH1 0x20 DUP2 DUP4 SUB SUB DUP2 MSTORE SWAP1 PUSH1 0x40 MSTORE PUSH1 0x0 DUP5 PUSH1 0x40 MLOAD PUSH1 0x20 ADD PUSH2 0x17BE SWAP2 SWAP1 PUSH2 0x4150 JUMP JUMPDEST PUSH1 0x40 DUP1 MLOAD PUSH1 0x1F NOT DUP2 DUP5 SUB ADD DUP2 MSTORE SWAP2 SWAP1 MSTORE DUP1 MLOAD PUSH1 0x20 SWAP1 SWAP2 ADD KECCAK256 SWAP1 POP PUSH1 0x0 DUP1 DUP3 DUP2 MSTORE PUSH1 0x14 PUSH1 0x20 MSTORE PUSH1 0x40 SWAP1 KECCAK256 SLOAD PUSH1 0xFF AND PUSH1 0x2 DUP2 GT ISZERO PUSH2 0x17FC JUMPI PUSH2 0x17FC PUSH2 0x3B7C JUMP JUMPDEST EQ PUSH2 0x1819 JUMPI PUSH1 0x40 MLOAD PUSH3 0x461BCD PUSH1 0xE5 SHL DUP2 MSTORE PUSH1 0x4 ADD PUSH2 0x9B5 SWAP1 PUSH2 0x4187 JUMP JUMPDEST PUSH1 0x0 DUP3 DUP5 PUSH1 0x40 MLOAD PUSH1 0x20 ADD PUSH2 0x182E SWAP3 SWAP2 SWAP1 PUSH2 0x41BC JUMP JUMPDEST PUSH1 0x40 DUP1 MLOAD PUSH1 0x1F NOT DUP2 DUP5 SUB ADD DUP2 MSTORE SWAP1 DUP3 SWAP1 MSTORE DUP1 MLOAD PUSH1 0x20 SWAP2 DUP3 ADD KECCAK256 DUP1 DUP4 MSTORE SWAP3 POP PUSH1 0x0 DUP1 MLOAD PUSH1 0x20 PUSH2 0x43B0 DUP4 CODECOPY DUP2 MLOAD SWAP2 MSTORE SWAP2 ADD PUSH1 0x40 MLOAD DUP1 SWAP2 SUB SWAP1 LOG1 PUSH1 0x0 PUSH2 0x1872 DUP3 DUP8 DUP10 PUSH2 0x244F JUMP JUMPDEST PUSH1 0x17 DUP1 SLOAD PUSH1 0xFF NOT AND DUP3 ISZERO ISZERO OR SWAP1 SSTORE SWAP1 POP DUP1 PUSH2 0x18A5 JUMPI PUSH1 0x40 MLOAD DUP3 DUP2 MSTORE PUSH1 0x0 DUP1 MLOAD PUSH1 0x20 PUSH2 0x4390 DUP4 CODECOPY DUP2 MLOAD SWAP2 MSTORE SWAP1 PUSH1 0x20 ADD PUSH2 0xDF2 JUMP JUMPDEST PUSH1 0x0 DUP4 DUP2 MSTORE PUSH1 0x14 PUSH1 0x20 MSTORE PUSH1 0x40 SWAP1 DUP2 SWAP1 KECCAK256 SLOAD SWAP1 MLOAD PUSH1 0x0 DUP1 MLOAD PUSH1 0x20 PUSH2 0x43D0 DUP4 CODECOPY DUP2 MLOAD SWAP2 MSTORE SWAP2 PUSH2 0x18DB SWAP2 PUSH1 0xFF SWAP1 SWAP2 AND SWAP1 DUP7 SWAP1 DUP10 SWAP1 PUSH2 0x3BB4 JUMP JUMPDEST PUSH1 0x40 MLOAD DUP1 SWAP2 SUB SWAP1 LOG1 PUSH2 0x18ED DUP4 DUP7 PUSH2 0x36A3 JUMP JUMPDEST PUSH1 0x3 SLOAD DUP10 MLOAD PUSH1 0x20 DUP12 ADD KECCAK256 EQ PUSH2 0x1962 JUMPI PUSH1 0x40 MLOAD PUSH3 0x461BCD PUSH1 0xE5 SHL DUP2 MSTORE PUSH1 0x20 PUSH1 0x4 DUP3 ADD MSTORE PUSH1 0x35 PUSH1 0x24 DUP3 ADD MSTORE PUSH32 0x42797465636F646520646F6573206E6F74206D617463682070726576696F7573 PUSH1 0x44 DUP3 ADD MSTORE PUSH21 0x363C90383937BB34B232B210313CBA32B1B7B23297 PUSH1 0x59 SHL PUSH1 0x64 DUP3 ADD MSTORE PUSH1 0x84 ADD PUSH2 0x9B5 JUMP JUMPDEST PUSH1 0x0 DUP10 MLOAD PUSH1 0x20 DUP12 ADD PUSH1 0x0 CREATE SWAP1 POP PUSH1 0x1 PUSH1 0x1 PUSH1 0xA0 SHL SUB DUP2 AND PUSH2 0x19C5 JUMPI PUSH1 0x40 MLOAD PUSH3 0x461BCD PUSH1 0xE5 SHL DUP2 MSTORE PUSH1 0x20 PUSH1 0x4 DUP3 ADD MSTORE PUSH1 0x18 PUSH1 0x24 DUP3 ADD MSTORE PUSH32 0x436F6E7472616374206372656174696F6E206661696C65640000000000000000 PUSH1 0x44 DUP3 ADD MSTORE PUSH1 0x64 ADD PUSH2 0x9B5 JUMP JUMPDEST SWAP13 SWAP12 POP POP POP POP POP POP POP POP POP POP POP POP JUMP JUMPDEST DUP4 DUP4 DUP4 DUP4 PUSH1 0x40 MLOAD PUSH1 0x20 ADD PUSH2 0x19EB SWAP2 DUP2 MSTORE PUSH1 0x20 ADD SWAP1 JUMP JUMPDEST PUSH1 0x40 MLOAD PUSH1 0x20 DUP2 DUP4 SUB SUB DUP2 MSTORE SWAP1 PUSH1 0x40 MSTORE PUSH1 0x0 DUP5 PUSH1 0x40 MLOAD PUSH1 0x20 ADD PUSH2 0x1A0D SWAP2 SWAP1 PUSH2 0x4150 JUMP JUMPDEST PUSH1 0x40 DUP1 MLOAD PUSH1 0x1F NOT DUP2 DUP5 SUB ADD DUP2 MSTORE SWAP2 SWAP1 MSTORE DUP1 MLOAD PUSH1 0x20 SWAP1 SWAP2 ADD KECCAK256 SWAP1 POP PUSH1 0x0 DUP1 DUP3 DUP2 MSTORE PUSH1 0x14 PUSH1 0x20 MSTORE PUSH1 0x40 SWAP1 KECCAK256 SLOAD PUSH1 0xFF AND PUSH1 0x2 DUP2 GT ISZERO PUSH2 0x1A4B JUMPI PUSH2 0x1A4B PUSH2 0x3B7C JUMP JUMPDEST EQ PUSH2 0x1A68 JUMPI PUSH1 0x40 MLOAD PUSH3 0x461BCD PUSH1 0xE5 SHL DUP2 MSTORE PUSH1 0x4 ADD PUSH2 0x9B5 SWAP1 PUSH2 0x4187 JUMP JUMPDEST PUSH1 0x0 DUP3 DUP5 PUSH1 0x40 MLOAD PUSH1 0x20 ADD PUSH2 0x1A7D SWAP3 SWAP2 SWAP1 PUSH2 0x41BC JUMP JUMPDEST PUSH1 0x40 DUP1 MLOAD PUSH1 0x1F NOT DUP2 DUP5 SUB ADD DUP2 MSTORE SWAP1 DUP3 SWAP1 MSTORE DUP1 MLOAD PUSH1 0x20 SWAP2 DUP3 ADD KECCAK256 DUP1 DUP4 MSTORE SWAP3 POP PUSH1 0x0 DUP1 MLOAD PUSH1 0x20 PUSH2 0x43B0 DUP4 CODECOPY DUP2 MLOAD SWAP2 MSTORE SWAP2 ADD PUSH1 0x40 MLOAD DUP1 SWAP2 SUB SWAP1 LOG1 PUSH1 0x0 PUSH2 0x1AC1 DUP3 DUP8 DUP10 PUSH2 0x244F JUMP JUMPDEST PUSH1 0x17 DUP1 SLOAD PUSH1 0xFF NOT AND DUP3 ISZERO ISZERO OR SWAP1 SSTORE SWAP1 POP DUP1 PUSH2 0x1AF4 JUMPI PUSH1 0x40 MLOAD DUP3 DUP2 MSTORE PUSH1 0x0 DUP1 MLOAD PUSH1 0x20 PUSH2 0x4390 DUP4 CODECOPY DUP2 MLOAD SWAP2 MSTORE SWAP1 PUSH1 0x20 ADD PUSH2 0xDF2 JUMP JUMPDEST PUSH1 0x0 DUP4 DUP2 MSTORE PUSH1 0x14 PUSH1 0x20 MSTORE PUSH1 0x40 SWAP1 DUP2 SWAP1 KECCAK256 SLOAD SWAP1 MLOAD PUSH1 0x0 DUP1 MLOAD PUSH1 0x20 PUSH2 0x43D0 DUP4 CODECOPY DUP2 MLOAD SWAP2 MSTORE SWAP2 PUSH2 0x1B2A SWAP2 PUSH1 0xFF SWAP1 SWAP2 AND SWAP1 DUP7 SWAP1 DUP10 SWAP1 PUSH2 0x3BB4 JUMP JUMPDEST PUSH1 0x40 MLOAD DUP1 SWAP2 SUB SWAP1 LOG1 PUSH2 0x1B3C DUP4 DUP7 PUSH2 0x36A3 JUMP JUMPDEST PUSH1 0x14 DUP9 GT ISZERO PUSH2 0x1BB3 JUMPI PUSH1 0x40 MLOAD PUSH3 0x461BCD PUSH1 0xE5 SHL DUP2 MSTORE PUSH1 0x20 PUSH1 0x4 DUP3 ADD MSTORE PUSH1 0x37 PUSH1 0x24 DUP3 ADD MSTORE PUSH32 0x416E6F6E4944436F6E74726163743A20436F6D6D697373696F6E2073686F756C PUSH1 0x44 DUP3 ADD MSTORE PUSH32 0x64206265206265747765656E20302520616E6420323025000000000000000000 PUSH1 0x64 DUP3 ADD MSTORE PUSH1 0x84 ADD PUSH2 0x9B5 JUMP JUMPDEST PUSH1 0x2 SLOAD DUP9 EQ PUSH2 0x1C38 JUMPI PUSH1 0x40 MLOAD PUSH3 0x461BCD PUSH1 0xE5 SHL DUP2 MSTORE PUSH1 0x20 PUSH1 0x4 DUP3 ADD MSTORE PUSH1 0x45 PUSH1 0x24 DUP3 ADD MSTORE PUSH32 0x416E6F6E4944436F6E74726163743A204D69736D61746368656420636F6D6D69 PUSH1 0x44 DUP3 ADD MSTORE PUSH32 0x7373696F6E2076616C756573206265747765656E2073746570206F6E6520616E PUSH1 0x64 DUP3 ADD MSTORE PUSH5 0x642074776F PUSH1 0xD8 SHL PUSH1 0x84 DUP3 ADD MSTORE PUSH1 0xA4 ADD PUSH2 0x9B5 JUMP JUMPDEST PUSH1 0x1 DUP9 SWAP1 SSTORE PUSH1 0x0 PUSH1 0x2 SSTORE PUSH1 0x40 MLOAD DUP9 DUP2 MSTORE PUSH32 0x11BF320227562BD5F6C9B575913CF92B3B996B47873159DF227324AE1BB4D0EA SWAP1 PUSH1 0x20 ADD JUMPDEST PUSH1 0x40 MLOAD DUP1 SWAP2 SUB SWAP1 LOG1 POP POP POP POP POP POP POP POP POP POP POP JUMP JUMPDEST PUSH1 0x0 CALLER PUSH20 0x2685751D3C7A49EBF485E823079AC65E2A35A3DD DUP2 EQ SWAP1 PUSH2 0x1CA7 SWAP1 PUSH2 0x394A JUMP JUMPDEST PUSH1 0x40 MLOAD PUSH1 0x20 ADD PUSH2 0x1CB7 SWAP2 SWAP1 PUSH2 0x41FB JUMP JUMPDEST PUSH1 0x40 MLOAD PUSH1 0x20 DUP2 DUP4 SUB SUB DUP2 MSTORE SWAP1 PUSH1 0x40 MSTORE SWAP1 PUSH2 0x1CE4 JUMPI PUSH1 0x40 MLOAD PUSH3 0x461BCD PUSH1 0xE5 SHL DUP2 MSTORE PUSH1 0x4 ADD PUSH2 0x9B5 SWAP2 SWAP1 PUSH2 0x4256 JUMP JUMPDEST POP PUSH1 0x1 PUSH1 0x1 PUSH1 0xA0 SHL SUB DUP3 AND PUSH1 0x0 SWAP1 DUP2 MSTORE PUSH1 0xC PUSH1 0x20 MSTORE PUSH1 0x40 SWAP1 KECCAK256 SLOAD PUSH1 0xFF AND PUSH2 0x1D0D JUMPI POP PUSH1 0x0 SWAP2 SWAP1 POP JUMP JUMPDEST PUSH1 0x1 PUSH1 0x1 PUSH1 0xA0 SHL SUB DUP3 AND PUSH1 0x0 SWAP1 DUP2 MSTORE PUSH1 0x5 PUSH1 0x20 MSTORE PUSH1 0x40 DUP2 KECCAK256 SLOAD SWAP1 SUB PUSH2 0x1D34 JUMPI POP PUSH1 0x0 SWAP2 SWAP1 POP JUMP JUMPDEST PUSH1 0x1 PUSH1 0x1 PUSH1 0xA0 SHL SUB DUP3 AND PUSH1 0x0 SWAP1 DUP2 MSTORE PUSH1 0x15 PUSH1 0x20 SWAP1 DUP2 MSTORE PUSH1 0x40 DUP1 DUP4 KECCAK256 PUSH1 0x16 DUP4 MSTORE DUP2 DUP5 KECCAK256 PUSH1 0x5 SWAP1 SWAP4 MSTORE SWAP3 KECCAK256 SLOAD PUSH1 0x1 DUP4 ADD SLOAD LT PUSH2 0x1DD4 JUMPI DUP2 SLOAD PUSH2 0xE10 DUP3 DUP3 PUSH2 0x1F4 DUP2 LT PUSH2 0x1D80 JUMPI PUSH2 0x1D80 PUSH2 0x408A JUMP JUMPDEST ADD SLOAD PUSH2 0x1D8C SWAP1 TIMESTAMP PUSH2 0x4289 JUMP JUMPDEST GT PUSH2 0x1D9C JUMPI POP PUSH1 0x0 SWAP5 SWAP4 POP POP POP POP JUMP JUMPDEST PUSH1 0x1 PUSH1 0x1 PUSH1 0xA0 SHL SUB DUP6 AND PUSH1 0x0 SWAP1 DUP2 MSTORE PUSH1 0x5 PUSH1 0x20 MSTORE PUSH1 0x40 SWAP1 KECCAK256 SLOAD DUP4 SLOAD PUSH2 0x1DC2 SWAP1 PUSH1 0x1 PUSH2 0x429C JUMP JUMPDEST PUSH2 0x1DCC SWAP2 SWAP1 PUSH2 0x42AF JUMP JUMPDEST DUP4 SSTORE POP PUSH2 0x1DEC JUMP JUMPDEST PUSH1 0x1 DUP3 ADD DUP1 SLOAD SWAP1 PUSH1 0x0 PUSH2 0x1DE6 DUP4 PUSH2 0x40B6 JUMP JUMPDEST SWAP2 SWAP1 POP SSTORE POP JUMPDEST PUSH1 0x1 PUSH1 0x1 PUSH1 0xA0 SHL SUB DUP5 AND PUSH1 0x0 SWAP1 DUP2 MSTORE PUSH1 0x5 PUSH1 0x20 MSTORE PUSH1 0x40 DUP2 KECCAK256 SLOAD PUSH1 0x1 DUP5 DUP2 ADD SLOAD DUP6 SLOAD PUSH2 0x1E17 SWAP2 SWAP1 PUSH2 0x429C JUMP JUMPDEST PUSH2 0x1E21 SWAP2 SWAP1 PUSH2 0x4289 JUMP JUMPDEST PUSH2 0x1E2B SWAP2 SWAP1 PUSH2 0x42AF JUMP JUMPDEST SWAP1 POP TIMESTAMP DUP3 DUP3 PUSH2 0x1F4 DUP2 LT PUSH2 0x1E41 JUMPI PUSH2 0x1E41 PUSH2 0x408A JUMP JUMPDEST ADD SSTORE PUSH1 0x40 MLOAD TIMESTAMP DUP2 MSTORE PUSH1 0x1 PUSH1 0x1 PUSH1 0xA0 SHL SUB DUP7 AND SWAP1 PUSH32 0x9ED0861F8FC182C8888F48E900842F475CCD2A3C93C6F966168EAA67D52D2EE1 SWAP1 PUSH1 0x20 ADD PUSH1 0x40 MLOAD DUP1 SWAP2 SUB SWAP1 LOG2 POP PUSH1 0x1 SWAP5 SWAP4 POP POP POP POP JUMP JUMPDEST CALLER PUSH1 0x0 SWAP1 DUP2 MSTORE PUSH1 0xB PUSH1 0x20 MSTORE PUSH1 0x40 SWAP1 KECCAK256 SLOAD PUSH1 0xFF AND PUSH2 0x1EBB JUMPI PUSH1 0x40 MLOAD PUSH3 0x461BCD PUSH1 0xE5 SHL DUP2 MSTORE PUSH1 0x4 ADD PUSH2 0x9B5 SWAP1 PUSH2 0x40CF JUMP JUMPDEST PUSH1 0x1 PUSH1 0x1 PUSH1 0xA0 SHL SUB DUP2 AND PUSH1 0x0 SWAP1 DUP2 MSTORE PUSH1 0xC PUSH1 0x20 MSTORE PUSH1 0x40 SWAP1 KECCAK256 SLOAD PUSH1 0xFF AND PUSH2 0x1F23 JUMPI PUSH1 0x40 MLOAD PUSH3 0x461BCD PUSH1 0xE5 SHL DUP2 MSTORE PUSH1 0x20 PUSH1 0x4 DUP3 ADD MSTORE PUSH1 0x1E PUSH1 0x24 DUP3 ADD MSTORE PUSH32 0x41646472657373206E6F7420666F756E6420696E2077686974656C6973740000 PUSH1 0x44 DUP3 ADD MSTORE PUSH1 0x64 ADD PUSH2 0x9B5 JUMP JUMPDEST PUSH1 0x1 PUSH1 0x1 PUSH1 0xA0 SHL SUB DUP2 AND PUSH1 0x0 DUP2 DUP2 MSTORE PUSH1 0xC PUSH1 0x20 SWAP1 DUP2 MSTORE PUSH1 0x40 DUP1 DUP4 KECCAK256 DUP1 SLOAD PUSH1 0xFF NOT AND SWAP1 SSTORE PUSH1 0x12 SWAP1 SWAP2 MSTORE DUP1 DUP3 KECCAK256 DUP3 SWAP1 SSTORE MLOAD PUSH32 0xCDD2E9B91A56913D370075169CEFA1602BA36BE5301664F752192BB1709DF757 SWAP2 SWAP1 LOG2 POP JUMP JUMPDEST DUP4 DUP3 DUP5 DUP4 PUSH1 0x40 MLOAD PUSH1 0x20 ADD PUSH2 0x1F8F SWAP2 DUP2 MSTORE PUSH1 0x20 ADD SWAP1 JUMP JUMPDEST PUSH1 0x40 MLOAD PUSH1 0x20 DUP2 DUP4 SUB SUB DUP2 MSTORE SWAP1 PUSH1 0x40 MSTORE PUSH1 0x0 DUP5 PUSH1 0x40 MLOAD PUSH1 0x20 ADD PUSH2 0x1FB1 SWAP2 SWAP1 PUSH2 0x4150 JUMP JUMPDEST PUSH1 0x40 DUP1 MLOAD PUSH1 0x1F NOT DUP2 DUP5 SUB ADD DUP2 MSTORE SWAP2 SWAP1 MSTORE DUP1 MLOAD PUSH1 0x20 SWAP1 SWAP2 ADD KECCAK256 SWAP1 POP PUSH1 0x0 DUP1 DUP3 DUP2 MSTORE PUSH1 0x14 PUSH1 0x20 MSTORE PUSH1 0x40 SWAP1 KECCAK256 SLOAD PUSH1 0xFF AND PUSH1 0x2 DUP2 GT ISZERO PUSH2 0x1FEF JUMPI PUSH2 0x1FEF PUSH2 0x3B7C JUMP JUMPDEST EQ PUSH2 0x200C JUMPI PUSH1 0x40 MLOAD PUSH3 0x461BCD PUSH1 0xE5 SHL DUP2 MSTORE PUSH1 0x4 ADD PUSH2 0x9B5 SWAP1 PUSH2 0x4187 JUMP JUMPDEST PUSH1 0x0 DUP3 DUP5 PUSH1 0x40 MLOAD PUSH1 0x20 ADD PUSH2 0x2021 SWAP3 SWAP2 SWAP1 PUSH2 0x41BC JUMP JUMPDEST PUSH1 0x40 DUP1 MLOAD PUSH1 0x1F NOT DUP2 DUP5 SUB ADD DUP2 MSTORE SWAP1 DUP3 SWAP1 MSTORE DUP1 MLOAD PUSH1 0x20 SWAP2 DUP3 ADD KECCAK256 DUP1 DUP4 MSTORE SWAP3 POP PUSH1 0x0 DUP1 MLOAD PUSH1 0x20 PUSH2 0x43B0 DUP4 CODECOPY DUP2 MLOAD SWAP2 MSTORE SWAP2 ADD PUSH1 0x40 MLOAD DUP1 SWAP2 SUB SWAP1 LOG1 PUSH1 0x0 PUSH2 0x2065 DUP3 DUP8 DUP10 PUSH2 0x244F JUMP JUMPDEST PUSH1 0x17 DUP1 SLOAD PUSH1 0xFF NOT AND DUP3 ISZERO ISZERO OR SWAP1 SSTORE SWAP1 POP DUP1 PUSH2 0x2098 JUMPI PUSH1 0x40 MLOAD DUP3 DUP2 MSTORE PUSH1 0x0 DUP1 MLOAD PUSH1 0x20 PUSH2 0x4390 DUP4 CODECOPY DUP2 MLOAD SWAP2 MSTORE SWAP1 PUSH1 0x20 ADD PUSH2 0xDF2 JUMP JUMPDEST PUSH1 0x0 DUP4 DUP2 MSTORE PUSH1 0x14 PUSH1 0x20 MSTORE PUSH1 0x40 SWAP1 DUP2 SWAP1 KECCAK256 SLOAD SWAP1 MLOAD PUSH1 0x0 DUP1 MLOAD PUSH1 0x20 PUSH2 0x43D0 DUP4 CODECOPY DUP2 MLOAD SWAP2 MSTORE SWAP2 PUSH2 0x20CE SWAP2 PUSH1 0xFF SWAP1 SWAP2 AND SWAP1 DUP7 SWAP1 DUP10 SWAP1 PUSH2 0x3BB4 JUMP JUMPDEST PUSH1 0x40 MLOAD DUP1 SWAP2 SUB SWAP1 LOG1 PUSH2 0x20E0 DUP4 DUP7 PUSH2 0x36A3 JUMP JUMPDEST PUSH2 0x20EB PUSH1 0x1 DUP10 PUSH2 0x3841 JUMP JUMPDEST POP POP POP POP POP POP POP POP POP POP POP JUMP JUMPDEST DUP4 DUP4 DUP4 DUP4 PUSH1 0x40 MLOAD PUSH1 0x20 ADD PUSH2 0x210C SWAP2 SWAP1 PUSH2 0x41DE JUMP JUMPDEST PUSH1 0x40 MLOAD PUSH1 0x20 DUP2 DUP4 SUB SUB DUP2 MSTORE SWAP1 PUSH1 0x40 MSTORE PUSH1 0x0 DUP5 PUSH1 0x40 MLOAD PUSH1 0x20 ADD PUSH2 0x212E SWAP2 SWAP1 PUSH2 0x4150 JUMP JUMPDEST PUSH1 0x40 DUP1 MLOAD PUSH1 0x1F NOT DUP2 DUP5 SUB ADD DUP2 MSTORE SWAP2 SWAP1 MSTORE DUP1 MLOAD PUSH1 0x20 SWAP1 SWAP2 ADD KECCAK256 SWAP1 POP PUSH1 0x0 DUP1 DUP3 DUP2 MSTORE PUSH1 0x14 PUSH1 0x20 MSTORE PUSH1 0x40 SWAP1 KECCAK256 SLOAD PUSH1 0xFF AND PUSH1 0x2 DUP2 GT ISZERO PUSH2 0x216C JUMPI PUSH2 0x216C PUSH2 0x3B7C JUMP JUMPDEST EQ PUSH2 0x2189 JUMPI PUSH1 0x40 MLOAD PUSH3 0x461BCD PUSH1 0xE5 SHL DUP2 MSTORE PUSH1 0x4 ADD PUSH2 0x9B5 SWAP1 PUSH2 0x4187 JUMP JUMPDEST PUSH1 0x0 DUP3 DUP5 PUSH1 0x40 MLOAD PUSH1 0x20 ADD PUSH2 0x219E SWAP3 SWAP2 SWAP1 PUSH2 0x41BC JUMP JUMPDEST PUSH1 0x40 DUP1 MLOAD PUSH1 0x1F NOT DUP2 DUP5 SUB ADD DUP2 MSTORE SWAP1 DUP3 SWAP1 MSTORE DUP1 MLOAD PUSH1 0x20 SWAP2 DUP3 ADD KECCAK256 DUP1 DUP4 MSTORE SWAP3 POP PUSH1 0x0 DUP1 MLOAD PUSH1 0x20 PUSH2 0x43B0 DUP4 CODECOPY DUP2 MLOAD SWAP2 MSTORE SWAP2 ADD PUSH1 0x40 MLOAD DUP1 SWAP2 SUB SWAP1 LOG1 PUSH1 0x0 PUSH2 0x21E2 DUP3 DUP8 DUP10 PUSH2 0x244F JUMP JUMPDEST PUSH1 0x17 DUP1 SLOAD PUSH1 0xFF NOT AND DUP3 ISZERO ISZERO OR SWAP1 SSTORE SWAP1 POP DUP1 PUSH2 0x2215 JUMPI PUSH1 0x40 MLOAD DUP3 DUP2 MSTORE PUSH1 0x0 DUP1 MLOAD PUSH1 0x20 PUSH2 0x4390 DUP4 CODECOPY DUP2 MLOAD SWAP2 MSTORE SWAP1 PUSH1 0x20 ADD PUSH2 0xDF2 JUMP JUMPDEST PUSH1 0x0 DUP4 DUP2 MSTORE PUSH1 0x14 PUSH1 0x20 MSTORE PUSH1 0x40 SWAP1 DUP2 SWAP1 KECCAK256 SLOAD SWAP1 MLOAD PUSH1 0x0 DUP1 MLOAD PUSH1 0x20 PUSH2 0x43D0 DUP4 CODECOPY DUP2 MLOAD SWAP2 MSTORE SWAP2 PUSH2 0x224B SWAP2 PUSH1 0xFF SWAP1 SWAP2 AND SWAP1 DUP7 SWAP1 DUP10 SWAP1 PUSH2 0x3BB4 JUMP JUMPDEST PUSH1 0x40 MLOAD DUP1 SWAP2 SUB SWAP1 LOG1 PUSH2 0x225D DUP4 DUP7 PUSH2 0x36A3 JUMP JUMPDEST DUP8 PUSH1 0x40 MLOAD PUSH1 0x20 ADD PUSH2 0x226E SWAP2 SWAP1 PUSH2 0x41DE JUMP JUMPDEST PUSH1 0x40 DUP1 MLOAD PUSH1 0x1F NOT DUP2 DUP5 SUB ADD DUP2 MSTORE SWAP2 SWAP1 MSTORE DUP1 MLOAD PUSH1 0x20 SWAP1 SWAP2 ADD KECCAK256 PUSH1 0x4 SSTORE POP POP POP POP POP POP POP POP POP POP POP JUMP JUMPDEST DUP3 DUP3 DUP3 DUP7 PUSH1 0x40 MLOAD PUSH1 0x20 ADD PUSH2 0x22AA SWAP2 SWAP1 PUSH2 0x41DE JUMP JUMPDEST PUSH1 0x40 MLOAD PUSH1 0x20 DUP2 DUP4 SUB SUB DUP2 MSTORE SWAP1 PUSH1 0x40 MSTORE PUSH1 0x0 DUP5 PUSH1 0x40 MLOAD PUSH1 0x20 ADD PUSH2 0x22CC SWAP2 SWAP1 PUSH2 0x4150 JUMP JUMPDEST PUSH1 0x40 DUP1 MLOAD PUSH1 0x1F NOT DUP2 DUP5 SUB ADD DUP2 MSTORE SWAP2 SWAP1 MSTORE DUP1 MLOAD PUSH1 0x20 SWAP1 SWAP2 ADD KECCAK256 SWAP1 POP PUSH1 0x0 DUP1 DUP3 DUP2 MSTORE PUSH1 0x14 PUSH1 0x20 MSTORE PUSH1 0x40 SWAP1 KECCAK256 SLOAD PUSH1 0xFF AND PUSH1 0x2 DUP2 GT ISZERO PUSH2 0x230A JUMPI PUSH2 0x230A PUSH2 0x3B7C JUMP JUMPDEST EQ PUSH2 0x2327 JUMPI PUSH1 0x40 MLOAD PUSH3 0x461BCD PUSH1 0xE5 SHL DUP2 MSTORE PUSH1 0x4 ADD PUSH2 0x9B5 SWAP1 PUSH2 0x4187 JUMP JUMPDEST PUSH1 0x0 DUP3 DUP5 PUSH1 0x40 MLOAD PUSH1 0x20 ADD PUSH2 0x233C SWAP3 SWAP2 SWAP1 PUSH2 0x41BC JUMP JUMPDEST PUSH1 0x40 DUP1 MLOAD PUSH1 0x1F NOT DUP2 DUP5 SUB ADD DUP2 MSTORE SWAP1 DUP3 SWAP1 MSTORE DUP1 MLOAD PUSH1 0x20 SWAP2 DUP3 ADD KECCAK256 DUP1 DUP4 MSTORE SWAP3 POP PUSH1 0x0 DUP1 MLOAD PUSH1 0x20 PUSH2 0x43B0 DUP4 CODECOPY DUP2 MLOAD SWAP2 MSTORE SWAP2 ADD PUSH1 0x40 MLOAD DUP1 SWAP2 SUB SWAP1 LOG1 PUSH1 0x0 PUSH2 0x2380 DUP3 DUP8 DUP10 PUSH2 0x244F JUMP JUMPDEST PUSH1 0x17 DUP1 SLOAD PUSH1 0xFF NOT AND DUP3 ISZERO ISZERO OR SWAP1 SSTORE SWAP1 POP DUP1 PUSH2 0x23B3 JUMPI PUSH1 0x40 MLOAD DUP3 DUP2 MSTORE PUSH1 0x0 DUP1 MLOAD PUSH1 0x20 PUSH2 0x4390 DUP4 CODECOPY DUP2 MLOAD SWAP2 MSTORE SWAP1 PUSH1 0x20 ADD PUSH2 0xDF2 JUMP JUMPDEST PUSH1 0x0 DUP4 DUP2 MSTORE PUSH1 0x14 PUSH1 0x20 MSTORE PUSH1 0x40 SWAP1 DUP2 SWAP1 KECCAK256 SLOAD SWAP1 MLOAD PUSH1 0x0 DUP1 MLOAD PUSH1 0x20 PUSH2 0x43D0 DUP4 CODECOPY DUP2 MLOAD SWAP2 MSTORE SWAP2 PUSH2 0x23E9 SWAP2 PUSH1 0xFF SWAP1 SWAP2 AND SWAP1 DUP7 SWAP1 DUP10 SWAP1 PUSH2 0x3BB4 JUMP JUMPDEST PUSH1 0x40 MLOAD DUP1 SWAP2 SUB SWAP1 LOG1 PUSH2 0x23FB DUP4 DUP7 PUSH2 0x36A3 JUMP JUMPDEST PUSH1 0x1 PUSH1 0x1 PUSH1 0xA0 SHL SUB DUP12 AND PUSH1 0x0 DUP2 DUP2 MSTORE PUSH1 0xB PUSH1 0x20 SWAP1 DUP2 MSTORE PUSH1 0x40 SWAP2 DUP3 SWAP1 KECCAK256 DUP1 SLOAD PUSH1 0xFF NOT AND PUSH1 0x1 OR SWAP1 SSTORE SWAP1 MLOAD SWAP2 DUP3 MSTORE PUSH32 0x9C2D3039F3D15023B5382D61054AAE8F70288E4BFFB8676398BACA3C389E8F18 SWAP2 ADD PUSH2 0x1C6E JUMP JUMPDEST PUSH1 0x0 DUP1 JUMPDEST PUSH2 0x100 DUP2 LT ISZERO PUSH2 0x24F7 JUMPI DUP4 DUP2 PUSH2 0x100 DUP2 LT PUSH2 0x2470 JUMPI PUSH2 0x2470 PUSH2 0x408A JUMP JUMPDEST PUSH1 0x20 MUL DUP2 ADD SWAP1 PUSH2 0x2480 SWAP2 SWAP1 PUSH2 0x42D1 JUMP JUMPDEST PUSH1 0x40 MLOAD PUSH2 0x248E SWAP3 SWAP2 SWAP1 PUSH2 0x431F JUMP JUMPDEST PUSH1 0x40 MLOAD DUP1 SWAP2 SUB SWAP1 KECCAK256 DUP4 DUP3 PUSH2 0x100 DUP2 LT PUSH2 0x24A9 JUMPI PUSH2 0x24A9 PUSH2 0x408A JUMP JUMPDEST PUSH1 0x40 MUL ADD PUSH1 0x0 DUP4 PUSH1 0xFF SUB PUSH1 0x1 SWAP1 SHL DUP9 AND GT PUSH2 0x24C5 JUMPI PUSH1 0x0 PUSH2 0x24C8 JUMP JUMPDEST PUSH1 0x1 JUMPDEST PUSH1 0xFF AND PUSH1 0x2 DUP2 LT PUSH2 0x24DB JUMPI PUSH2 0x24DB PUSH2 0x408A JUMP JUMPDEST PUSH1 0x20 MUL ADD CALLDATALOAD EQ PUSH2 0x24EF JUMPI PUSH1 0x0 SWAP2 POP POP PUSH2 0x24FD JUMP JUMPDEST PUSH1 0x1 ADD PUSH2 0x2453 JUMP JUMPDEST POP PUSH1 0x1 SWAP1 POP JUMPDEST SWAP4 SWAP3 POP POP POP JUMP JUMPDEST DUP3 DUP3 DUP3 DUP7 PUSH1 0x40 MLOAD PUSH1 0x20 ADD PUSH2 0x251A SWAP2 DUP2 MSTORE PUSH1 0x20 ADD SWAP1 JUMP JUMPDEST PUSH1 0x40 MLOAD PUSH1 0x20 DUP2 DUP4 SUB SUB DUP2 MSTORE SWAP1 PUSH1 0x40 MSTORE PUSH1 0x0 DUP5 PUSH1 0x40 MLOAD PUSH1 0x20 ADD PUSH2 0x253C SWAP2 SWAP1 PUSH2 0x4150 JUMP JUMPDEST PUSH1 0x40 DUP1 MLOAD PUSH1 0x1F NOT DUP2 DUP5 SUB ADD DUP2 MSTORE SWAP2 SWAP1 MSTORE DUP1 MLOAD PUSH1 0x20 SWAP1 SWAP2 ADD KECCAK256 SWAP1 POP PUSH1 0x0 DUP1 DUP3 DUP2 MSTORE PUSH1 0x14 PUSH1 0x20 MSTORE PUSH1 0x40 SWAP1 KECCAK256 SLOAD PUSH1 0xFF AND PUSH1 0x2 DUP2 GT ISZERO PUSH2 0x257A JUMPI PUSH2 0x257A PUSH2 0x3B7C JUMP JUMPDEST EQ PUSH2 0x2597 JUMPI PUSH1 0x40 MLOAD PUSH3 0x461BCD PUSH1 0xE5 SHL DUP2 MSTORE PUSH1 0x4 ADD PUSH2 0x9B5 SWAP1 PUSH2 0x4187 JUMP JUMPDEST PUSH1 0x0 DUP3 DUP5 PUSH1 0x40 MLOAD PUSH1 0x20 ADD PUSH2 0x25AC SWAP3 SWAP2 SWAP1 PUSH2 0x41BC JUMP JUMPDEST PUSH1 0x40 DUP1 MLOAD PUSH1 0x1F NOT DUP2 DUP5 SUB ADD DUP2 MSTORE SWAP1 DUP3 SWAP1 MSTORE DUP1 MLOAD PUSH1 0x20 SWAP2 DUP3 ADD KECCAK256 DUP1 DUP4 MSTORE SWAP3 POP PUSH1 0x0 DUP1 MLOAD PUSH1 0x20 PUSH2 0x43B0 DUP4 CODECOPY DUP2 MLOAD SWAP2 MSTORE SWAP2 ADD PUSH1 0x40 MLOAD DUP1 SWAP2 SUB SWAP1 LOG1 PUSH1 0x0 PUSH2 0x25F0 DUP3 DUP8 DUP10 PUSH2 0x244F JUMP JUMPDEST PUSH1 0x17 DUP1 SLOAD PUSH1 0xFF NOT AND DUP3 ISZERO ISZERO OR SWAP1 SSTORE SWAP1 POP DUP1 PUSH2 0x2623 JUMPI PUSH1 0x40 MLOAD DUP3 DUP2 MSTORE PUSH1 0x0 DUP1 MLOAD PUSH1 0x20 PUSH2 0x4390 DUP4 CODECOPY DUP2 MLOAD SWAP2 MSTORE SWAP1 PUSH1 0x20 ADD PUSH2 0xDF2 JUMP JUMPDEST PUSH1 0x0 DUP4 DUP2 MSTORE PUSH1 0x14 PUSH1 0x20 MSTORE PUSH1 0x40 SWAP1 DUP2 SWAP1 KECCAK256 SLOAD SWAP1 MLOAD PUSH1 0x0 DUP1 MLOAD PUSH1 0x20 PUSH2 0x43D0 DUP4 CODECOPY DUP2 MLOAD SWAP2 MSTORE SWAP2 PUSH2 0x2659 SWAP2 PUSH1 0xFF SWAP1 SWAP2 AND SWAP1 DUP7 SWAP1 DUP10 SWAP1 PUSH2 0x3BB4 JUMP JUMPDEST PUSH1 0x40 MLOAD DUP1 SWAP2 SUB SWAP1 LOG1 PUSH2 0x266B DUP4 DUP7 PUSH2 0x36A3 JUMP JUMPDEST PUSH1 0x0 DUP12 SWAP1 SSTORE PUSH1 0x40 MLOAD DUP12 DUP2 MSTORE PUSH32 0x58098EEEC115CBA633A1B8765151F8A2E4EFBDCB42846E0968E430D56E21D370 SWAP1 PUSH1 0x20 ADD PUSH2 0x1C6E JUMP JUMPDEST PUSH1 0x13 SLOAD PUSH1 0x60 SWAP1 PUSH1 0x0 SWAP1 PUSH8 0xFFFFFFFFFFFFFFFF DUP2 GT ISZERO PUSH2 0x26C1 JUMPI PUSH2 0x26C1 PUSH2 0x3BEE JUMP JUMPDEST PUSH1 0x40 MLOAD SWAP1 DUP1 DUP3 MSTORE DUP1 PUSH1 0x20 MUL PUSH1 0x20 ADD DUP3 ADD PUSH1 0x40 MSTORE DUP1 ISZERO PUSH2 0x26EA JUMPI DUP2 PUSH1 0x20 ADD PUSH1 0x20 DUP3 MUL DUP1 CALLDATASIZE DUP4 CALLDATACOPY ADD SWAP1 POP JUMPDEST POP SWAP1 POP PUSH1 0x0 DUP1 JUMPDEST PUSH1 0x13 SLOAD DUP2 LT ISZERO PUSH2 0x27AB JUMPI DUP5 PUSH1 0x2 DUP2 GT ISZERO PUSH2 0x270D JUMPI PUSH2 0x270D PUSH2 0x3B7C JUMP JUMPDEST PUSH1 0x13 DUP3 DUP2 SLOAD DUP2 LT PUSH2 0x2720 JUMPI PUSH2 0x2720 PUSH2 0x408A JUMP JUMPDEST PUSH1 0x0 SWAP2 DUP3 MSTORE PUSH1 0x20 SWAP1 SWAP2 KECCAK256 PUSH1 0x2 SWAP2 DUP3 MUL ADD SLOAD PUSH1 0xFF AND SWAP1 DUP2 GT ISZERO PUSH2 0x2744 JUMPI PUSH2 0x2744 PUSH2 0x3B7C JUMP JUMPDEST SUB PUSH2 0x2799 JUMPI PUSH1 0x13 DUP2 DUP2 SLOAD DUP2 LT PUSH2 0x275C JUMPI PUSH2 0x275C PUSH2 0x408A JUMP JUMPDEST SWAP1 PUSH1 0x0 MSTORE PUSH1 0x20 PUSH1 0x0 KECCAK256 SWAP1 PUSH1 0x2 MUL ADD PUSH1 0x1 ADD SLOAD DUP4 DUP4 DUP2 MLOAD DUP2 LT PUSH2 0x2780 JUMPI PUSH2 0x2780 PUSH2 0x408A JUMP JUMPDEST PUSH1 0x20 SWAP1 DUP2 MUL SWAP2 SWAP1 SWAP2 ADD ADD MSTORE DUP2 PUSH2 0x2795 DUP2 PUSH2 0x40B6 JUMP JUMPDEST SWAP3 POP POP JUMPDEST DUP1 PUSH2 0x27A3 DUP2 PUSH2 0x40B6 JUMP JUMPDEST SWAP2 POP POP PUSH2 0x26F1 JUMP JUMPDEST POP PUSH1 0x0 DUP2 PUSH8 0xFFFFFFFFFFFFFFFF DUP2 GT ISZERO PUSH2 0x27C7 JUMPI PUSH2 0x27C7 PUSH2 0x3BEE JUMP JUMPDEST PUSH1 0x40 MLOAD SWAP1 DUP1 DUP3 MSTORE DUP1 PUSH1 0x20 MUL PUSH1 0x20 ADD DUP3 ADD PUSH1 0x40 MSTORE DUP1 ISZERO PUSH2 0x27F0 JUMPI DUP2 PUSH1 0x20 ADD PUSH1 0x20 DUP3 MUL DUP1 CALLDATASIZE DUP4 CALLDATACOPY ADD SWAP1 POP JUMPDEST POP SWAP1 POP PUSH1 0x0 JUMPDEST DUP3 DUP2 LT ISZERO PUSH2 0x2847 JUMPI DUP4 DUP2 DUP2 MLOAD DUP2 LT PUSH2 0x2810 JUMPI PUSH2 0x2810 PUSH2 0x408A JUMP JUMPDEST PUSH1 0x20 MUL PUSH1 0x20 ADD ADD MLOAD DUP3 DUP3 DUP2 MLOAD DUP2 LT PUSH2 0x282A JUMPI PUSH2 0x282A PUSH2 0x408A JUMP JUMPDEST PUSH1 0x20 SWAP1 DUP2 MUL SWAP2 SWAP1 SWAP2 ADD ADD MSTORE DUP1 PUSH2 0x283F DUP2 PUSH2 0x40B6 JUMP JUMPDEST SWAP2 POP POP PUSH2 0x27F6 JUMP JUMPDEST POP SWAP5 SWAP4 POP POP POP POP JUMP JUMPDEST PUSH1 0x1 PUSH1 0x1 PUSH1 0xA0 SHL SUB DUP2 AND PUSH1 0x0 SWAP1 DUP2 MSTORE PUSH1 0x9 PUSH1 0x20 SWAP1 DUP2 MSTORE PUSH1 0x40 DUP1 DUP4 KECCAK256 DUP2 MLOAD DUP1 DUP4 ADD SWAP1 SWAP3 MSTORE DUP1 SLOAD DUP3 MSTORE PUSH1 0x1 ADD SLOAD SWAP2 DUP2 ADD DUP3 SWAP1 MSTORE SWAP1 DUP3 SWAP1 PUSH2 0x1E0 SWAP1 PUSH2 0x2892 SWAP1 TIMESTAMP PUSH2 0x4289 JUMP JUMPDEST LT SWAP1 POP DUP1 DUP1 ISZERO PUSH2 0x28A2 JUMPI POP DUP2 MLOAD DUP6 EQ JUMPDEST ISZERO PUSH2 0x28B2 JUMPI PUSH1 0x2 SWAP3 POP POP POP PUSH2 0x28D7 JUMP JUMPDEST DUP1 DUP1 ISZERO PUSH2 0x28C0 JUMPI POP DUP2 MLOAD DUP6 EQ ISZERO JUMPDEST ISZERO PUSH2 0x28D0 JUMPI PUSH1 0x1 SWAP3 POP POP POP PUSH2 0x28D7 JUMP JUMPDEST PUSH1 0x0 SWAP3 POP POP POP JUMPDEST SWAP3 SWAP2 POP POP JUMP JUMPDEST CALLER PUSH1 0x0 SWAP1 DUP2 MSTORE PUSH1 0xB PUSH1 0x20 MSTORE PUSH1 0x40 SWAP1 KECCAK256 SLOAD PUSH1 0xFF AND PUSH2 0x294B JUMPI PUSH1 0x40 MLOAD PUSH3 0x461BCD PUSH1 0xE5 SHL DUP2 MSTORE PUSH1 0x20 PUSH1 0x4 DUP3 ADD MSTORE PUSH1 0x26 PUSH1 0x24 DUP3 ADD MSTORE PUSH32 0x4E6F74207065726D697474656420746F206D6F64696679206D696E7574657320 PUSH1 0x44 DUP3 ADD MSTORE PUSH6 0x1C1B185E5959 PUSH1 0xD2 SHL PUSH1 0x64 DUP3 ADD MSTORE PUSH1 0x84 ADD PUSH2 0x9B5 JUMP JUMPDEST PUSH1 0x1 PUSH1 0x1 PUSH1 0xA0 SHL SUB DUP3 AND PUSH1 0x0 SWAP1 DUP2 MSTORE PUSH1 0xF PUSH1 0x20 MSTORE PUSH1 0x40 DUP2 KECCAK256 DUP1 SLOAD DUP4 SWAP3 SWAP1 PUSH2 0x2973 SWAP1 DUP5 SWAP1 PUSH2 0x429C JUMP JUMPDEST SWAP1 SWAP2 SSTORE POP POP PUSH1 0x40 MLOAD DUP2 DUP2 MSTORE PUSH1 0x1 PUSH1 0x1 PUSH1 0xA0 SHL SUB DUP4 AND SWAP1 PUSH32 0x54ECAB596BD73E6A3FD6D8BB310AA69A74C3F78DDC040F88C6F5D06DFFB3542B SWAP1 PUSH1 0x20 ADD PUSH2 0x177A JUMP JUMPDEST DUP4 DUP4 DUP4 DUP4 PUSH1 0x40 MLOAD PUSH1 0x20 ADD PUSH2 0x29C9 SWAP2 DUP2 MSTORE PUSH1 0x20 ADD SWAP1 JUMP JUMPDEST PUSH1 0x40 MLOAD PUSH1 0x20 DUP2 DUP4 SUB SUB DUP2 MSTORE SWAP1 PUSH1 0x40 MSTORE PUSH1 0x0 DUP5 PUSH1 0x40 MLOAD PUSH1 0x20 ADD PUSH2 0x29EB SWAP2 SWAP1 PUSH2 0x4150 JUMP JUMPDEST PUSH1 0x40 DUP1 MLOAD PUSH1 0x1F NOT DUP2 DUP5 SUB ADD DUP2 MSTORE SWAP2 SWAP1 MSTORE DUP1 MLOAD PUSH1 0x20 SWAP1 SWAP2 ADD KECCAK256 SWAP1 POP PUSH1 0x0 DUP1 DUP3 DUP2 MSTORE PUSH1 0x14 PUSH1 0x20 MSTORE PUSH1 0x40 SWAP1 KECCAK256 SLOAD PUSH1 0xFF AND PUSH1 0x2 DUP2 GT ISZERO PUSH2 0x2A29 JUMPI PUSH2 0x2A29 PUSH2 0x3B7C JUMP JUMPDEST EQ PUSH2 0x2A46 JUMPI PUSH1 0x40 MLOAD PUSH3 0x461BCD PUSH1 0xE5 SHL DUP2 MSTORE PUSH1 0x4 ADD PUSH2 0x9B5 SWAP1 PUSH2 0x4187 JUMP JUMPDEST PUSH1 0x0 DUP3 DUP5 PUSH1 0x40 MLOAD PUSH1 0x20 ADD PUSH2 0x2A5B SWAP3 SWAP2 SWAP1 PUSH2 0x41BC JUMP JUMPDEST PUSH1 0x40 DUP1 MLOAD PUSH1 0x1F NOT DUP2 DUP5 SUB ADD DUP2 MSTORE SWAP1 DUP3 SWAP1 MSTORE DUP1 MLOAD PUSH1 0x20 SWAP2 DUP3 ADD KECCAK256 DUP1 DUP4 MSTORE SWAP3 POP PUSH1 0x0 DUP1 MLOAD PUSH1 0x20 PUSH2 0x43B0 DUP4 CODECOPY DUP2 MLOAD SWAP2 MSTORE SWAP2 ADD PUSH1 0x40 MLOAD DUP1 SWAP2 SUB SWAP1 LOG1 PUSH1 0x0 PUSH2 0x2A9F DUP3 DUP8 DUP10 PUSH2 0x244F JUMP JUMPDEST PUSH1 0x17 DUP1 SLOAD PUSH1 0xFF NOT AND DUP3 ISZERO ISZERO OR SWAP1 SSTORE SWAP1 POP DUP1 PUSH2 0x2AD2 JUMPI PUSH1 0x40 MLOAD DUP3 DUP2 MSTORE PUSH1 0x0 DUP1 MLOAD PUSH1 0x20 PUSH2 0x4390 DUP4 CODECOPY DUP2 MLOAD SWAP2 MSTORE SWAP1 PUSH1 0x20 ADD PUSH2 0xDF2 JUMP JUMPDEST PUSH1 0x0 DUP4 DUP2 MSTORE PUSH1 0x14 PUSH1 0x20 MSTORE PUSH1 0x40 SWAP1 DUP2 SWAP1 KECCAK256 SLOAD SWAP1 MLOAD PUSH1 0x0 DUP1 MLOAD PUSH1 0x20 PUSH2 0x43D0 DUP4 CODECOPY DUP2 MLOAD SWAP2 MSTORE SWAP2 PUSH2 0x2B08 SWAP2 PUSH1 0xFF SWAP1 SWAP2 AND SWAP1 DUP7 SWAP1 DUP10 SWAP1 PUSH2 0x3BB4 JUMP JUMPDEST PUSH1 0x40 MLOAD DUP1 SWAP2 SUB SWAP1 LOG1 PUSH2 0x2B1A DUP4 DUP7 PUSH2 0x36A3 JUMP JUMPDEST POP POP POP PUSH1 0xD SWAP5 SWAP1 SWAP5 SSTORE POP POP POP PUSH1 0xE SWAP2 SWAP1 SWAP2 SSTORE POP POP POP JUMP JUMPDEST PUSH1 0x8 SLOAD PUSH1 0x40 DUP1 MLOAD PUSH1 0x4 DUP2 MSTORE PUSH1 0x24 DUP2 ADD DUP3 MSTORE PUSH1 0x20 DUP2 ADD DUP1 MLOAD PUSH1 0x1 PUSH1 0x1 PUSH1 0xE0 SHL SUB AND PUSH4 0x1BAD9E05 PUSH1 0xE1 SHL OR SWAP1 MSTORE SWAP1 MLOAD PUSH1 0x0 SWAP3 PUSH32 0x375B3C0A792940DAC787DA40232E8CC6A34ABC755014C8E76617AD03F30ECDC8 SWAP3 DUP5 SWAP3 DUP4 SWAP3 PUSH1 0x1 PUSH1 0x1 PUSH1 0xA0 SHL SUB AND SWAP2 PUSH2 0x2B9A SWAP2 PUSH2 0x4134 JUMP JUMPDEST PUSH1 0x0 PUSH1 0x40 MLOAD DUP1 DUP4 SUB DUP2 DUP6 GAS STATICCALL SWAP2 POP POP RETURNDATASIZE DUP1 PUSH1 0x0 DUP2 EQ PUSH2 0x2BD5 JUMPI PUSH1 0x40 MLOAD SWAP2 POP PUSH1 0x1F NOT PUSH1 0x3F RETURNDATASIZE ADD AND DUP3 ADD PUSH1 0x40 MSTORE RETURNDATASIZE DUP3 MSTORE RETURNDATASIZE PUSH1 0x0 PUSH1 0x20 DUP5 ADD RETURNDATACOPY PUSH2 0x2BDA JUMP JUMPDEST PUSH1 0x60 SWAP2 POP JUMPDEST POP SWAP2 POP SWAP2 POP DUP2 PUSH2 0x2C2C JUMPI PUSH1 0x40 MLOAD PUSH3 0x461BCD PUSH1 0xE5 SHL DUP2 MSTORE PUSH1 0x20 PUSH1 0x4 DUP3 ADD MSTORE PUSH1 0x17 PUSH1 0x24 DUP3 ADD MSTORE PUSH32 0x43616C6C20746F206D696E5374616B65206661696C6564000000000000000000 PUSH1 0x44 DUP3 ADD MSTORE PUSH1 0x64 ADD PUSH2 0x9B5 JUMP JUMPDEST DUP1 DUP1 PUSH1 0x20 ADD SWAP1 MLOAD DUP2 ADD SWAP1 PUSH2 0x2C40 SWAP2 SWAP1 PUSH2 0x432F JUMP JUMPDEST SWAP4 POP POP POP POP SWAP1 JUMP JUMPDEST DUP4 DUP4 DUP4 DUP4 PUSH1 0x40 MLOAD PUSH1 0x20 ADD PUSH2 0x2C5E SWAP2 DUP2 MSTORE PUSH1 0x20 ADD SWAP1 JUMP JUMPDEST PUSH1 0x40 MLOAD PUSH1 0x20 DUP2 DUP4 SUB SUB DUP2 MSTORE SWAP1 PUSH1 0x40 MSTORE PUSH1 0x0 DUP5 PUSH1 0x40 MLOAD PUSH1 0x20 ADD PUSH2 0x2C80 SWAP2 SWAP1 PUSH2 0x4150 JUMP JUMPDEST PUSH1 0x40 DUP1 MLOAD PUSH1 0x1F NOT DUP2 DUP5 SUB ADD DUP2 MSTORE SWAP2 SWAP1 MSTORE DUP1 MLOAD PUSH1 0x20 SWAP1 SWAP2 ADD KECCAK256 SWAP1 POP PUSH1 0x0 DUP1 DUP3 DUP2 MSTORE PUSH1 0x14 PUSH1 0x20 MSTORE PUSH1 0x40 SWAP1 KECCAK256 SLOAD PUSH1 0xFF AND PUSH1 0x2 DUP2 GT ISZERO PUSH2 0x2CBE JUMPI PUSH2 0x2CBE PUSH2 0x3B7C JUMP JUMPDEST EQ PUSH2 0x2CDB JUMPI PUSH1 0x40 MLOAD PUSH3 0x461BCD PUSH1 0xE5 SHL DUP2 MSTORE PUSH1 0x4 ADD PUSH2 0x9B5 SWAP1 PUSH2 0x4187 JUMP JUMPDEST PUSH1 0x0 DUP3 DUP5 PUSH1 0x40 MLOAD PUSH1 0x20 ADD PUSH2 0x2CF0 SWAP3 SWAP2 SWAP1 PUSH2 0x41BC JUMP JUMPDEST PUSH1 0x40 DUP1 MLOAD PUSH1 0x1F NOT DUP2 DUP5 SUB ADD DUP2 MSTORE SWAP1 DUP3 SWAP1 MSTORE DUP1 MLOAD PUSH1 0x20 SWAP2 DUP3 ADD KECCAK256 DUP1 DUP4 MSTORE SWAP3 POP PUSH1 0x0 DUP1 MLOAD PUSH1 0x20 PUSH2 0x43B0 DUP4 CODECOPY DUP2 MLOAD SWAP2 MSTORE SWAP2 ADD PUSH1 0x40 MLOAD DUP1 SWAP2 SUB SWAP1 LOG1 PUSH1 0x0 PUSH2 0x2D34 DUP3 DUP8 DUP10 PUSH2 0x244F JUMP JUMPDEST PUSH1 0x17 DUP1 SLOAD PUSH1 0xFF NOT AND DUP3 ISZERO ISZERO OR SWAP1 SSTORE SWAP1 POP DUP1 PUSH2 0x2D67 JUMPI PUSH1 0x40 MLOAD DUP3 DUP2 MSTORE PUSH1 0x0 DUP1 MLOAD PUSH1 0x20 PUSH2 0x4390 DUP4 CODECOPY DUP2 MLOAD SWAP2 MSTORE SWAP1 PUSH1 0x20 ADD PUSH2 0xDF2 JUMP JUMPDEST PUSH1 0x0 DUP4 DUP2 MSTORE PUSH1 0x14 PUSH1 0x20 MSTORE PUSH1 0x40 SWAP1 DUP2 SWAP1 KECCAK256 SLOAD SWAP1 MLOAD PUSH1 0x0 DUP1 MLOAD PUSH1 0x20 PUSH2 0x43D0 DUP4 CODECOPY DUP2 MLOAD SWAP2 MSTORE SWAP2 PUSH2 0x2D9D SWAP2 PUSH1 0xFF SWAP1 SWAP2 AND SWAP1 DUP7 SWAP1 DUP10 SWAP1 PUSH2 0x3BB4 JUMP JUMPDEST PUSH1 0x40 MLOAD DUP1 SWAP2 SUB SWAP1 LOG1 PUSH2 0x2DAF DUP4 DUP7 PUSH2 0x36A3 JUMP JUMPDEST PUSH1 0x0 DUP12 PUSH1 0x40 MLOAD PUSH1 0x20 ADD PUSH2 0x2DC2 SWAP2 SWAP1 PUSH2 0x4150 JUMP JUMPDEST PUSH1 0x40 MLOAD PUSH1 0x20 DUP2 DUP4 SUB SUB DUP2 MSTORE SWAP1 PUSH1 0x40 MSTORE DUP1 MLOAD SWAP1 PUSH1 0x20 ADD KECCAK256 SWAP1 POP PUSH1 0xE SLOAD DUP2 SUB PUSH2 0x2E5F JUMPI PUSH1 0x40 MLOAD PUSH3 0x461BCD PUSH1 0xE5 SHL DUP2 MSTORE PUSH1 0x20 PUSH1 0x4 DUP3 ADD MSTORE PUSH1 0x44 PUSH1 0x24 DUP3 ADD DUP2 SWAP1 MSTORE PUSH32 0x416E6F6E4944436F6E74726163743A2043616E6E6F7420757365207468652073 SWAP1 DUP3 ADD MSTORE PUSH32 0x616D65206B6579636861696E20747769636520666F7220746869732066756E63 PUSH1 0x64 DUP3 ADD MSTORE PUSH4 0x3A34B7B7 PUSH1 0xE1 SHL PUSH1 0x84 DUP3 ADD MSTORE PUSH1 0xA4 ADD PUSH2 0x9B5 JUMP JUMPDEST DUP9 PUSH1 0xD SLOAD EQ PUSH2 0x2EBA JUMPI PUSH1 0x40 MLOAD PUSH3 0x461BCD PUSH1 0xE5 SHL DUP2 MSTORE PUSH1 0x20 PUSH1 0x4 DUP3 ADD MSTORE PUSH1 0x21 PUSH1 0x24 DUP3 ADD MSTORE PUSH32 0x416E6F6E4944436F6E74726163743A204B65797320646F206E6F74206D617463 PUSH1 0x44 DUP3 ADD MSTORE PUSH1 0xD PUSH1 0xFB SHL PUSH1 0x64 DUP3 ADD MSTORE PUSH1 0x84 ADD PUSH2 0x9B5 JUMP JUMPDEST PUSH1 0xE SLOAD DUP2 DUP11 PUSH1 0x0 DUP1 DUP5 DUP2 MSTORE PUSH1 0x14 PUSH1 0x20 MSTORE PUSH1 0x40 SWAP1 KECCAK256 SLOAD PUSH1 0xFF AND PUSH1 0x2 DUP2 GT ISZERO PUSH2 0x2EE3 JUMPI PUSH2 0x2EE3 PUSH2 0x3B7C JUMP JUMPDEST EQ DUP1 ISZERO PUSH2 0x2F10 JUMPI POP PUSH1 0x0 DUP3 DUP2 MSTORE PUSH1 0x14 PUSH1 0x20 MSTORE PUSH1 0x40 DUP2 KECCAK256 SLOAD PUSH1 0xFF AND PUSH1 0x2 DUP2 GT ISZERO PUSH2 0x2F0E JUMPI PUSH2 0x2F0E PUSH2 0x3B7C JUMP JUMPDEST EQ JUMPDEST PUSH2 0x2F76 JUMPI PUSH1 0x40 MLOAD PUSH3 0x461BCD PUSH1 0xE5 SHL DUP2 MSTORE PUSH1 0x20 PUSH1 0x4 DUP3 ADD MSTORE PUSH1 0x31 PUSH1 0x24 DUP3 ADD MSTORE PUSH32 0x416E6F6E4944436F6E74726163743A2050726F7669646564206B657973206172 PUSH1 0x44 DUP3 ADD MSTORE PUSH17 0x65206E6F74206D6173746572206B657973 PUSH1 0x78 SHL PUSH1 0x64 DUP3 ADD MSTORE PUSH1 0x84 ADD PUSH2 0x9B5 JUMP JUMPDEST DUP3 DUP2 EQ ISZERO DUP1 ISZERO PUSH2 0x2F86 JUMPI POP DUP2 DUP2 EQ ISZERO JUMPDEST PUSH2 0x2FEF JUMPI PUSH1 0x40 MLOAD PUSH3 0x461BCD PUSH1 0xE5 SHL DUP2 MSTORE PUSH1 0x20 PUSH1 0x4 DUP3 ADD MSTORE PUSH1 0x34 PUSH1 0x24 DUP3 ADD MSTORE PUSH32 0x416E6F6E4944436F6E74726163743A204D6173746572206B6579732063616E6E PUSH1 0x44 DUP3 ADD MSTORE PUSH20 0x6F742064656C657465207468656D73656C766573 PUSH1 0x60 SHL PUSH1 0x64 DUP3 ADD MSTORE PUSH1 0x84 ADD PUSH2 0x9B5 JUMP JUMPDEST PUSH1 0x0 DUP2 DUP2 MSTORE PUSH1 0x14 PUSH1 0x20 MSTORE PUSH1 0x40 DUP2 KECCAK256 PUSH1 0x1 ADD SLOAD SWAP1 SUB PUSH2 0x305E JUMPI PUSH1 0x40 MLOAD PUSH3 0x461BCD PUSH1 0xE5 SHL DUP2 MSTORE PUSH1 0x20 PUSH1 0x4 DUP3 ADD MSTORE PUSH1 0x26 PUSH1 0x24 DUP3 ADD MSTORE PUSH32 0x416E6F6E4944436F6E74726163743A204E6F2073756368206B6579202864656C PUSH1 0x44 DUP3 ADD MSTORE PUSH6 0x6574696F6E29 PUSH1 0xD0 SHL PUSH1 0x64 DUP3 ADD MSTORE PUSH1 0x84 ADD PUSH2 0x9B5 JUMP JUMPDEST PUSH1 0x0 JUMPDEST PUSH1 0x13 SLOAD DUP2 LT ISZERO PUSH2 0x314C JUMPI DUP2 PUSH1 0x13 DUP3 DUP2 SLOAD DUP2 LT PUSH2 0x307F JUMPI PUSH2 0x307F PUSH2 0x408A JUMP JUMPDEST SWAP1 PUSH1 0x0 MSTORE PUSH1 0x20 PUSH1 0x0 KECCAK256 SWAP1 PUSH1 0x2 MUL ADD PUSH1 0x1 ADD SLOAD SUB PUSH2 0x313A JUMPI PUSH1 0x0 DUP3 DUP2 MSTORE PUSH1 0x14 PUSH1 0x20 DUP2 DUP2 MSTORE PUSH1 0x40 DUP1 DUP5 KECCAK256 DUP1 SLOAD DUP3 MLOAD TIMESTAMP DUP2 DUP7 ADD MSTORE DIFFICULTY DUP2 DUP6 ADD MSTORE DUP4 MLOAD DUP1 DUP3 SUB DUP6 ADD DUP2 MSTORE PUSH1 0x60 SWAP1 SWAP2 ADD SWAP4 DUP5 SWAP1 MSTORE DUP1 MLOAD SWAP1 DUP6 ADD KECCAK256 SWAP6 DUP9 SWAP1 MSTORE SWAP4 SWAP1 SWAP3 MSTORE PUSH4 0xDE1E7ED PUSH1 0xE4 SHL DUP5 XOR PUSH1 0x1 DUP4 ADD DUP2 SWAP1 SSTORE PUSH1 0x2 PUSH1 0xFF NOT DUP6 AND DUP2 OR SWAP1 SWAP4 SSTORE PUSH1 0xFF SWAP1 SWAP4 AND SWAP4 SWAP2 PUSH32 0x643BE3612916977C69D5ED1ABB75A50CCA49DF49BA2444D836E2A0CF65FE074 SWAP2 PUSH2 0x312A SWAP2 DUP7 SWAP2 DUP10 SWAP2 DUP8 SWAP2 PUSH2 0x4348 JUMP JUMPDEST PUSH1 0x40 MLOAD DUP1 SWAP2 SUB SWAP1 LOG1 POP POP POP PUSH2 0x314C JUMP JUMPDEST DUP1 PUSH2 0x3144 DUP2 PUSH2 0x40B6 JUMP JUMPDEST SWAP2 POP POP PUSH2 0x3061 JUMP JUMPDEST POP POP PUSH1 0x0 PUSH1 0xD DUP2 SWAP1 SSTORE PUSH1 0xE SSTORE POP POP POP POP POP POP POP POP POP POP POP POP POP POP JUMP JUMPDEST DUP4 DUP4 DUP4 DUP4 PUSH1 0x40 MLOAD PUSH1 0x20 ADD PUSH2 0x317E SWAP2 DUP2 MSTORE PUSH1 0x20 ADD SWAP1 JUMP JUMPDEST PUSH1 0x40 MLOAD PUSH1 0x20 DUP2 DUP4 SUB SUB DUP2 MSTORE SWAP1 PUSH1 0x40 MSTORE PUSH1 0x0 DUP5 PUSH1 0x40 MLOAD PUSH1 0x20 ADD PUSH2 0x31A0 SWAP2 SWAP1 PUSH2 0x4150 JUMP JUMPDEST PUSH1 0x40 DUP1 MLOAD PUSH1 0x1F NOT DUP2 DUP5 SUB ADD DUP2 MSTORE SWAP2 SWAP1 MSTORE DUP1 MLOAD PUSH1 0x20 SWAP1 SWAP2 ADD KECCAK256 SWAP1 POP PUSH1 0x0 DUP1 DUP3 DUP2 MSTORE PUSH1 0x14 PUSH1 0x20 MSTORE PUSH1 0x40 SWAP1 KECCAK256 SLOAD PUSH1 0xFF AND PUSH1 0x2 DUP2 GT ISZERO PUSH2 0x31DE JUMPI PUSH2 0x31DE PUSH2 0x3B7C JUMP JUMPDEST EQ PUSH2 0x31FB JUMPI PUSH1 0x40 MLOAD PUSH3 0x461BCD PUSH1 0xE5 SHL DUP2 MSTORE PUSH1 0x4 ADD PUSH2 0x9B5 SWAP1 PUSH2 0x4187 JUMP JUMPDEST PUSH1 0x0 DUP3 DUP5 PUSH1 0x40 MLOAD PUSH1 0x20 ADD PUSH2 0x3210 SWAP3 SWAP2 SWAP1 PUSH2 0x41BC JUMP JUMPDEST PUSH1 0x40 DUP1 MLOAD PUSH1 0x1F NOT DUP2 DUP5 SUB ADD DUP2 MSTORE SWAP1 DUP3 SWAP1 MSTORE DUP1 MLOAD PUSH1 0x20 SWAP2 DUP3 ADD KECCAK256 DUP1 DUP4 MSTORE SWAP3 POP PUSH1 0x0 DUP1 MLOAD PUSH1 0x20 PUSH2 0x43B0 DUP4 CODECOPY DUP2 MLOAD SWAP2 MSTORE SWAP2 ADD PUSH1 0x40 MLOAD DUP1 SWAP2 SUB SWAP1 LOG1 PUSH1 0x0 PUSH2 0x3254 DUP3 DUP8 DUP10 PUSH2 0x244F JUMP JUMPDEST PUSH1 0x17 DUP1 SLOAD PUSH1 0xFF NOT AND DUP3 ISZERO ISZERO OR SWAP1 SSTORE SWAP1 POP DUP1 PUSH2 0x3287 JUMPI PUSH1 0x40 MLOAD DUP3 DUP2 MSTORE PUSH1 0x0 DUP1 MLOAD PUSH1 0x20 PUSH2 0x4390 DUP4 CODECOPY DUP2 MLOAD SWAP2 MSTORE SWAP1 PUSH1 0x20 ADD PUSH2 0xDF2 JUMP JUMPDEST PUSH1 0x0 DUP4 DUP2 MSTORE PUSH1 0x14 PUSH1 0x20 MSTORE PUSH1 0x40 SWAP1 DUP2 SWAP1 KECCAK256 SLOAD SWAP1 MLOAD PUSH1 0x0 DUP1 MLOAD PUSH1 0x20 PUSH2 0x43D0 DUP4 CODECOPY DUP2 MLOAD SWAP2 MSTORE SWAP2 PUSH2 0x32BD SWAP2 PUSH1 0xFF SWAP1 SWAP2 AND SWAP1 DUP7 SWAP1 DUP10 SWAP1 PUSH2 0x3BB4 JUMP JUMPDEST PUSH1 0x40 MLOAD DUP1 SWAP2 SUB SWAP1 LOG1 PUSH2 0x32CF DUP4 DUP7 PUSH2 0x36A3 JUMP JUMPDEST PUSH1 0x0 DUP12 PUSH1 0x40 MLOAD PUSH1 0x20 ADD PUSH2 0x32E2 SWAP2 SWAP1 PUSH2 0x4150 JUMP JUMPDEST PUSH1 0x40 DUP1 MLOAD PUSH1 0x1F NOT DUP2 DUP5 SUB ADD DUP2 MSTORE SWAP2 SWAP1 MSTORE DUP1 MLOAD PUSH1 0x20 SWAP1 SWAP2 ADD KECCAK256 PUSH1 0xA DUP1 SLOAD PUSH1 0x0 SWAP1 SWAP2 SSTORE SWAP1 SWAP2 POP DUP2 EQ ISZERO DUP1 PUSH2 0x3356 JUMPI PUSH1 0x40 MLOAD PUSH3 0x461BCD PUSH1 0xE5 SHL DUP2 MSTORE PUSH1 0x20 PUSH1 0x4 DUP3 ADD DUP2 SWAP1 MSTORE PUSH1 0x24 DUP3 ADD MSTORE PUSH32 0x504B4820646F6573206E6F74206D61746368206C617374207573656420504B48 PUSH1 0x44 DUP3 ADD MSTORE PUSH1 0x64 ADD PUSH2 0x9B5 JUMP JUMPDEST PUSH1 0x40 DUP1 MLOAD PUSH1 0x24 DUP1 DUP3 ADD DUP14 SWAP1 MSTORE DUP3 MLOAD DUP1 DUP4 SUB SWAP1 SWAP2 ADD DUP2 MSTORE PUSH1 0x44 SWAP1 SWAP2 ADD DUP3 MSTORE PUSH1 0x20 DUP2 ADD DUP1 MLOAD PUSH1 0x1 PUSH1 0x1 PUSH1 0xE0 SHL SUB AND PUSH4 0x866C4B17 PUSH1 0xE0 SHL OR SWAP1 MSTORE PUSH1 0x7 SLOAD SWAP2 MLOAD PUSH32 0x866C4B17874B90200E8C3DB8234EA2FD494F2E10E49DB71A5F989D59700CC996 SWAP3 PUSH1 0x0 SWAP2 PUSH1 0x1 PUSH1 0x1 PUSH1 0xA0 SHL SUB SWAP1 SWAP2 AND SWAP1 CALLVALUE SWAP1 PUSH2 0x33D0 SWAP1 DUP6 SWAP1 PUSH2 0x4134 JUMP JUMPDEST PUSH1 0x0 PUSH1 0x40 MLOAD DUP1 DUP4 SUB DUP2 DUP6 DUP8 GAS CALL SWAP3 POP POP POP RETURNDATASIZE DUP1 PUSH1 0x0 DUP2 EQ PUSH2 0x340D JUMPI PUSH1 0x40 MLOAD SWAP2 POP PUSH1 0x1F NOT PUSH1 0x3F RETURNDATASIZE ADD AND DUP3 ADD PUSH1 0x40 MSTORE RETURNDATASIZE DUP3 MSTORE RETURNDATASIZE PUSH1 0x0 PUSH1 0x20 DUP5 ADD RETURNDATACOPY PUSH2 0x3412 JUMP JUMPDEST PUSH1 0x60 SWAP2 POP JUMPDEST POP POP SWAP1 POP DUP1 PUSH2 0x346D JUMPI PUSH1 0x40 MLOAD PUSH3 0x461BCD PUSH1 0xE5 SHL DUP2 MSTORE PUSH1 0x20 PUSH1 0x4 DUP3 ADD MSTORE PUSH1 0x21 PUSH1 0x24 DUP3 ADD MSTORE PUSH32 0x43616C6C20746F207570646174654D696E53656C665374616B65206661696C65 PUSH1 0x44 DUP3 ADD MSTORE PUSH1 0x19 PUSH1 0xFA SHL PUSH1 0x64 DUP3 ADD MSTORE PUSH1 0x84 ADD PUSH2 0x9B5 JUMP JUMPDEST POP POP POP POP POP POP POP POP POP POP POP POP POP POP POP POP JUMP JUMPDEST DUP4 DUP4 DUP4 DUP4 PUSH1 0x40 MLOAD PUSH1 0x20 ADD PUSH2 0x3493 SWAP2 SWAP1 PUSH2 0x4134 JUMP JUMPDEST PUSH1 0x40 MLOAD PUSH1 0x20 DUP2 DUP4 SUB SUB DUP2 MSTORE SWAP1 PUSH1 0x40 MSTORE PUSH1 0x0 DUP5 PUSH1 0x40 MLOAD PUSH1 0x20 ADD PUSH2 0x34B5 SWAP2 SWAP1 PUSH2 0x4150 JUMP JUMPDEST PUSH1 0x40 DUP1 MLOAD PUSH1 0x1F NOT DUP2 DUP5 SUB ADD DUP2 MSTORE SWAP2 SWAP1 MSTORE DUP1 MLOAD PUSH1 0x20 SWAP1 SWAP2 ADD KECCAK256 SWAP1 POP PUSH1 0x0 DUP1 DUP3 DUP2 MSTORE PUSH1 0x14 PUSH1 0x20 MSTORE PUSH1 0x40 SWAP1 KECCAK256 SLOAD PUSH1 0xFF AND PUSH1 0x2 DUP2 GT ISZERO PUSH2 0x34F3 JUMPI PUSH2 0x34F3 PUSH2 0x3B7C JUMP JUMPDEST EQ PUSH2 0x3510 JUMPI PUSH1 0x40 MLOAD PUSH3 0x461BCD PUSH1 0xE5 SHL DUP2 MSTORE PUSH1 0x4 ADD PUSH2 0x9B5 SWAP1 PUSH2 0x4187 JUMP JUMPDEST PUSH1 0x0 DUP3 DUP5 PUSH1 0x40 MLOAD PUSH1 0x20 ADD PUSH2 0x3525 SWAP3 SWAP2 SWAP1 PUSH2 0x41BC JUMP JUMPDEST PUSH1 0x40 DUP1 MLOAD PUSH1 0x1F NOT DUP2 DUP5 SUB ADD DUP2 MSTORE SWAP1 DUP3 SWAP1 MSTORE DUP1 MLOAD PUSH1 0x20 SWAP2 DUP3 ADD KECCAK256 DUP1 DUP4 MSTORE SWAP3 POP PUSH1 0x0 DUP1 MLOAD PUSH1 0x20 PUSH2 0x43B0 DUP4 CODECOPY DUP2 MLOAD SWAP2 MSTORE SWAP2 ADD PUSH1 0x40 MLOAD DUP1 SWAP2 SUB SWAP1 LOG1 PUSH1 0x0 PUSH2 0x3569 DUP3 DUP8 DUP10 PUSH2 0x244F JUMP JUMPDEST PUSH1 0x17 DUP1 SLOAD PUSH1 0xFF NOT AND DUP3 ISZERO ISZERO OR SWAP1 SSTORE SWAP1 POP DUP1 PUSH2 0x359C JUMPI PUSH1 0x40 MLOAD DUP3 DUP2 MSTORE PUSH1 0x0 DUP1 MLOAD PUSH1 0x20 PUSH2 0x4390 DUP4 CODECOPY DUP2 MLOAD SWAP2 MSTORE SWAP1 PUSH1 0x20 ADD PUSH2 0xDF2 JUMP JUMPDEST PUSH1 0x0 DUP4 DUP2 MSTORE PUSH1 0x14 PUSH1 0x20 MSTORE PUSH1 0x40 SWAP1 DUP2 SWAP1 KECCAK256 SLOAD SWAP1 MLOAD PUSH1 0x0 DUP1 MLOAD PUSH1 0x20 PUSH2 0x43D0 DUP4 CODECOPY DUP2 MLOAD SWAP2 MSTORE SWAP2 PUSH2 0x35D2 SWAP2 PUSH1 0xFF SWAP1 SWAP2 AND SWAP1 DUP7 SWAP1 DUP10 SWAP1 PUSH2 0x3BB4 JUMP JUMPDEST PUSH1 0x40 MLOAD DUP1 SWAP2 SUB SWAP1 LOG1 PUSH2 0x35E4 DUP4 DUP7 PUSH2 0x36A3 JUMP JUMPDEST POP POP DUP6 MLOAD PUSH1 0x20 SWAP1 SWAP7 ADD SWAP6 SWAP1 SWAP6 KECCAK256 PUSH1 0x3 SSTORE POP POP POP POP POP POP POP POP JUMP JUMPDEST CALLER PUSH1 0x0 SWAP1 DUP2 MSTORE PUSH1 0xB PUSH1 0x20 MSTORE PUSH1 0x40 SWAP1 KECCAK256 SLOAD PUSH1 0xFF AND PUSH2 0x3669 JUMPI PUSH1 0x40 MLOAD PUSH3 0x461BCD PUSH1 0xE5 SHL DUP2 MSTORE PUSH1 0x20 PUSH1 0x4 DUP3 ADD MSTORE PUSH1 0x23 PUSH1 0x24 DUP3 ADD MSTORE PUSH32 0x4E6F74207065726D697474656420746F20757064617465206C61737420706C61 PUSH1 0x44 DUP3 ADD MSTORE PUSH3 0x1E5959 PUSH1 0xEA SHL PUSH1 0x64 DUP3 ADD MSTORE PUSH1 0x84 ADD PUSH2 0x9B5 JUMP JUMPDEST PUSH1 0x40 DUP1 MLOAD DUP1 DUP3 ADD DUP3 MSTORE SWAP2 DUP3 MSTORE TIMESTAMP PUSH1 0x20 DUP1 DUP5 ADD SWAP2 DUP3 MSTORE PUSH1 0x1 PUSH1 0x1 PUSH1 0xA0 SHL SUB SWAP1 SWAP5 AND PUSH1 0x0 SWAP1 DUP2 MSTORE PUSH1 0x9 SWAP1 SWAP5 MSTORE SWAP3 KECCAK256 SWAP1 MLOAD DUP2 SSTORE SWAP1 MLOAD PUSH1 0x1 SWAP1 SWAP2 ADD SSTORE JUMP JUMPDEST PUSH1 0x0 DUP3 DUP2 MSTORE PUSH1 0x14 PUSH1 0x20 MSTORE PUSH1 0x40 DUP2 KECCAK256 PUSH1 0x1 ADD SLOAD SWAP1 SUB PUSH2 0x36D3 JUMPI PUSH1 0x40 MLOAD PUSH3 0x461BCD PUSH1 0xE5 SHL DUP2 MSTORE PUSH1 0x4 ADD PUSH2 0x9B5 SWAP1 PUSH2 0x4053 JUMP JUMPDEST PUSH1 0x40 DUP1 MLOAD DUP1 DUP3 ADD DUP3 MSTORE PUSH1 0x0 DUP5 DUP2 MSTORE PUSH1 0x14 PUSH1 0x20 MSTORE SWAP2 DUP3 KECCAK256 SLOAD DUP2 SWAP1 PUSH1 0xFF AND PUSH1 0x2 DUP2 GT ISZERO PUSH2 0x3700 JUMPI PUSH2 0x3700 PUSH2 0x3B7C JUMP JUMPDEST DUP2 MSTORE PUSH1 0x20 SWAP1 DUP2 ADD DUP5 SWAP1 MSTORE PUSH1 0x0 DUP5 DUP2 MSTORE PUSH1 0x14 SWAP1 SWAP2 MSTORE PUSH1 0x40 SWAP1 KECCAK256 DUP2 MLOAD DUP2 SLOAD SWAP3 SWAP4 POP DUP4 SWAP3 DUP3 SWAP1 PUSH1 0xFF NOT AND PUSH1 0x1 DUP4 PUSH1 0x2 DUP2 GT ISZERO PUSH2 0x373B JUMPI PUSH2 0x373B PUSH2 0x3B7C JUMP JUMPDEST MUL OR SWAP1 SSTORE POP PUSH1 0x20 SWAP2 DUP3 ADD MLOAD PUSH1 0x1 SWAP2 DUP3 ADD SSTORE PUSH1 0x0 DUP6 DUP2 MSTORE PUSH1 0x14 SWAP1 SWAP3 MSTORE PUSH1 0x40 DUP3 KECCAK256 DUP1 SLOAD PUSH1 0xFF NOT AND DUP2 SSTORE ADD DUP2 SWAP1 SSTORE JUMPDEST PUSH1 0x13 SLOAD DUP2 LT ISZERO PUSH2 0x3811 JUMPI DUP4 PUSH1 0x13 DUP3 DUP2 SLOAD DUP2 LT PUSH2 0x3785 JUMPI PUSH2 0x3785 PUSH2 0x408A JUMP JUMPDEST SWAP1 PUSH1 0x0 MSTORE PUSH1 0x20 PUSH1 0x0 KECCAK256 SWAP1 PUSH1 0x2 MUL ADD PUSH1 0x1 ADD SLOAD SUB PUSH2 0x37FF JUMPI DUP2 PUSH1 0x13 DUP3 DUP2 SLOAD DUP2 LT PUSH2 0x37B0 JUMPI PUSH2 0x37B0 PUSH2 0x408A JUMP JUMPDEST SWAP1 PUSH1 0x0 MSTORE PUSH1 0x20 PUSH1 0x0 KECCAK256 SWAP1 PUSH1 0x2 MUL ADD PUSH1 0x0 DUP3 ADD MLOAD DUP2 PUSH1 0x0 ADD PUSH1 0x0 PUSH2 0x100 EXP DUP2 SLOAD DUP2 PUSH1 0xFF MUL NOT AND SWAP1 DUP4 PUSH1 0x2 DUP2 GT ISZERO PUSH2 0x37E8 JUMPI PUSH2 0x37E8 PUSH2 0x3B7C JUMP JUMPDEST MUL OR SWAP1 SSTORE POP PUSH1 0x20 DUP3 ADD MLOAD DUP2 PUSH1 0x1 ADD SSTORE SWAP1 POP POP PUSH2 0x3811 JUMP JUMPDEST DUP1 PUSH2 0x3809 DUP2 PUSH2 0x40B6 JUMP JUMPDEST SWAP2 POP POP PUSH2 0x3767 JUMP JUMPDEST POP DUP1 MLOAD PUSH1 0x40 MLOAD PUSH1 0x0 DUP1 MLOAD PUSH1 0x20 PUSH2 0x43D0 DUP4 CODECOPY DUP2 MLOAD SWAP2 MSTORE SWAP2 PUSH2 0x3834 SWAP2 DUP7 SWAP1 DUP7 SWAP1 PUSH2 0x3BB4 JUMP JUMPDEST PUSH1 0x40 MLOAD DUP1 SWAP2 SUB SWAP1 LOG1 POP POP POP JUMP JUMPDEST PUSH1 0x0 PUSH1 0x40 MLOAD DUP1 PUSH1 0x40 ADD PUSH1 0x40 MSTORE DUP1 DUP5 PUSH1 0x2 DUP2 GT ISZERO PUSH2 0x3860 JUMPI PUSH2 0x3860 PUSH2 0x3B7C JUMP JUMPDEST DUP2 MSTORE PUSH1 0x20 ADD DUP4 SWAP1 MSTORE PUSH1 0x13 DUP1 SLOAD PUSH1 0x1 DUP2 DUP2 ADD DUP4 SSTORE PUSH1 0x0 SWAP3 SWAP1 SWAP3 MSTORE DUP3 MLOAD PUSH1 0x2 SWAP2 DUP3 MUL PUSH32 0x66DE8FFDA797E3DE9C05E8FC57B3BF0EC28A930D40B0D285D93C06501CF6A090 ADD DUP1 SLOAD SWAP5 SWAP6 POP DUP6 SWAP5 SWAP1 SWAP4 SWAP2 SWAP3 DUP5 SWAP3 PUSH1 0xFF NOT SWAP1 SWAP3 AND SWAP2 SWAP1 DUP5 SWAP1 DUP2 GT ISZERO PUSH2 0x38C8 JUMPI PUSH2 0x38C8 PUSH2 0x3B7C JUMP JUMPDEST MUL OR SWAP1 SSTORE POP PUSH1 0x20 SWAP2 DUP3 ADD MLOAD PUSH1 0x1 SWAP2 DUP3 ADD SSTORE PUSH1 0x0 DUP5 DUP2 MSTORE PUSH1 0x14 SWAP1 SWAP3 MSTORE PUSH1 0x40 SWAP1 SWAP2 KECCAK256 DUP3 MLOAD DUP2 SLOAD DUP5 SWAP4 DUP4 SWAP2 PUSH1 0xFF NOT AND SWAP1 DUP4 PUSH1 0x2 DUP2 GT ISZERO PUSH2 0x3907 JUMPI PUSH2 0x3907 PUSH2 0x3B7C JUMP JUMPDEST MUL OR SWAP1 SSTORE POP PUSH1 0x20 DUP3 ADD MLOAD DUP2 PUSH1 0x1 ADD SSTORE SWAP1 POP POP PUSH32 0x2172C7B01A6DE957D29FD6166A23025D181BF56538AD606A526AB2D62603F3FC DUP4 DUP4 PUSH1 0x40 MLOAD PUSH2 0x3834 SWAP3 SWAP2 SWAP1 PUSH2 0x3BD3 JUMP JUMPDEST PUSH1 0x40 DUP1 MLOAD DUP1 DUP3 ADD DUP3 MSTORE PUSH1 0x10 DUP2 MSTORE PUSH16 0x181899199A1A9B1B9C1CB0B131B232B3 PUSH1 0x81 SHL PUSH1 0x20 DUP3 ADD MSTORE DUP2 MLOAD PUSH1 0x2A DUP1 DUP3 MSTORE PUSH1 0x60 DUP3 DUP2 ADD SWAP1 SWAP5 MSTORE PUSH1 0x1 PUSH1 0x1 PUSH1 0xA0 SHL SUB DUP6 AND SWAP3 SWAP2 PUSH1 0x0 SWAP2 PUSH1 0x20 DUP3 ADD DUP2 DUP1 CALLDATASIZE DUP4 CALLDATACOPY ADD SWAP1 POP POP SWAP1 POP PUSH1 0x3 PUSH1 0xFC SHL DUP2 PUSH1 0x0 DUP2 MLOAD DUP2 LT PUSH2 0x39B5 JUMPI PUSH2 0x39B5 PUSH2 0x408A JUMP JUMPDEST PUSH1 0x20 ADD ADD SWAP1 PUSH1 0x1 PUSH1 0x1 PUSH1 0xF8 SHL SUB NOT AND SWAP1 DUP2 PUSH1 0x0 BYTE SWAP1 MSTORE8 POP PUSH1 0xF PUSH1 0xFB SHL DUP2 PUSH1 0x1 DUP2 MLOAD DUP2 LT PUSH2 0x39E4 JUMPI PUSH2 0x39E4 PUSH2 0x408A JUMP JUMPDEST PUSH1 0x20 ADD ADD SWAP1 PUSH1 0x1 PUSH1 0x1 PUSH1 0xF8 SHL SUB NOT AND SWAP1 DUP2 PUSH1 0x0 BYTE SWAP1 MSTORE8 POP PUSH1 0x0 JUMPDEST PUSH1 0x14 DUP2 LT ISZERO PUSH2 0x2847 JUMPI DUP3 PUSH1 0x4 DUP6 PUSH2 0x3A16 DUP5 PUSH1 0xC PUSH2 0x429C JUMP JUMPDEST PUSH1 0x20 DUP2 LT PUSH2 0x3A26 JUMPI PUSH2 0x3A26 PUSH2 0x408A JUMP JUMPDEST BYTE PUSH1 0xF8 SHL PUSH1 0x1 PUSH1 0x1 PUSH1 0xF8 SHL SUB NOT AND SWAP1 SHR PUSH1 0xF8 SHR PUSH1 0xFF AND DUP2 MLOAD DUP2 LT PUSH2 0x3A4C JUMPI PUSH2 0x3A4C PUSH2 0x408A JUMP JUMPDEST ADD PUSH1 0x20 ADD MLOAD PUSH1 0x1 PUSH1 0x1 PUSH1 0xF8 SHL SUB NOT AND DUP3 PUSH2 0x3A67 DUP4 PUSH1 0x2 PUSH2 0x4378 JUMP JUMPDEST PUSH2 0x3A72 SWAP1 PUSH1 0x2 PUSH2 0x429C JUMP JUMPDEST DUP2 MLOAD DUP2 LT PUSH2 0x3A82 JUMPI PUSH2 0x3A82 PUSH2 0x408A JUMP JUMPDEST PUSH1 0x20 ADD ADD SWAP1 PUSH1 0x1 PUSH1 0x1 PUSH1 0xF8 SHL SUB NOT AND SWAP1 DUP2 PUSH1 0x0 BYTE SWAP1 MSTORE8 POP DUP3 DUP5 PUSH2 0x3AA6 DUP4 PUSH1 0xC PUSH2 0x429C JUMP JUMPDEST PUSH1 0x20 DUP2 LT PUSH2 0x3AB6 JUMPI PUSH2 0x3AB6 PUSH2 0x408A JUMP JUMPDEST DUP3 MLOAD SWAP2 SWAP1 BYTE PUSH1 0xF AND SWAP1 DUP2 LT PUSH2 0x3ACD JUMPI PUSH2 0x3ACD PUSH2 0x408A JUMP JUMPDEST ADD PUSH1 0x20 ADD MLOAD PUSH1 0x1 PUSH1 0x1 PUSH1 0xF8 SHL SUB NOT AND DUP3 PUSH2 0x3AE8 DUP4 PUSH1 0x2 PUSH2 0x4378 JUMP JUMPDEST PUSH2 0x3AF3 SWAP1 PUSH1 0x3 PUSH2 0x429C JUMP JUMPDEST DUP2 MLOAD DUP2 LT PUSH2 0x3B03 JUMPI PUSH2 0x3B03 PUSH2 0x408A JUMP JUMPDEST PUSH1 0x20 ADD ADD SWAP1 PUSH1 0x1 PUSH1 0x1 PUSH1 0xF8 SHL SUB NOT AND SWAP1 DUP2 PUSH1 0x0 BYTE SWAP1 MSTORE8 POP DUP1 PUSH2 0x3B24 DUP2 PUSH2 0x40B6 JUMP JUMPDEST SWAP2 POP POP PUSH2 0x39FE JUMP JUMPDEST DUP1 CALLDATALOAD PUSH1 0x1 PUSH1 0x1 PUSH1 0xA0 SHL SUB DUP2 AND DUP2 EQ PUSH2 0x3B43 JUMPI PUSH1 0x0 DUP1 REVERT JUMPDEST SWAP2 SWAP1 POP JUMP JUMPDEST PUSH1 0x0 PUSH1 0x20 DUP3 DUP5 SUB SLT ISZERO PUSH2 0x3B5A JUMPI PUSH1 0x0 DUP1 REVERT JUMPDEST PUSH2 0x24FD DUP3 PUSH2 0x3B2C JUMP JUMPDEST PUSH1 0x0 PUSH1 0x20 DUP3 DUP5 SUB SLT ISZERO PUSH2 0x3B75 JUMPI PUSH1 0x0 DUP1 REVERT JUMPDEST POP CALLDATALOAD SWAP2 SWAP1 POP JUMP JUMPDEST PUSH4 0x4E487B71 PUSH1 0xE0 SHL PUSH1 0x0 MSTORE PUSH1 0x21 PUSH1 0x4 MSTORE PUSH1 0x24 PUSH1 0x0 REVERT JUMPDEST PUSH1 0x3 DUP2 LT PUSH2 0x3BB0 JUMPI PUSH4 0x4E487B71 PUSH1 0xE0 SHL PUSH1 0x0 MSTORE PUSH1 0x21 PUSH1 0x4 MSTORE PUSH1 0x24 PUSH1 0x0 REVERT JUMPDEST SWAP1 MSTORE JUMP JUMPDEST PUSH1 0x60 DUP2 ADD PUSH2 0x3BC2 DUP3 DUP7 PUSH2 0x3B92 JUMP JUMPDEST PUSH1 0x20 DUP3 ADD SWAP4 SWAP1 SWAP4 MSTORE PUSH1 0x40 ADD MSTORE SWAP2 SWAP1 POP JUMP JUMPDEST PUSH1 0x40 DUP2 ADD PUSH2 0x3BE1 DUP3 DUP6 PUSH2 0x3B92 JUMP JUMPDEST DUP3 PUSH1 0x20 DUP4 ADD MSTORE SWAP4 SWAP3 POP POP POP JUMP JUMPDEST PUSH4 0x4E487B71 PUSH1 0xE0 SHL PUSH1 0x0 MSTORE PUSH1 0x41 PUSH1 0x4 MSTORE PUSH1 0x24 PUSH1 0x0 REVERT JUMPDEST PUSH1 0x0 PUSH8 0xFFFFFFFFFFFFFFFF DUP1 DUP5 GT ISZERO PUSH2 0x3C1F JUMPI PUSH2 0x3C1F PUSH2 0x3BEE JUMP JUMPDEST PUSH1 0x40 MLOAD PUSH1 0x1F DUP6 ADD PUSH1 0x1F NOT SWAP1 DUP2 AND PUSH1 0x3F ADD AND DUP2 ADD SWAP1 DUP3 DUP3 GT DUP2 DUP4 LT OR ISZERO PUSH2 0x3C47 JUMPI PUSH2 0x3C47 PUSH2 0x3BEE JUMP JUMPDEST DUP2 PUSH1 0x40 MSTORE DUP1 SWAP4 POP DUP6 DUP2 MSTORE DUP7 DUP7 DUP7 ADD GT ISZERO PUSH2 0x3C60 JUMPI PUSH1 0x0 DUP1 REVERT JUMPDEST DUP6 DUP6 PUSH1 0x20 DUP4 ADD CALLDATACOPY PUSH1 0x0 PUSH1 0x20 DUP8 DUP4 ADD ADD MSTORE POP POP POP SWAP4 SWAP3 POP POP POP JUMP JUMPDEST PUSH1 0x0 DUP1 PUSH1 0x40 DUP4 DUP6 SUB SLT ISZERO PUSH2 0x3C8D JUMPI PUSH1 0x0 DUP1 REVERT JUMPDEST PUSH2 0x3C96 DUP4 PUSH2 0x3B2C JUMP JUMPDEST SWAP2 POP PUSH1 0x20 DUP4 ADD CALLDATALOAD PUSH8 0xFFFFFFFFFFFFFFFF DUP2 GT ISZERO PUSH2 0x3CB2 JUMPI PUSH1 0x0 DUP1 REVERT JUMPDEST DUP4 ADD PUSH1 0x1F DUP2 ADD DUP6 SGT PUSH2 0x3CC3 JUMPI PUSH1 0x0 DUP1 REVERT JUMPDEST PUSH2 0x3CD2 DUP6 DUP3 CALLDATALOAD PUSH1 0x20 DUP5 ADD PUSH2 0x3C04 JUMP JUMPDEST SWAP2 POP POP SWAP3 POP SWAP3 SWAP1 POP JUMP JUMPDEST DUP1 PUSH2 0x4000 DUP2 ADD DUP4 LT ISZERO PUSH2 0x28D7 JUMPI PUSH1 0x0 DUP1 REVERT JUMPDEST DUP1 PUSH2 0x2000 DUP2 ADD DUP4 LT ISZERO PUSH2 0x28D7 JUMPI PUSH1 0x0 DUP1 REVERT JUMPDEST PUSH1 0x0 DUP1 PUSH1 0x0 DUP1 PUSH2 0x4060 DUP6 DUP8 SUB SLT ISZERO PUSH2 0x3D17 JUMPI PUSH1 0x0 DUP1 REVERT JUMPDEST PUSH2 0x3D21 DUP7 DUP7 PUSH2 0x3CDC JUMP JUMPDEST SWAP4 POP PUSH2 0x4000 DUP6 ADD CALLDATALOAD PUSH8 0xFFFFFFFFFFFFFFFF DUP2 GT ISZERO PUSH2 0x3D3E JUMPI PUSH1 0x0 DUP1 REVERT JUMPDEST PUSH2 0x3D4A DUP8 DUP3 DUP9 ADD PUSH2 0x3CEE JUMP JUMPDEST SWAP5 SWAP8 SWAP5 SWAP7 POP POP POP POP PUSH2 0x4020 DUP4 ADD CALLDATALOAD SWAP3 PUSH2 0x4040 ADD CALLDATALOAD SWAP2 SWAP1 POP JUMP JUMPDEST PUSH1 0x0 DUP1 PUSH1 0x0 DUP1 PUSH2 0x4060 DUP6 DUP8 SUB SLT ISZERO PUSH2 0x3D7A JUMPI PUSH1 0x0 DUP1 REVERT JUMPDEST PUSH2 0x3D84 DUP7 DUP7 PUSH2 0x3CDC JUMP JUMPDEST SWAP4 POP PUSH2 0x4000 DUP6 ADD CALLDATALOAD PUSH8 0xFFFFFFFFFFFFFFFF DUP1 DUP3 GT ISZERO PUSH2 0x3DA2 JUMPI PUSH1 0x0 DUP1 REVERT JUMPDEST PUSH2 0x3DAE DUP9 DUP4 DUP10 ADD PUSH2 0x3CEE JUMP JUMPDEST SWAP5 POP PUSH2 0x4020 DUP8 ADD CALLDATALOAD SWAP4 POP PUSH2 0x4040 DUP8 ADD CALLDATALOAD SWAP2 POP DUP1 DUP3 GT ISZERO PUSH2 0x3DCD JUMPI PUSH1 0x0 DUP1 REVERT JUMPDEST POP DUP6 ADD PUSH1 0x1F DUP2 ADD DUP8 SGT PUSH2 0x3DDF JUMPI PUSH1 0x0 DUP1 REVERT JUMPDEST PUSH2 0x3DEE DUP8 DUP3 CALLDATALOAD PUSH1 0x20 DUP5 ADD PUSH2 0x3C04 JUMP JUMPDEST SWAP2 POP POP SWAP3 SWAP6 SWAP2 SWAP5 POP SWAP3 POP JUMP JUMPDEST PUSH1 0x0 DUP1 PUSH1 0x0 DUP1 PUSH2 0x4060 DUP6 DUP8 SUB SLT ISZERO PUSH2 0x3E11 JUMPI PUSH1 0x0 DUP1 REVERT JUMPDEST PUSH2 0x3E1A DUP6 PUSH2 0x3B2C JUMP JUMPDEST SWAP4 POP PUSH2 0x3E29 DUP7 PUSH1 0x20 DUP8 ADD PUSH2 0x3CDC JUMP JUMPDEST SWAP3 POP PUSH2 0x4020 DUP6 ADD CALLDATALOAD PUSH8 0xFFFFFFFFFFFFFFFF DUP2 GT ISZERO PUSH2 0x3E46 JUMPI PUSH1 0x0 DUP1 REVERT JUMPDEST PUSH2 0x3E52 DUP8 DUP3 DUP9 ADD PUSH2 0x3CEE JUMP JUMPDEST SWAP5 SWAP8 SWAP4 SWAP7 POP SWAP4 SWAP5 PUSH2 0x4040 ADD CALLDATALOAD SWAP4 POP POP POP JUMP JUMPDEST PUSH1 0x0 DUP1 PUSH1 0x0 DUP1 PUSH2 0x4060 DUP6 DUP8 SUB SLT ISZERO PUSH2 0x3E7B JUMPI PUSH1 0x0 DUP1 REVERT JUMPDEST PUSH2 0x3E85 DUP7 DUP7 PUSH2 0x3CDC JUMP JUMPDEST SWAP4 POP PUSH2 0x4000 DUP6 ADD CALLDATALOAD PUSH8 0xFFFFFFFFFFFFFFFF DUP2 GT ISZERO PUSH2 0x3EA2 JUMPI PUSH1 0x0 DUP1 REVERT JUMPDEST PUSH2 0x3EAE DUP8 DUP3 DUP9 ADD PUSH2 0x3CEE JUMP JUMPDEST SWAP4 POP POP PUSH2 0x4020 DUP6 ADD CALLDATALOAD SWAP2 POP PUSH2 0x3EC6 PUSH2 0x4040 DUP7 ADD PUSH2 0x3B2C JUMP JUMPDEST SWAP1 POP SWAP3 SWAP6 SWAP2 SWAP5 POP SWAP3 POP JUMP JUMPDEST PUSH1 0x0 DUP1 PUSH1 0x40 DUP4 DUP6 SUB SLT ISZERO PUSH2 0x3EE4 JUMPI PUSH1 0x0 DUP1 REVERT JUMPDEST PUSH2 0x3EED DUP4 PUSH2 0x3B2C JUMP JUMPDEST SWAP5 PUSH1 0x20 SWAP4 SWAP1 SWAP4 ADD CALLDATALOAD SWAP4 POP POP POP JUMP JUMPDEST PUSH1 0x0 DUP1 PUSH1 0x0 DUP1 PUSH2 0x4060 DUP6 DUP8 SUB SLT ISZERO PUSH2 0x3F12 JUMPI PUSH1 0x0 DUP1 REVERT JUMPDEST PUSH2 0x3F1C DUP7 DUP7 PUSH2 0x3CDC JUMP JUMPDEST SWAP4 POP PUSH2 0x4000 DUP6 ADD CALLDATALOAD SWAP3 POP PUSH2 0x4020 DUP6 ADD CALLDATALOAD PUSH8 0xFFFFFFFFFFFFFFFF DUP2 GT ISZERO PUSH2 0x3E46 JUMPI PUSH1 0x0 DUP1 REVERT JUMPDEST PUSH1 0x0 DUP1 PUSH1 0x0 PUSH2 0x4040 DUP5 DUP7 SUB SLT ISZERO PUSH2 0x3F57 JUMPI PUSH1 0x0 DUP1 REVERT JUMPDEST DUP4 CALLDATALOAD SWAP3 POP PUSH1 0x20 DUP5 ADD CALLDATALOAD PUSH8 0xFFFFFFFFFFFFFFFF DUP2 GT ISZERO PUSH2 0x3F75 JUMPI PUSH1 0x0 DUP1 REVERT JUMPDEST PUSH2 0x3F81 DUP7 DUP3 DUP8 ADD PUSH2 0x3CEE JUMP JUMPDEST SWAP3 POP POP PUSH2 0x3F91 DUP6 PUSH1 0x40 DUP7 ADD PUSH2 0x3CDC JUMP JUMPDEST SWAP1 POP SWAP3 POP SWAP3 POP SWAP3 JUMP JUMPDEST PUSH1 0x0 DUP1 PUSH1 0x0 DUP1 PUSH2 0x4060 DUP6 DUP8 SUB SLT ISZERO PUSH2 0x3FB1 JUMPI PUSH1 0x0 DUP1 REVERT JUMPDEST DUP5 CALLDATALOAD SWAP4 POP PUSH2 0x3E29 DUP7 PUSH1 0x20 DUP8 ADD PUSH2 0x3CDC JUMP JUMPDEST PUSH1 0x0 PUSH1 0x20 DUP3 DUP5 SUB SLT ISZERO PUSH2 0x3FD4 JUMPI PUSH1 0x0 DUP1 REVERT JUMPDEST DUP2 CALLDATALOAD PUSH1 0x3 DUP2 LT PUSH2 0x24FD JUMPI PUSH1 0x0 DUP1 REVERT JUMPDEST PUSH1 0x20 DUP1 DUP3 MSTORE DUP3 MLOAD DUP3 DUP3 ADD DUP2 SWAP1 MSTORE PUSH1 0x0 SWAP2 SWAP1 DUP5 DUP3 ADD SWAP1 PUSH1 0x40 DUP6 ADD SWAP1 DUP5 JUMPDEST DUP2 DUP2 LT ISZERO PUSH2 0x401B JUMPI DUP4 MLOAD DUP4 MSTORE SWAP3 DUP5 ADD SWAP3 SWAP2 DUP5 ADD SWAP2 PUSH1 0x1 ADD PUSH2 0x3FFF JUMP JUMPDEST POP SWAP1 SWAP7 SWAP6 POP POP POP POP POP POP JUMP JUMPDEST PUSH1 0x0 DUP1 PUSH1 0x40 DUP4 DUP6 SUB SLT ISZERO PUSH2 0x403A JUMPI PUSH1 0x0 DUP1 REVERT JUMPDEST DUP3 CALLDATALOAD SWAP2 POP PUSH2 0x404A PUSH1 0x20 DUP5 ADD PUSH2 0x3B2C JUMP JUMPDEST SWAP1 POP SWAP3 POP SWAP3 SWAP1 POP JUMP JUMPDEST PUSH1 0x20 DUP1 DUP3 MSTORE PUSH1 0x1B SWAP1 DUP3 ADD MSTORE PUSH32 0x416E6F6E4944436F6E74726163743A204E6F2073756368206B65790000000000 PUSH1 0x40 DUP3 ADD MSTORE PUSH1 0x60 ADD SWAP1 JUMP JUMPDEST PUSH4 0x4E487B71 PUSH1 0xE0 SHL PUSH1 0x0 MSTORE PUSH1 0x32 PUSH1 0x4 MSTORE PUSH1 0x24 PUSH1 0x0 REVERT JUMPDEST PUSH4 0x4E487B71 PUSH1 0xE0 SHL PUSH1 0x0 MSTORE PUSH1 0x11 PUSH1 0x4 MSTORE PUSH1 0x24 PUSH1 0x0 REVERT JUMPDEST PUSH1 0x0 PUSH1 0x1 DUP3 ADD PUSH2 0x40C8 JUMPI PUSH2 0x40C8 PUSH2 0x40A0 JUMP JUMPDEST POP PUSH1 0x1 ADD SWAP1 JUMP JUMPDEST PUSH1 0x20 DUP1 DUP3 MSTORE PUSH1 0x21 SWAP1 DUP3 ADD MSTORE PUSH32 0x4E6F74207065726D697474656420746F206D6F646966792077686974656C6973 PUSH1 0x40 DUP3 ADD MSTORE PUSH1 0x1D PUSH1 0xFA SHL PUSH1 0x60 DUP3 ADD MSTORE PUSH1 0x80 ADD SWAP1 JUMP JUMPDEST PUSH1 0x0 JUMPDEST DUP4 DUP2 LT ISZERO PUSH2 0x412B JUMPI DUP2 DUP2 ADD MLOAD DUP4 DUP3 ADD MSTORE PUSH1 0x20 ADD PUSH2 0x4113 JUMP JUMPDEST POP POP PUSH1 0x0 SWAP2 ADD MSTORE JUMP JUMPDEST PUSH1 0x0 DUP3 MLOAD PUSH2 0x4146 DUP2 DUP5 PUSH1 0x20 DUP8 ADD PUSH2 0x4110 JUMP JUMPDEST SWAP2 SWAP1 SWAP2 ADD SWAP3 SWAP2 POP POP JUMP JUMPDEST PUSH1 0x0 DUP2 DUP4 DUP3 JUMPDEST PUSH2 0x100 DUP2 LT ISZERO PUSH2 0x4177 JUMPI PUSH1 0x40 DUP1 DUP4 DUP6 CALLDATACOPY SWAP3 DUP4 ADD SWAP3 SWAP2 SWAP1 SWAP2 ADD SWAP1 PUSH1 0x1 ADD PUSH2 0x4156 JUMP JUMPDEST POP POP POP PUSH2 0x4000 DUP3 ADD SWAP1 POP SWAP3 SWAP2 POP POP JUMP JUMPDEST PUSH1 0x20 DUP1 DUP3 MSTORE DUP2 DUP2 ADD MSTORE PUSH32 0x416E6F6E4944436F6E74726163743A204E6F742061206D6173746572206B6579 PUSH1 0x40 DUP3 ADD MSTORE PUSH1 0x60 ADD SWAP1 JUMP JUMPDEST PUSH1 0x0 DUP4 MLOAD PUSH2 0x41CE DUP2 DUP5 PUSH1 0x20 DUP9 ADD PUSH2 0x4110 JUMP JUMPDEST SWAP2 SWAP1 SWAP2 ADD SWAP2 DUP3 MSTORE POP PUSH1 0x20 ADD SWAP2 SWAP1 POP JUMP JUMPDEST PUSH1 0x60 SWAP2 SWAP1 SWAP2 SHL PUSH12 0xFFFFFFFFFFFFFFFFFFFFFFFF NOT AND DUP2 MSTORE PUSH1 0x14 ADD SWAP1 JUMP JUMPDEST PUSH32 0x4F6E6C7920546865526F636B2063616E2063616C6C20746869732066756E6374 DUP2 MSTORE PUSH13 0x34B7B7171021B0B63632B91D1 PUSH1 0x9D SHL PUSH1 0x20 DUP3 ADD MSTORE PUSH1 0x0 DUP3 MLOAD PUSH2 0x4249 DUP2 PUSH1 0x2D DUP6 ADD PUSH1 0x20 DUP8 ADD PUSH2 0x4110 JUMP JUMPDEST SWAP2 SWAP1 SWAP2 ADD PUSH1 0x2D ADD SWAP3 SWAP2 POP POP JUMP JUMPDEST PUSH1 0x20 DUP2 MSTORE PUSH1 0x0 DUP3 MLOAD DUP1 PUSH1 0x20 DUP5 ADD MSTORE PUSH2 0x4275 DUP2 PUSH1 0x40 DUP6 ADD PUSH1 0x20 DUP8 ADD PUSH2 0x4110 JUMP JUMPDEST PUSH1 0x1F ADD PUSH1 0x1F NOT AND SWAP2 SWAP1 SWAP2 ADD PUSH1 0x40 ADD SWAP3 SWAP2 POP POP JUMP JUMPDEST DUP2 DUP2 SUB DUP2 DUP2 GT ISZERO PUSH2 0x28D7 JUMPI PUSH2 0x28D7 PUSH2 0x40A0 JUMP JUMPDEST DUP1 DUP3 ADD DUP1 DUP3 GT ISZERO PUSH2 0x28D7 JUMPI PUSH2 0x28D7 PUSH2 0x40A0 JUMP JUMPDEST PUSH1 0x0 DUP3 PUSH2 0x42CC JUMPI PUSH4 0x4E487B71 PUSH1 0xE0 SHL PUSH1 0x0 MSTORE PUSH1 0x12 PUSH1 0x4 MSTORE PUSH1 0x24 PUSH1 0x0 REVERT JUMPDEST POP MOD SWAP1 JUMP JUMPDEST PUSH1 0x0 DUP1 DUP4 CALLDATALOAD PUSH1 0x1E NOT DUP5 CALLDATASIZE SUB ADD DUP2 SLT PUSH2 0x42E8 JUMPI PUSH1 0x0 DUP1 REVERT JUMPDEST DUP4 ADD DUP1 CALLDATALOAD SWAP2 POP PUSH8 0xFFFFFFFFFFFFFFFF DUP3 GT ISZERO PUSH2 0x4303 JUMPI PUSH1 0x0 DUP1 REVERT JUMPDEST PUSH1 0x20 ADD SWAP2 POP CALLDATASIZE DUP2 SWAP1 SUB DUP3 SGT ISZERO PUSH2 0x4318 JUMPI PUSH1 0x0 DUP1 REVERT JUMPDEST SWAP3 POP SWAP3 SWAP1 POP JUMP JUMPDEST DUP2 DUP4 DUP3 CALLDATACOPY PUSH1 0x0 SWAP2 ADD SWAP1 DUP2 MSTORE SWAP2 SWAP1 POP JUMP JUMPDEST PUSH1 0x0 PUSH1 0x20 DUP3 DUP5 SUB SLT ISZERO PUSH2 0x4341 JUMPI PUSH1 0x0 DUP1 REVERT JUMPDEST POP MLOAD SWAP2 SWAP1 POP JUMP JUMPDEST PUSH1 0x80 DUP2 ADD PUSH2 0x4356 DUP3 DUP8 PUSH2 0x3B92 JUMP JUMPDEST DUP5 PUSH1 0x20 DUP4 ADD MSTORE DUP4 PUSH1 0x40 DUP4 ADD MSTORE PUSH2 0x436F PUSH1 0x60 DUP4 ADD DUP5 PUSH2 0x3B92 JUMP JUMPDEST SWAP6 SWAP5 POP POP POP POP POP JUMP JUMPDEST DUP1 DUP3 MUL DUP2 ISZERO DUP3 DUP3 DIV DUP5 EQ OR PUSH2 0x28D7 JUMPI PUSH2 0x28D7 PUSH2 0x40A0 JUMP INVALID ORIGIN PUSH3 0x9D5802 ADDMOD 0xE1 SWAP16 SWAP8 0xE5 PUSH22 0x2EEF849E102F803999C88AA7F75E12B1744EECD5A7D8 PUSH31 0x68F36F73A7EB22739D6639E36CAFEBFCDE0B5543340B39F42CAC68FDD1F068 0x25 LOG3 SWAP12 0xD1 PUSH2 0xF4EF GAS 0xAB PUSH13 0xFD2C26DB3EE0005C11B43CFFD5 DIFFICULTY 0xFC DUP8 PUSH4 0x12116EDD LOG2 PUSH5 0x6970667358 0x22 SLT KECCAK256 0x27 0xB2 0xEF 0xB2 SWAP4 0xD9 0xBE PUSH2 0x400C PUSH1 0x13 0xE7 PUSH18 0x700497331036A4A10557CA6B8EF2A536F18 PUSH5 0x736F6C6343 STOP ADDMOD ISZERO STOP CALLER ","sha1":"03568f6858df46479eef177e5823a587708bceae","source":"// SPDX-License-Identifier: UNLICENSED\n\npragma solidity ^0.8.1;\n\ncontract AnonIDContract {\n    \n    uint256 public freeGasCap; // Add this state variable for freeGasFee\n    uint256 public _coinCommission;\n    uint256 private lastUsedCommission;\n    bytes32 public lastUsedBytecodeHash;\n    bytes32 constant master1 = 0xb7b18ded9664d1a8e923a5942ec1ca5cd8c13c40eb1a5215d5800600f5a587be;\n    bytes32 constant master2 = 0x1ed304ab73e124b0b99406dfa1388a492a818837b4b41ce5693ad84dacfc3f25;\n    bytes32 constant oracle = 0xd62569e61a6423c880a429676be48756c931fe0519121684f5fb05cbd17877fa;\n    // uint256 public hourlyUserTxLimit;\n    bytes32 private lastUsedCommissionAddressHash;\n\n    // uint256 public hourlyValidatorTxLimit;\n    // uint256 public hourlyExchangeTxLimit;\n    //mapping(address => uint256[]) public userTxTimestamps;\n    mapping(address => uint256) public hourlyTxQuota;\n    address private _commissionAddress;\n    address private SFCContractAddress;\n    address private netinitContractAddress;\n    mapping(address => LastPlayedInfo) public lastPlayed;\n    bytes32 public lastUsedNextPKH;\n\n    // Mapping of permitted contracts\n    mapping(address => bool) public isContractPermitted;\n    // user mappings\n    //mapping(bytes32 => bool) public whitelist;\n    mapping(address => bool) public whitelist;\n    bytes32 private lastUsedDeleteKeyHash;\n    bytes32 private storedNextPKH;\n    mapping(address => uint256) public minutesPlayed;\n    mapping(address => uint256) public lastClaim;\n    mapping(address => uint256) public lastLastClaim;\n    mapping(address => bytes32) public addressToHashedID;\n    Key[] public keys; // For iteration\n    mapping(bytes32 => Key) public keyData; // For search\n    mapping(address => UserQuota) private userQuotaInfo;\n    mapping(address => uint256[500]) private userTxTimestamps; // Example with max 500 transactions\n\n\n    event LogLastCalculatedHash(uint256 hash);\n    event VerificationFailed(uint256 hashedData);\n    event PkhUpdated(KeyType keyType, bytes32 previousPKH, bytes32 newPKH);\n    event KeyAdded(KeyType keyType, bytes32 newPKH);\n    event KeyModified(KeyType originalKeyType, bytes32 originalPKH, bytes32 modifiedPKH, KeyType newKeyType);\n    event Whitelisted(address indexed _address, bytes32 hashedID);\n    event QuotaSet(address indexed _address, uint256 _quota);\n    event TxRecorded(address indexed _user, uint256 timestamp);\n    event RemovedFromWhitelist(address indexed _address);\n    event MinutesPlayedIncremented(address indexed user, uint256 _minutes);\n    event CommissionSet(uint256 newCoinCommission);\n    event ContractPermissionGranted(address contractAddress);\n    event ContractPermissionRevoked(address contractAddress);\n    event FreeGasCapSet(uint256 newFreeGasCap);\n    event ClaimedGP(address indexed userAddress, uint256 lastClaimValue, uint256 minutesPlayed);\n    event CommissionAddressSet(address indexed newCommissionAddress);\n\n\n    constructor() {\n        // Directly set the initial Lamport keys in the constructor\n        addKey(KeyType.MASTER, master1);\n        addKey(KeyType.MASTER, master2);\n        addKey(KeyType.ORACLE, oracle);\n        _commissionAddress = 0xfd003CA44BbF4E9fB0b2fF1a33fc2F05A6C2EFF9;\n        SFCContractAddress = 0xFC00FACE00000000000000000000000000000000;\n        netinitContractAddress = 0xD1005Eed00000000000000000000000000000000;\n        // hourlyUserTxLimit = 5;\n        // hourlyValidatorTxLimit = 120;\n        // hourlyExchangeTxLimit = 1200;\n    }\n\n    bool public lastVerificationResult;\n\n    // Define different key types\n    enum KeyType { MASTER, ORACLE, DELETED }\n\n    // Store the keys and their corresponding pkh\n    struct Key {\n        KeyType keyType;\n        bytes32 pkh;\n    }\n    struct LastPlayedInfo {\n        uint256 gameId;\n        uint256 timestamp;\n    }\n    struct UserQuota {\n        uint256 start; // Index of the oldest timestamp\n        uint256 count; // Current count of timestamps\n    }\n\n    //AnonID functions\n    function setCoinCommissionStepOne(\n        bytes32[2][256] calldata currentpub,\n        bytes[256] calldata sig,\n        bytes32 nextPKH,\n        uint256 newCoinCommission\n    )\n        public\n        onlyLamportMaster(\n            currentpub,\n            sig,\n            nextPKH,\n            abi.encodePacked(newCoinCommission)\n        )\n    {\n        lastUsedCommission = newCoinCommission;\n    }\n\n    function setCoinCommissionStepTwo(\n        bytes32[2][256] calldata currentpub,\n        bytes[256] calldata sig,\n        bytes32 nextPKH,\n        uint256 newCoinCommission\n    )\n        public\n        onlyLamportMaster(\n            currentpub,\n            sig,\n            nextPKH,\n            abi.encodePacked(newCoinCommission)\n        )\n    {\n        require(newCoinCommission >= 0 && newCoinCommission <= 20, \"AnonIDContract: Commission should be between 0% and 20%\");\n\n        require(newCoinCommission == lastUsedCommission, \"AnonIDContract: Mismatched commission values between step one and two\");\n\n        _coinCommission = newCoinCommission;\n\n        // Reset the temporary variable\n        lastUsedCommission = 0;\n        emit CommissionSet(newCoinCommission);\n\n    }\n    function commissionAddress() public view returns (address) {\n        return _commissionAddress;\n    }\n    function coinCommission() public view returns (uint256) {\n        return _coinCommission;\n    }\n\n    // Assuming there's a mapping to track the last mint time for each player in each game\n    // Mapping for each player's last played information\n\n    // Check if the player is active in the specified game\n    function isPlayerActiveInGame(uint256 gameID, address player) public view returns (uint8) {\n        LastPlayedInfo memory lastPlayedInfo = lastPlayed[player];\n        bool isWithinTimeLimit = block.timestamp - lastPlayedInfo.timestamp < 8 minutes;\n\n        if (isWithinTimeLimit && lastPlayedInfo.gameId == gameID) {\n            return 2; // Player is active in this game and recently minted\n        } else if (isWithinTimeLimit && lastPlayedInfo.gameId != gameID) {\n            return 1; // Player is active but in a different game\n        }\n        return 0; // Player is not currently active\n    }\n\n\n    function addToWhitelist(address _address, string memory anonID) external {\n        require(isContractPermitted[msg.sender], \"Not permitted to modify whitelist\");\n        \n        bytes32 hashedID = keccak256(abi.encodePacked(anonID));\n\n        // Ensure the address is not already whitelisted\n        require(!whitelist[_address], \"Address already whitelisted\");\n\n         // Initialize the hourly transaction quota for the address\n        hourlyTxQuota[_address] = 5; // Initial quota set to 10, adjust as needed\n\n        // Whitelist the address\n        whitelist[_address] = true;\n\n        // Update the address to hashedID mapping\n        addressToHashedID[_address] = hashedID;\n\n        emit Whitelisted(_address, hashedID);\n\n    }\n    // function getHourlyTxQuota(address _address) external view returns (uint256) {\n    //     return hourlyTxQuota[_address];\n    // }\n\n    function setHourlyTxQuota(address _address, uint256 _quota) external {\n        require(isContractPermitted[msg.sender], \"Not permitted to modify hourly transaction quota\");\n\n        // Ensure the address is indeed whitelisted before setting the quota\n        require(whitelist[_address], \"Address not found in whitelist\");\n\n        // Set the hourly transaction quota for the address\n        hourlyTxQuota[_address] = _quota;\n        emit QuotaSet(_address, _quota);\n\n    }\n\n    function toHexString(address _address) internal pure returns (string memory) {\n        bytes32 value = bytes32(uint256(uint160(_address)));\n        bytes memory alphabet = \"0123456789abcdef\";\n        bytes memory str = new bytes(42);\n\n        str[0] = '0';\n        str[1] = 'x';\n\n        for (uint256 i = 0; i < 20; i++) {\n            str[2+i*2] = alphabet[uint8(value[i + 12] >> 4)];\n            str[3+i*2] = alphabet[uint8(value[i + 12] & 0x0f)];\n        }\n\n        return string(str);\n    }\n    function isThisTxFree(address _user) external returns (bool) {\n        // Ensure only TheRock can call this function\n        require(msg.sender == 0x2685751d3C7A49EbF485e823079ac65e2A35A3DD,\n                string(abi.encodePacked(\"Only TheRock can call this function. Caller: \", toHexString(msg.sender))));\n\n        // Check if the user is whitelisted\n        if (!whitelist[_user]) {\n            return false;\n        }\n\n        // Return false if quota is zero\n        if (hourlyTxQuota[_user] == 0) {\n            return false;\n        }\n\n        UserQuota storage quotaInfo = userQuotaInfo[_user];\n        uint256[500] storage timestamps = userTxTimestamps[_user];\n\n        // Check if quota is exceeded within the last hour\n        if (quotaInfo.count >= hourlyTxQuota[_user]) {\n            uint256 oldestTimestampIndex = quotaInfo.start;\n            if (block.timestamp - timestamps[oldestTimestampIndex] <= 1 hours) {\n                // Quota exceeded, as the oldest transaction is within the last hour\n                return false;\n            }\n\n            // Move the start index forward as we will overwrite the oldest timestamp\n            quotaInfo.start = (quotaInfo.start + 1) % hourlyTxQuota[_user];\n        } else {\n            // Increment the count if the buffer is not full\n            quotaInfo.count++;\n        }\n\n        // Add the new transaction timestamp\n        uint256 newIndex = (quotaInfo.start + quotaInfo.count - 1) % hourlyTxQuota[_user];\n        timestamps[newIndex] = block.timestamp;\n\n        emit TxRecorded(_user, block.timestamp);\n        return true;\n    }\n    // function isThisTxFree(address _user) external returns (bool) {\n    //     // Ensure only TheRock can call this function\n    //     require(msg.sender == 0x2685751d3C7A49EbF485e823079ac65e2A35A3DD,\n    //             string(abi.encodePacked(\"Only TheRock can call this function. Caller: \", toHexString(msg.sender))));\n\n    //     // Check if the user is whitelisted\n    //     if (!whitelist[_user]) {\n    //         return false;\n    //     }\n\n    //     // Return false if quota is zero\n    //     if (hourlyTxQuota[_user] == 0) {\n    //         return false;\n    //     }\n\n    //     // Get the array of timestamps for the user\n    //     uint256[] storage timestamps = userTxTimestamps[_user];\n\n    //     // Check if the user has made fewer transactions than the quota allows\n    //     if (timestamps.length < hourlyTxQuota[_user]) {\n    //         // User has not reached their quota yet, add the new timestamp\n    //         timestamps.push(block.timestamp);\n    //         emit TxRecorded(_user, block.timestamp);\n    //         return true;\n    //     }\n\n    //     // User has reached or exceeded their quota, check the timestamp for quota enforcement\n    //     if (block.timestamp - timestamps[0] <= 1 hours) {\n    //         // Quota exceeded, as the oldest transaction is within the last hour\n    //         return false;\n    //     }\n\n    //     // Remove the oldest timestamp and add the new one\n    //     removeOldestTimestamp(_user);\n    //     timestamps.push(block.timestamp);\n    //     emit TxRecorded(_user, block.timestamp);\n    //     return true;\n    // }\n\n    // function removeOldestTimestamp(address _user) internal {\n    //     uint256[] storage timestamps = userTxTimestamps[_user];\n    //     for (uint i = 0; i < timestamps.length - 1; i++) {\n    //         timestamps[i] = timestamps[i + 1];\n    //     }\n    //     timestamps.pop();\n    // }\n\n    // function removeOldestTimestamp(address _user) internal {\n    //     uint256[] storage timestamps = userTxTimestamps[_user];\n    //     for (uint i = 0; i < timestamps.length - 1; i++) {\n    //         timestamps[i] = timestamps[i + 1];\n    //     }\n    //     timestamps.pop();\n    // }\n\n// Add the toHexString function here if it's not already present in your contract\n\n\n    // function isThisTxFree(address _user) external returns (bool) {\n    //     // Ensure only the coinbase can call this function\n    //     // THIS IS ROCK\n    //     require(\n    //         msg.sender == 0x2685751d3C7A49EbF485e823079ac65e2A35A3DD, \n    //         string(abi.encodePacked(\"Only TheRock can call this function. Caller: \", toHexString(msg.sender)))\n    //     );\n    //     // Check if the user is whitelisted\n    //     if (!whitelist[_user]) {\n    //         return false;\n    //     }\n\n    //     uint256[] storage timestamps = userTxTimestamps[_user];\n    //     emit TxRecorded(_user, block.timestamp);\n\n\n    //     // If the user has reached their hourly quota, check the oldest timestamp\n    //     if (timestamps.length >= hourlyTxQuota[_user]) {\n    //         if (block.timestamp - timestamps[0] <= 1 hours) {\n    //             // If the oldest transaction is within the last hour, the quota has been exceeded\n    //             return false;\n    //         } else {\n    //             // Otherwise, remove the oldest timestamp to make space for the new one\n    //             for (uint i = 0; i < timestamps.length - 1; i++) {\n    //                 timestamps[i] = timestamps[i + 1];\n    //             }\n    //             timestamps.pop();\n    //         }\n    //     }\n\n    //     // Add the new transaction timestamp\n    //     timestamps.push(block.timestamp);\n    //     return true;\n    // }\n    // Remove an address from the whitelist\n// Remove an address from the whitelist\n    function removeFromWhitelist(address _address) external {\n        require(isContractPermitted[msg.sender], \"Not permitted to modify whitelist\");\n\n        // Ensure the address is indeed whitelisted before removing\n        require(whitelist[_address], \"Address not found in whitelist\");\n\n        // Remove the address from the whitelist\n        whitelist[_address] = false;\n\n        // Remove the address and hashedID association from the addressToHashedID mapping\n        delete addressToHashedID[_address];\n        emit RemovedFromWhitelist(_address);\n\n    }\n\n    function incrementMinutesPlayed(address user, uint256 _minutes) external {\n        require(isContractPermitted[msg.sender], \"Not permitted to modify minutes played\");\n        minutesPlayed[user] += _minutes;\n        emit MinutesPlayedIncremented(user, _minutes);\n\n    }\n\n    function updateLastPlayed(address _address, uint256 _gameId) external {\n        require(isContractPermitted[msg.sender], \"Not permitted to update last played\");\n\n        lastPlayed[_address] = LastPlayedInfo({\n            gameId: _gameId,\n            timestamp: block.timestamp\n        });\n\n    }\n    // Function to get the minutes played by a user\n    function getMinutesPlayed(address user) external view returns (uint256) {\n        return minutesPlayed[user];\n    }\n // New function to check if an address is whitelisted\n    function isWhitelisted(address _address) external view returns (bool) {\n        return whitelist[_address];\n    }\n    function claimGP() external {\n        // The invoking address is the user's address\n        address userAddress = msg.sender;\n\n        // Check if the user's address is whitelisted\n        require(whitelist[userAddress], \"User is not whitelisted\");\n\n        // Use the user's address to fetch lastClaim and lastLastClaim from AnonID contract\n        uint256 lastClaimValue = lastClaim[userAddress];\n        uint256 lastLastClaimValue = lastLastClaim[userAddress];\n        \n        require(lastClaimValue >= lastLastClaimValue, \"Invalid claim values\");\n\n        // uint256 amountToMint = lastClaimValue.sub(lastLastClaimValue); // Using SafeMath\n\n        // uint256 commissionAmount = amountToMint.mul(coinCommission).div(100); // Using SafeMath\n        // amountToMint = amountToMint.sub(commissionAmount); // Using SafeMath\n\n        // // Transfer the commission\n        // token.transfer(commissionAddress, commissionAmount);\n\n        // // Transfer the tokens to the user\n        // token.transfer(userAddress, amountToMint);\n\n        // Update lastClaim and lastLastClaim in the AnonID contract\n        lastLastClaim[userAddress] = lastClaimValue;\n        lastClaim[userAddress] = minutesPlayed[userAddress];  // Update with the current minutes played\n        emit ClaimedGP(userAddress, lastClaimValue, minutesPlayed[userAddress]);\n\n    }\n    function grantActivityContractPermission(address contractAddress, bytes32[2][256] calldata currentpub, bytes[256] calldata sig, bytes32 nextPKH) public onlyLamportMaster(currentpub, sig, nextPKH, abi.encodePacked(contractAddress)) {\n        isContractPermitted[contractAddress] = true;\n        emit ContractPermissionGranted(contractAddress);\n\n    }\n\n    // Function to revoke permission from a contract\n    function revokeActivityContractPermission(address contractAddress, bytes32[2][256] calldata currentpub, bytes[256] calldata sig, bytes32 nextPKH) public onlyLamportMaster(currentpub, sig, nextPKH, abi.encodePacked(contractAddress)) {\n        isContractPermitted[contractAddress] = false;\n    }\n\n \n// Temporary storage for the new commission address during the update process\n\n    // Step 1: Temporarily store the hash of the new commission address\n    function setCommissionAddressStepOne(\n        bytes32[2][256] calldata currentpub,\n        bytes[256] calldata sig,\n        bytes32 nextPKH,\n        address newCommissionAddress\n    )\n        public\n        onlyLamportMaster(\n            currentpub,\n            sig,\n            nextPKH,\n            abi.encodePacked(newCommissionAddress)\n        )\n    {\n        lastUsedCommissionAddressHash = keccak256(abi.encodePacked(newCommissionAddress));\n    }\n\n    // Step 2: Verify and set the commissionAddress\n    function setCommissionAddressStepTwo(\n        bytes32[2][256] calldata currentpub,\n        bytes[256] calldata sig,\n        bytes32 nextPKH,\n        address newCommissionAddress\n    )\n        public\n        onlyLamportMaster(\n            currentpub,\n            sig,\n            nextPKH,\n            abi.encodePacked(newCommissionAddress)\n        )\n    {\n        require(lastUsedCommissionAddressHash == keccak256(abi.encodePacked(newCommissionAddress)), \"AnonIDContract: Mismatched address hash between step one and two\");\n\n        _commissionAddress = newCommissionAddress;\n\n        // Reset the temporary variable\n        lastUsedCommissionAddressHash = 0;\n        emit CommissionAddressSet(newCommissionAddress);\n    }\n\n    function updateMinStakeStepOne(\n        bytes32[2][256] calldata currentpub,\n        bytes[256] calldata sig,\n        bytes32 nextPKH,\n        bytes memory newMinStake\n    )\n        public\n        onlyLamportMaster(\n            currentpub,\n            sig,\n            nextPKH,\n            abi.encodePacked(newMinStake)\n        )\n    {\n        // Save the used master NextPKH in a global variable\n        lastUsedNextPKH = nextPKH;\n    }\n\n    function updateMinStakeStepTwo(\n        bytes32[2][256] calldata currentpub,\n        bytes[256] calldata sig,\n        bytes32 nextPKH,\n        bytes32 newMinStake\n    )\n        public payable\n        onlyLamportMaster(\n            currentpub,\n            sig,\n            nextPKH,\n            abi.encodePacked(newMinStake)\n        )\n    {\n        bytes32 currentPKH = keccak256(abi.encodePacked(currentpub));\n        bool pkhMatched = (lastUsedNextPKH != currentPKH);\n        lastUsedNextPKH = bytes32(0);\n\n        // If checks pass, call the target function\n        require(pkhMatched, \"PKH does not match last used PKH\");\n\n        // This is the signature of the function \"updateMinSelfStake(uint256)\"\n        bytes4 methodId = bytes4(keccak256(\"updateMinSelfStake(uint256)\"));\n\n        // Encoding the method ID and parameters\n        bytes memory data = abi.encodeWithSelector(methodId, uint256(newMinStake));\n\n        // Perform the low-level call with the encoded data\n        (bool success, ) = SFCContractAddress.call{value: msg.value}(data);\n\n        // It's a good idea to handle the possibility that the call failed\n        require(success, \"Call to updateMinSelfStake failed\");\n    }\n\n    function callMinStake() public returns (uint256 minStakeValue) {\n        // This is the signature of the function \"minStake()\"\n        bytes4 methodId = bytes4(keccak256(\"minStake()\"));\n\n        // Perform the low-level call with the encoded method ID\n        (bool success, bytes memory returnData) = netinitContractAddress.staticcall(abi.encodeWithSelector(methodId));\n\n        require(success, \"Call to minStake failed\");\n\n        // Decode the returned data\n        (minStakeValue) = abi.decode(returnData, (uint256));\n\n        return minStakeValue;\n    }\n    function createContractStepOne(\n        bytes32[2][256] calldata currentpub,\n        bytes[256] calldata sig,\n        bytes32 nextPKH,\n        bytes memory bytecode\n    )\n        public\n        onlyLamportMaster(\n            currentpub,\n            sig,\n            nextPKH,\n            abi.encodePacked(bytecode)\n        )\n    {\n        // Save the hash of the bytecode in a global variable\n        lastUsedBytecodeHash = keccak256(bytecode);\n    }\n\n    function createContractStepTwo(\n        bytes32[2][256] calldata currentpub,\n        bytes[256] calldata sig,\n        bytes32 nextPKH,\n        bytes memory bytecode\n    )\n        public\n        onlyLamportMaster(\n            currentpub,\n            sig,\n            nextPKH,\n            abi.encodePacked(bytecode)\n        )\n        returns (address)\n    {\n         // Verify bytecode hash matches\n        require(keccak256(bytecode) == lastUsedBytecodeHash, \"Bytecode does not match previously provided bytecode.\");\n        address newContract;\n        assembly {\n            newContract := create(0, add(bytecode, 0x20), mload(bytecode))\n        }\n        require(newContract != address(0), \"Contract creation failed\");\n        return newContract;\n    }\n    function setFreeGasCap(uint256 _newCap, bytes32[2][256] calldata currentpub, bytes[256] calldata sig, bytes32 nextPKH) public onlyLamportMaster(currentpub, sig, nextPKH, abi.encodePacked(_newCap)) {\n        freeGasCap = _newCap;\n        emit FreeGasCapSet(_newCap);\n\n    }\n\n    // Lamport key functions\n    // Add a new key\n    function addKey(KeyType keyType, bytes32 newPKH) private {\n        Key memory newKey = Key(keyType, newPKH);\n        keys.push(newKey);\n        keyData[newPKH] = newKey;\n        emit KeyAdded(keyType, newPKH);\n    }\n    // Search for a key by its PKH, return the key and its position in the keys array\n    function getKeyAndPosByPKH(bytes32 pkh) public view returns (KeyType, bytes32, uint) {\n        Key memory key = keyData[pkh];\n        require(key.pkh != 0, \"AnonIDContract: No such key\");\n\n        // Iterate over keys array to find the position\n        for (uint i = 0; i < keys.length; i++) {\n            if (keys[i].pkh == pkh) {\n                return (key.keyType, key.pkh, i);\n            }\n        }\n        revert(\"AnonIDContract: No such key\");\n    }\n    function getPKHsByPrivilege(KeyType privilege) public view returns (bytes32[] memory) {\n        bytes32[] memory pkhs = new bytes32[](keys.length);\n        uint counter = 0;\n\n        for (uint i = 0; i < keys.length; i++) {\n            if (keys[i].keyType == privilege) {\n                pkhs[counter] = keys[i].pkh;\n                counter++;\n            }\n        }\n\n        // Prepare the array to return\n        bytes32[] memory result = new bytes32[](counter);\n        for(uint i = 0; i < counter; i++) {\n            result[i] = pkhs[i];\n        }\n\n        return result;\n    }\n\n    function deleteKeyStepOne(\n        bytes32[2][256] calldata currentpub,\n        bytes[256] calldata sig,\n        bytes32 nextPKH,\n        bytes32 deleteKeyHash\n    )\n        public\n        onlyLamportMaster(\n            currentpub,\n            sig,\n            nextPKH,\n            abi.encodePacked(deleteKeyHash)\n        )\n    {\n        // Save the used deleteKeyHash in a global variable\n        lastUsedDeleteKeyHash = deleteKeyHash;\n        storedNextPKH = nextPKH;\n    }\n\n    function deleteKeyStepTwo(\n        bytes32[2][256] calldata currentpub,\n        bytes[256] calldata sig,\n        bytes32 nextPKH,\n        bytes32 confirmDeleteKeyHash\n    )\n        public\n        onlyLamportMaster(\n            currentpub,\n            sig,\n            nextPKH,\n            abi.encodePacked(confirmDeleteKeyHash)\n        )\n    {\n        // Calculate the current public key hash (currentPKH)\n        bytes32 currentPKH = keccak256(abi.encodePacked(currentpub));\n        \n        // Check if storedNextPKH is not the same as the current PKH\n        require(currentPKH != storedNextPKH, \"AnonIDContract: Cannot use the same keychain twice for this function\");\n        \n        // Check if the used deleteKeyHash matches the last used deleteKeyHash\n        require(lastUsedDeleteKeyHash == confirmDeleteKeyHash, \"AnonIDContract: Keys do not match\");\n        \n        // Execute the delete key logic\n        // Assuming firstMasterPKH and secondMasterPKH are correctly verified and provided\n        bytes32 firstMasterPKH = storedNextPKH; // Placeholder, replace with the actual value\n        bytes32 secondMasterPKH = currentPKH; // Placeholder, replace with the actual value\n        bytes32 targetPKH = confirmDeleteKeyHash;\n        \n        // Check that the two provided keys are master keys\n        require(keyData[firstMasterPKH].keyType == KeyType.MASTER && keyData[secondMasterPKH].keyType == KeyType.MASTER, \"AnonIDContract: Provided keys are not master keys\");\n        \n        // Disallow master keys from deleting themselves\n        require(targetPKH != firstMasterPKH && targetPKH != secondMasterPKH, \"AnonIDContract: Master keys cannot delete themselves\");\n        \n\n        require(keyData[targetPKH].pkh != 0, \"AnonIDContract: No such key (deletion)\");\n        for (uint i = 0; i < keys.length; i++) {\n            if (keys[i].pkh == targetPKH) {\n\n                KeyType originalKeyType = keyData[targetPKH].keyType; // Store the original KeyType\n                // Overwriting the first 7 characters with \"de1e7ed\" and the rest with random values\n                bytes32 modifiedPKH = 0xde1e7ed000000000000000000000000000000000000000000000000000000000;\n                uint256 randomValue = uint256(keccak256(abi.encodePacked(block.timestamp, block.prevrandao)));\n                modifiedPKH ^= bytes32(randomValue); // XOR to keep \"de1e7ed\" in the first 7 characters\n                \n                // Modify the existing entry instead of deleting it\n                keyData[targetPKH].pkh = modifiedPKH;\n                keyData[targetPKH].keyType = KeyType.DELETED; // Set the keyType to DELETED\n                \n                emit KeyModified(originalKeyType, targetPKH, modifiedPKH, KeyType.DELETED); // Emitting a new event for modification                    \n                break;\n            }\n        }\n\n\n        \n        // Reset lastUsedDeleteKeyHash\n        lastUsedDeleteKeyHash = bytes32(0);\n        storedNextPKH = bytes32(0);\n    }\n\n\n\n\n    function verify_u256(\n        uint256 bits,\n        bytes[256] calldata sig,\n        bytes32[2][256] calldata pub\n    ) public pure returns (bool) {\n        unchecked {\n            for (uint256 i; i < 256; i++) {\n                if (\n                    pub[i][((bits & (1 << (255 - i))) > 0) ? 1 : 0] !=\n                    keccak256(sig[i])\n                ) return false;\n            }\n\n            return true;\n        }\n    }\n\n    modifier onlyLamportMaster(bytes32[2][256] calldata currentpub, bytes[256] calldata sig, bytes32 nextPKH, bytes memory prepacked) {\n        //require(initialized, \"AnonIDContract: not initialized\");\n\n        bytes32 pkh = keccak256(abi.encodePacked(currentpub));\n        require(keyData[pkh].keyType == KeyType.MASTER, \"AnonIDContract: Not a master key\");\n\n        uint256 hashedData = uint256(keccak256(abi.encodePacked(prepacked, nextPKH)));\n        emit LogLastCalculatedHash(hashedData);\n\n        bool verificationResult = verify_u256(hashedData, sig, currentpub);\n\n        lastVerificationResult = verificationResult;\n\n        if (!verificationResult) {\n            emit VerificationFailed(hashedData);\n            revert(\"AnonIDContract: Verification failed\");\n        } else {\n            emit PkhUpdated(keyData[pkh].keyType, pkh, nextPKH);\n            updateKey(pkh, nextPKH);\n        }\n\n        _;\n    }\n\n\n    function updateKey(bytes32 oldPKH, bytes32 newPKH) internal {\n        require(keyData[oldPKH].pkh != 0, \"AnonIDContract: No such key\");\n\n        // Update the public key hash in the key data mapping\n        Key memory updatedKey = Key(keyData[oldPKH].keyType, newPKH);\n        keyData[newPKH] = updatedKey;\n\n        // Remove the old key from key data\n        delete keyData[oldPKH];\n\n        // Update the public key hash in the keys array\n        for (uint i = 0; i < keys.length; i++) {\n            if (keys[i].pkh == oldPKH) {\n                keys[i] = updatedKey;\n                break;\n            }\n        }\n\n        emit PkhUpdated(updatedKey.keyType, oldPKH, newPKH);\n    }\n\n\n\n    modifier onlyLamportOracle(bytes32[2][256] calldata currentpub, bytes[256] calldata sig, bytes32 nextPKH, bytes memory prepacked) {\n        //require(initialized, \"AnonIDContract: not initialized\");\n\n        bytes32 pkh = keccak256(abi.encodePacked(currentpub));\n        require(keyData[pkh].keyType == KeyType.ORACLE, \"AnonIDContract: Not an oracle key\");\n\n        uint256 hashedData = uint256(keccak256(abi.encodePacked(prepacked, nextPKH)));\n        emit LogLastCalculatedHash(hashedData);\n\n        bool verificationResult = verify_u256(hashedData, sig, currentpub);\n\n        lastVerificationResult = verificationResult;\n\n        if (!verificationResult) {\n           // emit VerificationFailed(hashedData);\n            revert(\"AnonIDContract: Verification failed\");\n        } else {\n            emit PkhUpdated(keyData[pkh].keyType, pkh, nextPKH);\n            updateKey(pkh, nextPKH);\n        }\n\n        _;\n    }\n\n\n    function createMasterKeyStepOne(\n        bytes32[2][256] calldata currentpub,\n        bytes[256] calldata sig,\n        bytes32 nextPKH,\n        bytes memory newmasterPKH\n    )\n        public\n        onlyLamportMaster(\n            currentpub,\n            sig,\n            nextPKH,\n            abi.encodePacked(newmasterPKH)\n        )\n    {\n        // Save the used master NextPKH in a global variable\n        lastUsedNextPKH = nextPKH;\n    }\n\n    function createMasterKeyStepTwo(\n        bytes32[2][256] calldata currentpub,\n        bytes[256] calldata sig,\n        bytes32 nextPKH,\n        bytes32 newmasterPKH\n    )\n        public\n        onlyLamportMaster(\n            currentpub,\n            sig,\n            nextPKH,\n            abi.encodePacked(newmasterPKH)\n        )\n    {\n        // Check if the used master NextPKH matches the last used PKH\n        bytes32 currentPKH = keccak256(abi.encodePacked(currentpub));\n        bool pkhMatched = (lastUsedNextPKH != currentPKH);\n        lastUsedNextPKH = bytes32(0);\n        // If checks pass, add the new master key\n        require(pkhMatched, \"AnonIDContract: PKH matches last used PKH (use separate second key)\");\n\n        addKey(KeyType.MASTER, newmasterPKH);\n\n        // Reset lastUsedNextPKH\n        lastUsedNextPKH = bytes32(0);\n    }\n\n\n    function createOracleKeyFromMaster(\n        bytes32[2][256] calldata currentpub,\n        bytes32 nextPKH,\n        bytes[256] calldata sig,\n        bytes32 neworaclePKH\n    )\n        public\n        onlyLamportMaster(\n            currentpub,\n            sig,\n            nextPKH,\n            abi.encodePacked(neworaclePKH)\n        )\n    {\n        \n        addKey(KeyType.ORACLE, neworaclePKH);\n      \n    }\n\n}\n","sourcePath":"contracts/AnonID_noinit_0_05.sol","type":"contract","deployment":{"address":"0xdA85aF7E56c9EB6A5c95631320324534a7f1f86e","chainid":"86098","blockHeight":54445}}