{"abi":[{"inputs":[{"internalType":"string[]","name":"newNames","type":"string[]"}],"name":"addNames","outputs":[],"stateMutability":"nonpayable","type":"function"},{"inputs":[{"internalType":"uint256","name":"","type":"uint256"}],"name":"names","outputs":[{"internalType":"string","name":"","type":"string"}],"stateMutability":"view","type":"function"}],"bytecode":"608060405234801561001057600080fd5b50610508806100206000396000f3fe608060405234801561001057600080fd5b50600436106100365760003560e01c80634622ab031461003b5780634e303c6014610064575b600080fd5b61004e610049366004610185565b610079565b60405161005b919061019e565b60405180910390f35b610077610072366004610233565b610125565b005b6000818154811061008957600080fd5b9060005260206000200160009150905080546100a49061034c565b80601f01602080910402602001604051908101604052809291908181526020018280546100d09061034c565b801561011d5780601f106100f25761010080835404028352916020019161011d565b820191906000526020600020905b81548152906001019060200180831161010057829003601f168201915b505050505081565b60005b815181101561018157600082828151811061014557610145610386565b6020908102919091018101518254600181018455600093845291909220019061016e90826103eb565b5080610179816104ab565b915050610128565b5050565b60006020828403121561019757600080fd5b5035919050565b600060208083528351808285015260005b818110156101cb578581018301518582016040015282016101af565b506000604082860101526040601f19601f8301168501019250505092915050565b634e487b7160e01b600052604160045260246000fd5b604051601f8201601f1916810167ffffffffffffffff8111828210171561022b5761022b6101ec565b604052919050565b6000602080838503121561024657600080fd5b823567ffffffffffffffff8082111561025e57600080fd5b8185019150601f868184011261027357600080fd5b823582811115610285576102856101ec565b8060051b610294868201610202565b918252848101860191868101908a8411156102ae57600080fd5b87870192505b8383101561033e578235868111156102cc5760008081fd5b8701603f81018c136102de5760008081fd5b888101356040888211156102f4576102f46101ec565b610305828901601f19168c01610202565b8281528e8284860101111561031a5760008081fd5b828285018d83013760009281018c01929092525083525091870191908701906102b4565b9a9950505050505050505050565b600181811c9082168061036057607f821691505b60208210810361038057634e487b7160e01b600052602260045260246000fd5b50919050565b634e487b7160e01b600052603260045260246000fd5b601f8211156103e657600081815260208120601f850160051c810160208610156103c35750805b601f850160051c820191505b818110156103e2578281556001016103cf565b5050505b505050565b815167ffffffffffffffff811115610405576104056101ec565b61041981610413845461034c565b8461039c565b602080601f83116001811461044e57600084156104365750858301515b600019600386901b1c1916600185901b1785556103e2565b600085815260208120601f198616915b8281101561047d5788860151825594840194600190910190840161045e565b508582101561049b5787850151600019600388901b60f8161c191681555b5050505050600190811b01905550565b6000600182016104cb57634e487b7160e01b600052601160045260246000fd5b506001019056fea264697066735822122014050e5ab9036b1feea926e768f07daf565c13c00b00bf9f0a22dcfe7bd9f9f364736f6c63430008150033","bytecodeSha1":"0a0f1b31ee4cf4d49652c87674a4118d0472fd32","compiler":{"evm_version":"istanbul","optimizer":{"enabled":true,"runs":200},"version":"0.8.21+commit.d9974bed"},"contractName":"NameStorage","language":"Solidity","natspec":{"kind":"dev","methods":{},"version":1},"opcodes":"PUSH1 0x80 PUSH1 0x40 MSTORE CALLVALUE DUP1 ISZERO PUSH2 0x10 JUMPI PUSH1 0x0 DUP1 REVERT JUMPDEST POP PUSH1 0x4 CALLDATASIZE LT PUSH2 0x36 JUMPI PUSH1 0x0 CALLDATALOAD PUSH1 0xE0 SHR DUP1 PUSH4 0x4622AB03 EQ PUSH2 0x3B JUMPI DUP1 PUSH4 0x4E303C60 EQ PUSH2 0x64 JUMPI JUMPDEST PUSH1 0x0 DUP1 REVERT JUMPDEST PUSH2 0x4E PUSH2 0x49 CALLDATASIZE PUSH1 0x4 PUSH2 0x185 JUMP JUMPDEST PUSH2 0x79 JUMP JUMPDEST PUSH1 0x40 MLOAD PUSH2 0x5B SWAP2 SWAP1 PUSH2 0x19E JUMP JUMPDEST PUSH1 0x40 MLOAD DUP1 SWAP2 SUB SWAP1 RETURN JUMPDEST PUSH2 0x77 PUSH2 0x72 CALLDATASIZE PUSH1 0x4 PUSH2 0x233 JUMP JUMPDEST PUSH2 0x125 JUMP JUMPDEST STOP JUMPDEST PUSH1 0x0 DUP2 DUP2 SLOAD DUP2 LT PUSH2 0x89 JUMPI PUSH1 0x0 DUP1 REVERT JUMPDEST SWAP1 PUSH1 0x0 MSTORE PUSH1 0x20 PUSH1 0x0 KECCAK256 ADD PUSH1 0x0 SWAP2 POP SWAP1 POP DUP1 SLOAD PUSH2 0xA4 SWAP1 PUSH2 0x34C JUMP JUMPDEST DUP1 PUSH1 0x1F ADD PUSH1 0x20 DUP1 SWAP2 DIV MUL PUSH1 0x20 ADD PUSH1 0x40 MLOAD SWAP1 DUP2 ADD PUSH1 0x40 MSTORE DUP1 SWAP3 SWAP2 SWAP1 DUP2 DUP2 MSTORE PUSH1 0x20 ADD DUP3 DUP1 SLOAD PUSH2 0xD0 SWAP1 PUSH2 0x34C JUMP JUMPDEST DUP1 ISZERO PUSH2 0x11D JUMPI DUP1 PUSH1 0x1F LT PUSH2 0xF2 JUMPI PUSH2 0x100 DUP1 DUP4 SLOAD DIV MUL DUP4 MSTORE SWAP2 PUSH1 0x20 ADD SWAP2 PUSH2 0x11D JUMP JUMPDEST DUP3 ADD SWAP2 SWAP1 PUSH1 0x0 MSTORE PUSH1 0x20 PUSH1 0x0 KECCAK256 SWAP1 JUMPDEST DUP2 SLOAD DUP2 MSTORE SWAP1 PUSH1 0x1 ADD SWAP1 PUSH1 0x20 ADD DUP1 DUP4 GT PUSH2 0x100 JUMPI DUP3 SWAP1 SUB PUSH1 0x1F AND DUP3 ADD SWAP2 JUMPDEST POP POP POP POP POP DUP2 JUMP JUMPDEST PUSH1 0x0 JUMPDEST DUP2 MLOAD DUP2 LT ISZERO PUSH2 0x181 JUMPI PUSH1 0x0 DUP3 DUP3 DUP2 MLOAD DUP2 LT PUSH2 0x145 JUMPI PUSH2 0x145 PUSH2 0x386 JUMP JUMPDEST PUSH1 0x20 SWAP1 DUP2 MUL SWAP2 SWAP1 SWAP2 ADD DUP2 ADD MLOAD DUP3 SLOAD PUSH1 0x1 DUP2 ADD DUP5 SSTORE PUSH1 0x0 SWAP4 DUP5 MSTORE SWAP2 SWAP1 SWAP3 KECCAK256 ADD SWAP1 PUSH2 0x16E SWAP1 DUP3 PUSH2 0x3EB JUMP JUMPDEST POP DUP1 PUSH2 0x179 DUP2 PUSH2 0x4AB JUMP JUMPDEST SWAP2 POP POP PUSH2 0x128 JUMP JUMPDEST POP POP JUMP JUMPDEST PUSH1 0x0 PUSH1 0x20 DUP3 DUP5 SUB SLT ISZERO PUSH2 0x197 JUMPI PUSH1 0x0 DUP1 REVERT JUMPDEST POP CALLDATALOAD SWAP2 SWAP1 POP JUMP JUMPDEST PUSH1 0x0 PUSH1 0x20 DUP1 DUP4 MSTORE DUP4 MLOAD DUP1 DUP3 DUP6 ADD MSTORE PUSH1 0x0 JUMPDEST DUP2 DUP2 LT ISZERO PUSH2 0x1CB JUMPI DUP6 DUP2 ADD DUP4 ADD MLOAD DUP6 DUP3 ADD PUSH1 0x40 ADD MSTORE DUP3 ADD PUSH2 0x1AF JUMP JUMPDEST POP PUSH1 0x0 PUSH1 0x40 DUP3 DUP7 ADD ADD MSTORE PUSH1 0x40 PUSH1 0x1F NOT PUSH1 0x1F DUP4 ADD AND DUP6 ADD ADD SWAP3 POP POP POP SWAP3 SWAP2 POP POP JUMP JUMPDEST PUSH4 0x4E487B71 PUSH1 0xE0 SHL PUSH1 0x0 MSTORE PUSH1 0x41 PUSH1 0x4 MSTORE PUSH1 0x24 PUSH1 0x0 REVERT JUMPDEST PUSH1 0x40 MLOAD PUSH1 0x1F DUP3 ADD PUSH1 0x1F NOT AND DUP2 ADD PUSH8 0xFFFFFFFFFFFFFFFF DUP2 GT DUP3 DUP3 LT OR ISZERO PUSH2 0x22B JUMPI PUSH2 0x22B PUSH2 0x1EC JUMP JUMPDEST PUSH1 0x40 MSTORE SWAP2 SWAP1 POP JUMP JUMPDEST PUSH1 0x0 PUSH1 0x20 DUP1 DUP4 DUP6 SUB SLT ISZERO PUSH2 0x246 JUMPI PUSH1 0x0 DUP1 REVERT JUMPDEST DUP3 CALLDATALOAD PUSH8 0xFFFFFFFFFFFFFFFF DUP1 DUP3 GT ISZERO PUSH2 0x25E JUMPI PUSH1 0x0 DUP1 REVERT JUMPDEST DUP2 DUP6 ADD SWAP2 POP PUSH1 0x1F DUP7 DUP2 DUP5 ADD SLT PUSH2 0x273 JUMPI PUSH1 0x0 DUP1 REVERT JUMPDEST DUP3 CALLDATALOAD DUP3 DUP2 GT ISZERO PUSH2 0x285 JUMPI PUSH2 0x285 PUSH2 0x1EC JUMP JUMPDEST DUP1 PUSH1 0x5 SHL PUSH2 0x294 DUP7 DUP3 ADD PUSH2 0x202 JUMP JUMPDEST SWAP2 DUP3 MSTORE DUP5 DUP2 ADD DUP7 ADD SWAP2 DUP7 DUP2 ADD SWAP1 DUP11 DUP5 GT ISZERO PUSH2 0x2AE JUMPI PUSH1 0x0 DUP1 REVERT JUMPDEST DUP8 DUP8 ADD SWAP3 POP JUMPDEST DUP4 DUP4 LT ISZERO PUSH2 0x33E JUMPI DUP3 CALLDATALOAD DUP7 DUP2 GT ISZERO PUSH2 0x2CC JUMPI PUSH1 0x0 DUP1 DUP2 REVERT JUMPDEST DUP8 ADD PUSH1 0x3F DUP2 ADD DUP13 SGT PUSH2 0x2DE JUMPI PUSH1 0x0 DUP1 DUP2 REVERT JUMPDEST DUP9 DUP2 ADD CALLDATALOAD PUSH1 0x40 DUP9 DUP3 GT ISZERO PUSH2 0x2F4 JUMPI PUSH2 0x2F4 PUSH2 0x1EC JUMP JUMPDEST PUSH2 0x305 DUP3 DUP10 ADD PUSH1 0x1F NOT AND DUP13 ADD PUSH2 0x202 JUMP JUMPDEST DUP3 DUP2 MSTORE DUP15 DUP3 DUP5 DUP7 ADD ADD GT ISZERO PUSH2 0x31A JUMPI PUSH1 0x0 DUP1 DUP2 REVERT JUMPDEST DUP3 DUP3 DUP6 ADD DUP14 DUP4 ADD CALLDATACOPY PUSH1 0x0 SWAP3 DUP2 ADD DUP13 ADD SWAP3 SWAP1 SWAP3 MSTORE POP DUP4 MSTORE POP SWAP2 DUP8 ADD SWAP2 SWAP1 DUP8 ADD SWAP1 PUSH2 0x2B4 JUMP JUMPDEST SWAP11 SWAP10 POP POP POP POP POP POP POP POP POP POP JUMP JUMPDEST PUSH1 0x1 DUP2 DUP2 SHR SWAP1 DUP3 AND DUP1 PUSH2 0x360 JUMPI PUSH1 0x7F DUP3 AND SWAP2 POP JUMPDEST PUSH1 0x20 DUP3 LT DUP2 SUB PUSH2 0x380 JUMPI PUSH4 0x4E487B71 PUSH1 0xE0 SHL PUSH1 0x0 MSTORE PUSH1 0x22 PUSH1 0x4 MSTORE PUSH1 0x24 PUSH1 0x0 REVERT JUMPDEST POP SWAP2 SWAP1 POP JUMP JUMPDEST PUSH4 0x4E487B71 PUSH1 0xE0 SHL PUSH1 0x0 MSTORE PUSH1 0x32 PUSH1 0x4 MSTORE PUSH1 0x24 PUSH1 0x0 REVERT JUMPDEST PUSH1 0x1F DUP3 GT ISZERO PUSH2 0x3E6 JUMPI PUSH1 0x0 DUP2 DUP2 MSTORE PUSH1 0x20 DUP2 KECCAK256 PUSH1 0x1F DUP6 ADD PUSH1 0x5 SHR DUP2 ADD PUSH1 0x20 DUP7 LT ISZERO PUSH2 0x3C3 JUMPI POP DUP1 JUMPDEST PUSH1 0x1F DUP6 ADD PUSH1 0x5 SHR DUP3 ADD SWAP2 POP JUMPDEST DUP2 DUP2 LT ISZERO PUSH2 0x3E2 JUMPI DUP3 DUP2 SSTORE PUSH1 0x1 ADD PUSH2 0x3CF JUMP JUMPDEST POP POP POP JUMPDEST POP POP POP JUMP JUMPDEST DUP2 MLOAD PUSH8 0xFFFFFFFFFFFFFFFF DUP2 GT ISZERO PUSH2 0x405 JUMPI PUSH2 0x405 PUSH2 0x1EC JUMP JUMPDEST PUSH2 0x419 DUP2 PUSH2 0x413 DUP5 SLOAD PUSH2 0x34C JUMP JUMPDEST DUP5 PUSH2 0x39C JUMP JUMPDEST PUSH1 0x20 DUP1 PUSH1 0x1F DUP4 GT PUSH1 0x1 DUP2 EQ PUSH2 0x44E JUMPI PUSH1 0x0 DUP5 ISZERO PUSH2 0x436 JUMPI POP DUP6 DUP4 ADD MLOAD JUMPDEST PUSH1 0x0 NOT PUSH1 0x3 DUP7 SWAP1 SHL SHR NOT AND PUSH1 0x1 DUP6 SWAP1 SHL OR DUP6 SSTORE PUSH2 0x3E2 JUMP JUMPDEST PUSH1 0x0 DUP6 DUP2 MSTORE PUSH1 0x20 DUP2 KECCAK256 PUSH1 0x1F NOT DUP7 AND SWAP2 JUMPDEST DUP3 DUP2 LT ISZERO PUSH2 0x47D JUMPI DUP9 DUP7 ADD MLOAD DUP3 SSTORE SWAP5 DUP5 ADD SWAP5 PUSH1 0x1 SWAP1 SWAP2 ADD SWAP1 DUP5 ADD PUSH2 0x45E JUMP JUMPDEST POP DUP6 DUP3 LT ISZERO PUSH2 0x49B JUMPI DUP8 DUP6 ADD MLOAD PUSH1 0x0 NOT PUSH1 0x3 DUP9 SWAP1 SHL PUSH1 0xF8 AND SHR NOT AND DUP2 SSTORE JUMPDEST POP POP POP POP POP PUSH1 0x1 SWAP1 DUP2 SHL ADD SWAP1 SSTORE POP JUMP JUMPDEST PUSH1 0x0 PUSH1 0x1 DUP3 ADD PUSH2 0x4CB JUMPI PUSH4 0x4E487B71 PUSH1 0xE0 SHL PUSH1 0x0 MSTORE PUSH1 0x11 PUSH1 0x4 MSTORE PUSH1 0x24 PUSH1 0x0 REVERT JUMPDEST POP PUSH1 0x1 ADD SWAP1 JUMP INVALID LOG2 PUSH5 0x6970667358 0x22 SLT KECCAK256 EQ SDIV 0xE GAS 0xB9 SUB PUSH12 0x1FEEA926E768F07DAF565C13 0xC0 SIGNEXTEND STOP 0xBF SWAP16 EXP 0x22 0xDC INVALID PUSH28 0xD9F9F364736F6C634300081500330000000000000000000000000000 ","sha1":"3fde46e19eb7f25df19932ea40bcd98414357493","source":"pragma solidity ^0.8.0;\n\ncontract NameStorage {\n    string[] public names;\n\n    function addNames(string[] memory newNames) public {\n        for (uint i = 0; i < newNames.length; i++) {\n            names.push(newNames[i]);\n        }\n    }\n}\n","sourcePath":"contracts/gastest.sol","type":"contract","deployment":{"address":"0xeEEaa7Ad530cAF8579dCEbF5B33a3FCAf3BbBCE7","chainid":"86098","blockHeight":61561}}